{
  "contractName": "CloversFrontend",
  "abi": [
    {
      "constant": false,
      "inputs": [
        {
          "name": "token",
          "type": "address"
        }
      ],
      "name": "reclaimToken",
      "outputs": [],
      "payable": false,
      "stateMutability": "nonpayable",
      "type": "function"
    },
    {
      "constant": true,
      "inputs": [],
      "name": "owner",
      "outputs": [
        {
          "name": "",
          "type": "address"
        }
      ],
      "payable": false,
      "stateMutability": "view",
      "type": "function"
    },
    {
      "constant": false,
      "inputs": [],
      "name": "reclaimEther",
      "outputs": [],
      "payable": false,
      "stateMutability": "nonpayable",
      "type": "function"
    },
    {
      "constant": false,
      "inputs": [
        {
          "name": "from_",
          "type": "address"
        },
        {
          "name": "value_",
          "type": "uint256"
        },
        {
          "name": "data_",
          "type": "bytes"
        }
      ],
      "name": "tokenFallback",
      "outputs": [],
      "payable": false,
      "stateMutability": "nonpayable",
      "type": "function"
    },
    {
      "constant": false,
      "inputs": [
        {
          "name": "newOwner",
          "type": "address"
        }
      ],
      "name": "transferOwnership",
      "outputs": [],
      "payable": false,
      "stateMutability": "nonpayable",
      "type": "function"
    },
    {
      "inputs": [
        {
          "name": "_cloversController",
          "type": "address"
        }
      ],
      "payable": false,
      "stateMutability": "nonpayable",
      "type": "constructor"
    },
    {
      "payable": false,
      "stateMutability": "nonpayable",
      "type": "fallback"
    },
    {
      "anonymous": false,
      "inputs": [
        {
          "indexed": false,
          "name": "movesHash",
          "type": "bytes32"
        },
        {
          "indexed": false,
          "name": "miner",
          "type": "address"
        }
      ],
      "name": "cloverCommited",
      "type": "event"
    },
    {
      "anonymous": false,
      "inputs": [
        {
          "indexed": false,
          "name": "moves",
          "type": "bytes28[2]"
        },
        {
          "indexed": false,
          "name": "_tokenId",
          "type": "uint256"
        },
        {
          "indexed": false,
          "name": "miner",
          "type": "address"
        }
      ],
      "name": "cloverRevealed",
      "type": "event"
    },
    {
      "anonymous": false,
      "inputs": [
        {
          "indexed": false,
          "name": "moves",
          "type": "bytes28[2]"
        },
        {
          "indexed": false,
          "name": "_tokenId",
          "type": "uint256"
        },
        {
          "indexed": false,
          "name": "miner",
          "type": "address"
        }
      ],
      "name": "cloverClaimed",
      "type": "event"
    },
    {
      "anonymous": false,
      "inputs": [
        {
          "indexed": false,
          "name": "moves",
          "type": "bytes28[2]"
        },
        {
          "indexed": false,
          "name": "_tokenId",
          "type": "uint256"
        },
        {
          "indexed": false,
          "name": "miner",
          "type": "address"
        }
      ],
      "name": "stakeRetrieved",
      "type": "event"
    },
    {
      "anonymous": false,
      "inputs": [
        {
          "indexed": false,
          "name": "moves",
          "type": "bytes28[2]"
        },
        {
          "indexed": false,
          "name": "_tokenId",
          "type": "uint256"
        },
        {
          "indexed": false,
          "name": "miner",
          "type": "address"
        },
        {
          "indexed": false,
          "name": "challenger",
          "type": "address"
        }
      ],
      "name": "cloverChallenged",
      "type": "event"
    },
    {
      "anonymous": false,
      "inputs": [
        {
          "indexed": true,
          "name": "previousOwner",
          "type": "address"
        },
        {
          "indexed": true,
          "name": "newOwner",
          "type": "address"
        }
      ],
      "name": "OwnershipTransferred",
      "type": "event"
    },
    {
      "constant": true,
      "inputs": [],
      "name": "currentStakeAmount",
      "outputs": [
        {
          "name": "",
          "type": "uint256"
        }
      ],
      "payable": false,
      "stateMutability": "view",
      "type": "function"
    },
    {
      "constant": true,
      "inputs": [],
      "name": "currentStakePeriod",
      "outputs": [
        {
          "name": "",
          "type": "uint256"
        }
      ],
      "payable": false,
      "stateMutability": "view",
      "type": "function"
    },
    {
      "constant": true,
      "inputs": [
        {
          "name": "moves",
          "type": "bytes28[2]"
        }
      ],
      "name": "isValid",
      "outputs": [
        {
          "name": "",
          "type": "bool"
        }
      ],
      "payable": false,
      "stateMutability": "view",
      "type": "function"
    },
    {
      "constant": true,
      "inputs": [
        {
          "name": "_tokenId",
          "type": "uint256"
        }
      ],
      "name": "isVerified",
      "outputs": [
        {
          "name": "",
          "type": "bool"
        }
      ],
      "payable": false,
      "stateMutability": "view",
      "type": "function"
    },
    {
      "constant": true,
      "inputs": [
        {
          "name": "_symmetries",
          "type": "bytes1"
        }
      ],
      "name": "calculateReward",
      "outputs": [
        {
          "name": "",
          "type": "uint256"
        }
      ],
      "payable": false,
      "stateMutability": "view",
      "type": "function"
    },
    {
      "constant": false,
      "inputs": [
        {
          "name": "_cloversController",
          "type": "address"
        }
      ],
      "name": "updateCloversControllerAddress",
      "outputs": [],
      "payable": false,
      "stateMutability": "nonpayable",
      "type": "function"
    },
    {
      "constant": false,
      "inputs": [
        {
          "name": "moves",
          "type": "bytes28[2]"
        },
        {
          "name": "_tokenId",
          "type": "uint256"
        },
        {
          "name": "_symmetries",
          "type": "bytes1"
        },
        {
          "name": "_to",
          "type": "address"
        }
      ],
      "name": "claimClover",
      "outputs": [
        {
          "name": "",
          "type": "bool"
        }
      ],
      "payable": true,
      "stateMutability": "payable",
      "type": "function"
    },
    {
      "constant": false,
      "inputs": [
        {
          "name": "movesHash",
          "type": "bytes32"
        },
        {
          "name": "_to",
          "type": "address"
        }
      ],
      "name": "claimCloverCommit",
      "outputs": [
        {
          "name": "",
          "type": "bool"
        }
      ],
      "payable": true,
      "stateMutability": "payable",
      "type": "function"
    },
    {
      "constant": false,
      "inputs": [
        {
          "name": "moves",
          "type": "bytes28[2]"
        },
        {
          "name": "_tokenId",
          "type": "uint256"
        },
        {
          "name": "_symmetries",
          "type": "bytes1"
        }
      ],
      "name": "claimCloverReveal",
      "outputs": [
        {
          "name": "",
          "type": "bool"
        }
      ],
      "payable": false,
      "stateMutability": "nonpayable",
      "type": "function"
    },
    {
      "constant": false,
      "inputs": [
        {
          "name": "_tokenId",
          "type": "uint256"
        }
      ],
      "name": "retrieveStake",
      "outputs": [
        {
          "name": "",
          "type": "bool"
        }
      ],
      "payable": false,
      "stateMutability": "nonpayable",
      "type": "function"
    },
    {
      "constant": false,
      "inputs": [
        {
          "name": "_tokenId",
          "type": "uint256"
        },
        {
          "name": "_to",
          "type": "address"
        }
      ],
      "name": "challengeClover",
      "outputs": [
        {
          "name": "",
          "type": "bool"
        }
      ],
      "payable": false,
      "stateMutability": "nonpayable",
      "type": "function"
    }
  ],
  "bytecode": "0x6060604052341561000f57600080fd5b60405160208061156b83398101604052808051906020019091905050336000806101000a81548173ffffffffffffffffffffffffffffffffffffffff021916908373ffffffffffffffffffffffffffffffffffffffff16021790555060003414151561007a57600080fd5b6100968161009c64010000000002610c40176401000000009004565b5061015f565b6000809054906101000a900473ffffffffffffffffffffffffffffffffffffffff1673ffffffffffffffffffffffffffffffffffffffff163373ffffffffffffffffffffffffffffffffffffffff161415156100f757600080fd5b60008173ffffffffffffffffffffffffffffffffffffffff16141561011b57600080fd5b80600160006101000a81548173ffffffffffffffffffffffffffffffffffffffff021916908373ffffffffffffffffffffffffffffffffffffffff16021790555050565b6113fd8061016e6000396000f3006060604052600436106100e6576000357c0100000000000000000000000000000000000000000000000000000000900463ffffffff16806308b6a33d146100f357806317ffc32014610199578063271eff94146101d257806332cda7791461023057806335f718991461025957806337b6d96b146102ac5780636cb6b41f146102e75780638a56a226146103105780638da5cb5b146103495780639f727c271461039e578063acd37b7b146103b3578063afc628531461040d578063c0ee0b8a1461049f578063c1fe551a146104f5578063e00a768d14610530578063f2fde38b14610589575b34156100f157600080fd5b005b61017f600480806040019060028060200260405190810160405280929190826002602002808284378201915050505050919080359060200190919080357effffffffffffffffffffffffffffffffffffffffffffffffffffffffffffff191690602001909190803573ffffffffffffffffffffffffffffffffffffffff169060200190919050506105c2565b604051808215151515815260200191505060405180910390f35b34156101a457600080fd5b6101d0600480803573ffffffffffffffffffffffffffffffffffffffff16906020019091905050610725565b005b34156101dd57600080fd5b61021660048080604001906002806020026040519081016040528092919082600260200280828437820191505050505091905050610885565b604051808215151515815260200191505060405180910390f35b341561023b57600080fd5b61024361095d565b6040518082815260200191505060405180910390f35b61029260048080356000191690602001909190803573ffffffffffffffffffffffffffffffffffffffff16906020019091905050610a00565b604051808215151515815260200191505060405180910390f35b34156102b757600080fd5b6102cd6004808035906020019091905050610aed565b604051808215151515815260200191505060405180910390f35b34156102f257600080fd5b6102fa610b9d565b6040518082815260200191505060405180910390f35b341561031b57600080fd5b610347600480803573ffffffffffffffffffffffffffffffffffffffff16906020019091905050610c40565b005b341561035457600080fd5b61035c610d03565b604051808273ffffffffffffffffffffffffffffffffffffffff1673ffffffffffffffffffffffffffffffffffffffff16815260200191505060405180910390f35b34156103a957600080fd5b6103b1610d28565b005b34156103be57600080fd5b6103f3600480803590602001909190803573ffffffffffffffffffffffffffffffffffffffff16906020019091905050610dfa565b604051808215151515815260200191505060405180910390f35b341561041857600080fd5b610485600480806040019060028060200260405190810160405280929190826002602002808284378201915050505050919080359060200190919080357effffffffffffffffffffffffffffffffffffffffffffffffffffffffffffff1916906020019091905050610edf565b604051808215151515815260200191505060405180910390f35b34156104aa57600080fd5b6104f3600480803573ffffffffffffffffffffffffffffffffffffffff16906020019091908035906020019091908035906020019082018035906020019190919290505061100d565b005b341561050057600080fd5b6105166004808035906020019091905050611012565b604051808215151515815260200191505060405180910390f35b341561053b57600080fd5b61057360048080357effffffffffffffffffffffffffffffffffffffffffffffffffffffffffffff19169060200190919050506110c2565b6040518082815260200191505060405180910390f35b341561059457600080fd5b6105c0600480803573ffffffffffffffffffffffffffffffffffffffff169060200190919050506111b6565b005b6000600160009054906101000a900473ffffffffffffffffffffffffffffffffffffffff1673ffffffffffffffffffffffffffffffffffffffff166308b6a33d868686866040518563ffffffff167c01000000000000000000000000000000000000000000000000000000000281526004018085600260200280838360005b8381101561065c578082015181840152602081019050610641565b50505050905001848152602001837effffffffffffffffffffffffffffffffffffffffffffffffffffffffffffff19167effffffffffffffffffffffffffffffffffffffffffffffffffffffffffffff191681526020018273ffffffffffffffffffffffffffffffffffffffff1673ffffffffffffffffffffffffffffffffffffffff168152602001945050505050602060405180830381600087803b151561070457600080fd5b5af1151561071157600080fd5b505050604051805190509050949350505050565b60008060009054906101000a900473ffffffffffffffffffffffffffffffffffffffff1673ffffffffffffffffffffffffffffffffffffffff163373ffffffffffffffffffffffffffffffffffffffff1614151561078257600080fd5b8173ffffffffffffffffffffffffffffffffffffffff166370a08231306040518263ffffffff167c0100000000000000000000000000000000000000000000000000000000028152600401808273ffffffffffffffffffffffffffffffffffffffff1673ffffffffffffffffffffffffffffffffffffffff168152602001915050602060405180830381600087803b151561081c57600080fd5b5af1151561082957600080fd5b5050506040518051905090506108816000809054906101000a900473ffffffffffffffffffffffffffffffffffffffff16828473ffffffffffffffffffffffffffffffffffffffff1661130b9092919063ffffffff16565b5050565b6000600160009054906101000a900473ffffffffffffffffffffffffffffffffffffffff1673ffffffffffffffffffffffffffffffffffffffff1663271eff94836040518263ffffffff167c01000000000000000000000000000000000000000000000000000000000281526004018082600260200280838360005b8381101561091c578082015181840152602081019050610901565b50505050905001915050602060405180830381600087803b151561093f57600080fd5b5af1151561094c57600080fd5b505050604051805190509050919050565b6000600160009054906101000a900473ffffffffffffffffffffffffffffffffffffffff1673ffffffffffffffffffffffffffffffffffffffff166332cda7796040518163ffffffff167c0100000000000000000000000000000000000000000000000000000000028152600401602060405180830381600087803b15156109e457600080fd5b5af115156109f157600080fd5b50505060405180519050905090565b6000600160009054906101000a900473ffffffffffffffffffffffffffffffffffffffff1673ffffffffffffffffffffffffffffffffffffffff166335f7189984846040518363ffffffff167c01000000000000000000000000000000000000000000000000000000000281526004018083600019166000191681526020018273ffffffffffffffffffffffffffffffffffffffff1673ffffffffffffffffffffffffffffffffffffffff16815260200192505050602060405180830381600087803b1515610ace57600080fd5b5af11515610adb57600080fd5b50505060405180519050905092915050565b6000600160009054906101000a900473ffffffffffffffffffffffffffffffffffffffff1673ffffffffffffffffffffffffffffffffffffffff166337b6d96b836040518263ffffffff167c010000000000000000000000000000000000000000000000000000000002815260040180828152602001915050602060405180830381600087803b1515610b7f57600080fd5b5af11515610b8c57600080fd5b505050604051805190509050919050565b6000600160009054906101000a900473ffffffffffffffffffffffffffffffffffffffff1673ffffffffffffffffffffffffffffffffffffffff16636cb6b41f6040518163ffffffff167c0100000000000000000000000000000000000000000000000000000000028152600401602060405180830381600087803b1515610c2457600080fd5b5af11515610c3157600080fd5b50505060405180519050905090565b6000809054906101000a900473ffffffffffffffffffffffffffffffffffffffff1673ffffffffffffffffffffffffffffffffffffffff163373ffffffffffffffffffffffffffffffffffffffff16141515610c9b57600080fd5b60008173ffffffffffffffffffffffffffffffffffffffff161415610cbf57600080fd5b80600160006101000a81548173ffffffffffffffffffffffffffffffffffffffff021916908373ffffffffffffffffffffffffffffffffffffffff16021790555050565b6000809054906101000a900473ffffffffffffffffffffffffffffffffffffffff1681565b6000809054906101000a900473ffffffffffffffffffffffffffffffffffffffff1673ffffffffffffffffffffffffffffffffffffffff163373ffffffffffffffffffffffffffffffffffffffff16141515610d8357600080fd5b6000809054906101000a900473ffffffffffffffffffffffffffffffffffffffff1673ffffffffffffffffffffffffffffffffffffffff166108fc3073ffffffffffffffffffffffffffffffffffffffff16319081150290604051600060405180830381858888f193505050501515610df857fe5b565b6000600160009054906101000a900473ffffffffffffffffffffffffffffffffffffffff1673ffffffffffffffffffffffffffffffffffffffff1663acd37b7b84846040518363ffffffff167c0100000000000000000000000000000000000000000000000000000000028152600401808381526020018273ffffffffffffffffffffffffffffffffffffffff1673ffffffffffffffffffffffffffffffffffffffff16815260200192505050602060405180830381600087803b1515610ec057600080fd5b5af11515610ecd57600080fd5b50505060405180519050905092915050565b6000600160009054906101000a900473ffffffffffffffffffffffffffffffffffffffff1673ffffffffffffffffffffffffffffffffffffffff1663afc628538585856040518463ffffffff167c01000000000000000000000000000000000000000000000000000000000281526004018084600260200280838360005b83811015610f78578082015181840152602081019050610f5d565b50505050905001838152602001827effffffffffffffffffffffffffffffffffffffffffffffffffffffffffffff19167effffffffffffffffffffffffffffffffffffffffffffffffffffffffffffff191681526020019350505050602060405180830381600087803b1515610fed57600080fd5b5af11515610ffa57600080fd5b5050506040518051905090509392505050565b600080fd5b6000600160009054906101000a900473ffffffffffffffffffffffffffffffffffffffff1673ffffffffffffffffffffffffffffffffffffffff1663c1fe551a836040518263ffffffff167c010000000000000000000000000000000000000000000000000000000002815260040180828152602001915050602060405180830381600087803b15156110a457600080fd5b5af115156110b157600080fd5b505050604051805190509050919050565b6000600160009054906101000a900473ffffffffffffffffffffffffffffffffffffffff1673ffffffffffffffffffffffffffffffffffffffff1663e00a768d836040518263ffffffff167c010000000000000000000000000000000000000000000000000000000002815260040180827effffffffffffffffffffffffffffffffffffffffffffffffffffffffffffff19167effffffffffffffffffffffffffffffffffffffffffffffffffffffffffffff19168152602001915050602060405180830381600087803b151561119857600080fd5b5af115156111a557600080fd5b505050604051805190509050919050565b6000809054906101000a900473ffffffffffffffffffffffffffffffffffffffff1673ffffffffffffffffffffffffffffffffffffffff163373ffffffffffffffffffffffffffffffffffffffff1614151561121157600080fd5b600073ffffffffffffffffffffffffffffffffffffffff168173ffffffffffffffffffffffffffffffffffffffff161415151561124d57600080fd5b8073ffffffffffffffffffffffffffffffffffffffff166000809054906101000a900473ffffffffffffffffffffffffffffffffffffffff1673ffffffffffffffffffffffffffffffffffffffff167f8be0079c531659141344cd1fd0a4f28419497f9722a3daafe3b4186f6b6457e060405160405180910390a3806000806101000a81548173ffffffffffffffffffffffffffffffffffffffff021916908373ffffffffffffffffffffffffffffffffffffffff16021790555050565b8273ffffffffffffffffffffffffffffffffffffffff1663a9059cbb83836040518363ffffffff167c0100000000000000000000000000000000000000000000000000000000028152600401808373ffffffffffffffffffffffffffffffffffffffff1673ffffffffffffffffffffffffffffffffffffffff16815260200182815260200192505050602060405180830381600087803b15156113ad57600080fd5b5af115156113ba57600080fd5b5050506040518051905015156113cc57fe5b5050505600a165627a7a72305820677d271ade592c3a8b003751475db9a53b881e37f73424a6f84e88208acb8e730029",
  "source": "pragma solidity ^0.4.19;\n\n/**\n * The Clovers contract is the interface for the CloversController Contract\n */\nimport \"./CloversFactory.sol\";\nimport \"zeppelin-solidity/contracts/ownership/HasNoTokens.sol\";\nimport \"zeppelin-solidity/contracts/ownership/HasNoEther.sol\";\n\n\ncontract CloversFrontend is CloversFactory, HasNoTokens, HasNoEther {\n    event cloverCommited(bytes32 movesHash, address miner);\n    event cloverRevealed(bytes28[2] moves, uint256 _tokenId, address miner);\n    event cloverClaimed(bytes28[2] moves, uint256 _tokenId, address miner);\n    event stakeRetrieved(bytes28[2] moves, uint256 _tokenId, address miner);\n    event cloverChallenged(bytes28[2] moves, uint256 _tokenId, address miner, address challenger);\n\n    address cloversController;\n\n    function CloversFrontend (address _cloversController) public {\n        updateCloversControllerAddress(_cloversController);\n    }\n\n    // function () public {\n    //     bool callSuccess = cloversController.delegatecall(msg.data);\n\n    //     if (callSuccess) {\n    //         assembly {\n    //             // returndatacopy(toMemAddress, fromMemAddress, sizeInBytes)\n    //             returndatacopy(0x0, 0x0, returndatasize)\n    //             // return(fromMemAddress, sizeInBytes)\n    //             return(0x0, returndatasize)\n    //         }\n    //     } else {\n    //         revert();\n    //     }\n    // }\n\n    /**\n    * @dev Gets the current staking amount needed to claim a Clover.\n    * @return A uint256 value of how much stake is needed.\n    */\n    function currentStakeAmount() public constant returns (uint256) {\n        return CloversFactory(cloversController).currentStakeAmount();\n    }\n    /**\n    * @dev Gets the current staking period needed to verify a Clover.\n    * @return A uint256 value of stake period in seconds.\n    */\n    function currentStakePeriod() public constant returns (uint256) {\n        return CloversFactory(cloversController).currentStakePeriod();\n    }\n    /**\n    * @dev Checks whether the game is valid.\n    * @param moves The moves needed to play validate the game.\n    * @return A boolean representing whether or not the game is valid.\n    */\n    function isValid(bytes28[2] moves) public constant returns (bool) {\n        return CloversFactory(cloversController).isValid(moves);\n    }\n    /**\n    * @dev Checks whether the game has passed the verification period.\n    * @param _tokenId The board being checked.\n    * @return A boolean representing whether or not the game has been verified.\n    */\n    function isVerified(uint256 _tokenId) public constant returns (bool) {\n        return CloversFactory(cloversController).isVerified(_tokenId);\n    }\n    /**\n    * @dev Calculates the reward of the board.\n    * @param _symmetries symmetries saved as a bytes1 value like 00010101 where bits represent symmetry types.\n    * @return A uint256 representing the reward that would be returned for claiming the board.\n    */\n    function calculateReward(bytes1 _symmetries) public constant returns (uint256) {\n        return CloversFactory(cloversController).calculateReward(_symmetries);\n    }\n\n    /**\n    * @dev Updates the deployed address of the CloverController contract.\n    * @param _cloversController The address of the CloverController contract.\n    */\n    function updateCloversControllerAddress(address _cloversController) public onlyOwner {\n        if (_cloversController == 0) {\n            revert();\n        }\n        cloversController = _cloversController;\n    }\n\n    /**\n    * @dev Claim the Clover without a commit or reveal.\n    * @param moves The moves that make up the Clover reversi game.\n    * @param _tokenId The board that results from the moves.\n    * @param _symmetries symmetries saved as a bytes1 value like 00010101 where bits represent symmetry types.\n    * @param _to The address claiming the Clover.\n    * @return A boolean representing whether or not the claim was successful.\n    */\n    function claimClover(bytes28[2] moves, uint256 _tokenId, bytes1 _symmetries, address _to) public payable returns (bool) {\n        return CloversFactory(cloversController).claimClover(moves, _tokenId, _symmetries, _to);\n    }\n    /**\n    * @dev Commit the hash of the moves needed to claim the Clover. A stake should be made for counterfactual verification.\n    * @param movesHash The hash of the moves that makes up the Clover reversi game.\n    * @param _to The address claiming the Clover.\n    * @return A boolean representing whether or not the commit was successful.\n    */\n    function claimCloverCommit(bytes32 movesHash, address _to) public payable returns (bool) {\n        return CloversFactory(cloversController).claimCloverCommit(movesHash, _to);\n    }\n    /**\n    * @dev Reveal the solution to the previous commit to claim the Clover.\n    * @param moves The moves that make up the Clover reversi game.\n    * @param _tokenId The board that results from the moves.\n    * @param _symmetries symmetries saved as a bytes1 value like 00010101 where bits represent symmetry types.\n    * @return A boolean representing whether or not the reveal and claim was successful.\n    */\n    function claimCloverReveal(bytes28[2] moves, uint256 _tokenId, bytes1 _symmetries) public returns (bool) {\n        return CloversFactory(cloversController).claimCloverReveal(moves, _tokenId, _symmetries);\n    }\n    /**\n    * @dev Retrieve the stake from a Clover claim after the stake period has ended.\n    * @param _tokenId The board which holds the stake.\n    * @return A boolean representing whether or not the retrieval was successful.\n    */\n    function retrieveStake(uint256 _tokenId) public returns (bool) {\n        return CloversFactory(cloversController).retrieveStake(_tokenId);\n    }\n    /**\n    * @dev Challenge a staked Clover for being invalid.\n    * @param _tokenId The board being challenged.\n    * @param _to The address challenging the Clover.\n    * @return A boolean representing whether or not the challenge was successful.\n    */\n    function challengeClover(uint256 _tokenId, address _to) public returns (bool) {\n        return CloversFactory(cloversController).challengeClover(_tokenId, _to);\n    }\n\n}\n",
  "sourcePath": "/Users/billy/vue/clovers-dapp/contracts/CloversFrontend.sol",
  "compiler": {
    "name": "solc",
    "version": "0.4.21+commit.dfe3193c.Emscripten.clang"
  },
  "schemaVersion": "2.0.0",
  "updatedAt": "2018-03-26T16:44:40.753Z"
}