{
  "contractName": "Clovers",
  "abi": [
    {
      "constant": false,
      "inputs": [
        {
          "name": "_to",
          "type": "address"
        },
        {
          "name": "_tokenId",
          "type": "uint256"
        }
      ],
      "name": "approve",
      "outputs": [],
      "payable": false,
      "stateMutability": "nonpayable",
      "type": "function"
    },
    {
      "constant": true,
      "inputs": [],
      "name": "totalSupply",
      "outputs": [
        {
          "name": "",
          "type": "uint256"
        }
      ],
      "payable": false,
      "stateMutability": "view",
      "type": "function"
    },
    {
      "constant": true,
      "inputs": [
        {
          "name": "_tokenId",
          "type": "uint256"
        }
      ],
      "name": "approvedFor",
      "outputs": [
        {
          "name": "",
          "type": "address"
        }
      ],
      "payable": false,
      "stateMutability": "view",
      "type": "function"
    },
    {
      "constant": true,
      "inputs": [
        {
          "name": "",
          "type": "bytes32"
        }
      ],
      "name": "commits",
      "outputs": [
        {
          "name": "",
          "type": "address"
        }
      ],
      "payable": false,
      "stateMutability": "view",
      "type": "function"
    },
    {
      "constant": true,
      "inputs": [
        {
          "name": "_owner",
          "type": "address"
        }
      ],
      "name": "tokensOf",
      "outputs": [
        {
          "name": "",
          "type": "uint256[]"
        }
      ],
      "payable": false,
      "stateMutability": "view",
      "type": "function"
    },
    {
      "constant": true,
      "inputs": [
        {
          "name": "_tokenId",
          "type": "uint256"
        }
      ],
      "name": "ownerOf",
      "outputs": [
        {
          "name": "",
          "type": "address"
        }
      ],
      "payable": false,
      "stateMutability": "view",
      "type": "function"
    },
    {
      "constant": true,
      "inputs": [
        {
          "name": "",
          "type": "uint256"
        }
      ],
      "name": "clovers",
      "outputs": [
        {
          "name": "symmetries",
          "type": "bytes1"
        },
        {
          "name": "blockMinted",
          "type": "uint256"
        },
        {
          "name": "rewards",
          "type": "uint256"
        }
      ],
      "payable": false,
      "stateMutability": "view",
      "type": "function"
    },
    {
      "constant": true,
      "inputs": [
        {
          "name": "_owner",
          "type": "address"
        }
      ],
      "name": "balanceOf",
      "outputs": [
        {
          "name": "",
          "type": "uint256"
        }
      ],
      "payable": false,
      "stateMutability": "view",
      "type": "function"
    },
    {
      "constant": true,
      "inputs": [],
      "name": "owner",
      "outputs": [
        {
          "name": "",
          "type": "address"
        }
      ],
      "payable": false,
      "stateMutability": "view",
      "type": "function"
    },
    {
      "constant": true,
      "inputs": [
        {
          "name": "",
          "type": "bytes32"
        }
      ],
      "name": "stakes",
      "outputs": [
        {
          "name": "",
          "type": "uint256"
        }
      ],
      "payable": false,
      "stateMutability": "view",
      "type": "function"
    },
    {
      "constant": false,
      "inputs": [
        {
          "name": "_to",
          "type": "address"
        },
        {
          "name": "_tokenId",
          "type": "uint256"
        }
      ],
      "name": "transfer",
      "outputs": [],
      "payable": false,
      "stateMutability": "nonpayable",
      "type": "function"
    },
    {
      "constant": false,
      "inputs": [
        {
          "name": "_tokenId",
          "type": "uint256"
        }
      ],
      "name": "takeOwnership",
      "outputs": [],
      "payable": false,
      "stateMutability": "nonpayable",
      "type": "function"
    },
    {
      "constant": false,
      "inputs": [
        {
          "name": "newOwner",
          "type": "address"
        }
      ],
      "name": "transferOwnership",
      "outputs": [],
      "payable": false,
      "stateMutability": "nonpayable",
      "type": "function"
    },
    {
      "inputs": [],
      "payable": false,
      "stateMutability": "nonpayable",
      "type": "constructor"
    },
    {
      "payable": true,
      "stateMutability": "payable",
      "type": "fallback"
    },
    {
      "anonymous": false,
      "inputs": [
        {
          "indexed": true,
          "name": "previousOwner",
          "type": "address"
        },
        {
          "indexed": true,
          "name": "newOwner",
          "type": "address"
        }
      ],
      "name": "OwnershipTransferred",
      "type": "event"
    },
    {
      "anonymous": false,
      "inputs": [
        {
          "indexed": true,
          "name": "_from",
          "type": "address"
        },
        {
          "indexed": true,
          "name": "_to",
          "type": "address"
        },
        {
          "indexed": false,
          "name": "_tokenId",
          "type": "uint256"
        }
      ],
      "name": "Transfer",
      "type": "event"
    },
    {
      "anonymous": false,
      "inputs": [
        {
          "indexed": true,
          "name": "_owner",
          "type": "address"
        },
        {
          "indexed": true,
          "name": "_approved",
          "type": "address"
        },
        {
          "indexed": false,
          "name": "_tokenId",
          "type": "uint256"
        }
      ],
      "name": "Approval",
      "type": "event"
    },
    {
      "constant": true,
      "inputs": [],
      "name": "implementation",
      "outputs": [
        {
          "name": "",
          "type": "address"
        }
      ],
      "payable": false,
      "stateMutability": "view",
      "type": "function"
    },
    {
      "constant": true,
      "inputs": [
        {
          "name": "_tokenId",
          "type": "uint256"
        }
      ],
      "name": "tokenMetadata",
      "outputs": [
        {
          "name": "_infoUrl",
          "type": "string"
        }
      ],
      "payable": false,
      "stateMutability": "view",
      "type": "function"
    },
    {
      "constant": true,
      "inputs": [
        {
          "name": "moves",
          "type": "bytes28[2]"
        }
      ],
      "name": "getHash",
      "outputs": [
        {
          "name": "",
          "type": "bytes32"
        }
      ],
      "payable": false,
      "stateMutability": "view",
      "type": "function"
    },
    {
      "constant": true,
      "inputs": [
        {
          "name": "movesHash",
          "type": "bytes32"
        }
      ],
      "name": "getStake",
      "outputs": [
        {
          "name": "",
          "type": "uint256"
        }
      ],
      "payable": false,
      "stateMutability": "view",
      "type": "function"
    },
    {
      "constant": true,
      "inputs": [
        {
          "name": "movesHash",
          "type": "bytes32"
        }
      ],
      "name": "getCommit",
      "outputs": [
        {
          "name": "",
          "type": "address"
        }
      ],
      "payable": false,
      "stateMutability": "view",
      "type": "function"
    },
    {
      "constant": true,
      "inputs": [
        {
          "name": "_tokenId",
          "type": "uint256"
        }
      ],
      "name": "getBlockMinted",
      "outputs": [
        {
          "name": "",
          "type": "uint256"
        }
      ],
      "payable": false,
      "stateMutability": "view",
      "type": "function"
    },
    {
      "constant": true,
      "inputs": [
        {
          "name": "_tokenId",
          "type": "uint256"
        }
      ],
      "name": "getCloverMoves",
      "outputs": [
        {
          "name": "",
          "type": "bytes28[2]"
        }
      ],
      "payable": false,
      "stateMutability": "view",
      "type": "function"
    },
    {
      "constant": true,
      "inputs": [
        {
          "name": "_tokenId",
          "type": "uint256"
        }
      ],
      "name": "getReward",
      "outputs": [
        {
          "name": "",
          "type": "uint256"
        }
      ],
      "payable": false,
      "stateMutability": "view",
      "type": "function"
    },
    {
      "constant": true,
      "inputs": [
        {
          "name": "_tokenId",
          "type": "uint256"
        }
      ],
      "name": "getSymmetries",
      "outputs": [
        {
          "name": "",
          "type": "bytes1"
        }
      ],
      "payable": false,
      "stateMutability": "view",
      "type": "function"
    },
    {
      "constant": true,
      "inputs": [],
      "name": "getAllSymmetries",
      "outputs": [
        {
          "name": "",
          "type": "uint256"
        },
        {
          "name": "",
          "type": "uint256"
        },
        {
          "name": "",
          "type": "uint256"
        },
        {
          "name": "",
          "type": "uint256"
        },
        {
          "name": "",
          "type": "uint256"
        },
        {
          "name": "",
          "type": "uint256"
        }
      ],
      "payable": false,
      "stateMutability": "view",
      "type": "function"
    },
    {
      "constant": false,
      "inputs": [
        {
          "name": "_to",
          "type": "address"
        },
        {
          "name": "amount",
          "type": "uint256"
        }
      ],
      "name": "moveEth",
      "outputs": [
        {
          "name": "",
          "type": "bool"
        }
      ],
      "payable": false,
      "stateMutability": "nonpayable",
      "type": "function"
    },
    {
      "constant": false,
      "inputs": [
        {
          "name": "amount",
          "type": "uint256"
        },
        {
          "name": "_to",
          "type": "address"
        },
        {
          "name": "token",
          "type": "address"
        }
      ],
      "name": "moveToken",
      "outputs": [
        {
          "name": "",
          "type": "bool"
        }
      ],
      "payable": false,
      "stateMutability": "nonpayable",
      "type": "function"
    },
    {
      "constant": false,
      "inputs": [
        {
          "name": "amount",
          "type": "uint256"
        },
        {
          "name": "_to",
          "type": "address"
        },
        {
          "name": "token",
          "type": "address"
        }
      ],
      "name": "approveToken",
      "outputs": [
        {
          "name": "",
          "type": "bool"
        }
      ],
      "payable": false,
      "stateMutability": "nonpayable",
      "type": "function"
    },
    {
      "constant": false,
      "inputs": [
        {
          "name": "movesHash",
          "type": "bytes32"
        },
        {
          "name": "stake",
          "type": "uint256"
        }
      ],
      "name": "setStake",
      "outputs": [],
      "payable": false,
      "stateMutability": "nonpayable",
      "type": "function"
    },
    {
      "constant": false,
      "inputs": [
        {
          "name": "movesHash",
          "type": "bytes32"
        },
        {
          "name": "commiter",
          "type": "address"
        }
      ],
      "name": "setCommit",
      "outputs": [],
      "payable": false,
      "stateMutability": "nonpayable",
      "type": "function"
    },
    {
      "constant": false,
      "inputs": [
        {
          "name": "_tokenId",
          "type": "uint256"
        },
        {
          "name": "value",
          "type": "uint256"
        }
      ],
      "name": "setBlockMinted",
      "outputs": [],
      "payable": false,
      "stateMutability": "nonpayable",
      "type": "function"
    },
    {
      "constant": false,
      "inputs": [
        {
          "name": "_tokenId",
          "type": "uint256"
        },
        {
          "name": "moves",
          "type": "bytes28[2]"
        }
      ],
      "name": "setCloverMoves",
      "outputs": [],
      "payable": false,
      "stateMutability": "nonpayable",
      "type": "function"
    },
    {
      "constant": false,
      "inputs": [
        {
          "name": "_tokenId",
          "type": "uint256"
        },
        {
          "name": "_amount",
          "type": "uint256"
        }
      ],
      "name": "setReward",
      "outputs": [],
      "payable": false,
      "stateMutability": "nonpayable",
      "type": "function"
    },
    {
      "constant": false,
      "inputs": [
        {
          "name": "_tokenId",
          "type": "uint256"
        },
        {
          "name": "_symmetries",
          "type": "bytes1"
        }
      ],
      "name": "setSymmetries",
      "outputs": [],
      "payable": false,
      "stateMutability": "nonpayable",
      "type": "function"
    },
    {
      "constant": false,
      "inputs": [
        {
          "name": "_totalSymmetries",
          "type": "uint256"
        },
        {
          "name": "RotSym",
          "type": "uint256"
        },
        {
          "name": "Y0Sym",
          "type": "uint256"
        },
        {
          "name": "X0Sym",
          "type": "uint256"
        },
        {
          "name": "XYSym",
          "type": "uint256"
        },
        {
          "name": "XnYSym",
          "type": "uint256"
        }
      ],
      "name": "setAllSymmetries",
      "outputs": [],
      "payable": false,
      "stateMutability": "nonpayable",
      "type": "function"
    },
    {
      "constant": false,
      "inputs": [
        {
          "name": "_tokenId",
          "type": "uint256"
        }
      ],
      "name": "deleteClover",
      "outputs": [],
      "payable": false,
      "stateMutability": "nonpayable",
      "type": "function"
    },
    {
      "constant": false,
      "inputs": [
        {
          "name": "_cloversController",
          "type": "address"
        }
      ],
      "name": "updateCloversControllerAddress",
      "outputs": [],
      "payable": false,
      "stateMutability": "nonpayable",
      "type": "function"
    },
    {
      "constant": false,
      "inputs": [
        {
          "name": "_cloversMetadata",
          "type": "address"
        }
      ],
      "name": "updateCloversMetadataAddress",
      "outputs": [],
      "payable": false,
      "stateMutability": "nonpayable",
      "type": "function"
    },
    {
      "constant": false,
      "inputs": [
        {
          "name": "_to",
          "type": "address"
        },
        {
          "name": "_tokenId",
          "type": "uint256"
        }
      ],
      "name": "mint",
      "outputs": [],
      "payable": false,
      "stateMutability": "nonpayable",
      "type": "function"
    },
    {
      "constant": false,
      "inputs": [
        {
          "name": "_tokenId",
          "type": "uint256"
        }
      ],
      "name": "unmint",
      "outputs": [],
      "payable": false,
      "stateMutability": "nonpayable",
      "type": "function"
    }
  ],
  "bytecode": "0x6060604052341561000f57600080fd5b33600560006101000a81548173ffffffffffffffffffffffffffffffffffffffff021916908373ffffffffffffffffffffffffffffffffffffffff1602179055506133408061005f6000396000f3006060604052600436106101d8576000357c0100000000000000000000000000000000000000000000000000000000900463ffffffff16806303a53d6b146101da578063095ea7b3146102105780630b628395146102325780630e8310d6146102545780631732e9411461027657806318160ddd146102ac5780631c4b774b146102d55780631cc1472d1461030b5780631dba5660146103415780631dbd9d91146103635780632a6dd48f146103855780633541fd53146103bb57806340c10f19146103dd57806347885781146103ff5780634e485f88146104355780635a3f2672146104575780635c60da1b1461048d57806362f9acf9146104b65780636352211e146104ec57806364e779b1146105225780636914db6014610544578063708fa7f71461057a57806370a08231146105b2578063785d8d71146105e85780638784ea96146106165780638a56a2261461064c5780638b1b2ba81461066e5780638da5cb5b146106905780638fee6407146106b9578063a47bd496146106ef578063a9059cbb14610711578063b2e6ceeb14610733578063b7f8aa0014610755578063c53b4bf91461078b578063e3100d1e146107c1578063e765c122146107e3578063f2fde38b14610819578063f760a4e21461083b575b005b34156101e557600080fd5b6101fa60046101f5903690612c2f565b610871565b604051610207919061306f565b60405180910390f35b341561021b57600080fd5b610230600461022b903690612b29565b610891565b005b341561023d57600080fd5b610252600461024d903690612ca7565b610a24565b005b341561025f57600080fd5b610274600461026f903690612c2f565b610b02565b005b341561028157600080fd5b6102966004610291903690612b65565b610c03565b6040516102a39190613017565b60405180910390f35b34156102b757600080fd5b6102bf610c4a565b6040516102cc919061306f565b60405180910390f35b34156102e057600080fd5b6102f560046102f0903690612c2f565b610c53565b604051610302919061306f565b60405180910390f35b341561031657600080fd5b61032b6004610326903690612b29565b610c73565b6040516103389190612faa565b60405180910390f35b341561034c57600080fd5b610361600461035c903690612ce3565b610d8c565b005b341561036e57600080fd5b610383600461037e903690612bb7565b610e93565b005b341561039057600080fd5b6103a560046103a0903690612c2f565b610fa5565b6040516103b29190612f29565b60405180910390f35b34156103c657600080fd5b6103db60046103d6903690612bf3565b610fe2565b005b34156103e857600080fd5b6103fd60046103f8903690612b29565b6110ba565b005b341561040a57600080fd5b61041f600461041a903690612b8e565b61117c565b60405161042c9190612f29565b60405180910390f35b341561044057600080fd5b6104556004610450903690612b00565b6111af565b005b341561046257600080fd5b6104776004610472903690612b00565b611275565b6040516104849190612f88565b60405180910390f35b341561049857600080fd5b6104a0611312565b6040516104ad9190612f29565b60405180910390f35b34156104c157600080fd5b6104d660046104d1903690612c2f565b61133c565b6040516104e39190612f6d565b60405180910390f35b34156104f757600080fd5b61050c6004610507903690612c2f565b6113b5565b6040516105199190612f29565b60405180910390f35b341561052d57600080fd5b610542600461053d903690612c2f565b611433565b005b341561054f57600080fd5b610564600461055f903690612c2f565b61161e565b604051610571919061304d565b60405180910390f35b341561058557600080fd5b61059a6004610595903690612c2f565b611696565b6040516105a993929190612fe0565b60405180910390f35b34156105bd57600080fd5b6105d260046105cd903690612b00565b6116ec565b6040516105df919061306f565b60405180910390f35b34156105f357600080fd5b6105fb611738565b60405161060d9695949392919061308a565b60405180910390f35b341561062157600080fd5b6106366004610631903690612b8e565b6117b2565b6040516106439190612f29565b60405180910390f35b341561065757600080fd5b61066c6004610667903690612b00565b6117f7565b005b341561067957600080fd5b61068e6004610689903690612d5b565b6118bd565b005b341561069b57600080fd5b6106a36119ee565b6040516106b09190612f29565b60405180910390f35b34156106c457600080fd5b6106d960046106d4903690612b8e565b611a14565b6040516106e6919061306f565b60405180910390f35b34156106fa57600080fd5b61070f600461070a903690612d1f565b611a2c565b005b341561071c57600080fd5b610731600461072c903690612b29565b611aff565b005b341561073e57600080fd5b610753600461074e903690612c2f565b611b52565b005b341561076057600080fd5b6107756004610770903690612c58565b611b7d565b6040516107829190612faa565b60405180910390f35b341561079657600080fd5b6107ab60046107a6903690612c2f565b611cc3565b6040516107b89190612fc5565b60405180910390f35b34156107cc57600080fd5b6107e160046107dc903690612d1f565b611d0f565b005b34156107ee57600080fd5b61080360046107fe903690612b8e565b611de2565b604051610810919061306f565b60405180910390f35b341561082457600080fd5b6108396004610834903690612b00565b611e07565b005b341561084657600080fd5b61085b6004610856903690612c58565b611f5f565b6040516108689190612faa565b60405180910390f35b6000600e6000838152602001908152602001600020600301549050919050565b6000813373ffffffffffffffffffffffffffffffffffffffff166108b4826113b5565b73ffffffffffffffffffffffffffffffffffffffff161415156108d657600080fd5b6108df836113b5565b91508173ffffffffffffffffffffffffffffffffffffffff168473ffffffffffffffffffffffffffffffffffffffff161415151561091c57600080fd5b600061092784610fa5565b73ffffffffffffffffffffffffffffffffffffffff16141580610961575060008473ffffffffffffffffffffffffffffffffffffffff1614155b15610a1e57836002600085815260200190815260200160002060006101000a81548173ffffffffffffffffffffffffffffffffffffffff021916908373ffffffffffffffffffffffffffffffffffffffff1602179055508373ffffffffffffffffffffffffffffffffffffffff168273ffffffffffffffffffffffffffffffffffffffff167f8c5be1e5ebec7d5bd14f71427d1e84f3dd0314c0f7b2291e5b200ac8c7c3b92585604051610a15919061306f565b60405180910390a35b50505050565b600d60009054906101000a900473ffffffffffffffffffffffffffffffffffffffff1673ffffffffffffffffffffffffffffffffffffffff163373ffffffffffffffffffffffffffffffffffffffff161480610acd5750600560009054906101000a900473ffffffffffffffffffffffffffffffffffffffff1673ffffffffffffffffffffffffffffffffffffffff163373ffffffffffffffffffffffffffffffffffffffff16145b1515610ad857600080fd5b80600e6000848152602001908152602001600020600101906002610afd92919061286f565b505050565b600d60009054906101000a900473ffffffffffffffffffffffffffffffffffffffff1673ffffffffffffffffffffffffffffffffffffffff163373ffffffffffffffffffffffffffffffffffffffff161480610bab5750600560009054906101000a900473ffffffffffffffffffffffffffffffffffffffff1673ffffffffffffffffffffffffffffffffffffffff163373ffffffffffffffffffffffffffffffffffffffff16145b1515610bb657600080fd5b600e6000828152602001908152602001600020600080820160006101000a81549060ff0219169055600182016000610bee91906128e6565b60038201600090556004820160009055505050565b6000816040518082600260200280838360005b83811015610c31578082015181840152602081019050610c16565b5050505090500191505060405180910390209050919050565b60008054905090565b6000600e6000838152602001908152602001600020600401549050919050565b6000600d60009054906101000a900473ffffffffffffffffffffffffffffffffffffffff1673ffffffffffffffffffffffffffffffffffffffff163373ffffffffffffffffffffffffffffffffffffffff161480610d1e5750600560009054906101000a900473ffffffffffffffffffffffffffffffffffffffff1673ffffffffffffffffffffffffffffffffffffffff163373ffffffffffffffffffffffffffffffffffffffff16145b1515610d2957600080fd5b3073ffffffffffffffffffffffffffffffffffffffff16318211151515610d4f57600080fd5b8273ffffffffffffffffffffffffffffffffffffffff166108fc839081150290604051600060405180830381858888f19350505050905092915050565b600d60009054906101000a900473ffffffffffffffffffffffffffffffffffffffff1673ffffffffffffffffffffffffffffffffffffffff163373ffffffffffffffffffffffffffffffffffffffff161480610e355750600560009054906101000a900473ffffffffffffffffffffffffffffffffffffffff1673ffffffffffffffffffffffffffffffffffffffff163373ffffffffffffffffffffffffffffffffffffffff16145b1515610e4057600080fd5b80600e600084815260200190815260200160002060000160006101000a81548160ff02191690837f0100000000000000000000000000000000000000000000000000000000000000900402179055505050565b600d60009054906101000a900473ffffffffffffffffffffffffffffffffffffffff1673ffffffffffffffffffffffffffffffffffffffff163373ffffffffffffffffffffffffffffffffffffffff161480610f3c5750600560009054906101000a900473ffffffffffffffffffffffffffffffffffffffff1673ffffffffffffffffffffffffffffffffffffffff163373ffffffffffffffffffffffffffffffffffffffff16145b1515610f4757600080fd5b80600f6000846000191660001916815260200190815260200160002060006101000a81548173ffffffffffffffffffffffffffffffffffffffff021916908373ffffffffffffffffffffffffffffffffffffffff1602179055505050565b60006002600083815260200190815260200160002060009054906101000a900473ffffffffffffffffffffffffffffffffffffffff169050919050565b600d60009054906101000a900473ffffffffffffffffffffffffffffffffffffffff1673ffffffffffffffffffffffffffffffffffffffff163373ffffffffffffffffffffffffffffffffffffffff16148061108b5750600560009054906101000a900473ffffffffffffffffffffffffffffffffffffffff1673ffffffffffffffffffffffffffffffffffffffff163373ffffffffffffffffffffffffffffffffffffffff16145b151561109657600080fd5b80601060008460001916600019168152602001908152602001600020819055505050565b600d60009054906101000a900473ffffffffffffffffffffffffffffffffffffffff1673ffffffffffffffffffffffffffffffffffffffff163373ffffffffffffffffffffffffffffffffffffffff1614806111635750600560009054906101000a900473ffffffffffffffffffffffffffffffffffffffff1673ffffffffffffffffffffffffffffffffffffffff163373ffffffffffffffffffffffffffffffffffffffff16145b151561116e57600080fd5b6111788282612138565b5050565b600f6020528060005260406000206000915054906101000a900473ffffffffffffffffffffffffffffffffffffffff1681565b600560009054906101000a900473ffffffffffffffffffffffffffffffffffffffff1673ffffffffffffffffffffffffffffffffffffffff163373ffffffffffffffffffffffffffffffffffffffff1614151561120b57600080fd5b60008173ffffffffffffffffffffffffffffffffffffffff161415151561123157600080fd5b80600660006101000a81548173ffffffffffffffffffffffffffffffffffffffff021916908373ffffffffffffffffffffffffffffffffffffffff16021790555050565b61127d6128f4565b600360008373ffffffffffffffffffffffffffffffffffffffff1673ffffffffffffffffffffffffffffffffffffffff16815260200190815260200160002080548060200260200160405190810160405280929190818152602001828054801561130657602002820191906000526020600020905b8154815260200190600101908083116112f2575b50505050509050919050565b6000600660009054906101000a900473ffffffffffffffffffffffffffffffffffffffff16905090565b611344612908565b600e60008381526020019081526020016000206001016002806020026040519081016040528092919082600280156113a9576020028201915b8160009054906101000a90046401000000000263ffffffff19168152602001906001019080831161137d575b50505050509050919050565b6000806001600084815260200190815260200160002060009054906101000a900473ffffffffffffffffffffffffffffffffffffffff169050600073ffffffffffffffffffffffffffffffffffffffff168173ffffffffffffffffffffffffffffffffffffffff161415151561142a57600080fd5b80915050919050565b6000600d60009054906101000a900473ffffffffffffffffffffffffffffffffffffffff1673ffffffffffffffffffffffffffffffffffffffff163373ffffffffffffffffffffffffffffffffffffffff1614806114de5750600560009054906101000a900473ffffffffffffffffffffffffffffffffffffffff1673ffffffffffffffffffffffffffffffffffffffff163373ffffffffffffffffffffffffffffffffffffffff16145b15156114e957600080fd5b6114f2826113b5565b905060006114ff83610fa5565b73ffffffffffffffffffffffffffffffffffffffff161415156115c05760006002600084815260200190815260200160002060006101000a81548173ffffffffffffffffffffffffffffffffffffffff021916908373ffffffffffffffffffffffffffffffffffffffff16021790555060008173ffffffffffffffffffffffffffffffffffffffff167f8c5be1e5ebec7d5bd14f71427d1e84f3dd0314c0f7b2291e5b200ac8c7c3b925846040516115b7919061306f565b60405180910390a35b6115ca81836121d2565b60008173ffffffffffffffffffffffffffffffffffffffff167fddf252ad1be2c89b69c2b068fc378daa952ba7f163c4a11628f55a4df523b3ef84604051611612919061306f565b60405180910390a35050565b611626612936565b600061163061294a565b611638611312565b91506000368080601f0160208091040260200160405190810160405280939291908181526020018383808284378201915050505050509050600080825160208401855af43d604051816000823e8260008114611692578282f35b8282fd5b600e6020528060005260406000206000915090508060000160009054906101000a90047f010000000000000000000000000000000000000000000000000000000000000002908060030154908060040154905083565b6000600360008373ffffffffffffffffffffffffffffffffffffffff1673ffffffffffffffffffffffffffffffffffffffff168152602001908152602001600020805490509050919050565b6000806000806000806007546008600060058110151561175457fe5b01546008600160058110151561176657fe5b01546008600260058110151561177857fe5b01546008600360058110151561178a57fe5b01546008600460058110151561179c57fe5b0154955095509550955095509550909192939495565b6000600f6000836000191660001916815260200190815260200160002060009054906101000a900473ffffffffffffffffffffffffffffffffffffffff169050919050565b600560009054906101000a900473ffffffffffffffffffffffffffffffffffffffff1673ffffffffffffffffffffffffffffffffffffffff163373ffffffffffffffffffffffffffffffffffffffff1614151561185357600080fd5b60008173ffffffffffffffffffffffffffffffffffffffff161415151561187957600080fd5b80600d60006101000a81548173ffffffffffffffffffffffffffffffffffffffff021916908373ffffffffffffffffffffffffffffffffffffffff16021790555050565b600d60009054906101000a900473ffffffffffffffffffffffffffffffffffffffff1673ffffffffffffffffffffffffffffffffffffffff163373ffffffffffffffffffffffffffffffffffffffff1614806119665750600560009054906101000a900473ffffffffffffffffffffffffffffffffffffffff1673ffffffffffffffffffffffffffffffffffffffff163373ffffffffffffffffffffffffffffffffffffffff16145b151561197157600080fd5b85600781905550846008600060058110151561198957fe5b0181905550836008600160058110151561199f57fe5b018190555082600860026005811015156119b557fe5b018190555081600860036005811015156119cb57fe5b018190555080600860046005811015156119e157fe5b0181905550505050505050565b600560009054906101000a900473ffffffffffffffffffffffffffffffffffffffff1681565b60106020528060005260406000206000915090505481565b600d60009054906101000a900473ffffffffffffffffffffffffffffffffffffffff1673ffffffffffffffffffffffffffffffffffffffff163373ffffffffffffffffffffffffffffffffffffffff161480611ad55750600560009054906101000a900473ffffffffffffffffffffffffffffffffffffffff1673ffffffffffffffffffffffffffffffffffffffff163373ffffffffffffffffffffffffffffffffffffffff16145b1515611ae057600080fd5b80600e6000848152602001908152602001600020600401819055505050565b803373ffffffffffffffffffffffffffffffffffffffff16611b20826113b5565b73ffffffffffffffffffffffffffffffffffffffff16141515611b4257600080fd5b611b4d33848461245a565b505050565b611b5c33826125a3565b1515611b6757600080fd5b611b7a611b73826113b5565b338361245a565b50565b6000600d60009054906101000a900473ffffffffffffffffffffffffffffffffffffffff1673ffffffffffffffffffffffffffffffffffffffff163373ffffffffffffffffffffffffffffffffffffffff161480611c285750600560009054906101000a900473ffffffffffffffffffffffffffffffffffffffff1673ffffffffffffffffffffffffffffffffffffffff163373ffffffffffffffffffffffffffffffffffffffff16145b1515611c3357600080fd5b8173ffffffffffffffffffffffffffffffffffffffff1663095ea7b384866040518363ffffffff167c0100000000000000000000000000000000000000000000000000000000028152600401611c8a929190612f44565b602060405180830381600087803b1515611ca357600080fd5b5af11515611cb057600080fd5b5050506040518051905090509392505050565b6000600e600083815260200190815260200160002060000160009054906101000a90047f0100000000000000000000000000000000000000000000000000000000000000029050919050565b600d60009054906101000a900473ffffffffffffffffffffffffffffffffffffffff1673ffffffffffffffffffffffffffffffffffffffff163373ffffffffffffffffffffffffffffffffffffffff161480611db85750600560009054906101000a900473ffffffffffffffffffffffffffffffffffffffff1673ffffffffffffffffffffffffffffffffffffffff163373ffffffffffffffffffffffffffffffffffffffff16145b1515611dc357600080fd5b80600e6000848152602001908152602001600020600301819055505050565b6000601060008360001916600019168152602001908152602001600020549050919050565b600560009054906101000a900473ffffffffffffffffffffffffffffffffffffffff1673ffffffffffffffffffffffffffffffffffffffff163373ffffffffffffffffffffffffffffffffffffffff16141515611e6357600080fd5b600073ffffffffffffffffffffffffffffffffffffffff168173ffffffffffffffffffffffffffffffffffffffff1614151515611e9f57600080fd5b8073ffffffffffffffffffffffffffffffffffffffff16600560009054906101000a900473ffffffffffffffffffffffffffffffffffffffff1673ffffffffffffffffffffffffffffffffffffffff167f8be0079c531659141344cd1fd0a4f28419497f9722a3daafe3b4186f6b6457e060405160405180910390a380600560006101000a81548173ffffffffffffffffffffffffffffffffffffffff021916908373ffffffffffffffffffffffffffffffffffffffff16021790555050565b6000600d60009054906101000a900473ffffffffffffffffffffffffffffffffffffffff1673ffffffffffffffffffffffffffffffffffffffff163373ffffffffffffffffffffffffffffffffffffffff16148061200a5750600560009054906101000a900473ffffffffffffffffffffffffffffffffffffffff1673ffffffffffffffffffffffffffffffffffffffff163373ffffffffffffffffffffffffffffffffffffffff16145b151561201557600080fd5b8173ffffffffffffffffffffffffffffffffffffffff166370a08231306040518263ffffffff167c010000000000000000000000000000000000000000000000000000000002815260040161206a9190613032565b602060405180830381600087803b151561208357600080fd5b5af1151561209057600080fd5b5050506040518051905084111515156120a857600080fd5b8173ffffffffffffffffffffffffffffffffffffffff1663a9059cbb84866040518363ffffffff167c01000000000000000000000000000000000000000000000000000000000281526004016120ff929190612f44565b602060405180830381600087803b151561211857600080fd5b5af1151561212557600080fd5b5050506040518051905090509392505050565b600073ffffffffffffffffffffffffffffffffffffffff168273ffffffffffffffffffffffffffffffffffffffff161415151561217457600080fd5b61217e82826125e4565b8173ffffffffffffffffffffffffffffffffffffffff1660007fddf252ad1be2c89b69c2b068fc378daa952ba7f163c4a11628f55a4df523b3ef836040516121c6919061306f565b60405180910390a35050565b60008060008473ffffffffffffffffffffffffffffffffffffffff166121f7856113b5565b73ffffffffffffffffffffffffffffffffffffffff1614151561221957600080fd5b6004600085815260200190815260200160002054925061224b600161223d876116ec565b61274f90919063ffffffff16565b9150600360008673ffffffffffffffffffffffffffffffffffffffff1673ffffffffffffffffffffffffffffffffffffffff1681526020019081526020016000208281548110151561229957fe5b906000526020600020900154905060006001600086815260200190815260200160002060006101000a81548173ffffffffffffffffffffffffffffffffffffffff021916908373ffffffffffffffffffffffffffffffffffffffff16021790555080600360008773ffffffffffffffffffffffffffffffffffffffff1673ffffffffffffffffffffffffffffffffffffffff1681526020019081526020016000208481548110151561234757fe5b9060005260206000209001819055506000600360008773ffffffffffffffffffffffffffffffffffffffff1673ffffffffffffffffffffffffffffffffffffffff168152602001908152602001600020838154811015156123a457fe5b906000526020600020900181905550600360008673ffffffffffffffffffffffffffffffffffffffff1673ffffffffffffffffffffffffffffffffffffffff168152602001908152602001600020805480919060019003612405919061295e565b506000600460008681526020019081526020016000208190555082600460008381526020019081526020016000208190555061244d600160005461274f90919063ffffffff16565b6000819055505050505050565b600073ffffffffffffffffffffffffffffffffffffffff168273ffffffffffffffffffffffffffffffffffffffff161415151561249657600080fd5b61249f816113b5565b73ffffffffffffffffffffffffffffffffffffffff168273ffffffffffffffffffffffffffffffffffffffff16141515156124d957600080fd5b8273ffffffffffffffffffffffffffffffffffffffff166124f9826113b5565b73ffffffffffffffffffffffffffffffffffffffff1614151561251b57600080fd5b6125258382612768565b61252f83826121d2565b61253982826125e4565b8173ffffffffffffffffffffffffffffffffffffffff168373ffffffffffffffffffffffffffffffffffffffff167fddf252ad1be2c89b69c2b068fc378daa952ba7f163c4a11628f55a4df523b3ef83604051612596919061306f565b60405180910390a3505050565b60008273ffffffffffffffffffffffffffffffffffffffff166125c583610fa5565b73ffffffffffffffffffffffffffffffffffffffff1614905092915050565b60008073ffffffffffffffffffffffffffffffffffffffff166001600084815260200190815260200160002060009054906101000a900473ffffffffffffffffffffffffffffffffffffffff1673ffffffffffffffffffffffffffffffffffffffff1614151561265357600080fd5b826001600084815260200190815260200160002060006101000a81548173ffffffffffffffffffffffffffffffffffffffff021916908373ffffffffffffffffffffffffffffffffffffffff1602179055506126ae836116ec565b9050600360008473ffffffffffffffffffffffffffffffffffffffff1673ffffffffffffffffffffffffffffffffffffffff1681526020019081526020016000208054806001018281612701919061298a565b916000526020600020900160008490919091505550806004600084815260200190815260200160002081905550612744600160005461285190919063ffffffff16565b600081905550505050565b600082821115151561275d57fe5b818303905092915050565b8173ffffffffffffffffffffffffffffffffffffffff16612788826113b5565b73ffffffffffffffffffffffffffffffffffffffff161415156127aa57600080fd5b60006002600083815260200190815260200160002060006101000a81548173ffffffffffffffffffffffffffffffffffffffff021916908373ffffffffffffffffffffffffffffffffffffffff16021790555060008273ffffffffffffffffffffffffffffffffffffffff167f8c5be1e5ebec7d5bd14f71427d1e84f3dd0314c0f7b2291e5b200ac8c7c3b92583604051612845919061306f565b60405180910390a35050565b600080828401905083811015151561286557fe5b8091505092915050565b82600281019282156128d5579160200282015b828111156128d45782518260006101000a8154817bffffffffffffffffffffffffffffffffffffffffffffffffffffffff02191690836401000000009004021790555091602001919060010190612882565b5b5090506128e291906129b6565b5090565b506000815560010160009055565b602060405190810160405280600081525090565b60408051908101604052806002905b600063ffffffff19168152602001906001900390816129175790505090565b602060405190810160405280600081525090565b602060405190810160405280600081525090565b815481835581811511612985578183600052602060002091820191016129849190612a01565b5b505050565b8154818355818115116129b1578183600052602060002091820191016129b09190612a01565b5b505050565b6129fe91905b808211156129fa57600081816101000a8154907bffffffffffffffffffffffffffffffffffffffffffffffffffffffff0219169055506001016129bc565b5090565b90565b612a2391905b80821115612a1f576000816000905550600101612a07565b5090565b90565b6000612a328235613224565b905092915050565b600082601f8301121515612a4d57600080fd5b6002612a60612a5b82613118565b6130eb565b91508183856020840282011115612a7657600080fd5b60005b83811015612aa65781612a8c8882612ac4565b845260208401935060208301925050600181019050612a79565b5050505092915050565b6000612abc8235613244565b905092915050565b6000612ad08235613270565b905092915050565b6000612ae4823561329c565b905092915050565b6000612af882356132a6565b905092915050565b600060208284031215612b1257600080fd5b6000612b2084828501612a26565b91505092915050565b60008060408385031215612b3c57600080fd5b6000612b4a85828601612a26565b9250506020612b5b85828601612aec565b9150509250929050565b600060408284031215612b7757600080fd5b6000612b8584828501612a3a565b91505092915050565b600060208284031215612ba057600080fd5b6000612bae84828501612ad8565b91505092915050565b60008060408385031215612bca57600080fd5b6000612bd885828601612ad8565b9250506020612be985828601612a26565b9150509250929050565b60008060408385031215612c0657600080fd5b6000612c1485828601612ad8565b9250506020612c2585828601612aec565b9150509250929050565b600060208284031215612c4157600080fd5b6000612c4f84828501612aec565b91505092915050565b600080600060608486031215612c6d57600080fd5b6000612c7b86828701612aec565b9350506020612c8c86828701612a26565b9250506040612c9d86828701612a26565b9150509250925092565b60008060608385031215612cba57600080fd5b6000612cc885828601612aec565b9250506020612cd985828601612a3a565b9150509250929050565b60008060408385031215612cf657600080fd5b6000612d0485828601612aec565b9250506020612d1585828601612ab0565b9150509250929050565b60008060408385031215612d3257600080fd5b6000612d4085828601612aec565b9250506020612d5185828601612aec565b9150509250929050565b60008060008060008060c08789031215612d7457600080fd5b6000612d8289828a01612aec565b9650506020612d9389828a01612aec565b9550506040612da489828a01612aec565b9450506060612db589828a01612aec565b9350506080612dc689828a01612aec565b92505060a0612dd789828a01612aec565b9150509295509295509295565b612ded8161318c565b82525050565b612dfc81613151565b612e058261313a565b60005b82811015612e3757612e1b858351612eb7565b612e2482613172565b9150602085019450600181019050612e08565b5050505050565b6000612e498261315c565b808452602084019350612e5b83613144565b60005b82811015612e8d57612e71868351612f1a565b612e7a8261317f565b9150602086019550600181019050612e5e565b50849250505092915050565b612ea2816131ac565b82525050565b612eb1816131b8565b82525050565b612ec0816131e4565b82525050565b612ecf81613210565b82525050565b612ede816132b0565b82525050565b6000612eef82613167565b808452612f038160208601602086016132c2565b612f0c816132f5565b602085010191505092915050565b612f238161321a565b82525050565b6000602082019050612f3e6000830184612de4565b92915050565b6000604082019050612f596000830185612de4565b612f666020830184612f1a565b9392505050565b6000604082019050612f826000830184612df3565b92915050565b60006020820190508181036000830152612fa28184612e3e565b905092915050565b6000602082019050612fbf6000830184612e99565b92915050565b6000602082019050612fda6000830184612ea8565b92915050565b6000606082019050612ff56000830186612ea8565b6130026020830185612f1a565b61300f6040830184612f1a565b949350505050565b600060208201905061302c6000830184612ec6565b92915050565b60006020820190506130476000830184612ed5565b92915050565b600060208201905081810360008301526130678184612ee4565b905092915050565b60006020820190506130846000830184612f1a565b92915050565b600060c08201905061309f6000830189612f1a565b6130ac6020830188612f1a565b6130b96040830187612f1a565b6130c66060830186612f1a565b6130d36080830185612f1a565b6130e060a0830184612f1a565b979650505050505050565b6000604051905081810181811067ffffffffffffffff8211171561310e57600080fd5b8060405250919050565b600067ffffffffffffffff82111561312f57600080fd5b602082029050919050565b6000819050919050565b6000602082019050919050565b600060029050919050565b600081519050919050565b600081519050919050565b6000602082019050919050565b6000602082019050919050565b600073ffffffffffffffffffffffffffffffffffffffff82169050919050565b60008115159050919050565b60007fff0000000000000000000000000000000000000000000000000000000000000082169050919050565b60007fffffffffffffffffffffffffffffffffffffffffffffffffffffffff0000000082169050919050565b6000819050919050565b6000819050919050565b600073ffffffffffffffffffffffffffffffffffffffff82169050919050565b60007fff0000000000000000000000000000000000000000000000000000000000000082169050919050565b60007fffffffffffffffffffffffffffffffffffffffffffffffffffffffff0000000082169050919050565b6000819050919050565b6000819050919050565b60006132bb8261318c565b9050919050565b60005b838110156132e05780820151818401526020810190506132c5565b838111156132ef576000848401525b50505050565b6000601f19601f83011690509190505600a265627a7a7230582058d574ba44cb5e2f40bbbd1ca42ef9f59d858af934e99ce8c0aaed5bd27443be6c6578706572696d656e74616cf50037",
  "source": "pragma solidity ^0.4.19;\npragma experimental ABIEncoderV2;\n\n/**\n * Digital Asset Registry for the Non Fungible Token Clover\n * with upgradeable contract reference for returning metadata.\n */\n\nimport \"zeppelin-solidity/contracts/token/ERC20/ERC20.sol\";\nimport \"./ERC721Token.sol\";\nimport \"zeppelin-solidity/contracts/ownership/Ownable.sol\";\nimport \"./IClovers.sol\";\nimport \"./CloversMetadata.sol\";\n\ncontract Clovers is IClovers, ERC721Token, Ownable {\n\n    address private cloversMetadata;\n    uint256 totalSymmetries;\n    uint256[5] symmetries; // RotSym, Y0Sym, X0Sym, XYSym, XnYSym\n    address cloversController;\n\n    mapping (uint256 => Clover) public clovers;\n    struct Clover {\n        bytes1 symmetries;\n        bytes28[2] cloverMoves;\n        uint256 blockMinted;\n        uint256 rewards;\n    }\n    mapping (bytes32 => address) public commits;\n    mapping (bytes32 => uint256) public stakes;\n\n    modifier onlyOwnerOrController() {\n        require(\n            msg.sender == cloversController ||\n            msg.sender == owner\n        );\n        _;\n    }\n\n    function Clovers () public {}\n    function () public payable {}\n\n    function implementation() public view returns (address) {\n        return cloversMetadata;\n    }\n\n    function tokenMetadata(uint _tokenId) public view returns (string _infoUrl) {\n        // require(ownerOf(_tokenId) != 0);\n        address _impl = implementation();\n        bytes memory data = msg.data;\n        assembly {\n            let result := delegatecall(gas, _impl, add(data, 0x20), mload(data), 0, 0)\n            let size := returndatasize\n            let ptr := mload(0x40)\n            returndatacopy(ptr, 0, size)\n            switch result\n            case 0 { revert(ptr, size) }\n            default { return(ptr, size) }\n        }\n        // return CloversMetadata(cloversMetadata).tokenMetadata(_tokenId);\n    }\n    function getHash(bytes28[2] moves) public view returns (bytes32) {\n        return keccak256(moves);\n    }\n    function getStake(bytes32 movesHash) public view returns (uint256) {\n        return stakes[movesHash];\n    }\n    function getCommit(bytes32 movesHash) public view returns (address) {\n        return commits[movesHash];\n    }\n    function getBlockMinted(uint256 _tokenId) public view returns (uint256) {\n        return clovers[_tokenId].blockMinted;\n    }\n    function getCloverMoves(uint256 _tokenId) public view returns (bytes28[2]) {\n        return clovers[_tokenId].cloverMoves;\n    }\n    function getReward(uint256 _tokenId) public view returns (uint256) {\n        return clovers[_tokenId].rewards;\n    }\n    function getSymmetries(uint256 _tokenId) public view returns (bytes1) {\n        return clovers[_tokenId].symmetries;\n    }\n    function getAllSymmetries() public view returns (uint256, uint256, uint256, uint256, uint256, uint256) {\n        return (\n            totalSymmetries,\n            symmetries[0], //RotSym,\n            symmetries[1], //Y0Sym,\n            symmetries[2], //X0Sym,\n            symmetries[3], //XYSym,\n            symmetries[4] //XnYSym\n        );\n    }\n\n/* ---------------------------------------------------------------------------------------------------------------------- */\n\n    function moveEth(address _to, uint256 amount) public onlyOwnerOrController returns (bool) {\n        require(amount <= this.balance);\n        return _to.send(amount);\n    }\n    function moveToken(uint256 amount, address _to, address token) public onlyOwnerOrController returns (bool) {\n        require(amount <= ERC20(token).balanceOf(this));\n        return ERC20(token).transfer(_to, amount);\n    }\n    function approveToken(uint256 amount, address _to, address token) public onlyOwnerOrController returns (bool) {\n        return ERC20(token).approve(_to, amount);\n    }\n\n    function setStake(bytes32 movesHash, uint256 stake) public onlyOwnerOrController {\n        stakes[movesHash] = stake;\n    }\n    function setCommit(bytes32 movesHash, address commiter) public onlyOwnerOrController {\n        commits[movesHash] = commiter;\n    }\n    function setBlockMinted(uint256 _tokenId, uint256 value) public onlyOwnerOrController {\n        clovers[_tokenId].blockMinted = value;\n    }\n    function setCloverMoves(uint256 _tokenId, bytes28[2] moves) public onlyOwnerOrController {\n        clovers[_tokenId].cloverMoves = moves;\n    }\n    function setReward(uint256 _tokenId, uint256 _amount) public onlyOwnerOrController {\n        clovers[_tokenId].rewards = _amount;\n    }\n    function setSymmetries(uint256 _tokenId, bytes1 _symmetries) public onlyOwnerOrController {\n        clovers[_tokenId].symmetries = _symmetries;\n    }\n    function setAllSymmetries(uint256 _totalSymmetries, uint256 RotSym, uint256 Y0Sym, uint256 X0Sym, uint256 XYSym, uint256 XnYSym) public onlyOwnerOrController {\n        totalSymmetries = _totalSymmetries;\n        symmetries[0] = RotSym;\n        symmetries[1] = Y0Sym;\n        symmetries[2] = X0Sym;\n        symmetries[3] = XYSym;\n        symmetries[4] = XnYSym;\n    }\n    function deleteClover(uint256 _tokenId) public onlyOwnerOrController {\n        delete(clovers[_tokenId]);\n    }\n\n    function updateCloversControllerAddress(address _cloversController) public onlyOwner {\n        require(_cloversController != 0);\n        cloversController = _cloversController;\n    }\n    function updateCloversMetadataAddress(address _cloversMetadata) public onlyOwner {\n        require(_cloversMetadata != 0);\n        cloversMetadata = _cloversMetadata;\n    }\n\n    function mint (address _to, uint256 _tokenId) public onlyOwnerOrController {\n        _mint(_to, _tokenId);\n    }\n    function unmint (uint256 _tokenId) public onlyOwnerOrController {\n        address _owner = ownerOf(_tokenId); // needs to be changed from private to internal\n        if (approvedFor(_tokenId) != 0) {\n            tokenApprovals[_tokenId] = 0;\n            Approval(_owner, 0, _tokenId);\n        }\n        removeToken(_owner, _tokenId); // needs to be changed from private to internal\n        Transfer(_owner, 0x0, _tokenId);\n    }\n\n}\n",
  "sourcePath": "/Users/billy/vue/clovers-dapp/contracts/Clovers.sol",
  "compiler": {
    "name": "solc",
    "version": "0.4.21+commit.dfe3193c.Emscripten.clang"
  },
  "schemaVersion": "2.0.0",
  "updatedAt": "2018-03-26T16:44:41.750Z"
}