{
  "contractName": "CloversController",
  "abi": [
    {
      "constant": false,
      "inputs": [
        {
          "name": "token",
          "type": "address"
        }
      ],
      "name": "reclaimToken",
      "outputs": [],
      "payable": false,
      "stateMutability": "nonpayable",
      "type": "function"
    },
    {
      "constant": true,
      "inputs": [],
      "name": "owner",
      "outputs": [
        {
          "name": "",
          "type": "address"
        }
      ],
      "payable": false,
      "stateMutability": "view",
      "type": "function"
    },
    {
      "constant": false,
      "inputs": [],
      "name": "reclaimEther",
      "outputs": [],
      "payable": false,
      "stateMutability": "nonpayable",
      "type": "function"
    },
    {
      "constant": false,
      "inputs": [
        {
          "name": "from_",
          "type": "address"
        },
        {
          "name": "value_",
          "type": "uint256"
        },
        {
          "name": "data_",
          "type": "bytes"
        }
      ],
      "name": "tokenFallback",
      "outputs": [],
      "payable": false,
      "stateMutability": "nonpayable",
      "type": "function"
    },
    {
      "constant": false,
      "inputs": [
        {
          "name": "newOwner",
          "type": "address"
        }
      ],
      "name": "transferOwnership",
      "outputs": [],
      "payable": false,
      "stateMutability": "nonpayable",
      "type": "function"
    },
    {
      "inputs": [
        {
          "name": "_clovers",
          "type": "address"
        },
        {
          "name": "_clubToken",
          "type": "address"
        }
      ],
      "payable": false,
      "stateMutability": "nonpayable",
      "type": "constructor"
    },
    {
      "payable": false,
      "stateMutability": "nonpayable",
      "type": "fallback"
    },
    {
      "anonymous": false,
      "inputs": [
        {
          "indexed": false,
          "name": "movesHash",
          "type": "bytes32"
        },
        {
          "indexed": false,
          "name": "miner",
          "type": "address"
        }
      ],
      "name": "cloverCommited",
      "type": "event"
    },
    {
      "anonymous": false,
      "inputs": [
        {
          "indexed": false,
          "name": "moves",
          "type": "bytes28[2]"
        },
        {
          "indexed": false,
          "name": "_tokenId",
          "type": "uint256"
        },
        {
          "indexed": false,
          "name": "miner",
          "type": "address"
        }
      ],
      "name": "cloverRevealed",
      "type": "event"
    },
    {
      "anonymous": false,
      "inputs": [
        {
          "indexed": false,
          "name": "moves",
          "type": "bytes28[2]"
        },
        {
          "indexed": false,
          "name": "_tokenId",
          "type": "uint256"
        },
        {
          "indexed": false,
          "name": "miner",
          "type": "address"
        }
      ],
      "name": "cloverClaimed",
      "type": "event"
    },
    {
      "anonymous": false,
      "inputs": [
        {
          "indexed": false,
          "name": "moves",
          "type": "bytes28[2]"
        },
        {
          "indexed": false,
          "name": "_tokenId",
          "type": "uint256"
        },
        {
          "indexed": false,
          "name": "miner",
          "type": "address"
        }
      ],
      "name": "stakeRetrieved",
      "type": "event"
    },
    {
      "anonymous": false,
      "inputs": [
        {
          "indexed": false,
          "name": "moves",
          "type": "bytes28[2]"
        },
        {
          "indexed": false,
          "name": "_tokenId",
          "type": "uint256"
        },
        {
          "indexed": false,
          "name": "miner",
          "type": "address"
        },
        {
          "indexed": false,
          "name": "challenger",
          "type": "address"
        }
      ],
      "name": "cloverChallenged",
      "type": "event"
    },
    {
      "anonymous": false,
      "inputs": [
        {
          "indexed": true,
          "name": "previousOwner",
          "type": "address"
        },
        {
          "indexed": true,
          "name": "newOwner",
          "type": "address"
        }
      ],
      "name": "OwnershipTransferred",
      "type": "event"
    },
    {
      "constant": true,
      "inputs": [],
      "name": "currentStakeAmount",
      "outputs": [
        {
          "name": "",
          "type": "uint256"
        }
      ],
      "payable": false,
      "stateMutability": "view",
      "type": "function"
    },
    {
      "constant": true,
      "inputs": [],
      "name": "currentStakePeriod",
      "outputs": [
        {
          "name": "",
          "type": "uint256"
        }
      ],
      "payable": false,
      "stateMutability": "view",
      "type": "function"
    },
    {
      "constant": true,
      "inputs": [],
      "name": "getMultiplier",
      "outputs": [
        {
          "name": "",
          "type": "uint256"
        }
      ],
      "payable": false,
      "stateMutability": "view",
      "type": "function"
    },
    {
      "constant": true,
      "inputs": [
        {
          "name": "_tokenId",
          "type": "uint256"
        }
      ],
      "name": "getMovesHash",
      "outputs": [
        {
          "name": "",
          "type": "bytes32"
        }
      ],
      "payable": false,
      "stateMutability": "view",
      "type": "function"
    },
    {
      "constant": true,
      "inputs": [
        {
          "name": "moves",
          "type": "bytes28[2]"
        }
      ],
      "name": "isValid",
      "outputs": [
        {
          "name": "",
          "type": "bool"
        }
      ],
      "payable": false,
      "stateMutability": "view",
      "type": "function"
    },
    {
      "constant": true,
      "inputs": [
        {
          "components": [
            {
              "name": "error",
              "type": "bool"
            },
            {
              "name": "complete",
              "type": "bool"
            },
            {
              "name": "symmetrical",
              "type": "bool"
            },
            {
              "name": "RotSym",
              "type": "bool"
            },
            {
              "name": "Y0Sym",
              "type": "bool"
            },
            {
              "name": "X0Sym",
              "type": "bool"
            },
            {
              "name": "XYSym",
              "type": "bool"
            },
            {
              "name": "XnYSym",
              "type": "bool"
            },
            {
              "name": "board",
              "type": "bytes16"
            },
            {
              "name": "first32Moves",
              "type": "bytes28"
            },
            {
              "name": "lastMoves",
              "type": "bytes28"
            },
            {
              "name": "currentPlayer",
              "type": "uint8"
            },
            {
              "name": "moveKey",
              "type": "uint8"
            },
            {
              "name": "blackScore",
              "type": "uint8"
            },
            {
              "name": "whiteScore",
              "type": "uint8"
            }
          ],
          "name": "game",
          "type": "tuple"
        }
      ],
      "name": "isValidGame",
      "outputs": [
        {
          "name": "",
          "type": "bool"
        }
      ],
      "payable": false,
      "stateMutability": "view",
      "type": "function"
    },
    {
      "constant": true,
      "inputs": [
        {
          "name": "_tokenId",
          "type": "uint256"
        }
      ],
      "name": "isVerified",
      "outputs": [
        {
          "name": "",
          "type": "bool"
        }
      ],
      "payable": false,
      "stateMutability": "view",
      "type": "function"
    },
    {
      "constant": true,
      "inputs": [],
      "name": "returnBlock",
      "outputs": [
        {
          "name": "",
          "type": "uint256"
        }
      ],
      "payable": false,
      "stateMutability": "view",
      "type": "function"
    },
    {
      "constant": true,
      "inputs": [
        {
          "name": "_symmetries",
          "type": "bytes1"
        }
      ],
      "name": "calculateReward",
      "outputs": [
        {
          "name": "",
          "type": "uint256"
        }
      ],
      "payable": false,
      "stateMutability": "view",
      "type": "function"
    },
    {
      "constant": false,
      "inputs": [
        {
          "name": "moves",
          "type": "bytes28[2]"
        },
        {
          "name": "_tokenId",
          "type": "uint256"
        },
        {
          "name": "_symmetries",
          "type": "bytes1"
        },
        {
          "name": "_to",
          "type": "address"
        }
      ],
      "name": "claimClover",
      "outputs": [
        {
          "name": "",
          "type": "bool"
        }
      ],
      "payable": true,
      "stateMutability": "payable",
      "type": "function"
    },
    {
      "constant": false,
      "inputs": [
        {
          "name": "movesHash",
          "type": "bytes32"
        },
        {
          "name": "_to",
          "type": "address"
        }
      ],
      "name": "claimCloverCommit",
      "outputs": [
        {
          "name": "",
          "type": "bool"
        }
      ],
      "payable": true,
      "stateMutability": "payable",
      "type": "function"
    },
    {
      "constant": false,
      "inputs": [
        {
          "name": "moves",
          "type": "bytes28[2]"
        },
        {
          "name": "_tokenId",
          "type": "uint256"
        },
        {
          "name": "_symmetries",
          "type": "bytes1"
        }
      ],
      "name": "claimCloverReveal",
      "outputs": [
        {
          "name": "",
          "type": "bool"
        }
      ],
      "payable": false,
      "stateMutability": "nonpayable",
      "type": "function"
    },
    {
      "constant": false,
      "inputs": [
        {
          "name": "_tokenId",
          "type": "uint256"
        }
      ],
      "name": "retrieveStake",
      "outputs": [
        {
          "name": "",
          "type": "bool"
        }
      ],
      "payable": false,
      "stateMutability": "nonpayable",
      "type": "function"
    },
    {
      "constant": false,
      "inputs": [
        {
          "name": "_tokenId",
          "type": "uint256"
        },
        {
          "name": "_to",
          "type": "address"
        }
      ],
      "name": "challengeClover",
      "outputs": [
        {
          "name": "",
          "type": "bool"
        }
      ],
      "payable": false,
      "stateMutability": "nonpayable",
      "type": "function"
    },
    {
      "constant": false,
      "inputs": [
        {
          "name": "_stakeAmount",
          "type": "uint256"
        }
      ],
      "name": "updateStakeAmount",
      "outputs": [],
      "payable": false,
      "stateMutability": "nonpayable",
      "type": "function"
    },
    {
      "constant": false,
      "inputs": [
        {
          "name": "_stakePeriod",
          "type": "uint256"
        }
      ],
      "name": "updateStakePeriod",
      "outputs": [],
      "payable": false,
      "stateMutability": "nonpayable",
      "type": "function"
    },
    {
      "constant": false,
      "inputs": [
        {
          "name": "_payMultiplier",
          "type": "uint256"
        }
      ],
      "name": "updatePayMultipier",
      "outputs": [],
      "payable": false,
      "stateMutability": "nonpayable",
      "type": "function"
    }
  ],
  "bytecode": "0x606060405234156200001057600080fd5b604051604080620057228339810160405262000036906780000000000000009062000126565b336000806101000a81548173ffffffffffffffffffffffffffffffffffffffff021916908373ffffffffffffffffffffffffffffffffffffffff1602179055506000341415156200008657600080fd5b81600160006101000a81548173ffffffffffffffffffffffffffffffffffffffff021916908373ffffffffffffffffffffffffffffffffffffffff16021790555080600260006101000a81548173ffffffffffffffffffffffffffffffffffffffff021916908373ffffffffffffffffffffffffffffffffffffffff160217905550505062000187565b60006200011e825162000167565b905092915050565b600080604083850312156200013a57600080fd5b60006200014a8582860162000110565b92505060206200015d8582860162000110565b9150509250929050565b600073ffffffffffffffffffffffffffffffffffffffff82169050919050565b61558b80620001976000396000f300606060405260043610610128576000357c0100000000000000000000000000000000000000000000000000000000900463ffffffff16806308b6a33d1461013557806317ffc32014610160578063271eff941461018257806332cda779146101b857806335f71899146101e157806337b6d96b1461020c57806340490a90146102425780635759f3f71461026b5780636cb6b41f1461028d5780638a05aafa146102b65780638da5cb5b146102d8578063918d5688146103015780639f727c271461032a578063acd37b7b1461033f578063afc6285314610375578063c0ee0b8a146103ab578063c1fe551a146103cd578063c90054ee14610403578063d09687f714610425578063e00a768d1461045b578063f2fde38b14610491578063f8a68a56146104b3575b341561013357600080fd5b005b61014a6004610145903690614ead565b6104e9565b6040516101579190615143565b60405180910390f35b341561016b57600080fd5b610180600461017b903690614f75565b610b5e565b005b341561018d57600080fd5b6101a2600461019d903690614e35565b610c92565b6040516101af9190615143565b60405180910390f35b34156101c357600080fd5b6101cb610cc9565b6040516101d89190615238565b60405180910390f35b6101f660046101f1903690614f39565b610cd3565b6040516102039190615143565b60405180910390f35b341561021757600080fd5b61022c6004610227903690614fc8565b610f89565b6040516102399190615143565b60405180910390f35b341561024d57600080fd5b610255611057565b6040516102629190615238565b60405180910390f35b341561027657600080fd5b61028b6004610286903690614fc8565b611061565b005b341561029857600080fd5b6102a06110c6565b6040516102ad9190615238565b60405180910390f35b34156102c157600080fd5b6102d660046102d1903690614fc8565b6110d0565b005b34156102e357600080fd5b6102eb611135565b6040516102f891906150ff565b60405180910390f35b341561030c57600080fd5b61031461115a565b6040516103219190615238565b60405180910390f35b341561033557600080fd5b61033d611162565b005b341561034a57600080fd5b61035f600461035a903690614ff1565b611234565b60405161036c9190615143565b60405180910390f35b341561038057600080fd5b6103956004610390903690614e5e565b61179f565b6040516103a29190615143565b60405180910390f35b34156103b657600080fd5b6103cb60046103c6903690614dc9565b611d05565b005b34156103d857600080fd5b6103ed60046103e8903690614fc8565b611d0a565b6040516103fa9190615143565b60405180910390f35b341561040e57600080fd5b610423600461041e903690614fc8565b612277565b005b341561043057600080fd5b6104456004610440903690614fc8565b6122dc565b604051610452919061515e565b60405180910390f35b341561046657600080fd5b61047b6004610476903690614f10565b6123cb565b6040516104889190615238565b60405180910390f35b341561049c57600080fd5b6104b160046104ac903690614da0565b6128e8565b005b34156104be57600080fd5b6104d360046104ce903690614f9e565b612a3d565b6040516104e09190615143565b60405180910390f35b6000806000806401000000000287600060028110151561050557fe5b602002015163ffffffff19161415151561051e57600080fd5b6004543414151561052e57600080fd5b866040518082600260200280838360005b8381101561055a57808201518184015260208101905061053f565b5050505090500191505060405180910390209150600160009054906101000a900473ffffffffffffffffffffffffffffffffffffffff1673ffffffffffffffffffffffffffffffffffffffff16631dbd9d9183866040518363ffffffff167c01000000000000000000000000000000000000000000000000000000000281526004016105e7929190615179565b600060405180830381600087803b151561060057600080fd5b5af1151561060d57600080fd5b505050600160009054906101000a900473ffffffffffffffffffffffffffffffffffffffff1673ffffffffffffffffffffffffffffffffffffffff16633541fd53836004546040518363ffffffff167c010000000000000000000000000000000000000000000000000000000002815260040161068b9291906151f4565b600060405180830381600087803b15156106a457600080fd5b5af115156106b157600080fd5b505050600160009054906101000a900473ffffffffffffffffffffffffffffffffffffffff1673ffffffffffffffffffffffffffffffffffffffff166108fc6004549081150290604051600060405180830381858888f19350505050151561071857600080fd5b6000600160009054906101000a900473ffffffffffffffffffffffffffffffffffffffff1673ffffffffffffffffffffffffffffffffffffffff166303a53d6b886040518263ffffffff167c01000000000000000000000000000000000000000000000000000000000281526004016107919190615238565b602060405180830381600087803b15156107aa57600080fd5b5af115156107b757600080fd5b505050604051805190501415156107cd57600080fd5b600160009054906101000a900473ffffffffffffffffffffffffffffffffffffffff1673ffffffffffffffffffffffffffffffffffffffff1663e3100d1e87436040518363ffffffff167c01000000000000000000000000000000000000000000000000000000000281526004016108469291906152a5565b600060405180830381600087803b151561085f57600080fd5b5af1151561086c57600080fd5b505050600160009054906101000a900473ffffffffffffffffffffffffffffffffffffffff1673ffffffffffffffffffffffffffffffffffffffff16630b62839587896040518363ffffffff167c01000000000000000000000000000000000000000000000000000000000281526004016108e8929190615253565b600060405180830381600087803b151561090157600080fd5b5af1151561090e57600080fd5b50505060007f010000000000000000000000000000000000000000000000000000000000000002857effffffffffffffffffffffffffffffffffffffffffffffffffffffffffffff19161115610aae57600160009054906101000a900473ffffffffffffffffffffffffffffffffffffffff1673ffffffffffffffffffffffffffffffffffffffff16631dba566087876040518363ffffffff167c01000000000000000000000000000000000000000000000000000000000281526004016109d792919061527c565b600060405180830381600087803b15156109f057600080fd5b5af115156109fd57600080fd5b505050610a09856123cb565b9050600160009054906101000a900473ffffffffffffffffffffffffffffffffffffffff1673ffffffffffffffffffffffffffffffffffffffff1663a47bd49687836040518363ffffffff167c0100000000000000000000000000000000000000000000000000000000028152600401610a849291906152a5565b600060405180830381600087803b1515610a9d57600080fd5b5af11515610aaa57600080fd5b5050505b600160009054906101000a900473ffffffffffffffffffffffffffffffffffffffff1673ffffffffffffffffffffffffffffffffffffffff166340c10f1985886040518363ffffffff167c0100000000000000000000000000000000000000000000000000000000028152600401610b2792919061511a565b600060405180830381600087803b1515610b4057600080fd5b5af11515610b4d57600080fd5b505050600192505050949350505050565b60008060009054906101000a900473ffffffffffffffffffffffffffffffffffffffff1673ffffffffffffffffffffffffffffffffffffffff163373ffffffffffffffffffffffffffffffffffffffff16141515610bbb57600080fd5b8173ffffffffffffffffffffffffffffffffffffffff166370a08231306040518263ffffffff167c0100000000000000000000000000000000000000000000000000000000028152600401610c10919061521d565b602060405180830381600087803b1515610c2957600080fd5b5af11515610c3657600080fd5b505050604051805190509050610c8e6000809054906101000a900473ffffffffffffffffffffffffffffffffffffffff16828473ffffffffffffffffffffffffffffffffffffffff16612a709092919063ffffffff16565b5050565b6000610c9c6148e4565b610ca583612b04565b9050610cb081612a3d565b15610cbe5760019150610cc3565b600091505b50919050565b6000600554905090565b6000808273ffffffffffffffffffffffffffffffffffffffff1614151515610cfa57600080fd5b60045434141515610d0a57600080fd5b6000600160009054906101000a900473ffffffffffffffffffffffffffffffffffffffff1673ffffffffffffffffffffffffffffffffffffffff16638784ea96856040518263ffffffff167c0100000000000000000000000000000000000000000000000000000000028152600401610d83919061515e565b602060405180830381600087803b1515610d9c57600080fd5b5af11515610da957600080fd5b5050506040518051905073ffffffffffffffffffffffffffffffffffffffff16141515610dd557600080fd5b600160009054906101000a900473ffffffffffffffffffffffffffffffffffffffff1673ffffffffffffffffffffffffffffffffffffffff16631dbd9d9184846040518363ffffffff167c0100000000000000000000000000000000000000000000000000000000028152600401610e4e929190615179565b600060405180830381600087803b1515610e6757600080fd5b5af11515610e7457600080fd5b505050600160009054906101000a900473ffffffffffffffffffffffffffffffffffffffff1673ffffffffffffffffffffffffffffffffffffffff16633541fd53846004546040518363ffffffff167c0100000000000000000000000000000000000000000000000000000000028152600401610ef29291906151f4565b600060405180830381600087803b1515610f0b57600080fd5b5af11515610f1857600080fd5b505050600160009054906101000a900473ffffffffffffffffffffffffffffffffffffffff1673ffffffffffffffffffffffffffffffffffffffff166108fc6004549081150290604051600060405180830381858888f193505050501515610f7f57600080fd5b6001905092915050565b600080600160009054906101000a900473ffffffffffffffffffffffffffffffffffffffff1673ffffffffffffffffffffffffffffffffffffffff166303a53d6b846040518263ffffffff167c01000000000000000000000000000000000000000000000000000000000281526004016110039190615238565b602060405180830381600087803b151561101c57600080fd5b5af1151561102957600080fd5b50505060405180519050905060008114156110475760009150611051565b6005548143031191505b50919050565b6000600354905090565b6000809054906101000a900473ffffffffffffffffffffffffffffffffffffffff1673ffffffffffffffffffffffffffffffffffffffff163373ffffffffffffffffffffffffffffffffffffffff161415156110bc57600080fd5b8060058190555050565b6000600454905090565b6000809054906101000a900473ffffffffffffffffffffffffffffffffffffffff1673ffffffffffffffffffffffffffffffffffffffff163373ffffffffffffffffffffffffffffffffffffffff1614151561112b57600080fd5b8060038190555050565b6000809054906101000a900473ffffffffffffffffffffffffffffffffffffffff1681565b600043905090565b6000809054906101000a900473ffffffffffffffffffffffffffffffffffffffff1673ffffffffffffffffffffffffffffffffffffffff163373ffffffffffffffffffffffffffffffffffffffff161415156111bd57600080fd5b6000809054906101000a900473ffffffffffffffffffffffffffffffffffffffff1673ffffffffffffffffffffffffffffffffffffffff166108fc3073ffffffffffffffffffffffffffffffffffffffff16319081150290604051600060405180830381858888f19350505050151561123257fe5b565b60008061123f614998565b6112476148e4565b60008060019450600160009054906101000a900473ffffffffffffffffffffffffffffffffffffffff1673ffffffffffffffffffffffffffffffffffffffff166362f9acf9896040518263ffffffff167c01000000000000000000000000000000000000000000000000000000000281526004016112c59190615238565b6040805180830381600087803b15156112dd57600080fd5b5af115156112ea57600080fd5b50505060405180604001604052935060006401000000000284600060028110151561131157fe5b602002015163ffffffff19161415151561132a57600080fd5b61133384612b04565b925061133e83612a3d565b156113485761134d565b600094505b84151561178b57600160009054906101000a900473ffffffffffffffffffffffffffffffffffffffff1673ffffffffffffffffffffffffffffffffffffffff16630e8310d6896040518263ffffffff167c01000000000000000000000000000000000000000000000000000000000281526004016113cb9190615238565b600060405180830381600087803b15156113e457600080fd5b5af115156113f157600080fd5b505050836040518082600260200280838360005b83811015611420578082015181840152602081019050611405565b505050509050019150506040518091039020915061143d88610f89565b151561159757600160009054906101000a900473ffffffffffffffffffffffffffffffffffffffff1673ffffffffffffffffffffffffffffffffffffffff1663e765c122836040518263ffffffff167c01000000000000000000000000000000000000000000000000000000000281526004016114ba919061515e565b602060405180830381600087803b15156114d357600080fd5b5af115156114e057600080fd5b505050604051805190509050600160009054906101000a900473ffffffffffffffffffffffffffffffffffffffff1673ffffffffffffffffffffffffffffffffffffffff16631cc1472d88836040518363ffffffff167c010000000000000000000000000000000000000000000000000000000002815260040161156592919061511a565b602060405180830381600087803b151561157e57600080fd5b5af1151561158b57600080fd5b50505060405180519050505b600160009054906101000a900473ffffffffffffffffffffffffffffffffffffffff1673ffffffffffffffffffffffffffffffffffffffff166364e779b1896040518263ffffffff167c010000000000000000000000000000000000000000000000000000000002815260040161160e9190615238565b600060405180830381600087803b151561162757600080fd5b5af1151561163457600080fd5b505050600160009054906101000a900473ffffffffffffffffffffffffffffffffffffffff1673ffffffffffffffffffffffffffffffffffffffff16631dbd9d918360006040518363ffffffff167c01000000000000000000000000000000000000000000000000000000000281526004016116b19291906151a2565b600060405180830381600087803b15156116ca57600080fd5b5af115156116d757600080fd5b505050600160009054906101000a900473ffffffffffffffffffffffffffffffffffffffff1673ffffffffffffffffffffffffffffffffffffffff16633541fd538360006040518363ffffffff167c01000000000000000000000000000000000000000000000000000000000281526004016117549291906151cb565b600060405180830381600087803b151561176d57600080fd5b5af1151561177a57600080fd5b50505061178688612df6565b611790565b600080fd5b60019550505050505092915050565b6000806000806000640100000000028760006002811015156117bd57fe5b602002015163ffffffff1916141515156117d657600080fd5b866040518082600260200280838360005b838110156118025780820151818401526020810190506117e7565b5050505090500191505060405180910390209250600160009054906101000a900473ffffffffffffffffffffffffffffffffffffffff1673ffffffffffffffffffffffffffffffffffffffff16638784ea96846040518263ffffffff167c010000000000000000000000000000000000000000000000000000000002815260040161188d919061515e565b602060405180830381600087803b15156118a657600080fd5b5af115156118b357600080fd5b5050506040518051905091506000600160009054906101000a900473ffffffffffffffffffffffffffffffffffffffff1673ffffffffffffffffffffffffffffffffffffffff166303a53d6b886040518263ffffffff167c01000000000000000000000000000000000000000000000000000000000281526004016119389190615238565b602060405180830381600087803b151561195157600080fd5b5af1151561195e57600080fd5b5050506040518051905014151561197457600080fd5b600160009054906101000a900473ffffffffffffffffffffffffffffffffffffffff1673ffffffffffffffffffffffffffffffffffffffff1663e3100d1e87436040518363ffffffff167c01000000000000000000000000000000000000000000000000000000000281526004016119ed9291906152a5565b600060405180830381600087803b1515611a0657600080fd5b5af11515611a1357600080fd5b505050600160009054906101000a900473ffffffffffffffffffffffffffffffffffffffff1673ffffffffffffffffffffffffffffffffffffffff16630b62839587896040518363ffffffff167c0100000000000000000000000000000000000000000000000000000000028152600401611a8f929190615253565b600060405180830381600087803b1515611aa857600080fd5b5af11515611ab557600080fd5b50505060007f010000000000000000000000000000000000000000000000000000000000000002857effffffffffffffffffffffffffffffffffffffffffffffffffffffffffffff19161115611c5557600160009054906101000a900473ffffffffffffffffffffffffffffffffffffffff1673ffffffffffffffffffffffffffffffffffffffff16631dba566087876040518363ffffffff167c0100000000000000000000000000000000000000000000000000000000028152600401611b7e92919061527c565b600060405180830381600087803b1515611b9757600080fd5b5af11515611ba457600080fd5b505050611bb0856123cb565b9050600160009054906101000a900473ffffffffffffffffffffffffffffffffffffffff1673ffffffffffffffffffffffffffffffffffffffff1663a47bd49687836040518363ffffffff167c0100000000000000000000000000000000000000000000000000000000028152600401611c2b9291906152a5565b600060405180830381600087803b1515611c4457600080fd5b5af11515611c5157600080fd5b5050505b600160009054906101000a900473ffffffffffffffffffffffffffffffffffffffff1673ffffffffffffffffffffffffffffffffffffffff166340c10f1983886040518363ffffffff167c0100000000000000000000000000000000000000000000000000000000028152600401611cce92919061511a565b600060405180830381600087803b1515611ce757600080fd5b5af11515611cf457600080fd5b505050600193505050509392505050565b600080fd5b6000611d14614998565b600080600080600160009054906101000a900473ffffffffffffffffffffffffffffffffffffffff1673ffffffffffffffffffffffffffffffffffffffff166362f9acf9886040518263ffffffff167c0100000000000000000000000000000000000000000000000000000000028152600401611d919190615238565b6040805180830381600087803b1515611da957600080fd5b5af11515611db657600080fd5b505050604051806040016040529450600064010000000002856000600281101515611ddd57fe5b602002015163ffffffff191614151515611df657600080fd5b846040518082600260200280838360005b83811015611e22578082015181840152602081019050611e07565b5050505090500191505060405180910390209350600160009054906101000a900473ffffffffffffffffffffffffffffffffffffffff1673ffffffffffffffffffffffffffffffffffffffff1663e765c122856040518263ffffffff167c0100000000000000000000000000000000000000000000000000000000028152600401611ead919061515e565b602060405180830381600087803b1515611ec657600080fd5b5af11515611ed357600080fd5b50505060405180519050925060008314151515611eef57600080fd5b611ef887610f89565b1515611f0357600080fd5b600160009054906101000a900473ffffffffffffffffffffffffffffffffffffffff1673ffffffffffffffffffffffffffffffffffffffff16633541fd538560006040518363ffffffff167c0100000000000000000000000000000000000000000000000000000000028152600401611f7d9291906151cb565b600060405180830381600087803b1515611f9657600080fd5b5af11515611fa357600080fd5b505050611faf87613316565b600160009054906101000a900473ffffffffffffffffffffffffffffffffffffffff1673ffffffffffffffffffffffffffffffffffffffff16638784ea96856040518263ffffffff167c0100000000000000000000000000000000000000000000000000000000028152600401612026919061515e565b602060405180830381600087803b151561203f57600080fd5b5af1151561204c57600080fd5b505050604051805190509150600160009054906101000a900473ffffffffffffffffffffffffffffffffffffffff1673ffffffffffffffffffffffffffffffffffffffff16631c4b774b886040518263ffffffff167c01000000000000000000000000000000000000000000000000000000000281526004016120cf9190615238565b602060405180830381600087803b15156120e857600080fd5b5af115156120f557600080fd5b505050604051805190509050600260009054906101000a900473ffffffffffffffffffffffffffffffffffffffff1673ffffffffffffffffffffffffffffffffffffffff166340c10f1983836040518363ffffffff167c010000000000000000000000000000000000000000000000000000000002815260040161217a92919061511a565b602060405180830381600087803b151561219357600080fd5b5af115156121a057600080fd5b5050506040518051905015156121b557600080fd5b600160009054906101000a900473ffffffffffffffffffffffffffffffffffffffff1673ffffffffffffffffffffffffffffffffffffffff16631cc1472d83856040518363ffffffff167c010000000000000000000000000000000000000000000000000000000002815260040161222e92919061511a565b602060405180830381600087803b151561224757600080fd5b5af1151561225457600080fd5b50505060405180519050151561226957600080fd5b600195505050505050919050565b6000809054906101000a900473ffffffffffffffffffffffffffffffffffffffff1673ffffffffffffffffffffffffffffffffffffffff163373ffffffffffffffffffffffffffffffffffffffff161415156122d257600080fd5b8060048190555050565b6000600160009054906101000a900473ffffffffffffffffffffffffffffffffffffffff1673ffffffffffffffffffffffffffffffffffffffff166362f9acf9836040518263ffffffff167c01000000000000000000000000000000000000000000000000000000000281526004016123559190615238565b6040805180830381600087803b151561236d57600080fd5b5af1151561237a57600080fd5b505050604051806040016040526040518082600260200280838360005b838110156123b2578082015181840152602081019050612397565b5050505090500191505060405180910390209050919050565b600080600080600080600080600160009054906101000a900473ffffffffffffffffffffffffffffffffffffffff1673ffffffffffffffffffffffffffffffffffffffff1663785d8d716040518163ffffffff167c010000000000000000000000000000000000000000000000000000000002815260040160c060405180830381600087803b151561245c57600080fd5b5af1151561246957600080fd5b50505060405180519060200180519060200180519060200180519060200180519060200180519050809750819850829950839a50849b50859c505050505050506000905060017f01000000000000000000000000000000000000000000000000000000000000000260017f01000000000000000000000000000000000000000000000000000000000000000260048b7effffffffffffffffffffffffffffffffffffffffffffffffffffffffffffff19169060020a9004167effffffffffffffffffffffffffffffffffffffffffffffffffffffffffffff1916141561258b576125886125796001880161256b60018b0160035461383690919063ffffffff16565b61387190919063ffffffff16565b8261388c90919063ffffffff16565b90505b60017f01000000000000000000000000000000000000000000000000000000000000000260017f01000000000000000000000000000000000000000000000000000000000000000260038b7effffffffffffffffffffffffffffffffffffffffffffffffffffffffffffff19169060020a9004167effffffffffffffffffffffffffffffffffffffffffffffffffffffffffffff19161415612669576126666126576001870161264960018b0160035461383690919063ffffffff16565b61387190919063ffffffff16565b8261388c90919063ffffffff16565b90505b60017f01000000000000000000000000000000000000000000000000000000000000000260017f01000000000000000000000000000000000000000000000000000000000000000260028b7effffffffffffffffffffffffffffffffffffffffffffffffffffffffffffff19169060020a9004167effffffffffffffffffffffffffffffffffffffffffffffffffffffffffffff19161415612747576127446127356001860161272760018b0160035461383690919063ffffffff16565b61387190919063ffffffff16565b8261388c90919063ffffffff16565b90505b60017f01000000000000000000000000000000000000000000000000000000000000000260017f01000000000000000000000000000000000000000000000000000000000000000260018b7effffffffffffffffffffffffffffffffffffffffffffffffffffffffffffff19169060020a9004167effffffffffffffffffffffffffffffffffffffffffffffffffffffffffffff19161415612825576128226128136001850161280560018b0160035461383690919063ffffffff16565b61387190919063ffffffff16565b8261388c90919063ffffffff16565b90505b60017f01000000000000000000000000000000000000000000000000000000000000000260017f0100000000000000000000000000000000000000000000000000000000000000028a167effffffffffffffffffffffffffffffffffffffffffffffffffffffffffffff191614156128d9576128d66128c7600184016128b960018b0160035461383690919063ffffffff16565b61387190919063ffffffff16565b8261388c90919063ffffffff16565b90505b80975050505050505050919050565b6000809054906101000a900473ffffffffffffffffffffffffffffffffffffffff1673ffffffffffffffffffffffffffffffffffffffff163373ffffffffffffffffffffffffffffffffffffffff1614151561294357600080fd5b600073ffffffffffffffffffffffffffffffffffffffff168173ffffffffffffffffffffffffffffffffffffffff161415151561297f57600080fd5b8073ffffffffffffffffffffffffffffffffffffffff166000809054906101000a900473ffffffffffffffffffffffffffffffffffffffff1673ffffffffffffffffffffffffffffffffffffffff167f8be0079c531659141344cd1fd0a4f28419497f9722a3daafe3b4186f6b6457e060405160405180910390a3806000806101000a81548173ffffffffffffffffffffffffffffffffffffffff021916908373ffffffffffffffffffffffffffffffffffffffff16021790555050565b6000816000015115612a525760009050612a6b565b81602001511515612a665760009050612a6b565b600190505b919050565b8273ffffffffffffffffffffffffffffffffffffffff1663a9059cbb83836040518363ffffffff167c0100000000000000000000000000000000000000000000000000000000028152600401612ac792919061511a565b602060405180830381600087803b1515612ae057600080fd5b5af11515612aed57600080fd5b505050604051805190501515612aff57fe5b505050565b612b0c6148e4565b612b146148e4565b600080600080600080886000600281101515612b2c57fe5b602002015187610120019063ffffffff1916908163ffffffff191681525050886001600281101515612b5a57fe5b602002015187610140019063ffffffff1916908163ffffffff191681525050600087610180019060ff16908160ff16815250506002876101a0019060ff16908160ff16815250506002876101c0019060ff16908160ff168152505060008760000190151590811515815250506000876020019015159081151581525050600187610160019060ff16908160ff16815250506ffffffffffffffe7ffdbfffffffffffff700100000000000000000000000000000000028761010001906fffffffffffffffffffffffffffffffff191690816fffffffffffffffffffffffffffffffff191681525050600091505b603c8260ff16108015612c57575085155b15612dc557602087610180015160ff1610612c7757866101400151612c7e565b8661012001515b9050612ca081602089610180015160ff16811515612c9857fe5b0660206138aa565b9450612cab856138ee565b8094508195505050612cbc8561392d565b15955085158015612cd0575060088460ff16105b8015612cdf575060088360ff16105b8015612cef575060008460ff1610155b8015612cff575060008360ff1610155b15612db857612d0f87858561393e565b965060018761018001510187610180019060ff16908160ff1681525050866000015115612db7576000876000019015159081151581525050600160ff1687610160015160ff161415612d7457600287610160019060ff16908160ff1681525050612d89565b600187610160019060ff16908160ff16815250505b612d9487858561393e565b9650866000015115612db6576001955060008760000190151590811515815250505b5b5b8180600101925050612c46565b86600001511515612de757612dd987613c40565b9650612de487613ef9565b96505b86975050505050505050919050565b6000806000806000806000600160009054906101000a900473ffffffffffffffffffffffffffffffffffffffff1673ffffffffffffffffffffffffffffffffffffffff1663785d8d716040518163ffffffff167c010000000000000000000000000000000000000000000000000000000002815260040160c060405180830381600087803b1515612e8657600080fd5b5af11515612e9357600080fd5b50505060405180519060200180519060200180519060200180519060200180519060200180519050809750819850829950839a50849b50859c50505050505050600160009054906101000a900473ffffffffffffffffffffffffffffffffffffffff1673ffffffffffffffffffffffffffffffffffffffff1663c53b4bf9896040518263ffffffff167c0100000000000000000000000000000000000000000000000000000000028152600401612f4a9190615238565b602060405180830381600087803b1515612f6357600080fd5b5af11515612f7057600080fd5b505050604051805190509050612fe760007f010000000000000000000000000000000000000000000000000000000000000002827effffffffffffffffffffffffffffffffffffffffffffffffffffffffffffff191611612fd2576000612fd5565b60015b60ff16886141f190919063ffffffff16565b965061306e60017f0100000000000000000000000000000000000000000000000000000000000000026004837effffffffffffffffffffffffffffffffffffffffffffffffffffffffffffff19169060020a9004167f01000000000000000000000000000000000000000000000000000000000000009004876141f190919063ffffffff16565b95506130f560017f0100000000000000000000000000000000000000000000000000000000000000026003837effffffffffffffffffffffffffffffffffffffffffffffffffffffffffffff19169060020a9004167f01000000000000000000000000000000000000000000000000000000000000009004866141f190919063ffffffff16565b945061317c60017f0100000000000000000000000000000000000000000000000000000000000000026002837effffffffffffffffffffffffffffffffffffffffffffffffffffffffffffff19169060020a9004167f01000000000000000000000000000000000000000000000000000000000000009004856141f190919063ffffffff16565b935061320360017f0100000000000000000000000000000000000000000000000000000000000000026001837effffffffffffffffffffffffffffffffffffffffffffffffffffffffffffff19169060020a9004167f01000000000000000000000000000000000000000000000000000000000000009004846141f190919063ffffffff16565b925061326060017f01000000000000000000000000000000000000000000000000000000000000000282167f01000000000000000000000000000000000000000000000000000000000000009004836141f190919063ffffffff16565b9150600160009054906101000a900473ffffffffffffffffffffffffffffffffffffffff1673ffffffffffffffffffffffffffffffffffffffff16638b1b2ba88888888888886040518763ffffffff167c01000000000000000000000000000000000000000000000000000000000281526004016132e3969594939291906152ce565b600060405180830381600087803b15156132fc57600080fd5b5af1151561330957600080fd5b5050505050505050505050565b6000806000806000806000600160009054906101000a900473ffffffffffffffffffffffffffffffffffffffff1673ffffffffffffffffffffffffffffffffffffffff1663785d8d716040518163ffffffff167c010000000000000000000000000000000000000000000000000000000002815260040160c060405180830381600087803b15156133a657600080fd5b5af115156133b357600080fd5b50505060405180519060200180519060200180519060200180519060200180519060200180519050809750819850829950839a50849b50859c50505050505050600160009054906101000a900473ffffffffffffffffffffffffffffffffffffffff1673ffffffffffffffffffffffffffffffffffffffff1663c53b4bf9896040518263ffffffff167c010000000000000000000000000000000000000000000000000000000002815260040161346a9190615238565b602060405180830381600087803b151561348357600080fd5b5af1151561349057600080fd5b50505060405180519050905061350760007f010000000000000000000000000000000000000000000000000000000000000002827effffffffffffffffffffffffffffffffffffffffffffffffffffffffffffff1916116134f25760006134f5565b60015b60ff168861388c90919063ffffffff16565b965061358e60017f0100000000000000000000000000000000000000000000000000000000000000026004837effffffffffffffffffffffffffffffffffffffffffffffffffffffffffffff19169060020a9004167f010000000000000000000000000000000000000000000000000000000000000090048761388c90919063ffffffff16565b955061361560017f0100000000000000000000000000000000000000000000000000000000000000026003837effffffffffffffffffffffffffffffffffffffffffffffffffffffffffffff19169060020a9004167f010000000000000000000000000000000000000000000000000000000000000090048661388c90919063ffffffff16565b945061369c60017f0100000000000000000000000000000000000000000000000000000000000000026002837effffffffffffffffffffffffffffffffffffffffffffffffffffffffffffff19169060020a9004167f010000000000000000000000000000000000000000000000000000000000000090048561388c90919063ffffffff16565b935061372360017f0100000000000000000000000000000000000000000000000000000000000000026001837effffffffffffffffffffffffffffffffffffffffffffffffffffffffffffff19169060020a9004167f010000000000000000000000000000000000000000000000000000000000000090048461388c90919063ffffffff16565b925061378060017f01000000000000000000000000000000000000000000000000000000000000000282167f010000000000000000000000000000000000000000000000000000000000000090048361388c90919063ffffffff16565b9150600160009054906101000a900473ffffffffffffffffffffffffffffffffffffffff1673ffffffffffffffffffffffffffffffffffffffff16638b1b2ba88888888888886040518763ffffffff167c0100000000000000000000000000000000000000000000000000000000028152600401613803969594939291906152ce565b600060405180830381600087803b151561381c57600080fd5b5af1151561382957600080fd5b5050505050505050505050565b600080600084141561384b576000915061386a565b828402905082848281151561385c57fe5b0414151561386657fe5b8091505b5092915050565b600080828481151561387f57fe5b0490508091505092915050565b60008082840190508381101515156138a057fe5b8091505092915050565b6000806000607f64010000000002915060078086026007860203039050818160ff168763ffffffff19169060020a9004166401000000009004925050509392505050565b60008060008060408503945060088560ff1681151561390957fe5b069150600882860360ff1681151561391d57fe5b0490508181935093505050915091565b600060408260ff1610159050919050565b6139466148e4565b61394e6149c6565b600080600080600080600080600360ff1661396f8e61010001518e8e61420a565b60ff161415156139925760018d60000190151590811515815250508c9950613c30565b61399d8d8d8d6142a0565b809950819a50505060008860ff1614156139ca5760018d60000190151590811515815250508c9950613c30565b60009150600090505b8760ff168160ff161015613b30576000965060009550613a0a8d8a8360ff166008811015156139fe57fe5b60200201518e8e6145df565b8097508198505050600092505b8560ff168360ff161015613b2357811515613a3157600191505b613a44613a3f8885896138aa565b6138ee565b8095508196505050613a628d61010001518e6101600151878761474d565b8d61010001906fffffffffffffffffffffffffffffffff191690816fffffffffffffffffffffffffffffffff191681525050600260ff168d610160015160ff161415613ae15760018d6101c0018181510191509060ff16908160ff168152505060018d6101a0018181510391509060ff16908160ff1681525050613b16565b60018d6101c0018181510391509060ff16908160ff168152505060018d6101a0018181510191509060ff16908160ff16815250505b8280600101935050613a17565b80806001019150506139d3565b8115613bd157613b4c8d61010001518e61016001518e8e61474d565b8d61010001906fffffffffffffffffffffffffffffffff191690816fffffffffffffffffffffffffffffffff191681525050600260ff168d610160015160ff161415613bb15760018d6101c0018181510191509060ff16908160ff1681525050613bcc565b60018d6101a0018181510191509060ff16908160ff16815250505b613bea565b60018d60000190151590811515815250508c9950613c30565b600160ff168d610160015160ff161415613c175760028d610160019060ff16908160ff1681525050613c2c565b60018d610160019060ff16908160ff16815250505b8c99505b5050505050505050509392505050565b613c486148e4565b613c506149f5565b600080600080613c5e6148e4565b613c66614a24565b603c89610180015160ff161480613c8557506000896101a0015160ff16145b80613c9857506000896101c0015160ff16145b15613cc75760008960000190151590811515815250506001896020019015159081151581525050889750613eed565b60009550600094505b60408560ff161015613da957613d1a8961010001516008808860ff16811515613cf557fe5b06880360ff16811515613d0457fe5b0460088860ff16811515613d1457fe5b0661420a565b9350600360ff168460ff161415613d9c5760408051908101604052806008808860ff16811515613d4657fe5b06880360ff16811515613d5557fe5b0460ff1660ff16815260200160088760ff16811515613d7057fe5b0660ff1660ff16815250878760ff16603c81101515613d8b57fe5b602002018190525085806001019650505b8480600101955050613cd0565b6000925060008660ff161115613eaa57600094505b8560ff168560ff16108015613dd1575082155b15613ea957868560ff16603c81101515613de757fe5b60200201519050600189610160019060ff16908160ff1681525050613e3389826000600281101515613e1557fe5b6020020151836001600281101515613e2957fe5b602002015161393e565b915081600001511515613e4557600192505b600289610160019060ff16908160ff1681525050613e8a89826000600281101515613e6c57fe5b6020020151836001600281101515613e8057fe5b602002015161393e565b915081600001511515613e9c57600192505b8480600101955050613dbe565b5b8215613ec6576001896000019015159081151581525050613ee9565b600189602001901515908115158152505060008960000190151590811515815250505b8897505b50505050505050919050565b613f016148e4565b60008060008060008060006001965060019550600194506001935060019250600091505b60088260ff16108015613f5557508680613f3c5750855b80613f445750845b80613f4c5750835b80613f545750825b5b1561415a57600090505b60088160ff16108015613f8f57508680613f765750855b80613f7e5750845b80613f865750835b80613f8e5750825b5b1561414d57613faa89610100015183600703836007036147f9565b6fffffffffffffffffffffffffffffffff1916613fcd8a610100015184846147f9565b6fffffffffffffffffffffffffffffffff1916141515613fec57600096505b613fff89610100015183836007036147f9565b6fffffffffffffffffffffffffffffffff19166140228a610100015184846147f9565b6fffffffffffffffffffffffffffffffff191614151561404157600095505b61405489610100015183600703836147f9565b6fffffffffffffffffffffffffffffffff19166140778a610100015184846147f9565b6fffffffffffffffffffffffffffffffff191614151561409657600094505b6140ac89610100015182600703846007036147f9565b6fffffffffffffffffffffffffffffffff19166140cf8a610100015184846147f9565b6fffffffffffffffffffffffffffffffff19161415156140ee57600093505b6140fe89610100015182846147f9565b6fffffffffffffffffffffffffffffffff19166141218a610100015184846147f9565b6fffffffffffffffffffffffffffffffff191614151561414057600092505b8080600101915050613f5f565b8180600101925050613f25565b86806141635750855b8061416b5750845b806141735750835b8061417b5750825b156141e25760018960400190151590811515815250508689606001901515908115158152505085896080019015159081151581525050848960a0019015159081151581525050838960c0019015159081151581525050828960e00190151590811515815250505b88975050505050505050919050565b60008282111515156141ff57fe5b818303905092915050565b60008060008061421a8686614880565b9250826fffffffffffffffffffffffffffffffff1660039060020a0260ff167001000000000000000000000000000000000287169150826fffffffffffffffffffffffffffffffff16826fffffffffffffffffffffffffffffffff19169060020a9004905080700100000000000000000000000000000000900493505050509392505050565b6142a86149c6565b60006142b26149c6565b60006142bc6149c6565b6000806142c7614a4e565b600080600096506101006040519081016040528060408051908101604052807fffffffffffffffffffffffffffffffffffffffffffffffffffffffffffffffff60000b60000b81526020016000800b60000b815250815260200160408051908101604052807fffffffffffffffffffffffffffffffffffffffffffffffffffffffffffffffff60000b60000b8152602001600160000b60000b815250815260200160408051908101604052806000800b60000b8152602001600160000b60000b81525081526020016040805190810160405280600160000b60000b8152602001600160000b60000b81525081526020016040805190810160405280600160000b60000b81526020016000800b60000b81525081526020016040805190810160405280600160000b60000b81526020017fffffffffffffffffffffffffffffffffffffffffffffffffffffffffffffffff60000b60000b815250815260200160408051908101604052806000800b60000b81526020017fffffffffffffffffffffffffffffffffffffffffffffffffffffffffffffffff60000b60000b815250815260200160408051908101604052807fffffffffffffffffffffffffffffffffffffffffffffffffffffffffffffffff60000b60000b81526020017fffffffffffffffffffffffffffffffffffffffffffffffffffffffffffffffff60000b60000b8152508152509550600090505b60088160ff1610156145c957858160ff166008811015156144f357fe5b6020020151925082600060028110151561450957fe5b60200201518c01935082600160028110151561452157fe5b60200201518b01945060078560000b138061453f575060008560000b125b8061454d575060078460000b135b8061455b575060008460000b125b15156145bc576145718d6101000151858761420a565b91508c610160015160ff168260ff161415156145bb57600360ff168260ff161415156145ba5782888860ff166008811015156145a957fe5b602002018190525086806001019750505b5b5b80806001019150506144d6565b8787995099505050505050505050935093915050565b60008060008060008060008060008060008097508e61016001519650600160ff168f610160015160ff161415614618576002955061461d565b600195505b60009450600190505b60098160ff16101561473557841515614728578c8e600060028110151561464957fe5b602002015182020193508b8e600160028110151561466357fe5b6020020151820201925060078460000b1380614682575060008460000b125b80614690575060078360000b135b8061469e575060008360000b125b156146b457600098506000975060019450614727565b6146c48f6101000151858561420a565b91508560ff168260ff1614156146ed576146e08989868661489c565b809950819a505050614726565b8e610160015160ff168260ff1614801561470a575060018160ff16115b156147185760019450614725565b6000985060009750600194505b5b5b5b8080600101915050614626565b88889a509a5050505050505050505094509492505050565b600080600060078560ff16111561476357600080fd5b60078460ff16111561477457600080fd5b61477e8585614880565b9150816fffffffffffffffffffffffffffffffff1660039060020a0260ff1670010000000000000000000000000000000002905086818818169650816fffffffffffffffffffffffffffffffff168660ff169060020a0260ff1670010000000000000000000000000000000002871792505050949350505050565b6000806148068484614880565b9050806fffffffffffffffffffffffffffffffff16816fffffffffffffffffffffffffffffffff166003700100000000000000000000000000000000026fffffffffffffffffffffffffffffffff19169060020a0286166fffffffffffffffffffffffffffffffff19169060020a90049150509392505050565b600060026001838560080201016040030260ff16905092915050565b600080600060406008850286010160ff1664010000000002905060078763ffffffff19169060020a029650808717965085806001019650508686925092505094509492505050565b6101e06040519081016040528060001515815260200160001515815260200160001515815260200160001515815260200160001515815260200160001515815260200160001515815260200160001515815260200160006fffffffffffffffffffffffffffffffff19168152602001600063ffffffff19168152602001600063ffffffff19168152602001600060ff168152602001600060ff168152602001600060ff168152602001600060ff1681525090565b60408051908101604052806002905b600063ffffffff19168152602001906001900390816149a75790505090565b610200604051908101604052806008905b6149df614a77565b8152602001906001900390816149d75790505090565b610f0060405190810160405280603c905b614a0e614aa0565b815260200190600190039081614a065790505090565b60408051908101604052806002905b600060ff16815260200190600190039081614a335790505090565b60408051908101604052806002905b6000800b815260200190600190039081614a5d5790505090565b60408051908101604052806002905b6000800b815260200190600190039081614a865790505090565b60408051908101604052806002905b600060ff16815260200190600190039081614aaf5790505090565b6000614ad68235615438565b905092915050565b600082601f8301121515614af157600080fd5b6002614b04614aff8261535c565b61532f565b91508183856020840282011115614b1a57600080fd5b60005b83811015614b4a5781614b308882614b90565b845260208401935060208301925050600181019050614b1d565b5050505092915050565b6000614b608235615458565b905092915050565b6000614b748235615464565b905092915050565b6000614b888235615490565b905092915050565b6000614b9c82356154bc565b905092915050565b6000614bb082356154e8565b905092915050565b60008083601f8401121515614bcc57600080fd5b8235905067ffffffffffffffff811115614be557600080fd5b602083019150836001820283011115614bfd57600080fd5b9250929050565b6000614c1082356154f2565b905092915050565b60006101e08284031215614c2b57600080fd5b614c366101e061532f565b90506000614c4684828501614b54565b6000830152506020614c5a84828501614b54565b6020830152506040614c6e84828501614b54565b6040830152506060614c8284828501614b54565b6060830152506080614c9684828501614b54565b60808301525060a0614caa84828501614b54565b60a08301525060c0614cbe84828501614b54565b60c08301525060e0614cd284828501614b54565b60e083015250610100614ce784828501614b7c565b61010083015250610120614cfd84828501614b90565b61012083015250610140614d1384828501614b90565b61014083015250610160614d2984828501614d8c565b61016083015250610180614d3f84828501614d8c565b610180830152506101a0614d5584828501614d8c565b6101a0830152506101c0614d6b84828501614d8c565b6101c08301525092915050565b6000614d848235615504565b905092915050565b6000614d98823561550e565b905092915050565b600060208284031215614db257600080fd5b6000614dc084828501614aca565b91505092915050565b60008060008060608587031215614ddf57600080fd5b6000614ded87828801614aca565b9450506020614dfe87828801614d78565b935050604085013567ffffffffffffffff811115614e1b57600080fd5b614e2787828801614bb8565b925092505092959194509250565b600060408284031215614e4757600080fd5b6000614e5584828501614ade565b91505092915050565b600080600060808486031215614e7357600080fd5b6000614e8186828701614ade565b9350506040614e9286828701614d78565b9250506060614ea386828701614b68565b9150509250925092565b60008060008060a08587031215614ec357600080fd5b6000614ed187828801614ade565b9450506040614ee287828801614d78565b9350506060614ef387828801614b68565b9250506080614f0487828801614aca565b91505092959194509250565b600060208284031215614f2257600080fd5b6000614f3084828501614b68565b91505092915050565b60008060408385031215614f4c57600080fd5b6000614f5a85828601614ba4565b9250506020614f6b85828601614aca565b9150509250929050565b600060208284031215614f8757600080fd5b6000614f9584828501614c04565b91505092915050565b60006101e08284031215614fb157600080fd5b6000614fbf84828501614c18565b91505092915050565b600060208284031215614fda57600080fd5b6000614fe884828501614d78565b91505092915050565b6000806040838503121561500457600080fd5b600061501285828601614d78565b925050602061502385828601614aca565b9150509250929050565b615036816153a0565b82525050565b61504581615388565b61504e8261537e565b60005b82811015615080576150648583516150a5565b61506d82615393565b9150602085019450600181019050615051565b5050505050565b615090816153c0565b82525050565b61509f816153cc565b82525050565b6150ae816153f8565b82525050565b6150bd81615424565b82525050565b6150cc8161551b565b82525050565b6150db8161552d565b82525050565b6150ea8161553f565b82525050565b6150f98161542e565b82525050565b6000602082019050615114600083018461502d565b92915050565b600060408201905061512f600083018561502d565b61513c60208301846150f0565b9392505050565b60006020820190506151586000830184615087565b92915050565b600060208201905061517360008301846150b4565b92915050565b600060408201905061518e60008301856150b4565b61519b602083018461502d565b9392505050565b60006040820190506151b760008301856150b4565b6151c460208301846150d2565b9392505050565b60006040820190506151e060008301856150b4565b6151ed60208301846150e1565b9392505050565b600060408201905061520960008301856150b4565b61521660208301846150f0565b9392505050565b600060208201905061523260008301846150c3565b92915050565b600060208201905061524d60008301846150f0565b92915050565b600060608201905061526860008301856150f0565b615275602083018461503c565b9392505050565b600060408201905061529160008301856150f0565b61529e6020830184615096565b9392505050565b60006040820190506152ba60008301856150f0565b6152c760208301846150f0565b9392505050565b600060c0820190506152e360008301896150f0565b6152f060208301886150f0565b6152fd60408301876150f0565b61530a60608301866150f0565b61531760808301856150f0565b61532460a08301846150f0565b979650505050505050565b6000604051905081810181811067ffffffffffffffff8211171561535257600080fd5b8060405250919050565b600067ffffffffffffffff82111561537357600080fd5b602082029050919050565b6000819050919050565b600060029050919050565b6000602082019050919050565b600073ffffffffffffffffffffffffffffffffffffffff82169050919050565b60008115159050919050565b60007fff0000000000000000000000000000000000000000000000000000000000000082169050919050565b60007fffffffffffffffffffffffffffffffffffffffffffffffffffffffff0000000082169050919050565b6000819050919050565b6000819050919050565b600073ffffffffffffffffffffffffffffffffffffffff82169050919050565b60008115159050919050565b60007fff0000000000000000000000000000000000000000000000000000000000000082169050919050565b60007fffffffffffffffffffffffffffffffff0000000000000000000000000000000082169050919050565b60007fffffffffffffffffffffffffffffffffffffffffffffffffffffffff0000000082169050919050565b6000819050919050565b60006154fd826153a0565b9050919050565b6000819050919050565b600060ff82169050919050565b6000615526826153a0565b9050919050565b6000615538826153a0565b9050919050565b600061554a8261542e565b90509190505600a265627a7a7230582012e0ccecf270fd66a5c76b869600a8589de1362573f5b9c698e9572121311e586c6578706572696d656e74616cf50037",
  "source": "pragma solidity ^0.4.19;\npragma experimental ABIEncoderV2;\n\n/**\n * The CloversController is upgradeable and contains the logic used by CloversFrontend\n * Both adhere to the CloversFactory interface design\n */\nimport \"./IClovers.sol\";\nimport \"./Reversi.sol\";\nimport \"./Mintable.sol\";\nimport \"./CloversFactory.sol\";\nimport \"zeppelin-solidity/contracts/ownership/HasNoTokens.sol\";\nimport \"zeppelin-solidity/contracts/ownership/HasNoEther.sol\";\nimport \"zeppelin-solidity/contracts/math/SafeMath.sol\";\n\ncontract CloversController is CloversFactory, HasNoTokens, HasNoEther {\n    event cloverCommited(bytes32 movesHash, address miner);\n    event cloverRevealed(bytes28[2] moves, uint256 _tokenId, address miner);\n    event cloverClaimed(bytes28[2] moves, uint256 _tokenId, address miner);\n    event stakeRetrieved(bytes28[2] moves, uint256 _tokenId, address miner);\n    event cloverChallenged(bytes28[2] moves, uint256 _tokenId, address miner, address challenger);\n\n    using SafeMath for uint256;\n\n    address clovers;\n    address clubToken;\n\n    uint256 payMultiplier;\n    uint256 stakeAmount;\n    uint256 stakePeriod;\n\n    function CloversController(address _clovers, address _clubToken) public {\n        clovers = _clovers;\n        clubToken = _clubToken;\n    }    \n\n    /**\n    * @dev Gets the current staking amount needed to claim a Clover.\n    * @return A uint256 value of how much stake is needed.\n    */\n    function currentStakeAmount() public constant returns (uint256) {\n        return stakeAmount;\n    }\n    /**\n    * @dev Gets the current staking period needed to verify a Clover.\n    * @return A uint256 value of stake period in seconds.\n    */\n    function currentStakePeriod() public constant returns (uint256) {\n        return stakePeriod;\n    }\n    /**\n    * @dev Gets the current staking period needed to verify a Clover.\n    * @return A uint256 value of stake period in seconds.\n    */\n    function getMultiplier() public constant returns (uint256) {\n        return payMultiplier;\n    }\n    /**\n    * @dev Gets the current staking period needed to verify a Clover.\n    * @return A uint256 value of stake period in seconds.\n    */\n    function getMovesHash(uint _tokenId) public constant returns (bytes32) {\n        return keccak256(IClovers(clovers).getCloverMoves(_tokenId));\n    }\n    /**\n    * @dev Checks whether the game is valid.\n    * @param moves The moves needed to play validate the game.\n    * @return A boolean representing whether or not the game is valid.\n    */\n    function isValid(bytes28[2] moves) public constant returns (bool) {\n        Reversi.Game memory game = Reversi.playGame(moves);\n        if (isValidGame(game)) {\n            return true;\n        } else {\n            return false;\n        }\n    }\n    /**\n    * @dev Checks whether the game is valid.\n    * @param game The pre-played game.\n    * @return A boolean representing whether or not the game is valid.\n    */\n    function isValidGame(Reversi.Game game) public constant returns (bool) {\n        if (game.error) return false;\n        if (!game.complete) return false;\n        return true;\n    }\n    /**\n    * @dev Checks whether the game has passed the verification period.\n    * @param _tokenId The board being checked.\n    * @return A boolean representing whether or not the game has been verified.\n    */\n    function isVerified(uint256 _tokenId) public constant returns (bool) {\n        uint256 _blockMinted = IClovers(clovers).getBlockMinted(_tokenId);\n        if(_blockMinted == 0) return false;\n        // require(block.number > _blockMinted);\n        return (block.number - _blockMinted) > stakePeriod;\n    }\n    function returnBlock() public constant returns (uint) {\n        return block.number;\n    }\n    /**\n    * @dev Calculates the reward of the board.\n    * @param _symmetries symmetries saved as a bytes1 value like 00010101 where bits represent symmetry types.\n    * @return A uint256 representing the reward that would be returned for claiming the board.\n    */\n    function calculateReward(bytes1 _symmetries) public constant returns (uint256) {\n        uint256 Symmetricals;\n        uint256 RotSym;\n        uint256 Y0Sym;\n        uint256 X0Sym;\n        uint256 XYSym;\n        uint256 XnYSym;\n        (Symmetricals,\n        RotSym,\n        Y0Sym,\n        X0Sym,\n        XYSym,\n        XnYSym) = IClovers(clovers).getAllSymmetries();\n        uint256 base = 0;\n        if (_symmetries >> 4 & 1 == 1) base = base.add(payMultiplier.mul(Symmetricals + 1).div(RotSym + 1));\n        if (_symmetries >> 3 & 1 == 1) base = base.add(payMultiplier.mul(Symmetricals + 1).div(Y0Sym + 1));\n        if (_symmetries >> 2 & 1 == 1) base = base.add(payMultiplier.mul(Symmetricals + 1).div(X0Sym + 1));\n        if (_symmetries >> 1 & 1 == 1) base = base.add(payMultiplier.mul(Symmetricals + 1).div(XYSym + 1));\n        if (_symmetries & 1 == 1) base = base.add(payMultiplier.mul(Symmetricals + 1).div(XnYSym + 1));\n        return base;\n    }\n\n    /**\n    * @dev Claim the Clover without a commit or reveal.\n    * @param moves The moves that make up the Clover reversi game.\n    * @param _tokenId The board that results from the moves.\n    * @param _symmetries symmetries saved as a bytes1 value like 00010101 where bits represent symmetry types.\n    * @param _to The address claiming the Clover.\n    * @return A boolean representing whether or not the claim was successful.\n    */\n    function claimClover(bytes28[2] moves, uint256 _tokenId, bytes1 _symmetries, address _to) public payable returns (bool) {\n        require(moves[0] != 0);\n        require(msg.value == stakeAmount);\n        bytes32 movesHash = keccak256(moves);\n        IClovers(clovers).setCommit(movesHash, _to);\n        IClovers(clovers).setStake(movesHash, stakeAmount);\n        clovers.transfer(stakeAmount);\n        require(IClovers(clovers).getBlockMinted(_tokenId) == 0);\n        IClovers(clovers).setBlockMinted(_tokenId, block.number);\n        IClovers(clovers).setCloverMoves(_tokenId, moves);\n        if (_symmetries > 0) {\n            IClovers(clovers).setSymmetries(_tokenId, _symmetries);\n            uint256 reward = calculateReward(_symmetries);\n            IClovers(clovers).setReward(_tokenId, reward);\n        }\n        IClovers(clovers).mint(_to, _tokenId);\n        return true;\n    }\n    /**\n    * @dev Commit the hash of the moves needed to claim the Clover. A stake should be made for counterfactual verification.\n    * @param movesHash The hash of the moves that makes up the Clover reversi game.\n    * @param _to The address claiming the Clover.\n    * @return A boolean representing whether or not the commit was successful.\n    */\n    function claimCloverCommit(bytes32 movesHash, address _to) public payable returns (bool) {\n        require(_to != 0);\n        require(msg.value == stakeAmount);\n        require(IClovers(clovers).getCommit(movesHash) == 0);\n        IClovers(clovers).setCommit(movesHash, _to);\n        IClovers(clovers).setStake(movesHash, stakeAmount);\n        clovers.transfer(stakeAmount);\n        return true;\n    }\n    /**\n    * @dev Reveal the solution to the previous commit to claim the Clover.\n    * @param moves The moves that make up the Clover reversi game.\n    * @param _tokenId The board that results from the moves.\n    * @param _symmetries symmetries saved as a bytes1 value like 00010101 where bits represent symmetry types.\n    * @return A boolean representing whether or not the reveal and claim was successful.\n    */\n    function claimCloverReveal(bytes28[2] moves, uint256 _tokenId, bytes1 _symmetries) public returns (bool) {\n        require(moves[0] != 0);\n        bytes32 movesHash = keccak256(moves);\n        address commiter = IClovers(clovers).getCommit(movesHash);\n        require(IClovers(clovers).getBlockMinted(_tokenId) == 0);\n        IClovers(clovers).setBlockMinted(_tokenId, block.number);\n        IClovers(clovers).setCloverMoves(_tokenId, moves);\n        if (_symmetries > 0) {\n            IClovers(clovers).setSymmetries(_tokenId, _symmetries);\n            uint256 reward = calculateReward(_symmetries);\n            IClovers(clovers).setReward(_tokenId, reward);\n        }\n        IClovers(clovers).mint(commiter, _tokenId);\n        return true;\n    }\n    /**\n    * @dev Retrieve the stake from a Clover claim after the stake period has ended.\n    * @param _tokenId The board which holds the stake.\n    * @return A boolean representing whether or not the retrieval was successful.\n    */\n    function retrieveStake(uint256 _tokenId) public returns (bool) {\n        bytes28[2] memory moves = IClovers(clovers).getCloverMoves(_tokenId);\n        require(moves[0] != 0);\n        bytes32 movesHash = keccak256(moves);\n        uint256 stake = IClovers(clovers).getStake(movesHash);\n        require(stake != 0);\n        require(isVerified(_tokenId));\n        IClovers(clovers).setStake(movesHash, 0);\n        addSymmetries(_tokenId);\n        address commiter = IClovers(clovers).getCommit(movesHash);\n        uint256 reward = IClovers(clovers).getReward(_tokenId);\n        require(Mintable(clubToken).mint(commiter, reward));\n        require(IClovers(clovers).moveEth(commiter, stake));\n        return true;\n    }\n    /**\n    * @dev Challenge a staked Clover for being invalid.\n    * @param _tokenId The board being challenged.\n    * @param _to The address challenging the Clover.\n    * @return A boolean representing whether or not the challenge was successful.\n    */\n    function challengeClover(uint256 _tokenId, address _to) public returns (bool) {\n        bool valid = true;\n        bytes28[2] memory moves = IClovers(clovers).getCloverMoves(_tokenId);\n        require(moves[0] != 0);\n        Reversi.Game memory game = Reversi.playGame(moves);\n        if(isValidGame(game)) {\n            // bytes1 _symmetries = IClovers(clovers).getSymmetries(_tokenId);\n\n            // valid = (_symmetries >> 4 & 1) > 0 == game.RotSym ? valid : false;\n            // valid = (_symmetries >> 3 & 1) > 0 == game.Y0Sym ? valid : false;\n            // valid = (_symmetries >> 2 & 1) > 0 == game.X0Sym ? valid : false;\n            // valid = (_symmetries >> 1 & 1) > 0 == game.XYSym ? valid : false;\n            // valid = (_symmetries & 1) > 0 == game.XnYSym ? valid : false;\n\n        } else {\n            valid = false;\n        }\n        if (!valid) {\n            IClovers(clovers).deleteClover(_tokenId);\n            bytes32 movesHash = keccak256(moves);\n            if (!isVerified(_tokenId)) {\n                uint256 stake = IClovers(clovers).getStake(movesHash);\n                IClovers(clovers).moveEth(_to, stake);\n            }\n            IClovers(clovers).unmint(_tokenId);\n            IClovers(clovers).setCommit(movesHash, 0);\n            IClovers(clovers).setStake(movesHash, 0);\n            removeSymmetries(_tokenId);\n        } else {\n            revert();\n        }\n        return true;\n    }\n\n    /**\n    * @dev Updates the stake amount.\n    * @param _stakeAmount The new amount needed to stake.\n    */\n    function updateStakeAmount(uint256 _stakeAmount) public onlyOwner {\n        stakeAmount = _stakeAmount;\n    }\n    /**\n    * @dev Updates the stake period.\n    * @param _stakePeriod The uint256 value of time needed to stake before being verified.\n    */\n    function updateStakePeriod(uint256 _stakePeriod) public onlyOwner {\n        stakePeriod = _stakePeriod;\n    }\n    /**\n    * @dev Updates the pay multiplier, used to calculate token reward.\n    * @param _payMultiplier The uint256 value of pay multiplier.\n    */\n    function updatePayMultipier(uint256 _payMultiplier) public onlyOwner {\n        payMultiplier = _payMultiplier;\n    }\n    /**\n    * @dev Adds new tallys of the totals numbers of clover symmetries.\n    * @param _tokenId The token which needs to be examined.\n    */\n    function addSymmetries(uint256 _tokenId) private {\n        uint256 Symmetricals;\n        uint256 RotSym;\n        uint256 Y0Sym;\n        uint256 X0Sym;\n        uint256 XYSym;\n        uint256 XnYSym;\n        (Symmetricals,\n        RotSym,\n        Y0Sym,\n        X0Sym,\n        XYSym,\n        XnYSym) = IClovers(clovers).getAllSymmetries();\n        bytes1 _symmetries = IClovers(clovers).getSymmetries(_tokenId);\n        Symmetricals = Symmetricals.add(_symmetries > 0 ? 1 : 0);\n        RotSym = RotSym.add(uint256(_symmetries >> 4 & 1));\n        Y0Sym = Y0Sym.add(uint256(_symmetries >> 3 & 1));\n        X0Sym = X0Sym.add(uint256(_symmetries >> 2 & 1));\n        XYSym = XYSym.add(uint256(_symmetries >> 1 & 1));\n        XnYSym = XnYSym.add(uint256(_symmetries & 1));\n        IClovers(clovers).setAllSymmetries(Symmetricals, RotSym, Y0Sym, X0Sym, XYSym, XnYSym);\n    }\n    /**\n    * @dev Remove false tallys of the totals numbers of clover symmetries.\n    * @param _tokenId The token which needs to be examined.\n    */\n    function removeSymmetries(uint256 _tokenId) private {\n        uint256 Symmetricals;\n        uint256 RotSym;\n        uint256 Y0Sym;\n        uint256 X0Sym;\n        uint256 XYSym;\n        uint256 XnYSym;\n        (Symmetricals,\n        RotSym,\n        Y0Sym,\n        X0Sym,\n        XYSym,\n        XnYSym) = IClovers(clovers).getAllSymmetries();\n        bytes1 _symmetries = IClovers(clovers).getSymmetries(_tokenId);\n        Symmetricals = Symmetricals.sub(_symmetries > 0 ? 1 : 0);\n        RotSym = RotSym.sub(uint256(_symmetries >> 4 & 1));\n        Y0Sym = Y0Sym.sub(uint256(_symmetries >> 3 & 1));\n        X0Sym = X0Sym.sub(uint256(_symmetries >> 2 & 1));\n        XYSym = XYSym.sub(uint256(_symmetries >> 1 & 1));\n        XnYSym = XnYSym.sub(uint256(_symmetries & 1));\n        IClovers(clovers).setAllSymmetries(Symmetricals, RotSym, Y0Sym, X0Sym, XYSym, XnYSym);\n    }\n\n}",
  "sourcePath": "/Users/billy/vue/clovers-dapp/contracts/CloversController.sol",
  "compiler": {
    "name": "solc",
    "version": "0.4.21+commit.dfe3193c.Emscripten.clang"
  },
  "schemaVersion": "2.0.0",
  "updatedAt": "2018-03-26T16:44:40.776Z"
}