{
  "contractName": "Reversi",
  "abi": [
    {
      "constant": true,
      "inputs": [],
      "name": "showColors",
      "outputs": [
        {
          "name": "",
          "type": "uint8"
        },
        {
          "name": "",
          "type": "uint8"
        },
        {
          "name": "",
          "type": "uint8"
        }
      ],
      "payable": false,
      "stateMutability": "view",
      "type": "function"
    }
  ],
  "bytecode": "0x60d961002f600b82828239805160001a6073146000811461001f57610021565bfe5b5030600052607381538281f30073000000000000000000000000000000000000000030146060604052600436106056576000357c0100000000000000000000000000000000000000000000000000000000900463ffffffff1680632f07d85714605b575b600080fd5b60616097565b604051808460ff1660ff1681526020018360ff1660ff1681526020018260ff1660ff168152602001935050505060405180910390f35b60008060006003600160029250925092509091925600a165627a7a7230582025a9d8ddf2ca95e988f2b5847d50220192ea30c2b6e419f5d1df85c2d0fb29090029",
  "source": "pragma solidity ^0.4.19;\n\nlibrary Reversi {\n\n    uint8 constant BLACK = 1; //0b01 //0x1\n    uint8 constant WHITE = 2; //0b10 //0x2\n    uint8 constant EMPTY = 3; //0b11 //0x3\n\n    struct Game {\n        bool error;\n        bool complete;\n        bool symmetrical;\n        bool RotSym;\n        bool Y0Sym;\n        bool X0Sym;\n        bool XYSym;\n        bool XnYSym;\n        bytes16 board;\n        bytes28 first32Moves;\n        bytes28 lastMoves;\n\n        uint8 currentPlayer;\n        uint8 moveKey;\n        uint8 blackScore;\n        uint8 whiteScore;\n        // string msg;\n    }\n\n\n    function showColors () public constant returns(uint8, uint8, uint8) {\n        return (EMPTY, BLACK, WHITE);\n    }\n\n    function playGame (bytes28[2] moves) internal constant returns (Game)  {\n        Game memory game;\n\n        game.first32Moves = moves[0];\n        game.lastMoves = moves[1];\n        game.moveKey = 0;\n        game.blackScore = 2;\n        game.whiteScore = 2;\n\n        game.error = false;\n        game.complete = false;\n        game.currentPlayer = BLACK;\n\n\n        // game.board = bytes16(10625432672847758622720); // completely empty board\n        game.board = bytes16(340282366920938456379662753540715053055); // empty board except for center pieces\n\n        bool skip;\n        uint8 move;\n        uint8 col;\n        uint8 row;\n        uint8 i;\n        bytes28 currentMoves;\n\n        for (i = 0; i < 60 && !skip; i++) {\n            currentMoves = game.moveKey < 32 ? game.first32Moves : game.lastMoves;\n            move = readMove(currentMoves, game.moveKey % 32, 32);\n            (col, row) = convertMove(move);\n            skip = !validMove(move);\n            if (!skip && col < 8 && row < 8 && col >= 0 && row >= 0) {\n                // game.msg = \"make a move\";\n                game = makeMove(game, col, row);\n                game.moveKey = game.moveKey + 1;\n                if (game.error) {\n                    game.error = false;\n                    // maybe player has no valid moves and must pass\n                    if (game.currentPlayer == BLACK) {\n                        game.currentPlayer = WHITE;\n                    } else {\n                        game.currentPlayer = BLACK;\n                    }\n                    game = makeMove(game, col, row);\n                    if (game.error) {\n                        skip = true;\n                        game.error = false;\n                    }\n                }\n            }\n        }\n        if (!game.error) {\n            game = isComplete(game);\n            game = isSymmetrical(game);\n        }\n        return game;\n    }\n    \n    function makeMove (Game game, uint8 col, uint8 row) internal constant returns (Game)  {\n        // square is already occupied\n        if (returnTile(game.board, col, row) != EMPTY){\n            game.error = true;\n            // game.msg = \"Invalid Game (square is already occupied)\";\n            return game;\n        }\n        int8[2][8] memory possibleDirections;\n        uint8  possibleDirectionsLength;\n        (possibleDirections, possibleDirectionsLength) = getPossibleDirections(game, col, row);\n        // no valid directions\n        if (possibleDirectionsLength == 0) {\n            game.error = true;\n            // game.msg = \"Invalid Game (doesnt border other tiles)\";\n            return game;\n        }\n\n        bytes28 newFlips;\n        uint8 newFlipsLength;\n        uint8 newFlipCol;\n        uint8 newFlipRow;\n        uint8 j;\n        bool valid = false;\n        for (uint8 i = 0; i < possibleDirectionsLength; i++) {\n            delete newFlips;\n            delete newFlipsLength;\n            (newFlips, newFlipsLength) = traverseDirection(game, possibleDirections[i], col, row);\n            for (j = 0; j < newFlipsLength; j++) {\n                if (!valid) valid = true;\n                (newFlipCol, newFlipRow) = convertMove(readMove(newFlips, j, newFlipsLength));\n                game.board = turnTile(game.board, game.currentPlayer, newFlipCol, newFlipRow);\n                if (game.currentPlayer == WHITE) {\n                    game.whiteScore += 1;\n                    game.blackScore -= 1;\n                } else {\n                    game.whiteScore -= 1;\n                    game.blackScore += 1;\n                }\n            }\n        }\n\n        //no valid flips in directions\n        if (valid) {\n            game.board = turnTile(game.board, game.currentPlayer, col, row);\n            if (game.currentPlayer == WHITE) {\n                game.whiteScore += 1;\n            } else {\n                game.blackScore += 1;\n            }\n        } else {\n            game.error = true;\n            // game.msg = \"Invalid Game (doesnt flip any other tiles)\";\n            return game;\n        }\n\n        // switch players\n        if (game.currentPlayer == BLACK) {\n            game.currentPlayer = WHITE;\n        } else {\n            game.currentPlayer = BLACK;\n        }\n        return game;\n    }\n\n    function getPossibleDirections (Game game, uint8 col, uint8 row) internal constant returns(int8[2][8], uint8){\n        int8[2][8] memory possibleDirections;\n        uint8 possibleDirectionsLength = 0;\n        int8[2][8] memory dirs = [\n            [int8(-1), int8(0)], // W\n            [int8(-1), int8(1)], // SW\n            [int8(0), int8(1)], // S\n            [int8(1), int8(1)], // SE\n            [int8(1), int8(0)], // E\n            [int8(1), int8(-1)], // NE\n            [int8(0), int8(-1)], // N\n            [int8(-1), int8(-1)] // NW\n        ];\n        int8 focusedRowPos;\n        int8 focusedColPos;\n        int8[2] memory dir;\n        uint8 testSquare;\n\n        for (uint8 i = 0; i < 8; i++) {\n            dir = dirs[i];\n            focusedColPos = int8(col) + dir[0];\n            focusedRowPos = int8(row) + dir[1];\n            // if tile is off the board it is not a valid move\n            if (!(focusedRowPos > 7 || focusedRowPos < 0 || focusedColPos > 7 || focusedColPos < 0)) {\n                testSquare = returnTile(game.board, uint8(focusedColPos), uint8(focusedRowPos));\n                // if the surrounding tile is current color or no color it can\"t be part of a capture\n                if (testSquare != game.currentPlayer) {\n                    if (testSquare != EMPTY) {\n                        possibleDirections[possibleDirectionsLength] = dir;\n                        possibleDirectionsLength++;\n                    }\n                }\n            }\n        }\n        return (possibleDirections, possibleDirectionsLength);\n    }\n\n    function traverseDirection (Game game, int8[2] dir, uint8 col, uint8 row) internal constant returns(bytes28, uint8) {\n        bytes28 potentialFlips;\n        uint8 potentialFlipsLength = 0;\n\n        uint8 currentPlayer = game.currentPlayer;\n\n        if (game.currentPlayer == BLACK) {\n            uint8 opponentColor = WHITE;\n        } else {\n            opponentColor = BLACK;\n        }\n\n        // take one step at a time in this direction\n        // ignoring the first step look for the same color as your tile\n        bool skip = false;\n        int8 testCol;\n        int8 testRow;\n        uint8 tile;\n        for (uint8 j = 1; j < 9; j++) {\n            if (!skip) {\n                testCol = (int8(j) * dir[0]) + int8(col);\n                testRow = (int8(j) * dir[1]) + int8(row);\n                // ran off the board before hitting your own tile\n                if (testCol > 7 || testCol < 0 || testRow > 7 || testRow < 0) {\n                    delete potentialFlips;\n                    potentialFlipsLength = 0;\n                    skip = true;\n                } else{\n\n                    tile = returnTile(game.board, uint8(testCol), uint8(testRow));\n\n                    if (tile == opponentColor) {\n                        // if tile is opposite color it could be flipped, so add to potential flip array\n                        (potentialFlips, potentialFlipsLength) = addMove(potentialFlips, potentialFlipsLength, uint8(testCol), uint8(testRow));\n                    } else if (tile == game.currentPlayer && j > 1) {\n                        // hit current players tile which means capture is complete\n                        skip = true;\n                    } else {\n                        // either hit current players own color before hitting an opponent\"s\n                        // or hit an empty space\n                        delete potentialFlips;\n                        delete potentialFlipsLength;\n                        skip = true;\n                    }\n                }\n            }\n        }\n        return (potentialFlips, potentialFlipsLength);\n    }\n\n    function isComplete (Game game) internal constant returns (Game) {\n        if (game.moveKey == 60 || game.blackScore == 0 || game.whiteScore == 0) {\n            // game.msg = \"good game\";\n            game.error = false;\n            game.complete = true;\n            return game;\n        } else {\n            uint8[2][60] memory empties;\n            uint8 emptiesLength = 0;\n            for (uint8 i = 0; i < 64; i++) {\n                uint8 tile = returnTile(game.board, ((i - (i % 8)) / 8), (i % 8));\n                if (tile == EMPTY) {\n                    empties[emptiesLength] = [((i - (i % 8)) / 8), (i % 8)];\n                    emptiesLength++;\n                }\n            }\n            bool validMovesRemains = false;\n            if (emptiesLength > 0) {\n                Game memory tmpGame;\n                uint8[2] memory move;\n                for (i = 0; i < emptiesLength && !validMovesRemains; i++) {\n                    move = empties[i];\n                    game.currentPlayer = BLACK;\n                    tmpGame = makeMove(game, move[0], move[1]);\n                    if (!tmpGame.error) {\n                        validMovesRemains = true;\n                    }\n                    game.currentPlayer = WHITE;\n                    tmpGame = makeMove(game, move[0], move[1]);\n                    if (!tmpGame.error) {\n                        validMovesRemains = true;\n                    }\n                }\n            } \n            if (validMovesRemains) {\n                game.error = true;\n                // game.msg = \"Invalid Game (moves still available)\";\n            } else {\n                // game.msg = \"good game\";\n                game.complete = true;\n                game.error = false;\n            }\n        }\n        return game;\n    }\n\n    function isSymmetrical (Game game) internal constant returns (Game) {\n        bool RotSym = true;\n        bool Y0Sym = true;\n        bool X0Sym = true;\n        bool XYSym = true;\n        bool XnYSym = true;\n        for (uint8 i = 0; i < 8 && (RotSym || Y0Sym || X0Sym || XYSym || XnYSym); i++) {\n            for (uint8 j = 0; j < 8 && (RotSym || Y0Sym || X0Sym || XYSym || XnYSym); j++) {\n\n                // rotational symmetry\n                if (returnBytes(game.board, i, j) != returnBytes(game.board, (7 - i), (7 - j))) {\n                    RotSym = false;\n                }\n                // symmetry on y = 0\n                if (returnBytes(game.board, i, j) != returnBytes(game.board, i, (7 - j))) {\n                    Y0Sym = false;\n                }\n                // symmetry on x = 0\n                if (returnBytes(game.board, i, j) != returnBytes(game.board, (7 - i), j)) {\n                    X0Sym = false;\n                }\n                // symmetry on x = y\n                if (returnBytes(game.board, i, j) != returnBytes(game.board, (7 - j), (7 - i))) {\n                    XYSym = false;\n                }\n                // symmetry on x = -y\n                if (returnBytes(game.board, i, j) != returnBytes(game.board, j, i)) {\n                    XnYSym = false;\n                }\n            }\n        }\n        if (RotSym || Y0Sym || X0Sym || XYSym || XnYSym) {\n            game.symmetrical = true;\n            game.RotSym = RotSym;\n            game.Y0Sym = Y0Sym;\n            game.X0Sym = X0Sym;\n            game.XYSym = XYSym;\n            game.XnYSym = XnYSym;\n        }\n        return game;\n    }\n\n\n\n    // Utilities\n\n    function addBytes (bytes16 board, uint8 key, bytes16 tile) internal constant returns (bytes16) {\n        board = board << key;\n        board = board | tile;\n        return board;\n    }\n\n    function returnBytes (bytes16 board, uint8 col, uint8 row) internal constant returns (bytes16) {\n        uint128 push = posToPush(col, row);\n        return (board & (bytes16(3) << push)) >> push;\n    }\n\n    function turnTile (bytes16 board, uint8 color, uint8 col, uint8 row) internal constant returns (bytes16){\n        if (col > 7) revert();\n        if (row > 7) revert();\n        uint128 push = posToPush(col, row);\n        bytes16 mask = bytes16(3 << push);// 0b00000011 (ones)\n\n        board = ((board ^ mask) & board);\n\n        return board | bytes16(color << push);\n    }\n\n    function returnTile (bytes16 board, uint8 col, uint8 row) internal constant returns (uint8){\n        uint128 push = posToPush(col, row);\n        bytes16 before = board & bytes16(3 << push); // (board)0b01010101 & 0b00011000 = (tile)0b00010000\n        bytes16 tile = before >> push; // 0b00000010 = 0b10\n        return uint8(tile); // returns 2\n    }\n\n    function posToPush (uint8 col, uint8 row) internal constant returns (uint128){\n        return uint128(((64) - ((8 * col) + row + 1)) * 2);\n    }\n\n    function readMove (bytes28 moveSequence, uint8 moveKey, uint8 movesLength) internal constant returns(uint8) {\n        bytes28 mask = bytes28(127);\n        uint8 push = (movesLength * 7) - (moveKey * 7) - 7;\n        return uint8((moveSequence >> push) & mask);\n    }\n\n    function addMove (bytes28 moveSequence, uint8 movesLength, uint8 col, uint8 row) internal constant returns (bytes28, uint8) {\n        bytes28 move = bytes28(col + (row * 8) + 64);\n        moveSequence = moveSequence << 7;\n        moveSequence = moveSequence | move;\n        movesLength++;\n        return (moveSequence, movesLength);\n    }\n\n    function validMove (uint8 move) internal constant returns(bool) {\n        return move >= 64;\n    }\n\n    function convertMove (uint8 move) internal constant returns(uint8, uint8) {\n        move = move - 64;\n        uint8 col = move % 8;\n        uint8 row = (move - col) / 8;\n        return (col, row);\n    }\n\n\n}",
  "sourcePath": "/Users/billy/vue/clovers-dapp/contracts/Reversi.sol",
  "compiler": {
    "name": "solc",
    "version": "0.4.21+commit.dfe3193c.Emscripten.clang"
  },
  "schemaVersion": "2.0.0",
  "updatedAt": "2018-03-26T16:44:40.797Z"
}