{
  "contractName": "CloversController",
  "abi": [
    {
      "constant": false,
      "inputs": [
        {
          "name": "token",
          "type": "address"
        }
      ],
      "name": "reclaimToken",
      "outputs": [],
      "payable": false,
      "stateMutability": "nonpayable",
      "type": "function"
    },
    {
      "constant": true,
      "inputs": [],
      "name": "owner",
      "outputs": [
        {
          "name": "",
          "type": "address"
        }
      ],
      "payable": false,
      "stateMutability": "view",
      "type": "function"
    },
    {
      "constant": false,
      "inputs": [],
      "name": "reclaimEther",
      "outputs": [],
      "payable": false,
      "stateMutability": "nonpayable",
      "type": "function"
    },
    {
      "constant": false,
      "inputs": [
        {
          "name": "from_",
          "type": "address"
        },
        {
          "name": "value_",
          "type": "uint256"
        },
        {
          "name": "data_",
          "type": "bytes"
        }
      ],
      "name": "tokenFallback",
      "outputs": [],
      "payable": false,
      "stateMutability": "nonpayable",
      "type": "function"
    },
    {
      "constant": false,
      "inputs": [
        {
          "name": "newOwner",
          "type": "address"
        }
      ],
      "name": "transferOwnership",
      "outputs": [],
      "payable": false,
      "stateMutability": "nonpayable",
      "type": "function"
    },
    {
      "inputs": [
        {
          "name": "_clovers",
          "type": "address"
        },
        {
          "name": "_clubToken",
          "type": "address"
        }
      ],
      "payable": false,
      "stateMutability": "nonpayable",
      "type": "constructor"
    },
    {
      "payable": false,
      "stateMutability": "nonpayable",
      "type": "fallback"
    },
    {
      "anonymous": false,
      "inputs": [
        {
          "indexed": true,
          "name": "previousOwner",
          "type": "address"
        },
        {
          "indexed": true,
          "name": "newOwner",
          "type": "address"
        }
      ],
      "name": "OwnershipTransferred",
      "type": "event"
    },
    {
      "anonymous": false,
      "inputs": [
        {
          "indexed": false,
          "name": "movesHash",
          "type": "bytes32"
        },
        {
          "indexed": false,
          "name": "miner",
          "type": "address"
        }
      ],
      "name": "cloverCommited",
      "type": "event"
    },
    {
      "anonymous": false,
      "inputs": [
        {
          "indexed": false,
          "name": "moves",
          "type": "bytes28[2]"
        },
        {
          "indexed": false,
          "name": "_tokenId",
          "type": "uint256"
        },
        {
          "indexed": false,
          "name": "miner",
          "type": "address"
        }
      ],
      "name": "cloverRevealed",
      "type": "event"
    },
    {
      "anonymous": false,
      "inputs": [
        {
          "indexed": false,
          "name": "moves",
          "type": "bytes28[2]"
        },
        {
          "indexed": false,
          "name": "_tokenId",
          "type": "uint256"
        },
        {
          "indexed": false,
          "name": "miner",
          "type": "address"
        }
      ],
      "name": "cloverClaimed",
      "type": "event"
    },
    {
      "anonymous": false,
      "inputs": [
        {
          "indexed": false,
          "name": "moves",
          "type": "bytes28[2]"
        },
        {
          "indexed": false,
          "name": "_tokenId",
          "type": "uint256"
        },
        {
          "indexed": false,
          "name": "miner",
          "type": "address"
        }
      ],
      "name": "stakeRetrieved",
      "type": "event"
    },
    {
      "anonymous": false,
      "inputs": [
        {
          "indexed": false,
          "name": "moves",
          "type": "bytes28[2]"
        },
        {
          "indexed": false,
          "name": "_tokenId",
          "type": "uint256"
        },
        {
          "indexed": false,
          "name": "miner",
          "type": "address"
        },
        {
          "indexed": false,
          "name": "challenger",
          "type": "address"
        }
      ],
      "name": "cloverChallenged",
      "type": "event"
    },
    {
      "constant": true,
      "inputs": [],
      "name": "currentStakeAmount",
      "outputs": [
        {
          "name": "",
          "type": "uint256"
        }
      ],
      "payable": false,
      "stateMutability": "view",
      "type": "function"
    },
    {
      "constant": true,
      "inputs": [],
      "name": "currentStakePeriod",
      "outputs": [
        {
          "name": "",
          "type": "uint256"
        }
      ],
      "payable": false,
      "stateMutability": "view",
      "type": "function"
    },
    {
      "constant": true,
      "inputs": [
        {
          "name": "moves",
          "type": "bytes28[2]"
        }
      ],
      "name": "isValid",
      "outputs": [
        {
          "name": "",
          "type": "bool"
        }
      ],
      "payable": false,
      "stateMutability": "view",
      "type": "function"
    },
    {
      "constant": true,
      "inputs": [
        {
          "components": [
            {
              "name": "error",
              "type": "bool"
            },
            {
              "name": "complete",
              "type": "bool"
            },
            {
              "name": "symmetrical",
              "type": "bool"
            },
            {
              "name": "RotSym",
              "type": "bool"
            },
            {
              "name": "Y0Sym",
              "type": "bool"
            },
            {
              "name": "X0Sym",
              "type": "bool"
            },
            {
              "name": "XYSym",
              "type": "bool"
            },
            {
              "name": "XnYSym",
              "type": "bool"
            },
            {
              "name": "board",
              "type": "bytes16"
            },
            {
              "name": "first32Moves",
              "type": "bytes28"
            },
            {
              "name": "lastMoves",
              "type": "bytes28"
            },
            {
              "name": "currentPlayer",
              "type": "uint8"
            },
            {
              "name": "moveKey",
              "type": "uint8"
            },
            {
              "name": "blackScore",
              "type": "uint8"
            },
            {
              "name": "whiteScore",
              "type": "uint8"
            }
          ],
          "name": "game",
          "type": "tuple"
        }
      ],
      "name": "isValidGame",
      "outputs": [
        {
          "name": "",
          "type": "bool"
        }
      ],
      "payable": false,
      "stateMutability": "view",
      "type": "function"
    },
    {
      "constant": true,
      "inputs": [
        {
          "name": "_tokenId",
          "type": "uint256"
        }
      ],
      "name": "isVerified",
      "outputs": [
        {
          "name": "",
          "type": "bool"
        }
      ],
      "payable": false,
      "stateMutability": "view",
      "type": "function"
    },
    {
      "constant": true,
      "inputs": [
        {
          "name": "_symmetries",
          "type": "bytes1"
        }
      ],
      "name": "calculateReward",
      "outputs": [
        {
          "name": "",
          "type": "uint256"
        }
      ],
      "payable": false,
      "stateMutability": "view",
      "type": "function"
    },
    {
      "constant": false,
      "inputs": [
        {
          "name": "moves",
          "type": "bytes28[2]"
        },
        {
          "name": "_tokenId",
          "type": "uint256"
        },
        {
          "name": "_symmetries",
          "type": "bytes1"
        },
        {
          "name": "_to",
          "type": "address"
        }
      ],
      "name": "claimClover",
      "outputs": [
        {
          "name": "",
          "type": "bool"
        }
      ],
      "payable": true,
      "stateMutability": "payable",
      "type": "function"
    },
    {
      "constant": false,
      "inputs": [
        {
          "name": "movesHash",
          "type": "bytes32"
        },
        {
          "name": "_to",
          "type": "address"
        }
      ],
      "name": "claimCloverCommit",
      "outputs": [
        {
          "name": "",
          "type": "bool"
        }
      ],
      "payable": true,
      "stateMutability": "payable",
      "type": "function"
    },
    {
      "constant": false,
      "inputs": [
        {
          "name": "moves",
          "type": "bytes28[2]"
        },
        {
          "name": "_tokenId",
          "type": "uint256"
        },
        {
          "name": "_symmetries",
          "type": "bytes1"
        }
      ],
      "name": "claimCloverReveal",
      "outputs": [
        {
          "name": "",
          "type": "bool"
        }
      ],
      "payable": false,
      "stateMutability": "nonpayable",
      "type": "function"
    },
    {
      "constant": false,
      "inputs": [
        {
          "name": "_tokenId",
          "type": "uint256"
        }
      ],
      "name": "retrieveStake",
      "outputs": [
        {
          "name": "",
          "type": "bool"
        }
      ],
      "payable": false,
      "stateMutability": "nonpayable",
      "type": "function"
    },
    {
      "constant": false,
      "inputs": [
        {
          "name": "_tokenId",
          "type": "uint256"
        },
        {
          "name": "_to",
          "type": "address"
        }
      ],
      "name": "challengeClover",
      "outputs": [
        {
          "name": "",
          "type": "bool"
        }
      ],
      "payable": false,
      "stateMutability": "nonpayable",
      "type": "function"
    },
    {
      "constant": false,
      "inputs": [
        {
          "name": "_stakeAmount",
          "type": "uint256"
        }
      ],
      "name": "updateStakeAmount",
      "outputs": [],
      "payable": false,
      "stateMutability": "nonpayable",
      "type": "function"
    },
    {
      "constant": false,
      "inputs": [
        {
          "name": "_stakePeriod",
          "type": "uint256"
        }
      ],
      "name": "updateStakePeriod",
      "outputs": [],
      "payable": false,
      "stateMutability": "nonpayable",
      "type": "function"
    },
    {
      "constant": false,
      "inputs": [
        {
          "name": "_payMultiplier",
          "type": "uint256"
        }
      ],
      "name": "updatePayMultipier",
      "outputs": [],
      "payable": false,
      "stateMutability": "nonpayable",
      "type": "function"
    }
  ],
  "bytecode": "0x606060405234156200001057600080fd5b60405160408062005b848339810160405262000036906780000000000000009062000126565b336000806101000a81548173ffffffffffffffffffffffffffffffffffffffff021916908373ffffffffffffffffffffffffffffffffffffffff1602179055506000341415156200008657600080fd5b81600160006101000a81548173ffffffffffffffffffffffffffffffffffffffff021916908373ffffffffffffffffffffffffffffffffffffffff16021790555080600260006101000a81548173ffffffffffffffffffffffffffffffffffffffff021916908373ffffffffffffffffffffffffffffffffffffffff160217905550505062000191565b60006200011e825162000171565b905092915050565b600080604083850312600181146200013e5762000143565b600080fd5b506000620001548582860162000110565b9250506020620001678582860162000110565b9150509250929050565b600073ffffffffffffffffffffffffffffffffffffffff82169050919050565b6159e380620001a16000396000f300606060405260043610610107576000357c0100000000000000000000000000000000000000000000000000000000900463ffffffff16806308b6a33d1461011457806317ffc3201461013f578063271eff941461016157806332cda7791461019757806335f71899146101c057806337b6d96b146101eb5780635759f3f7146102215780636cb6b41f146102435780638a05aafa1461026c5780638da5cb5b1461028e5780639f727c27146102b7578063acd37b7b146102cc578063afc6285314610302578063c0ee0b8a14610338578063c1fe551a1461035a578063c90054ee14610390578063e00a768d146103b2578063f2fde38b146103e8578063f8a68a561461040a575b341561011257600080fd5b005b61012960046101249036906152b4565b610440565b6040516101369190615589565b60405180910390f35b341561014a57600080fd5b61015f600461015a903690615397565b610acf565b005b341561016c57600080fd5b610181600461017c90369061522a565b610c10565b60405161018e9190615589565b60405180910390f35b34156101a257600080fd5b6101aa610c36565b6040516101b7919061567e565b60405180910390f35b6101d560046101d0903690615352565b610c40565b6040516101e29190615589565b60405180910390f35b34156101f657600080fd5b61020b60046102069036906153fc565b610f0b565b6040516102189190615589565b60405180910390f35b341561022c57600080fd5b610241600461023c9036906153fc565b610ff1565b005b341561024e57600080fd5b610256611056565b604051610263919061567e565b60405180910390f35b341561027757600080fd5b61028c60046102879036906153fc565b611060565b005b341561029957600080fd5b6102a16110c5565b6040516102ae9190615545565b60405180910390f35b34156102c257600080fd5b6102ca6110ea565b005b34156102d757600080fd5b6102ec60046102e790369061542e565b6111bc565b6040516102f99190615589565b60405180910390f35b341561030d57600080fd5b610322600461031d90369061525c565b611b5d565b60405161032f9190615589565b60405180910390f35b341561034357600080fd5b61035860046103539036906151ac565b6120f2565b005b341561036557600080fd5b61037a60046103759036906153fc565b6120f7565b6040516103879190615589565b60405180910390f35b341561039b57600080fd5b6103b060046103ab9036906153fc565b6126b6565b005b34156103bd57600080fd5b6103d260046103cd903690615320565b61271b565b6040516103df919061567e565b60405180910390f35b34156103f357600080fd5b610408600461040390369061517a565b612c45565b005b341561041557600080fd5b61042a60046104259036906153c9565b612d9a565b6040516104379190615589565b60405180910390f35b6000806000806401000000000287600060028110151561045c57fe5b602002015163ffffffff19161415151561047557600080fd5b866040518082600260200280838360005b838110156104a1578082015181840152602081019050610486565b5050505090500191505060405180910390209150600160009054906101000a900473ffffffffffffffffffffffffffffffffffffffff1673ffffffffffffffffffffffffffffffffffffffff16631dbd9d9183866040518363ffffffff167c010000000000000000000000000000000000000000000000000000000002815260040161052e9291906155bf565b600060405180830381600087803b151561054757600080fd5b6102c65a03f1151561055857600080fd5b505050600160009054906101000a900473ffffffffffffffffffffffffffffffffffffffff1673ffffffffffffffffffffffffffffffffffffffff16633541fd53836004546040518363ffffffff167c01000000000000000000000000000000000000000000000000000000000281526004016105d692919061563a565b600060405180830381600087803b15156105ef57600080fd5b6102c65a03f1151561060057600080fd5b505050600160009054906101000a900473ffffffffffffffffffffffffffffffffffffffff1673ffffffffffffffffffffffffffffffffffffffff166108fc6004549081150290604051600060405180830381858888f19350505050151561066757600080fd5b6000600160009054906101000a900473ffffffffffffffffffffffffffffffffffffffff1673ffffffffffffffffffffffffffffffffffffffff166303a53d6b886000604051602001526040518263ffffffff167c01000000000000000000000000000000000000000000000000000000000281526004016106e9919061567e565b602060405180830381600087803b151561070257600080fd5b6102c65a03f1151561071357600080fd5b505050604051805190501415151561072a57600080fd5b600160009054906101000a900473ffffffffffffffffffffffffffffffffffffffff1673ffffffffffffffffffffffffffffffffffffffff1663e3100d1e87426040518363ffffffff167c01000000000000000000000000000000000000000000000000000000000281526004016107a39291906156eb565b600060405180830381600087803b15156107bc57600080fd5b6102c65a03f115156107cd57600080fd5b505050600160009054906101000a900473ffffffffffffffffffffffffffffffffffffffff1673ffffffffffffffffffffffffffffffffffffffff16630b62839587896040518363ffffffff167c0100000000000000000000000000000000000000000000000000000000028152600401610849929190615699565b600060405180830381600087803b151561086257600080fd5b6102c65a03f1151561087357600080fd5b50505060007f010000000000000000000000000000000000000000000000000000000000000002857effffffffffffffffffffffffffffffffffffffffffffffffffffffffffffff19161115610a1b57600160009054906101000a900473ffffffffffffffffffffffffffffffffffffffff1673ffffffffffffffffffffffffffffffffffffffff16631dba566087876040518363ffffffff167c010000000000000000000000000000000000000000000000000000000002815260040161093c9291906156c2565b600060405180830381600087803b151561095557600080fd5b6102c65a03f1151561096657600080fd5b5050506109728561271b565b9050600160009054906101000a900473ffffffffffffffffffffffffffffffffffffffff1673ffffffffffffffffffffffffffffffffffffffff1663a47bd49687836040518363ffffffff167c01000000000000000000000000000000000000000000000000000000000281526004016109ed9291906156eb565b600060405180830381600087803b1515610a0657600080fd5b6102c65a03f11515610a1757600080fd5b5050505b600160009054906101000a900473ffffffffffffffffffffffffffffffffffffffff1673ffffffffffffffffffffffffffffffffffffffff166340c10f1985886040518363ffffffff167c0100000000000000000000000000000000000000000000000000000000028152600401610a94929190615560565b600060405180830381600087803b1515610aad57600080fd5b6102c65a03f11515610abe57600080fd5b505050600192505050949350505050565b60008060009054906101000a900473ffffffffffffffffffffffffffffffffffffffff1673ffffffffffffffffffffffffffffffffffffffff163373ffffffffffffffffffffffffffffffffffffffff16141515610b2c57600080fd5b8173ffffffffffffffffffffffffffffffffffffffff166370a08231306000604051602001526040518263ffffffff167c0100000000000000000000000000000000000000000000000000000000028152600401610b8a9190615663565b602060405180830381600087803b1515610ba357600080fd5b6102c65a03f11515610bb457600080fd5b505050604051805190509050610c0c6000809054906101000a900473ffffffffffffffffffffffffffffffffffffffff16828473ffffffffffffffffffffffffffffffffffffffff16612dcd9092919063ffffffff16565b5050565b6000610c1a614c8a565b610c2383612e6e565b9050610c2e81612d9a565b915050919050565b6000600554905090565b6000808273ffffffffffffffffffffffffffffffffffffffff1614151515610c6757600080fd5b60045434141515610c7757600080fd5b6000600160009054906101000a900473ffffffffffffffffffffffffffffffffffffffff1673ffffffffffffffffffffffffffffffffffffffff16638784ea96856000604051602001526040518263ffffffff167c0100000000000000000000000000000000000000000000000000000000028152600401610cf991906155a4565b602060405180830381600087803b1515610d1257600080fd5b6102c65a03f11515610d2357600080fd5b5050506040518051905073ffffffffffffffffffffffffffffffffffffffff16141515610d4f57600080fd5b600160009054906101000a900473ffffffffffffffffffffffffffffffffffffffff1673ffffffffffffffffffffffffffffffffffffffff16631dbd9d9184846040518363ffffffff167c0100000000000000000000000000000000000000000000000000000000028152600401610dc89291906155bf565b600060405180830381600087803b1515610de157600080fd5b6102c65a03f11515610df257600080fd5b505050600160009054906101000a900473ffffffffffffffffffffffffffffffffffffffff1673ffffffffffffffffffffffffffffffffffffffff16633541fd53846004546040518363ffffffff167c0100000000000000000000000000000000000000000000000000000000028152600401610e7092919061563a565b600060405180830381600087803b1515610e8957600080fd5b6102c65a03f11515610e9a57600080fd5b505050600160009054906101000a900473ffffffffffffffffffffffffffffffffffffffff1673ffffffffffffffffffffffffffffffffffffffff166108fc6004549081150290604051600060405180830381858888f193505050501515610f0157600080fd5b6001905092915050565b600080600160009054906101000a900473ffffffffffffffffffffffffffffffffffffffff1673ffffffffffffffffffffffffffffffffffffffff166303a53d6b846000604051602001526040518263ffffffff167c0100000000000000000000000000000000000000000000000000000000028152600401610f8e919061567e565b602060405180830381600087803b1515610fa757600080fd5b6102c65a03f11515610fb857600080fd5b50505060405180519050905060008114151515610fd457600080fd5b8042111515610fe257600080fd5b60055481420311915050919050565b6000809054906101000a900473ffffffffffffffffffffffffffffffffffffffff1673ffffffffffffffffffffffffffffffffffffffff163373ffffffffffffffffffffffffffffffffffffffff1614151561104c57600080fd5b8060058190555050565b6000600454905090565b6000809054906101000a900473ffffffffffffffffffffffffffffffffffffffff1673ffffffffffffffffffffffffffffffffffffffff163373ffffffffffffffffffffffffffffffffffffffff161415156110bb57600080fd5b8060038190555050565b6000809054906101000a900473ffffffffffffffffffffffffffffffffffffffff1681565b6000809054906101000a900473ffffffffffffffffffffffffffffffffffffffff1673ffffffffffffffffffffffffffffffffffffffff163373ffffffffffffffffffffffffffffffffffffffff1614151561114557600080fd5b6000809054906101000a900473ffffffffffffffffffffffffffffffffffffffff1673ffffffffffffffffffffffffffffffffffffffff166108fc3073ffffffffffffffffffffffffffffffffffffffff16319081150290604051600060405180830381858888f1935050505015156111ba57fe5b565b6000806111c7614d3e565b6111cf614c8a565b600080600060019550600160009054906101000a900473ffffffffffffffffffffffffffffffffffffffff1673ffffffffffffffffffffffffffffffffffffffff166362f9acf98a6000604051604001526040518263ffffffff167c0100000000000000000000000000000000000000000000000000000000028152600401611258919061567e565b6040805180830381600087803b151561127057600080fd5b6102c65a03f1151561128157600080fd5b5050506040518060400160405294506000640100000000028560006002811015156112a857fe5b602002015163ffffffff1916141515156112c157600080fd5b6112ca85612e6e565b93506112d584612d9a565b156116db57600160009054906101000a900473ffffffffffffffffffffffffffffffffffffffff1673ffffffffffffffffffffffffffffffffffffffff1663c53b4bf98a6000604051602001526040518263ffffffff167c010000000000000000000000000000000000000000000000000000000002815260040161135a919061567e565b602060405180830381600087803b151561137357600080fd5b6102c65a03f1151561138457600080fd5b5050506040518051905092508360600151151560007f01000000000000000000000000000000000000000000000000000000000000000260017f0100000000000000000000000000000000000000000000000000000000000000026004867effffffffffffffffffffffffffffffffffffffffffffffffffffffffffffff19169060020a9004167effffffffffffffffffffffffffffffffffffffffffffffffffffffffffffff19161115151461143c57600061143e565b855b95508360800151151560007f01000000000000000000000000000000000000000000000000000000000000000260017f0100000000000000000000000000000000000000000000000000000000000000026003867effffffffffffffffffffffffffffffffffffffffffffffffffffffffffffff19169060020a9004167effffffffffffffffffffffffffffffffffffffffffffffffffffffffffffff1916111515146114ec5760006114ee565b855b95508360a00151151560007f01000000000000000000000000000000000000000000000000000000000000000260017f0100000000000000000000000000000000000000000000000000000000000000026002867effffffffffffffffffffffffffffffffffffffffffffffffffffffffffffff19169060020a9004167effffffffffffffffffffffffffffffffffffffffffffffffffffffffffffff19161115151461159c57600061159e565b855b95508360c00151151560007f01000000000000000000000000000000000000000000000000000000000000000260017f0100000000000000000000000000000000000000000000000000000000000000026001867effffffffffffffffffffffffffffffffffffffffffffffffffffffffffffff19169060020a9004167effffffffffffffffffffffffffffffffffffffffffffffffffffffffffffff19161115151461164c57600061164e565b855b95508360e00151151560007f01000000000000000000000000000000000000000000000000000000000000000260017f01000000000000000000000000000000000000000000000000000000000000000285167effffffffffffffffffffffffffffffffffffffffffffffffffffffffffffff1916111515146116d25760006116d4565b855b95506116e0565b600095505b851515611b4857600160009054906101000a900473ffffffffffffffffffffffffffffffffffffffff1673ffffffffffffffffffffffffffffffffffffffff16630e8310d68a6040518263ffffffff167c010000000000000000000000000000000000000000000000000000000002815260040161175e919061567e565b600060405180830381600087803b151561177757600080fd5b6102c65a03f1151561178857600080fd5b505050846040518082600260200280838360005b838110156117b757808201518184015260208101905061179c565b50505050905001915050604051809103902091506117d489610f0b565b151561194857600160009054906101000a900473ffffffffffffffffffffffffffffffffffffffff1673ffffffffffffffffffffffffffffffffffffffff1663e765c122836000604051602001526040518263ffffffff167c010000000000000000000000000000000000000000000000000000000002815260040161185a91906155a4565b602060405180830381600087803b151561187357600080fd5b6102c65a03f1151561188457600080fd5b505050604051805190509050600160009054906101000a900473ffffffffffffffffffffffffffffffffffffffff1673ffffffffffffffffffffffffffffffffffffffff16631cc1472d89836000604051602001526040518363ffffffff167c0100000000000000000000000000000000000000000000000000000000028152600401611912929190615560565b602060405180830381600087803b151561192b57600080fd5b6102c65a03f1151561193c57600080fd5b50505060405180519050505b600160009054906101000a900473ffffffffffffffffffffffffffffffffffffffff1673ffffffffffffffffffffffffffffffffffffffff166342966c688a6040518263ffffffff167c01000000000000000000000000000000000000000000000000000000000281526004016119bf919061567e565b600060405180830381600087803b15156119d857600080fd5b6102c65a03f115156119e957600080fd5b505050600160009054906101000a900473ffffffffffffffffffffffffffffffffffffffff1673ffffffffffffffffffffffffffffffffffffffff16631dbd9d918360006040518363ffffffff167c0100000000000000000000000000000000000000000000000000000000028152600401611a669291906155e8565b600060405180830381600087803b1515611a7f57600080fd5b6102c65a03f11515611a9057600080fd5b505050600160009054906101000a900473ffffffffffffffffffffffffffffffffffffffff1673ffffffffffffffffffffffffffffffffffffffff16633541fd538360006040518363ffffffff167c0100000000000000000000000000000000000000000000000000000000028152600401611b0d929190615611565b600060405180830381600087803b1515611b2657600080fd5b6102c65a03f11515611b3757600080fd5b505050611b4389613160565b611b4d565b600080fd5b6001965050505050505092915050565b600080600080600064010000000002876000600281101515611b7b57fe5b602002015163ffffffff191614151515611b9457600080fd5b866040518082600260200280838360005b83811015611bc0578082015181840152602081019050611ba5565b5050505090500191505060405180910390209250600160009054906101000a900473ffffffffffffffffffffffffffffffffffffffff1673ffffffffffffffffffffffffffffffffffffffff16638784ea96846000604051602001526040518263ffffffff167c0100000000000000000000000000000000000000000000000000000000028152600401611c5491906155a4565b602060405180830381600087803b1515611c6d57600080fd5b6102c65a03f11515611c7e57600080fd5b5050506040518051905091506000600160009054906101000a900473ffffffffffffffffffffffffffffffffffffffff1673ffffffffffffffffffffffffffffffffffffffff166303a53d6b886000604051602001526040518263ffffffff167c0100000000000000000000000000000000000000000000000000000000028152600401611d0c919061567e565b602060405180830381600087803b1515611d2557600080fd5b6102c65a03f11515611d3657600080fd5b5050506040518051905014151515611d4d57600080fd5b600160009054906101000a900473ffffffffffffffffffffffffffffffffffffffff1673ffffffffffffffffffffffffffffffffffffffff1663e3100d1e87426040518363ffffffff167c0100000000000000000000000000000000000000000000000000000000028152600401611dc69291906156eb565b600060405180830381600087803b1515611ddf57600080fd5b6102c65a03f11515611df057600080fd5b505050600160009054906101000a900473ffffffffffffffffffffffffffffffffffffffff1673ffffffffffffffffffffffffffffffffffffffff16630b62839587896040518363ffffffff167c0100000000000000000000000000000000000000000000000000000000028152600401611e6c929190615699565b600060405180830381600087803b1515611e8557600080fd5b6102c65a03f11515611e9657600080fd5b50505060007f010000000000000000000000000000000000000000000000000000000000000002857effffffffffffffffffffffffffffffffffffffffffffffffffffffffffffff1916111561203e57600160009054906101000a900473ffffffffffffffffffffffffffffffffffffffff1673ffffffffffffffffffffffffffffffffffffffff16631dba566087876040518363ffffffff167c0100000000000000000000000000000000000000000000000000000000028152600401611f5f9291906156c2565b600060405180830381600087803b1515611f7857600080fd5b6102c65a03f11515611f8957600080fd5b505050611f958561271b565b9050600160009054906101000a900473ffffffffffffffffffffffffffffffffffffffff1673ffffffffffffffffffffffffffffffffffffffff1663a47bd49687836040518363ffffffff167c01000000000000000000000000000000000000000000000000000000000281526004016120109291906156eb565b600060405180830381600087803b151561202957600080fd5b6102c65a03f1151561203a57600080fd5b5050505b600160009054906101000a900473ffffffffffffffffffffffffffffffffffffffff1673ffffffffffffffffffffffffffffffffffffffff166340c10f1983886040518363ffffffff167c01000000000000000000000000000000000000000000000000000000000281526004016120b7929190615560565b600060405180830381600087803b15156120d057600080fd5b6102c65a03f115156120e157600080fd5b505050600193505050509392505050565b600080fd5b6000612101614d3e565b600080600080600160009054906101000a900473ffffffffffffffffffffffffffffffffffffffff1673ffffffffffffffffffffffffffffffffffffffff166362f9acf9886000604051604001526040518263ffffffff167c0100000000000000000000000000000000000000000000000000000000028152600401612187919061567e565b6040805180830381600087803b151561219f57600080fd5b6102c65a03f115156121b057600080fd5b5050506040518060400160405294506000640100000000028560006002811015156121d757fe5b602002015163ffffffff1916141515156121f057600080fd5b846040518082600260200280838360005b8381101561221c578082015181840152602081019050612201565b5050505090500191505060405180910390209350600160009054906101000a900473ffffffffffffffffffffffffffffffffffffffff1673ffffffffffffffffffffffffffffffffffffffff1663e765c122856000604051602001526040518263ffffffff167c01000000000000000000000000000000000000000000000000000000000281526004016122b091906155a4565b602060405180830381600087803b15156122c957600080fd5b6102c65a03f115156122da57600080fd5b505050604051805190509250600083141515156122f657600080fd5b6122ff87610f0b565b151561230a57600080fd5b600160009054906101000a900473ffffffffffffffffffffffffffffffffffffffff1673ffffffffffffffffffffffffffffffffffffffff16633541fd538560006040518363ffffffff167c0100000000000000000000000000000000000000000000000000000000028152600401612384929190615611565b600060405180830381600087803b151561239d57600080fd5b6102c65a03f115156123ae57600080fd5b5050506123ba8761369e565b600160009054906101000a900473ffffffffffffffffffffffffffffffffffffffff1673ffffffffffffffffffffffffffffffffffffffff16638784ea96856000604051602001526040518263ffffffff167c010000000000000000000000000000000000000000000000000000000002815260040161243a91906155a4565b602060405180830381600087803b151561245357600080fd5b6102c65a03f1151561246457600080fd5b505050604051805190509150600160009054906101000a900473ffffffffffffffffffffffffffffffffffffffff1673ffffffffffffffffffffffffffffffffffffffff16631c4b774b886000604051602001526040518263ffffffff167c01000000000000000000000000000000000000000000000000000000000281526004016124f0919061567e565b602060405180830381600087803b151561250957600080fd5b6102c65a03f1151561251a57600080fd5b505050604051805190509050600260009054906101000a900473ffffffffffffffffffffffffffffffffffffffff1673ffffffffffffffffffffffffffffffffffffffff166340c10f1983836000604051602001526040518363ffffffff167c01000000000000000000000000000000000000000000000000000000000281526004016125a8929190615560565b602060405180830381600087803b15156125c157600080fd5b6102c65a03f115156125d257600080fd5b5050506040518051905015156125e757600080fd5b600160009054906101000a900473ffffffffffffffffffffffffffffffffffffffff1673ffffffffffffffffffffffffffffffffffffffff16631cc1472d83856000604051602001526040518363ffffffff167c0100000000000000000000000000000000000000000000000000000000028152600401612669929190615560565b602060405180830381600087803b151561268257600080fd5b6102c65a03f1151561269357600080fd5b5050506040518051905015156126a857600080fd5b600195505050505050919050565b6000809054906101000a900473ffffffffffffffffffffffffffffffffffffffff1673ffffffffffffffffffffffffffffffffffffffff163373ffffffffffffffffffffffffffffffffffffffff1614151561271157600080fd5b8060048190555050565b600080600080600080600080600160009054906101000a900473ffffffffffffffffffffffffffffffffffffffff1673ffffffffffffffffffffffffffffffffffffffff1663785d8d71600060405160c001526040518163ffffffff167c010000000000000000000000000000000000000000000000000000000002815260040160c060405180830381600087803b15156127b557600080fd5b6102c65a03f115156127c657600080fd5b50505060405180519060200180519060200180519060200180519060200180519060200180519050809750819850829950839a50849b50859c505050505050506000905060017f01000000000000000000000000000000000000000000000000000000000000000260017f01000000000000000000000000000000000000000000000000000000000000000260048b7effffffffffffffffffffffffffffffffffffffffffffffffffffffffffffff19169060020a9004167effffffffffffffffffffffffffffffffffffffffffffffffffffffffffffff191614156128e8576128e56128d6600188016128c860018b01600354613bdc90919063ffffffff16565b613c1790919063ffffffff16565b82613c3290919063ffffffff16565b90505b60017f01000000000000000000000000000000000000000000000000000000000000000260017f01000000000000000000000000000000000000000000000000000000000000000260038b7effffffffffffffffffffffffffffffffffffffffffffffffffffffffffffff19169060020a9004167effffffffffffffffffffffffffffffffffffffffffffffffffffffffffffff191614156129c6576129c36129b4600187016129a660018b01600354613bdc90919063ffffffff16565b613c1790919063ffffffff16565b82613c3290919063ffffffff16565b90505b60017f01000000000000000000000000000000000000000000000000000000000000000260017f01000000000000000000000000000000000000000000000000000000000000000260028b7effffffffffffffffffffffffffffffffffffffffffffffffffffffffffffff19169060020a9004167effffffffffffffffffffffffffffffffffffffffffffffffffffffffffffff19161415612aa457612aa1612a9260018601612a8460018b01600354613bdc90919063ffffffff16565b613c1790919063ffffffff16565b82613c3290919063ffffffff16565b90505b60017f01000000000000000000000000000000000000000000000000000000000000000260017f01000000000000000000000000000000000000000000000000000000000000000260018b7effffffffffffffffffffffffffffffffffffffffffffffffffffffffffffff19169060020a9004167effffffffffffffffffffffffffffffffffffffffffffffffffffffffffffff19161415612b8257612b7f612b7060018501612b6260018b01600354613bdc90919063ffffffff16565b613c1790919063ffffffff16565b82613c3290919063ffffffff16565b90505b60017f01000000000000000000000000000000000000000000000000000000000000000260017f0100000000000000000000000000000000000000000000000000000000000000028a167effffffffffffffffffffffffffffffffffffffffffffffffffffffffffffff19161415612c3657612c33612c2460018401612c1660018b01600354613bdc90919063ffffffff16565b613c1790919063ffffffff16565b82613c3290919063ffffffff16565b90505b80975050505050505050919050565b6000809054906101000a900473ffffffffffffffffffffffffffffffffffffffff1673ffffffffffffffffffffffffffffffffffffffff163373ffffffffffffffffffffffffffffffffffffffff16141515612ca057600080fd5b600073ffffffffffffffffffffffffffffffffffffffff168173ffffffffffffffffffffffffffffffffffffffff1614151515612cdc57600080fd5b8073ffffffffffffffffffffffffffffffffffffffff166000809054906101000a900473ffffffffffffffffffffffffffffffffffffffff1673ffffffffffffffffffffffffffffffffffffffff167f8be0079c531659141344cd1fd0a4f28419497f9722a3daafe3b4186f6b6457e060405160405180910390a3806000806101000a81548173ffffffffffffffffffffffffffffffffffffffff021916908373ffffffffffffffffffffffffffffffffffffffff16021790555050565b6000816000015115612daf5760009050612dc8565b81602001511515612dc35760009050612dc8565b600190505b919050565b8273ffffffffffffffffffffffffffffffffffffffff1663a9059cbb83836000604051602001526040518363ffffffff167c0100000000000000000000000000000000000000000000000000000000028152600401612e2d929190615560565b602060405180830381600087803b1515612e4657600080fd5b6102c65a03f11515612e5757600080fd5b505050604051805190501515612e6957fe5b505050565b612e76614c8a565b612e7e614c8a565b600080600080600080886000600281101515612e9657fe5b602002015187610120019063ffffffff1916908163ffffffff191681525050886001600281101515612ec457fe5b602002015187610140019063ffffffff1916908163ffffffff191681525050600087610180019060ff16908160ff16815250506002876101a0019060ff16908160ff16815250506002876101c0019060ff16908160ff168152505060008760000190151590811515815250506000876020019015159081151581525050600187610160019060ff16908160ff16815250506ffffffffffffffe7ffdbfffffffffffff700100000000000000000000000000000000028761010001906fffffffffffffffffffffffffffffffff191690816fffffffffffffffffffffffffffffffff191681525050600091505b603c8260ff16108015612fc1575085155b1561312f57602087610180015160ff1610612fe157866101400151612fe8565b8661012001515b905061300a81602089610180015160ff1681151561300257fe5b066020613c50565b945061301585613c94565b809450819550505061302685613cd3565b1595508515801561303a575060088460ff16105b8015613049575060088360ff16105b8015613059575060008460ff1610155b8015613069575060008360ff1610155b1561312257613079878585613ce4565b965060018761018001510187610180019060ff16908160ff1681525050866000015115613121576000876000019015159081151581525050600160ff1687610160015160ff1614156130de57600287610160019060ff16908160ff16815250506130f3565b600187610160019060ff16908160ff16815250505b6130fe878585613ce4565b9650866000015115613120576001955060008760000190151590811515815250505b5b5b8180600101925050612fb0565b866000015115156131515761314387613fe6565b965061314e8761429f565b96505b86975050505050505050919050565b6000806000806000806000600160009054906101000a900473ffffffffffffffffffffffffffffffffffffffff1673ffffffffffffffffffffffffffffffffffffffff1663785d8d71600060405160c001526040518163ffffffff167c010000000000000000000000000000000000000000000000000000000002815260040160c060405180830381600087803b15156131f957600080fd5b6102c65a03f1151561320a57600080fd5b50505060405180519060200180519060200180519060200180519060200180519060200180519050809750819850829950839a50849b50859c50505050505050600160009054906101000a900473ffffffffffffffffffffffffffffffffffffffff1673ffffffffffffffffffffffffffffffffffffffff1663c53b4bf9896000604051602001526040518263ffffffff167c01000000000000000000000000000000000000000000000000000000000281526004016132ca919061567e565b602060405180830381600087803b15156132e357600080fd5b6102c65a03f115156132f457600080fd5b50505060405180519050905061336b60007f010000000000000000000000000000000000000000000000000000000000000002827effffffffffffffffffffffffffffffffffffffffffffffffffffffffffffff191611613356576000613359565b60015b60ff168861459790919063ffffffff16565b96506133f260017f0100000000000000000000000000000000000000000000000000000000000000026004837effffffffffffffffffffffffffffffffffffffffffffffffffffffffffffff19169060020a9004167f010000000000000000000000000000000000000000000000000000000000000090048761459790919063ffffffff16565b955061347960017f0100000000000000000000000000000000000000000000000000000000000000026003837effffffffffffffffffffffffffffffffffffffffffffffffffffffffffffff19169060020a9004167f010000000000000000000000000000000000000000000000000000000000000090048661459790919063ffffffff16565b945061350060017f0100000000000000000000000000000000000000000000000000000000000000026002837effffffffffffffffffffffffffffffffffffffffffffffffffffffffffffff19169060020a9004167f010000000000000000000000000000000000000000000000000000000000000090048561459790919063ffffffff16565b935061358760017f0100000000000000000000000000000000000000000000000000000000000000026001837effffffffffffffffffffffffffffffffffffffffffffffffffffffffffffff19169060020a9004167f010000000000000000000000000000000000000000000000000000000000000090048461459790919063ffffffff16565b92506135e460017f01000000000000000000000000000000000000000000000000000000000000000282167f010000000000000000000000000000000000000000000000000000000000000090048361459790919063ffffffff16565b9150600160009054906101000a900473ffffffffffffffffffffffffffffffffffffffff1673ffffffffffffffffffffffffffffffffffffffff16638b1b2ba88888888888886040518763ffffffff167c010000000000000000000000000000000000000000000000000000000002815260040161366796959493929190615714565b600060405180830381600087803b151561368057600080fd5b6102c65a03f1151561369157600080fd5b5050505050505050505050565b6000806000806000806000600160009054906101000a900473ffffffffffffffffffffffffffffffffffffffff1673ffffffffffffffffffffffffffffffffffffffff1663785d8d71600060405160c001526040518163ffffffff167c010000000000000000000000000000000000000000000000000000000002815260040160c060405180830381600087803b151561373757600080fd5b6102c65a03f1151561374857600080fd5b50505060405180519060200180519060200180519060200180519060200180519060200180519050809750819850829950839a50849b50859c50505050505050600160009054906101000a900473ffffffffffffffffffffffffffffffffffffffff1673ffffffffffffffffffffffffffffffffffffffff1663c53b4bf9896000604051602001526040518263ffffffff167c0100000000000000000000000000000000000000000000000000000000028152600401613808919061567e565b602060405180830381600087803b151561382157600080fd5b6102c65a03f1151561383257600080fd5b5050506040518051905090506138a960007f010000000000000000000000000000000000000000000000000000000000000002827effffffffffffffffffffffffffffffffffffffffffffffffffffffffffffff191611613894576000613897565b60015b60ff1688613c3290919063ffffffff16565b965061393060017f0100000000000000000000000000000000000000000000000000000000000000026004837effffffffffffffffffffffffffffffffffffffffffffffffffffffffffffff19169060020a9004167f0100000000000000000000000000000000000000000000000000000000000000900487613c3290919063ffffffff16565b95506139b760017f0100000000000000000000000000000000000000000000000000000000000000026003837effffffffffffffffffffffffffffffffffffffffffffffffffffffffffffff19169060020a9004167f0100000000000000000000000000000000000000000000000000000000000000900486613c3290919063ffffffff16565b9450613a3e60017f0100000000000000000000000000000000000000000000000000000000000000026002837effffffffffffffffffffffffffffffffffffffffffffffffffffffffffffff19169060020a9004167f0100000000000000000000000000000000000000000000000000000000000000900485613c3290919063ffffffff16565b9350613ac560017f0100000000000000000000000000000000000000000000000000000000000000026001837effffffffffffffffffffffffffffffffffffffffffffffffffffffffffffff19169060020a9004167f0100000000000000000000000000000000000000000000000000000000000000900484613c3290919063ffffffff16565b9250613b2260017f01000000000000000000000000000000000000000000000000000000000000000282167f0100000000000000000000000000000000000000000000000000000000000000900483613c3290919063ffffffff16565b9150600160009054906101000a900473ffffffffffffffffffffffffffffffffffffffff1673ffffffffffffffffffffffffffffffffffffffff16638b1b2ba88888888888886040518763ffffffff167c0100000000000000000000000000000000000000000000000000000000028152600401613ba596959493929190615714565b600060405180830381600087803b1515613bbe57600080fd5b6102c65a03f11515613bcf57600080fd5b5050505050505050505050565b6000806000841415613bf15760009150613c10565b8284029050828482811515613c0257fe5b04141515613c0c57fe5b8091505b5092915050565b6000808284811515613c2557fe5b0490508091505092915050565b6000808284019050838110151515613c4657fe5b8091505092915050565b6000806000607f64010000000002915060078086026007860203039050818160ff168763ffffffff19169060020a9004166401000000009004925050509392505050565b60008060008060408503945060088560ff16811515613caf57fe5b069150600882860360ff16811515613cc357fe5b0490508181935093505050915091565b600060408260ff1610159050919050565b613cec614c8a565b613cf4614d6c565b600080600080600080600080600360ff16613d158e61010001518e8e6145b0565b60ff16141515613d385760018d60000190151590811515815250508c9950613fd6565b613d438d8d8d614646565b809950819a50505060008860ff161415613d705760018d60000190151590811515815250508c9950613fd6565b60009150600090505b8760ff168160ff161015613ed6576000965060009550613db08d8a8360ff16600881101515613da457fe5b60200201518e8e614985565b8097508198505050600092505b8560ff168360ff161015613ec957811515613dd757600191505b613dea613de5888589613c50565b613c94565b8095508196505050613e088d61010001518e61016001518787614af3565b8d61010001906fffffffffffffffffffffffffffffffff191690816fffffffffffffffffffffffffffffffff191681525050600260ff168d610160015160ff161415613e875760018d6101c0018181510191509060ff16908160ff168152505060018d6101a0018181510391509060ff16908160ff1681525050613ebc565b60018d6101c0018181510391509060ff16908160ff168152505060018d6101a0018181510191509060ff16908160ff16815250505b8280600101935050613dbd565b8080600101915050613d79565b8115613f7757613ef28d61010001518e61016001518e8e614af3565b8d61010001906fffffffffffffffffffffffffffffffff191690816fffffffffffffffffffffffffffffffff191681525050600260ff168d610160015160ff161415613f575760018d6101c0018181510191509060ff16908160ff1681525050613f72565b60018d6101a0018181510191509060ff16908160ff16815250505b613f90565b60018d60000190151590811515815250508c9950613fd6565b600160ff168d610160015160ff161415613fbd5760028d610160019060ff16908160ff1681525050613fd2565b60018d610160019060ff16908160ff16815250505b8c99505b5050505050505050509392505050565b613fee614c8a565b613ff6614d9b565b600080600080614004614c8a565b61400c614dca565b603c89610180015160ff16148061402b57506000896101a0015160ff16145b8061403e57506000896101c0015160ff16145b1561406d5760008960000190151590811515815250506001896020019015159081151581525050889750614293565b60009550600094505b60408560ff16101561414f576140c08961010001516008808860ff1681151561409b57fe5b06880360ff168115156140aa57fe5b0460088860ff168115156140ba57fe5b066145b0565b9350600360ff168460ff1614156141425760408051908101604052806008808860ff168115156140ec57fe5b06880360ff168115156140fb57fe5b0460ff1660ff16815260200160088760ff1681151561411657fe5b0660ff1660ff16815250878760ff16603c8110151561413157fe5b602002018190525085806001019650505b8480600101955050614076565b6000925060008660ff16111561425057600094505b8560ff168560ff16108015614177575082155b1561424f57868560ff16603c8110151561418d57fe5b60200201519050600189610160019060ff16908160ff16815250506141d9898260006002811015156141bb57fe5b60200201518360016002811015156141cf57fe5b6020020151613ce4565b9150816000015115156141eb57600192505b600289610160019060ff16908160ff16815250506142308982600060028110151561421257fe5b602002015183600160028110151561422657fe5b6020020151613ce4565b91508160000151151561424257600192505b8480600101955050614164565b5b821561426c57600189600001901515908115158152505061428f565b600189602001901515908115158152505060008960000190151590811515815250505b8897505b50505050505050919050565b6142a7614c8a565b60008060008060008060006001965060019550600194506001935060019250600091505b60088260ff161080156142fb575086806142e25750855b806142ea5750845b806142f25750835b806142fa5750825b5b1561450057600090505b60088160ff161080156143355750868061431c5750855b806143245750845b8061432c5750835b806143345750825b5b156144f3576143508961010001518360070383600703614b9f565b6fffffffffffffffffffffffffffffffff19166143738a61010001518484614b9f565b6fffffffffffffffffffffffffffffffff191614151561439257600096505b6143a58961010001518383600703614b9f565b6fffffffffffffffffffffffffffffffff19166143c88a61010001518484614b9f565b6fffffffffffffffffffffffffffffffff19161415156143e757600095505b6143fa8961010001518360070383614b9f565b6fffffffffffffffffffffffffffffffff191661441d8a61010001518484614b9f565b6fffffffffffffffffffffffffffffffff191614151561443c57600094505b6144528961010001518260070384600703614b9f565b6fffffffffffffffffffffffffffffffff19166144758a61010001518484614b9f565b6fffffffffffffffffffffffffffffffff191614151561449457600093505b6144a48961010001518284614b9f565b6fffffffffffffffffffffffffffffffff19166144c78a61010001518484614b9f565b6fffffffffffffffffffffffffffffffff19161415156144e657600092505b8080600101915050614305565b81806001019250506142cb565b86806145095750855b806145115750845b806145195750835b806145215750825b156145885760018960400190151590811515815250508689606001901515908115158152505085896080019015159081151581525050848960a0019015159081151581525050838960c0019015159081151581525050828960e00190151590811515815250505b88975050505050505050919050565b60008282111515156145a557fe5b818303905092915050565b6000806000806145c08686614c26565b9250826fffffffffffffffffffffffffffffffff1660039060020a0260ff167001000000000000000000000000000000000287169150826fffffffffffffffffffffffffffffffff16826fffffffffffffffffffffffffffffffff19169060020a9004905080700100000000000000000000000000000000900493505050509392505050565b61464e614d6c565b6000614658614d6c565b6000614662614d6c565b60008061466d614df4565b600080600096506101006040519081016040528060408051908101604052807fffffffffffffffffffffffffffffffffffffffffffffffffffffffffffffffff60000b60000b81526020016000800b60000b815250815260200160408051908101604052807fffffffffffffffffffffffffffffffffffffffffffffffffffffffffffffffff60000b60000b8152602001600160000b60000b815250815260200160408051908101604052806000800b60000b8152602001600160000b60000b81525081526020016040805190810160405280600160000b60000b8152602001600160000b60000b81525081526020016040805190810160405280600160000b60000b81526020016000800b60000b81525081526020016040805190810160405280600160000b60000b81526020017fffffffffffffffffffffffffffffffffffffffffffffffffffffffffffffffff60000b60000b815250815260200160408051908101604052806000800b60000b81526020017fffffffffffffffffffffffffffffffffffffffffffffffffffffffffffffffff60000b60000b815250815260200160408051908101604052807fffffffffffffffffffffffffffffffffffffffffffffffffffffffffffffffff60000b60000b81526020017fffffffffffffffffffffffffffffffffffffffffffffffffffffffffffffffff60000b60000b8152508152509550600090505b60088160ff16101561496f57858160ff1660088110151561489957fe5b602002015192508260006002811015156148af57fe5b60200201518c0193508260016002811015156148c757fe5b60200201518b01945060078560000b13806148e5575060008560000b125b806148f3575060078460000b135b80614901575060008460000b125b1515614962576149178d610100015185876145b0565b91508c610160015160ff168260ff1614151561496157600360ff168260ff161415156149605782888860ff1660088110151561494f57fe5b602002018190525086806001019750505b5b5b808060010191505061487c565b8787995099505050505050505050935093915050565b60008060008060008060008060008060008097508e61016001519650600160ff168f610160015160ff1614156149be57600295506149c3565b600195505b60009450600190505b60098160ff161015614adb57841515614ace578c8e60006002811015156149ef57fe5b602002015182020193508b8e6001600281101515614a0957fe5b6020020151820201925060078460000b1380614a28575060008460000b125b80614a36575060078360000b135b80614a44575060008360000b125b15614a5a57600098506000975060019450614acd565b614a6a8f610100015185856145b0565b91508560ff168260ff161415614a9357614a8689898686614c42565b809950819a505050614acc565b8e610160015160ff168260ff16148015614ab0575060018160ff16115b15614abe5760019450614acb565b6000985060009750600194505b5b5b5b80806001019150506149cc565b88889a509a5050505050505050505094509492505050565b600080600060078560ff161115614b0957600080fd5b60078460ff161115614b1a57600080fd5b614b248585614c26565b9150816fffffffffffffffffffffffffffffffff1660039060020a0260ff1670010000000000000000000000000000000002905086818818169650816fffffffffffffffffffffffffffffffff168660ff169060020a0260ff1670010000000000000000000000000000000002871792505050949350505050565b600080614bac8484614c26565b9050806fffffffffffffffffffffffffffffffff16816fffffffffffffffffffffffffffffffff166003700100000000000000000000000000000000026fffffffffffffffffffffffffffffffff19169060020a0286166fffffffffffffffffffffffffffffffff19169060020a90049150509392505050565b600060026001838560080201016040030260ff16905092915050565b600080600060406008850286010160ff1664010000000002905060078763ffffffff19169060020a029650808717965085806001019650508686925092505094509492505050565b6101e06040519081016040528060001515815260200160001515815260200160001515815260200160001515815260200160001515815260200160001515815260200160001515815260200160001515815260200160006fffffffffffffffffffffffffffffffff19168152602001600063ffffffff19168152602001600063ffffffff19168152602001600060ff168152602001600060ff168152602001600060ff168152602001600060ff1681525090565b60408051908101604052806002905b600063ffffffff1916815260200190600190039081614d4d5790505090565b610200604051908101604052806008905b614d85614e1d565b815260200190600190039081614d7d5790505090565b610f0060405190810160405280603c905b614db4614e46565b815260200190600190039081614dac5790505090565b60408051908101604052806002905b600060ff16815260200190600190039081614dd95790505090565b60408051908101604052806002905b6000800b815260200190600190039081614e035790505090565b60408051908101604052806002905b6000800b815260200190600190039081614e2c5790505090565b60408051908101604052806002905b600060ff16815260200190600190039081614e555790505090565b6000614e7c8235615890565b905092915050565b600082601f83011260008114614e9957614e9e565b600080fd5b506002614eb2614ead826157ab565b615775565b91508183856020840282011160018114614ecb57614ed0565b600080fd5b5060005b83811015614f015781614ee78882614f47565b845260208401935060208301925050600181019050614ed4565b5050505092915050565b6000614f1782356158b0565b905092915050565b6000614f2b82356158bc565b905092915050565b6000614f3f82356158e8565b905092915050565b6000614f538235615914565b905092915050565b6000614f678235615940565b905092915050565b60008083601f84011260008114614f8557614f8a565b600080fd5b508235905067ffffffffffffffff811160018114614fa757614fac565b600080fd5b50602083019150836001820283011160018114614fc857614fcd565b600080fd5b509250929050565b6000614fe1823561594a565b905092915050565b60006101e08284031260018114614fff57615004565b600080fd5b506150106101e0615775565b9050600061502084828501614f0b565b600083015250602061503484828501614f0b565b602083015250604061504884828501614f0b565b604083015250606061505c84828501614f0b565b606083015250608061507084828501614f0b565b60808301525060a061508484828501614f0b565b60a08301525060c061509884828501614f0b565b60c08301525060e06150ac84828501614f0b565b60e0830152506101006150c184828501614f33565b610100830152506101206150d784828501614f47565b610120830152506101406150ed84828501614f47565b6101408301525061016061510384828501615166565b6101608301525061018061511984828501615166565b610180830152506101a061512f84828501615166565b6101a0830152506101c061514584828501615166565b6101c08301525092915050565b600061515e823561595c565b905092915050565b60006151728235615966565b905092915050565b60006020828403126001811461518f57615194565b600080fd5b5060006151a384828501614e70565b91505092915050565b600080600080606085870312600181146151c5576151ca565b600080fd5b5060006151d987828801614e70565b94505060206151ea87828801615152565b935050604085013567ffffffffffffffff81116001811461520a5761520f565b600080fd5b5061521c87828801614f6f565b925092505092959194509250565b60006040828403126001811461523f57615244565b600080fd5b50600061525384828501614e84565b91505092915050565b60008060006080848603126001811461527457615279565b600080fd5b50600061528886828701614e84565b935050604061529986828701615152565b92505060606152aa86828701614f1f565b9150509250925092565b60008060008060a085870312600181146152cd576152d2565b600080fd5b5060006152e187828801614e84565b94505060406152f287828801615152565b935050606061530387828801614f1f565b925050608061531487828801614e70565b91505092959194509250565b6000602082840312600181146153355761533a565b600080fd5b50600061534984828501614f1f565b91505092915050565b600080604083850312600181146153685761536d565b600080fd5b50600061537c85828601614f5b565b925050602061538d85828601614e70565b9150509250929050565b6000602082840312600181146153ac576153b1565b600080fd5b5060006153c084828501614fd5565b91505092915050565b60006101e082840312600181146153df576153e4565b600080fd5b5060006153f384828501614fe9565b91505092915050565b60006020828403126001811461541157615416565b600080fd5b50600061542584828501615152565b91505092915050565b6000806040838503126001811461544457615449565b600080fd5b50600061545885828601615152565b925050602061546985828601614e70565b9150509250929050565b61547c816157f8565b82525050565b61548b816157e0565b615494826157d6565b60005b828110156154c6576154aa8583516154eb565b6154b3826157eb565b9150602085019450600181019050615497565b5050505050565b6154d681615818565b82525050565b6154e581615824565b82525050565b6154f481615850565b82525050565b6155038161587c565b82525050565b61551281615973565b82525050565b61552181615985565b82525050565b61553081615997565b82525050565b61553f81615886565b82525050565b600060208201905061555a6000830184615473565b92915050565b60006040820190506155756000830185615473565b6155826020830184615536565b9392505050565b600060208201905061559e60008301846154cd565b92915050565b60006020820190506155b960008301846154fa565b92915050565b60006040820190506155d460008301856154fa565b6155e16020830184615473565b9392505050565b60006040820190506155fd60008301856154fa565b61560a6020830184615518565b9392505050565b600060408201905061562660008301856154fa565b6156336020830184615527565b9392505050565b600060408201905061564f60008301856154fa565b61565c6020830184615536565b9392505050565b60006020820190506156786000830184615509565b92915050565b60006020820190506156936000830184615536565b92915050565b60006060820190506156ae6000830185615536565b6156bb6020830184615482565b9392505050565b60006040820190506156d76000830185615536565b6156e460208301846154dc565b9392505050565b60006040820190506157006000830185615536565b61570d6020830184615536565b9392505050565b600060c0820190506157296000830189615536565b6157366020830188615536565b6157436040830187615536565b6157506060830186615536565b61575d6080830185615536565b61576a60a0830184615536565b979650505050505050565b6000604051905081810181811067ffffffffffffffff8211176001811461579b576157a0565b600080fd5b508060405250919050565b600067ffffffffffffffff8211600181146157c5576157ca565b600080fd5b50602082029050919050565b6000819050919050565b600060029050919050565b6000602082019050919050565b600073ffffffffffffffffffffffffffffffffffffffff82169050919050565b60008115159050919050565b60007fff0000000000000000000000000000000000000000000000000000000000000082169050919050565b60007fffffffffffffffffffffffffffffffffffffffffffffffffffffffff0000000082169050919050565b6000819050919050565b6000819050919050565b600073ffffffffffffffffffffffffffffffffffffffff82169050919050565b60008115159050919050565b60007fff0000000000000000000000000000000000000000000000000000000000000082169050919050565b60007fffffffffffffffffffffffffffffffff0000000000000000000000000000000082169050919050565b60007fffffffffffffffffffffffffffffffffffffffffffffffffffffffff0000000082169050919050565b6000819050919050565b6000615955826157f8565b9050919050565b6000819050919050565b600060ff82169050919050565b600061597e826157f8565b9050919050565b6000615990826157f8565b9050919050565b60006159a282615886565b90509190505600a265627a7a72305820c1557a114f2bb01002420878313718913975f1768089a1a24a1fa9b55b821edc6c6578706572696d656e74616cf50037",
  "source": "pragma solidity ^0.4.17;\npragma experimental ABIEncoderV2;\n\n/**\n * The CloversController is upgradeable and contains the logic used by CloversFrontend\n * Both adhere to the CloversFactory interface design\n */\nimport \"./Clovers.sol\";\nimport \"./Reversi.sol\";\nimport \"./Mintable.sol\";\nimport \"./CloversFactory.sol\";\nimport \"zeppelin-solidity/contracts/ownership/HasNoTokens.sol\";\nimport \"zeppelin-solidity/contracts/ownership/HasNoEther.sol\";\nimport \"zeppelin-solidity/contracts/math/SafeMath.sol\";\n\ncontract CloversController is CloversFactory, HasNoTokens, HasNoEther {\n    using SafeMath for uint256;\n\n    address clovers;\n    address clubToken;\n\n    uint256 payMultiplier;\n    uint256 stakeAmount;\n    uint256 stakePeriod;\n\n    function CloversController(address _clovers, address _clubToken) public {\n        clovers = _clovers;\n        clubToken = _clubToken;\n    }    \n\n    /**\n    * @dev Gets the current staking amount needed to claim a Clover.\n    * @return A uint256 value of how much stake is needed.\n    */\n    function currentStakeAmount() public constant returns (uint256) {\n        return stakeAmount;\n    }\n    /**\n    * @dev Gets the current staking period needed to verify a Clover.\n    * @return A uint256 value of stake period in seconds.\n    */\n    function currentStakePeriod() public constant returns (uint256) {\n        return stakePeriod;\n    }\n    /**\n    * @dev Checks whether the game is valid.\n    * @param moves The moves needed to play validate the game.\n    * @return A boolean representing whether or not the game is valid.\n    */\n    function isValid(bytes28[2] moves) public constant returns (bool) {\n        Reversi.Game memory game = Reversi.playGame(moves);\n        return isValidGame(game);\n    }\n    /**\n    * @dev Checks whether the game is valid.\n    * @param game The pre-played game.\n    * @return A boolean representing whether or not the game is valid.\n    */\n    function isValidGame(Reversi.Game game) public constant returns (bool) {\n        if (game.error) return false;\n        if (!game.complete) return false;\n        return true;\n    }\n    /**\n    * @dev Checks whether the game has passed the verification period.\n    * @param _tokenId The board being checked.\n    * @return A boolean representing whether or not the game has been verified.\n    */\n    function isVerified(uint256 _tokenId) public constant returns (bool) {\n        uint256 _blockMinted = Clovers(clovers).getBlockMinted(_tokenId);\n        require(_blockMinted != 0);\n        require(now > _blockMinted);\n        return ((now - _blockMinted) > stakePeriod);\n    }\n    /**\n    * @dev Calculates the reward of the board.\n    * @param _symmetries symmetries saved as a bytes1 value like 00010101 where bits represent symmetry types.\n    * @return A uint256 representing the reward that would be returned for claiming the board.\n    */\n    function calculateReward(bytes1 _symmetries) public constant returns (uint256) {\n        uint256 Symmetricals;\n        uint256 RotSym;\n        uint256 Y0Sym;\n        uint256 X0Sym;\n        uint256 XYSym;\n        uint256 XnYSym;\n        (Symmetricals,\n        RotSym,\n        Y0Sym,\n        X0Sym,\n        XYSym,\n        XnYSym) = Clovers(clovers).getAllSymmetries();\n        uint256 base = 0;\n        if (_symmetries >> 4 & 1 == 1) base = base.add(payMultiplier.mul(Symmetricals + 1).div(RotSym + 1));\n        if (_symmetries >> 3 & 1 == 1) base = base.add(payMultiplier.mul(Symmetricals + 1).div(Y0Sym + 1));\n        if (_symmetries >> 2 & 1 == 1) base = base.add(payMultiplier.mul(Symmetricals + 1).div(X0Sym + 1));\n        if (_symmetries >> 1 & 1 == 1) base = base.add(payMultiplier.mul(Symmetricals + 1).div(XYSym + 1));\n        if (_symmetries & 1 == 1) base = base.add(payMultiplier.mul(Symmetricals + 1).div(XnYSym + 1));\n        return base;\n    }\n\n    /**\n    * @dev Claim the Clover without a commit or reveal.\n    * @param moves The moves that make up the Clover reversi game.\n    * @param _tokenId The board that results from the moves.\n    * @param _symmetries symmetries saved as a bytes1 value like 00010101 where bits represent symmetry types.\n    * @param _to The address claiming the Clover.\n    * @return A boolean representing whether or not the claim was successful.\n    */\n    function claimClover(bytes28[2] moves, uint256 _tokenId, bytes1 _symmetries, address _to) public payable returns (bool) {\n        require(moves[0] != 0);\n        bytes32 movesHash = keccak256(moves);\n        Clovers(clovers).setCommit(movesHash, _to);\n        Clovers(clovers).setStake(movesHash, stakeAmount);\n        clovers.transfer(stakeAmount);\n        require(Clovers(clovers).getBlockMinted(_tokenId) != 0);\n        Clovers(clovers).setBlockMinted(_tokenId, now);\n        Clovers(clovers).setCloverMoves(_tokenId, moves);\n        if (_symmetries > 0) {\n            Clovers(clovers).setSymmetries(_tokenId, _symmetries);\n            uint256 reward = calculateReward(_symmetries);\n            Clovers(clovers).setReward(_tokenId, reward);\n        }\n        Clovers(clovers).mint(_to, _tokenId);\n        return true;\n    }\n    /**\n    * @dev Commit the hash of the moves needed to claim the Clover. A stake should be made for counterfactual verification.\n    * @param movesHash The hash of the moves that makes up the Clover reversi game.\n    * @param _to The address claiming the Clover.\n    * @return A boolean representing whether or not the commit was successful.\n    */\n    function claimCloverCommit(bytes32 movesHash, address _to) public payable returns (bool) {\n        require(_to != 0);\n        require(msg.value == stakeAmount);\n        require(Clovers(clovers).getCommit(movesHash) == 0);\n        Clovers(clovers).setCommit(movesHash, _to);\n        Clovers(clovers).setStake(movesHash, stakeAmount);\n        clovers.transfer(stakeAmount);\n        return true;\n    }\n    /**\n    * @dev Reveal the solution to the previous commit to claim the Clover.\n    * @param moves The moves that make up the Clover reversi game.\n    * @param _tokenId The board that results from the moves.\n    * @param _symmetries symmetries saved as a bytes1 value like 00010101 where bits represent symmetry types.\n    * @return A boolean representing whether or not the reveal and claim was successful.\n    */\n    function claimCloverReveal(bytes28[2] moves, uint256 _tokenId, bytes1 _symmetries) public returns (bool) {\n        require(moves[0] != 0);\n        bytes32 movesHash = keccak256(moves);\n        address commiter = Clovers(clovers).getCommit(movesHash);\n        require(Clovers(clovers).getBlockMinted(_tokenId) != 0);\n        Clovers(clovers).setBlockMinted(_tokenId, now);\n        Clovers(clovers).setCloverMoves(_tokenId, moves);\n        if (_symmetries > 0) {\n            Clovers(clovers).setSymmetries(_tokenId, _symmetries);\n            uint256 reward = calculateReward(_symmetries);\n            Clovers(clovers).setReward(_tokenId, reward);\n        }\n        Clovers(clovers).mint(commiter, _tokenId);\n        return true;\n    }\n    /**\n    * @dev Retrieve the stake from a Clover claim after the stake period has ended.\n    * @param _tokenId The board which holds the stake.\n    * @return A boolean representing whether or not the retrieval was successful.\n    */\n    function retrieveStake(uint256 _tokenId) public returns (bool) {\n        bytes28[2] memory moves = Clovers(clovers).getCloverMoves(_tokenId);\n        require(moves[0] != 0);\n        bytes32 movesHash = keccak256(moves);\n        uint256 stake = Clovers(clovers).getStake(movesHash);\n        require(stake != 0);\n        require(isVerified(_tokenId));\n        Clovers(clovers).setStake(movesHash, 0);\n        addSymmetries(_tokenId);\n        address commiter = Clovers(clovers).getCommit(movesHash);\n        uint256 reward = Clovers(clovers).getReward(_tokenId);\n        require(Mintable(clubToken).mint(commiter, reward));\n        require(Clovers(clovers).moveEth(commiter, stake));\n        return true;\n    }\n    /**\n    * @dev Challenge a staked Clover for being invalid.\n    * @param _tokenId The board being challenged.\n    * @param _to The address challenging the Clover.\n    * @return A boolean representing whether or not the challenge was successful.\n    */\n    function challengeClover(uint256 _tokenId, address _to) public returns (bool) {\n        bool valid = true;\n        bytes28[2] memory moves = Clovers(clovers).getCloverMoves(_tokenId);\n        require(moves[0] != 0);\n        Reversi.Game memory game = Reversi.playGame(moves);\n        if(isValidGame(game)) {\n            bytes1 _symmetries = Clovers(clovers).getSymmetries(_tokenId);\n\n            valid = (_symmetries >> 4 & 1) > 0 == game.RotSym ? valid : false;\n            valid = (_symmetries >> 3 & 1) > 0 == game.Y0Sym ? valid : false;\n            valid = (_symmetries >> 2 & 1) > 0 == game.X0Sym ? valid : false;\n            valid = (_symmetries >> 1 & 1) > 0 == game.XYSym ? valid : false;\n            valid = (_symmetries & 1) > 0 == game.XnYSym ? valid : false;\n\n        } else {\n            valid = false;\n        }\n        if (!valid) {\n            Clovers(clovers).deleteClover(_tokenId);\n            bytes32 movesHash = keccak256(moves);\n            if (!isVerified(_tokenId)) {\n                uint256 stake = Clovers(clovers).getStake(movesHash);\n                Clovers(clovers).moveEth(_to, stake);\n            }\n            Clovers(clovers).burn(_tokenId);\n            Clovers(clovers).setCommit(movesHash, 0);\n            Clovers(clovers).setStake(movesHash, 0);\n            removeSymmetries(_tokenId);\n        } else {\n            revert();\n        }\n        return true;\n    }\n\n    /**\n    * @dev Updates the stake amount.\n    * @param _stakeAmount The new amount needed to stake.\n    */\n    function updateStakeAmount(uint256 _stakeAmount) public onlyOwner {\n        stakeAmount = _stakeAmount;\n    }\n    /**\n    * @dev Updates the stake period.\n    * @param _stakePeriod The uint256 value of time needed to stake before being verified.\n    */\n    function updateStakePeriod(uint256 _stakePeriod) public onlyOwner {\n        stakePeriod = _stakePeriod;\n    }\n    /**\n    * @dev Updates the pay multiplier, used to calculate token reward.\n    * @param _payMultiplier The uint256 value of pay multiplier.\n    */\n    function updatePayMultipier(uint256 _payMultiplier) public onlyOwner {\n        payMultiplier = _payMultiplier;\n    }\n    /**\n    * @dev Adds new tallys of the totals numbers of clover symmetries.\n    * @param _tokenId The token which needs to be examined.\n    */\n    function addSymmetries(uint256 _tokenId) private {\n        uint256 Symmetricals;\n        uint256 RotSym;\n        uint256 Y0Sym;\n        uint256 X0Sym;\n        uint256 XYSym;\n        uint256 XnYSym;\n        (Symmetricals,\n        RotSym,\n        Y0Sym,\n        X0Sym,\n        XYSym,\n        XnYSym) = Clovers(clovers).getAllSymmetries();\n        bytes1 _symmetries = Clovers(clovers).getSymmetries(_tokenId);\n        Symmetricals = Symmetricals.add(_symmetries > 0 ? 1 : 0);\n        RotSym = RotSym.add(uint256(_symmetries >> 4 & 1));\n        Y0Sym = Y0Sym.add(uint256(_symmetries >> 3 & 1));\n        X0Sym = X0Sym.add(uint256(_symmetries >> 2 & 1));\n        XYSym = XYSym.add(uint256(_symmetries >> 1 & 1));\n        XnYSym = XnYSym.add(uint256(_symmetries & 1));\n        Clovers(clovers).setAllSymmetries(Symmetricals, RotSym, Y0Sym, X0Sym, XYSym, XnYSym);\n    }\n    /**\n    * @dev Remove false tallys of the totals numbers of clover symmetries.\n    * @param _tokenId The token which needs to be examined.\n    */\n    function removeSymmetries(uint256 _tokenId) private {\n        uint256 Symmetricals;\n        uint256 RotSym;\n        uint256 Y0Sym;\n        uint256 X0Sym;\n        uint256 XYSym;\n        uint256 XnYSym;\n       (Symmetricals,\n        RotSym,\n        Y0Sym,\n        X0Sym,\n        XYSym,\n        XnYSym) = Clovers(clovers).getAllSymmetries();\n        bytes1 _symmetries = Clovers(clovers).getSymmetries(_tokenId);\n        Symmetricals = Symmetricals.sub(_symmetries > 0 ? 1 : 0);\n        RotSym = RotSym.sub(uint256(_symmetries >> 4 & 1));\n        Y0Sym = Y0Sym.sub(uint256(_symmetries >> 3 & 1));\n        X0Sym = X0Sym.sub(uint256(_symmetries >> 2 & 1));\n        XYSym = XYSym.sub(uint256(_symmetries >> 1 & 1));\n        XnYSym = XnYSym.sub(uint256(_symmetries & 1));\n        Clovers(clovers).setAllSymmetries(Symmetricals, RotSym, Y0Sym, X0Sym, XYSym, XnYSym);\n    }\n\n}",
  "sourcePath": "/Users/billy/vue/clovers-dapp/contracts/CloversController.sol",
  "compiler": {
    "name": "solc",
    "version": "0.4.19+commit.c4cbbb05.Emscripten.clang"
  },
  "schemaVersion": "1.0.1",
  "updatedAt": "2018-03-22T00:42:26.148Z"
}