{
  "contractName": "Clovers",
  "abi": [
    {
      "constant": false,
      "inputs": [
        {
          "name": "_to",
          "type": "address"
        },
        {
          "name": "_tokenId",
          "type": "uint256"
        }
      ],
      "name": "approve",
      "outputs": [],
      "payable": false,
      "stateMutability": "nonpayable",
      "type": "function"
    },
    {
      "constant": true,
      "inputs": [],
      "name": "totalSupply",
      "outputs": [
        {
          "name": "",
          "type": "uint256"
        }
      ],
      "payable": false,
      "stateMutability": "view",
      "type": "function"
    },
    {
      "constant": true,
      "inputs": [
        {
          "name": "_tokenId",
          "type": "uint256"
        }
      ],
      "name": "approvedFor",
      "outputs": [
        {
          "name": "",
          "type": "address"
        }
      ],
      "payable": false,
      "stateMutability": "view",
      "type": "function"
    },
    {
      "constant": true,
      "inputs": [
        {
          "name": "",
          "type": "bytes32"
        }
      ],
      "name": "commits",
      "outputs": [
        {
          "name": "",
          "type": "address"
        }
      ],
      "payable": false,
      "stateMutability": "view",
      "type": "function"
    },
    {
      "constant": true,
      "inputs": [
        {
          "name": "_owner",
          "type": "address"
        }
      ],
      "name": "tokensOf",
      "outputs": [
        {
          "name": "",
          "type": "uint256[]"
        }
      ],
      "payable": false,
      "stateMutability": "view",
      "type": "function"
    },
    {
      "constant": true,
      "inputs": [
        {
          "name": "_tokenId",
          "type": "uint256"
        }
      ],
      "name": "ownerOf",
      "outputs": [
        {
          "name": "",
          "type": "address"
        }
      ],
      "payable": false,
      "stateMutability": "view",
      "type": "function"
    },
    {
      "constant": true,
      "inputs": [
        {
          "name": "",
          "type": "uint256"
        }
      ],
      "name": "clovers",
      "outputs": [
        {
          "name": "symmetries",
          "type": "bytes1"
        },
        {
          "name": "blockMinted",
          "type": "uint256"
        },
        {
          "name": "rewards",
          "type": "uint256"
        }
      ],
      "payable": false,
      "stateMutability": "view",
      "type": "function"
    },
    {
      "constant": true,
      "inputs": [
        {
          "name": "_owner",
          "type": "address"
        }
      ],
      "name": "balanceOf",
      "outputs": [
        {
          "name": "",
          "type": "uint256"
        }
      ],
      "payable": false,
      "stateMutability": "view",
      "type": "function"
    },
    {
      "constant": true,
      "inputs": [],
      "name": "owner",
      "outputs": [
        {
          "name": "",
          "type": "address"
        }
      ],
      "payable": false,
      "stateMutability": "view",
      "type": "function"
    },
    {
      "constant": true,
      "inputs": [
        {
          "name": "",
          "type": "bytes32"
        }
      ],
      "name": "stakes",
      "outputs": [
        {
          "name": "",
          "type": "uint256"
        }
      ],
      "payable": false,
      "stateMutability": "view",
      "type": "function"
    },
    {
      "constant": false,
      "inputs": [
        {
          "name": "_to",
          "type": "address"
        },
        {
          "name": "_tokenId",
          "type": "uint256"
        }
      ],
      "name": "transfer",
      "outputs": [],
      "payable": false,
      "stateMutability": "nonpayable",
      "type": "function"
    },
    {
      "constant": false,
      "inputs": [
        {
          "name": "_tokenId",
          "type": "uint256"
        }
      ],
      "name": "takeOwnership",
      "outputs": [],
      "payable": false,
      "stateMutability": "nonpayable",
      "type": "function"
    },
    {
      "constant": false,
      "inputs": [
        {
          "name": "newOwner",
          "type": "address"
        }
      ],
      "name": "transferOwnership",
      "outputs": [],
      "payable": false,
      "stateMutability": "nonpayable",
      "type": "function"
    },
    {
      "inputs": [],
      "payable": false,
      "stateMutability": "nonpayable",
      "type": "constructor"
    },
    {
      "payable": true,
      "stateMutability": "payable",
      "type": "fallback"
    },
    {
      "anonymous": false,
      "inputs": [
        {
          "indexed": true,
          "name": "previousOwner",
          "type": "address"
        },
        {
          "indexed": true,
          "name": "newOwner",
          "type": "address"
        }
      ],
      "name": "OwnershipTransferred",
      "type": "event"
    },
    {
      "anonymous": false,
      "inputs": [
        {
          "indexed": true,
          "name": "_from",
          "type": "address"
        },
        {
          "indexed": true,
          "name": "_to",
          "type": "address"
        },
        {
          "indexed": false,
          "name": "_tokenId",
          "type": "uint256"
        }
      ],
      "name": "Transfer",
      "type": "event"
    },
    {
      "anonymous": false,
      "inputs": [
        {
          "indexed": true,
          "name": "_owner",
          "type": "address"
        },
        {
          "indexed": true,
          "name": "_approved",
          "type": "address"
        },
        {
          "indexed": false,
          "name": "_tokenId",
          "type": "uint256"
        }
      ],
      "name": "Approval",
      "type": "event"
    },
    {
      "constant": true,
      "inputs": [],
      "name": "implementation",
      "outputs": [
        {
          "name": "",
          "type": "address"
        }
      ],
      "payable": false,
      "stateMutability": "view",
      "type": "function"
    },
    {
      "constant": true,
      "inputs": [
        {
          "name": "_tokenId",
          "type": "uint256"
        }
      ],
      "name": "tokenMetadata",
      "outputs": [
        {
          "name": "_infoUrl",
          "type": "string"
        }
      ],
      "payable": false,
      "stateMutability": "view",
      "type": "function"
    },
    {
      "constant": true,
      "inputs": [
        {
          "name": "movesHash",
          "type": "bytes32"
        }
      ],
      "name": "getStake",
      "outputs": [
        {
          "name": "",
          "type": "uint256"
        }
      ],
      "payable": false,
      "stateMutability": "view",
      "type": "function"
    },
    {
      "constant": true,
      "inputs": [
        {
          "name": "movesHash",
          "type": "bytes32"
        }
      ],
      "name": "getCommit",
      "outputs": [
        {
          "name": "",
          "type": "address"
        }
      ],
      "payable": false,
      "stateMutability": "view",
      "type": "function"
    },
    {
      "constant": true,
      "inputs": [
        {
          "name": "_tokenId",
          "type": "uint256"
        }
      ],
      "name": "getBlockMinted",
      "outputs": [
        {
          "name": "",
          "type": "uint256"
        }
      ],
      "payable": false,
      "stateMutability": "view",
      "type": "function"
    },
    {
      "constant": true,
      "inputs": [
        {
          "name": "_tokenId",
          "type": "uint256"
        }
      ],
      "name": "getCloverMoves",
      "outputs": [
        {
          "name": "",
          "type": "bytes28[2]"
        }
      ],
      "payable": false,
      "stateMutability": "view",
      "type": "function"
    },
    {
      "constant": true,
      "inputs": [
        {
          "name": "_tokenId",
          "type": "uint256"
        }
      ],
      "name": "getReward",
      "outputs": [
        {
          "name": "",
          "type": "uint256"
        }
      ],
      "payable": false,
      "stateMutability": "view",
      "type": "function"
    },
    {
      "constant": true,
      "inputs": [
        {
          "name": "_tokenId",
          "type": "uint256"
        }
      ],
      "name": "getSymmetries",
      "outputs": [
        {
          "name": "",
          "type": "bytes1"
        }
      ],
      "payable": false,
      "stateMutability": "view",
      "type": "function"
    },
    {
      "constant": true,
      "inputs": [],
      "name": "getAllSymmetries",
      "outputs": [
        {
          "name": "",
          "type": "uint256"
        },
        {
          "name": "",
          "type": "uint256"
        },
        {
          "name": "",
          "type": "uint256"
        },
        {
          "name": "",
          "type": "uint256"
        },
        {
          "name": "",
          "type": "uint256"
        },
        {
          "name": "",
          "type": "uint256"
        }
      ],
      "payable": false,
      "stateMutability": "view",
      "type": "function"
    },
    {
      "constant": false,
      "inputs": [
        {
          "name": "_to",
          "type": "address"
        },
        {
          "name": "amount",
          "type": "uint256"
        }
      ],
      "name": "moveEth",
      "outputs": [
        {
          "name": "",
          "type": "bool"
        }
      ],
      "payable": false,
      "stateMutability": "nonpayable",
      "type": "function"
    },
    {
      "constant": false,
      "inputs": [
        {
          "name": "amount",
          "type": "uint256"
        },
        {
          "name": "_to",
          "type": "address"
        },
        {
          "name": "token",
          "type": "address"
        }
      ],
      "name": "moveToken",
      "outputs": [
        {
          "name": "",
          "type": "bool"
        }
      ],
      "payable": false,
      "stateMutability": "nonpayable",
      "type": "function"
    },
    {
      "constant": false,
      "inputs": [
        {
          "name": "amount",
          "type": "uint256"
        },
        {
          "name": "_to",
          "type": "address"
        },
        {
          "name": "token",
          "type": "address"
        }
      ],
      "name": "approveToken",
      "outputs": [
        {
          "name": "",
          "type": "bool"
        }
      ],
      "payable": false,
      "stateMutability": "nonpayable",
      "type": "function"
    },
    {
      "constant": false,
      "inputs": [
        {
          "name": "movesHash",
          "type": "bytes32"
        },
        {
          "name": "stake",
          "type": "uint256"
        }
      ],
      "name": "setStake",
      "outputs": [],
      "payable": false,
      "stateMutability": "nonpayable",
      "type": "function"
    },
    {
      "constant": false,
      "inputs": [
        {
          "name": "movesHash",
          "type": "bytes32"
        },
        {
          "name": "commiter",
          "type": "address"
        }
      ],
      "name": "setCommit",
      "outputs": [],
      "payable": false,
      "stateMutability": "nonpayable",
      "type": "function"
    },
    {
      "constant": false,
      "inputs": [
        {
          "name": "_tokenId",
          "type": "uint256"
        },
        {
          "name": "value",
          "type": "uint256"
        }
      ],
      "name": "setBlockMinted",
      "outputs": [],
      "payable": false,
      "stateMutability": "nonpayable",
      "type": "function"
    },
    {
      "constant": false,
      "inputs": [
        {
          "name": "_tokenId",
          "type": "uint256"
        },
        {
          "name": "moves",
          "type": "bytes28[2]"
        }
      ],
      "name": "setCloverMoves",
      "outputs": [],
      "payable": false,
      "stateMutability": "nonpayable",
      "type": "function"
    },
    {
      "constant": false,
      "inputs": [
        {
          "name": "_tokenId",
          "type": "uint256"
        },
        {
          "name": "_amount",
          "type": "uint256"
        }
      ],
      "name": "setReward",
      "outputs": [],
      "payable": false,
      "stateMutability": "nonpayable",
      "type": "function"
    },
    {
      "constant": false,
      "inputs": [
        {
          "name": "_tokenId",
          "type": "uint256"
        },
        {
          "name": "_symmetries",
          "type": "bytes1"
        }
      ],
      "name": "setSymmetries",
      "outputs": [],
      "payable": false,
      "stateMutability": "nonpayable",
      "type": "function"
    },
    {
      "constant": false,
      "inputs": [
        {
          "name": "_totalSymmetries",
          "type": "uint256"
        },
        {
          "name": "RotSym",
          "type": "uint256"
        },
        {
          "name": "Y0Sym",
          "type": "uint256"
        },
        {
          "name": "X0Sym",
          "type": "uint256"
        },
        {
          "name": "XYSym",
          "type": "uint256"
        },
        {
          "name": "XnYSym",
          "type": "uint256"
        }
      ],
      "name": "setAllSymmetries",
      "outputs": [],
      "payable": false,
      "stateMutability": "nonpayable",
      "type": "function"
    },
    {
      "constant": false,
      "inputs": [
        {
          "name": "_tokenId",
          "type": "uint256"
        }
      ],
      "name": "deleteClover",
      "outputs": [],
      "payable": false,
      "stateMutability": "nonpayable",
      "type": "function"
    },
    {
      "constant": false,
      "inputs": [
        {
          "name": "_cloversController",
          "type": "address"
        }
      ],
      "name": "updateCloversControllerAddress",
      "outputs": [],
      "payable": false,
      "stateMutability": "nonpayable",
      "type": "function"
    },
    {
      "constant": false,
      "inputs": [
        {
          "name": "_cloversMetadata",
          "type": "address"
        }
      ],
      "name": "updateCloversMetadataAddress",
      "outputs": [],
      "payable": false,
      "stateMutability": "nonpayable",
      "type": "function"
    },
    {
      "constant": false,
      "inputs": [
        {
          "name": "_to",
          "type": "address"
        },
        {
          "name": "_tokenId",
          "type": "uint256"
        }
      ],
      "name": "mint",
      "outputs": [],
      "payable": false,
      "stateMutability": "nonpayable",
      "type": "function"
    },
    {
      "constant": false,
      "inputs": [
        {
          "name": "_tokenId",
          "type": "uint256"
        }
      ],
      "name": "burn",
      "outputs": [],
      "payable": false,
      "stateMutability": "nonpayable",
      "type": "function"
    }
  ],
  "bytecode": "0x6060604052341561000f57600080fd5b33600560006101000a81548173ffffffffffffffffffffffffffffffffffffffff021916908373ffffffffffffffffffffffffffffffffffffffff1602179055506132b18061005f6000396000f3006060604052600436106101cd576000357c0100000000000000000000000000000000000000000000000000000000900463ffffffff16806303a53d6b146101cf578063095ea7b3146102055780630b628395146102275780630e8310d61461024957806318160ddd1461026b5780631c4b774b146102945780631cc1472d146102ca5780631dba5660146103005780631dbd9d91146103225780632a6dd48f146103445780633541fd531461037a57806340c10f191461039c57806342966c68146103be57806347885781146103e05780634e485f88146104165780635a3f2672146104385780635c60da1b1461046e57806362f9acf9146104975780636352211e146104cd5780636914db6014610503578063708fa7f71461053957806370a0823114610571578063785d8d71146105a75780638784ea96146105d55780638a56a2261461060b5780638b1b2ba81461062d5780638da5cb5b1461064f5780638fee640714610678578063a47bd496146106ae578063a9059cbb146106d0578063b2e6ceeb146106f2578063b7f8aa0014610714578063c53b4bf91461074a578063e3100d1e14610780578063e765c122146107a2578063f2fde38b146107d8578063f760a4e2146107fa575b005b34156101da57600080fd5b6101ef60046101ea903690612b8c565b610830565b6040516101fc9190612fd8565b60405180910390f35b341561021057600080fd5b6102256004610220903690612a8b565b610850565b005b341561023257600080fd5b6102476004610242903690612c16565b6109e3565b005b341561025457600080fd5b6102696004610264903690612b8c565b610ac1565b005b341561027657600080fd5b61027e610bc2565b60405161028b9190612fd8565b60405180910390f35b341561029f57600080fd5b6102b460046102af903690612b8c565b610bcb565b6040516102c19190612fd8565b60405180910390f35b34156102d557600080fd5b6102ea60046102e5903690612a8b565b610beb565b6040516102f79190612f2e565b60405180910390f35b341561030b57600080fd5b610320600461031b903690612c5b565b610d04565b005b341561032d57600080fd5b610342600461033d903690612b02565b610e0b565b005b341561034f57600080fd5b610364600461035f903690612b8c565b610f1d565b6040516103719190612ead565b60405180910390f35b341561038557600080fd5b61039a6004610395903690612b47565b610f5a565b005b34156103a757600080fd5b6103bc60046103b7903690612a8b565b611032565b005b34156103c957600080fd5b6103de60046103d9903690612b8c565b6110f4565b005b34156103eb57600080fd5b61040060046103fb903690612ad0565b6111b4565b60405161040d9190612ead565b60405180910390f35b341561042157600080fd5b6104366004610431903690612a59565b6111e7565b005b341561044357600080fd5b6104586004610453903690612a59565b6112ad565b6040516104659190612f0c565b60405180910390f35b341561047957600080fd5b61048161134a565b60405161048e9190612ead565b60405180910390f35b34156104a257600080fd5b6104b760046104b2903690612b8c565b611374565b6040516104c49190612ef1565b60405180910390f35b34156104d857600080fd5b6104ed60046104e8903690612b8c565b6113ed565b6040516104fa9190612ead565b60405180910390f35b341561050e57600080fd5b610523600461051e903690612b8c565b61146b565b6040516105309190612fb6565b60405180910390f35b341561054457600080fd5b6105596004610554903690612b8c565b6114e3565b60405161056893929190612f64565b60405180910390f35b341561057c57600080fd5b610591600461058c903690612a59565b611539565b60405161059e9190612fd8565b60405180910390f35b34156105b257600080fd5b6105ba611585565b6040516105cc96959493929190612ff3565b60405180910390f35b34156105e057600080fd5b6105f560046105f0903690612ad0565b6115ff565b6040516106029190612ead565b60405180910390f35b341561061657600080fd5b61062b6004610626903690612a59565b611644565b005b341561063857600080fd5b61064d6004610648903690612ce5565b61170a565b005b341561065a57600080fd5b61066261183b565b60405161066f9190612ead565b60405180910390f35b341561068357600080fd5b6106986004610693903690612ad0565b611861565b6040516106a59190612fd8565b60405180910390f35b34156106b957600080fd5b6106ce60046106c9903690612ca0565b611879565b005b34156106db57600080fd5b6106f060046106eb903690612a8b565b61194c565b005b34156106fd57600080fd5b610712600461070d903690612b8c565b61199f565b005b341561071f57600080fd5b610734600461072f903690612bbe565b6119ca565b6040516107419190612f2e565b60405180910390f35b341561075557600080fd5b61076a6004610765903690612b8c565b611b1d565b6040516107779190612f49565b60405180910390f35b341561078b57600080fd5b6107a0600461079b903690612ca0565b611b69565b005b34156107ad57600080fd5b6107c260046107bd903690612ad0565b611c3c565b6040516107cf9190612fd8565b60405180910390f35b34156107e357600080fd5b6107f860046107f3903690612a59565b611c61565b005b341561080557600080fd5b61081a6004610815903690612bbe565b611db9565b6040516108279190612f2e565b60405180910390f35b6000600e6000838152602001908152602001600020600301549050919050565b6000813373ffffffffffffffffffffffffffffffffffffffff16610873826113ed565b73ffffffffffffffffffffffffffffffffffffffff1614151561089557600080fd5b61089e836113ed565b91508173ffffffffffffffffffffffffffffffffffffffff168473ffffffffffffffffffffffffffffffffffffffff16141515156108db57600080fd5b60006108e684610f1d565b73ffffffffffffffffffffffffffffffffffffffff16141580610920575060008473ffffffffffffffffffffffffffffffffffffffff1614155b156109dd57836002600085815260200190815260200160002060006101000a81548173ffffffffffffffffffffffffffffffffffffffff021916908373ffffffffffffffffffffffffffffffffffffffff1602179055508373ffffffffffffffffffffffffffffffffffffffff168273ffffffffffffffffffffffffffffffffffffffff167f8c5be1e5ebec7d5bd14f71427d1e84f3dd0314c0f7b2291e5b200ac8c7c3b925856040516109d49190612fd8565b60405180910390a35b50505050565b600d60009054906101000a900473ffffffffffffffffffffffffffffffffffffffff1673ffffffffffffffffffffffffffffffffffffffff163373ffffffffffffffffffffffffffffffffffffffff161480610a8c5750600560009054906101000a900473ffffffffffffffffffffffffffffffffffffffff1673ffffffffffffffffffffffffffffffffffffffff163373ffffffffffffffffffffffffffffffffffffffff16145b1515610a9757600080fd5b80600e6000848152602001908152602001600020600101906002610abc9291906127b7565b505050565b600d60009054906101000a900473ffffffffffffffffffffffffffffffffffffffff1673ffffffffffffffffffffffffffffffffffffffff163373ffffffffffffffffffffffffffffffffffffffff161480610b6a5750600560009054906101000a900473ffffffffffffffffffffffffffffffffffffffff1673ffffffffffffffffffffffffffffffffffffffff163373ffffffffffffffffffffffffffffffffffffffff16145b1515610b7557600080fd5b600e6000828152602001908152602001600020600080820160006101000a81549060ff0219169055600182016000610bad919061282e565b60038201600090556004820160009055505050565b60008054905090565b6000600e6000838152602001908152602001600020600401549050919050565b6000600d60009054906101000a900473ffffffffffffffffffffffffffffffffffffffff1673ffffffffffffffffffffffffffffffffffffffff163373ffffffffffffffffffffffffffffffffffffffff161480610c965750600560009054906101000a900473ffffffffffffffffffffffffffffffffffffffff1673ffffffffffffffffffffffffffffffffffffffff163373ffffffffffffffffffffffffffffffffffffffff16145b1515610ca157600080fd5b3073ffffffffffffffffffffffffffffffffffffffff16318211151515610cc757600080fd5b8273ffffffffffffffffffffffffffffffffffffffff166108fc839081150290604051600060405180830381858888f19350505050905092915050565b600d60009054906101000a900473ffffffffffffffffffffffffffffffffffffffff1673ffffffffffffffffffffffffffffffffffffffff163373ffffffffffffffffffffffffffffffffffffffff161480610dad5750600560009054906101000a900473ffffffffffffffffffffffffffffffffffffffff1673ffffffffffffffffffffffffffffffffffffffff163373ffffffffffffffffffffffffffffffffffffffff16145b1515610db857600080fd5b80600e600084815260200190815260200160002060000160006101000a81548160ff02191690837f0100000000000000000000000000000000000000000000000000000000000000900402179055505050565b600d60009054906101000a900473ffffffffffffffffffffffffffffffffffffffff1673ffffffffffffffffffffffffffffffffffffffff163373ffffffffffffffffffffffffffffffffffffffff161480610eb45750600560009054906101000a900473ffffffffffffffffffffffffffffffffffffffff1673ffffffffffffffffffffffffffffffffffffffff163373ffffffffffffffffffffffffffffffffffffffff16145b1515610ebf57600080fd5b80600f6000846000191660001916815260200190815260200160002060006101000a81548173ffffffffffffffffffffffffffffffffffffffff021916908373ffffffffffffffffffffffffffffffffffffffff1602179055505050565b60006002600083815260200190815260200160002060009054906101000a900473ffffffffffffffffffffffffffffffffffffffff169050919050565b600d60009054906101000a900473ffffffffffffffffffffffffffffffffffffffff1673ffffffffffffffffffffffffffffffffffffffff163373ffffffffffffffffffffffffffffffffffffffff1614806110035750600560009054906101000a900473ffffffffffffffffffffffffffffffffffffffff1673ffffffffffffffffffffffffffffffffffffffff163373ffffffffffffffffffffffffffffffffffffffff16145b151561100e57600080fd5b80601060008460001916600019168152602001908152602001600020819055505050565b600d60009054906101000a900473ffffffffffffffffffffffffffffffffffffffff1673ffffffffffffffffffffffffffffffffffffffff163373ffffffffffffffffffffffffffffffffffffffff1614806110db5750600560009054906101000a900473ffffffffffffffffffffffffffffffffffffffff1673ffffffffffffffffffffffffffffffffffffffff163373ffffffffffffffffffffffffffffffffffffffff16145b15156110e657600080fd5b6110f08282611fac565b5050565b600d60009054906101000a900473ffffffffffffffffffffffffffffffffffffffff1673ffffffffffffffffffffffffffffffffffffffff163373ffffffffffffffffffffffffffffffffffffffff16148061119d5750600560009054906101000a900473ffffffffffffffffffffffffffffffffffffffff1673ffffffffffffffffffffffffffffffffffffffff163373ffffffffffffffffffffffffffffffffffffffff16145b15156111a857600080fd5b6111b181612046565b50565b600f6020528060005260406000206000915054906101000a900473ffffffffffffffffffffffffffffffffffffffff1681565b600560009054906101000a900473ffffffffffffffffffffffffffffffffffffffff1673ffffffffffffffffffffffffffffffffffffffff163373ffffffffffffffffffffffffffffffffffffffff1614151561124357600080fd5b60008173ffffffffffffffffffffffffffffffffffffffff161415151561126957600080fd5b80600660006101000a81548173ffffffffffffffffffffffffffffffffffffffff021916908373ffffffffffffffffffffffffffffffffffffffff16021790555050565b6112b561283c565b600360008373ffffffffffffffffffffffffffffffffffffffff1673ffffffffffffffffffffffffffffffffffffffff16815260200190815260200160002080548060200260200160405190810160405280929190818152602001828054801561133e57602002820191906000526020600020905b81548152602001906001019080831161132a575b50505050509050919050565b6000600660009054906101000a900473ffffffffffffffffffffffffffffffffffffffff16905090565b61137c612850565b600e60008381526020019081526020016000206001016002806020026040519081016040528092919082600280156113e1576020028201915b8160009054906101000a90046401000000000263ffffffff1916815260200190600101908083116113b5575b50505050509050919050565b6000806001600084815260200190815260200160002060009054906101000a900473ffffffffffffffffffffffffffffffffffffffff169050600073ffffffffffffffffffffffffffffffffffffffff168173ffffffffffffffffffffffffffffffffffffffff161415151561146257600080fd5b80915050919050565b61147361287e565b600061147d612892565b61148561134a565b91506000368080601f0160208091040260200160405190810160405280939291908181526020018383808284378201915050505050509050600080825160208401855af43d604051816000823e82600081146114df578282f35b8282fd5b600e6020528060005260406000206000915090508060000160009054906101000a90047f010000000000000000000000000000000000000000000000000000000000000002908060030154908060040154905083565b6000600360008373ffffffffffffffffffffffffffffffffffffffff1673ffffffffffffffffffffffffffffffffffffffff168152602001908152602001600020805490509050919050565b600080600080600080600754600860006005811015156115a157fe5b0154600860016005811015156115b357fe5b0154600860026005811015156115c557fe5b0154600860036005811015156115d757fe5b0154600860046005811015156115e957fe5b0154955095509550955095509550909192939495565b6000600f6000836000191660001916815260200190815260200160002060009054906101000a900473ffffffffffffffffffffffffffffffffffffffff169050919050565b600560009054906101000a900473ffffffffffffffffffffffffffffffffffffffff1673ffffffffffffffffffffffffffffffffffffffff163373ffffffffffffffffffffffffffffffffffffffff161415156116a057600080fd5b60008173ffffffffffffffffffffffffffffffffffffffff16141515156116c657600080fd5b80600d60006101000a81548173ffffffffffffffffffffffffffffffffffffffff021916908373ffffffffffffffffffffffffffffffffffffffff16021790555050565b600d60009054906101000a900473ffffffffffffffffffffffffffffffffffffffff1673ffffffffffffffffffffffffffffffffffffffff163373ffffffffffffffffffffffffffffffffffffffff1614806117b35750600560009054906101000a900473ffffffffffffffffffffffffffffffffffffffff1673ffffffffffffffffffffffffffffffffffffffff163373ffffffffffffffffffffffffffffffffffffffff16145b15156117be57600080fd5b8560078190555084600860006005811015156117d657fe5b018190555083600860016005811015156117ec57fe5b0181905550826008600260058110151561180257fe5b0181905550816008600360058110151561181857fe5b0181905550806008600460058110151561182e57fe5b0181905550505050505050565b600560009054906101000a900473ffffffffffffffffffffffffffffffffffffffff1681565b60106020528060005260406000206000915090505481565b600d60009054906101000a900473ffffffffffffffffffffffffffffffffffffffff1673ffffffffffffffffffffffffffffffffffffffff163373ffffffffffffffffffffffffffffffffffffffff1614806119225750600560009054906101000a900473ffffffffffffffffffffffffffffffffffffffff1673ffffffffffffffffffffffffffffffffffffffff163373ffffffffffffffffffffffffffffffffffffffff16145b151561192d57600080fd5b80600e6000848152602001908152602001600020600401819055505050565b803373ffffffffffffffffffffffffffffffffffffffff1661196d826113ed565b73ffffffffffffffffffffffffffffffffffffffff1614151561198f57600080fd5b61199a33848461211a565b505050565b6119a93382612263565b15156119b457600080fd5b6119c76119c0826113ed565b338361211a565b50565b6000600d60009054906101000a900473ffffffffffffffffffffffffffffffffffffffff1673ffffffffffffffffffffffffffffffffffffffff163373ffffffffffffffffffffffffffffffffffffffff161480611a755750600560009054906101000a900473ffffffffffffffffffffffffffffffffffffffff1673ffffffffffffffffffffffffffffffffffffffff163373ffffffffffffffffffffffffffffffffffffffff16145b1515611a8057600080fd5b8173ffffffffffffffffffffffffffffffffffffffff1663095ea7b384866000604051602001526040518363ffffffff167c0100000000000000000000000000000000000000000000000000000000028152600401611ae0929190612ec8565b602060405180830381600087803b1515611af957600080fd5b6102c65a03f11515611b0a57600080fd5b5050506040518051905090509392505050565b6000600e600083815260200190815260200160002060000160009054906101000a90047f0100000000000000000000000000000000000000000000000000000000000000029050919050565b600d60009054906101000a900473ffffffffffffffffffffffffffffffffffffffff1673ffffffffffffffffffffffffffffffffffffffff163373ffffffffffffffffffffffffffffffffffffffff161480611c125750600560009054906101000a900473ffffffffffffffffffffffffffffffffffffffff1673ffffffffffffffffffffffffffffffffffffffff163373ffffffffffffffffffffffffffffffffffffffff16145b1515611c1d57600080fd5b80600e6000848152602001908152602001600020600301819055505050565b6000601060008360001916600019168152602001908152602001600020549050919050565b600560009054906101000a900473ffffffffffffffffffffffffffffffffffffffff1673ffffffffffffffffffffffffffffffffffffffff163373ffffffffffffffffffffffffffffffffffffffff16141515611cbd57600080fd5b600073ffffffffffffffffffffffffffffffffffffffff168173ffffffffffffffffffffffffffffffffffffffff1614151515611cf957600080fd5b8073ffffffffffffffffffffffffffffffffffffffff16600560009054906101000a900473ffffffffffffffffffffffffffffffffffffffff1673ffffffffffffffffffffffffffffffffffffffff167f8be0079c531659141344cd1fd0a4f28419497f9722a3daafe3b4186f6b6457e060405160405180910390a380600560006101000a81548173ffffffffffffffffffffffffffffffffffffffff021916908373ffffffffffffffffffffffffffffffffffffffff16021790555050565b6000600d60009054906101000a900473ffffffffffffffffffffffffffffffffffffffff1673ffffffffffffffffffffffffffffffffffffffff163373ffffffffffffffffffffffffffffffffffffffff161480611e645750600560009054906101000a900473ffffffffffffffffffffffffffffffffffffffff1673ffffffffffffffffffffffffffffffffffffffff163373ffffffffffffffffffffffffffffffffffffffff16145b1515611e6f57600080fd5b8173ffffffffffffffffffffffffffffffffffffffff166370a08231306000604051602001526040518263ffffffff167c0100000000000000000000000000000000000000000000000000000000028152600401611ecd9190612f9b565b602060405180830381600087803b1515611ee657600080fd5b6102c65a03f11515611ef757600080fd5b505050604051805190508411151515611f0f57600080fd5b8173ffffffffffffffffffffffffffffffffffffffff1663a9059cbb84866000604051602001526040518363ffffffff167c0100000000000000000000000000000000000000000000000000000000028152600401611f6f929190612ec8565b602060405180830381600087803b1515611f8857600080fd5b6102c65a03f11515611f9957600080fd5b5050506040518051905090509392505050565b600073ffffffffffffffffffffffffffffffffffffffff168273ffffffffffffffffffffffffffffffffffffffff1614151515611fe857600080fd5b611ff282826122a4565b8173ffffffffffffffffffffffffffffffffffffffff1660007fddf252ad1be2c89b69c2b068fc378daa952ba7f163c4a11628f55a4df523b3ef8360405161203a9190612fd8565b60405180910390a35050565b803373ffffffffffffffffffffffffffffffffffffffff16612067826113ed565b73ffffffffffffffffffffffffffffffffffffffff1614151561208957600080fd5b600061209483610f1d565b73ffffffffffffffffffffffffffffffffffffffff161415156120bc576120bb338361240f565b5b6120c633836124f8565b60003373ffffffffffffffffffffffffffffffffffffffff167fddf252ad1be2c89b69c2b068fc378daa952ba7f163c4a11628f55a4df523b3ef8460405161210e9190612fd8565b60405180910390a35050565b600073ffffffffffffffffffffffffffffffffffffffff168273ffffffffffffffffffffffffffffffffffffffff161415151561215657600080fd5b61215f816113ed565b73ffffffffffffffffffffffffffffffffffffffff168273ffffffffffffffffffffffffffffffffffffffff161415151561219957600080fd5b8273ffffffffffffffffffffffffffffffffffffffff166121b9826113ed565b73ffffffffffffffffffffffffffffffffffffffff161415156121db57600080fd5b6121e5838261240f565b6121ef83826124f8565b6121f982826122a4565b8173ffffffffffffffffffffffffffffffffffffffff168373ffffffffffffffffffffffffffffffffffffffff167fddf252ad1be2c89b69c2b068fc378daa952ba7f163c4a11628f55a4df523b3ef836040516122569190612fd8565b60405180910390a3505050565b60008273ffffffffffffffffffffffffffffffffffffffff1661228583610f1d565b73ffffffffffffffffffffffffffffffffffffffff1614905092915050565b60008073ffffffffffffffffffffffffffffffffffffffff166001600084815260200190815260200160002060009054906101000a900473ffffffffffffffffffffffffffffffffffffffff1673ffffffffffffffffffffffffffffffffffffffff1614151561231357600080fd5b826001600084815260200190815260200160002060006101000a81548173ffffffffffffffffffffffffffffffffffffffff021916908373ffffffffffffffffffffffffffffffffffffffff16021790555061236e83611539565b9050600360008473ffffffffffffffffffffffffffffffffffffffff1673ffffffffffffffffffffffffffffffffffffffff16815260200190815260200160002080548060010182816123c191906128a6565b916000526020600020900160008490919091505550806004600084815260200190815260200160002081905550612404600160005461278090919063ffffffff16565b600081905550505050565b8173ffffffffffffffffffffffffffffffffffffffff1661242f826113ed565b73ffffffffffffffffffffffffffffffffffffffff1614151561245157600080fd5b60006002600083815260200190815260200160002060006101000a81548173ffffffffffffffffffffffffffffffffffffffff021916908373ffffffffffffffffffffffffffffffffffffffff16021790555060008273ffffffffffffffffffffffffffffffffffffffff167f8c5be1e5ebec7d5bd14f71427d1e84f3dd0314c0f7b2291e5b200ac8c7c3b925836040516124ec9190612fd8565b60405180910390a35050565b60008060008473ffffffffffffffffffffffffffffffffffffffff1661251d856113ed565b73ffffffffffffffffffffffffffffffffffffffff1614151561253f57600080fd5b60046000858152602001908152602001600020549250612571600161256387611539565b61279e90919063ffffffff16565b9150600360008673ffffffffffffffffffffffffffffffffffffffff1673ffffffffffffffffffffffffffffffffffffffff168152602001908152602001600020828154811015156125bf57fe5b906000526020600020900154905060006001600086815260200190815260200160002060006101000a81548173ffffffffffffffffffffffffffffffffffffffff021916908373ffffffffffffffffffffffffffffffffffffffff16021790555080600360008773ffffffffffffffffffffffffffffffffffffffff1673ffffffffffffffffffffffffffffffffffffffff1681526020019081526020016000208481548110151561266d57fe5b9060005260206000209001819055506000600360008773ffffffffffffffffffffffffffffffffffffffff1673ffffffffffffffffffffffffffffffffffffffff168152602001908152602001600020838154811015156126ca57fe5b906000526020600020900181905550600360008673ffffffffffffffffffffffffffffffffffffffff1673ffffffffffffffffffffffffffffffffffffffff16815260200190815260200160002080548091906001900361272b91906128d2565b5060006004600086815260200190815260200160002081905550826004600083815260200190815260200160002081905550612773600160005461279e90919063ffffffff16565b6000819055505050505050565b600080828401905083811015151561279457fe5b8091505092915050565b60008282111515156127ac57fe5b818303905092915050565b826002810192821561281d579160200282015b8281111561281c5782518260006101000a8154817bffffffffffffffffffffffffffffffffffffffffffffffffffffffff021916908364010000000090040217905550916020019190600101906127ca565b5b50905061282a91906128fe565b5090565b506000815560010160009055565b602060405190810160405280600081525090565b60408051908101604052806002905b600063ffffffff191681526020019060019003908161285f5790505090565b602060405190810160405280600081525090565b602060405190810160405280600081525090565b8154818355818115116128cd578183600052602060002091820191016128cc9190612949565b5b505050565b8154818355818115116128f9578183600052602060002091820191016128f89190612949565b5b505050565b61294691905b8082111561294257600081816101000a8154907bffffffffffffffffffffffffffffffffffffffffffffffffffffffff021916905550600101612904565b5090565b90565b61296b91905b8082111561296757600081600090555060010161294f565b5090565b90565b600061297a8235613195565b905092915050565b600082601f830112600081146129975761299c565b600080fd5b5060026129b06129ab8261308a565b613054565b915081838560208402820111600181146129c9576129ce565b600080fd5b5060005b838110156129ff57816129e58882612a1d565b8452602084019350602083019250506001810190506129d2565b5050505092915050565b6000612a1582356131b5565b905092915050565b6000612a2982356131e1565b905092915050565b6000612a3d823561320d565b905092915050565b6000612a518235613217565b905092915050565b600060208284031260018114612a6e57612a73565b600080fd5b506000612a828482850161296e565b91505092915050565b60008060408385031260018114612aa157612aa6565b600080fd5b506000612ab58582860161296e565b9250506020612ac685828601612a45565b9150509250929050565b600060208284031260018114612ae557612aea565b600080fd5b506000612af984828501612a31565b91505092915050565b60008060408385031260018114612b1857612b1d565b600080fd5b506000612b2c85828601612a31565b9250506020612b3d8582860161296e565b9150509250929050565b60008060408385031260018114612b5d57612b62565b600080fd5b506000612b7185828601612a31565b9250506020612b8285828601612a45565b9150509250929050565b600060208284031260018114612ba157612ba6565b600080fd5b506000612bb584828501612a45565b91505092915050565b600080600060608486031260018114612bd657612bdb565b600080fd5b506000612bea86828701612a45565b9350506020612bfb8682870161296e565b9250506040612c0c8682870161296e565b9150509250925092565b60008060608385031260018114612c2c57612c31565b600080fd5b506000612c4085828601612a45565b9250506020612c5185828601612982565b9150509250929050565b60008060408385031260018114612c7157612c76565b600080fd5b506000612c8585828601612a45565b9250506020612c9685828601612a09565b9150509250929050565b60008060408385031260018114612cb657612cbb565b600080fd5b506000612cca85828601612a45565b9250506020612cdb85828601612a45565b9150509250929050565b60008060008060008060c08789031260018114612d0157612d06565b600080fd5b506000612d1589828a01612a45565b9650506020612d2689828a01612a45565b9550506040612d3789828a01612a45565b9450506060612d4889828a01612a45565b9350506080612d5989828a01612a45565b92505060a0612d6a89828a01612a45565b9150509295509295509295565b612d8081613107565b82525050565b612d8f816130cc565b612d98826130b5565b60005b82811015612dca57612dae858351612e4a565b612db7826130ed565b9150602085019450600181019050612d9b565b5050505050565b6000612ddc826130d7565b808452602084019350612dee836130bf565b60005b82811015612e2057612e04868351612e9e565b612e0d826130fa565b9150602086019550600181019050612df1565b50849250505092915050565b612e3581613127565b82525050565b612e4481613133565b82525050565b612e538161315f565b82525050565b612e6281613221565b82525050565b6000612e73826130e2565b808452612e87816020860160208601613233565b612e9081613266565b602085010191505092915050565b612ea78161318b565b82525050565b6000602082019050612ec26000830184612d77565b92915050565b6000604082019050612edd6000830185612d77565b612eea6020830184612e9e565b9392505050565b6000604082019050612f066000830184612d86565b92915050565b60006020820190508181036000830152612f268184612dd1565b905092915050565b6000602082019050612f436000830184612e2c565b92915050565b6000602082019050612f5e6000830184612e3b565b92915050565b6000606082019050612f796000830186612e3b565b612f866020830185612e9e565b612f936040830184612e9e565b949350505050565b6000602082019050612fb06000830184612e59565b92915050565b60006020820190508181036000830152612fd08184612e68565b905092915050565b6000602082019050612fed6000830184612e9e565b92915050565b600060c0820190506130086000830189612e9e565b6130156020830188612e9e565b6130226040830187612e9e565b61302f6060830186612e9e565b61303c6080830185612e9e565b61304960a0830184612e9e565b979650505050505050565b6000604051905081810181811067ffffffffffffffff8211176001811461307a5761307f565b600080fd5b508060405250919050565b600067ffffffffffffffff8211600181146130a4576130a9565b600080fd5b50602082029050919050565b6000819050919050565b6000602082019050919050565b600060029050919050565b600081519050919050565b600081519050919050565b6000602082019050919050565b6000602082019050919050565b600073ffffffffffffffffffffffffffffffffffffffff82169050919050565b60008115159050919050565b60007fff0000000000000000000000000000000000000000000000000000000000000082169050919050565b60007fffffffffffffffffffffffffffffffffffffffffffffffffffffffff0000000082169050919050565b6000819050919050565b600073ffffffffffffffffffffffffffffffffffffffff82169050919050565b60007fff0000000000000000000000000000000000000000000000000000000000000082169050919050565b60007fffffffffffffffffffffffffffffffffffffffffffffffffffffffff0000000082169050919050565b6000819050919050565b6000819050919050565b600061322c82613107565b9050919050565b60005b83811015613251578082015181840152602081019050613236565b83811115613260576000848401525b50505050565b6000601f19601f83011690509190505600a265627a7a723058202cddd635a883699d6e3f77f992e4db9d3fdfb01cad207b7b0f7408d7455a64496c6578706572696d656e74616cf50037",
  "source": "pragma solidity ^0.4.19;\npragma experimental ABIEncoderV2;\n\n/**\n * Digital Asset Registry for the Non Fungible Token Clover\n * with upgradeable contract reference for returning metadata.\n */\n\nimport \"zeppelin-solidity/contracts/token/ERC20/ERC20.sol\";\nimport \"zeppelin-solidity/contracts/token/ERC721/ERC721Token.sol\";\nimport \"zeppelin-solidity/contracts/ownership/Ownable.sol\";\nimport \"./IClovers.sol\";\nimport \"./CloversMetadata.sol\";\n\ncontract Clovers is IClovers, ERC721Token, Ownable {\n\n    address private cloversMetadata;\n    uint256 totalSymmetries;\n    uint256[5] symmetries; // RotSym, Y0Sym, X0Sym, XYSym, XnYSym\n    address cloversController;\n\n    mapping (uint256 => Clover) public clovers;\n    struct Clover {\n        bytes1 symmetries;\n        bytes28[2] cloverMoves;\n        uint256 blockMinted;\n        uint256 rewards;\n    }\n    mapping (bytes32 => address) public commits;\n    mapping (bytes32 => uint256) public stakes;\n\n    modifier onlyOwnerOrController() {\n        require(\n            msg.sender == cloversController ||\n            msg.sender == owner\n        );\n        _;\n    }\n\n    function Clovers () public {}\n    function () public payable {}\n\n    function implementation() public view returns (address) {\n        return cloversMetadata;\n    }\n\n    function tokenMetadata(uint _tokenId) public view returns (string _infoUrl) {\n        // require(ownerOf(_tokenId) != 0);\n        address _impl = implementation();\n        bytes memory data = msg.data;\n        assembly {\n            let result := delegatecall(gas, _impl, add(data, 0x20), mload(data), 0, 0)\n            let size := returndatasize\n            let ptr := mload(0x40)\n            returndatacopy(ptr, 0, size)\n            switch result\n            case 0 { revert(ptr, size) }\n            default { return(ptr, size) }\n        }\n        // return CloversMetadata(cloversMetadata).tokenMetadata(_tokenId);\n    }\n    function getStake(bytes32 movesHash) public view returns (uint256) {\n        return stakes[movesHash];\n    }\n    function getCommit(bytes32 movesHash) public view returns (address) {\n        return commits[movesHash];\n    }\n    function getBlockMinted(uint256 _tokenId) public view returns (uint256) {\n        return clovers[_tokenId].blockMinted;\n    }\n    function getCloverMoves(uint256 _tokenId) public view returns (bytes28[2]) {\n        return clovers[_tokenId].cloverMoves;\n    }\n    function getReward(uint256 _tokenId) public view returns (uint256) {\n        return clovers[_tokenId].rewards;\n    }\n    function getSymmetries(uint256 _tokenId) public view returns (bytes1) {\n        return clovers[_tokenId].symmetries;\n    }\n    function getAllSymmetries() public view returns (uint256, uint256, uint256, uint256, uint256, uint256) {\n        return (\n            totalSymmetries,\n            symmetries[0], //RotSym,\n            symmetries[1], //Y0Sym,\n            symmetries[2], //X0Sym,\n            symmetries[3], //XYSym,\n            symmetries[4] //XnYSym\n        );\n    }\n\n/* ---------------------------------------------------------------------------------------------------------------------- */\n\n    function moveEth(address _to, uint256 amount) public onlyOwnerOrController returns (bool) {\n        require(amount <= this.balance);\n        return _to.send(amount);\n    }\n    function moveToken(uint256 amount, address _to, address token) public onlyOwnerOrController returns (bool) {\n        require(amount <= ERC20(token).balanceOf(this));\n        return ERC20(token).transfer(_to, amount);\n    }\n    function approveToken(uint256 amount, address _to, address token) public onlyOwnerOrController returns (bool) {\n        return ERC20(token).approve(_to, amount);\n    }\n\n    function setStake(bytes32 movesHash, uint256 stake) public onlyOwnerOrController {\n        stakes[movesHash] = stake;\n    }\n    function setCommit(bytes32 movesHash, address commiter) public onlyOwnerOrController {\n        commits[movesHash] = commiter;\n    }\n    function setBlockMinted(uint256 _tokenId, uint256 value) public onlyOwnerOrController {\n        clovers[_tokenId].blockMinted = value;\n    }\n    function setCloverMoves(uint256 _tokenId, bytes28[2] moves) public onlyOwnerOrController {\n        clovers[_tokenId].cloverMoves = moves;\n    }\n    function setReward(uint256 _tokenId, uint256 _amount) public onlyOwnerOrController {\n        clovers[_tokenId].rewards = _amount;\n    }\n    function setSymmetries(uint256 _tokenId, bytes1 _symmetries) public onlyOwnerOrController {\n        clovers[_tokenId].symmetries = _symmetries;\n    }\n    function setAllSymmetries(uint256 _totalSymmetries, uint256 RotSym, uint256 Y0Sym, uint256 X0Sym, uint256 XYSym, uint256 XnYSym) public onlyOwnerOrController {\n        totalSymmetries = _totalSymmetries;\n        symmetries[0] = RotSym;\n        symmetries[1] = Y0Sym;\n        symmetries[2] = X0Sym;\n        symmetries[3] = XYSym;\n        symmetries[4] = XnYSym;\n    }\n    function deleteClover(uint256 _tokenId) public onlyOwnerOrController {\n        delete(clovers[_tokenId]);\n    }\n\n    function updateCloversControllerAddress(address _cloversController) public onlyOwner {\n        require(_cloversController != 0);\n        cloversController = _cloversController;\n    }\n    function updateCloversMetadataAddress(address _cloversMetadata) public onlyOwner {\n        require(_cloversMetadata != 0);\n        cloversMetadata = _cloversMetadata;\n    }\n\n    function mint (address _to, uint256 _tokenId) public onlyOwnerOrController {\n        _mint(_to, _tokenId);\n    }\n    function burn (uint256 _tokenId) public onlyOwnerOrController {\n        _burn(_tokenId);\n    }\n\n}\n",
  "sourcePath": "/Users/billy/vue/clovers-dapp/contracts/Clovers.sol",
  "compiler": {
    "name": "solc",
    "version": "0.4.19+commit.c4cbbb05.Emscripten.clang"
  },
  "schemaVersion": "1.0.1",
  "updatedAt": "2018-03-23T20:17:51.912Z"
}