{
  "contractName": "CloversController",
  "abi": [
    {
      "constant": false,
      "inputs": [
        {
          "name": "token",
          "type": "address"
        }
      ],
      "name": "reclaimToken",
      "outputs": [],
      "payable": false,
      "stateMutability": "nonpayable",
      "type": "function"
    },
    {
      "constant": true,
      "inputs": [],
      "name": "owner",
      "outputs": [
        {
          "name": "",
          "type": "address"
        }
      ],
      "payable": false,
      "stateMutability": "view",
      "type": "function"
    },
    {
      "constant": false,
      "inputs": [],
      "name": "reclaimEther",
      "outputs": [],
      "payable": false,
      "stateMutability": "nonpayable",
      "type": "function"
    },
    {
      "constant": false,
      "inputs": [
        {
          "name": "from_",
          "type": "address"
        },
        {
          "name": "value_",
          "type": "uint256"
        },
        {
          "name": "data_",
          "type": "bytes"
        }
      ],
      "name": "tokenFallback",
      "outputs": [],
      "payable": false,
      "stateMutability": "nonpayable",
      "type": "function"
    },
    {
      "constant": false,
      "inputs": [
        {
          "name": "newOwner",
          "type": "address"
        }
      ],
      "name": "transferOwnership",
      "outputs": [],
      "payable": false,
      "stateMutability": "nonpayable",
      "type": "function"
    },
    {
      "inputs": [
        {
          "name": "_clovers",
          "type": "address"
        },
        {
          "name": "_clubToken",
          "type": "address"
        }
      ],
      "payable": false,
      "stateMutability": "nonpayable",
      "type": "constructor"
    },
    {
      "payable": false,
      "stateMutability": "nonpayable",
      "type": "fallback"
    },
    {
      "anonymous": false,
      "inputs": [
        {
          "indexed": false,
          "name": "movesHash",
          "type": "bytes32"
        },
        {
          "indexed": false,
          "name": "miner",
          "type": "address"
        }
      ],
      "name": "cloverCommited",
      "type": "event"
    },
    {
      "anonymous": false,
      "inputs": [
        {
          "indexed": false,
          "name": "moves",
          "type": "bytes28[2]"
        },
        {
          "indexed": false,
          "name": "_tokenId",
          "type": "uint256"
        },
        {
          "indexed": false,
          "name": "miner",
          "type": "address"
        }
      ],
      "name": "cloverRevealed",
      "type": "event"
    },
    {
      "anonymous": false,
      "inputs": [
        {
          "indexed": false,
          "name": "moves",
          "type": "bytes28[2]"
        },
        {
          "indexed": false,
          "name": "_tokenId",
          "type": "uint256"
        },
        {
          "indexed": false,
          "name": "miner",
          "type": "address"
        }
      ],
      "name": "cloverClaimed",
      "type": "event"
    },
    {
      "anonymous": false,
      "inputs": [
        {
          "indexed": false,
          "name": "moves",
          "type": "bytes28[2]"
        },
        {
          "indexed": false,
          "name": "_tokenId",
          "type": "uint256"
        },
        {
          "indexed": false,
          "name": "miner",
          "type": "address"
        }
      ],
      "name": "stakeRetrieved",
      "type": "event"
    },
    {
      "anonymous": false,
      "inputs": [
        {
          "indexed": false,
          "name": "moves",
          "type": "bytes28[2]"
        },
        {
          "indexed": false,
          "name": "_tokenId",
          "type": "uint256"
        },
        {
          "indexed": false,
          "name": "miner",
          "type": "address"
        },
        {
          "indexed": false,
          "name": "challenger",
          "type": "address"
        }
      ],
      "name": "cloverChallenged",
      "type": "event"
    },
    {
      "anonymous": false,
      "inputs": [
        {
          "indexed": true,
          "name": "previousOwner",
          "type": "address"
        },
        {
          "indexed": true,
          "name": "newOwner",
          "type": "address"
        }
      ],
      "name": "OwnershipTransferred",
      "type": "event"
    },
    {
      "constant": true,
      "inputs": [],
      "name": "currentStakeAmount",
      "outputs": [
        {
          "name": "",
          "type": "uint256"
        }
      ],
      "payable": false,
      "stateMutability": "view",
      "type": "function"
    },
    {
      "constant": true,
      "inputs": [],
      "name": "currentStakePeriod",
      "outputs": [
        {
          "name": "",
          "type": "uint256"
        }
      ],
      "payable": false,
      "stateMutability": "view",
      "type": "function"
    },
    {
      "constant": true,
      "inputs": [],
      "name": "getMultiplier",
      "outputs": [
        {
          "name": "",
          "type": "uint256"
        }
      ],
      "payable": false,
      "stateMutability": "view",
      "type": "function"
    },
    {
      "constant": true,
      "inputs": [
        {
          "name": "_tokenId",
          "type": "uint256"
        }
      ],
      "name": "getMovesHash",
      "outputs": [
        {
          "name": "",
          "type": "bytes32"
        }
      ],
      "payable": false,
      "stateMutability": "view",
      "type": "function"
    },
    {
      "constant": true,
      "inputs": [
        {
          "name": "moves",
          "type": "bytes28[2]"
        }
      ],
      "name": "isValid",
      "outputs": [
        {
          "name": "",
          "type": "bool"
        }
      ],
      "payable": false,
      "stateMutability": "view",
      "type": "function"
    },
    {
      "constant": true,
      "inputs": [
        {
          "components": [
            {
              "name": "error",
              "type": "bool"
            },
            {
              "name": "complete",
              "type": "bool"
            },
            {
              "name": "symmetrical",
              "type": "bool"
            },
            {
              "name": "RotSym",
              "type": "bool"
            },
            {
              "name": "Y0Sym",
              "type": "bool"
            },
            {
              "name": "X0Sym",
              "type": "bool"
            },
            {
              "name": "XYSym",
              "type": "bool"
            },
            {
              "name": "XnYSym",
              "type": "bool"
            },
            {
              "name": "board",
              "type": "bytes16"
            },
            {
              "name": "first32Moves",
              "type": "bytes28"
            },
            {
              "name": "lastMoves",
              "type": "bytes28"
            },
            {
              "name": "currentPlayer",
              "type": "uint8"
            },
            {
              "name": "moveKey",
              "type": "uint8"
            },
            {
              "name": "blackScore",
              "type": "uint8"
            },
            {
              "name": "whiteScore",
              "type": "uint8"
            }
          ],
          "name": "game",
          "type": "tuple"
        }
      ],
      "name": "isValidGame",
      "outputs": [
        {
          "name": "",
          "type": "bool"
        }
      ],
      "payable": false,
      "stateMutability": "view",
      "type": "function"
    },
    {
      "constant": true,
      "inputs": [
        {
          "name": "_tokenId",
          "type": "uint256"
        }
      ],
      "name": "isVerified",
      "outputs": [
        {
          "name": "",
          "type": "bool"
        }
      ],
      "payable": false,
      "stateMutability": "view",
      "type": "function"
    },
    {
      "constant": true,
      "inputs": [],
      "name": "returnBlock",
      "outputs": [
        {
          "name": "",
          "type": "uint256"
        }
      ],
      "payable": false,
      "stateMutability": "view",
      "type": "function"
    },
    {
      "constant": true,
      "inputs": [
        {
          "name": "_symmetries",
          "type": "bytes1"
        }
      ],
      "name": "calculateReward",
      "outputs": [
        {
          "name": "",
          "type": "uint256"
        }
      ],
      "payable": false,
      "stateMutability": "view",
      "type": "function"
    },
    {
      "constant": false,
      "inputs": [
        {
          "name": "moves",
          "type": "bytes28[2]"
        },
        {
          "name": "_tokenId",
          "type": "uint256"
        },
        {
          "name": "_symmetries",
          "type": "bytes1"
        },
        {
          "name": "_to",
          "type": "address"
        }
      ],
      "name": "claimClover",
      "outputs": [
        {
          "name": "",
          "type": "bool"
        }
      ],
      "payable": true,
      "stateMutability": "payable",
      "type": "function"
    },
    {
      "constant": false,
      "inputs": [
        {
          "name": "movesHash",
          "type": "bytes32"
        },
        {
          "name": "_to",
          "type": "address"
        }
      ],
      "name": "claimCloverCommit",
      "outputs": [
        {
          "name": "",
          "type": "bool"
        }
      ],
      "payable": true,
      "stateMutability": "payable",
      "type": "function"
    },
    {
      "constant": false,
      "inputs": [
        {
          "name": "moves",
          "type": "bytes28[2]"
        },
        {
          "name": "_tokenId",
          "type": "uint256"
        },
        {
          "name": "_symmetries",
          "type": "bytes1"
        }
      ],
      "name": "claimCloverReveal",
      "outputs": [
        {
          "name": "",
          "type": "bool"
        }
      ],
      "payable": false,
      "stateMutability": "nonpayable",
      "type": "function"
    },
    {
      "constant": false,
      "inputs": [
        {
          "name": "_tokenId",
          "type": "uint256"
        }
      ],
      "name": "retrieveStake",
      "outputs": [
        {
          "name": "",
          "type": "bool"
        }
      ],
      "payable": false,
      "stateMutability": "nonpayable",
      "type": "function"
    },
    {
      "constant": false,
      "inputs": [
        {
          "name": "_tokenId",
          "type": "uint256"
        },
        {
          "name": "_to",
          "type": "address"
        }
      ],
      "name": "challengeClover",
      "outputs": [
        {
          "name": "",
          "type": "bool"
        }
      ],
      "payable": false,
      "stateMutability": "nonpayable",
      "type": "function"
    },
    {
      "constant": false,
      "inputs": [
        {
          "name": "_stakeAmount",
          "type": "uint256"
        }
      ],
      "name": "updateStakeAmount",
      "outputs": [],
      "payable": false,
      "stateMutability": "nonpayable",
      "type": "function"
    },
    {
      "constant": false,
      "inputs": [
        {
          "name": "_stakePeriod",
          "type": "uint256"
        }
      ],
      "name": "updateStakePeriod",
      "outputs": [],
      "payable": false,
      "stateMutability": "nonpayable",
      "type": "function"
    },
    {
      "constant": false,
      "inputs": [
        {
          "name": "_payMultiplier",
          "type": "uint256"
        }
      ],
      "name": "updatePayMultipier",
      "outputs": [],
      "payable": false,
      "stateMutability": "nonpayable",
      "type": "function"
    }
  ],
  "bytecode": "0x606060405234156200001057600080fd5b604051604080620056468339810160405262000036906780000000000000009062000126565b336000806101000a81548173ffffffffffffffffffffffffffffffffffffffff021916908373ffffffffffffffffffffffffffffffffffffffff1602179055506000341415156200008657600080fd5b81600160006101000a81548173ffffffffffffffffffffffffffffffffffffffff021916908373ffffffffffffffffffffffffffffffffffffffff16021790555080600260006101000a81548173ffffffffffffffffffffffffffffffffffffffff021916908373ffffffffffffffffffffffffffffffffffffffff160217905550505062000191565b60006200011e825162000171565b905092915050565b600080604083850312600181146200013e5762000143565b600080fd5b506000620001548582860162000110565b9250506020620001678582860162000110565b9150509250929050565b600073ffffffffffffffffffffffffffffffffffffffff82169050919050565b6154a580620001a16000396000f300606060405260043610610128576000357c0100000000000000000000000000000000000000000000000000000000900463ffffffff16806308b6a33d1461013557806317ffc32014610160578063271eff941461018257806332cda779146101b857806335f71899146101e157806337b6d96b1461020c57806340490a90146102425780635759f3f71461026b5780636cb6b41f1461028d5780638a05aafa146102b65780638da5cb5b146102d8578063918d5688146103015780639f727c271461032a578063acd37b7b1461033f578063afc6285314610375578063c0ee0b8a146103ab578063c1fe551a146103cd578063c90054ee14610403578063d09687f714610425578063e00a768d1461045b578063f2fde38b14610491578063f8a68a56146104b3575b341561013357600080fd5b005b61014a6004610145903690614dc0565b6104e9565b6040516101579190615086565b60405180910390f35b341561016b57600080fd5b610180600461017b903690614ea3565b610b87565b005b341561018d57600080fd5b6101a2600461019d903690614d36565b610cc8565b6040516101af9190615086565b60405180910390f35b34156101c357600080fd5b6101cb610cee565b6040516101d89190615152565b60405180910390f35b6101f660046101f1903690614e5e565b610cf8565b6040516102039190615086565b60405180910390f35b341561021757600080fd5b61022c6004610227903690614f08565b610fc3565b6040516102399190615086565b60405180910390f35b341561024d57600080fd5b61025561109e565b6040516102629190615152565b60405180910390f35b341561027657600080fd5b61028b6004610286903690614f08565b6110a8565b005b341561029857600080fd5b6102a061110d565b6040516102ad9190615152565b60405180910390f35b34156102c157600080fd5b6102d660046102d1903690614f08565b611117565b005b34156102e357600080fd5b6102eb61117c565b6040516102f89190615042565b60405180910390f35b341561030c57600080fd5b6103146111a1565b6040516103219190615152565b60405180910390f35b341561033557600080fd5b61033d6111a9565b005b341561034a57600080fd5b61035f600461035a903690614f3a565b61127b565b60405161036c9190615086565b60405180910390f35b341561038057600080fd5b6103956004610390903690614d68565b611ac5565b6040516103a29190615086565b60405180910390f35b34156103b657600080fd5b6103cb60046103c6903690614cb8565b612059565b005b34156103d857600080fd5b6103ed60046103e8903690614f08565b61205e565b6040516103fa9190615086565b60405180910390f35b341561040e57600080fd5b610423600461041e903690614f08565b61261d565b005b341561043057600080fd5b6104456004610440903690614f08565b612682565b60405161045291906150a1565b60405180910390f35b341561046657600080fd5b61047b6004610476903690614e2c565b61277e565b6040516104889190615152565b60405180910390f35b341561049c57600080fd5b6104b160046104ac903690614c86565b612ca8565b005b34156104be57600080fd5b6104d360046104ce903690614ed5565b612dfd565b6040516104e09190615086565b60405180910390f35b6000806000806401000000000287600060028110151561050557fe5b602002015163ffffffff19161415151561051e57600080fd5b6004543414151561052e57600080fd5b866040518082600260200280838360005b8381101561055a57808201518184015260208101905061053f565b5050505090500191505060405180910390209150600160009054906101000a900473ffffffffffffffffffffffffffffffffffffffff1673ffffffffffffffffffffffffffffffffffffffff16631dbd9d9183866040518363ffffffff167c01000000000000000000000000000000000000000000000000000000000281526004016105e79291906150bc565b600060405180830381600087803b151561060057600080fd5b6102c65a03f1151561061157600080fd5b505050600160009054906101000a900473ffffffffffffffffffffffffffffffffffffffff1673ffffffffffffffffffffffffffffffffffffffff16633541fd53836004546040518363ffffffff167c010000000000000000000000000000000000000000000000000000000002815260040161068f92919061510e565b600060405180830381600087803b15156106a857600080fd5b6102c65a03f115156106b957600080fd5b505050600160009054906101000a900473ffffffffffffffffffffffffffffffffffffffff1673ffffffffffffffffffffffffffffffffffffffff166108fc6004549081150290604051600060405180830381858888f19350505050151561072057600080fd5b6000600160009054906101000a900473ffffffffffffffffffffffffffffffffffffffff1673ffffffffffffffffffffffffffffffffffffffff166303a53d6b886000604051602001526040518263ffffffff167c01000000000000000000000000000000000000000000000000000000000281526004016107a29190615152565b602060405180830381600087803b15156107bb57600080fd5b6102c65a03f115156107cc57600080fd5b505050604051805190501415156107e257600080fd5b600160009054906101000a900473ffffffffffffffffffffffffffffffffffffffff1673ffffffffffffffffffffffffffffffffffffffff1663e3100d1e87436040518363ffffffff167c010000000000000000000000000000000000000000000000000000000002815260040161085b9291906151bf565b600060405180830381600087803b151561087457600080fd5b6102c65a03f1151561088557600080fd5b505050600160009054906101000a900473ffffffffffffffffffffffffffffffffffffffff1673ffffffffffffffffffffffffffffffffffffffff16630b62839587896040518363ffffffff167c010000000000000000000000000000000000000000000000000000000002815260040161090192919061516d565b600060405180830381600087803b151561091a57600080fd5b6102c65a03f1151561092b57600080fd5b50505060007f010000000000000000000000000000000000000000000000000000000000000002857effffffffffffffffffffffffffffffffffffffffffffffffffffffffffffff19161115610ad357600160009054906101000a900473ffffffffffffffffffffffffffffffffffffffff1673ffffffffffffffffffffffffffffffffffffffff16631dba566087876040518363ffffffff167c01000000000000000000000000000000000000000000000000000000000281526004016109f4929190615196565b600060405180830381600087803b1515610a0d57600080fd5b6102c65a03f11515610a1e57600080fd5b505050610a2a8561277e565b9050600160009054906101000a900473ffffffffffffffffffffffffffffffffffffffff1673ffffffffffffffffffffffffffffffffffffffff1663a47bd49687836040518363ffffffff167c0100000000000000000000000000000000000000000000000000000000028152600401610aa59291906151bf565b600060405180830381600087803b1515610abe57600080fd5b6102c65a03f11515610acf57600080fd5b5050505b600160009054906101000a900473ffffffffffffffffffffffffffffffffffffffff1673ffffffffffffffffffffffffffffffffffffffff166340c10f1985886040518363ffffffff167c0100000000000000000000000000000000000000000000000000000000028152600401610b4c92919061505d565b600060405180830381600087803b1515610b6557600080fd5b6102c65a03f11515610b7657600080fd5b505050600192505050949350505050565b60008060009054906101000a900473ffffffffffffffffffffffffffffffffffffffff1673ffffffffffffffffffffffffffffffffffffffff163373ffffffffffffffffffffffffffffffffffffffff16141515610be457600080fd5b8173ffffffffffffffffffffffffffffffffffffffff166370a08231306000604051602001526040518263ffffffff167c0100000000000000000000000000000000000000000000000000000000028152600401610c429190615137565b602060405180830381600087803b1515610c5b57600080fd5b6102c65a03f11515610c6c57600080fd5b505050604051805190509050610cc46000809054906101000a900473ffffffffffffffffffffffffffffffffffffffff16828473ffffffffffffffffffffffffffffffffffffffff16612e309092919063ffffffff16565b5050565b6000610cd2614796565b610cdb83612ed1565b9050610ce681612dfd565b915050919050565b6000600554905090565b6000808273ffffffffffffffffffffffffffffffffffffffff1614151515610d1f57600080fd5b60045434141515610d2f57600080fd5b6000600160009054906101000a900473ffffffffffffffffffffffffffffffffffffffff1673ffffffffffffffffffffffffffffffffffffffff16638784ea96856000604051602001526040518263ffffffff167c0100000000000000000000000000000000000000000000000000000000028152600401610db191906150a1565b602060405180830381600087803b1515610dca57600080fd5b6102c65a03f11515610ddb57600080fd5b5050506040518051905073ffffffffffffffffffffffffffffffffffffffff16141515610e0757600080fd5b600160009054906101000a900473ffffffffffffffffffffffffffffffffffffffff1673ffffffffffffffffffffffffffffffffffffffff16631dbd9d9184846040518363ffffffff167c0100000000000000000000000000000000000000000000000000000000028152600401610e809291906150bc565b600060405180830381600087803b1515610e9957600080fd5b6102c65a03f11515610eaa57600080fd5b505050600160009054906101000a900473ffffffffffffffffffffffffffffffffffffffff1673ffffffffffffffffffffffffffffffffffffffff16633541fd53846004546040518363ffffffff167c0100000000000000000000000000000000000000000000000000000000028152600401610f2892919061510e565b600060405180830381600087803b1515610f4157600080fd5b6102c65a03f11515610f5257600080fd5b505050600160009054906101000a900473ffffffffffffffffffffffffffffffffffffffff1673ffffffffffffffffffffffffffffffffffffffff166108fc6004549081150290604051600060405180830381858888f193505050501515610fb957600080fd5b6001905092915050565b600080600160009054906101000a900473ffffffffffffffffffffffffffffffffffffffff1673ffffffffffffffffffffffffffffffffffffffff166303a53d6b846000604051602001526040518263ffffffff167c01000000000000000000000000000000000000000000000000000000000281526004016110469190615152565b602060405180830381600087803b151561105f57600080fd5b6102c65a03f1151561107057600080fd5b505050604051805190509050600081141561108e5760009150611098565b6005548143031191505b50919050565b6000600354905090565b6000809054906101000a900473ffffffffffffffffffffffffffffffffffffffff1673ffffffffffffffffffffffffffffffffffffffff163373ffffffffffffffffffffffffffffffffffffffff1614151561110357600080fd5b8060058190555050565b6000600454905090565b6000809054906101000a900473ffffffffffffffffffffffffffffffffffffffff1673ffffffffffffffffffffffffffffffffffffffff163373ffffffffffffffffffffffffffffffffffffffff1614151561117257600080fd5b8060038190555050565b6000809054906101000a900473ffffffffffffffffffffffffffffffffffffffff1681565b600043905090565b6000809054906101000a900473ffffffffffffffffffffffffffffffffffffffff1673ffffffffffffffffffffffffffffffffffffffff163373ffffffffffffffffffffffffffffffffffffffff1614151561120457600080fd5b6000809054906101000a900473ffffffffffffffffffffffffffffffffffffffff1673ffffffffffffffffffffffffffffffffffffffff166108fc3073ffffffffffffffffffffffffffffffffffffffff16319081150290604051600060405180830381858888f19350505050151561127957fe5b565b60008061128661484a565b61128e614796565b600080600060019550600160009054906101000a900473ffffffffffffffffffffffffffffffffffffffff1673ffffffffffffffffffffffffffffffffffffffff166362f9acf98a6000604051604001526040518263ffffffff167c01000000000000000000000000000000000000000000000000000000000281526004016113179190615152565b6040805180830381600087803b151561132f57600080fd5b6102c65a03f1151561134057600080fd5b50505060405180604001604052945060006401000000000285600060028110151561136757fe5b602002015163ffffffff19161415151561138057600080fd5b61138985612ed1565b935061139484612dfd565b1561179a57600160009054906101000a900473ffffffffffffffffffffffffffffffffffffffff1673ffffffffffffffffffffffffffffffffffffffff1663c53b4bf98a6000604051602001526040518263ffffffff167c01000000000000000000000000000000000000000000000000000000000281526004016114199190615152565b602060405180830381600087803b151561143257600080fd5b6102c65a03f1151561144357600080fd5b5050506040518051905092508360600151151560007f01000000000000000000000000000000000000000000000000000000000000000260017f0100000000000000000000000000000000000000000000000000000000000000026004867effffffffffffffffffffffffffffffffffffffffffffffffffffffffffffff19169060020a9004167effffffffffffffffffffffffffffffffffffffffffffffffffffffffffffff1916111515146114fb5760006114fd565b855b95508360800151151560007f01000000000000000000000000000000000000000000000000000000000000000260017f0100000000000000000000000000000000000000000000000000000000000000026003867effffffffffffffffffffffffffffffffffffffffffffffffffffffffffffff19169060020a9004167effffffffffffffffffffffffffffffffffffffffffffffffffffffffffffff1916111515146115ab5760006115ad565b855b95508360a00151151560007f01000000000000000000000000000000000000000000000000000000000000000260017f0100000000000000000000000000000000000000000000000000000000000000026002867effffffffffffffffffffffffffffffffffffffffffffffffffffffffffffff19169060020a9004167effffffffffffffffffffffffffffffffffffffffffffffffffffffffffffff19161115151461165b57600061165d565b855b95508360c00151151560007f01000000000000000000000000000000000000000000000000000000000000000260017f0100000000000000000000000000000000000000000000000000000000000000026001867effffffffffffffffffffffffffffffffffffffffffffffffffffffffffffff19169060020a9004167effffffffffffffffffffffffffffffffffffffffffffffffffffffffffffff19161115151461170b57600061170d565b855b95508360e00151151560007f01000000000000000000000000000000000000000000000000000000000000000260017f01000000000000000000000000000000000000000000000000000000000000000285167effffffffffffffffffffffffffffffffffffffffffffffffffffffffffffff191611151514611791576000611793565b855b955061179f565b600095505b851515611ab057600160009054906101000a900473ffffffffffffffffffffffffffffffffffffffff1673ffffffffffffffffffffffffffffffffffffffff16630e8310d68a6040518263ffffffff167c010000000000000000000000000000000000000000000000000000000002815260040161181d9190615152565b600060405180830381600087803b151561183657600080fd5b6102c65a03f1151561184757600080fd5b505050846040518082600260200280838360005b8381101561187657808201518184015260208101905061185b565b505050509050019150506040518091039020915061189389610fc3565b1515611a0757600160009054906101000a900473ffffffffffffffffffffffffffffffffffffffff1673ffffffffffffffffffffffffffffffffffffffff1663e765c122836000604051602001526040518263ffffffff167c010000000000000000000000000000000000000000000000000000000002815260040161191991906150a1565b602060405180830381600087803b151561193257600080fd5b6102c65a03f1151561194357600080fd5b505050604051805190509050600160009054906101000a900473ffffffffffffffffffffffffffffffffffffffff1673ffffffffffffffffffffffffffffffffffffffff16631cc1472d89836000604051602001526040518363ffffffff167c01000000000000000000000000000000000000000000000000000000000281526004016119d192919061505d565b602060405180830381600087803b15156119ea57600080fd5b6102c65a03f115156119fb57600080fd5b50505060405180519050505b600160009054906101000a900473ffffffffffffffffffffffffffffffffffffffff1673ffffffffffffffffffffffffffffffffffffffff166364e779b18a6040518263ffffffff167c0100000000000000000000000000000000000000000000000000000000028152600401611a7e9190615152565b600060405180830381600087803b1515611a9757600080fd5b6102c65a03f11515611aa857600080fd5b505050611ab5565b600080fd5b6001965050505050505092915050565b600080600080600064010000000002876000600281101515611ae357fe5b602002015163ffffffff191614151515611afc57600080fd5b866040518082600260200280838360005b83811015611b28578082015181840152602081019050611b0d565b5050505090500191505060405180910390209250600160009054906101000a900473ffffffffffffffffffffffffffffffffffffffff1673ffffffffffffffffffffffffffffffffffffffff16638784ea96846000604051602001526040518263ffffffff167c0100000000000000000000000000000000000000000000000000000000028152600401611bbc91906150a1565b602060405180830381600087803b1515611bd557600080fd5b6102c65a03f11515611be657600080fd5b5050506040518051905091506000600160009054906101000a900473ffffffffffffffffffffffffffffffffffffffff1673ffffffffffffffffffffffffffffffffffffffff166303a53d6b886000604051602001526040518263ffffffff167c0100000000000000000000000000000000000000000000000000000000028152600401611c749190615152565b602060405180830381600087803b1515611c8d57600080fd5b6102c65a03f11515611c9e57600080fd5b50505060405180519050141515611cb457600080fd5b600160009054906101000a900473ffffffffffffffffffffffffffffffffffffffff1673ffffffffffffffffffffffffffffffffffffffff1663e3100d1e87436040518363ffffffff167c0100000000000000000000000000000000000000000000000000000000028152600401611d2d9291906151bf565b600060405180830381600087803b1515611d4657600080fd5b6102c65a03f11515611d5757600080fd5b505050600160009054906101000a900473ffffffffffffffffffffffffffffffffffffffff1673ffffffffffffffffffffffffffffffffffffffff16630b62839587896040518363ffffffff167c0100000000000000000000000000000000000000000000000000000000028152600401611dd392919061516d565b600060405180830381600087803b1515611dec57600080fd5b6102c65a03f11515611dfd57600080fd5b50505060007f010000000000000000000000000000000000000000000000000000000000000002857effffffffffffffffffffffffffffffffffffffffffffffffffffffffffffff19161115611fa557600160009054906101000a900473ffffffffffffffffffffffffffffffffffffffff1673ffffffffffffffffffffffffffffffffffffffff16631dba566087876040518363ffffffff167c0100000000000000000000000000000000000000000000000000000000028152600401611ec6929190615196565b600060405180830381600087803b1515611edf57600080fd5b6102c65a03f11515611ef057600080fd5b505050611efc8561277e565b9050600160009054906101000a900473ffffffffffffffffffffffffffffffffffffffff1673ffffffffffffffffffffffffffffffffffffffff1663a47bd49687836040518363ffffffff167c0100000000000000000000000000000000000000000000000000000000028152600401611f779291906151bf565b600060405180830381600087803b1515611f9057600080fd5b6102c65a03f11515611fa157600080fd5b5050505b600160009054906101000a900473ffffffffffffffffffffffffffffffffffffffff1673ffffffffffffffffffffffffffffffffffffffff166340c10f1983886040518363ffffffff167c010000000000000000000000000000000000000000000000000000000002815260040161201e92919061505d565b600060405180830381600087803b151561203757600080fd5b6102c65a03f1151561204857600080fd5b505050600193505050509392505050565b600080fd5b600061206861484a565b600080600080600160009054906101000a900473ffffffffffffffffffffffffffffffffffffffff1673ffffffffffffffffffffffffffffffffffffffff166362f9acf9886000604051604001526040518263ffffffff167c01000000000000000000000000000000000000000000000000000000000281526004016120ee9190615152565b6040805180830381600087803b151561210657600080fd5b6102c65a03f1151561211757600080fd5b50505060405180604001604052945060006401000000000285600060028110151561213e57fe5b602002015163ffffffff19161415151561215757600080fd5b846040518082600260200280838360005b83811015612183578082015181840152602081019050612168565b5050505090500191505060405180910390209350600160009054906101000a900473ffffffffffffffffffffffffffffffffffffffff1673ffffffffffffffffffffffffffffffffffffffff1663e765c122856000604051602001526040518263ffffffff167c010000000000000000000000000000000000000000000000000000000002815260040161221791906150a1565b602060405180830381600087803b151561223057600080fd5b6102c65a03f1151561224157600080fd5b5050506040518051905092506000831415151561225d57600080fd5b61226687610fc3565b151561227157600080fd5b600160009054906101000a900473ffffffffffffffffffffffffffffffffffffffff1673ffffffffffffffffffffffffffffffffffffffff16633541fd538560006040518363ffffffff167c01000000000000000000000000000000000000000000000000000000000281526004016122eb9291906150e5565b600060405180830381600087803b151561230457600080fd5b6102c65a03f1151561231557600080fd5b505050612321876131c3565b600160009054906101000a900473ffffffffffffffffffffffffffffffffffffffff1673ffffffffffffffffffffffffffffffffffffffff16638784ea96856000604051602001526040518263ffffffff167c01000000000000000000000000000000000000000000000000000000000281526004016123a191906150a1565b602060405180830381600087803b15156123ba57600080fd5b6102c65a03f115156123cb57600080fd5b505050604051805190509150600160009054906101000a900473ffffffffffffffffffffffffffffffffffffffff1673ffffffffffffffffffffffffffffffffffffffff16631c4b774b886000604051602001526040518263ffffffff167c01000000000000000000000000000000000000000000000000000000000281526004016124579190615152565b602060405180830381600087803b151561247057600080fd5b6102c65a03f1151561248157600080fd5b505050604051805190509050600260009054906101000a900473ffffffffffffffffffffffffffffffffffffffff1673ffffffffffffffffffffffffffffffffffffffff166340c10f1983836000604051602001526040518363ffffffff167c010000000000000000000000000000000000000000000000000000000002815260040161250f92919061505d565b602060405180830381600087803b151561252857600080fd5b6102c65a03f1151561253957600080fd5b50505060405180519050151561254e57600080fd5b600160009054906101000a900473ffffffffffffffffffffffffffffffffffffffff1673ffffffffffffffffffffffffffffffffffffffff16631cc1472d83856000604051602001526040518363ffffffff167c01000000000000000000000000000000000000000000000000000000000281526004016125d092919061505d565b602060405180830381600087803b15156125e957600080fd5b6102c65a03f115156125fa57600080fd5b50505060405180519050151561260f57600080fd5b600195505050505050919050565b6000809054906101000a900473ffffffffffffffffffffffffffffffffffffffff1673ffffffffffffffffffffffffffffffffffffffff163373ffffffffffffffffffffffffffffffffffffffff1614151561267857600080fd5b8060048190555050565b6000600160009054906101000a900473ffffffffffffffffffffffffffffffffffffffff1673ffffffffffffffffffffffffffffffffffffffff166362f9acf9836000604051604001526040518263ffffffff167c01000000000000000000000000000000000000000000000000000000000281526004016127049190615152565b6040805180830381600087803b151561271c57600080fd5b6102c65a03f1151561272d57600080fd5b505050604051806040016040526040518082600260200280838360005b8381101561276557808201518184015260208101905061274a565b5050505090500191505060405180910390209050919050565b600080600080600080600080600160009054906101000a900473ffffffffffffffffffffffffffffffffffffffff1673ffffffffffffffffffffffffffffffffffffffff1663785d8d71600060405160c001526040518163ffffffff167c010000000000000000000000000000000000000000000000000000000002815260040160c060405180830381600087803b151561281857600080fd5b6102c65a03f1151561282957600080fd5b50505060405180519060200180519060200180519060200180519060200180519060200180519050809750819850829950839a50849b50859c505050505050506000905060017f01000000000000000000000000000000000000000000000000000000000000000260017f01000000000000000000000000000000000000000000000000000000000000000260048b7effffffffffffffffffffffffffffffffffffffffffffffffffffffffffffff19169060020a9004167effffffffffffffffffffffffffffffffffffffffffffffffffffffffffffff1916141561294b576129486129396001880161292b60018b0160035461370190919063ffffffff16565b61373c90919063ffffffff16565b8261375790919063ffffffff16565b90505b60017f01000000000000000000000000000000000000000000000000000000000000000260017f01000000000000000000000000000000000000000000000000000000000000000260038b7effffffffffffffffffffffffffffffffffffffffffffffffffffffffffffff19169060020a9004167effffffffffffffffffffffffffffffffffffffffffffffffffffffffffffff19161415612a2957612a26612a1760018701612a0960018b0160035461370190919063ffffffff16565b61373c90919063ffffffff16565b8261375790919063ffffffff16565b90505b60017f01000000000000000000000000000000000000000000000000000000000000000260017f01000000000000000000000000000000000000000000000000000000000000000260028b7effffffffffffffffffffffffffffffffffffffffffffffffffffffffffffff19169060020a9004167effffffffffffffffffffffffffffffffffffffffffffffffffffffffffffff19161415612b0757612b04612af560018601612ae760018b0160035461370190919063ffffffff16565b61373c90919063ffffffff16565b8261375790919063ffffffff16565b90505b60017f01000000000000000000000000000000000000000000000000000000000000000260017f01000000000000000000000000000000000000000000000000000000000000000260018b7effffffffffffffffffffffffffffffffffffffffffffffffffffffffffffff19169060020a9004167effffffffffffffffffffffffffffffffffffffffffffffffffffffffffffff19161415612be557612be2612bd360018501612bc560018b0160035461370190919063ffffffff16565b61373c90919063ffffffff16565b8261375790919063ffffffff16565b90505b60017f01000000000000000000000000000000000000000000000000000000000000000260017f0100000000000000000000000000000000000000000000000000000000000000028a167effffffffffffffffffffffffffffffffffffffffffffffffffffffffffffff19161415612c9957612c96612c8760018401612c7960018b0160035461370190919063ffffffff16565b61373c90919063ffffffff16565b8261375790919063ffffffff16565b90505b80975050505050505050919050565b6000809054906101000a900473ffffffffffffffffffffffffffffffffffffffff1673ffffffffffffffffffffffffffffffffffffffff163373ffffffffffffffffffffffffffffffffffffffff16141515612d0357600080fd5b600073ffffffffffffffffffffffffffffffffffffffff168173ffffffffffffffffffffffffffffffffffffffff1614151515612d3f57600080fd5b8073ffffffffffffffffffffffffffffffffffffffff166000809054906101000a900473ffffffffffffffffffffffffffffffffffffffff1673ffffffffffffffffffffffffffffffffffffffff167f8be0079c531659141344cd1fd0a4f28419497f9722a3daafe3b4186f6b6457e060405160405180910390a3806000806101000a81548173ffffffffffffffffffffffffffffffffffffffff021916908373ffffffffffffffffffffffffffffffffffffffff16021790555050565b6000816000015115612e125760009050612e2b565b81602001511515612e265760009050612e2b565b600190505b919050565b8273ffffffffffffffffffffffffffffffffffffffff1663a9059cbb83836000604051602001526040518363ffffffff167c0100000000000000000000000000000000000000000000000000000000028152600401612e9092919061505d565b602060405180830381600087803b1515612ea957600080fd5b6102c65a03f11515612eba57600080fd5b505050604051805190501515612ecc57fe5b505050565b612ed9614796565b612ee1614796565b600080600080600080886000600281101515612ef957fe5b602002015187610120019063ffffffff1916908163ffffffff191681525050886001600281101515612f2757fe5b602002015187610140019063ffffffff1916908163ffffffff191681525050600087610180019060ff16908160ff16815250506002876101a0019060ff16908160ff16815250506002876101c0019060ff16908160ff168152505060008760000190151590811515815250506000876020019015159081151581525050600187610160019060ff16908160ff16815250506ffffffffffffffe7ffdbfffffffffffff700100000000000000000000000000000000028761010001906fffffffffffffffffffffffffffffffff191690816fffffffffffffffffffffffffffffffff191681525050600091505b603c8260ff16108015613024575085155b1561319257602087610180015160ff16106130445786610140015161304b565b8661012001515b905061306d81602089610180015160ff1681151561306557fe5b066020613775565b9450613078856137b9565b8094508195505050613089856137f8565b1595508515801561309d575060088460ff16105b80156130ac575060088360ff16105b80156130bc575060008460ff1610155b80156130cc575060008360ff1610155b15613185576130dc878585613809565b965060018761018001510187610180019060ff16908160ff1681525050866000015115613184576000876000019015159081151581525050600160ff1687610160015160ff16141561314157600287610160019060ff16908160ff1681525050613156565b600187610160019060ff16908160ff16815250505b613161878585613809565b9650866000015115613183576001955060008760000190151590811515815250505b5b5b8180600101925050613013565b866000015115156131b4576131a687613b0b565b96506131b187613dc4565b96505b86975050505050505050919050565b6000806000806000806000600160009054906101000a900473ffffffffffffffffffffffffffffffffffffffff1673ffffffffffffffffffffffffffffffffffffffff1663785d8d71600060405160c001526040518163ffffffff167c010000000000000000000000000000000000000000000000000000000002815260040160c060405180830381600087803b151561325c57600080fd5b6102c65a03f1151561326d57600080fd5b50505060405180519060200180519060200180519060200180519060200180519060200180519050809750819850829950839a50849b50859c50505050505050600160009054906101000a900473ffffffffffffffffffffffffffffffffffffffff1673ffffffffffffffffffffffffffffffffffffffff1663c53b4bf9896000604051602001526040518263ffffffff167c010000000000000000000000000000000000000000000000000000000002815260040161332d9190615152565b602060405180830381600087803b151561334657600080fd5b6102c65a03f1151561335757600080fd5b5050506040518051905090506133ce60007f010000000000000000000000000000000000000000000000000000000000000002827effffffffffffffffffffffffffffffffffffffffffffffffffffffffffffff1916116133b95760006133bc565b60015b60ff168861375790919063ffffffff16565b965061345560017f0100000000000000000000000000000000000000000000000000000000000000026004837effffffffffffffffffffffffffffffffffffffffffffffffffffffffffffff19169060020a9004167f010000000000000000000000000000000000000000000000000000000000000090048761375790919063ffffffff16565b95506134dc60017f0100000000000000000000000000000000000000000000000000000000000000026003837effffffffffffffffffffffffffffffffffffffffffffffffffffffffffffff19169060020a9004167f010000000000000000000000000000000000000000000000000000000000000090048661375790919063ffffffff16565b945061356360017f0100000000000000000000000000000000000000000000000000000000000000026002837effffffffffffffffffffffffffffffffffffffffffffffffffffffffffffff19169060020a9004167f010000000000000000000000000000000000000000000000000000000000000090048561375790919063ffffffff16565b93506135ea60017f0100000000000000000000000000000000000000000000000000000000000000026001837effffffffffffffffffffffffffffffffffffffffffffffffffffffffffffff19169060020a9004167f010000000000000000000000000000000000000000000000000000000000000090048461375790919063ffffffff16565b925061364760017f01000000000000000000000000000000000000000000000000000000000000000282167f010000000000000000000000000000000000000000000000000000000000000090048361375790919063ffffffff16565b9150600160009054906101000a900473ffffffffffffffffffffffffffffffffffffffff1673ffffffffffffffffffffffffffffffffffffffff16638b1b2ba88888888888886040518763ffffffff167c01000000000000000000000000000000000000000000000000000000000281526004016136ca969594939291906151e8565b600060405180830381600087803b15156136e357600080fd5b6102c65a03f115156136f457600080fd5b5050505050505050505050565b60008060008414156137165760009150613735565b828402905082848281151561372757fe5b0414151561373157fe5b8091505b5092915050565b600080828481151561374a57fe5b0490508091505092915050565b600080828401905083811015151561376b57fe5b8091505092915050565b6000806000607f64010000000002915060078086026007860203039050818160ff168763ffffffff19169060020a9004166401000000009004925050509392505050565b60008060008060408503945060088560ff168115156137d457fe5b069150600882860360ff168115156137e857fe5b0490508181935093505050915091565b600060408260ff1610159050919050565b613811614796565b613819614878565b600080600080600080600080600360ff1661383a8e61010001518e8e6140bc565b60ff1614151561385d5760018d60000190151590811515815250508c9950613afb565b6138688d8d8d614152565b809950819a50505060008860ff1614156138955760018d60000190151590811515815250508c9950613afb565b60009150600090505b8760ff168160ff1610156139fb5760009650600095506138d58d8a8360ff166008811015156138c957fe5b60200201518e8e614491565b8097508198505050600092505b8560ff168360ff1610156139ee578115156138fc57600191505b61390f61390a888589613775565b6137b9565b809550819650505061392d8d61010001518e610160015187876145ff565b8d61010001906fffffffffffffffffffffffffffffffff191690816fffffffffffffffffffffffffffffffff191681525050600260ff168d610160015160ff1614156139ac5760018d6101c0018181510191509060ff16908160ff168152505060018d6101a0018181510391509060ff16908160ff16815250506139e1565b60018d6101c0018181510391509060ff16908160ff168152505060018d6101a0018181510191509060ff16908160ff16815250505b82806001019350506138e2565b808060010191505061389e565b8115613a9c57613a178d61010001518e61016001518e8e6145ff565b8d61010001906fffffffffffffffffffffffffffffffff191690816fffffffffffffffffffffffffffffffff191681525050600260ff168d610160015160ff161415613a7c5760018d6101c0018181510191509060ff16908160ff1681525050613a97565b60018d6101a0018181510191509060ff16908160ff16815250505b613ab5565b60018d60000190151590811515815250508c9950613afb565b600160ff168d610160015160ff161415613ae25760028d610160019060ff16908160ff1681525050613af7565b60018d610160019060ff16908160ff16815250505b8c99505b5050505050505050509392505050565b613b13614796565b613b1b6148a7565b600080600080613b29614796565b613b316148d6565b603c89610180015160ff161480613b5057506000896101a0015160ff16145b80613b6357506000896101c0015160ff16145b15613b925760008960000190151590811515815250506001896020019015159081151581525050889750613db8565b60009550600094505b60408560ff161015613c7457613be58961010001516008808860ff16811515613bc057fe5b06880360ff16811515613bcf57fe5b0460088860ff16811515613bdf57fe5b066140bc565b9350600360ff168460ff161415613c675760408051908101604052806008808860ff16811515613c1157fe5b06880360ff16811515613c2057fe5b0460ff1660ff16815260200160088760ff16811515613c3b57fe5b0660ff1660ff16815250878760ff16603c81101515613c5657fe5b602002018190525085806001019650505b8480600101955050613b9b565b6000925060008660ff161115613d7557600094505b8560ff168560ff16108015613c9c575082155b15613d7457868560ff16603c81101515613cb257fe5b60200201519050600189610160019060ff16908160ff1681525050613cfe89826000600281101515613ce057fe5b6020020151836001600281101515613cf457fe5b6020020151613809565b915081600001511515613d1057600192505b600289610160019060ff16908160ff1681525050613d5589826000600281101515613d3757fe5b6020020151836001600281101515613d4b57fe5b6020020151613809565b915081600001511515613d6757600192505b8480600101955050613c89565b5b8215613d91576001896000019015159081151581525050613db4565b600189602001901515908115158152505060008960000190151590811515815250505b8897505b50505050505050919050565b613dcc614796565b60008060008060008060006001965060019550600194506001935060019250600091505b60088260ff16108015613e2057508680613e075750855b80613e0f5750845b80613e175750835b80613e1f5750825b5b1561402557600090505b60088160ff16108015613e5a57508680613e415750855b80613e495750845b80613e515750835b80613e595750825b5b1561401857613e7589610100015183600703836007036146ab565b6fffffffffffffffffffffffffffffffff1916613e988a610100015184846146ab565b6fffffffffffffffffffffffffffffffff1916141515613eb757600096505b613eca89610100015183836007036146ab565b6fffffffffffffffffffffffffffffffff1916613eed8a610100015184846146ab565b6fffffffffffffffffffffffffffffffff1916141515613f0c57600095505b613f1f89610100015183600703836146ab565b6fffffffffffffffffffffffffffffffff1916613f428a610100015184846146ab565b6fffffffffffffffffffffffffffffffff1916141515613f6157600094505b613f7789610100015182600703846007036146ab565b6fffffffffffffffffffffffffffffffff1916613f9a8a610100015184846146ab565b6fffffffffffffffffffffffffffffffff1916141515613fb957600093505b613fc989610100015182846146ab565b6fffffffffffffffffffffffffffffffff1916613fec8a610100015184846146ab565b6fffffffffffffffffffffffffffffffff191614151561400b57600092505b8080600101915050613e2a565b8180600101925050613df0565b868061402e5750855b806140365750845b8061403e5750835b806140465750825b156140ad5760018960400190151590811515815250508689606001901515908115158152505085896080019015159081151581525050848960a0019015159081151581525050838960c0019015159081151581525050828960e00190151590811515815250505b88975050505050505050919050565b6000806000806140cc8686614732565b9250826fffffffffffffffffffffffffffffffff1660039060020a0260ff167001000000000000000000000000000000000287169150826fffffffffffffffffffffffffffffffff16826fffffffffffffffffffffffffffffffff19169060020a9004905080700100000000000000000000000000000000900493505050509392505050565b61415a614878565b6000614164614878565b600061416e614878565b600080614179614900565b600080600096506101006040519081016040528060408051908101604052807fffffffffffffffffffffffffffffffffffffffffffffffffffffffffffffffff60000b60000b81526020016000800b60000b815250815260200160408051908101604052807fffffffffffffffffffffffffffffffffffffffffffffffffffffffffffffffff60000b60000b8152602001600160000b60000b815250815260200160408051908101604052806000800b60000b8152602001600160000b60000b81525081526020016040805190810160405280600160000b60000b8152602001600160000b60000b81525081526020016040805190810160405280600160000b60000b81526020016000800b60000b81525081526020016040805190810160405280600160000b60000b81526020017fffffffffffffffffffffffffffffffffffffffffffffffffffffffffffffffff60000b60000b815250815260200160408051908101604052806000800b60000b81526020017fffffffffffffffffffffffffffffffffffffffffffffffffffffffffffffffff60000b60000b815250815260200160408051908101604052807fffffffffffffffffffffffffffffffffffffffffffffffffffffffffffffffff60000b60000b81526020017fffffffffffffffffffffffffffffffffffffffffffffffffffffffffffffffff60000b60000b8152508152509550600090505b60088160ff16101561447b57858160ff166008811015156143a557fe5b602002015192508260006002811015156143bb57fe5b60200201518c0193508260016002811015156143d357fe5b60200201518b01945060078560000b13806143f1575060008560000b125b806143ff575060078460000b135b8061440d575060008460000b125b151561446e576144238d610100015185876140bc565b91508c610160015160ff168260ff1614151561446d57600360ff168260ff1614151561446c5782888860ff1660088110151561445b57fe5b602002018190525086806001019750505b5b5b8080600101915050614388565b8787995099505050505050505050935093915050565b60008060008060008060008060008060008097508e61016001519650600160ff168f610160015160ff1614156144ca57600295506144cf565b600195505b60009450600190505b60098160ff1610156145e7578415156145da578c8e60006002811015156144fb57fe5b602002015182020193508b8e600160028110151561451557fe5b6020020151820201925060078460000b1380614534575060008460000b125b80614542575060078360000b135b80614550575060008360000b125b15614566576000985060009750600194506145d9565b6145768f610100015185856140bc565b91508560ff168260ff16141561459f576145928989868661474e565b809950819a5050506145d8565b8e610160015160ff168260ff161480156145bc575060018160ff16115b156145ca57600194506145d7565b6000985060009750600194505b5b5b5b80806001019150506144d8565b88889a509a5050505050505050505094509492505050565b600080600060078560ff16111561461557600080fd5b60078460ff16111561462657600080fd5b6146308585614732565b9150816fffffffffffffffffffffffffffffffff1660039060020a0260ff1670010000000000000000000000000000000002905086818818169650816fffffffffffffffffffffffffffffffff168660ff169060020a0260ff1670010000000000000000000000000000000002871792505050949350505050565b6000806146b88484614732565b9050806fffffffffffffffffffffffffffffffff16816fffffffffffffffffffffffffffffffff166003700100000000000000000000000000000000026fffffffffffffffffffffffffffffffff19169060020a0286166fffffffffffffffffffffffffffffffff19169060020a90049150509392505050565b600060026001838560080201016040030260ff16905092915050565b600080600060406008850286010160ff1664010000000002905060078763ffffffff19169060020a029650808717965085806001019650508686925092505094509492505050565b6101e06040519081016040528060001515815260200160001515815260200160001515815260200160001515815260200160001515815260200160001515815260200160001515815260200160001515815260200160006fffffffffffffffffffffffffffffffff19168152602001600063ffffffff19168152602001600063ffffffff19168152602001600060ff168152602001600060ff168152602001600060ff168152602001600060ff1681525090565b60408051908101604052806002905b600063ffffffff19168152602001906001900390816148595790505090565b610200604051908101604052806008905b614891614929565b8152602001906001900390816148895790505090565b610f0060405190810160405280603c905b6148c0614952565b8152602001906001900390816148b85790505090565b60408051908101604052806002905b600060ff168152602001906001900390816148e55790505090565b60408051908101604052806002905b6000800b81526020019060019003908161490f5790505090565b60408051908101604052806002905b6000800b8152602001906001900390816149385790505090565b60408051908101604052806002905b600060ff168152602001906001900390816149615790505090565b60006149888235615364565b905092915050565b600082601f830112600081146149a5576149aa565b600080fd5b5060026149be6149b98261527f565b615249565b915081838560208402820111600181146149d7576149dc565b600080fd5b5060005b83811015614a0d57816149f38882614a53565b8452602084019350602083019250506001810190506149e0565b5050505092915050565b6000614a238235615384565b905092915050565b6000614a378235615390565b905092915050565b6000614a4b82356153bc565b905092915050565b6000614a5f82356153e8565b905092915050565b6000614a738235615414565b905092915050565b60008083601f84011260008114614a9157614a96565b600080fd5b508235905067ffffffffffffffff811160018114614ab357614ab8565b600080fd5b50602083019150836001820283011160018114614ad457614ad9565b600080fd5b509250929050565b6000614aed823561541e565b905092915050565b60006101e08284031260018114614b0b57614b10565b600080fd5b50614b1c6101e0615249565b90506000614b2c84828501614a17565b6000830152506020614b4084828501614a17565b6020830152506040614b5484828501614a17565b6040830152506060614b6884828501614a17565b6060830152506080614b7c84828501614a17565b60808301525060a0614b9084828501614a17565b60a08301525060c0614ba484828501614a17565b60c08301525060e0614bb884828501614a17565b60e083015250610100614bcd84828501614a3f565b61010083015250610120614be384828501614a53565b61012083015250610140614bf984828501614a53565b61014083015250610160614c0f84828501614c72565b61016083015250610180614c2584828501614c72565b610180830152506101a0614c3b84828501614c72565b6101a0830152506101c0614c5184828501614c72565b6101c08301525092915050565b6000614c6a8235615430565b905092915050565b6000614c7e823561543a565b905092915050565b600060208284031260018114614c9b57614ca0565b600080fd5b506000614caf8482850161497c565b91505092915050565b60008060008060608587031260018114614cd157614cd6565b600080fd5b506000614ce58782880161497c565b9450506020614cf687828801614c5e565b935050604085013567ffffffffffffffff811160018114614d1657614d1b565b600080fd5b50614d2887828801614a7b565b925092505092959194509250565b600060408284031260018114614d4b57614d50565b600080fd5b506000614d5f84828501614990565b91505092915050565b600080600060808486031260018114614d8057614d85565b600080fd5b506000614d9486828701614990565b9350506040614da586828701614c5e565b9250506060614db686828701614a2b565b9150509250925092565b60008060008060a08587031260018114614dd957614dde565b600080fd5b506000614ded87828801614990565b9450506040614dfe87828801614c5e565b9350506060614e0f87828801614a2b565b9250506080614e208782880161497c565b91505092959194509250565b600060208284031260018114614e4157614e46565b600080fd5b506000614e5584828501614a2b565b91505092915050565b60008060408385031260018114614e7457614e79565b600080fd5b506000614e8885828601614a67565b9250506020614e998582860161497c565b9150509250929050565b600060208284031260018114614eb857614ebd565b600080fd5b506000614ecc84828501614ae1565b91505092915050565b60006101e08284031260018114614eeb57614ef0565b600080fd5b506000614eff84828501614af5565b91505092915050565b600060208284031260018114614f1d57614f22565b600080fd5b506000614f3184828501614c5e565b91505092915050565b60008060408385031260018114614f5057614f55565b600080fd5b506000614f6485828601614c5e565b9250506020614f758582860161497c565b9150509250929050565b614f88816152cc565b82525050565b614f97816152b4565b614fa0826152aa565b60005b82811015614fd257614fb6858351614ff7565b614fbf826152bf565b9150602085019450600181019050614fa3565b5050505050565b614fe2816152ec565b82525050565b614ff1816152f8565b82525050565b61500081615324565b82525050565b61500f81615350565b82525050565b61501e81615447565b82525050565b61502d81615459565b82525050565b61503c8161535a565b82525050565b60006020820190506150576000830184614f7f565b92915050565b60006040820190506150726000830185614f7f565b61507f6020830184615033565b9392505050565b600060208201905061509b6000830184614fd9565b92915050565b60006020820190506150b66000830184615006565b92915050565b60006040820190506150d16000830185615006565b6150de6020830184614f7f565b9392505050565b60006040820190506150fa6000830185615006565b6151076020830184615024565b9392505050565b60006040820190506151236000830185615006565b6151306020830184615033565b9392505050565b600060208201905061514c6000830184615015565b92915050565b60006020820190506151676000830184615033565b92915050565b60006060820190506151826000830185615033565b61518f6020830184614f8e565b9392505050565b60006040820190506151ab6000830185615033565b6151b86020830184614fe8565b9392505050565b60006040820190506151d46000830185615033565b6151e16020830184615033565b9392505050565b600060c0820190506151fd6000830189615033565b61520a6020830188615033565b6152176040830187615033565b6152246060830186615033565b6152316080830185615033565b61523e60a0830184615033565b979650505050505050565b6000604051905081810181811067ffffffffffffffff8211176001811461526f57615274565b600080fd5b508060405250919050565b600067ffffffffffffffff8211600181146152995761529e565b600080fd5b50602082029050919050565b6000819050919050565b600060029050919050565b6000602082019050919050565b600073ffffffffffffffffffffffffffffffffffffffff82169050919050565b60008115159050919050565b60007fff0000000000000000000000000000000000000000000000000000000000000082169050919050565b60007fffffffffffffffffffffffffffffffffffffffffffffffffffffffff0000000082169050919050565b6000819050919050565b6000819050919050565b600073ffffffffffffffffffffffffffffffffffffffff82169050919050565b60008115159050919050565b60007fff0000000000000000000000000000000000000000000000000000000000000082169050919050565b60007fffffffffffffffffffffffffffffffff0000000000000000000000000000000082169050919050565b60007fffffffffffffffffffffffffffffffffffffffffffffffffffffffff0000000082169050919050565b6000819050919050565b6000615429826152cc565b9050919050565b6000819050919050565b600060ff82169050919050565b6000615452826152cc565b9050919050565b60006154648261535a565b90509190505600a265627a7a72305820c548201185891d0e39b611b353ae777ada910a197111d079e3bc2ef0ee8ac4f46c6578706572696d656e74616cf50037",
  "source": "pragma solidity ^0.4.19;\npragma experimental ABIEncoderV2;\n\n/**\n * The CloversController is upgradeable and contains the logic used by CloversFrontend\n * Both adhere to the CloversFactory interface design\n */\nimport \"./IClovers.sol\";\nimport \"./Reversi.sol\";\nimport \"./Mintable.sol\";\nimport \"./CloversFactory.sol\";\nimport \"zeppelin-solidity/contracts/ownership/HasNoTokens.sol\";\nimport \"zeppelin-solidity/contracts/ownership/HasNoEther.sol\";\nimport \"zeppelin-solidity/contracts/math/SafeMath.sol\";\n\ncontract CloversController is CloversFactory, HasNoTokens, HasNoEther {\n    event cloverCommited(bytes32 movesHash, address miner);\n    event cloverRevealed(bytes28[2] moves, uint256 _tokenId, address miner);\n    event cloverClaimed(bytes28[2] moves, uint256 _tokenId, address miner);\n    event stakeRetrieved(bytes28[2] moves, uint256 _tokenId, address miner);\n    event cloverChallenged(bytes28[2] moves, uint256 _tokenId, address miner, address challenger);\n\n    using SafeMath for uint256;\n\n    address clovers;\n    address clubToken;\n\n    uint256 payMultiplier;\n    uint256 stakeAmount;\n    uint256 stakePeriod;\n\n    function CloversController(address _clovers, address _clubToken) public {\n        clovers = _clovers;\n        clubToken = _clubToken;\n    }    \n\n    /**\n    * @dev Gets the current staking amount needed to claim a Clover.\n    * @return A uint256 value of how much stake is needed.\n    */\n    function currentStakeAmount() public constant returns (uint256) {\n        return stakeAmount;\n    }\n    /**\n    * @dev Gets the current staking period needed to verify a Clover.\n    * @return A uint256 value of stake period in seconds.\n    */\n    function currentStakePeriod() public constant returns (uint256) {\n        return stakePeriod;\n    }\n    /**\n    * @dev Gets the current staking period needed to verify a Clover.\n    * @return A uint256 value of stake period in seconds.\n    */\n    function getMultiplier() public constant returns (uint256) {\n        return payMultiplier;\n    }\n    /**\n    * @dev Gets the current staking period needed to verify a Clover.\n    * @return A uint256 value of stake period in seconds.\n    */\n    function getMovesHash(uint _tokenId) public constant returns (bytes32) {\n        return keccak256(IClovers(clovers).getCloverMoves(_tokenId));\n    }\n    /**\n    * @dev Checks whether the game is valid.\n    * @param moves The moves needed to play validate the game.\n    * @return A boolean representing whether or not the game is valid.\n    */\n    function isValid(bytes28[2] moves) public constant returns (bool) {\n        Reversi.Game memory game = Reversi.playGame(moves);\n        return isValidGame(game);\n    }\n    /**\n    * @dev Checks whether the game is valid.\n    * @param game The pre-played game.\n    * @return A boolean representing whether or not the game is valid.\n    */\n    function isValidGame(Reversi.Game game) public constant returns (bool) {\n        if (game.error) return false;\n        if (!game.complete) return false;\n        return true;\n    }\n    /**\n    * @dev Checks whether the game has passed the verification period.\n    * @param _tokenId The board being checked.\n    * @return A boolean representing whether or not the game has been verified.\n    */\n    function isVerified(uint256 _tokenId) public constant returns (bool) {\n        uint256 _blockMinted = IClovers(clovers).getBlockMinted(_tokenId);\n        if(_blockMinted == 0) return false;\n        // require(block.number > _blockMinted);\n        return (block.number - _blockMinted) > stakePeriod;\n    }\n    function returnBlock() public constant returns (uint) {\n        return block.number;\n    }\n    /**\n    * @dev Calculates the reward of the board.\n    * @param _symmetries symmetries saved as a bytes1 value like 00010101 where bits represent symmetry types.\n    * @return A uint256 representing the reward that would be returned for claiming the board.\n    */\n    function calculateReward(bytes1 _symmetries) public constant returns (uint256) {\n        uint256 Symmetricals;\n        uint256 RotSym;\n        uint256 Y0Sym;\n        uint256 X0Sym;\n        uint256 XYSym;\n        uint256 XnYSym;\n        (Symmetricals,\n        RotSym,\n        Y0Sym,\n        X0Sym,\n        XYSym,\n        XnYSym) = IClovers(clovers).getAllSymmetries();\n        uint256 base = 0;\n        if (_symmetries >> 4 & 1 == 1) base = base.add(payMultiplier.mul(Symmetricals + 1).div(RotSym + 1));\n        if (_symmetries >> 3 & 1 == 1) base = base.add(payMultiplier.mul(Symmetricals + 1).div(Y0Sym + 1));\n        if (_symmetries >> 2 & 1 == 1) base = base.add(payMultiplier.mul(Symmetricals + 1).div(X0Sym + 1));\n        if (_symmetries >> 1 & 1 == 1) base = base.add(payMultiplier.mul(Symmetricals + 1).div(XYSym + 1));\n        if (_symmetries & 1 == 1) base = base.add(payMultiplier.mul(Symmetricals + 1).div(XnYSym + 1));\n        return base;\n    }\n\n    /**\n    * @dev Claim the Clover without a commit or reveal.\n    * @param moves The moves that make up the Clover reversi game.\n    * @param _tokenId The board that results from the moves.\n    * @param _symmetries symmetries saved as a bytes1 value like 00010101 where bits represent symmetry types.\n    * @param _to The address claiming the Clover.\n    * @return A boolean representing whether or not the claim was successful.\n    */\n    function claimClover(bytes28[2] moves, uint256 _tokenId, bytes1 _symmetries, address _to) public payable returns (bool) {\n        require(moves[0] != 0);\n        require(msg.value == stakeAmount);\n        bytes32 movesHash = keccak256(moves);\n        IClovers(clovers).setCommit(movesHash, _to);\n        IClovers(clovers).setStake(movesHash, stakeAmount);\n        clovers.transfer(stakeAmount);\n        require(IClovers(clovers).getBlockMinted(_tokenId) == 0);\n        IClovers(clovers).setBlockMinted(_tokenId, block.number);\n        IClovers(clovers).setCloverMoves(_tokenId, moves);\n        if (_symmetries > 0) {\n            IClovers(clovers).setSymmetries(_tokenId, _symmetries);\n            uint256 reward = calculateReward(_symmetries);\n            IClovers(clovers).setReward(_tokenId, reward);\n        }\n        IClovers(clovers).mint(_to, _tokenId);\n        return true;\n    }\n    /**\n    * @dev Commit the hash of the moves needed to claim the Clover. A stake should be made for counterfactual verification.\n    * @param movesHash The hash of the moves that makes up the Clover reversi game.\n    * @param _to The address claiming the Clover.\n    * @return A boolean representing whether or not the commit was successful.\n    */\n    function claimCloverCommit(bytes32 movesHash, address _to) public payable returns (bool) {\n        require(_to != 0);\n        require(msg.value == stakeAmount);\n        require(IClovers(clovers).getCommit(movesHash) == 0);\n        IClovers(clovers).setCommit(movesHash, _to);\n        IClovers(clovers).setStake(movesHash, stakeAmount);\n        clovers.transfer(stakeAmount);\n        return true;\n    }\n    /**\n    * @dev Reveal the solution to the previous commit to claim the Clover.\n    * @param moves The moves that make up the Clover reversi game.\n    * @param _tokenId The board that results from the moves.\n    * @param _symmetries symmetries saved as a bytes1 value like 00010101 where bits represent symmetry types.\n    * @return A boolean representing whether or not the reveal and claim was successful.\n    */\n    function claimCloverReveal(bytes28[2] moves, uint256 _tokenId, bytes1 _symmetries) public returns (bool) {\n        require(moves[0] != 0);\n        bytes32 movesHash = keccak256(moves);\n        address commiter = IClovers(clovers).getCommit(movesHash);\n        require(IClovers(clovers).getBlockMinted(_tokenId) == 0);\n        IClovers(clovers).setBlockMinted(_tokenId, block.number);\n        IClovers(clovers).setCloverMoves(_tokenId, moves);\n        if (_symmetries > 0) {\n            IClovers(clovers).setSymmetries(_tokenId, _symmetries);\n            uint256 reward = calculateReward(_symmetries);\n            IClovers(clovers).setReward(_tokenId, reward);\n        }\n        IClovers(clovers).mint(commiter, _tokenId);\n        return true;\n    }\n    /**\n    * @dev Retrieve the stake from a Clover claim after the stake period has ended.\n    * @param _tokenId The board which holds the stake.\n    * @return A boolean representing whether or not the retrieval was successful.\n    */\n    function retrieveStake(uint256 _tokenId) public returns (bool) {\n        bytes28[2] memory moves = IClovers(clovers).getCloverMoves(_tokenId);\n        require(moves[0] != 0);\n        bytes32 movesHash = keccak256(moves);\n        uint256 stake = IClovers(clovers).getStake(movesHash);\n        require(stake != 0);\n        require(isVerified(_tokenId));\n        IClovers(clovers).setStake(movesHash, 0);\n        addSymmetries(_tokenId);\n        address commiter = IClovers(clovers).getCommit(movesHash);\n        uint256 reward = IClovers(clovers).getReward(_tokenId);\n        require(Mintable(clubToken).mint(commiter, reward));\n        require(IClovers(clovers).moveEth(commiter, stake));\n        return true;\n    }\n    /**\n    * @dev Challenge a staked Clover for being invalid.\n    * @param _tokenId The board being challenged.\n    * @param _to The address challenging the Clover.\n    * @return A boolean representing whether or not the challenge was successful.\n    */\n    function challengeClover(uint256 _tokenId, address _to) public returns (bool) {\n        bool valid = true;\n        bytes28[2] memory moves = IClovers(clovers).getCloverMoves(_tokenId);\n        require(moves[0] != 0);\n        Reversi.Game memory game = Reversi.playGame(moves);\n        if(isValidGame(game)) {\n            bytes1 _symmetries = IClovers(clovers).getSymmetries(_tokenId);\n\n            valid = (_symmetries >> 4 & 1) > 0 == game.RotSym ? valid : false;\n            valid = (_symmetries >> 3 & 1) > 0 == game.Y0Sym ? valid : false;\n            valid = (_symmetries >> 2 & 1) > 0 == game.X0Sym ? valid : false;\n            valid = (_symmetries >> 1 & 1) > 0 == game.XYSym ? valid : false;\n            valid = (_symmetries & 1) > 0 == game.XnYSym ? valid : false;\n\n        } else {\n            valid = false;\n        }\n        if (!valid) {\n            IClovers(clovers).deleteClover(_tokenId);\n            bytes32 movesHash = keccak256(moves);\n            if (!isVerified(_tokenId)) {\n                uint256 stake = IClovers(clovers).getStake(movesHash);\n                IClovers(clovers).moveEth(_to, stake);\n            }\n            IClovers(clovers).unmint(_tokenId);\n            // IClovers(clovers).setCommit(movesHash, 0);\n            // IClovers(clovers).setStake(movesHash, 0);\n            // removeSymmetries(_tokenId);\n        } else {\n            revert();\n        }\n        return true;\n    }\n\n    /**\n    * @dev Updates the stake amount.\n    * @param _stakeAmount The new amount needed to stake.\n    */\n    function updateStakeAmount(uint256 _stakeAmount) public onlyOwner {\n        stakeAmount = _stakeAmount;\n    }\n    /**\n    * @dev Updates the stake period.\n    * @param _stakePeriod The uint256 value of time needed to stake before being verified.\n    */\n    function updateStakePeriod(uint256 _stakePeriod) public onlyOwner {\n        stakePeriod = _stakePeriod;\n    }\n    /**\n    * @dev Updates the pay multiplier, used to calculate token reward.\n    * @param _payMultiplier The uint256 value of pay multiplier.\n    */\n    function updatePayMultipier(uint256 _payMultiplier) public onlyOwner {\n        payMultiplier = _payMultiplier;\n    }\n    /**\n    * @dev Adds new tallys of the totals numbers of clover symmetries.\n    * @param _tokenId The token which needs to be examined.\n    */\n    function addSymmetries(uint256 _tokenId) private {\n        uint256 Symmetricals;\n        uint256 RotSym;\n        uint256 Y0Sym;\n        uint256 X0Sym;\n        uint256 XYSym;\n        uint256 XnYSym;\n        (Symmetricals,\n        RotSym,\n        Y0Sym,\n        X0Sym,\n        XYSym,\n        XnYSym) = IClovers(clovers).getAllSymmetries();\n        bytes1 _symmetries = IClovers(clovers).getSymmetries(_tokenId);\n        Symmetricals = Symmetricals.add(_symmetries > 0 ? 1 : 0);\n        RotSym = RotSym.add(uint256(_symmetries >> 4 & 1));\n        Y0Sym = Y0Sym.add(uint256(_symmetries >> 3 & 1));\n        X0Sym = X0Sym.add(uint256(_symmetries >> 2 & 1));\n        XYSym = XYSym.add(uint256(_symmetries >> 1 & 1));\n        XnYSym = XnYSym.add(uint256(_symmetries & 1));\n        IClovers(clovers).setAllSymmetries(Symmetricals, RotSym, Y0Sym, X0Sym, XYSym, XnYSym);\n    }\n    /**\n    * @dev Remove false tallys of the totals numbers of clover symmetries.\n    * @param _tokenId The token which needs to be examined.\n    */\n    function removeSymmetries(uint256 _tokenId) private {\n        uint256 Symmetricals;\n        uint256 RotSym;\n        uint256 Y0Sym;\n        uint256 X0Sym;\n        uint256 XYSym;\n        uint256 XnYSym;\n        (Symmetricals,\n        RotSym,\n        Y0Sym,\n        X0Sym,\n        XYSym,\n        XnYSym) = IClovers(clovers).getAllSymmetries();\n        bytes1 _symmetries = IClovers(clovers).getSymmetries(_tokenId);\n        Symmetricals = Symmetricals.sub(_symmetries > 0 ? 1 : 0);\n        RotSym = RotSym.sub(uint256(_symmetries >> 4 & 1));\n        Y0Sym = Y0Sym.sub(uint256(_symmetries >> 3 & 1));\n        X0Sym = X0Sym.sub(uint256(_symmetries >> 2 & 1));\n        XYSym = XYSym.sub(uint256(_symmetries >> 1 & 1));\n        XnYSym = XnYSym.sub(uint256(_symmetries & 1));\n        IClovers(clovers).setAllSymmetries(Symmetricals, RotSym, Y0Sym, X0Sym, XYSym, XnYSym);\n    }\n\n}",
  "sourcePath": "/Users/billy/vue/clovers-dapp/contracts/CloversController.sol",
  "compiler": {
    "name": "solc",
    "version": "0.4.19+commit.c4cbbb05.Emscripten.clang"
  },
  "schemaVersion": "1.0.1",
  "updatedAt": "2018-03-25T21:32:10.828Z"
}