{
  "contractName": "CloversController",
  "abi": [
    {
      "constant": false,
      "inputs": [
        {
          "name": "token",
          "type": "address"
        }
      ],
      "name": "reclaimToken",
      "outputs": [],
      "payable": false,
      "stateMutability": "nonpayable",
      "type": "function"
    },
    {
      "constant": true,
      "inputs": [],
      "name": "owner",
      "outputs": [
        {
          "name": "",
          "type": "address"
        }
      ],
      "payable": false,
      "stateMutability": "view",
      "type": "function"
    },
    {
      "constant": false,
      "inputs": [],
      "name": "reclaimEther",
      "outputs": [],
      "payable": false,
      "stateMutability": "nonpayable",
      "type": "function"
    },
    {
      "constant": false,
      "inputs": [
        {
          "name": "from_",
          "type": "address"
        },
        {
          "name": "value_",
          "type": "uint256"
        },
        {
          "name": "data_",
          "type": "bytes"
        }
      ],
      "name": "tokenFallback",
      "outputs": [],
      "payable": false,
      "stateMutability": "nonpayable",
      "type": "function"
    },
    {
      "constant": false,
      "inputs": [
        {
          "name": "newOwner",
          "type": "address"
        }
      ],
      "name": "transferOwnership",
      "outputs": [],
      "payable": false,
      "stateMutability": "nonpayable",
      "type": "function"
    },
    {
      "inputs": [
        {
          "name": "_clovers",
          "type": "address"
        },
        {
          "name": "_clubToken",
          "type": "address"
        }
      ],
      "payable": false,
      "stateMutability": "nonpayable",
      "type": "constructor"
    },
    {
      "payable": false,
      "stateMutability": "nonpayable",
      "type": "fallback"
    },
    {
      "anonymous": false,
      "inputs": [
        {
          "indexed": false,
          "name": "movesHash",
          "type": "bytes32"
        },
        {
          "indexed": false,
          "name": "miner",
          "type": "address"
        }
      ],
      "name": "cloverCommited",
      "type": "event"
    },
    {
      "anonymous": false,
      "inputs": [
        {
          "indexed": false,
          "name": "moves",
          "type": "bytes28[2]"
        },
        {
          "indexed": false,
          "name": "_tokenId",
          "type": "uint256"
        },
        {
          "indexed": false,
          "name": "miner",
          "type": "address"
        }
      ],
      "name": "cloverRevealed",
      "type": "event"
    },
    {
      "anonymous": false,
      "inputs": [
        {
          "indexed": false,
          "name": "moves",
          "type": "bytes28[2]"
        },
        {
          "indexed": false,
          "name": "_tokenId",
          "type": "uint256"
        },
        {
          "indexed": false,
          "name": "miner",
          "type": "address"
        }
      ],
      "name": "cloverClaimed",
      "type": "event"
    },
    {
      "anonymous": false,
      "inputs": [
        {
          "indexed": false,
          "name": "moves",
          "type": "bytes28[2]"
        },
        {
          "indexed": false,
          "name": "_tokenId",
          "type": "uint256"
        },
        {
          "indexed": false,
          "name": "miner",
          "type": "address"
        }
      ],
      "name": "stakeRetrieved",
      "type": "event"
    },
    {
      "anonymous": false,
      "inputs": [
        {
          "indexed": false,
          "name": "moves",
          "type": "bytes28[2]"
        },
        {
          "indexed": false,
          "name": "_tokenId",
          "type": "uint256"
        },
        {
          "indexed": false,
          "name": "miner",
          "type": "address"
        },
        {
          "indexed": false,
          "name": "challenger",
          "type": "address"
        }
      ],
      "name": "cloverChallenged",
      "type": "event"
    },
    {
      "anonymous": false,
      "inputs": [
        {
          "indexed": true,
          "name": "previousOwner",
          "type": "address"
        },
        {
          "indexed": true,
          "name": "newOwner",
          "type": "address"
        }
      ],
      "name": "OwnershipTransferred",
      "type": "event"
    },
    {
      "constant": true,
      "inputs": [],
      "name": "currentStakeAmount",
      "outputs": [
        {
          "name": "",
          "type": "uint256"
        }
      ],
      "payable": false,
      "stateMutability": "view",
      "type": "function"
    },
    {
      "constant": true,
      "inputs": [],
      "name": "currentStakePeriod",
      "outputs": [
        {
          "name": "",
          "type": "uint256"
        }
      ],
      "payable": false,
      "stateMutability": "view",
      "type": "function"
    },
    {
      "constant": true,
      "inputs": [],
      "name": "getMultiplier",
      "outputs": [
        {
          "name": "",
          "type": "uint256"
        }
      ],
      "payable": false,
      "stateMutability": "view",
      "type": "function"
    },
    {
      "constant": true,
      "inputs": [
        {
          "name": "moves",
          "type": "bytes28[2]"
        }
      ],
      "name": "isValid",
      "outputs": [
        {
          "name": "",
          "type": "bool"
        }
      ],
      "payable": false,
      "stateMutability": "view",
      "type": "function"
    },
    {
      "constant": true,
      "inputs": [
        {
          "components": [
            {
              "name": "error",
              "type": "bool"
            },
            {
              "name": "complete",
              "type": "bool"
            },
            {
              "name": "symmetrical",
              "type": "bool"
            },
            {
              "name": "RotSym",
              "type": "bool"
            },
            {
              "name": "Y0Sym",
              "type": "bool"
            },
            {
              "name": "X0Sym",
              "type": "bool"
            },
            {
              "name": "XYSym",
              "type": "bool"
            },
            {
              "name": "XnYSym",
              "type": "bool"
            },
            {
              "name": "board",
              "type": "bytes16"
            },
            {
              "name": "first32Moves",
              "type": "bytes28"
            },
            {
              "name": "lastMoves",
              "type": "bytes28"
            },
            {
              "name": "currentPlayer",
              "type": "uint8"
            },
            {
              "name": "moveKey",
              "type": "uint8"
            },
            {
              "name": "blackScore",
              "type": "uint8"
            },
            {
              "name": "whiteScore",
              "type": "uint8"
            }
          ],
          "name": "game",
          "type": "tuple"
        }
      ],
      "name": "isValidGame",
      "outputs": [
        {
          "name": "",
          "type": "bool"
        }
      ],
      "payable": false,
      "stateMutability": "view",
      "type": "function"
    },
    {
      "constant": true,
      "inputs": [
        {
          "name": "_tokenId",
          "type": "uint256"
        }
      ],
      "name": "isVerified",
      "outputs": [
        {
          "name": "",
          "type": "bool"
        }
      ],
      "payable": false,
      "stateMutability": "view",
      "type": "function"
    },
    {
      "constant": true,
      "inputs": [],
      "name": "returnNow",
      "outputs": [
        {
          "name": "",
          "type": "uint256"
        }
      ],
      "payable": false,
      "stateMutability": "view",
      "type": "function"
    },
    {
      "constant": true,
      "inputs": [
        {
          "name": "_symmetries",
          "type": "bytes1"
        }
      ],
      "name": "calculateReward",
      "outputs": [
        {
          "name": "",
          "type": "uint256"
        }
      ],
      "payable": false,
      "stateMutability": "view",
      "type": "function"
    },
    {
      "constant": false,
      "inputs": [
        {
          "name": "moves",
          "type": "bytes28[2]"
        },
        {
          "name": "_tokenId",
          "type": "uint256"
        },
        {
          "name": "_symmetries",
          "type": "bytes1"
        },
        {
          "name": "_to",
          "type": "address"
        }
      ],
      "name": "claimClover",
      "outputs": [
        {
          "name": "",
          "type": "bool"
        }
      ],
      "payable": true,
      "stateMutability": "payable",
      "type": "function"
    },
    {
      "constant": false,
      "inputs": [
        {
          "name": "movesHash",
          "type": "bytes32"
        },
        {
          "name": "_to",
          "type": "address"
        }
      ],
      "name": "claimCloverCommit",
      "outputs": [
        {
          "name": "",
          "type": "bool"
        }
      ],
      "payable": true,
      "stateMutability": "payable",
      "type": "function"
    },
    {
      "constant": false,
      "inputs": [
        {
          "name": "moves",
          "type": "bytes28[2]"
        },
        {
          "name": "_tokenId",
          "type": "uint256"
        },
        {
          "name": "_symmetries",
          "type": "bytes1"
        }
      ],
      "name": "claimCloverReveal",
      "outputs": [
        {
          "name": "",
          "type": "bool"
        }
      ],
      "payable": false,
      "stateMutability": "nonpayable",
      "type": "function"
    },
    {
      "constant": false,
      "inputs": [
        {
          "name": "_tokenId",
          "type": "uint256"
        }
      ],
      "name": "retrieveStake",
      "outputs": [
        {
          "name": "",
          "type": "bool"
        }
      ],
      "payable": false,
      "stateMutability": "nonpayable",
      "type": "function"
    },
    {
      "constant": false,
      "inputs": [
        {
          "name": "_tokenId",
          "type": "uint256"
        },
        {
          "name": "_to",
          "type": "address"
        }
      ],
      "name": "challengeClover",
      "outputs": [
        {
          "name": "",
          "type": "bool"
        }
      ],
      "payable": false,
      "stateMutability": "nonpayable",
      "type": "function"
    },
    {
      "constant": false,
      "inputs": [
        {
          "name": "_stakeAmount",
          "type": "uint256"
        }
      ],
      "name": "updateStakeAmount",
      "outputs": [],
      "payable": false,
      "stateMutability": "nonpayable",
      "type": "function"
    },
    {
      "constant": false,
      "inputs": [
        {
          "name": "_stakePeriod",
          "type": "uint256"
        }
      ],
      "name": "updateStakePeriod",
      "outputs": [],
      "payable": false,
      "stateMutability": "nonpayable",
      "type": "function"
    },
    {
      "constant": false,
      "inputs": [
        {
          "name": "_payMultiplier",
          "type": "uint256"
        }
      ],
      "name": "updatePayMultipier",
      "outputs": [],
      "payable": false,
      "stateMutability": "nonpayable",
      "type": "function"
    }
  ],
  "bytecode": "0x606060405234156200001057600080fd5b6040516040806200559d8339810160405262000036906780000000000000009062000126565b336000806101000a81548173ffffffffffffffffffffffffffffffffffffffff021916908373ffffffffffffffffffffffffffffffffffffffff1602179055506000341415156200008657600080fd5b81600160006101000a81548173ffffffffffffffffffffffffffffffffffffffff021916908373ffffffffffffffffffffffffffffffffffffffff16021790555080600260006101000a81548173ffffffffffffffffffffffffffffffffffffffff021916908373ffffffffffffffffffffffffffffffffffffffff160217905550505062000191565b60006200011e825162000171565b905092915050565b600080604083850312600181146200013e5762000143565b600080fd5b506000620001548582860162000110565b9250506020620001678582860162000110565b9150509250929050565b600073ffffffffffffffffffffffffffffffffffffffff82169050919050565b6153fc80620001a16000396000f30060606040526004361061011d576000357c0100000000000000000000000000000000000000000000000000000000900463ffffffff16806308b6a33d1461012a57806317ffc32014610155578063271eff941461017757806332cda779146101ad57806335f71899146101d657806337b6d96b1461020157806340490a90146102375780635759f3f7146102605780636cb6b41f146102825780638a05aafa146102ab5780638da5cb5b146102cd5780639f727c27146102f6578063acd37b7b1461030b578063afc6285314610341578063c0ee0b8a14610377578063c1fe551a14610399578063c90054ee146103cf578063e00a768d146103f1578063f2fde38b14610427578063f4c78e1614610449578063f8a68a5614610472575b341561012857600080fd5b005b61013f600461013a903690614ccd565b6104a8565b60405161014c9190614fa2565b60405180910390f35b341561016057600080fd5b6101756004610170903690614db0565b6104e2565b005b341561018257600080fd5b6101976004610192903690614c43565b610623565b6040516101a49190614fa2565b60405180910390f35b34156101b857600080fd5b6101c0610649565b6040516101cd9190615097565b60405180910390f35b6101eb60046101e6903690614d6b565b610653565b6040516101f89190614fa2565b60405180910390f35b341561020c57600080fd5b610221600461021c903690614e15565b61091e565b60405161022e9190614fa2565b60405180910390f35b341561024257600080fd5b61024a6109f9565b6040516102579190615097565b60405180910390f35b341561026b57600080fd5b610280600461027b903690614e15565b610a03565b005b341561028d57600080fd5b610295610a68565b6040516102a29190615097565b60405180910390f35b34156102b657600080fd5b6102cb60046102c6903690614e15565b610a72565b005b34156102d857600080fd5b6102e0610ad7565b6040516102ed9190614f5e565b60405180910390f35b341561030157600080fd5b610309610afc565b005b341561031657600080fd5b61032b6004610326903690614e47565b610bce565b6040516103389190614fa2565b60405180910390f35b341561034c57600080fd5b610361600461035c903690614c75565b61156f565b60405161036e9190614fa2565b60405180910390f35b341561038257600080fd5b6103976004610392903690614bc5565b611b03565b005b34156103a457600080fd5b6103b960046103b4903690614e15565b611b08565b6040516103c69190614fa2565b60405180910390f35b34156103da57600080fd5b6103ef60046103ea903690614e15565b6120c7565b005b34156103fc57600080fd5b610411600461040c903690614d39565b61212c565b60405161041e9190615097565b60405180910390f35b341561043257600080fd5b6104476004610442903690614b93565b612656565b005b341561045457600080fd5b61045c6127ab565b6040516104699190615097565b60405180910390f35b341561047d57600080fd5b610492600461048d903690614de2565b6127b3565b60405161049f9190614fa2565b60405180910390f35b600080640100000000028560006002811015156104c157fe5b602002015163ffffffff1916141515156104da57600080fd5b949350505050565b60008060009054906101000a900473ffffffffffffffffffffffffffffffffffffffff1673ffffffffffffffffffffffffffffffffffffffff163373ffffffffffffffffffffffffffffffffffffffff1614151561053f57600080fd5b8173ffffffffffffffffffffffffffffffffffffffff166370a08231306000604051602001526040518263ffffffff167c010000000000000000000000000000000000000000000000000000000002815260040161059d919061507c565b602060405180830381600087803b15156105b657600080fd5b6102c65a03f115156105c757600080fd5b50505060405180519050905061061f6000809054906101000a900473ffffffffffffffffffffffffffffffffffffffff16828473ffffffffffffffffffffffffffffffffffffffff166127e69092919063ffffffff16565b5050565b600061062d6146a3565b61063683612887565b9050610641816127b3565b915050919050565b6000600554905090565b6000808273ffffffffffffffffffffffffffffffffffffffff161415151561067a57600080fd5b6004543414151561068a57600080fd5b6000600160009054906101000a900473ffffffffffffffffffffffffffffffffffffffff1673ffffffffffffffffffffffffffffffffffffffff16638784ea96856000604051602001526040518263ffffffff167c010000000000000000000000000000000000000000000000000000000002815260040161070c9190614fbd565b602060405180830381600087803b151561072557600080fd5b6102c65a03f1151561073657600080fd5b5050506040518051905073ffffffffffffffffffffffffffffffffffffffff1614151561076257600080fd5b600160009054906101000a900473ffffffffffffffffffffffffffffffffffffffff1673ffffffffffffffffffffffffffffffffffffffff16631dbd9d9184846040518363ffffffff167c01000000000000000000000000000000000000000000000000000000000281526004016107db929190614fd8565b600060405180830381600087803b15156107f457600080fd5b6102c65a03f1151561080557600080fd5b505050600160009054906101000a900473ffffffffffffffffffffffffffffffffffffffff1673ffffffffffffffffffffffffffffffffffffffff16633541fd53846004546040518363ffffffff167c0100000000000000000000000000000000000000000000000000000000028152600401610883929190615053565b600060405180830381600087803b151561089c57600080fd5b6102c65a03f115156108ad57600080fd5b505050600160009054906101000a900473ffffffffffffffffffffffffffffffffffffffff1673ffffffffffffffffffffffffffffffffffffffff166108fc6004549081150290604051600060405180830381858888f19350505050151561091457600080fd5b6001905092915050565b600080600160009054906101000a900473ffffffffffffffffffffffffffffffffffffffff1673ffffffffffffffffffffffffffffffffffffffff166303a53d6b846000604051602001526040518263ffffffff167c01000000000000000000000000000000000000000000000000000000000281526004016109a19190615097565b602060405180830381600087803b15156109ba57600080fd5b6102c65a03f115156109cb57600080fd5b50505060405180519050905060008114156109e957600091506109f3565b6005548143031191505b50919050565b6000600354905090565b6000809054906101000a900473ffffffffffffffffffffffffffffffffffffffff1673ffffffffffffffffffffffffffffffffffffffff163373ffffffffffffffffffffffffffffffffffffffff16141515610a5e57600080fd5b8060058190555050565b6000600454905090565b6000809054906101000a900473ffffffffffffffffffffffffffffffffffffffff1673ffffffffffffffffffffffffffffffffffffffff163373ffffffffffffffffffffffffffffffffffffffff16141515610acd57600080fd5b8060038190555050565b6000809054906101000a900473ffffffffffffffffffffffffffffffffffffffff1681565b6000809054906101000a900473ffffffffffffffffffffffffffffffffffffffff1673ffffffffffffffffffffffffffffffffffffffff163373ffffffffffffffffffffffffffffffffffffffff16141515610b5757600080fd5b6000809054906101000a900473ffffffffffffffffffffffffffffffffffffffff1673ffffffffffffffffffffffffffffffffffffffff166108fc3073ffffffffffffffffffffffffffffffffffffffff16319081150290604051600060405180830381858888f193505050501515610bcc57fe5b565b600080610bd9614757565b610be16146a3565b600080600060019550600160009054906101000a900473ffffffffffffffffffffffffffffffffffffffff1673ffffffffffffffffffffffffffffffffffffffff166362f9acf98a6000604051604001526040518263ffffffff167c0100000000000000000000000000000000000000000000000000000000028152600401610c6a9190615097565b6040805180830381600087803b1515610c8257600080fd5b6102c65a03f11515610c9357600080fd5b505050604051806040016040529450600064010000000002856000600281101515610cba57fe5b602002015163ffffffff191614151515610cd357600080fd5b610cdc85612887565b9350610ce7846127b3565b156110ed57600160009054906101000a900473ffffffffffffffffffffffffffffffffffffffff1673ffffffffffffffffffffffffffffffffffffffff1663c53b4bf98a6000604051602001526040518263ffffffff167c0100000000000000000000000000000000000000000000000000000000028152600401610d6c9190615097565b602060405180830381600087803b1515610d8557600080fd5b6102c65a03f11515610d9657600080fd5b5050506040518051905092508360600151151560007f01000000000000000000000000000000000000000000000000000000000000000260017f0100000000000000000000000000000000000000000000000000000000000000026004867effffffffffffffffffffffffffffffffffffffffffffffffffffffffffffff19169060020a9004167effffffffffffffffffffffffffffffffffffffffffffffffffffffffffffff191611151514610e4e576000610e50565b855b95508360800151151560007f01000000000000000000000000000000000000000000000000000000000000000260017f0100000000000000000000000000000000000000000000000000000000000000026003867effffffffffffffffffffffffffffffffffffffffffffffffffffffffffffff19169060020a9004167effffffffffffffffffffffffffffffffffffffffffffffffffffffffffffff191611151514610efe576000610f00565b855b95508360a00151151560007f01000000000000000000000000000000000000000000000000000000000000000260017f0100000000000000000000000000000000000000000000000000000000000000026002867effffffffffffffffffffffffffffffffffffffffffffffffffffffffffffff19169060020a9004167effffffffffffffffffffffffffffffffffffffffffffffffffffffffffffff191611151514610fae576000610fb0565b855b95508360c00151151560007f01000000000000000000000000000000000000000000000000000000000000000260017f0100000000000000000000000000000000000000000000000000000000000000026001867effffffffffffffffffffffffffffffffffffffffffffffffffffffffffffff19169060020a9004167effffffffffffffffffffffffffffffffffffffffffffffffffffffffffffff19161115151461105e576000611060565b855b95508360e00151151560007f01000000000000000000000000000000000000000000000000000000000000000260017f01000000000000000000000000000000000000000000000000000000000000000285167effffffffffffffffffffffffffffffffffffffffffffffffffffffffffffff1916111515146110e45760006110e6565b855b95506110f2565b600095505b85151561155a57600160009054906101000a900473ffffffffffffffffffffffffffffffffffffffff1673ffffffffffffffffffffffffffffffffffffffff16630e8310d68a6040518263ffffffff167c01000000000000000000000000000000000000000000000000000000000281526004016111709190615097565b600060405180830381600087803b151561118957600080fd5b6102c65a03f1151561119a57600080fd5b505050846040518082600260200280838360005b838110156111c95780820151818401526020810190506111ae565b50505050905001915050604051809103902091506111e68961091e565b151561135a57600160009054906101000a900473ffffffffffffffffffffffffffffffffffffffff1673ffffffffffffffffffffffffffffffffffffffff1663e765c122836000604051602001526040518263ffffffff167c010000000000000000000000000000000000000000000000000000000002815260040161126c9190614fbd565b602060405180830381600087803b151561128557600080fd5b6102c65a03f1151561129657600080fd5b505050604051805190509050600160009054906101000a900473ffffffffffffffffffffffffffffffffffffffff1673ffffffffffffffffffffffffffffffffffffffff16631cc1472d89836000604051602001526040518363ffffffff167c0100000000000000000000000000000000000000000000000000000000028152600401611324929190614f79565b602060405180830381600087803b151561133d57600080fd5b6102c65a03f1151561134e57600080fd5b50505060405180519050505b600160009054906101000a900473ffffffffffffffffffffffffffffffffffffffff1673ffffffffffffffffffffffffffffffffffffffff166342966c688a6040518263ffffffff167c01000000000000000000000000000000000000000000000000000000000281526004016113d19190615097565b600060405180830381600087803b15156113ea57600080fd5b6102c65a03f115156113fb57600080fd5b505050600160009054906101000a900473ffffffffffffffffffffffffffffffffffffffff1673ffffffffffffffffffffffffffffffffffffffff16631dbd9d918360006040518363ffffffff167c0100000000000000000000000000000000000000000000000000000000028152600401611478929190615001565b600060405180830381600087803b151561149157600080fd5b6102c65a03f115156114a257600080fd5b505050600160009054906101000a900473ffffffffffffffffffffffffffffffffffffffff1673ffffffffffffffffffffffffffffffffffffffff16633541fd538360006040518363ffffffff167c010000000000000000000000000000000000000000000000000000000002815260040161151f92919061502a565b600060405180830381600087803b151561153857600080fd5b6102c65a03f1151561154957600080fd5b50505061155589612b79565b61155f565b600080fd5b6001965050505050505092915050565b60008060008060006401000000000287600060028110151561158d57fe5b602002015163ffffffff1916141515156115a657600080fd5b866040518082600260200280838360005b838110156115d25780820151818401526020810190506115b7565b5050505090500191505060405180910390209250600160009054906101000a900473ffffffffffffffffffffffffffffffffffffffff1673ffffffffffffffffffffffffffffffffffffffff16638784ea96846000604051602001526040518263ffffffff167c01000000000000000000000000000000000000000000000000000000000281526004016116669190614fbd565b602060405180830381600087803b151561167f57600080fd5b6102c65a03f1151561169057600080fd5b5050506040518051905091506000600160009054906101000a900473ffffffffffffffffffffffffffffffffffffffff1673ffffffffffffffffffffffffffffffffffffffff166303a53d6b886000604051602001526040518263ffffffff167c010000000000000000000000000000000000000000000000000000000002815260040161171e9190615097565b602060405180830381600087803b151561173757600080fd5b6102c65a03f1151561174857600080fd5b5050506040518051905014151561175e57600080fd5b600160009054906101000a900473ffffffffffffffffffffffffffffffffffffffff1673ffffffffffffffffffffffffffffffffffffffff1663e3100d1e87436040518363ffffffff167c01000000000000000000000000000000000000000000000000000000000281526004016117d7929190615104565b600060405180830381600087803b15156117f057600080fd5b6102c65a03f1151561180157600080fd5b505050600160009054906101000a900473ffffffffffffffffffffffffffffffffffffffff1673ffffffffffffffffffffffffffffffffffffffff16630b62839587896040518363ffffffff167c010000000000000000000000000000000000000000000000000000000002815260040161187d9291906150b2565b600060405180830381600087803b151561189657600080fd5b6102c65a03f115156118a757600080fd5b50505060007f010000000000000000000000000000000000000000000000000000000000000002857effffffffffffffffffffffffffffffffffffffffffffffffffffffffffffff19161115611a4f57600160009054906101000a900473ffffffffffffffffffffffffffffffffffffffff1673ffffffffffffffffffffffffffffffffffffffff16631dba566087876040518363ffffffff167c01000000000000000000000000000000000000000000000000000000000281526004016119709291906150db565b600060405180830381600087803b151561198957600080fd5b6102c65a03f1151561199a57600080fd5b5050506119a68561212c565b9050600160009054906101000a900473ffffffffffffffffffffffffffffffffffffffff1673ffffffffffffffffffffffffffffffffffffffff1663a47bd49687836040518363ffffffff167c0100000000000000000000000000000000000000000000000000000000028152600401611a21929190615104565b600060405180830381600087803b1515611a3a57600080fd5b6102c65a03f11515611a4b57600080fd5b5050505b600160009054906101000a900473ffffffffffffffffffffffffffffffffffffffff1673ffffffffffffffffffffffffffffffffffffffff166340c10f1983886040518363ffffffff167c0100000000000000000000000000000000000000000000000000000000028152600401611ac8929190614f79565b600060405180830381600087803b1515611ae157600080fd5b6102c65a03f11515611af257600080fd5b505050600193505050509392505050565b600080fd5b6000611b12614757565b600080600080600160009054906101000a900473ffffffffffffffffffffffffffffffffffffffff1673ffffffffffffffffffffffffffffffffffffffff166362f9acf9886000604051604001526040518263ffffffff167c0100000000000000000000000000000000000000000000000000000000028152600401611b989190615097565b6040805180830381600087803b1515611bb057600080fd5b6102c65a03f11515611bc157600080fd5b505050604051806040016040529450600064010000000002856000600281101515611be857fe5b602002015163ffffffff191614151515611c0157600080fd5b846040518082600260200280838360005b83811015611c2d578082015181840152602081019050611c12565b5050505090500191505060405180910390209350600160009054906101000a900473ffffffffffffffffffffffffffffffffffffffff1673ffffffffffffffffffffffffffffffffffffffff1663e765c122856000604051602001526040518263ffffffff167c0100000000000000000000000000000000000000000000000000000000028152600401611cc19190614fbd565b602060405180830381600087803b1515611cda57600080fd5b6102c65a03f11515611ceb57600080fd5b50505060405180519050925060008314151515611d0757600080fd5b611d108761091e565b1515611d1b57600080fd5b600160009054906101000a900473ffffffffffffffffffffffffffffffffffffffff1673ffffffffffffffffffffffffffffffffffffffff16633541fd538560006040518363ffffffff167c0100000000000000000000000000000000000000000000000000000000028152600401611d9592919061502a565b600060405180830381600087803b1515611dae57600080fd5b6102c65a03f11515611dbf57600080fd5b505050611dcb876130b7565b600160009054906101000a900473ffffffffffffffffffffffffffffffffffffffff1673ffffffffffffffffffffffffffffffffffffffff16638784ea96856000604051602001526040518263ffffffff167c0100000000000000000000000000000000000000000000000000000000028152600401611e4b9190614fbd565b602060405180830381600087803b1515611e6457600080fd5b6102c65a03f11515611e7557600080fd5b505050604051805190509150600160009054906101000a900473ffffffffffffffffffffffffffffffffffffffff1673ffffffffffffffffffffffffffffffffffffffff16631c4b774b886000604051602001526040518263ffffffff167c0100000000000000000000000000000000000000000000000000000000028152600401611f019190615097565b602060405180830381600087803b1515611f1a57600080fd5b6102c65a03f11515611f2b57600080fd5b505050604051805190509050600260009054906101000a900473ffffffffffffffffffffffffffffffffffffffff1673ffffffffffffffffffffffffffffffffffffffff166340c10f1983836000604051602001526040518363ffffffff167c0100000000000000000000000000000000000000000000000000000000028152600401611fb9929190614f79565b602060405180830381600087803b1515611fd257600080fd5b6102c65a03f11515611fe357600080fd5b505050604051805190501515611ff857600080fd5b600160009054906101000a900473ffffffffffffffffffffffffffffffffffffffff1673ffffffffffffffffffffffffffffffffffffffff16631cc1472d83856000604051602001526040518363ffffffff167c010000000000000000000000000000000000000000000000000000000002815260040161207a929190614f79565b602060405180830381600087803b151561209357600080fd5b6102c65a03f115156120a457600080fd5b5050506040518051905015156120b957600080fd5b600195505050505050919050565b6000809054906101000a900473ffffffffffffffffffffffffffffffffffffffff1673ffffffffffffffffffffffffffffffffffffffff163373ffffffffffffffffffffffffffffffffffffffff1614151561212257600080fd5b8060048190555050565b600080600080600080600080600160009054906101000a900473ffffffffffffffffffffffffffffffffffffffff1673ffffffffffffffffffffffffffffffffffffffff1663785d8d71600060405160c001526040518163ffffffff167c010000000000000000000000000000000000000000000000000000000002815260040160c060405180830381600087803b15156121c657600080fd5b6102c65a03f115156121d757600080fd5b50505060405180519060200180519060200180519060200180519060200180519060200180519050809750819850829950839a50849b50859c505050505050506000905060017f01000000000000000000000000000000000000000000000000000000000000000260017f01000000000000000000000000000000000000000000000000000000000000000260048b7effffffffffffffffffffffffffffffffffffffffffffffffffffffffffffff19169060020a9004167effffffffffffffffffffffffffffffffffffffffffffffffffffffffffffff191614156122f9576122f66122e7600188016122d960018b016003546135f590919063ffffffff16565b61363090919063ffffffff16565b8261364b90919063ffffffff16565b90505b60017f01000000000000000000000000000000000000000000000000000000000000000260017f01000000000000000000000000000000000000000000000000000000000000000260038b7effffffffffffffffffffffffffffffffffffffffffffffffffffffffffffff19169060020a9004167effffffffffffffffffffffffffffffffffffffffffffffffffffffffffffff191614156123d7576123d46123c5600187016123b760018b016003546135f590919063ffffffff16565b61363090919063ffffffff16565b8261364b90919063ffffffff16565b90505b60017f01000000000000000000000000000000000000000000000000000000000000000260017f01000000000000000000000000000000000000000000000000000000000000000260028b7effffffffffffffffffffffffffffffffffffffffffffffffffffffffffffff19169060020a9004167effffffffffffffffffffffffffffffffffffffffffffffffffffffffffffff191614156124b5576124b26124a36001860161249560018b016003546135f590919063ffffffff16565b61363090919063ffffffff16565b8261364b90919063ffffffff16565b90505b60017f01000000000000000000000000000000000000000000000000000000000000000260017f01000000000000000000000000000000000000000000000000000000000000000260018b7effffffffffffffffffffffffffffffffffffffffffffffffffffffffffffff19169060020a9004167effffffffffffffffffffffffffffffffffffffffffffffffffffffffffffff19161415612593576125906125816001850161257360018b016003546135f590919063ffffffff16565b61363090919063ffffffff16565b8261364b90919063ffffffff16565b90505b60017f01000000000000000000000000000000000000000000000000000000000000000260017f0100000000000000000000000000000000000000000000000000000000000000028a167effffffffffffffffffffffffffffffffffffffffffffffffffffffffffffff19161415612647576126446126356001840161262760018b016003546135f590919063ffffffff16565b61363090919063ffffffff16565b8261364b90919063ffffffff16565b90505b80975050505050505050919050565b6000809054906101000a900473ffffffffffffffffffffffffffffffffffffffff1673ffffffffffffffffffffffffffffffffffffffff163373ffffffffffffffffffffffffffffffffffffffff161415156126b157600080fd5b600073ffffffffffffffffffffffffffffffffffffffff168173ffffffffffffffffffffffffffffffffffffffff16141515156126ed57600080fd5b8073ffffffffffffffffffffffffffffffffffffffff166000809054906101000a900473ffffffffffffffffffffffffffffffffffffffff1673ffffffffffffffffffffffffffffffffffffffff167f8be0079c531659141344cd1fd0a4f28419497f9722a3daafe3b4186f6b6457e060405160405180910390a3806000806101000a81548173ffffffffffffffffffffffffffffffffffffffff021916908373ffffffffffffffffffffffffffffffffffffffff16021790555050565b600043905090565b60008160000151156127c857600090506127e1565b816020015115156127dc57600090506127e1565b600190505b919050565b8273ffffffffffffffffffffffffffffffffffffffff1663a9059cbb83836000604051602001526040518363ffffffff167c0100000000000000000000000000000000000000000000000000000000028152600401612846929190614f79565b602060405180830381600087803b151561285f57600080fd5b6102c65a03f1151561287057600080fd5b50505060405180519050151561288257fe5b505050565b61288f6146a3565b6128976146a3565b6000806000806000808860006002811015156128af57fe5b602002015187610120019063ffffffff1916908163ffffffff1916815250508860016002811015156128dd57fe5b602002015187610140019063ffffffff1916908163ffffffff191681525050600087610180019060ff16908160ff16815250506002876101a0019060ff16908160ff16815250506002876101c0019060ff16908160ff168152505060008760000190151590811515815250506000876020019015159081151581525050600187610160019060ff16908160ff16815250506ffffffffffffffe7ffdbfffffffffffff700100000000000000000000000000000000028761010001906fffffffffffffffffffffffffffffffff191690816fffffffffffffffffffffffffffffffff191681525050600091505b603c8260ff161080156129da575085155b15612b4857602087610180015160ff16106129fa57866101400151612a01565b8661012001515b9050612a2381602089610180015160ff16811515612a1b57fe5b066020613669565b9450612a2e856136ad565b8094508195505050612a3f856136ec565b15955085158015612a53575060088460ff16105b8015612a62575060088360ff16105b8015612a72575060008460ff1610155b8015612a82575060008360ff1610155b15612b3b57612a928785856136fd565b965060018761018001510187610180019060ff16908160ff1681525050866000015115612b3a576000876000019015159081151581525050600160ff1687610160015160ff161415612af757600287610160019060ff16908160ff1681525050612b0c565b600187610160019060ff16908160ff16815250505b612b178785856136fd565b9650866000015115612b39576001955060008760000190151590811515815250505b5b5b81806001019250506129c9565b86600001511515612b6a57612b5c876139ff565b9650612b6787613cb8565b96505b86975050505050505050919050565b6000806000806000806000600160009054906101000a900473ffffffffffffffffffffffffffffffffffffffff1673ffffffffffffffffffffffffffffffffffffffff1663785d8d71600060405160c001526040518163ffffffff167c010000000000000000000000000000000000000000000000000000000002815260040160c060405180830381600087803b1515612c1257600080fd5b6102c65a03f11515612c2357600080fd5b50505060405180519060200180519060200180519060200180519060200180519060200180519050809750819850829950839a50849b50859c50505050505050600160009054906101000a900473ffffffffffffffffffffffffffffffffffffffff1673ffffffffffffffffffffffffffffffffffffffff1663c53b4bf9896000604051602001526040518263ffffffff167c0100000000000000000000000000000000000000000000000000000000028152600401612ce39190615097565b602060405180830381600087803b1515612cfc57600080fd5b6102c65a03f11515612d0d57600080fd5b505050604051805190509050612d8460007f010000000000000000000000000000000000000000000000000000000000000002827effffffffffffffffffffffffffffffffffffffffffffffffffffffffffffff191611612d6f576000612d72565b60015b60ff1688613fb090919063ffffffff16565b9650612e0b60017f0100000000000000000000000000000000000000000000000000000000000000026004837effffffffffffffffffffffffffffffffffffffffffffffffffffffffffffff19169060020a9004167f0100000000000000000000000000000000000000000000000000000000000000900487613fb090919063ffffffff16565b9550612e9260017f0100000000000000000000000000000000000000000000000000000000000000026003837effffffffffffffffffffffffffffffffffffffffffffffffffffffffffffff19169060020a9004167f0100000000000000000000000000000000000000000000000000000000000000900486613fb090919063ffffffff16565b9450612f1960017f0100000000000000000000000000000000000000000000000000000000000000026002837effffffffffffffffffffffffffffffffffffffffffffffffffffffffffffff19169060020a9004167f0100000000000000000000000000000000000000000000000000000000000000900485613fb090919063ffffffff16565b9350612fa060017f0100000000000000000000000000000000000000000000000000000000000000026001837effffffffffffffffffffffffffffffffffffffffffffffffffffffffffffff19169060020a9004167f0100000000000000000000000000000000000000000000000000000000000000900484613fb090919063ffffffff16565b9250612ffd60017f01000000000000000000000000000000000000000000000000000000000000000282167f0100000000000000000000000000000000000000000000000000000000000000900483613fb090919063ffffffff16565b9150600160009054906101000a900473ffffffffffffffffffffffffffffffffffffffff1673ffffffffffffffffffffffffffffffffffffffff16638b1b2ba88888888888886040518763ffffffff167c01000000000000000000000000000000000000000000000000000000000281526004016130809695949392919061512d565b600060405180830381600087803b151561309957600080fd5b6102c65a03f115156130aa57600080fd5b5050505050505050505050565b6000806000806000806000600160009054906101000a900473ffffffffffffffffffffffffffffffffffffffff1673ffffffffffffffffffffffffffffffffffffffff1663785d8d71600060405160c001526040518163ffffffff167c010000000000000000000000000000000000000000000000000000000002815260040160c060405180830381600087803b151561315057600080fd5b6102c65a03f1151561316157600080fd5b50505060405180519060200180519060200180519060200180519060200180519060200180519050809750819850829950839a50849b50859c50505050505050600160009054906101000a900473ffffffffffffffffffffffffffffffffffffffff1673ffffffffffffffffffffffffffffffffffffffff1663c53b4bf9896000604051602001526040518263ffffffff167c01000000000000000000000000000000000000000000000000000000000281526004016132219190615097565b602060405180830381600087803b151561323a57600080fd5b6102c65a03f1151561324b57600080fd5b5050506040518051905090506132c260007f010000000000000000000000000000000000000000000000000000000000000002827effffffffffffffffffffffffffffffffffffffffffffffffffffffffffffff1916116132ad5760006132b0565b60015b60ff168861364b90919063ffffffff16565b965061334960017f0100000000000000000000000000000000000000000000000000000000000000026004837effffffffffffffffffffffffffffffffffffffffffffffffffffffffffffff19169060020a9004167f010000000000000000000000000000000000000000000000000000000000000090048761364b90919063ffffffff16565b95506133d060017f0100000000000000000000000000000000000000000000000000000000000000026003837effffffffffffffffffffffffffffffffffffffffffffffffffffffffffffff19169060020a9004167f010000000000000000000000000000000000000000000000000000000000000090048661364b90919063ffffffff16565b945061345760017f0100000000000000000000000000000000000000000000000000000000000000026002837effffffffffffffffffffffffffffffffffffffffffffffffffffffffffffff19169060020a9004167f010000000000000000000000000000000000000000000000000000000000000090048561364b90919063ffffffff16565b93506134de60017f0100000000000000000000000000000000000000000000000000000000000000026001837effffffffffffffffffffffffffffffffffffffffffffffffffffffffffffff19169060020a9004167f010000000000000000000000000000000000000000000000000000000000000090048461364b90919063ffffffff16565b925061353b60017f01000000000000000000000000000000000000000000000000000000000000000282167f010000000000000000000000000000000000000000000000000000000000000090048361364b90919063ffffffff16565b9150600160009054906101000a900473ffffffffffffffffffffffffffffffffffffffff1673ffffffffffffffffffffffffffffffffffffffff16638b1b2ba88888888888886040518763ffffffff167c01000000000000000000000000000000000000000000000000000000000281526004016135be9695949392919061512d565b600060405180830381600087803b15156135d757600080fd5b6102c65a03f115156135e857600080fd5b5050505050505050505050565b600080600084141561360a5760009150613629565b828402905082848281151561361b57fe5b0414151561362557fe5b8091505b5092915050565b600080828481151561363e57fe5b0490508091505092915050565b600080828401905083811015151561365f57fe5b8091505092915050565b6000806000607f64010000000002915060078086026007860203039050818160ff168763ffffffff19169060020a9004166401000000009004925050509392505050565b60008060008060408503945060088560ff168115156136c857fe5b069150600882860360ff168115156136dc57fe5b0490508181935093505050915091565b600060408260ff1610159050919050565b6137056146a3565b61370d614785565b600080600080600080600080600360ff1661372e8e61010001518e8e613fc9565b60ff161415156137515760018d60000190151590811515815250508c99506139ef565b61375c8d8d8d61405f565b809950819a50505060008860ff1614156137895760018d60000190151590811515815250508c99506139ef565b60009150600090505b8760ff168160ff1610156138ef5760009650600095506137c98d8a8360ff166008811015156137bd57fe5b60200201518e8e61439e565b8097508198505050600092505b8560ff168360ff1610156138e2578115156137f057600191505b6138036137fe888589613669565b6136ad565b80955081965050506138218d61010001518e6101600151878761450c565b8d61010001906fffffffffffffffffffffffffffffffff191690816fffffffffffffffffffffffffffffffff191681525050600260ff168d610160015160ff1614156138a05760018d6101c0018181510191509060ff16908160ff168152505060018d6101a0018181510391509060ff16908160ff16815250506138d5565b60018d6101c0018181510391509060ff16908160ff168152505060018d6101a0018181510191509060ff16908160ff16815250505b82806001019350506137d6565b8080600101915050613792565b81156139905761390b8d61010001518e61016001518e8e61450c565b8d61010001906fffffffffffffffffffffffffffffffff191690816fffffffffffffffffffffffffffffffff191681525050600260ff168d610160015160ff1614156139705760018d6101c0018181510191509060ff16908160ff168152505061398b565b60018d6101a0018181510191509060ff16908160ff16815250505b6139a9565b60018d60000190151590811515815250508c99506139ef565b600160ff168d610160015160ff1614156139d65760028d610160019060ff16908160ff16815250506139eb565b60018d610160019060ff16908160ff16815250505b8c99505b5050505050505050509392505050565b613a076146a3565b613a0f6147b4565b600080600080613a1d6146a3565b613a256147e3565b603c89610180015160ff161480613a4457506000896101a0015160ff16145b80613a5757506000896101c0015160ff16145b15613a865760008960000190151590811515815250506001896020019015159081151581525050889750613cac565b60009550600094505b60408560ff161015613b6857613ad98961010001516008808860ff16811515613ab457fe5b06880360ff16811515613ac357fe5b0460088860ff16811515613ad357fe5b06613fc9565b9350600360ff168460ff161415613b5b5760408051908101604052806008808860ff16811515613b0557fe5b06880360ff16811515613b1457fe5b0460ff1660ff16815260200160088760ff16811515613b2f57fe5b0660ff1660ff16815250878760ff16603c81101515613b4a57fe5b602002018190525085806001019650505b8480600101955050613a8f565b6000925060008660ff161115613c6957600094505b8560ff168560ff16108015613b90575082155b15613c6857868560ff16603c81101515613ba657fe5b60200201519050600189610160019060ff16908160ff1681525050613bf289826000600281101515613bd457fe5b6020020151836001600281101515613be857fe5b60200201516136fd565b915081600001511515613c0457600192505b600289610160019060ff16908160ff1681525050613c4989826000600281101515613c2b57fe5b6020020151836001600281101515613c3f57fe5b60200201516136fd565b915081600001511515613c5b57600192505b8480600101955050613b7d565b5b8215613c85576001896000019015159081151581525050613ca8565b600189602001901515908115158152505060008960000190151590811515815250505b8897505b50505050505050919050565b613cc06146a3565b60008060008060008060006001965060019550600194506001935060019250600091505b60088260ff16108015613d1457508680613cfb5750855b80613d035750845b80613d0b5750835b80613d135750825b5b15613f1957600090505b60088160ff16108015613d4e57508680613d355750855b80613d3d5750845b80613d455750835b80613d4d5750825b5b15613f0c57613d6989610100015183600703836007036145b8565b6fffffffffffffffffffffffffffffffff1916613d8c8a610100015184846145b8565b6fffffffffffffffffffffffffffffffff1916141515613dab57600096505b613dbe89610100015183836007036145b8565b6fffffffffffffffffffffffffffffffff1916613de18a610100015184846145b8565b6fffffffffffffffffffffffffffffffff1916141515613e0057600095505b613e1389610100015183600703836145b8565b6fffffffffffffffffffffffffffffffff1916613e368a610100015184846145b8565b6fffffffffffffffffffffffffffffffff1916141515613e5557600094505b613e6b89610100015182600703846007036145b8565b6fffffffffffffffffffffffffffffffff1916613e8e8a610100015184846145b8565b6fffffffffffffffffffffffffffffffff1916141515613ead57600093505b613ebd89610100015182846145b8565b6fffffffffffffffffffffffffffffffff1916613ee08a610100015184846145b8565b6fffffffffffffffffffffffffffffffff1916141515613eff57600092505b8080600101915050613d1e565b8180600101925050613ce4565b8680613f225750855b80613f2a5750845b80613f325750835b80613f3a5750825b15613fa15760018960400190151590811515815250508689606001901515908115158152505085896080019015159081151581525050848960a0019015159081151581525050838960c0019015159081151581525050828960e00190151590811515815250505b88975050505050505050919050565b6000828211151515613fbe57fe5b818303905092915050565b600080600080613fd9868661463f565b9250826fffffffffffffffffffffffffffffffff1660039060020a0260ff167001000000000000000000000000000000000287169150826fffffffffffffffffffffffffffffffff16826fffffffffffffffffffffffffffffffff19169060020a9004905080700100000000000000000000000000000000900493505050509392505050565b614067614785565b6000614071614785565b600061407b614785565b60008061408661480d565b600080600096506101006040519081016040528060408051908101604052807fffffffffffffffffffffffffffffffffffffffffffffffffffffffffffffffff60000b60000b81526020016000800b60000b815250815260200160408051908101604052807fffffffffffffffffffffffffffffffffffffffffffffffffffffffffffffffff60000b60000b8152602001600160000b60000b815250815260200160408051908101604052806000800b60000b8152602001600160000b60000b81525081526020016040805190810160405280600160000b60000b8152602001600160000b60000b81525081526020016040805190810160405280600160000b60000b81526020016000800b60000b81525081526020016040805190810160405280600160000b60000b81526020017fffffffffffffffffffffffffffffffffffffffffffffffffffffffffffffffff60000b60000b815250815260200160408051908101604052806000800b60000b81526020017fffffffffffffffffffffffffffffffffffffffffffffffffffffffffffffffff60000b60000b815250815260200160408051908101604052807fffffffffffffffffffffffffffffffffffffffffffffffffffffffffffffffff60000b60000b81526020017fffffffffffffffffffffffffffffffffffffffffffffffffffffffffffffffff60000b60000b8152508152509550600090505b60088160ff16101561438857858160ff166008811015156142b257fe5b602002015192508260006002811015156142c857fe5b60200201518c0193508260016002811015156142e057fe5b60200201518b01945060078560000b13806142fe575060008560000b125b8061430c575060078460000b135b8061431a575060008460000b125b151561437b576143308d61010001518587613fc9565b91508c610160015160ff168260ff1614151561437a57600360ff168260ff161415156143795782888860ff1660088110151561436857fe5b602002018190525086806001019750505b5b5b8080600101915050614295565b8787995099505050505050505050935093915050565b60008060008060008060008060008060008097508e61016001519650600160ff168f610160015160ff1614156143d757600295506143dc565b600195505b60009450600190505b60098160ff1610156144f4578415156144e7578c8e600060028110151561440857fe5b602002015182020193508b8e600160028110151561442257fe5b6020020151820201925060078460000b1380614441575060008460000b125b8061444f575060078360000b135b8061445d575060008360000b125b15614473576000985060009750600194506144e6565b6144838f61010001518585613fc9565b91508560ff168260ff1614156144ac5761449f8989868661465b565b809950819a5050506144e5565b8e610160015160ff168260ff161480156144c9575060018160ff16115b156144d757600194506144e4565b6000985060009750600194505b5b5b5b80806001019150506143e5565b88889a509a5050505050505050505094509492505050565b600080600060078560ff16111561452257600080fd5b60078460ff16111561453357600080fd5b61453d858561463f565b9150816fffffffffffffffffffffffffffffffff1660039060020a0260ff1670010000000000000000000000000000000002905086818818169650816fffffffffffffffffffffffffffffffff168660ff169060020a0260ff1670010000000000000000000000000000000002871792505050949350505050565b6000806145c5848461463f565b9050806fffffffffffffffffffffffffffffffff16816fffffffffffffffffffffffffffffffff166003700100000000000000000000000000000000026fffffffffffffffffffffffffffffffff19169060020a0286166fffffffffffffffffffffffffffffffff19169060020a90049150509392505050565b600060026001838560080201016040030260ff16905092915050565b600080600060406008850286010160ff1664010000000002905060078763ffffffff19169060020a029650808717965085806001019650508686925092505094509492505050565b6101e06040519081016040528060001515815260200160001515815260200160001515815260200160001515815260200160001515815260200160001515815260200160001515815260200160001515815260200160006fffffffffffffffffffffffffffffffff19168152602001600063ffffffff19168152602001600063ffffffff19168152602001600060ff168152602001600060ff168152602001600060ff168152602001600060ff1681525090565b60408051908101604052806002905b600063ffffffff19168152602001906001900390816147665790505090565b610200604051908101604052806008905b61479e614836565b8152602001906001900390816147965790505090565b610f0060405190810160405280603c905b6147cd61485f565b8152602001906001900390816147c55790505090565b60408051908101604052806002905b600060ff168152602001906001900390816147f25790505090565b60408051908101604052806002905b6000800b81526020019060019003908161481c5790505090565b60408051908101604052806002905b6000800b8152602001906001900390816148455790505090565b60408051908101604052806002905b600060ff1681526020019060019003908161486e5790505090565b600061489582356152a9565b905092915050565b600082601f830112600081146148b2576148b7565b600080fd5b5060026148cb6148c6826151c4565b61518e565b915081838560208402820111600181146148e4576148e9565b600080fd5b5060005b8381101561491a57816149008882614960565b8452602084019350602083019250506001810190506148ed565b5050505092915050565b600061493082356152c9565b905092915050565b600061494482356152d5565b905092915050565b60006149588235615301565b905092915050565b600061496c823561532d565b905092915050565b60006149808235615359565b905092915050565b60008083601f8401126000811461499e576149a3565b600080fd5b508235905067ffffffffffffffff8111600181146149c0576149c5565b600080fd5b506020830191508360018202830111600181146149e1576149e6565b600080fd5b509250929050565b60006149fa8235615363565b905092915050565b60006101e08284031260018114614a1857614a1d565b600080fd5b50614a296101e061518e565b90506000614a3984828501614924565b6000830152506020614a4d84828501614924565b6020830152506040614a6184828501614924565b6040830152506060614a7584828501614924565b6060830152506080614a8984828501614924565b60808301525060a0614a9d84828501614924565b60a08301525060c0614ab184828501614924565b60c08301525060e0614ac584828501614924565b60e083015250610100614ada8482850161494c565b61010083015250610120614af084828501614960565b61012083015250610140614b0684828501614960565b61014083015250610160614b1c84828501614b7f565b61016083015250610180614b3284828501614b7f565b610180830152506101a0614b4884828501614b7f565b6101a0830152506101c0614b5e84828501614b7f565b6101c08301525092915050565b6000614b778235615375565b905092915050565b6000614b8b823561537f565b905092915050565b600060208284031260018114614ba857614bad565b600080fd5b506000614bbc84828501614889565b91505092915050565b60008060008060608587031260018114614bde57614be3565b600080fd5b506000614bf287828801614889565b9450506020614c0387828801614b6b565b935050604085013567ffffffffffffffff811160018114614c2357614c28565b600080fd5b50614c3587828801614988565b925092505092959194509250565b600060408284031260018114614c5857614c5d565b600080fd5b506000614c6c8482850161489d565b91505092915050565b600080600060808486031260018114614c8d57614c92565b600080fd5b506000614ca18682870161489d565b9350506040614cb286828701614b6b565b9250506060614cc386828701614938565b9150509250925092565b60008060008060a08587031260018114614ce657614ceb565b600080fd5b506000614cfa8782880161489d565b9450506040614d0b87828801614b6b565b9350506060614d1c87828801614938565b9250506080614d2d87828801614889565b91505092959194509250565b600060208284031260018114614d4e57614d53565b600080fd5b506000614d6284828501614938565b91505092915050565b60008060408385031260018114614d8157614d86565b600080fd5b506000614d9585828601614974565b9250506020614da685828601614889565b9150509250929050565b600060208284031260018114614dc557614dca565b600080fd5b506000614dd9848285016149ee565b91505092915050565b60006101e08284031260018114614df857614dfd565b600080fd5b506000614e0c84828501614a02565b91505092915050565b600060208284031260018114614e2a57614e2f565b600080fd5b506000614e3e84828501614b6b565b91505092915050565b60008060408385031260018114614e5d57614e62565b600080fd5b506000614e7185828601614b6b565b9250506020614e8285828601614889565b9150509250929050565b614e9581615211565b82525050565b614ea4816151f9565b614ead826151ef565b60005b82811015614edf57614ec3858351614f04565b614ecc82615204565b9150602085019450600181019050614eb0565b5050505050565b614eef81615231565b82525050565b614efe8161523d565b82525050565b614f0d81615269565b82525050565b614f1c81615295565b82525050565b614f2b8161538c565b82525050565b614f3a8161539e565b82525050565b614f49816153b0565b82525050565b614f588161529f565b82525050565b6000602082019050614f736000830184614e8c565b92915050565b6000604082019050614f8e6000830185614e8c565b614f9b6020830184614f4f565b9392505050565b6000602082019050614fb76000830184614ee6565b92915050565b6000602082019050614fd26000830184614f13565b92915050565b6000604082019050614fed6000830185614f13565b614ffa6020830184614e8c565b9392505050565b60006040820190506150166000830185614f13565b6150236020830184614f31565b9392505050565b600060408201905061503f6000830185614f13565b61504c6020830184614f40565b9392505050565b60006040820190506150686000830185614f13565b6150756020830184614f4f565b9392505050565b60006020820190506150916000830184614f22565b92915050565b60006020820190506150ac6000830184614f4f565b92915050565b60006060820190506150c76000830185614f4f565b6150d46020830184614e9b565b9392505050565b60006040820190506150f06000830185614f4f565b6150fd6020830184614ef5565b9392505050565b60006040820190506151196000830185614f4f565b6151266020830184614f4f565b9392505050565b600060c0820190506151426000830189614f4f565b61514f6020830188614f4f565b61515c6040830187614f4f565b6151696060830186614f4f565b6151766080830185614f4f565b61518360a0830184614f4f565b979650505050505050565b6000604051905081810181811067ffffffffffffffff821117600181146151b4576151b9565b600080fd5b508060405250919050565b600067ffffffffffffffff8211600181146151de576151e3565b600080fd5b50602082029050919050565b6000819050919050565b600060029050919050565b6000602082019050919050565b600073ffffffffffffffffffffffffffffffffffffffff82169050919050565b60008115159050919050565b60007fff0000000000000000000000000000000000000000000000000000000000000082169050919050565b60007fffffffffffffffffffffffffffffffffffffffffffffffffffffffff0000000082169050919050565b6000819050919050565b6000819050919050565b600073ffffffffffffffffffffffffffffffffffffffff82169050919050565b60008115159050919050565b60007fff0000000000000000000000000000000000000000000000000000000000000082169050919050565b60007fffffffffffffffffffffffffffffffff0000000000000000000000000000000082169050919050565b60007fffffffffffffffffffffffffffffffffffffffffffffffffffffffff0000000082169050919050565b6000819050919050565b600061536e82615211565b9050919050565b6000819050919050565b600060ff82169050919050565b600061539782615211565b9050919050565b60006153a982615211565b9050919050565b60006153bb8261529f565b90509190505600a265627a7a72305820b9a28d63134d3e782b9d630d59b38987e5ff60e6c1020156963870a3322083966c6578706572696d656e74616cf50037",
  "source": "pragma solidity ^0.4.19;\npragma experimental ABIEncoderV2;\n\n/**\n * The CloversController is upgradeable and contains the logic used by CloversFrontend\n * Both adhere to the CloversFactory interface design\n */\nimport \"./IClovers.sol\";\nimport \"./Reversi.sol\";\nimport \"./Mintable.sol\";\nimport \"./CloversFactory.sol\";\nimport \"zeppelin-solidity/contracts/ownership/HasNoTokens.sol\";\nimport \"zeppelin-solidity/contracts/ownership/HasNoEther.sol\";\nimport \"zeppelin-solidity/contracts/math/SafeMath.sol\";\n\ncontract CloversController is CloversFactory, HasNoTokens, HasNoEther {\n    event cloverCommited(bytes32 movesHash, address miner);\n    event cloverRevealed(bytes28[2] moves, uint256 _tokenId, address miner);\n    event cloverClaimed(bytes28[2] moves, uint256 _tokenId, address miner);\n    event stakeRetrieved(bytes28[2] moves, uint256 _tokenId, address miner);\n    event cloverChallenged(bytes28[2] moves, uint256 _tokenId, address miner, address challenger);\n\n    using SafeMath for uint256;\n\n    address clovers;\n    address clubToken;\n\n    uint256 payMultiplier;\n    uint256 stakeAmount;\n    uint256 stakePeriod;\n\n    function CloversController(address _clovers, address _clubToken) public {\n        clovers = _clovers;\n        clubToken = _clubToken;\n    }    \n\n    /**\n    * @dev Gets the current staking amount needed to claim a Clover.\n    * @return A uint256 value of how much stake is needed.\n    */\n    function currentStakeAmount() public constant returns (uint256) {\n        return stakeAmount;\n    }\n    /**\n    * @dev Gets the current staking period needed to verify a Clover.\n    * @return A uint256 value of stake period in seconds.\n    */\n    function currentStakePeriod() public constant returns (uint256) {\n        return stakePeriod;\n    }\n    /**\n    * @dev Gets the current staking period needed to verify a Clover.\n    * @return A uint256 value of stake period in seconds.\n    */\n    function getMultiplier() public constant returns (uint256) {\n        return payMultiplier;\n    }\n    /**\n    * @dev Checks whether the game is valid.\n    * @param moves The moves needed to play validate the game.\n    * @return A boolean representing whether or not the game is valid.\n    */\n    function isValid(bytes28[2] moves) public constant returns (bool) {\n        Reversi.Game memory game = Reversi.playGame(moves);\n        return isValidGame(game);\n    }\n    /**\n    * @dev Checks whether the game is valid.\n    * @param game The pre-played game.\n    * @return A boolean representing whether or not the game is valid.\n    */\n    function isValidGame(Reversi.Game game) public constant returns (bool) {\n        if (game.error) return false;\n        if (!game.complete) return false;\n        return true;\n    }\n    /**\n    * @dev Checks whether the game has passed the verification period.\n    * @param _tokenId The board being checked.\n    * @return A boolean representing whether or not the game has been verified.\n    */\n    function isVerified(uint256 _tokenId) public constant returns (bool) {\n        uint256 _blockMinted = IClovers(clovers).getBlockMinted(_tokenId);\n        if(_blockMinted == 0) return false;\n        // require(block.number > _blockMinted);\n        return (block.number - _blockMinted) > stakePeriod;\n    }\n    function returnNow() public constant returns (uint) {\n        return block.number;\n    }\n    /**\n    * @dev Calculates the reward of the board.\n    * @param _symmetries symmetries saved as a bytes1 value like 00010101 where bits represent symmetry types.\n    * @return A uint256 representing the reward that would be returned for claiming the board.\n    */\n    function calculateReward(bytes1 _symmetries) public constant returns (uint256) {\n        uint256 Symmetricals;\n        uint256 RotSym;\n        uint256 Y0Sym;\n        uint256 X0Sym;\n        uint256 XYSym;\n        uint256 XnYSym;\n        (Symmetricals,\n        RotSym,\n        Y0Sym,\n        X0Sym,\n        XYSym,\n        XnYSym) = IClovers(clovers).getAllSymmetries();\n        uint256 base = 0;\n        if (_symmetries >> 4 & 1 == 1) base = base.add(payMultiplier.mul(Symmetricals + 1).div(RotSym + 1));\n        if (_symmetries >> 3 & 1 == 1) base = base.add(payMultiplier.mul(Symmetricals + 1).div(Y0Sym + 1));\n        if (_symmetries >> 2 & 1 == 1) base = base.add(payMultiplier.mul(Symmetricals + 1).div(X0Sym + 1));\n        if (_symmetries >> 1 & 1 == 1) base = base.add(payMultiplier.mul(Symmetricals + 1).div(XYSym + 1));\n        if (_symmetries & 1 == 1) base = base.add(payMultiplier.mul(Symmetricals + 1).div(XnYSym + 1));\n        return base;\n    }\n\n    /**\n    * @dev Claim the Clover without a commit or reveal.\n    * @param moves The moves that make up the Clover reversi game.\n    * @param _tokenId The board that results from the moves.\n    * @param _symmetries symmetries saved as a bytes1 value like 00010101 where bits represent symmetry types.\n    * @param _to The address claiming the Clover.\n    * @return A boolean representing whether or not the claim was successful.\n    */\n    function claimClover(bytes28[2] moves, uint256 _tokenId, bytes1 _symmetries, address _to) public payable returns (bool) {\n        require(moves[0] != 0);\n        // require(msg.value == stakeAmount);\n        // bytes32 movesHash = keccak256(moves);\n        // IClovers(clovers).setCommit(movesHash, _to);\n        // IClovers(clovers).setStake(movesHash, stakeAmount);\n        // clovers.transfer(stakeAmount);\n        // require(IClovers(clovers).getBlockMinted(_tokenId) == 0);\n        // IClovers(clovers).setBlockMinted(_tokenId, block.number);\n        // IClovers(clovers).setCloverMoves(_tokenId, moves);\n        // if (_symmetries > 0) {\n        //     IClovers(clovers).setSymmetries(_tokenId, _symmetries);\n        //     uint256 reward = calculateReward(_symmetries);\n        //     IClovers(clovers).setReward(_tokenId, reward);\n        // }\n        // IClovers(clovers).mint(_to, _tokenId);\n        // return true;\n    }\n    /**\n    * @dev Commit the hash of the moves needed to claim the Clover. A stake should be made for counterfactual verification.\n    * @param movesHash The hash of the moves that makes up the Clover reversi game.\n    * @param _to The address claiming the Clover.\n    * @return A boolean representing whether or not the commit was successful.\n    */\n    function claimCloverCommit(bytes32 movesHash, address _to) public payable returns (bool) {\n        require(_to != 0);\n        require(msg.value == stakeAmount);\n        require(IClovers(clovers).getCommit(movesHash) == 0);\n        IClovers(clovers).setCommit(movesHash, _to);\n        IClovers(clovers).setStake(movesHash, stakeAmount);\n        clovers.transfer(stakeAmount);\n        return true;\n    }\n    /**\n    * @dev Reveal the solution to the previous commit to claim the Clover.\n    * @param moves The moves that make up the Clover reversi game.\n    * @param _tokenId The board that results from the moves.\n    * @param _symmetries symmetries saved as a bytes1 value like 00010101 where bits represent symmetry types.\n    * @return A boolean representing whether or not the reveal and claim was successful.\n    */\n    function claimCloverReveal(bytes28[2] moves, uint256 _tokenId, bytes1 _symmetries) public returns (bool) {\n        require(moves[0] != 0);\n        bytes32 movesHash = keccak256(moves);\n        address commiter = IClovers(clovers).getCommit(movesHash);\n        require(IClovers(clovers).getBlockMinted(_tokenId) == 0);\n        IClovers(clovers).setBlockMinted(_tokenId, block.number);\n        IClovers(clovers).setCloverMoves(_tokenId, moves);\n        if (_symmetries > 0) {\n            IClovers(clovers).setSymmetries(_tokenId, _symmetries);\n            uint256 reward = calculateReward(_symmetries);\n            IClovers(clovers).setReward(_tokenId, reward);\n        }\n        IClovers(clovers).mint(commiter, _tokenId);\n        return true;\n    }\n    /**\n    * @dev Retrieve the stake from a Clover claim after the stake period has ended.\n    * @param _tokenId The board which holds the stake.\n    * @return A boolean representing whether or not the retrieval was successful.\n    */\n    function retrieveStake(uint256 _tokenId) public returns (bool) {\n        bytes28[2] memory moves = IClovers(clovers).getCloverMoves(_tokenId);\n        require(moves[0] != 0);\n        bytes32 movesHash = keccak256(moves);\n        uint256 stake = IClovers(clovers).getStake(movesHash);\n        require(stake != 0);\n        require(isVerified(_tokenId));\n        IClovers(clovers).setStake(movesHash, 0);\n        addSymmetries(_tokenId);\n        address commiter = IClovers(clovers).getCommit(movesHash);\n        uint256 reward = IClovers(clovers).getReward(_tokenId);\n        require(Mintable(clubToken).mint(commiter, reward));\n        require(IClovers(clovers).moveEth(commiter, stake));\n        return true;\n    }\n    /**\n    * @dev Challenge a staked Clover for being invalid.\n    * @param _tokenId The board being challenged.\n    * @param _to The address challenging the Clover.\n    * @return A boolean representing whether or not the challenge was successful.\n    */\n    function challengeClover(uint256 _tokenId, address _to) public returns (bool) {\n        bool valid = true;\n        bytes28[2] memory moves = IClovers(clovers).getCloverMoves(_tokenId);\n        require(moves[0] != 0);\n        Reversi.Game memory game = Reversi.playGame(moves);\n        if(isValidGame(game)) {\n            bytes1 _symmetries = IClovers(clovers).getSymmetries(_tokenId);\n\n            valid = (_symmetries >> 4 & 1) > 0 == game.RotSym ? valid : false;\n            valid = (_symmetries >> 3 & 1) > 0 == game.Y0Sym ? valid : false;\n            valid = (_symmetries >> 2 & 1) > 0 == game.X0Sym ? valid : false;\n            valid = (_symmetries >> 1 & 1) > 0 == game.XYSym ? valid : false;\n            valid = (_symmetries & 1) > 0 == game.XnYSym ? valid : false;\n\n        } else {\n            valid = false;\n        }\n        if (!valid) {\n            IClovers(clovers).deleteClover(_tokenId);\n            bytes32 movesHash = keccak256(moves);\n            if (!isVerified(_tokenId)) {\n                uint256 stake = IClovers(clovers).getStake(movesHash);\n                IClovers(clovers).moveEth(_to, stake);\n            }\n            IClovers(clovers).burn(_tokenId);\n            IClovers(clovers).setCommit(movesHash, 0);\n            IClovers(clovers).setStake(movesHash, 0);\n            removeSymmetries(_tokenId);\n        } else {\n            revert();\n        }\n        return true;\n    }\n\n    /**\n    * @dev Updates the stake amount.\n    * @param _stakeAmount The new amount needed to stake.\n    */\n    function updateStakeAmount(uint256 _stakeAmount) public onlyOwner {\n        stakeAmount = _stakeAmount;\n    }\n    /**\n    * @dev Updates the stake period.\n    * @param _stakePeriod The uint256 value of time needed to stake before being verified.\n    */\n    function updateStakePeriod(uint256 _stakePeriod) public onlyOwner {\n        stakePeriod = _stakePeriod;\n    }\n    /**\n    * @dev Updates the pay multiplier, used to calculate token reward.\n    * @param _payMultiplier The uint256 value of pay multiplier.\n    */\n    function updatePayMultipier(uint256 _payMultiplier) public onlyOwner {\n        payMultiplier = _payMultiplier;\n    }\n    /**\n    * @dev Adds new tallys of the totals numbers of clover symmetries.\n    * @param _tokenId The token which needs to be examined.\n    */\n    function addSymmetries(uint256 _tokenId) private {\n        uint256 Symmetricals;\n        uint256 RotSym;\n        uint256 Y0Sym;\n        uint256 X0Sym;\n        uint256 XYSym;\n        uint256 XnYSym;\n        (Symmetricals,\n        RotSym,\n        Y0Sym,\n        X0Sym,\n        XYSym,\n        XnYSym) = IClovers(clovers).getAllSymmetries();\n        bytes1 _symmetries = IClovers(clovers).getSymmetries(_tokenId);\n        Symmetricals = Symmetricals.add(_symmetries > 0 ? 1 : 0);\n        RotSym = RotSym.add(uint256(_symmetries >> 4 & 1));\n        Y0Sym = Y0Sym.add(uint256(_symmetries >> 3 & 1));\n        X0Sym = X0Sym.add(uint256(_symmetries >> 2 & 1));\n        XYSym = XYSym.add(uint256(_symmetries >> 1 & 1));\n        XnYSym = XnYSym.add(uint256(_symmetries & 1));\n        IClovers(clovers).setAllSymmetries(Symmetricals, RotSym, Y0Sym, X0Sym, XYSym, XnYSym);\n    }\n    /**\n    * @dev Remove false tallys of the totals numbers of clover symmetries.\n    * @param _tokenId The token which needs to be examined.\n    */\n    function removeSymmetries(uint256 _tokenId) private {\n        uint256 Symmetricals;\n        uint256 RotSym;\n        uint256 Y0Sym;\n        uint256 X0Sym;\n        uint256 XYSym;\n        uint256 XnYSym;\n        (Symmetricals,\n        RotSym,\n        Y0Sym,\n        X0Sym,\n        XYSym,\n        XnYSym) = IClovers(clovers).getAllSymmetries();\n        bytes1 _symmetries = IClovers(clovers).getSymmetries(_tokenId);\n        Symmetricals = Symmetricals.sub(_symmetries > 0 ? 1 : 0);\n        RotSym = RotSym.sub(uint256(_symmetries >> 4 & 1));\n        Y0Sym = Y0Sym.sub(uint256(_symmetries >> 3 & 1));\n        X0Sym = X0Sym.sub(uint256(_symmetries >> 2 & 1));\n        XYSym = XYSym.sub(uint256(_symmetries >> 1 & 1));\n        XnYSym = XnYSym.sub(uint256(_symmetries & 1));\n        IClovers(clovers).setAllSymmetries(Symmetricals, RotSym, Y0Sym, X0Sym, XYSym, XnYSym);\n    }\n\n}",
  "sourcePath": "/Users/billy/vue/clovers-dapp/contracts/CloversController.sol",
  "compiler": {
    "name": "solc",
    "version": "0.4.19+commit.c4cbbb05.Emscripten.clang"
  },
  "schemaVersion": "1.0.1",
  "updatedAt": "2018-03-23T20:17:51.949Z"
}