{
  "contractName": "CloversController",
  "abi": [
    {
      "constant": false,
      "inputs": [
        {
          "name": "token",
          "type": "address"
        }
      ],
      "name": "reclaimToken",
      "outputs": [],
      "payable": false,
      "stateMutability": "nonpayable",
      "type": "function"
    },
    {
      "constant": true,
      "inputs": [],
      "name": "owner",
      "outputs": [
        {
          "name": "",
          "type": "address"
        }
      ],
      "payable": false,
      "stateMutability": "view",
      "type": "function"
    },
    {
      "constant": false,
      "inputs": [],
      "name": "reclaimEther",
      "outputs": [],
      "payable": false,
      "stateMutability": "nonpayable",
      "type": "function"
    },
    {
      "constant": false,
      "inputs": [
        {
          "name": "from_",
          "type": "address"
        },
        {
          "name": "value_",
          "type": "uint256"
        },
        {
          "name": "data_",
          "type": "bytes"
        }
      ],
      "name": "tokenFallback",
      "outputs": [],
      "payable": false,
      "stateMutability": "nonpayable",
      "type": "function"
    },
    {
      "constant": false,
      "inputs": [
        {
          "name": "newOwner",
          "type": "address"
        }
      ],
      "name": "transferOwnership",
      "outputs": [],
      "payable": false,
      "stateMutability": "nonpayable",
      "type": "function"
    },
    {
      "inputs": [
        {
          "name": "_clovers",
          "type": "address"
        },
        {
          "name": "_clubToken",
          "type": "address"
        }
      ],
      "payable": false,
      "stateMutability": "nonpayable",
      "type": "constructor"
    },
    {
      "payable": false,
      "stateMutability": "nonpayable",
      "type": "fallback"
    },
    {
      "anonymous": false,
      "inputs": [
        {
          "indexed": true,
          "name": "previousOwner",
          "type": "address"
        },
        {
          "indexed": true,
          "name": "newOwner",
          "type": "address"
        }
      ],
      "name": "OwnershipTransferred",
      "type": "event"
    },
    {
      "anonymous": false,
      "inputs": [
        {
          "indexed": false,
          "name": "movesHash",
          "type": "bytes32"
        },
        {
          "indexed": false,
          "name": "miner",
          "type": "address"
        }
      ],
      "name": "cloverCommited",
      "type": "event"
    },
    {
      "anonymous": false,
      "inputs": [
        {
          "indexed": false,
          "name": "moves",
          "type": "bytes28[2]"
        },
        {
          "indexed": false,
          "name": "_tokenId",
          "type": "uint256"
        },
        {
          "indexed": false,
          "name": "miner",
          "type": "address"
        }
      ],
      "name": "cloverRevealed",
      "type": "event"
    },
    {
      "anonymous": false,
      "inputs": [
        {
          "indexed": false,
          "name": "moves",
          "type": "bytes28[2]"
        },
        {
          "indexed": false,
          "name": "_tokenId",
          "type": "uint256"
        },
        {
          "indexed": false,
          "name": "miner",
          "type": "address"
        }
      ],
      "name": "cloverClaimed",
      "type": "event"
    },
    {
      "anonymous": false,
      "inputs": [
        {
          "indexed": false,
          "name": "moves",
          "type": "bytes28[2]"
        },
        {
          "indexed": false,
          "name": "_tokenId",
          "type": "uint256"
        },
        {
          "indexed": false,
          "name": "miner",
          "type": "address"
        }
      ],
      "name": "stakeRetrieved",
      "type": "event"
    },
    {
      "anonymous": false,
      "inputs": [
        {
          "indexed": false,
          "name": "moves",
          "type": "bytes28[2]"
        },
        {
          "indexed": false,
          "name": "_tokenId",
          "type": "uint256"
        },
        {
          "indexed": false,
          "name": "miner",
          "type": "address"
        },
        {
          "indexed": false,
          "name": "challenger",
          "type": "address"
        }
      ],
      "name": "cloverChallenged",
      "type": "event"
    },
    {
      "constant": true,
      "inputs": [],
      "name": "currentStakeAmount",
      "outputs": [
        {
          "name": "",
          "type": "uint256"
        }
      ],
      "payable": false,
      "stateMutability": "view",
      "type": "function"
    },
    {
      "constant": true,
      "inputs": [],
      "name": "currentStakePeriod",
      "outputs": [
        {
          "name": "",
          "type": "uint256"
        }
      ],
      "payable": false,
      "stateMutability": "view",
      "type": "function"
    },
    {
      "constant": true,
      "inputs": [],
      "name": "getMultiplier",
      "outputs": [
        {
          "name": "",
          "type": "uint256"
        }
      ],
      "payable": false,
      "stateMutability": "view",
      "type": "function"
    },
    {
      "constant": true,
      "inputs": [
        {
          "name": "moves",
          "type": "bytes28[2]"
        }
      ],
      "name": "isValid",
      "outputs": [
        {
          "name": "",
          "type": "bool"
        }
      ],
      "payable": false,
      "stateMutability": "view",
      "type": "function"
    },
    {
      "constant": true,
      "inputs": [
        {
          "components": [
            {
              "name": "error",
              "type": "bool"
            },
            {
              "name": "complete",
              "type": "bool"
            },
            {
              "name": "symmetrical",
              "type": "bool"
            },
            {
              "name": "RotSym",
              "type": "bool"
            },
            {
              "name": "Y0Sym",
              "type": "bool"
            },
            {
              "name": "X0Sym",
              "type": "bool"
            },
            {
              "name": "XYSym",
              "type": "bool"
            },
            {
              "name": "XnYSym",
              "type": "bool"
            },
            {
              "name": "board",
              "type": "bytes16"
            },
            {
              "name": "first32Moves",
              "type": "bytes28"
            },
            {
              "name": "lastMoves",
              "type": "bytes28"
            },
            {
              "name": "currentPlayer",
              "type": "uint8"
            },
            {
              "name": "moveKey",
              "type": "uint8"
            },
            {
              "name": "blackScore",
              "type": "uint8"
            },
            {
              "name": "whiteScore",
              "type": "uint8"
            }
          ],
          "name": "game",
          "type": "tuple"
        }
      ],
      "name": "isValidGame",
      "outputs": [
        {
          "name": "",
          "type": "bool"
        }
      ],
      "payable": false,
      "stateMutability": "view",
      "type": "function"
    },
    {
      "constant": true,
      "inputs": [
        {
          "name": "_tokenId",
          "type": "uint256"
        }
      ],
      "name": "isVerified",
      "outputs": [
        {
          "name": "",
          "type": "bool"
        }
      ],
      "payable": false,
      "stateMutability": "view",
      "type": "function"
    },
    {
      "constant": true,
      "inputs": [
        {
          "name": "_symmetries",
          "type": "bytes1"
        }
      ],
      "name": "calculateReward",
      "outputs": [
        {
          "name": "",
          "type": "uint256"
        }
      ],
      "payable": false,
      "stateMutability": "view",
      "type": "function"
    },
    {
      "constant": false,
      "inputs": [
        {
          "name": "moves",
          "type": "bytes28[2]"
        },
        {
          "name": "_tokenId",
          "type": "uint256"
        },
        {
          "name": "_symmetries",
          "type": "bytes1"
        },
        {
          "name": "_to",
          "type": "address"
        }
      ],
      "name": "claimClover",
      "outputs": [
        {
          "name": "",
          "type": "bool"
        }
      ],
      "payable": true,
      "stateMutability": "payable",
      "type": "function"
    },
    {
      "constant": false,
      "inputs": [
        {
          "name": "movesHash",
          "type": "bytes32"
        },
        {
          "name": "_to",
          "type": "address"
        }
      ],
      "name": "claimCloverCommit",
      "outputs": [
        {
          "name": "",
          "type": "bool"
        }
      ],
      "payable": true,
      "stateMutability": "payable",
      "type": "function"
    },
    {
      "constant": false,
      "inputs": [
        {
          "name": "moves",
          "type": "bytes28[2]"
        },
        {
          "name": "_tokenId",
          "type": "uint256"
        },
        {
          "name": "_symmetries",
          "type": "bytes1"
        }
      ],
      "name": "claimCloverReveal",
      "outputs": [
        {
          "name": "",
          "type": "bool"
        }
      ],
      "payable": false,
      "stateMutability": "nonpayable",
      "type": "function"
    },
    {
      "constant": false,
      "inputs": [
        {
          "name": "_tokenId",
          "type": "uint256"
        }
      ],
      "name": "retrieveStake",
      "outputs": [
        {
          "name": "",
          "type": "bool"
        }
      ],
      "payable": false,
      "stateMutability": "nonpayable",
      "type": "function"
    },
    {
      "constant": false,
      "inputs": [
        {
          "name": "_tokenId",
          "type": "uint256"
        },
        {
          "name": "_to",
          "type": "address"
        }
      ],
      "name": "challengeClover",
      "outputs": [
        {
          "name": "",
          "type": "bool"
        }
      ],
      "payable": false,
      "stateMutability": "nonpayable",
      "type": "function"
    },
    {
      "constant": false,
      "inputs": [
        {
          "name": "_stakeAmount",
          "type": "uint256"
        }
      ],
      "name": "updateStakeAmount",
      "outputs": [],
      "payable": false,
      "stateMutability": "nonpayable",
      "type": "function"
    },
    {
      "constant": false,
      "inputs": [
        {
          "name": "_stakePeriod",
          "type": "uint256"
        }
      ],
      "name": "updateStakePeriod",
      "outputs": [],
      "payable": false,
      "stateMutability": "nonpayable",
      "type": "function"
    },
    {
      "constant": false,
      "inputs": [
        {
          "name": "_payMultiplier",
          "type": "uint256"
        }
      ],
      "name": "updatePayMultipier",
      "outputs": [],
      "payable": false,
      "stateMutability": "nonpayable",
      "type": "function"
    }
  ],
  "bytecode": "0x606060405234156200001057600080fd5b60405160408062005bc28339810160405262000036906780000000000000009062000126565b336000806101000a81548173ffffffffffffffffffffffffffffffffffffffff021916908373ffffffffffffffffffffffffffffffffffffffff1602179055506000341415156200008657600080fd5b81600160006101000a81548173ffffffffffffffffffffffffffffffffffffffff021916908373ffffffffffffffffffffffffffffffffffffffff16021790555080600260006101000a81548173ffffffffffffffffffffffffffffffffffffffff021916908373ffffffffffffffffffffffffffffffffffffffff160217905550505062000191565b60006200011e825162000171565b905092915050565b600080604083850312600181146200013e5762000143565b600080fd5b506000620001548582860162000110565b9250506020620001678582860162000110565b9150509250929050565b600073ffffffffffffffffffffffffffffffffffffffff82169050919050565b615a2180620001a16000396000f300606060405260043610610112576000357c0100000000000000000000000000000000000000000000000000000000900463ffffffff16806308b6a33d1461011f57806317ffc3201461014a578063271eff941461016c57806332cda779146101a257806335f71899146101cb57806337b6d96b146101f657806340490a901461022c5780635759f3f7146102555780636cb6b41f146102775780638a05aafa146102a05780638da5cb5b146102c25780639f727c27146102eb578063acd37b7b14610300578063afc6285314610336578063c0ee0b8a1461036c578063c1fe551a1461038e578063c90054ee146103c4578063e00a768d146103e6578063f2fde38b1461041c578063f8a68a561461043e575b341561011d57600080fd5b005b610134600461012f9036906152f2565b610474565b60405161014191906155c7565b60405180910390f35b341561015557600080fd5b61016a60046101659036906153d5565b610b03565b005b341561017757600080fd5b61018c6004610187903690615268565b610c44565b60405161019991906155c7565b60405180910390f35b34156101ad57600080fd5b6101b5610c6a565b6040516101c291906156bc565b60405180910390f35b6101e060046101db903690615390565b610c74565b6040516101ed91906155c7565b60405180910390f35b341561020157600080fd5b610216600461021190369061543a565b610f3f565b60405161022391906155c7565b60405180910390f35b341561023757600080fd5b61023f611025565b60405161024c91906156bc565b60405180910390f35b341561026057600080fd5b610275600461027090369061543a565b61102f565b005b341561028257600080fd5b61028a611094565b60405161029791906156bc565b60405180910390f35b34156102ab57600080fd5b6102c060046102bb90369061543a565b61109e565b005b34156102cd57600080fd5b6102d5611103565b6040516102e29190615583565b60405180910390f35b34156102f657600080fd5b6102fe611128565b005b341561030b57600080fd5b610320600461031b90369061546c565b6111fa565b60405161032d91906155c7565b60405180910390f35b341561034157600080fd5b610356600461035190369061529a565b611b9b565b60405161036391906155c7565b60405180910390f35b341561037757600080fd5b61038c60046103879036906151ea565b612130565b005b341561039957600080fd5b6103ae60046103a990369061543a565b612135565b6040516103bb91906155c7565b60405180910390f35b34156103cf57600080fd5b6103e460046103df90369061543a565b6126f4565b005b34156103f157600080fd5b610406600461040190369061535e565b612759565b60405161041391906156bc565b60405180910390f35b341561042757600080fd5b61043c60046104379036906151b8565b612c83565b005b341561044957600080fd5b61045e6004610459903690615407565b612dd8565b60405161046b91906155c7565b60405180910390f35b6000806000806401000000000287600060028110151561049057fe5b602002015163ffffffff1916141515156104a957600080fd5b866040518082600260200280838360005b838110156104d55780820151818401526020810190506104ba565b5050505090500191505060405180910390209150600160009054906101000a900473ffffffffffffffffffffffffffffffffffffffff1673ffffffffffffffffffffffffffffffffffffffff16631dbd9d9183866040518363ffffffff167c01000000000000000000000000000000000000000000000000000000000281526004016105629291906155fd565b600060405180830381600087803b151561057b57600080fd5b6102c65a03f1151561058c57600080fd5b505050600160009054906101000a900473ffffffffffffffffffffffffffffffffffffffff1673ffffffffffffffffffffffffffffffffffffffff16633541fd53836004546040518363ffffffff167c010000000000000000000000000000000000000000000000000000000002815260040161060a929190615678565b600060405180830381600087803b151561062357600080fd5b6102c65a03f1151561063457600080fd5b505050600160009054906101000a900473ffffffffffffffffffffffffffffffffffffffff1673ffffffffffffffffffffffffffffffffffffffff166108fc6004549081150290604051600060405180830381858888f19350505050151561069b57600080fd5b6000600160009054906101000a900473ffffffffffffffffffffffffffffffffffffffff1673ffffffffffffffffffffffffffffffffffffffff166303a53d6b886000604051602001526040518263ffffffff167c010000000000000000000000000000000000000000000000000000000002815260040161071d91906156bc565b602060405180830381600087803b151561073657600080fd5b6102c65a03f1151561074757600080fd5b505050604051805190501415151561075e57600080fd5b600160009054906101000a900473ffffffffffffffffffffffffffffffffffffffff1673ffffffffffffffffffffffffffffffffffffffff1663e3100d1e87426040518363ffffffff167c01000000000000000000000000000000000000000000000000000000000281526004016107d7929190615729565b600060405180830381600087803b15156107f057600080fd5b6102c65a03f1151561080157600080fd5b505050600160009054906101000a900473ffffffffffffffffffffffffffffffffffffffff1673ffffffffffffffffffffffffffffffffffffffff16630b62839587896040518363ffffffff167c010000000000000000000000000000000000000000000000000000000002815260040161087d9291906156d7565b600060405180830381600087803b151561089657600080fd5b6102c65a03f115156108a757600080fd5b50505060007f010000000000000000000000000000000000000000000000000000000000000002857effffffffffffffffffffffffffffffffffffffffffffffffffffffffffffff19161115610a4f57600160009054906101000a900473ffffffffffffffffffffffffffffffffffffffff1673ffffffffffffffffffffffffffffffffffffffff16631dba566087876040518363ffffffff167c0100000000000000000000000000000000000000000000000000000000028152600401610970929190615700565b600060405180830381600087803b151561098957600080fd5b6102c65a03f1151561099a57600080fd5b5050506109a685612759565b9050600160009054906101000a900473ffffffffffffffffffffffffffffffffffffffff1673ffffffffffffffffffffffffffffffffffffffff1663a47bd49687836040518363ffffffff167c0100000000000000000000000000000000000000000000000000000000028152600401610a21929190615729565b600060405180830381600087803b1515610a3a57600080fd5b6102c65a03f11515610a4b57600080fd5b5050505b600160009054906101000a900473ffffffffffffffffffffffffffffffffffffffff1673ffffffffffffffffffffffffffffffffffffffff166340c10f1985886040518363ffffffff167c0100000000000000000000000000000000000000000000000000000000028152600401610ac892919061559e565b600060405180830381600087803b1515610ae157600080fd5b6102c65a03f11515610af257600080fd5b505050600192505050949350505050565b60008060009054906101000a900473ffffffffffffffffffffffffffffffffffffffff1673ffffffffffffffffffffffffffffffffffffffff163373ffffffffffffffffffffffffffffffffffffffff16141515610b6057600080fd5b8173ffffffffffffffffffffffffffffffffffffffff166370a08231306000604051602001526040518263ffffffff167c0100000000000000000000000000000000000000000000000000000000028152600401610bbe91906156a1565b602060405180830381600087803b1515610bd757600080fd5b6102c65a03f11515610be857600080fd5b505050604051805190509050610c406000809054906101000a900473ffffffffffffffffffffffffffffffffffffffff16828473ffffffffffffffffffffffffffffffffffffffff16612e0b9092919063ffffffff16565b5050565b6000610c4e614cc8565b610c5783612eac565b9050610c6281612dd8565b915050919050565b6000600554905090565b6000808273ffffffffffffffffffffffffffffffffffffffff1614151515610c9b57600080fd5b60045434141515610cab57600080fd5b6000600160009054906101000a900473ffffffffffffffffffffffffffffffffffffffff1673ffffffffffffffffffffffffffffffffffffffff16638784ea96856000604051602001526040518263ffffffff167c0100000000000000000000000000000000000000000000000000000000028152600401610d2d91906155e2565b602060405180830381600087803b1515610d4657600080fd5b6102c65a03f11515610d5757600080fd5b5050506040518051905073ffffffffffffffffffffffffffffffffffffffff16141515610d8357600080fd5b600160009054906101000a900473ffffffffffffffffffffffffffffffffffffffff1673ffffffffffffffffffffffffffffffffffffffff16631dbd9d9184846040518363ffffffff167c0100000000000000000000000000000000000000000000000000000000028152600401610dfc9291906155fd565b600060405180830381600087803b1515610e1557600080fd5b6102c65a03f11515610e2657600080fd5b505050600160009054906101000a900473ffffffffffffffffffffffffffffffffffffffff1673ffffffffffffffffffffffffffffffffffffffff16633541fd53846004546040518363ffffffff167c0100000000000000000000000000000000000000000000000000000000028152600401610ea4929190615678565b600060405180830381600087803b1515610ebd57600080fd5b6102c65a03f11515610ece57600080fd5b505050600160009054906101000a900473ffffffffffffffffffffffffffffffffffffffff1673ffffffffffffffffffffffffffffffffffffffff166108fc6004549081150290604051600060405180830381858888f193505050501515610f3557600080fd5b6001905092915050565b600080600160009054906101000a900473ffffffffffffffffffffffffffffffffffffffff1673ffffffffffffffffffffffffffffffffffffffff166303a53d6b846000604051602001526040518263ffffffff167c0100000000000000000000000000000000000000000000000000000000028152600401610fc291906156bc565b602060405180830381600087803b1515610fdb57600080fd5b6102c65a03f11515610fec57600080fd5b5050506040518051905090506000811415151561100857600080fd5b804211151561101657600080fd5b60055481420311915050919050565b6000600354905090565b6000809054906101000a900473ffffffffffffffffffffffffffffffffffffffff1673ffffffffffffffffffffffffffffffffffffffff163373ffffffffffffffffffffffffffffffffffffffff1614151561108a57600080fd5b8060058190555050565b6000600454905090565b6000809054906101000a900473ffffffffffffffffffffffffffffffffffffffff1673ffffffffffffffffffffffffffffffffffffffff163373ffffffffffffffffffffffffffffffffffffffff161415156110f957600080fd5b8060038190555050565b6000809054906101000a900473ffffffffffffffffffffffffffffffffffffffff1681565b6000809054906101000a900473ffffffffffffffffffffffffffffffffffffffff1673ffffffffffffffffffffffffffffffffffffffff163373ffffffffffffffffffffffffffffffffffffffff1614151561118357600080fd5b6000809054906101000a900473ffffffffffffffffffffffffffffffffffffffff1673ffffffffffffffffffffffffffffffffffffffff166108fc3073ffffffffffffffffffffffffffffffffffffffff16319081150290604051600060405180830381858888f1935050505015156111f857fe5b565b600080611205614d7c565b61120d614cc8565b600080600060019550600160009054906101000a900473ffffffffffffffffffffffffffffffffffffffff1673ffffffffffffffffffffffffffffffffffffffff166362f9acf98a6000604051604001526040518263ffffffff167c010000000000000000000000000000000000000000000000000000000002815260040161129691906156bc565b6040805180830381600087803b15156112ae57600080fd5b6102c65a03f115156112bf57600080fd5b5050506040518060400160405294506000640100000000028560006002811015156112e657fe5b602002015163ffffffff1916141515156112ff57600080fd5b61130885612eac565b935061131384612dd8565b1561171957600160009054906101000a900473ffffffffffffffffffffffffffffffffffffffff1673ffffffffffffffffffffffffffffffffffffffff1663c53b4bf98a6000604051602001526040518263ffffffff167c010000000000000000000000000000000000000000000000000000000002815260040161139891906156bc565b602060405180830381600087803b15156113b157600080fd5b6102c65a03f115156113c257600080fd5b5050506040518051905092508360600151151560007f01000000000000000000000000000000000000000000000000000000000000000260017f0100000000000000000000000000000000000000000000000000000000000000026004867effffffffffffffffffffffffffffffffffffffffffffffffffffffffffffff19169060020a9004167effffffffffffffffffffffffffffffffffffffffffffffffffffffffffffff19161115151461147a57600061147c565b855b95508360800151151560007f01000000000000000000000000000000000000000000000000000000000000000260017f0100000000000000000000000000000000000000000000000000000000000000026003867effffffffffffffffffffffffffffffffffffffffffffffffffffffffffffff19169060020a9004167effffffffffffffffffffffffffffffffffffffffffffffffffffffffffffff19161115151461152a57600061152c565b855b95508360a00151151560007f01000000000000000000000000000000000000000000000000000000000000000260017f0100000000000000000000000000000000000000000000000000000000000000026002867effffffffffffffffffffffffffffffffffffffffffffffffffffffffffffff19169060020a9004167effffffffffffffffffffffffffffffffffffffffffffffffffffffffffffff1916111515146115da5760006115dc565b855b95508360c00151151560007f01000000000000000000000000000000000000000000000000000000000000000260017f0100000000000000000000000000000000000000000000000000000000000000026001867effffffffffffffffffffffffffffffffffffffffffffffffffffffffffffff19169060020a9004167effffffffffffffffffffffffffffffffffffffffffffffffffffffffffffff19161115151461168a57600061168c565b855b95508360e00151151560007f01000000000000000000000000000000000000000000000000000000000000000260017f01000000000000000000000000000000000000000000000000000000000000000285167effffffffffffffffffffffffffffffffffffffffffffffffffffffffffffff191611151514611710576000611712565b855b955061171e565b600095505b851515611b8657600160009054906101000a900473ffffffffffffffffffffffffffffffffffffffff1673ffffffffffffffffffffffffffffffffffffffff16630e8310d68a6040518263ffffffff167c010000000000000000000000000000000000000000000000000000000002815260040161179c91906156bc565b600060405180830381600087803b15156117b557600080fd5b6102c65a03f115156117c657600080fd5b505050846040518082600260200280838360005b838110156117f55780820151818401526020810190506117da565b505050509050019150506040518091039020915061181289610f3f565b151561198657600160009054906101000a900473ffffffffffffffffffffffffffffffffffffffff1673ffffffffffffffffffffffffffffffffffffffff1663e765c122836000604051602001526040518263ffffffff167c010000000000000000000000000000000000000000000000000000000002815260040161189891906155e2565b602060405180830381600087803b15156118b157600080fd5b6102c65a03f115156118c257600080fd5b505050604051805190509050600160009054906101000a900473ffffffffffffffffffffffffffffffffffffffff1673ffffffffffffffffffffffffffffffffffffffff16631cc1472d89836000604051602001526040518363ffffffff167c010000000000000000000000000000000000000000000000000000000002815260040161195092919061559e565b602060405180830381600087803b151561196957600080fd5b6102c65a03f1151561197a57600080fd5b50505060405180519050505b600160009054906101000a900473ffffffffffffffffffffffffffffffffffffffff1673ffffffffffffffffffffffffffffffffffffffff166342966c688a6040518263ffffffff167c01000000000000000000000000000000000000000000000000000000000281526004016119fd91906156bc565b600060405180830381600087803b1515611a1657600080fd5b6102c65a03f11515611a2757600080fd5b505050600160009054906101000a900473ffffffffffffffffffffffffffffffffffffffff1673ffffffffffffffffffffffffffffffffffffffff16631dbd9d918360006040518363ffffffff167c0100000000000000000000000000000000000000000000000000000000028152600401611aa4929190615626565b600060405180830381600087803b1515611abd57600080fd5b6102c65a03f11515611ace57600080fd5b505050600160009054906101000a900473ffffffffffffffffffffffffffffffffffffffff1673ffffffffffffffffffffffffffffffffffffffff16633541fd538360006040518363ffffffff167c0100000000000000000000000000000000000000000000000000000000028152600401611b4b92919061564f565b600060405180830381600087803b1515611b6457600080fd5b6102c65a03f11515611b7557600080fd5b505050611b818961319e565b611b8b565b600080fd5b6001965050505050505092915050565b600080600080600064010000000002876000600281101515611bb957fe5b602002015163ffffffff191614151515611bd257600080fd5b866040518082600260200280838360005b83811015611bfe578082015181840152602081019050611be3565b5050505090500191505060405180910390209250600160009054906101000a900473ffffffffffffffffffffffffffffffffffffffff1673ffffffffffffffffffffffffffffffffffffffff16638784ea96846000604051602001526040518263ffffffff167c0100000000000000000000000000000000000000000000000000000000028152600401611c9291906155e2565b602060405180830381600087803b1515611cab57600080fd5b6102c65a03f11515611cbc57600080fd5b5050506040518051905091506000600160009054906101000a900473ffffffffffffffffffffffffffffffffffffffff1673ffffffffffffffffffffffffffffffffffffffff166303a53d6b886000604051602001526040518263ffffffff167c0100000000000000000000000000000000000000000000000000000000028152600401611d4a91906156bc565b602060405180830381600087803b1515611d6357600080fd5b6102c65a03f11515611d7457600080fd5b5050506040518051905014151515611d8b57600080fd5b600160009054906101000a900473ffffffffffffffffffffffffffffffffffffffff1673ffffffffffffffffffffffffffffffffffffffff1663e3100d1e87426040518363ffffffff167c0100000000000000000000000000000000000000000000000000000000028152600401611e04929190615729565b600060405180830381600087803b1515611e1d57600080fd5b6102c65a03f11515611e2e57600080fd5b505050600160009054906101000a900473ffffffffffffffffffffffffffffffffffffffff1673ffffffffffffffffffffffffffffffffffffffff16630b62839587896040518363ffffffff167c0100000000000000000000000000000000000000000000000000000000028152600401611eaa9291906156d7565b600060405180830381600087803b1515611ec357600080fd5b6102c65a03f11515611ed457600080fd5b50505060007f010000000000000000000000000000000000000000000000000000000000000002857effffffffffffffffffffffffffffffffffffffffffffffffffffffffffffff1916111561207c57600160009054906101000a900473ffffffffffffffffffffffffffffffffffffffff1673ffffffffffffffffffffffffffffffffffffffff16631dba566087876040518363ffffffff167c0100000000000000000000000000000000000000000000000000000000028152600401611f9d929190615700565b600060405180830381600087803b1515611fb657600080fd5b6102c65a03f11515611fc757600080fd5b505050611fd385612759565b9050600160009054906101000a900473ffffffffffffffffffffffffffffffffffffffff1673ffffffffffffffffffffffffffffffffffffffff1663a47bd49687836040518363ffffffff167c010000000000000000000000000000000000000000000000000000000002815260040161204e929190615729565b600060405180830381600087803b151561206757600080fd5b6102c65a03f1151561207857600080fd5b5050505b600160009054906101000a900473ffffffffffffffffffffffffffffffffffffffff1673ffffffffffffffffffffffffffffffffffffffff166340c10f1983886040518363ffffffff167c01000000000000000000000000000000000000000000000000000000000281526004016120f592919061559e565b600060405180830381600087803b151561210e57600080fd5b6102c65a03f1151561211f57600080fd5b505050600193505050509392505050565b600080fd5b600061213f614d7c565b600080600080600160009054906101000a900473ffffffffffffffffffffffffffffffffffffffff1673ffffffffffffffffffffffffffffffffffffffff166362f9acf9886000604051604001526040518263ffffffff167c01000000000000000000000000000000000000000000000000000000000281526004016121c591906156bc565b6040805180830381600087803b15156121dd57600080fd5b6102c65a03f115156121ee57600080fd5b50505060405180604001604052945060006401000000000285600060028110151561221557fe5b602002015163ffffffff19161415151561222e57600080fd5b846040518082600260200280838360005b8381101561225a57808201518184015260208101905061223f565b5050505090500191505060405180910390209350600160009054906101000a900473ffffffffffffffffffffffffffffffffffffffff1673ffffffffffffffffffffffffffffffffffffffff1663e765c122856000604051602001526040518263ffffffff167c01000000000000000000000000000000000000000000000000000000000281526004016122ee91906155e2565b602060405180830381600087803b151561230757600080fd5b6102c65a03f1151561231857600080fd5b5050506040518051905092506000831415151561233457600080fd5b61233d87610f3f565b151561234857600080fd5b600160009054906101000a900473ffffffffffffffffffffffffffffffffffffffff1673ffffffffffffffffffffffffffffffffffffffff16633541fd538560006040518363ffffffff167c01000000000000000000000000000000000000000000000000000000000281526004016123c292919061564f565b600060405180830381600087803b15156123db57600080fd5b6102c65a03f115156123ec57600080fd5b5050506123f8876136dc565b600160009054906101000a900473ffffffffffffffffffffffffffffffffffffffff1673ffffffffffffffffffffffffffffffffffffffff16638784ea96856000604051602001526040518263ffffffff167c010000000000000000000000000000000000000000000000000000000002815260040161247891906155e2565b602060405180830381600087803b151561249157600080fd5b6102c65a03f115156124a257600080fd5b505050604051805190509150600160009054906101000a900473ffffffffffffffffffffffffffffffffffffffff1673ffffffffffffffffffffffffffffffffffffffff16631c4b774b886000604051602001526040518263ffffffff167c010000000000000000000000000000000000000000000000000000000002815260040161252e91906156bc565b602060405180830381600087803b151561254757600080fd5b6102c65a03f1151561255857600080fd5b505050604051805190509050600260009054906101000a900473ffffffffffffffffffffffffffffffffffffffff1673ffffffffffffffffffffffffffffffffffffffff166340c10f1983836000604051602001526040518363ffffffff167c01000000000000000000000000000000000000000000000000000000000281526004016125e692919061559e565b602060405180830381600087803b15156125ff57600080fd5b6102c65a03f1151561261057600080fd5b50505060405180519050151561262557600080fd5b600160009054906101000a900473ffffffffffffffffffffffffffffffffffffffff1673ffffffffffffffffffffffffffffffffffffffff16631cc1472d83856000604051602001526040518363ffffffff167c01000000000000000000000000000000000000000000000000000000000281526004016126a792919061559e565b602060405180830381600087803b15156126c057600080fd5b6102c65a03f115156126d157600080fd5b5050506040518051905015156126e657600080fd5b600195505050505050919050565b6000809054906101000a900473ffffffffffffffffffffffffffffffffffffffff1673ffffffffffffffffffffffffffffffffffffffff163373ffffffffffffffffffffffffffffffffffffffff1614151561274f57600080fd5b8060048190555050565b600080600080600080600080600160009054906101000a900473ffffffffffffffffffffffffffffffffffffffff1673ffffffffffffffffffffffffffffffffffffffff1663785d8d71600060405160c001526040518163ffffffff167c010000000000000000000000000000000000000000000000000000000002815260040160c060405180830381600087803b15156127f357600080fd5b6102c65a03f1151561280457600080fd5b50505060405180519060200180519060200180519060200180519060200180519060200180519050809750819850829950839a50849b50859c505050505050506000905060017f01000000000000000000000000000000000000000000000000000000000000000260017f01000000000000000000000000000000000000000000000000000000000000000260048b7effffffffffffffffffffffffffffffffffffffffffffffffffffffffffffff19169060020a9004167effffffffffffffffffffffffffffffffffffffffffffffffffffffffffffff19161415612926576129236129146001880161290660018b01600354613c1a90919063ffffffff16565b613c5590919063ffffffff16565b82613c7090919063ffffffff16565b90505b60017f01000000000000000000000000000000000000000000000000000000000000000260017f01000000000000000000000000000000000000000000000000000000000000000260038b7effffffffffffffffffffffffffffffffffffffffffffffffffffffffffffff19169060020a9004167effffffffffffffffffffffffffffffffffffffffffffffffffffffffffffff19161415612a0457612a016129f2600187016129e460018b01600354613c1a90919063ffffffff16565b613c5590919063ffffffff16565b82613c7090919063ffffffff16565b90505b60017f01000000000000000000000000000000000000000000000000000000000000000260017f01000000000000000000000000000000000000000000000000000000000000000260028b7effffffffffffffffffffffffffffffffffffffffffffffffffffffffffffff19169060020a9004167effffffffffffffffffffffffffffffffffffffffffffffffffffffffffffff19161415612ae257612adf612ad060018601612ac260018b01600354613c1a90919063ffffffff16565b613c5590919063ffffffff16565b82613c7090919063ffffffff16565b90505b60017f01000000000000000000000000000000000000000000000000000000000000000260017f01000000000000000000000000000000000000000000000000000000000000000260018b7effffffffffffffffffffffffffffffffffffffffffffffffffffffffffffff19169060020a9004167effffffffffffffffffffffffffffffffffffffffffffffffffffffffffffff19161415612bc057612bbd612bae60018501612ba060018b01600354613c1a90919063ffffffff16565b613c5590919063ffffffff16565b82613c7090919063ffffffff16565b90505b60017f01000000000000000000000000000000000000000000000000000000000000000260017f0100000000000000000000000000000000000000000000000000000000000000028a167effffffffffffffffffffffffffffffffffffffffffffffffffffffffffffff19161415612c7457612c71612c6260018401612c5460018b01600354613c1a90919063ffffffff16565b613c5590919063ffffffff16565b82613c7090919063ffffffff16565b90505b80975050505050505050919050565b6000809054906101000a900473ffffffffffffffffffffffffffffffffffffffff1673ffffffffffffffffffffffffffffffffffffffff163373ffffffffffffffffffffffffffffffffffffffff16141515612cde57600080fd5b600073ffffffffffffffffffffffffffffffffffffffff168173ffffffffffffffffffffffffffffffffffffffff1614151515612d1a57600080fd5b8073ffffffffffffffffffffffffffffffffffffffff166000809054906101000a900473ffffffffffffffffffffffffffffffffffffffff1673ffffffffffffffffffffffffffffffffffffffff167f8be0079c531659141344cd1fd0a4f28419497f9722a3daafe3b4186f6b6457e060405160405180910390a3806000806101000a81548173ffffffffffffffffffffffffffffffffffffffff021916908373ffffffffffffffffffffffffffffffffffffffff16021790555050565b6000816000015115612ded5760009050612e06565b81602001511515612e015760009050612e06565b600190505b919050565b8273ffffffffffffffffffffffffffffffffffffffff1663a9059cbb83836000604051602001526040518363ffffffff167c0100000000000000000000000000000000000000000000000000000000028152600401612e6b92919061559e565b602060405180830381600087803b1515612e8457600080fd5b6102c65a03f11515612e9557600080fd5b505050604051805190501515612ea757fe5b505050565b612eb4614cc8565b612ebc614cc8565b600080600080600080886000600281101515612ed457fe5b602002015187610120019063ffffffff1916908163ffffffff191681525050886001600281101515612f0257fe5b602002015187610140019063ffffffff1916908163ffffffff191681525050600087610180019060ff16908160ff16815250506002876101a0019060ff16908160ff16815250506002876101c0019060ff16908160ff168152505060008760000190151590811515815250506000876020019015159081151581525050600187610160019060ff16908160ff16815250506ffffffffffffffe7ffdbfffffffffffff700100000000000000000000000000000000028761010001906fffffffffffffffffffffffffffffffff191690816fffffffffffffffffffffffffffffffff191681525050600091505b603c8260ff16108015612fff575085155b1561316d57602087610180015160ff161061301f57866101400151613026565b8661012001515b905061304881602089610180015160ff1681151561304057fe5b066020613c8e565b945061305385613cd2565b809450819550505061306485613d11565b15955085158015613078575060088460ff16105b8015613087575060088360ff16105b8015613097575060008460ff1610155b80156130a7575060008360ff1610155b15613160576130b7878585613d22565b965060018761018001510187610180019060ff16908160ff168152505086600001511561315f576000876000019015159081151581525050600160ff1687610160015160ff16141561311c57600287610160019060ff16908160ff1681525050613131565b600187610160019060ff16908160ff16815250505b61313c878585613d22565b965086600001511561315e576001955060008760000190151590811515815250505b5b5b8180600101925050612fee565b8660000151151561318f5761318187614024565b965061318c876142dd565b96505b86975050505050505050919050565b6000806000806000806000600160009054906101000a900473ffffffffffffffffffffffffffffffffffffffff1673ffffffffffffffffffffffffffffffffffffffff1663785d8d71600060405160c001526040518163ffffffff167c010000000000000000000000000000000000000000000000000000000002815260040160c060405180830381600087803b151561323757600080fd5b6102c65a03f1151561324857600080fd5b50505060405180519060200180519060200180519060200180519060200180519060200180519050809750819850829950839a50849b50859c50505050505050600160009054906101000a900473ffffffffffffffffffffffffffffffffffffffff1673ffffffffffffffffffffffffffffffffffffffff1663c53b4bf9896000604051602001526040518263ffffffff167c010000000000000000000000000000000000000000000000000000000002815260040161330891906156bc565b602060405180830381600087803b151561332157600080fd5b6102c65a03f1151561333257600080fd5b5050506040518051905090506133a960007f010000000000000000000000000000000000000000000000000000000000000002827effffffffffffffffffffffffffffffffffffffffffffffffffffffffffffff191611613394576000613397565b60015b60ff16886145d590919063ffffffff16565b965061343060017f0100000000000000000000000000000000000000000000000000000000000000026004837effffffffffffffffffffffffffffffffffffffffffffffffffffffffffffff19169060020a9004167f01000000000000000000000000000000000000000000000000000000000000009004876145d590919063ffffffff16565b95506134b760017f0100000000000000000000000000000000000000000000000000000000000000026003837effffffffffffffffffffffffffffffffffffffffffffffffffffffffffffff19169060020a9004167f01000000000000000000000000000000000000000000000000000000000000009004866145d590919063ffffffff16565b945061353e60017f0100000000000000000000000000000000000000000000000000000000000000026002837effffffffffffffffffffffffffffffffffffffffffffffffffffffffffffff19169060020a9004167f01000000000000000000000000000000000000000000000000000000000000009004856145d590919063ffffffff16565b93506135c560017f0100000000000000000000000000000000000000000000000000000000000000026001837effffffffffffffffffffffffffffffffffffffffffffffffffffffffffffff19169060020a9004167f01000000000000000000000000000000000000000000000000000000000000009004846145d590919063ffffffff16565b925061362260017f01000000000000000000000000000000000000000000000000000000000000000282167f01000000000000000000000000000000000000000000000000000000000000009004836145d590919063ffffffff16565b9150600160009054906101000a900473ffffffffffffffffffffffffffffffffffffffff1673ffffffffffffffffffffffffffffffffffffffff16638b1b2ba88888888888886040518763ffffffff167c01000000000000000000000000000000000000000000000000000000000281526004016136a596959493929190615752565b600060405180830381600087803b15156136be57600080fd5b6102c65a03f115156136cf57600080fd5b5050505050505050505050565b6000806000806000806000600160009054906101000a900473ffffffffffffffffffffffffffffffffffffffff1673ffffffffffffffffffffffffffffffffffffffff1663785d8d71600060405160c001526040518163ffffffff167c010000000000000000000000000000000000000000000000000000000002815260040160c060405180830381600087803b151561377557600080fd5b6102c65a03f1151561378657600080fd5b50505060405180519060200180519060200180519060200180519060200180519060200180519050809750819850829950839a50849b50859c50505050505050600160009054906101000a900473ffffffffffffffffffffffffffffffffffffffff1673ffffffffffffffffffffffffffffffffffffffff1663c53b4bf9896000604051602001526040518263ffffffff167c010000000000000000000000000000000000000000000000000000000002815260040161384691906156bc565b602060405180830381600087803b151561385f57600080fd5b6102c65a03f1151561387057600080fd5b5050506040518051905090506138e760007f010000000000000000000000000000000000000000000000000000000000000002827effffffffffffffffffffffffffffffffffffffffffffffffffffffffffffff1916116138d25760006138d5565b60015b60ff1688613c7090919063ffffffff16565b965061396e60017f0100000000000000000000000000000000000000000000000000000000000000026004837effffffffffffffffffffffffffffffffffffffffffffffffffffffffffffff19169060020a9004167f0100000000000000000000000000000000000000000000000000000000000000900487613c7090919063ffffffff16565b95506139f560017f0100000000000000000000000000000000000000000000000000000000000000026003837effffffffffffffffffffffffffffffffffffffffffffffffffffffffffffff19169060020a9004167f0100000000000000000000000000000000000000000000000000000000000000900486613c7090919063ffffffff16565b9450613a7c60017f0100000000000000000000000000000000000000000000000000000000000000026002837effffffffffffffffffffffffffffffffffffffffffffffffffffffffffffff19169060020a9004167f0100000000000000000000000000000000000000000000000000000000000000900485613c7090919063ffffffff16565b9350613b0360017f0100000000000000000000000000000000000000000000000000000000000000026001837effffffffffffffffffffffffffffffffffffffffffffffffffffffffffffff19169060020a9004167f0100000000000000000000000000000000000000000000000000000000000000900484613c7090919063ffffffff16565b9250613b6060017f01000000000000000000000000000000000000000000000000000000000000000282167f0100000000000000000000000000000000000000000000000000000000000000900483613c7090919063ffffffff16565b9150600160009054906101000a900473ffffffffffffffffffffffffffffffffffffffff1673ffffffffffffffffffffffffffffffffffffffff16638b1b2ba88888888888886040518763ffffffff167c0100000000000000000000000000000000000000000000000000000000028152600401613be396959493929190615752565b600060405180830381600087803b1515613bfc57600080fd5b6102c65a03f11515613c0d57600080fd5b5050505050505050505050565b6000806000841415613c2f5760009150613c4e565b8284029050828482811515613c4057fe5b04141515613c4a57fe5b8091505b5092915050565b6000808284811515613c6357fe5b0490508091505092915050565b6000808284019050838110151515613c8457fe5b8091505092915050565b6000806000607f64010000000002915060078086026007860203039050818160ff168763ffffffff19169060020a9004166401000000009004925050509392505050565b60008060008060408503945060088560ff16811515613ced57fe5b069150600882860360ff16811515613d0157fe5b0490508181935093505050915091565b600060408260ff1610159050919050565b613d2a614cc8565b613d32614daa565b600080600080600080600080600360ff16613d538e61010001518e8e6145ee565b60ff16141515613d765760018d60000190151590811515815250508c9950614014565b613d818d8d8d614684565b809950819a50505060008860ff161415613dae5760018d60000190151590811515815250508c9950614014565b60009150600090505b8760ff168160ff161015613f14576000965060009550613dee8d8a8360ff16600881101515613de257fe5b60200201518e8e6149c3565b8097508198505050600092505b8560ff168360ff161015613f0757811515613e1557600191505b613e28613e23888589613c8e565b613cd2565b8095508196505050613e468d61010001518e61016001518787614b31565b8d61010001906fffffffffffffffffffffffffffffffff191690816fffffffffffffffffffffffffffffffff191681525050600260ff168d610160015160ff161415613ec55760018d6101c0018181510191509060ff16908160ff168152505060018d6101a0018181510391509060ff16908160ff1681525050613efa565b60018d6101c0018181510391509060ff16908160ff168152505060018d6101a0018181510191509060ff16908160ff16815250505b8280600101935050613dfb565b8080600101915050613db7565b8115613fb557613f308d61010001518e61016001518e8e614b31565b8d61010001906fffffffffffffffffffffffffffffffff191690816fffffffffffffffffffffffffffffffff191681525050600260ff168d610160015160ff161415613f955760018d6101c0018181510191509060ff16908160ff1681525050613fb0565b60018d6101a0018181510191509060ff16908160ff16815250505b613fce565b60018d60000190151590811515815250508c9950614014565b600160ff168d610160015160ff161415613ffb5760028d610160019060ff16908160ff1681525050614010565b60018d610160019060ff16908160ff16815250505b8c99505b5050505050505050509392505050565b61402c614cc8565b614034614dd9565b600080600080614042614cc8565b61404a614e08565b603c89610180015160ff16148061406957506000896101a0015160ff16145b8061407c57506000896101c0015160ff16145b156140ab57600089600001901515908115158152505060018960200190151590811515815250508897506142d1565b60009550600094505b60408560ff16101561418d576140fe8961010001516008808860ff168115156140d957fe5b06880360ff168115156140e857fe5b0460088860ff168115156140f857fe5b066145ee565b9350600360ff168460ff1614156141805760408051908101604052806008808860ff1681151561412a57fe5b06880360ff1681151561413957fe5b0460ff1660ff16815260200160088760ff1681151561415457fe5b0660ff1660ff16815250878760ff16603c8110151561416f57fe5b602002018190525085806001019650505b84806001019550506140b4565b6000925060008660ff16111561428e57600094505b8560ff168560ff161080156141b5575082155b1561428d57868560ff16603c811015156141cb57fe5b60200201519050600189610160019060ff16908160ff1681525050614217898260006002811015156141f957fe5b602002015183600160028110151561420d57fe5b6020020151613d22565b91508160000151151561422957600192505b600289610160019060ff16908160ff168152505061426e8982600060028110151561425057fe5b602002015183600160028110151561426457fe5b6020020151613d22565b91508160000151151561428057600192505b84806001019550506141a2565b5b82156142aa5760018960000190151590811515815250506142cd565b600189602001901515908115158152505060008960000190151590811515815250505b8897505b50505050505050919050565b6142e5614cc8565b60008060008060008060006001965060019550600194506001935060019250600091505b60088260ff16108015614339575086806143205750855b806143285750845b806143305750835b806143385750825b5b1561453e57600090505b60088160ff161080156143735750868061435a5750855b806143625750845b8061436a5750835b806143725750825b5b156145315761438e8961010001518360070383600703614bdd565b6fffffffffffffffffffffffffffffffff19166143b18a61010001518484614bdd565b6fffffffffffffffffffffffffffffffff19161415156143d057600096505b6143e38961010001518383600703614bdd565b6fffffffffffffffffffffffffffffffff19166144068a61010001518484614bdd565b6fffffffffffffffffffffffffffffffff191614151561442557600095505b6144388961010001518360070383614bdd565b6fffffffffffffffffffffffffffffffff191661445b8a61010001518484614bdd565b6fffffffffffffffffffffffffffffffff191614151561447a57600094505b6144908961010001518260070384600703614bdd565b6fffffffffffffffffffffffffffffffff19166144b38a61010001518484614bdd565b6fffffffffffffffffffffffffffffffff19161415156144d257600093505b6144e28961010001518284614bdd565b6fffffffffffffffffffffffffffffffff19166145058a61010001518484614bdd565b6fffffffffffffffffffffffffffffffff191614151561452457600092505b8080600101915050614343565b8180600101925050614309565b86806145475750855b8061454f5750845b806145575750835b8061455f5750825b156145c65760018960400190151590811515815250508689606001901515908115158152505085896080019015159081151581525050848960a0019015159081151581525050838960c0019015159081151581525050828960e00190151590811515815250505b88975050505050505050919050565b60008282111515156145e357fe5b818303905092915050565b6000806000806145fe8686614c64565b9250826fffffffffffffffffffffffffffffffff1660039060020a0260ff167001000000000000000000000000000000000287169150826fffffffffffffffffffffffffffffffff16826fffffffffffffffffffffffffffffffff19169060020a9004905080700100000000000000000000000000000000900493505050509392505050565b61468c614daa565b6000614696614daa565b60006146a0614daa565b6000806146ab614e32565b600080600096506101006040519081016040528060408051908101604052807fffffffffffffffffffffffffffffffffffffffffffffffffffffffffffffffff60000b60000b81526020016000800b60000b815250815260200160408051908101604052807fffffffffffffffffffffffffffffffffffffffffffffffffffffffffffffffff60000b60000b8152602001600160000b60000b815250815260200160408051908101604052806000800b60000b8152602001600160000b60000b81525081526020016040805190810160405280600160000b60000b8152602001600160000b60000b81525081526020016040805190810160405280600160000b60000b81526020016000800b60000b81525081526020016040805190810160405280600160000b60000b81526020017fffffffffffffffffffffffffffffffffffffffffffffffffffffffffffffffff60000b60000b815250815260200160408051908101604052806000800b60000b81526020017fffffffffffffffffffffffffffffffffffffffffffffffffffffffffffffffff60000b60000b815250815260200160408051908101604052807fffffffffffffffffffffffffffffffffffffffffffffffffffffffffffffffff60000b60000b81526020017fffffffffffffffffffffffffffffffffffffffffffffffffffffffffffffffff60000b60000b8152508152509550600090505b60088160ff1610156149ad57858160ff166008811015156148d757fe5b602002015192508260006002811015156148ed57fe5b60200201518c01935082600160028110151561490557fe5b60200201518b01945060078560000b1380614923575060008560000b125b80614931575060078460000b135b8061493f575060008460000b125b15156149a0576149558d610100015185876145ee565b91508c610160015160ff168260ff1614151561499f57600360ff168260ff1614151561499e5782888860ff1660088110151561498d57fe5b602002018190525086806001019750505b5b5b80806001019150506148ba565b8787995099505050505050505050935093915050565b60008060008060008060008060008060008097508e61016001519650600160ff168f610160015160ff1614156149fc5760029550614a01565b600195505b60009450600190505b60098160ff161015614b1957841515614b0c578c8e6000600281101515614a2d57fe5b602002015182020193508b8e6001600281101515614a4757fe5b6020020151820201925060078460000b1380614a66575060008460000b125b80614a74575060078360000b135b80614a82575060008360000b125b15614a9857600098506000975060019450614b0b565b614aa88f610100015185856145ee565b91508560ff168260ff161415614ad157614ac489898686614c80565b809950819a505050614b0a565b8e610160015160ff168260ff16148015614aee575060018160ff16115b15614afc5760019450614b09565b6000985060009750600194505b5b5b5b8080600101915050614a0a565b88889a509a5050505050505050505094509492505050565b600080600060078560ff161115614b4757600080fd5b60078460ff161115614b5857600080fd5b614b628585614c64565b9150816fffffffffffffffffffffffffffffffff1660039060020a0260ff1670010000000000000000000000000000000002905086818818169650816fffffffffffffffffffffffffffffffff168660ff169060020a0260ff1670010000000000000000000000000000000002871792505050949350505050565b600080614bea8484614c64565b9050806fffffffffffffffffffffffffffffffff16816fffffffffffffffffffffffffffffffff166003700100000000000000000000000000000000026fffffffffffffffffffffffffffffffff19169060020a0286166fffffffffffffffffffffffffffffffff19169060020a90049150509392505050565b600060026001838560080201016040030260ff16905092915050565b600080600060406008850286010160ff1664010000000002905060078763ffffffff19169060020a029650808717965085806001019650508686925092505094509492505050565b6101e06040519081016040528060001515815260200160001515815260200160001515815260200160001515815260200160001515815260200160001515815260200160001515815260200160001515815260200160006fffffffffffffffffffffffffffffffff19168152602001600063ffffffff19168152602001600063ffffffff19168152602001600060ff168152602001600060ff168152602001600060ff168152602001600060ff1681525090565b60408051908101604052806002905b600063ffffffff1916815260200190600190039081614d8b5790505090565b610200604051908101604052806008905b614dc3614e5b565b815260200190600190039081614dbb5790505090565b610f0060405190810160405280603c905b614df2614e84565b815260200190600190039081614dea5790505090565b60408051908101604052806002905b600060ff16815260200190600190039081614e175790505090565b60408051908101604052806002905b6000800b815260200190600190039081614e415790505090565b60408051908101604052806002905b6000800b815260200190600190039081614e6a5790505090565b60408051908101604052806002905b600060ff16815260200190600190039081614e935790505090565b6000614eba82356158ce565b905092915050565b600082601f83011260008114614ed757614edc565b600080fd5b506002614ef0614eeb826157e9565b6157b3565b91508183856020840282011160018114614f0957614f0e565b600080fd5b5060005b83811015614f3f5781614f258882614f85565b845260208401935060208301925050600181019050614f12565b5050505092915050565b6000614f5582356158ee565b905092915050565b6000614f6982356158fa565b905092915050565b6000614f7d8235615926565b905092915050565b6000614f918235615952565b905092915050565b6000614fa5823561597e565b905092915050565b60008083601f84011260008114614fc357614fc8565b600080fd5b508235905067ffffffffffffffff811160018114614fe557614fea565b600080fd5b506020830191508360018202830111600181146150065761500b565b600080fd5b509250929050565b600061501f8235615988565b905092915050565b60006101e0828403126001811461503d57615042565b600080fd5b5061504e6101e06157b3565b9050600061505e84828501614f49565b600083015250602061507284828501614f49565b602083015250604061508684828501614f49565b604083015250606061509a84828501614f49565b60608301525060806150ae84828501614f49565b60808301525060a06150c284828501614f49565b60a08301525060c06150d684828501614f49565b60c08301525060e06150ea84828501614f49565b60e0830152506101006150ff84828501614f71565b6101008301525061012061511584828501614f85565b6101208301525061014061512b84828501614f85565b61014083015250610160615141848285016151a4565b61016083015250610180615157848285016151a4565b610180830152506101a061516d848285016151a4565b6101a0830152506101c0615183848285016151a4565b6101c08301525092915050565b600061519c823561599a565b905092915050565b60006151b082356159a4565b905092915050565b6000602082840312600181146151cd576151d2565b600080fd5b5060006151e184828501614eae565b91505092915050565b6000806000806060858703126001811461520357615208565b600080fd5b50600061521787828801614eae565b945050602061522887828801615190565b935050604085013567ffffffffffffffff8111600181146152485761524d565b600080fd5b5061525a87828801614fad565b925092505092959194509250565b60006040828403126001811461527d57615282565b600080fd5b50600061529184828501614ec2565b91505092915050565b6000806000608084860312600181146152b2576152b7565b600080fd5b5060006152c686828701614ec2565b93505060406152d786828701615190565b92505060606152e886828701614f5d565b9150509250925092565b60008060008060a0858703126001811461530b57615310565b600080fd5b50600061531f87828801614ec2565b945050604061533087828801615190565b935050606061534187828801614f5d565b925050608061535287828801614eae565b91505092959194509250565b60006020828403126001811461537357615378565b600080fd5b50600061538784828501614f5d565b91505092915050565b600080604083850312600181146153a6576153ab565b600080fd5b5060006153ba85828601614f99565b92505060206153cb85828601614eae565b9150509250929050565b6000602082840312600181146153ea576153ef565b600080fd5b5060006153fe84828501615013565b91505092915050565b60006101e0828403126001811461541d57615422565b600080fd5b50600061543184828501615027565b91505092915050565b60006020828403126001811461544f57615454565b600080fd5b50600061546384828501615190565b91505092915050565b6000806040838503126001811461548257615487565b600080fd5b50600061549685828601615190565b92505060206154a785828601614eae565b9150509250929050565b6154ba81615836565b82525050565b6154c98161581e565b6154d282615814565b60005b82811015615504576154e8858351615529565b6154f182615829565b91506020850194506001810190506154d5565b5050505050565b61551481615856565b82525050565b61552381615862565b82525050565b6155328161588e565b82525050565b615541816158ba565b82525050565b615550816159b1565b82525050565b61555f816159c3565b82525050565b61556e816159d5565b82525050565b61557d816158c4565b82525050565b600060208201905061559860008301846154b1565b92915050565b60006040820190506155b360008301856154b1565b6155c06020830184615574565b9392505050565b60006020820190506155dc600083018461550b565b92915050565b60006020820190506155f76000830184615538565b92915050565b60006040820190506156126000830185615538565b61561f60208301846154b1565b9392505050565b600060408201905061563b6000830185615538565b6156486020830184615556565b9392505050565b60006040820190506156646000830185615538565b6156716020830184615565565b9392505050565b600060408201905061568d6000830185615538565b61569a6020830184615574565b9392505050565b60006020820190506156b66000830184615547565b92915050565b60006020820190506156d16000830184615574565b92915050565b60006060820190506156ec6000830185615574565b6156f960208301846154c0565b9392505050565b60006040820190506157156000830185615574565b615722602083018461551a565b9392505050565b600060408201905061573e6000830185615574565b61574b6020830184615574565b9392505050565b600060c0820190506157676000830189615574565b6157746020830188615574565b6157816040830187615574565b61578e6060830186615574565b61579b6080830185615574565b6157a860a0830184615574565b979650505050505050565b6000604051905081810181811067ffffffffffffffff821117600181146157d9576157de565b600080fd5b508060405250919050565b600067ffffffffffffffff82116001811461580357615808565b600080fd5b50602082029050919050565b6000819050919050565b600060029050919050565b6000602082019050919050565b600073ffffffffffffffffffffffffffffffffffffffff82169050919050565b60008115159050919050565b60007fff0000000000000000000000000000000000000000000000000000000000000082169050919050565b60007fffffffffffffffffffffffffffffffffffffffffffffffffffffffff0000000082169050919050565b6000819050919050565b6000819050919050565b600073ffffffffffffffffffffffffffffffffffffffff82169050919050565b60008115159050919050565b60007fff0000000000000000000000000000000000000000000000000000000000000082169050919050565b60007fffffffffffffffffffffffffffffffff0000000000000000000000000000000082169050919050565b60007fffffffffffffffffffffffffffffffffffffffffffffffffffffffff0000000082169050919050565b6000819050919050565b600061599382615836565b9050919050565b6000819050919050565b600060ff82169050919050565b60006159bc82615836565b9050919050565b60006159ce82615836565b9050919050565b60006159e0826158c4565b90509190505600a265627a7a723058206e4469f01fddcb70c9dc6335a9a7d7eb1380ce00e3652a871321b134bd79adb26c6578706572696d656e74616cf50037",
  "source": "pragma solidity ^0.4.19;\npragma experimental ABIEncoderV2;\n\n/**\n * The CloversController is upgradeable and contains the logic used by CloversFrontend\n * Both adhere to the CloversFactory interface design\n */\nimport \"./Clovers.sol\";\nimport \"./Reversi.sol\";\nimport \"./Mintable.sol\";\nimport \"./CloversFactory.sol\";\nimport \"zeppelin-solidity/contracts/ownership/HasNoTokens.sol\";\nimport \"zeppelin-solidity/contracts/ownership/HasNoEther.sol\";\nimport \"zeppelin-solidity/contracts/math/SafeMath.sol\";\n\ncontract CloversController is CloversFactory, HasNoTokens, HasNoEther {\n    using SafeMath for uint256;\n\n    address clovers;\n    address clubToken;\n\n    uint256 payMultiplier;\n    uint256 stakeAmount;\n    uint256 stakePeriod;\n\n    function CloversController(address _clovers, address _clubToken) public {\n        clovers = _clovers;\n        clubToken = _clubToken;\n    }    \n\n    /**\n    * @dev Gets the current staking amount needed to claim a Clover.\n    * @return A uint256 value of how much stake is needed.\n    */\n    function currentStakeAmount() public constant returns (uint256) {\n        return stakeAmount;\n    }\n    /**\n    * @dev Gets the current staking period needed to verify a Clover.\n    * @return A uint256 value of stake period in seconds.\n    */\n    function currentStakePeriod() public constant returns (uint256) {\n        return stakePeriod;\n    }\n    /**\n    * @dev Gets the current staking period needed to verify a Clover.\n    * @return A uint256 value of stake period in seconds.\n    */\n    function getMultiplier() public constant returns (uint256) {\n        return payMultiplier;\n    }\n    /**\n    * @dev Checks whether the game is valid.\n    * @param moves The moves needed to play validate the game.\n    * @return A boolean representing whether or not the game is valid.\n    */\n    function isValid(bytes28[2] moves) public constant returns (bool) {\n        Reversi.Game memory game = Reversi.playGame(moves);\n        return isValidGame(game);\n    }\n    /**\n    * @dev Checks whether the game is valid.\n    * @param game The pre-played game.\n    * @return A boolean representing whether or not the game is valid.\n    */\n    function isValidGame(Reversi.Game game) public constant returns (bool) {\n        if (game.error) return false;\n        if (!game.complete) return false;\n        return true;\n    }\n    /**\n    * @dev Checks whether the game has passed the verification period.\n    * @param _tokenId The board being checked.\n    * @return A boolean representing whether or not the game has been verified.\n    */\n    function isVerified(uint256 _tokenId) public constant returns (bool) {\n        uint256 _blockMinted = Clovers(clovers).getBlockMinted(_tokenId);\n        require(_blockMinted != 0);\n        require(now > _blockMinted);\n        return ((now - _blockMinted) > stakePeriod);\n    }\n    /**\n    * @dev Calculates the reward of the board.\n    * @param _symmetries symmetries saved as a bytes1 value like 00010101 where bits represent symmetry types.\n    * @return A uint256 representing the reward that would be returned for claiming the board.\n    */\n    function calculateReward(bytes1 _symmetries) public constant returns (uint256) {\n        uint256 Symmetricals;\n        uint256 RotSym;\n        uint256 Y0Sym;\n        uint256 X0Sym;\n        uint256 XYSym;\n        uint256 XnYSym;\n        (Symmetricals,\n        RotSym,\n        Y0Sym,\n        X0Sym,\n        XYSym,\n        XnYSym) = Clovers(clovers).getAllSymmetries();\n        uint256 base = 0;\n        if (_symmetries >> 4 & 1 == 1) base = base.add(payMultiplier.mul(Symmetricals + 1).div(RotSym + 1));\n        if (_symmetries >> 3 & 1 == 1) base = base.add(payMultiplier.mul(Symmetricals + 1).div(Y0Sym + 1));\n        if (_symmetries >> 2 & 1 == 1) base = base.add(payMultiplier.mul(Symmetricals + 1).div(X0Sym + 1));\n        if (_symmetries >> 1 & 1 == 1) base = base.add(payMultiplier.mul(Symmetricals + 1).div(XYSym + 1));\n        if (_symmetries & 1 == 1) base = base.add(payMultiplier.mul(Symmetricals + 1).div(XnYSym + 1));\n        return base;\n    }\n\n    /**\n    * @dev Claim the Clover without a commit or reveal.\n    * @param moves The moves that make up the Clover reversi game.\n    * @param _tokenId The board that results from the moves.\n    * @param _symmetries symmetries saved as a bytes1 value like 00010101 where bits represent symmetry types.\n    * @param _to The address claiming the Clover.\n    * @return A boolean representing whether or not the claim was successful.\n    */\n    function claimClover(bytes28[2] moves, uint256 _tokenId, bytes1 _symmetries, address _to) public payable returns (bool) {\n        require(moves[0] != 0);\n        bytes32 movesHash = keccak256(moves);\n        Clovers(clovers).setCommit(movesHash, _to);\n        Clovers(clovers).setStake(movesHash, stakeAmount);\n        clovers.transfer(stakeAmount);\n        require(Clovers(clovers).getBlockMinted(_tokenId) != 0);\n        Clovers(clovers).setBlockMinted(_tokenId, now);\n        Clovers(clovers).setCloverMoves(_tokenId, moves);\n        if (_symmetries > 0) {\n            Clovers(clovers).setSymmetries(_tokenId, _symmetries);\n            uint256 reward = calculateReward(_symmetries);\n            Clovers(clovers).setReward(_tokenId, reward);\n        }\n        Clovers(clovers).mint(_to, _tokenId);\n        return true;\n    }\n    /**\n    * @dev Commit the hash of the moves needed to claim the Clover. A stake should be made for counterfactual verification.\n    * @param movesHash The hash of the moves that makes up the Clover reversi game.\n    * @param _to The address claiming the Clover.\n    * @return A boolean representing whether or not the commit was successful.\n    */\n    function claimCloverCommit(bytes32 movesHash, address _to) public payable returns (bool) {\n        require(_to != 0);\n        require(msg.value == stakeAmount);\n        require(Clovers(clovers).getCommit(movesHash) == 0);\n        Clovers(clovers).setCommit(movesHash, _to);\n        Clovers(clovers).setStake(movesHash, stakeAmount);\n        clovers.transfer(stakeAmount);\n        return true;\n    }\n    /**\n    * @dev Reveal the solution to the previous commit to claim the Clover.\n    * @param moves The moves that make up the Clover reversi game.\n    * @param _tokenId The board that results from the moves.\n    * @param _symmetries symmetries saved as a bytes1 value like 00010101 where bits represent symmetry types.\n    * @return A boolean representing whether or not the reveal and claim was successful.\n    */\n    function claimCloverReveal(bytes28[2] moves, uint256 _tokenId, bytes1 _symmetries) public returns (bool) {\n        require(moves[0] != 0);\n        bytes32 movesHash = keccak256(moves);\n        address commiter = Clovers(clovers).getCommit(movesHash);\n        require(Clovers(clovers).getBlockMinted(_tokenId) != 0);\n        Clovers(clovers).setBlockMinted(_tokenId, now);\n        Clovers(clovers).setCloverMoves(_tokenId, moves);\n        if (_symmetries > 0) {\n            Clovers(clovers).setSymmetries(_tokenId, _symmetries);\n            uint256 reward = calculateReward(_symmetries);\n            Clovers(clovers).setReward(_tokenId, reward);\n        }\n        Clovers(clovers).mint(commiter, _tokenId);\n        return true;\n    }\n    /**\n    * @dev Retrieve the stake from a Clover claim after the stake period has ended.\n    * @param _tokenId The board which holds the stake.\n    * @return A boolean representing whether or not the retrieval was successful.\n    */\n    function retrieveStake(uint256 _tokenId) public returns (bool) {\n        bytes28[2] memory moves = Clovers(clovers).getCloverMoves(_tokenId);\n        require(moves[0] != 0);\n        bytes32 movesHash = keccak256(moves);\n        uint256 stake = Clovers(clovers).getStake(movesHash);\n        require(stake != 0);\n        require(isVerified(_tokenId));\n        Clovers(clovers).setStake(movesHash, 0);\n        addSymmetries(_tokenId);\n        address commiter = Clovers(clovers).getCommit(movesHash);\n        uint256 reward = Clovers(clovers).getReward(_tokenId);\n        require(Mintable(clubToken).mint(commiter, reward));\n        require(Clovers(clovers).moveEth(commiter, stake));\n        return true;\n    }\n    /**\n    * @dev Challenge a staked Clover for being invalid.\n    * @param _tokenId The board being challenged.\n    * @param _to The address challenging the Clover.\n    * @return A boolean representing whether or not the challenge was successful.\n    */\n    function challengeClover(uint256 _tokenId, address _to) public returns (bool) {\n        bool valid = true;\n        bytes28[2] memory moves = Clovers(clovers).getCloverMoves(_tokenId);\n        require(moves[0] != 0);\n        Reversi.Game memory game = Reversi.playGame(moves);\n        if(isValidGame(game)) {\n            bytes1 _symmetries = Clovers(clovers).getSymmetries(_tokenId);\n\n            valid = (_symmetries >> 4 & 1) > 0 == game.RotSym ? valid : false;\n            valid = (_symmetries >> 3 & 1) > 0 == game.Y0Sym ? valid : false;\n            valid = (_symmetries >> 2 & 1) > 0 == game.X0Sym ? valid : false;\n            valid = (_symmetries >> 1 & 1) > 0 == game.XYSym ? valid : false;\n            valid = (_symmetries & 1) > 0 == game.XnYSym ? valid : false;\n\n        } else {\n            valid = false;\n        }\n        if (!valid) {\n            Clovers(clovers).deleteClover(_tokenId);\n            bytes32 movesHash = keccak256(moves);\n            if (!isVerified(_tokenId)) {\n                uint256 stake = Clovers(clovers).getStake(movesHash);\n                Clovers(clovers).moveEth(_to, stake);\n            }\n            Clovers(clovers).burn(_tokenId);\n            Clovers(clovers).setCommit(movesHash, 0);\n            Clovers(clovers).setStake(movesHash, 0);\n            removeSymmetries(_tokenId);\n        } else {\n            revert();\n        }\n        return true;\n    }\n\n    /**\n    * @dev Updates the stake amount.\n    * @param _stakeAmount The new amount needed to stake.\n    */\n    function updateStakeAmount(uint256 _stakeAmount) public onlyOwner {\n        stakeAmount = _stakeAmount;\n    }\n    /**\n    * @dev Updates the stake period.\n    * @param _stakePeriod The uint256 value of time needed to stake before being verified.\n    */\n    function updateStakePeriod(uint256 _stakePeriod) public onlyOwner {\n        stakePeriod = _stakePeriod;\n    }\n    /**\n    * @dev Updates the pay multiplier, used to calculate token reward.\n    * @param _payMultiplier The uint256 value of pay multiplier.\n    */\n    function updatePayMultipier(uint256 _payMultiplier) public onlyOwner {\n        payMultiplier = _payMultiplier;\n    }\n    /**\n    * @dev Adds new tallys of the totals numbers of clover symmetries.\n    * @param _tokenId The token which needs to be examined.\n    */\n    function addSymmetries(uint256 _tokenId) private {\n        uint256 Symmetricals;\n        uint256 RotSym;\n        uint256 Y0Sym;\n        uint256 X0Sym;\n        uint256 XYSym;\n        uint256 XnYSym;\n        (Symmetricals,\n        RotSym,\n        Y0Sym,\n        X0Sym,\n        XYSym,\n        XnYSym) = Clovers(clovers).getAllSymmetries();\n        bytes1 _symmetries = Clovers(clovers).getSymmetries(_tokenId);\n        Symmetricals = Symmetricals.add(_symmetries > 0 ? 1 : 0);\n        RotSym = RotSym.add(uint256(_symmetries >> 4 & 1));\n        Y0Sym = Y0Sym.add(uint256(_symmetries >> 3 & 1));\n        X0Sym = X0Sym.add(uint256(_symmetries >> 2 & 1));\n        XYSym = XYSym.add(uint256(_symmetries >> 1 & 1));\n        XnYSym = XnYSym.add(uint256(_symmetries & 1));\n        Clovers(clovers).setAllSymmetries(Symmetricals, RotSym, Y0Sym, X0Sym, XYSym, XnYSym);\n    }\n    /**\n    * @dev Remove false tallys of the totals numbers of clover symmetries.\n    * @param _tokenId The token which needs to be examined.\n    */\n    function removeSymmetries(uint256 _tokenId) private {\n        uint256 Symmetricals;\n        uint256 RotSym;\n        uint256 Y0Sym;\n        uint256 X0Sym;\n        uint256 XYSym;\n        uint256 XnYSym;\n       (Symmetricals,\n        RotSym,\n        Y0Sym,\n        X0Sym,\n        XYSym,\n        XnYSym) = Clovers(clovers).getAllSymmetries();\n        bytes1 _symmetries = Clovers(clovers).getSymmetries(_tokenId);\n        Symmetricals = Symmetricals.sub(_symmetries > 0 ? 1 : 0);\n        RotSym = RotSym.sub(uint256(_symmetries >> 4 & 1));\n        Y0Sym = Y0Sym.sub(uint256(_symmetries >> 3 & 1));\n        X0Sym = X0Sym.sub(uint256(_symmetries >> 2 & 1));\n        XYSym = XYSym.sub(uint256(_symmetries >> 1 & 1));\n        XnYSym = XnYSym.sub(uint256(_symmetries & 1));\n        Clovers(clovers).setAllSymmetries(Symmetricals, RotSym, Y0Sym, X0Sym, XYSym, XnYSym);\n    }\n\n}",
  "sourcePath": "/Users/billy/vue/clovers-dapp/contracts/CloversController.sol",
  "compiler": {
    "name": "solc",
    "version": "0.4.19+commit.c4cbbb05.Emscripten.clang"
  },
  "schemaVersion": "1.0.1",
  "updatedAt": "2018-03-22T19:12:01.208Z"
}