{
  "contractName": "CloversMetadata",
  "abi": [
    {
      "constant": false,
      "inputs": [],
      "name": "TokenMetadataController",
      "outputs": [],
      "payable": false,
      "stateMutability": "nonpayable",
      "type": "function"
    },
    {
      "constant": true,
      "inputs": [
        {
          "name": "_tokenId",
          "type": "uint256"
        }
      ],
      "name": "tokenMetadata",
      "outputs": [
        {
          "name": "_infoUrl",
          "type": "string"
        }
      ],
      "payable": false,
      "stateMutability": "view",
      "type": "function"
    }
  ],
  "bytecode": "0x6060604052341561000f57600080fd5b61059a8061001e6000396000f30060606040526004361061004c576000357c0100000000000000000000000000000000000000000000000000000000900463ffffffff168063199ae150146100515780636914db6014610066575b600080fd5b341561005c57600080fd5b61006461009c565b005b341561007157600080fd5b610086600461008190369061047d565b61009e565b60405161009391906104e5565b60405180910390f35b565b6100a6610427565b6100ae610427565b6100b6610427565b6100be610427565b606060405190810160405280602381526020017f68747470733a2f2f6d657461646174612e636c6f766572732e6e6574776f726b81526020017f2f307800000000000000000000000000000000000000000000000000000000008152509250610126856101af565b91506040805190810160405280600581526020017f2e6a736f6e00000000000000000000000000000000000000000000000000000081525090506101a561016c82610330565b61019761019261017b86610330565b61018488610330565b61035e90919063ffffffff16565b610330565b61035e90919063ffffffff16565b9350505050919050565b6101b7610427565b60008060006101c461043b565b600080600088141561020d576040805190810160405280600181526020017f30000000000000000000000000000000000000000000000000000000000000008152509650610325565b8795505b6000861415156102335784806001019550506004869060020a90049550610211565b600f9350846040518059106102455750595b9080825280601f01601f191660200182016040525092506001850391505b600088141515610321578388169050600981116102a557806030017f0100000000000000000000000000000000000000000000000000000000000000026102cc565b806037017f0100000000000000000000000000000000000000000000000000000000000000025b8383806001900394508151811015156102e157fe5b9060200101907effffffffffffffffffffffffffffffffffffffffffffffffffffffffffffff1916908160001a9053506004889060020a90049750610263565b8296505b505050505050919050565b61033861044f565b600060208301905060408051908101604052808451815260200182815250915050919050565b610366610427565b61036e610427565b600083600001518560000151016040518059106103885750595b9080825280601f01601f191660200182016040525091506020820190506103b881866020015187600001516103dc565b6103d185600001518201856020015186600001516103dc565b819250505092915050565b60005b60208210151561040457825184526020840193506020830192506020820391506103df565b6001826020036101000a0390508019835116818551168181178652505050505050565b602060405190810160405280600081525090565b602060405190810160405280600081525090565b604080519081016040528060008152602001600081525090565b60006104758235610512565b905092915050565b60006020828403126001811461049257610497565b600080fd5b5060006104a684828501610469565b91505092915050565b60006104ba82610507565b8084526104ce81602086016020860161051c565b6104d78161054f565b602085010191505092915050565b600060208201905081810360008301526104ff81846104af565b905092915050565b600081519050919050565b6000819050919050565b60005b8381101561053a57808201518184015260208101905061051f565b83811115610549576000848401525b50505050565b6000601f19601f83011690509190505600a265627a7a7230582072643f642e9fcba08247fc4158f34f9a6575c9dd05e62a75321d81960bae1f006c6578706572696d656e74616cf50037",
  "source": "pragma solidity ^0.4.19;\npragma experimental ABIEncoderV2;\n\n/**\n* CloversMetadata contract is upgradeable and returns metadata about Clovers\n*/\n\nimport \"./strings.sol\";\n\ncontract CloversMetadata {\n    using strings for *;\n\n    function TokenMetadataController () public {}\n\n    function tokenMetadata(uint _tokenId) public view returns (string _infoUrl) {\n        string memory base = \"https://metadata.clovers.network/0x\";\n        string memory id = uint2hexstr(_tokenId);\n        string memory suffix = \".json\";\n        return base.toSlice().concat(id.toSlice()).toSlice().concat(suffix.toSlice());\n    }\n    function uint2hexstr(uint i) internal pure returns (string) {\n        if (i == 0) return \"0\";\n        uint j = i;\n        uint length;\n        while (j != 0) {\n            length++;\n            j = j >> 4;\n        }\n        uint mask = 15;\n        bytes memory bstr = new bytes(length);\n        uint k = length - 1;\n        while (i != 0){\n            uint curr = (i & mask);\n            bstr[k--] = curr > 9 ? byte(55 + curr) : byte(48 + curr); // 55 = 65 - 10\n            i = i >> 4;\n        }\n        return string(bstr);\n    }\n}",
  "sourcePath": "/Users/billy/vue/clovers-dapp/contracts/CloversMetadata.sol",
  "compiler": {
    "name": "solc",
    "version": "0.4.19+commit.c4cbbb05.Emscripten.clang"
  },
  "schemaVersion": "1.0.1",
  "updatedAt": "2018-03-23T20:17:51.937Z"
}