{
  "contractName": "Clovers",
  "abi": [
    {
      "constant": false,
      "inputs": [
        {
          "name": "_to",
          "type": "address"
        },
        {
          "name": "_tokenId",
          "type": "uint256"
        }
      ],
      "name": "approve",
      "outputs": [],
      "payable": false,
      "stateMutability": "nonpayable",
      "type": "function"
    },
    {
      "constant": true,
      "inputs": [],
      "name": "totalSupply",
      "outputs": [
        {
          "name": "",
          "type": "uint256"
        }
      ],
      "payable": false,
      "stateMutability": "view",
      "type": "function"
    },
    {
      "constant": true,
      "inputs": [
        {
          "name": "_tokenId",
          "type": "uint256"
        }
      ],
      "name": "approvedFor",
      "outputs": [
        {
          "name": "",
          "type": "address"
        }
      ],
      "payable": false,
      "stateMutability": "view",
      "type": "function"
    },
    {
      "constant": true,
      "inputs": [
        {
          "name": "",
          "type": "bytes32"
        }
      ],
      "name": "commits",
      "outputs": [
        {
          "name": "",
          "type": "address"
        }
      ],
      "payable": false,
      "stateMutability": "view",
      "type": "function"
    },
    {
      "constant": true,
      "inputs": [
        {
          "name": "_owner",
          "type": "address"
        }
      ],
      "name": "tokensOf",
      "outputs": [
        {
          "name": "",
          "type": "uint256[]"
        }
      ],
      "payable": false,
      "stateMutability": "view",
      "type": "function"
    },
    {
      "constant": true,
      "inputs": [
        {
          "name": "_tokenId",
          "type": "uint256"
        }
      ],
      "name": "ownerOf",
      "outputs": [
        {
          "name": "",
          "type": "address"
        }
      ],
      "payable": false,
      "stateMutability": "view",
      "type": "function"
    },
    {
      "constant": true,
      "inputs": [
        {
          "name": "",
          "type": "uint256"
        }
      ],
      "name": "clovers",
      "outputs": [
        {
          "name": "symmetries",
          "type": "bytes1"
        },
        {
          "name": "blockMinted",
          "type": "uint256"
        },
        {
          "name": "rewards",
          "type": "uint256"
        }
      ],
      "payable": false,
      "stateMutability": "view",
      "type": "function"
    },
    {
      "constant": true,
      "inputs": [
        {
          "name": "_owner",
          "type": "address"
        }
      ],
      "name": "balanceOf",
      "outputs": [
        {
          "name": "",
          "type": "uint256"
        }
      ],
      "payable": false,
      "stateMutability": "view",
      "type": "function"
    },
    {
      "constant": true,
      "inputs": [],
      "name": "owner",
      "outputs": [
        {
          "name": "",
          "type": "address"
        }
      ],
      "payable": false,
      "stateMutability": "view",
      "type": "function"
    },
    {
      "constant": true,
      "inputs": [
        {
          "name": "",
          "type": "bytes32"
        }
      ],
      "name": "stakes",
      "outputs": [
        {
          "name": "",
          "type": "uint256"
        }
      ],
      "payable": false,
      "stateMutability": "view",
      "type": "function"
    },
    {
      "constant": false,
      "inputs": [
        {
          "name": "_to",
          "type": "address"
        },
        {
          "name": "_tokenId",
          "type": "uint256"
        }
      ],
      "name": "transfer",
      "outputs": [],
      "payable": false,
      "stateMutability": "nonpayable",
      "type": "function"
    },
    {
      "constant": false,
      "inputs": [
        {
          "name": "_tokenId",
          "type": "uint256"
        }
      ],
      "name": "takeOwnership",
      "outputs": [],
      "payable": false,
      "stateMutability": "nonpayable",
      "type": "function"
    },
    {
      "constant": false,
      "inputs": [
        {
          "name": "newOwner",
          "type": "address"
        }
      ],
      "name": "transferOwnership",
      "outputs": [],
      "payable": false,
      "stateMutability": "nonpayable",
      "type": "function"
    },
    {
      "inputs": [],
      "payable": false,
      "stateMutability": "nonpayable",
      "type": "constructor"
    },
    {
      "payable": true,
      "stateMutability": "payable",
      "type": "fallback"
    },
    {
      "anonymous": false,
      "inputs": [
        {
          "indexed": true,
          "name": "previousOwner",
          "type": "address"
        },
        {
          "indexed": true,
          "name": "newOwner",
          "type": "address"
        }
      ],
      "name": "OwnershipTransferred",
      "type": "event"
    },
    {
      "anonymous": false,
      "inputs": [
        {
          "indexed": true,
          "name": "_from",
          "type": "address"
        },
        {
          "indexed": true,
          "name": "_to",
          "type": "address"
        },
        {
          "indexed": false,
          "name": "_tokenId",
          "type": "uint256"
        }
      ],
      "name": "Transfer",
      "type": "event"
    },
    {
      "anonymous": false,
      "inputs": [
        {
          "indexed": true,
          "name": "_owner",
          "type": "address"
        },
        {
          "indexed": true,
          "name": "_approved",
          "type": "address"
        },
        {
          "indexed": false,
          "name": "_tokenId",
          "type": "uint256"
        }
      ],
      "name": "Approval",
      "type": "event"
    },
    {
      "constant": true,
      "inputs": [],
      "name": "implementation",
      "outputs": [
        {
          "name": "",
          "type": "address"
        }
      ],
      "payable": false,
      "stateMutability": "view",
      "type": "function"
    },
    {
      "constant": true,
      "inputs": [
        {
          "name": "_tokenId",
          "type": "uint256"
        }
      ],
      "name": "tokenMetadata",
      "outputs": [
        {
          "name": "_infoUrl",
          "type": "string"
        }
      ],
      "payable": false,
      "stateMutability": "view",
      "type": "function"
    },
    {
      "constant": true,
      "inputs": [
        {
          "name": "movesHash",
          "type": "bytes32"
        }
      ],
      "name": "getStake",
      "outputs": [
        {
          "name": "",
          "type": "uint256"
        }
      ],
      "payable": false,
      "stateMutability": "view",
      "type": "function"
    },
    {
      "constant": true,
      "inputs": [
        {
          "name": "movesHash",
          "type": "bytes32"
        }
      ],
      "name": "getCommit",
      "outputs": [
        {
          "name": "",
          "type": "address"
        }
      ],
      "payable": false,
      "stateMutability": "view",
      "type": "function"
    },
    {
      "constant": true,
      "inputs": [
        {
          "name": "_tokenId",
          "type": "uint256"
        }
      ],
      "name": "getBlockMinted",
      "outputs": [
        {
          "name": "",
          "type": "uint256"
        }
      ],
      "payable": false,
      "stateMutability": "view",
      "type": "function"
    },
    {
      "constant": true,
      "inputs": [
        {
          "name": "_tokenId",
          "type": "uint256"
        }
      ],
      "name": "getCloverMoves",
      "outputs": [
        {
          "name": "",
          "type": "bytes28[2]"
        }
      ],
      "payable": false,
      "stateMutability": "view",
      "type": "function"
    },
    {
      "constant": true,
      "inputs": [
        {
          "name": "_tokenId",
          "type": "uint256"
        }
      ],
      "name": "getReward",
      "outputs": [
        {
          "name": "",
          "type": "uint256"
        }
      ],
      "payable": false,
      "stateMutability": "view",
      "type": "function"
    },
    {
      "constant": true,
      "inputs": [
        {
          "name": "_tokenId",
          "type": "uint256"
        }
      ],
      "name": "getSymmetries",
      "outputs": [
        {
          "name": "",
          "type": "bytes1"
        }
      ],
      "payable": false,
      "stateMutability": "view",
      "type": "function"
    },
    {
      "constant": true,
      "inputs": [],
      "name": "getAllSymmetries",
      "outputs": [
        {
          "name": "",
          "type": "uint256"
        },
        {
          "name": "",
          "type": "uint256"
        },
        {
          "name": "",
          "type": "uint256"
        },
        {
          "name": "",
          "type": "uint256"
        },
        {
          "name": "",
          "type": "uint256"
        },
        {
          "name": "",
          "type": "uint256"
        }
      ],
      "payable": false,
      "stateMutability": "view",
      "type": "function"
    },
    {
      "constant": false,
      "inputs": [
        {
          "name": "_to",
          "type": "address"
        },
        {
          "name": "amount",
          "type": "uint256"
        }
      ],
      "name": "moveEth",
      "outputs": [
        {
          "name": "",
          "type": "bool"
        }
      ],
      "payable": false,
      "stateMutability": "nonpayable",
      "type": "function"
    },
    {
      "constant": false,
      "inputs": [
        {
          "name": "amount",
          "type": "uint256"
        },
        {
          "name": "_to",
          "type": "address"
        },
        {
          "name": "token",
          "type": "address"
        }
      ],
      "name": "moveToken",
      "outputs": [
        {
          "name": "",
          "type": "bool"
        }
      ],
      "payable": false,
      "stateMutability": "nonpayable",
      "type": "function"
    },
    {
      "constant": false,
      "inputs": [
        {
          "name": "amount",
          "type": "uint256"
        },
        {
          "name": "_to",
          "type": "address"
        },
        {
          "name": "token",
          "type": "address"
        }
      ],
      "name": "approveToken",
      "outputs": [
        {
          "name": "",
          "type": "bool"
        }
      ],
      "payable": false,
      "stateMutability": "nonpayable",
      "type": "function"
    },
    {
      "constant": false,
      "inputs": [
        {
          "name": "movesHash",
          "type": "bytes32"
        },
        {
          "name": "stake",
          "type": "uint256"
        }
      ],
      "name": "setStake",
      "outputs": [],
      "payable": false,
      "stateMutability": "nonpayable",
      "type": "function"
    },
    {
      "constant": false,
      "inputs": [
        {
          "name": "movesHash",
          "type": "bytes32"
        },
        {
          "name": "commiter",
          "type": "address"
        }
      ],
      "name": "setCommit",
      "outputs": [],
      "payable": false,
      "stateMutability": "nonpayable",
      "type": "function"
    },
    {
      "constant": false,
      "inputs": [
        {
          "name": "_tokenId",
          "type": "uint256"
        },
        {
          "name": "value",
          "type": "uint256"
        }
      ],
      "name": "setBlockMinted",
      "outputs": [],
      "payable": false,
      "stateMutability": "nonpayable",
      "type": "function"
    },
    {
      "constant": false,
      "inputs": [
        {
          "name": "_tokenId",
          "type": "uint256"
        },
        {
          "name": "moves",
          "type": "bytes28[2]"
        }
      ],
      "name": "setCloverMoves",
      "outputs": [],
      "payable": false,
      "stateMutability": "nonpayable",
      "type": "function"
    },
    {
      "constant": false,
      "inputs": [
        {
          "name": "_tokenId",
          "type": "uint256"
        },
        {
          "name": "_amount",
          "type": "uint256"
        }
      ],
      "name": "setReward",
      "outputs": [],
      "payable": false,
      "stateMutability": "nonpayable",
      "type": "function"
    },
    {
      "constant": false,
      "inputs": [
        {
          "name": "_tokenId",
          "type": "uint256"
        },
        {
          "name": "_symmetries",
          "type": "bytes1"
        }
      ],
      "name": "setSymmetries",
      "outputs": [],
      "payable": false,
      "stateMutability": "nonpayable",
      "type": "function"
    },
    {
      "constant": false,
      "inputs": [
        {
          "name": "_totalSymmetries",
          "type": "uint256"
        },
        {
          "name": "RotSym",
          "type": "uint256"
        },
        {
          "name": "Y0Sym",
          "type": "uint256"
        },
        {
          "name": "X0Sym",
          "type": "uint256"
        },
        {
          "name": "XYSym",
          "type": "uint256"
        },
        {
          "name": "XnYSym",
          "type": "uint256"
        }
      ],
      "name": "setAllSymmetries",
      "outputs": [],
      "payable": false,
      "stateMutability": "nonpayable",
      "type": "function"
    },
    {
      "constant": false,
      "inputs": [
        {
          "name": "_tokenId",
          "type": "uint256"
        }
      ],
      "name": "deleteClover",
      "outputs": [],
      "payable": false,
      "stateMutability": "nonpayable",
      "type": "function"
    },
    {
      "constant": false,
      "inputs": [
        {
          "name": "_cloversController",
          "type": "address"
        }
      ],
      "name": "updateCloversControllerAddress",
      "outputs": [],
      "payable": false,
      "stateMutability": "nonpayable",
      "type": "function"
    },
    {
      "constant": false,
      "inputs": [
        {
          "name": "_cloversMetadata",
          "type": "address"
        }
      ],
      "name": "updateCloversMetadataAddress",
      "outputs": [],
      "payable": false,
      "stateMutability": "nonpayable",
      "type": "function"
    },
    {
      "constant": false,
      "inputs": [
        {
          "name": "_to",
          "type": "address"
        },
        {
          "name": "_tokenId",
          "type": "uint256"
        }
      ],
      "name": "mint",
      "outputs": [],
      "payable": false,
      "stateMutability": "nonpayable",
      "type": "function"
    },
    {
      "constant": false,
      "inputs": [
        {
          "name": "_tokenId",
          "type": "uint256"
        }
      ],
      "name": "unmint",
      "outputs": [],
      "payable": false,
      "stateMutability": "nonpayable",
      "type": "function"
    }
  ],
  "bytecode": "0x6060604052341561000f57600080fd5b33600560006101000a81548173ffffffffffffffffffffffffffffffffffffffff021916908373ffffffffffffffffffffffffffffffffffffffff1602179055506133088061005f6000396000f3006060604052600436106101cd576000357c0100000000000000000000000000000000000000000000000000000000900463ffffffff16806303a53d6b146101cf578063095ea7b3146102055780630b628395146102275780630e8310d61461024957806318160ddd1461026b5780631c4b774b146102945780631cc1472d146102ca5780631dba5660146103005780631dbd9d91146103225780632a6dd48f146103445780633541fd531461037a57806340c10f191461039c57806347885781146103be5780634e485f88146103f45780635a3f2672146104165780635c60da1b1461044c57806362f9acf9146104755780636352211e146104ab57806364e779b1146104e15780636914db6014610503578063708fa7f71461053957806370a0823114610571578063785d8d71146105a75780638784ea96146105d55780638a56a2261461060b5780638b1b2ba81461062d5780638da5cb5b1461064f5780638fee640714610678578063a47bd496146106ae578063a9059cbb146106d0578063b2e6ceeb146106f2578063b7f8aa0014610714578063c53b4bf91461074a578063e3100d1e14610780578063e765c122146107a2578063f2fde38b146107d8578063f760a4e2146107fa575b005b34156101da57600080fd5b6101ef60046101ea903690612be3565b610830565b6040516101fc919061302f565b60405180910390f35b341561021057600080fd5b6102256004610220903690612ae2565b610850565b005b341561023257600080fd5b6102476004610242903690612c6d565b6109e3565b005b341561025457600080fd5b6102696004610264903690612be3565b610ac1565b005b341561027657600080fd5b61027e610bc2565b60405161028b919061302f565b60405180910390f35b341561029f57600080fd5b6102b460046102af903690612be3565b610bcb565b6040516102c1919061302f565b60405180910390f35b34156102d557600080fd5b6102ea60046102e5903690612ae2565b610beb565b6040516102f79190612f85565b60405180910390f35b341561030b57600080fd5b610320600461031b903690612cb2565b610d04565b005b341561032d57600080fd5b610342600461033d903690612b59565b610e0b565b005b341561034f57600080fd5b610364600461035f903690612be3565b610f1d565b6040516103719190612f04565b60405180910390f35b341561038557600080fd5b61039a6004610395903690612b9e565b610f5a565b005b34156103a757600080fd5b6103bc60046103b7903690612ae2565b611032565b005b34156103c957600080fd5b6103de60046103d9903690612b27565b6110f4565b6040516103eb9190612f04565b60405180910390f35b34156103ff57600080fd5b610414600461040f903690612ab0565b611127565b005b341561042157600080fd5b6104366004610431903690612ab0565b6111ed565b6040516104439190612f63565b60405180910390f35b341561045757600080fd5b61045f61128a565b60405161046c9190612f04565b60405180910390f35b341561048057600080fd5b6104956004610490903690612be3565b6112b4565b6040516104a29190612f48565b60405180910390f35b34156104b657600080fd5b6104cb60046104c6903690612be3565b61132d565b6040516104d89190612f04565b60405180910390f35b34156104ec57600080fd5b61050160046104fc903690612be3565b6113ab565b005b341561050e57600080fd5b610523600461051e903690612be3565b611596565b604051610530919061300d565b60405180910390f35b341561054457600080fd5b6105596004610554903690612be3565b61160e565b60405161056893929190612fbb565b60405180910390f35b341561057c57600080fd5b610591600461058c903690612ab0565b611664565b60405161059e919061302f565b60405180910390f35b34156105b257600080fd5b6105ba6116b0565b6040516105cc9695949392919061304a565b60405180910390f35b34156105e057600080fd5b6105f560046105f0903690612b27565b61172a565b6040516106029190612f04565b60405180910390f35b341561061657600080fd5b61062b6004610626903690612ab0565b61176f565b005b341561063857600080fd5b61064d6004610648903690612d3c565b611835565b005b341561065a57600080fd5b610662611966565b60405161066f9190612f04565b60405180910390f35b341561068357600080fd5b6106986004610693903690612b27565b61198c565b6040516106a5919061302f565b60405180910390f35b34156106b957600080fd5b6106ce60046106c9903690612cf7565b6119a4565b005b34156106db57600080fd5b6106f060046106eb903690612ae2565b611a77565b005b34156106fd57600080fd5b610712600461070d903690612be3565b611aca565b005b341561071f57600080fd5b610734600461072f903690612c15565b611af5565b6040516107419190612f85565b60405180910390f35b341561075557600080fd5b61076a6004610765903690612be3565b611c48565b6040516107779190612fa0565b60405180910390f35b341561078b57600080fd5b6107a0600461079b903690612cf7565b611c94565b005b34156107ad57600080fd5b6107c260046107bd903690612b27565b611d67565b6040516107cf919061302f565b60405180910390f35b34156107e357600080fd5b6107f860046107f3903690612ab0565b611d8c565b005b341561080557600080fd5b61081a6004610815903690612c15565b611ee4565b6040516108279190612f85565b60405180910390f35b6000600e6000838152602001908152602001600020600301549050919050565b6000813373ffffffffffffffffffffffffffffffffffffffff166108738261132d565b73ffffffffffffffffffffffffffffffffffffffff1614151561089557600080fd5b61089e8361132d565b91508173ffffffffffffffffffffffffffffffffffffffff168473ffffffffffffffffffffffffffffffffffffffff16141515156108db57600080fd5b60006108e684610f1d565b73ffffffffffffffffffffffffffffffffffffffff16141580610920575060008473ffffffffffffffffffffffffffffffffffffffff1614155b156109dd57836002600085815260200190815260200160002060006101000a81548173ffffffffffffffffffffffffffffffffffffffff021916908373ffffffffffffffffffffffffffffffffffffffff1602179055508373ffffffffffffffffffffffffffffffffffffffff168273ffffffffffffffffffffffffffffffffffffffff167f8c5be1e5ebec7d5bd14f71427d1e84f3dd0314c0f7b2291e5b200ac8c7c3b925856040516109d4919061302f565b60405180910390a35b50505050565b600d60009054906101000a900473ffffffffffffffffffffffffffffffffffffffff1673ffffffffffffffffffffffffffffffffffffffff163373ffffffffffffffffffffffffffffffffffffffff161480610a8c5750600560009054906101000a900473ffffffffffffffffffffffffffffffffffffffff1673ffffffffffffffffffffffffffffffffffffffff163373ffffffffffffffffffffffffffffffffffffffff16145b1515610a9757600080fd5b80600e6000848152602001908152602001600020600101906002610abc92919061280e565b505050565b600d60009054906101000a900473ffffffffffffffffffffffffffffffffffffffff1673ffffffffffffffffffffffffffffffffffffffff163373ffffffffffffffffffffffffffffffffffffffff161480610b6a5750600560009054906101000a900473ffffffffffffffffffffffffffffffffffffffff1673ffffffffffffffffffffffffffffffffffffffff163373ffffffffffffffffffffffffffffffffffffffff16145b1515610b7557600080fd5b600e6000828152602001908152602001600020600080820160006101000a81549060ff0219169055600182016000610bad9190612885565b60038201600090556004820160009055505050565b60008054905090565b6000600e6000838152602001908152602001600020600401549050919050565b6000600d60009054906101000a900473ffffffffffffffffffffffffffffffffffffffff1673ffffffffffffffffffffffffffffffffffffffff163373ffffffffffffffffffffffffffffffffffffffff161480610c965750600560009054906101000a900473ffffffffffffffffffffffffffffffffffffffff1673ffffffffffffffffffffffffffffffffffffffff163373ffffffffffffffffffffffffffffffffffffffff16145b1515610ca157600080fd5b3073ffffffffffffffffffffffffffffffffffffffff16318211151515610cc757600080fd5b8273ffffffffffffffffffffffffffffffffffffffff166108fc839081150290604051600060405180830381858888f19350505050905092915050565b600d60009054906101000a900473ffffffffffffffffffffffffffffffffffffffff1673ffffffffffffffffffffffffffffffffffffffff163373ffffffffffffffffffffffffffffffffffffffff161480610dad5750600560009054906101000a900473ffffffffffffffffffffffffffffffffffffffff1673ffffffffffffffffffffffffffffffffffffffff163373ffffffffffffffffffffffffffffffffffffffff16145b1515610db857600080fd5b80600e600084815260200190815260200160002060000160006101000a81548160ff02191690837f0100000000000000000000000000000000000000000000000000000000000000900402179055505050565b600d60009054906101000a900473ffffffffffffffffffffffffffffffffffffffff1673ffffffffffffffffffffffffffffffffffffffff163373ffffffffffffffffffffffffffffffffffffffff161480610eb45750600560009054906101000a900473ffffffffffffffffffffffffffffffffffffffff1673ffffffffffffffffffffffffffffffffffffffff163373ffffffffffffffffffffffffffffffffffffffff16145b1515610ebf57600080fd5b80600f6000846000191660001916815260200190815260200160002060006101000a81548173ffffffffffffffffffffffffffffffffffffffff021916908373ffffffffffffffffffffffffffffffffffffffff1602179055505050565b60006002600083815260200190815260200160002060009054906101000a900473ffffffffffffffffffffffffffffffffffffffff169050919050565b600d60009054906101000a900473ffffffffffffffffffffffffffffffffffffffff1673ffffffffffffffffffffffffffffffffffffffff163373ffffffffffffffffffffffffffffffffffffffff1614806110035750600560009054906101000a900473ffffffffffffffffffffffffffffffffffffffff1673ffffffffffffffffffffffffffffffffffffffff163373ffffffffffffffffffffffffffffffffffffffff16145b151561100e57600080fd5b80601060008460001916600019168152602001908152602001600020819055505050565b600d60009054906101000a900473ffffffffffffffffffffffffffffffffffffffff1673ffffffffffffffffffffffffffffffffffffffff163373ffffffffffffffffffffffffffffffffffffffff1614806110db5750600560009054906101000a900473ffffffffffffffffffffffffffffffffffffffff1673ffffffffffffffffffffffffffffffffffffffff163373ffffffffffffffffffffffffffffffffffffffff16145b15156110e657600080fd5b6110f082826120d7565b5050565b600f6020528060005260406000206000915054906101000a900473ffffffffffffffffffffffffffffffffffffffff1681565b600560009054906101000a900473ffffffffffffffffffffffffffffffffffffffff1673ffffffffffffffffffffffffffffffffffffffff163373ffffffffffffffffffffffffffffffffffffffff1614151561118357600080fd5b60008173ffffffffffffffffffffffffffffffffffffffff16141515156111a957600080fd5b80600660006101000a81548173ffffffffffffffffffffffffffffffffffffffff021916908373ffffffffffffffffffffffffffffffffffffffff16021790555050565b6111f5612893565b600360008373ffffffffffffffffffffffffffffffffffffffff1673ffffffffffffffffffffffffffffffffffffffff16815260200190815260200160002080548060200260200160405190810160405280929190818152602001828054801561127e57602002820191906000526020600020905b81548152602001906001019080831161126a575b50505050509050919050565b6000600660009054906101000a900473ffffffffffffffffffffffffffffffffffffffff16905090565b6112bc6128a7565b600e6000838152602001908152602001600020600101600280602002604051908101604052809291908260028015611321576020028201915b8160009054906101000a90046401000000000263ffffffff1916815260200190600101908083116112f5575b50505050509050919050565b6000806001600084815260200190815260200160002060009054906101000a900473ffffffffffffffffffffffffffffffffffffffff169050600073ffffffffffffffffffffffffffffffffffffffff168173ffffffffffffffffffffffffffffffffffffffff16141515156113a257600080fd5b80915050919050565b6000600d60009054906101000a900473ffffffffffffffffffffffffffffffffffffffff1673ffffffffffffffffffffffffffffffffffffffff163373ffffffffffffffffffffffffffffffffffffffff1614806114565750600560009054906101000a900473ffffffffffffffffffffffffffffffffffffffff1673ffffffffffffffffffffffffffffffffffffffff163373ffffffffffffffffffffffffffffffffffffffff16145b151561146157600080fd5b61146a8261132d565b9050600061147783610f1d565b73ffffffffffffffffffffffffffffffffffffffff161415156115385760006002600084815260200190815260200160002060006101000a81548173ffffffffffffffffffffffffffffffffffffffff021916908373ffffffffffffffffffffffffffffffffffffffff16021790555060008173ffffffffffffffffffffffffffffffffffffffff167f8c5be1e5ebec7d5bd14f71427d1e84f3dd0314c0f7b2291e5b200ac8c7c3b9258460405161152f919061302f565b60405180910390a35b6115428183612171565b60008173ffffffffffffffffffffffffffffffffffffffff167fddf252ad1be2c89b69c2b068fc378daa952ba7f163c4a11628f55a4df523b3ef8460405161158a919061302f565b60405180910390a35050565b61159e6128d5565b60006115a86128e9565b6115b061128a565b91506000368080601f0160208091040260200160405190810160405280939291908181526020018383808284378201915050505050509050600080825160208401855af43d604051816000823e826000811461160a578282f35b8282fd5b600e6020528060005260406000206000915090508060000160009054906101000a90047f010000000000000000000000000000000000000000000000000000000000000002908060030154908060040154905083565b6000600360008373ffffffffffffffffffffffffffffffffffffffff1673ffffffffffffffffffffffffffffffffffffffff168152602001908152602001600020805490509050919050565b600080600080600080600754600860006005811015156116cc57fe5b0154600860016005811015156116de57fe5b0154600860026005811015156116f057fe5b01546008600360058110151561170257fe5b01546008600460058110151561171457fe5b0154955095509550955095509550909192939495565b6000600f6000836000191660001916815260200190815260200160002060009054906101000a900473ffffffffffffffffffffffffffffffffffffffff169050919050565b600560009054906101000a900473ffffffffffffffffffffffffffffffffffffffff1673ffffffffffffffffffffffffffffffffffffffff163373ffffffffffffffffffffffffffffffffffffffff161415156117cb57600080fd5b60008173ffffffffffffffffffffffffffffffffffffffff16141515156117f157600080fd5b80600d60006101000a81548173ffffffffffffffffffffffffffffffffffffffff021916908373ffffffffffffffffffffffffffffffffffffffff16021790555050565b600d60009054906101000a900473ffffffffffffffffffffffffffffffffffffffff1673ffffffffffffffffffffffffffffffffffffffff163373ffffffffffffffffffffffffffffffffffffffff1614806118de5750600560009054906101000a900473ffffffffffffffffffffffffffffffffffffffff1673ffffffffffffffffffffffffffffffffffffffff163373ffffffffffffffffffffffffffffffffffffffff16145b15156118e957600080fd5b85600781905550846008600060058110151561190157fe5b0181905550836008600160058110151561191757fe5b0181905550826008600260058110151561192d57fe5b0181905550816008600360058110151561194357fe5b0181905550806008600460058110151561195957fe5b0181905550505050505050565b600560009054906101000a900473ffffffffffffffffffffffffffffffffffffffff1681565b60106020528060005260406000206000915090505481565b600d60009054906101000a900473ffffffffffffffffffffffffffffffffffffffff1673ffffffffffffffffffffffffffffffffffffffff163373ffffffffffffffffffffffffffffffffffffffff161480611a4d5750600560009054906101000a900473ffffffffffffffffffffffffffffffffffffffff1673ffffffffffffffffffffffffffffffffffffffff163373ffffffffffffffffffffffffffffffffffffffff16145b1515611a5857600080fd5b80600e6000848152602001908152602001600020600401819055505050565b803373ffffffffffffffffffffffffffffffffffffffff16611a988261132d565b73ffffffffffffffffffffffffffffffffffffffff16141515611aba57600080fd5b611ac53384846123f9565b505050565b611ad43382612542565b1515611adf57600080fd5b611af2611aeb8261132d565b33836123f9565b50565b6000600d60009054906101000a900473ffffffffffffffffffffffffffffffffffffffff1673ffffffffffffffffffffffffffffffffffffffff163373ffffffffffffffffffffffffffffffffffffffff161480611ba05750600560009054906101000a900473ffffffffffffffffffffffffffffffffffffffff1673ffffffffffffffffffffffffffffffffffffffff163373ffffffffffffffffffffffffffffffffffffffff16145b1515611bab57600080fd5b8173ffffffffffffffffffffffffffffffffffffffff1663095ea7b384866000604051602001526040518363ffffffff167c0100000000000000000000000000000000000000000000000000000000028152600401611c0b929190612f1f565b602060405180830381600087803b1515611c2457600080fd5b6102c65a03f11515611c3557600080fd5b5050506040518051905090509392505050565b6000600e600083815260200190815260200160002060000160009054906101000a90047f0100000000000000000000000000000000000000000000000000000000000000029050919050565b600d60009054906101000a900473ffffffffffffffffffffffffffffffffffffffff1673ffffffffffffffffffffffffffffffffffffffff163373ffffffffffffffffffffffffffffffffffffffff161480611d3d5750600560009054906101000a900473ffffffffffffffffffffffffffffffffffffffff1673ffffffffffffffffffffffffffffffffffffffff163373ffffffffffffffffffffffffffffffffffffffff16145b1515611d4857600080fd5b80600e6000848152602001908152602001600020600301819055505050565b6000601060008360001916600019168152602001908152602001600020549050919050565b600560009054906101000a900473ffffffffffffffffffffffffffffffffffffffff1673ffffffffffffffffffffffffffffffffffffffff163373ffffffffffffffffffffffffffffffffffffffff16141515611de857600080fd5b600073ffffffffffffffffffffffffffffffffffffffff168173ffffffffffffffffffffffffffffffffffffffff1614151515611e2457600080fd5b8073ffffffffffffffffffffffffffffffffffffffff16600560009054906101000a900473ffffffffffffffffffffffffffffffffffffffff1673ffffffffffffffffffffffffffffffffffffffff167f8be0079c531659141344cd1fd0a4f28419497f9722a3daafe3b4186f6b6457e060405160405180910390a380600560006101000a81548173ffffffffffffffffffffffffffffffffffffffff021916908373ffffffffffffffffffffffffffffffffffffffff16021790555050565b6000600d60009054906101000a900473ffffffffffffffffffffffffffffffffffffffff1673ffffffffffffffffffffffffffffffffffffffff163373ffffffffffffffffffffffffffffffffffffffff161480611f8f5750600560009054906101000a900473ffffffffffffffffffffffffffffffffffffffff1673ffffffffffffffffffffffffffffffffffffffff163373ffffffffffffffffffffffffffffffffffffffff16145b1515611f9a57600080fd5b8173ffffffffffffffffffffffffffffffffffffffff166370a08231306000604051602001526040518263ffffffff167c0100000000000000000000000000000000000000000000000000000000028152600401611ff89190612ff2565b602060405180830381600087803b151561201157600080fd5b6102c65a03f1151561202257600080fd5b50505060405180519050841115151561203a57600080fd5b8173ffffffffffffffffffffffffffffffffffffffff1663a9059cbb84866000604051602001526040518363ffffffff167c010000000000000000000000000000000000000000000000000000000002815260040161209a929190612f1f565b602060405180830381600087803b15156120b357600080fd5b6102c65a03f115156120c457600080fd5b5050506040518051905090509392505050565b600073ffffffffffffffffffffffffffffffffffffffff168273ffffffffffffffffffffffffffffffffffffffff161415151561211357600080fd5b61211d8282612583565b8173ffffffffffffffffffffffffffffffffffffffff1660007fddf252ad1be2c89b69c2b068fc378daa952ba7f163c4a11628f55a4df523b3ef83604051612165919061302f565b60405180910390a35050565b60008060008473ffffffffffffffffffffffffffffffffffffffff166121968561132d565b73ffffffffffffffffffffffffffffffffffffffff161415156121b857600080fd5b600460008581526020019081526020016000205492506121ea60016121dc87611664565b6126ee90919063ffffffff16565b9150600360008673ffffffffffffffffffffffffffffffffffffffff1673ffffffffffffffffffffffffffffffffffffffff1681526020019081526020016000208281548110151561223857fe5b906000526020600020900154905060006001600086815260200190815260200160002060006101000a81548173ffffffffffffffffffffffffffffffffffffffff021916908373ffffffffffffffffffffffffffffffffffffffff16021790555080600360008773ffffffffffffffffffffffffffffffffffffffff1673ffffffffffffffffffffffffffffffffffffffff168152602001908152602001600020848154811015156122e657fe5b9060005260206000209001819055506000600360008773ffffffffffffffffffffffffffffffffffffffff1673ffffffffffffffffffffffffffffffffffffffff1681526020019081526020016000208381548110151561234357fe5b906000526020600020900181905550600360008673ffffffffffffffffffffffffffffffffffffffff1673ffffffffffffffffffffffffffffffffffffffff1681526020019081526020016000208054809190600190036123a491906128fd565b50600060046000868152602001908152602001600020819055508260046000838152602001908152602001600020819055506123ec60016000546126ee90919063ffffffff16565b6000819055505050505050565b600073ffffffffffffffffffffffffffffffffffffffff168273ffffffffffffffffffffffffffffffffffffffff161415151561243557600080fd5b61243e8161132d565b73ffffffffffffffffffffffffffffffffffffffff168273ffffffffffffffffffffffffffffffffffffffff161415151561247857600080fd5b8273ffffffffffffffffffffffffffffffffffffffff166124988261132d565b73ffffffffffffffffffffffffffffffffffffffff161415156124ba57600080fd5b6124c48382612707565b6124ce8382612171565b6124d88282612583565b8173ffffffffffffffffffffffffffffffffffffffff168373ffffffffffffffffffffffffffffffffffffffff167fddf252ad1be2c89b69c2b068fc378daa952ba7f163c4a11628f55a4df523b3ef83604051612535919061302f565b60405180910390a3505050565b60008273ffffffffffffffffffffffffffffffffffffffff1661256483610f1d565b73ffffffffffffffffffffffffffffffffffffffff1614905092915050565b60008073ffffffffffffffffffffffffffffffffffffffff166001600084815260200190815260200160002060009054906101000a900473ffffffffffffffffffffffffffffffffffffffff1673ffffffffffffffffffffffffffffffffffffffff161415156125f257600080fd5b826001600084815260200190815260200160002060006101000a81548173ffffffffffffffffffffffffffffffffffffffff021916908373ffffffffffffffffffffffffffffffffffffffff16021790555061264d83611664565b9050600360008473ffffffffffffffffffffffffffffffffffffffff1673ffffffffffffffffffffffffffffffffffffffff16815260200190815260200160002080548060010182816126a09190612929565b9160005260206000209001600084909190915055508060046000848152602001908152602001600020819055506126e360016000546127f090919063ffffffff16565b600081905550505050565b60008282111515156126fc57fe5b818303905092915050565b8173ffffffffffffffffffffffffffffffffffffffff166127278261132d565b73ffffffffffffffffffffffffffffffffffffffff1614151561274957600080fd5b60006002600083815260200190815260200160002060006101000a81548173ffffffffffffffffffffffffffffffffffffffff021916908373ffffffffffffffffffffffffffffffffffffffff16021790555060008273ffffffffffffffffffffffffffffffffffffffff167f8c5be1e5ebec7d5bd14f71427d1e84f3dd0314c0f7b2291e5b200ac8c7c3b925836040516127e4919061302f565b60405180910390a35050565b600080828401905083811015151561280457fe5b8091505092915050565b8260028101928215612874579160200282015b828111156128735782518260006101000a8154817bffffffffffffffffffffffffffffffffffffffffffffffffffffffff02191690836401000000009004021790555091602001919060010190612821565b5b5090506128819190612955565b5090565b506000815560010160009055565b602060405190810160405280600081525090565b60408051908101604052806002905b600063ffffffff19168152602001906001900390816128b65790505090565b602060405190810160405280600081525090565b602060405190810160405280600081525090565b8154818355818115116129245781836000526020600020918201910161292391906129a0565b5b505050565b8154818355818115116129505781836000526020600020918201910161294f91906129a0565b5b505050565b61299d91905b8082111561299957600081816101000a8154907bffffffffffffffffffffffffffffffffffffffffffffffffffffffff02191690555060010161295b565b5090565b90565b6129c291905b808211156129be5760008160009055506001016129a6565b5090565b90565b60006129d182356131ec565b905092915050565b600082601f830112600081146129ee576129f3565b600080fd5b506002612a07612a02826130e1565b6130ab565b91508183856020840282011160018114612a2057612a25565b600080fd5b5060005b83811015612a565781612a3c8882612a74565b845260208401935060208301925050600181019050612a29565b5050505092915050565b6000612a6c823561320c565b905092915050565b6000612a808235613238565b905092915050565b6000612a948235613264565b905092915050565b6000612aa8823561326e565b905092915050565b600060208284031260018114612ac557612aca565b600080fd5b506000612ad9848285016129c5565b91505092915050565b60008060408385031260018114612af857612afd565b600080fd5b506000612b0c858286016129c5565b9250506020612b1d85828601612a9c565b9150509250929050565b600060208284031260018114612b3c57612b41565b600080fd5b506000612b5084828501612a88565b91505092915050565b60008060408385031260018114612b6f57612b74565b600080fd5b506000612b8385828601612a88565b9250506020612b94858286016129c5565b9150509250929050565b60008060408385031260018114612bb457612bb9565b600080fd5b506000612bc885828601612a88565b9250506020612bd985828601612a9c565b9150509250929050565b600060208284031260018114612bf857612bfd565b600080fd5b506000612c0c84828501612a9c565b91505092915050565b600080600060608486031260018114612c2d57612c32565b600080fd5b506000612c4186828701612a9c565b9350506020612c52868287016129c5565b9250506040612c63868287016129c5565b9150509250925092565b60008060608385031260018114612c8357612c88565b600080fd5b506000612c9785828601612a9c565b9250506020612ca8858286016129d9565b9150509250929050565b60008060408385031260018114612cc857612ccd565b600080fd5b506000612cdc85828601612a9c565b9250506020612ced85828601612a60565b9150509250929050565b60008060408385031260018114612d0d57612d12565b600080fd5b506000612d2185828601612a9c565b9250506020612d3285828601612a9c565b9150509250929050565b60008060008060008060c08789031260018114612d5857612d5d565b600080fd5b506000612d6c89828a01612a9c565b9650506020612d7d89828a01612a9c565b9550506040612d8e89828a01612a9c565b9450506060612d9f89828a01612a9c565b9350506080612db089828a01612a9c565b92505060a0612dc189828a01612a9c565b9150509295509295509295565b612dd78161315e565b82525050565b612de681613123565b612def8261310c565b60005b82811015612e2157612e05858351612ea1565b612e0e82613144565b9150602085019450600181019050612df2565b5050505050565b6000612e338261312e565b808452602084019350612e4583613116565b60005b82811015612e7757612e5b868351612ef5565b612e6482613151565b9150602086019550600181019050612e48565b50849250505092915050565b612e8c8161317e565b82525050565b612e9b8161318a565b82525050565b612eaa816131b6565b82525050565b612eb981613278565b82525050565b6000612eca82613139565b808452612ede81602086016020860161328a565b612ee7816132bd565b602085010191505092915050565b612efe816131e2565b82525050565b6000602082019050612f196000830184612dce565b92915050565b6000604082019050612f346000830185612dce565b612f416020830184612ef5565b9392505050565b6000604082019050612f5d6000830184612ddd565b92915050565b60006020820190508181036000830152612f7d8184612e28565b905092915050565b6000602082019050612f9a6000830184612e83565b92915050565b6000602082019050612fb56000830184612e92565b92915050565b6000606082019050612fd06000830186612e92565b612fdd6020830185612ef5565b612fea6040830184612ef5565b949350505050565b60006020820190506130076000830184612eb0565b92915050565b600060208201905081810360008301526130278184612ebf565b905092915050565b60006020820190506130446000830184612ef5565b92915050565b600060c08201905061305f6000830189612ef5565b61306c6020830188612ef5565b6130796040830187612ef5565b6130866060830186612ef5565b6130936080830185612ef5565b6130a060a0830184612ef5565b979650505050505050565b6000604051905081810181811067ffffffffffffffff821117600181146130d1576130d6565b600080fd5b508060405250919050565b600067ffffffffffffffff8211600181146130fb57613100565b600080fd5b50602082029050919050565b6000819050919050565b6000602082019050919050565b600060029050919050565b600081519050919050565b600081519050919050565b6000602082019050919050565b6000602082019050919050565b600073ffffffffffffffffffffffffffffffffffffffff82169050919050565b60008115159050919050565b60007fff0000000000000000000000000000000000000000000000000000000000000082169050919050565b60007fffffffffffffffffffffffffffffffffffffffffffffffffffffffff0000000082169050919050565b6000819050919050565b600073ffffffffffffffffffffffffffffffffffffffff82169050919050565b60007fff0000000000000000000000000000000000000000000000000000000000000082169050919050565b60007fffffffffffffffffffffffffffffffffffffffffffffffffffffffff0000000082169050919050565b6000819050919050565b6000819050919050565b60006132838261315e565b9050919050565b60005b838110156132a857808201518184015260208101905061328d565b838111156132b7576000848401525b50505050565b6000601f19601f83011690509190505600a265627a7a72305820c27aea988ce78c68283510584987b1306f7d6799234609487a713590e56120746c6578706572696d656e74616cf50037",
  "source": "pragma solidity ^0.4.19;\npragma experimental ABIEncoderV2;\n\n/**\n * Digital Asset Registry for the Non Fungible Token Clover\n * with upgradeable contract reference for returning metadata.\n */\n\nimport \"zeppelin-solidity/contracts/token/ERC20/ERC20.sol\";\nimport \"./ERC721Token.sol\";\nimport \"zeppelin-solidity/contracts/ownership/Ownable.sol\";\nimport \"./IClovers.sol\";\nimport \"./CloversMetadata.sol\";\n\ncontract Clovers is IClovers, ERC721Token, Ownable {\n\n    address private cloversMetadata;\n    uint256 totalSymmetries;\n    uint256[5] symmetries; // RotSym, Y0Sym, X0Sym, XYSym, XnYSym\n    address cloversController;\n\n    mapping (uint256 => Clover) public clovers;\n    struct Clover {\n        bytes1 symmetries;\n        bytes28[2] cloverMoves;\n        uint256 blockMinted;\n        uint256 rewards;\n    }\n    mapping (bytes32 => address) public commits;\n    mapping (bytes32 => uint256) public stakes;\n\n    modifier onlyOwnerOrController() {\n        require(\n            msg.sender == cloversController ||\n            msg.sender == owner\n        );\n        _;\n    }\n\n    function Clovers () public {}\n    function () public payable {}\n\n    function implementation() public view returns (address) {\n        return cloversMetadata;\n    }\n\n    function tokenMetadata(uint _tokenId) public view returns (string _infoUrl) {\n        // require(ownerOf(_tokenId) != 0);\n        address _impl = implementation();\n        bytes memory data = msg.data;\n        assembly {\n            let result := delegatecall(gas, _impl, add(data, 0x20), mload(data), 0, 0)\n            let size := returndatasize\n            let ptr := mload(0x40)\n            returndatacopy(ptr, 0, size)\n            switch result\n            case 0 { revert(ptr, size) }\n            default { return(ptr, size) }\n        }\n        // return CloversMetadata(cloversMetadata).tokenMetadata(_tokenId);\n    }\n    function getStake(bytes32 movesHash) public view returns (uint256) {\n        return stakes[movesHash];\n    }\n    function getCommit(bytes32 movesHash) public view returns (address) {\n        return commits[movesHash];\n    }\n    function getBlockMinted(uint256 _tokenId) public view returns (uint256) {\n        return clovers[_tokenId].blockMinted;\n    }\n    function getCloverMoves(uint256 _tokenId) public view returns (bytes28[2]) {\n        return clovers[_tokenId].cloverMoves;\n    }\n    function getReward(uint256 _tokenId) public view returns (uint256) {\n        return clovers[_tokenId].rewards;\n    }\n    function getSymmetries(uint256 _tokenId) public view returns (bytes1) {\n        return clovers[_tokenId].symmetries;\n    }\n    function getAllSymmetries() public view returns (uint256, uint256, uint256, uint256, uint256, uint256) {\n        return (\n            totalSymmetries,\n            symmetries[0], //RotSym,\n            symmetries[1], //Y0Sym,\n            symmetries[2], //X0Sym,\n            symmetries[3], //XYSym,\n            symmetries[4] //XnYSym\n        );\n    }\n\n/* ---------------------------------------------------------------------------------------------------------------------- */\n\n    function moveEth(address _to, uint256 amount) public onlyOwnerOrController returns (bool) {\n        require(amount <= this.balance);\n        return _to.send(amount);\n    }\n    function moveToken(uint256 amount, address _to, address token) public onlyOwnerOrController returns (bool) {\n        require(amount <= ERC20(token).balanceOf(this));\n        return ERC20(token).transfer(_to, amount);\n    }\n    function approveToken(uint256 amount, address _to, address token) public onlyOwnerOrController returns (bool) {\n        return ERC20(token).approve(_to, amount);\n    }\n\n    function setStake(bytes32 movesHash, uint256 stake) public onlyOwnerOrController {\n        stakes[movesHash] = stake;\n    }\n    function setCommit(bytes32 movesHash, address commiter) public onlyOwnerOrController {\n        commits[movesHash] = commiter;\n    }\n    function setBlockMinted(uint256 _tokenId, uint256 value) public onlyOwnerOrController {\n        clovers[_tokenId].blockMinted = value;\n    }\n    function setCloverMoves(uint256 _tokenId, bytes28[2] moves) public onlyOwnerOrController {\n        clovers[_tokenId].cloverMoves = moves;\n    }\n    function setReward(uint256 _tokenId, uint256 _amount) public onlyOwnerOrController {\n        clovers[_tokenId].rewards = _amount;\n    }\n    function setSymmetries(uint256 _tokenId, bytes1 _symmetries) public onlyOwnerOrController {\n        clovers[_tokenId].symmetries = _symmetries;\n    }\n    function setAllSymmetries(uint256 _totalSymmetries, uint256 RotSym, uint256 Y0Sym, uint256 X0Sym, uint256 XYSym, uint256 XnYSym) public onlyOwnerOrController {\n        totalSymmetries = _totalSymmetries;\n        symmetries[0] = RotSym;\n        symmetries[1] = Y0Sym;\n        symmetries[2] = X0Sym;\n        symmetries[3] = XYSym;\n        symmetries[4] = XnYSym;\n    }\n    function deleteClover(uint256 _tokenId) public onlyOwnerOrController {\n        delete(clovers[_tokenId]);\n    }\n\n    function updateCloversControllerAddress(address _cloversController) public onlyOwner {\n        require(_cloversController != 0);\n        cloversController = _cloversController;\n    }\n    function updateCloversMetadataAddress(address _cloversMetadata) public onlyOwner {\n        require(_cloversMetadata != 0);\n        cloversMetadata = _cloversMetadata;\n    }\n\n    function mint (address _to, uint256 _tokenId) public onlyOwnerOrController {\n        _mint(_to, _tokenId);\n    }\n    function unmint (uint256 _tokenId) public onlyOwnerOrController {\n        address _owner = ownerOf(_tokenId); // needs to be changed from private to internal\n        if (approvedFor(_tokenId) != 0) {\n            tokenApprovals[_tokenId] = 0;\n            Approval(_owner, 0, _tokenId);\n        }\n        removeToken(_owner, _tokenId); // needs to be changed from private to internal\n        Transfer(_owner, 0x0, _tokenId);\n    }\n\n}\n",
  "sourcePath": "/Users/billy/vue/clovers-dapp/contracts/Clovers.sol",
  "compiler": {
    "name": "solc",
    "version": "0.4.19+commit.c4cbbb05.Emscripten.clang"
  },
  "schemaVersion": "1.0.1",
  "updatedAt": "2018-03-25T16:38:01.373Z"
}