{
  "contractName": "Clovers",
  "abi": [
    {
      "constant": false,
      "inputs": [
        {
          "name": "_to",
          "type": "address"
        },
        {
          "name": "_tokenId",
          "type": "uint256"
        }
      ],
      "name": "approve",
      "outputs": [],
      "payable": false,
      "stateMutability": "nonpayable",
      "type": "function"
    },
    {
      "constant": true,
      "inputs": [],
      "name": "totalSupply",
      "outputs": [
        {
          "name": "",
          "type": "uint256"
        }
      ],
      "payable": false,
      "stateMutability": "view",
      "type": "function"
    },
    {
      "constant": true,
      "inputs": [
        {
          "name": "_tokenId",
          "type": "uint256"
        }
      ],
      "name": "approvedFor",
      "outputs": [
        {
          "name": "",
          "type": "address"
        }
      ],
      "payable": false,
      "stateMutability": "view",
      "type": "function"
    },
    {
      "constant": true,
      "inputs": [
        {
          "name": "",
          "type": "bytes32"
        }
      ],
      "name": "commits",
      "outputs": [
        {
          "name": "",
          "type": "address"
        }
      ],
      "payable": false,
      "stateMutability": "view",
      "type": "function"
    },
    {
      "constant": true,
      "inputs": [
        {
          "name": "_owner",
          "type": "address"
        }
      ],
      "name": "tokensOf",
      "outputs": [
        {
          "name": "",
          "type": "uint256[]"
        }
      ],
      "payable": false,
      "stateMutability": "view",
      "type": "function"
    },
    {
      "constant": true,
      "inputs": [
        {
          "name": "_tokenId",
          "type": "uint256"
        }
      ],
      "name": "ownerOf",
      "outputs": [
        {
          "name": "",
          "type": "address"
        }
      ],
      "payable": false,
      "stateMutability": "view",
      "type": "function"
    },
    {
      "constant": true,
      "inputs": [
        {
          "name": "",
          "type": "uint256"
        }
      ],
      "name": "clovers",
      "outputs": [
        {
          "name": "symmetries",
          "type": "bytes1"
        },
        {
          "name": "blockMinted",
          "type": "uint256"
        },
        {
          "name": "rewards",
          "type": "uint256"
        }
      ],
      "payable": false,
      "stateMutability": "view",
      "type": "function"
    },
    {
      "constant": true,
      "inputs": [
        {
          "name": "_owner",
          "type": "address"
        }
      ],
      "name": "balanceOf",
      "outputs": [
        {
          "name": "",
          "type": "uint256"
        }
      ],
      "payable": false,
      "stateMutability": "view",
      "type": "function"
    },
    {
      "constant": true,
      "inputs": [],
      "name": "owner",
      "outputs": [
        {
          "name": "",
          "type": "address"
        }
      ],
      "payable": false,
      "stateMutability": "view",
      "type": "function"
    },
    {
      "constant": true,
      "inputs": [
        {
          "name": "",
          "type": "bytes32"
        }
      ],
      "name": "stakes",
      "outputs": [
        {
          "name": "",
          "type": "uint256"
        }
      ],
      "payable": false,
      "stateMutability": "view",
      "type": "function"
    },
    {
      "constant": false,
      "inputs": [
        {
          "name": "_to",
          "type": "address"
        },
        {
          "name": "_tokenId",
          "type": "uint256"
        }
      ],
      "name": "transfer",
      "outputs": [],
      "payable": false,
      "stateMutability": "nonpayable",
      "type": "function"
    },
    {
      "constant": false,
      "inputs": [
        {
          "name": "_tokenId",
          "type": "uint256"
        }
      ],
      "name": "takeOwnership",
      "outputs": [],
      "payable": false,
      "stateMutability": "nonpayable",
      "type": "function"
    },
    {
      "constant": false,
      "inputs": [
        {
          "name": "newOwner",
          "type": "address"
        }
      ],
      "name": "transferOwnership",
      "outputs": [],
      "payable": false,
      "stateMutability": "nonpayable",
      "type": "function"
    },
    {
      "inputs": [],
      "payable": false,
      "stateMutability": "nonpayable",
      "type": "constructor"
    },
    {
      "anonymous": false,
      "inputs": [
        {
          "indexed": true,
          "name": "previousOwner",
          "type": "address"
        },
        {
          "indexed": true,
          "name": "newOwner",
          "type": "address"
        }
      ],
      "name": "OwnershipTransferred",
      "type": "event"
    },
    {
      "anonymous": false,
      "inputs": [
        {
          "indexed": true,
          "name": "_from",
          "type": "address"
        },
        {
          "indexed": true,
          "name": "_to",
          "type": "address"
        },
        {
          "indexed": false,
          "name": "_tokenId",
          "type": "uint256"
        }
      ],
      "name": "Transfer",
      "type": "event"
    },
    {
      "anonymous": false,
      "inputs": [
        {
          "indexed": true,
          "name": "_owner",
          "type": "address"
        },
        {
          "indexed": true,
          "name": "_approved",
          "type": "address"
        },
        {
          "indexed": false,
          "name": "_tokenId",
          "type": "uint256"
        }
      ],
      "name": "Approval",
      "type": "event"
    },
    {
      "constant": true,
      "inputs": [
        {
          "name": "_tokenId",
          "type": "uint256"
        }
      ],
      "name": "tokenMetadata",
      "outputs": [
        {
          "name": "_infoUrl",
          "type": "string"
        }
      ],
      "payable": false,
      "stateMutability": "view",
      "type": "function"
    },
    {
      "constant": true,
      "inputs": [
        {
          "name": "movesHash",
          "type": "bytes32"
        }
      ],
      "name": "getStake",
      "outputs": [
        {
          "name": "",
          "type": "uint256"
        }
      ],
      "payable": false,
      "stateMutability": "view",
      "type": "function"
    },
    {
      "constant": true,
      "inputs": [
        {
          "name": "movesHash",
          "type": "bytes32"
        }
      ],
      "name": "getCommit",
      "outputs": [
        {
          "name": "",
          "type": "address"
        }
      ],
      "payable": false,
      "stateMutability": "view",
      "type": "function"
    },
    {
      "constant": true,
      "inputs": [
        {
          "name": "_tokenId",
          "type": "uint256"
        }
      ],
      "name": "getBlockMinted",
      "outputs": [
        {
          "name": "",
          "type": "uint256"
        }
      ],
      "payable": false,
      "stateMutability": "view",
      "type": "function"
    },
    {
      "constant": true,
      "inputs": [
        {
          "name": "_tokenId",
          "type": "uint256"
        }
      ],
      "name": "getCloverMoves",
      "outputs": [
        {
          "name": "",
          "type": "bytes28[2]"
        }
      ],
      "payable": false,
      "stateMutability": "view",
      "type": "function"
    },
    {
      "constant": true,
      "inputs": [
        {
          "name": "_tokenId",
          "type": "uint256"
        }
      ],
      "name": "getReward",
      "outputs": [
        {
          "name": "",
          "type": "uint256"
        }
      ],
      "payable": false,
      "stateMutability": "view",
      "type": "function"
    },
    {
      "constant": true,
      "inputs": [
        {
          "name": "_tokenId",
          "type": "uint256"
        }
      ],
      "name": "getSymmetries",
      "outputs": [
        {
          "name": "",
          "type": "bytes1"
        }
      ],
      "payable": false,
      "stateMutability": "view",
      "type": "function"
    },
    {
      "constant": true,
      "inputs": [],
      "name": "getAllSymmetries",
      "outputs": [
        {
          "name": "",
          "type": "uint256"
        },
        {
          "name": "",
          "type": "uint256"
        },
        {
          "name": "",
          "type": "uint256"
        },
        {
          "name": "",
          "type": "uint256"
        },
        {
          "name": "",
          "type": "uint256"
        },
        {
          "name": "",
          "type": "uint256"
        }
      ],
      "payable": false,
      "stateMutability": "view",
      "type": "function"
    },
    {
      "constant": false,
      "inputs": [
        {
          "name": "_to",
          "type": "address"
        },
        {
          "name": "amount",
          "type": "uint256"
        }
      ],
      "name": "moveEth",
      "outputs": [
        {
          "name": "",
          "type": "bool"
        }
      ],
      "payable": false,
      "stateMutability": "nonpayable",
      "type": "function"
    },
    {
      "constant": false,
      "inputs": [
        {
          "name": "amount",
          "type": "uint256"
        },
        {
          "name": "_to",
          "type": "address"
        },
        {
          "name": "token",
          "type": "address"
        }
      ],
      "name": "moveToken",
      "outputs": [
        {
          "name": "",
          "type": "bool"
        }
      ],
      "payable": false,
      "stateMutability": "nonpayable",
      "type": "function"
    },
    {
      "constant": false,
      "inputs": [
        {
          "name": "amount",
          "type": "uint256"
        },
        {
          "name": "_to",
          "type": "address"
        },
        {
          "name": "token",
          "type": "address"
        }
      ],
      "name": "approveToken",
      "outputs": [
        {
          "name": "",
          "type": "bool"
        }
      ],
      "payable": false,
      "stateMutability": "nonpayable",
      "type": "function"
    },
    {
      "constant": false,
      "inputs": [
        {
          "name": "movesHash",
          "type": "bytes32"
        },
        {
          "name": "stake",
          "type": "uint256"
        }
      ],
      "name": "setStake",
      "outputs": [],
      "payable": false,
      "stateMutability": "nonpayable",
      "type": "function"
    },
    {
      "constant": false,
      "inputs": [
        {
          "name": "movesHash",
          "type": "bytes32"
        },
        {
          "name": "commiter",
          "type": "address"
        }
      ],
      "name": "setCommit",
      "outputs": [],
      "payable": false,
      "stateMutability": "nonpayable",
      "type": "function"
    },
    {
      "constant": false,
      "inputs": [
        {
          "name": "_tokenId",
          "type": "uint256"
        },
        {
          "name": "value",
          "type": "uint256"
        }
      ],
      "name": "setBlockMinted",
      "outputs": [],
      "payable": false,
      "stateMutability": "nonpayable",
      "type": "function"
    },
    {
      "constant": false,
      "inputs": [
        {
          "name": "_tokenId",
          "type": "uint256"
        },
        {
          "name": "moves",
          "type": "bytes28[2]"
        }
      ],
      "name": "setCloverMoves",
      "outputs": [],
      "payable": false,
      "stateMutability": "nonpayable",
      "type": "function"
    },
    {
      "constant": false,
      "inputs": [
        {
          "name": "_tokenId",
          "type": "uint256"
        },
        {
          "name": "_amount",
          "type": "uint256"
        }
      ],
      "name": "setReward",
      "outputs": [],
      "payable": false,
      "stateMutability": "nonpayable",
      "type": "function"
    },
    {
      "constant": false,
      "inputs": [
        {
          "name": "_tokenId",
          "type": "uint256"
        },
        {
          "name": "_symmetries",
          "type": "bytes1"
        }
      ],
      "name": "setSymmetries",
      "outputs": [],
      "payable": false,
      "stateMutability": "nonpayable",
      "type": "function"
    },
    {
      "constant": false,
      "inputs": [
        {
          "name": "_totalSymmetries",
          "type": "uint256"
        },
        {
          "name": "RotSym",
          "type": "uint256"
        },
        {
          "name": "Y0Sym",
          "type": "uint256"
        },
        {
          "name": "X0Sym",
          "type": "uint256"
        },
        {
          "name": "XYSym",
          "type": "uint256"
        },
        {
          "name": "XnYSym",
          "type": "uint256"
        }
      ],
      "name": "setAllSymmetries",
      "outputs": [],
      "payable": false,
      "stateMutability": "nonpayable",
      "type": "function"
    },
    {
      "constant": false,
      "inputs": [
        {
          "name": "_tokenId",
          "type": "uint256"
        }
      ],
      "name": "deleteClover",
      "outputs": [],
      "payable": false,
      "stateMutability": "nonpayable",
      "type": "function"
    },
    {
      "constant": false,
      "inputs": [
        {
          "name": "_cloversController",
          "type": "address"
        }
      ],
      "name": "updateCloversControllerAddress",
      "outputs": [],
      "payable": false,
      "stateMutability": "nonpayable",
      "type": "function"
    },
    {
      "constant": false,
      "inputs": [
        {
          "name": "_cloversMetadata",
          "type": "address"
        }
      ],
      "name": "updateCloversMetadataAddress",
      "outputs": [],
      "payable": false,
      "stateMutability": "nonpayable",
      "type": "function"
    },
    {
      "constant": false,
      "inputs": [
        {
          "name": "_to",
          "type": "address"
        },
        {
          "name": "_tokenId",
          "type": "uint256"
        }
      ],
      "name": "mint",
      "outputs": [],
      "payable": false,
      "stateMutability": "nonpayable",
      "type": "function"
    },
    {
      "constant": false,
      "inputs": [
        {
          "name": "_tokenId",
          "type": "uint256"
        }
      ],
      "name": "burn",
      "outputs": [],
      "payable": false,
      "stateMutability": "nonpayable",
      "type": "function"
    }
  ],
  "bytecode": "0x6060604052341561000f57600080fd5b33600560006101000a81548173ffffffffffffffffffffffffffffffffffffffff021916908373ffffffffffffffffffffffffffffffffffffffff1602179055506132c98061005f6000396000f3006060604052600436106101c2576000357c0100000000000000000000000000000000000000000000000000000000900463ffffffff16806303a53d6b146101c7578063095ea7b3146101fd5780630b6283951461021f5780630e8310d61461024157806318160ddd146102635780631c4b774b1461028c5780631cc1472d146102c25780631dba5660146102f85780631dbd9d911461031a5780632a6dd48f1461033c5780633541fd531461037257806340c10f191461039457806342966c68146103b657806347885781146103d85780634e485f881461040e5780635a3f26721461043057806362f9acf9146104665780636352211e1461049c5780636914db60146104d2578063708fa7f71461050857806370a0823114610540578063785d8d71146105765780638784ea96146105a45780638a56a226146105da5780638b1b2ba8146105fc5780638da5cb5b1461061e5780638fee640714610647578063a47bd4961461067d578063a9059cbb1461069f578063b2e6ceeb146106c1578063b7f8aa00146106e3578063c53b4bf914610719578063e3100d1e1461074f578063e765c12214610771578063f2fde38b146107a7578063f760a4e2146107c9575b600080fd5b34156101d257600080fd5b6101e760046101e2903690612ba4565b6107ff565b6040516101f49190612ff0565b60405180910390f35b341561020857600080fd5b61021d6004610218903690612aa3565b61081f565b005b341561022a57600080fd5b61023f600461023a903690612c2e565b6109b2565b005b341561024c57600080fd5b610261600461025c903690612ba4565b610a90565b005b341561026e57600080fd5b610276610b91565b6040516102839190612ff0565b60405180910390f35b341561029757600080fd5b6102ac60046102a7903690612ba4565b610b9a565b6040516102b99190612ff0565b60405180910390f35b34156102cd57600080fd5b6102e260046102dd903690612aa3565b610bba565b6040516102ef9190612f46565b60405180910390f35b341561030357600080fd5b6103186004610313903690612c73565b610cd3565b005b341561032557600080fd5b61033a6004610335903690612b1a565b610dda565b005b341561034757600080fd5b61035c6004610357903690612ba4565b610eec565b6040516103699190612ec5565b60405180910390f35b341561037d57600080fd5b610392600461038d903690612b5f565b610f29565b005b341561039f57600080fd5b6103b460046103af903690612aa3565b611001565b005b34156103c157600080fd5b6103d660046103d1903690612ba4565b6110c3565b005b34156103e357600080fd5b6103f860046103f3903690612ae8565b611183565b6040516104059190612ec5565b60405180910390f35b341561041957600080fd5b61042e6004610429903690612a71565b6111b6565b005b341561043b57600080fd5b610450600461044b903690612a71565b61127c565b60405161045d9190612f24565b60405180910390f35b341561047157600080fd5b6104866004610481903690612ba4565b611319565b6040516104939190612f09565b60405180910390f35b34156104a757600080fd5b6104bc60046104b7903690612ba4565b611392565b6040516104c99190612ec5565b60405180910390f35b34156104dd57600080fd5b6104f260046104ed903690612ba4565b611410565b6040516104ff9190612fce565b60405180910390f35b341561051357600080fd5b6105286004610523903690612ba4565b61150f565b60405161053793929190612f7c565b60405180910390f35b341561054b57600080fd5b610560600461055b903690612a71565b611565565b60405161056d9190612ff0565b60405180910390f35b341561058157600080fd5b6105896115b1565b60405161059b9695949392919061300b565b60405180910390f35b34156105af57600080fd5b6105c460046105bf903690612ae8565b61162b565b6040516105d19190612ec5565b60405180910390f35b34156105e557600080fd5b6105fa60046105f5903690612a71565b611670565b005b341561060757600080fd5b61061c6004610617903690612cfd565b611736565b005b341561062957600080fd5b610631611867565b60405161063e9190612ec5565b60405180910390f35b341561065257600080fd5b6106676004610662903690612ae8565b61188d565b6040516106749190612ff0565b60405180910390f35b341561068857600080fd5b61069d6004610698903690612cb8565b6118a5565b005b34156106aa57600080fd5b6106bf60046106ba903690612aa3565b611978565b005b34156106cc57600080fd5b6106e160046106dc903690612ba4565b6119cb565b005b34156106ee57600080fd5b61070360046106fe903690612bd6565b6119f6565b6040516107109190612f46565b60405180910390f35b341561072457600080fd5b6107396004610734903690612ba4565b611b49565b6040516107469190612f61565b60405180910390f35b341561075a57600080fd5b61076f600461076a903690612cb8565b611b95565b005b341561077c57600080fd5b610791600461078c903690612ae8565b611c68565b60405161079e9190612ff0565b60405180910390f35b34156107b257600080fd5b6107c760046107c2903690612a71565b611c8d565b005b34156107d457600080fd5b6107e960046107e4903690612bd6565b611de5565b6040516107f69190612f46565b60405180910390f35b6000600e6000838152602001908152602001600020600301549050919050565b6000813373ffffffffffffffffffffffffffffffffffffffff1661084282611392565b73ffffffffffffffffffffffffffffffffffffffff1614151561086457600080fd5b61086d83611392565b91508173ffffffffffffffffffffffffffffffffffffffff168473ffffffffffffffffffffffffffffffffffffffff16141515156108aa57600080fd5b60006108b584610eec565b73ffffffffffffffffffffffffffffffffffffffff161415806108ef575060008473ffffffffffffffffffffffffffffffffffffffff1614155b156109ac57836002600085815260200190815260200160002060006101000a81548173ffffffffffffffffffffffffffffffffffffffff021916908373ffffffffffffffffffffffffffffffffffffffff1602179055508373ffffffffffffffffffffffffffffffffffffffff168273ffffffffffffffffffffffffffffffffffffffff167f8c5be1e5ebec7d5bd14f71427d1e84f3dd0314c0f7b2291e5b200ac8c7c3b925856040516109a39190612ff0565b60405180910390a35b50505050565b600d60009054906101000a900473ffffffffffffffffffffffffffffffffffffffff1673ffffffffffffffffffffffffffffffffffffffff163373ffffffffffffffffffffffffffffffffffffffff161480610a5b5750600560009054906101000a900473ffffffffffffffffffffffffffffffffffffffff1673ffffffffffffffffffffffffffffffffffffffff163373ffffffffffffffffffffffffffffffffffffffff16145b1515610a6657600080fd5b80600e6000848152602001908152602001600020600101906002610a8b9291906127e3565b505050565b600d60009054906101000a900473ffffffffffffffffffffffffffffffffffffffff1673ffffffffffffffffffffffffffffffffffffffff163373ffffffffffffffffffffffffffffffffffffffff161480610b395750600560009054906101000a900473ffffffffffffffffffffffffffffffffffffffff1673ffffffffffffffffffffffffffffffffffffffff163373ffffffffffffffffffffffffffffffffffffffff16145b1515610b4457600080fd5b600e6000828152602001908152602001600020600080820160006101000a81549060ff0219169055600182016000610b7c919061285a565b60038201600090556004820160009055505050565b60008054905090565b6000600e6000838152602001908152602001600020600401549050919050565b6000600d60009054906101000a900473ffffffffffffffffffffffffffffffffffffffff1673ffffffffffffffffffffffffffffffffffffffff163373ffffffffffffffffffffffffffffffffffffffff161480610c655750600560009054906101000a900473ffffffffffffffffffffffffffffffffffffffff1673ffffffffffffffffffffffffffffffffffffffff163373ffffffffffffffffffffffffffffffffffffffff16145b1515610c7057600080fd5b3073ffffffffffffffffffffffffffffffffffffffff16318211151515610c9657600080fd5b8273ffffffffffffffffffffffffffffffffffffffff166108fc839081150290604051600060405180830381858888f19350505050905092915050565b600d60009054906101000a900473ffffffffffffffffffffffffffffffffffffffff1673ffffffffffffffffffffffffffffffffffffffff163373ffffffffffffffffffffffffffffffffffffffff161480610d7c5750600560009054906101000a900473ffffffffffffffffffffffffffffffffffffffff1673ffffffffffffffffffffffffffffffffffffffff163373ffffffffffffffffffffffffffffffffffffffff16145b1515610d8757600080fd5b80600e600084815260200190815260200160002060000160006101000a81548160ff02191690837f0100000000000000000000000000000000000000000000000000000000000000900402179055505050565b600d60009054906101000a900473ffffffffffffffffffffffffffffffffffffffff1673ffffffffffffffffffffffffffffffffffffffff163373ffffffffffffffffffffffffffffffffffffffff161480610e835750600560009054906101000a900473ffffffffffffffffffffffffffffffffffffffff1673ffffffffffffffffffffffffffffffffffffffff163373ffffffffffffffffffffffffffffffffffffffff16145b1515610e8e57600080fd5b80600f6000846000191660001916815260200190815260200160002060006101000a81548173ffffffffffffffffffffffffffffffffffffffff021916908373ffffffffffffffffffffffffffffffffffffffff1602179055505050565b60006002600083815260200190815260200160002060009054906101000a900473ffffffffffffffffffffffffffffffffffffffff169050919050565b600d60009054906101000a900473ffffffffffffffffffffffffffffffffffffffff1673ffffffffffffffffffffffffffffffffffffffff163373ffffffffffffffffffffffffffffffffffffffff161480610fd25750600560009054906101000a900473ffffffffffffffffffffffffffffffffffffffff1673ffffffffffffffffffffffffffffffffffffffff163373ffffffffffffffffffffffffffffffffffffffff16145b1515610fdd57600080fd5b80601060008460001916600019168152602001908152602001600020819055505050565b600d60009054906101000a900473ffffffffffffffffffffffffffffffffffffffff1673ffffffffffffffffffffffffffffffffffffffff163373ffffffffffffffffffffffffffffffffffffffff1614806110aa5750600560009054906101000a900473ffffffffffffffffffffffffffffffffffffffff1673ffffffffffffffffffffffffffffffffffffffff163373ffffffffffffffffffffffffffffffffffffffff16145b15156110b557600080fd5b6110bf8282611fd8565b5050565b600d60009054906101000a900473ffffffffffffffffffffffffffffffffffffffff1673ffffffffffffffffffffffffffffffffffffffff163373ffffffffffffffffffffffffffffffffffffffff16148061116c5750600560009054906101000a900473ffffffffffffffffffffffffffffffffffffffff1673ffffffffffffffffffffffffffffffffffffffff163373ffffffffffffffffffffffffffffffffffffffff16145b151561117757600080fd5b61118081612072565b50565b600f6020528060005260406000206000915054906101000a900473ffffffffffffffffffffffffffffffffffffffff1681565b600560009054906101000a900473ffffffffffffffffffffffffffffffffffffffff1673ffffffffffffffffffffffffffffffffffffffff163373ffffffffffffffffffffffffffffffffffffffff1614151561121257600080fd5b60008173ffffffffffffffffffffffffffffffffffffffff161415151561123857600080fd5b80600660006101000a81548173ffffffffffffffffffffffffffffffffffffffff021916908373ffffffffffffffffffffffffffffffffffffffff16021790555050565b611284612868565b600360008373ffffffffffffffffffffffffffffffffffffffff1673ffffffffffffffffffffffffffffffffffffffff16815260200190815260200160002080548060200260200160405190810160405280929190818152602001828054801561130d57602002820191906000526020600020905b8154815260200190600101908083116112f9575b50505050509050919050565b61132161287c565b600e6000838152602001908152602001600020600101600280602002604051908101604052809291908260028015611386576020028201915b8160009054906101000a90046401000000000263ffffffff19168152602001906001019080831161135a575b50505050509050919050565b6000806001600084815260200190815260200160002060009054906101000a900473ffffffffffffffffffffffffffffffffffffffff169050600073ffffffffffffffffffffffffffffffffffffffff168173ffffffffffffffffffffffffffffffffffffffff161415151561140757600080fd5b80915050919050565b6114186128aa565b6000600660009054906101000a900473ffffffffffffffffffffffffffffffffffffffff1673ffffffffffffffffffffffffffffffffffffffff1660405180807f746f6b656e4d657461646174612875696e742900000000000000000000000000815250601301905060405180910390207c01000000000000000000000000000000000000000000000000000000009004846040518263ffffffff167c01000000000000000000000000000000000000000000000000000000000281526004018082815260200191505060006040518083038160008761646e5a03f1925050509050801561150a573d6000803e3d6000f35b600080fd5b600e6020528060005260406000206000915090508060000160009054906101000a90047f010000000000000000000000000000000000000000000000000000000000000002908060030154908060040154905083565b6000600360008373ffffffffffffffffffffffffffffffffffffffff1673ffffffffffffffffffffffffffffffffffffffff168152602001908152602001600020805490509050919050565b600080600080600080600754600860006005811015156115cd57fe5b0154600860016005811015156115df57fe5b0154600860026005811015156115f157fe5b01546008600360058110151561160357fe5b01546008600460058110151561161557fe5b0154955095509550955095509550909192939495565b6000600f6000836000191660001916815260200190815260200160002060009054906101000a900473ffffffffffffffffffffffffffffffffffffffff169050919050565b600560009054906101000a900473ffffffffffffffffffffffffffffffffffffffff1673ffffffffffffffffffffffffffffffffffffffff163373ffffffffffffffffffffffffffffffffffffffff161415156116cc57600080fd5b60008173ffffffffffffffffffffffffffffffffffffffff16141515156116f257600080fd5b80600d60006101000a81548173ffffffffffffffffffffffffffffffffffffffff021916908373ffffffffffffffffffffffffffffffffffffffff16021790555050565b600d60009054906101000a900473ffffffffffffffffffffffffffffffffffffffff1673ffffffffffffffffffffffffffffffffffffffff163373ffffffffffffffffffffffffffffffffffffffff1614806117df5750600560009054906101000a900473ffffffffffffffffffffffffffffffffffffffff1673ffffffffffffffffffffffffffffffffffffffff163373ffffffffffffffffffffffffffffffffffffffff16145b15156117ea57600080fd5b85600781905550846008600060058110151561180257fe5b0181905550836008600160058110151561181857fe5b0181905550826008600260058110151561182e57fe5b0181905550816008600360058110151561184457fe5b0181905550806008600460058110151561185a57fe5b0181905550505050505050565b600560009054906101000a900473ffffffffffffffffffffffffffffffffffffffff1681565b60106020528060005260406000206000915090505481565b600d60009054906101000a900473ffffffffffffffffffffffffffffffffffffffff1673ffffffffffffffffffffffffffffffffffffffff163373ffffffffffffffffffffffffffffffffffffffff16148061194e5750600560009054906101000a900473ffffffffffffffffffffffffffffffffffffffff1673ffffffffffffffffffffffffffffffffffffffff163373ffffffffffffffffffffffffffffffffffffffff16145b151561195957600080fd5b80600e6000848152602001908152602001600020600401819055505050565b803373ffffffffffffffffffffffffffffffffffffffff1661199982611392565b73ffffffffffffffffffffffffffffffffffffffff161415156119bb57600080fd5b6119c6338484612146565b505050565b6119d5338261228f565b15156119e057600080fd5b6119f36119ec82611392565b3383612146565b50565b6000600d60009054906101000a900473ffffffffffffffffffffffffffffffffffffffff1673ffffffffffffffffffffffffffffffffffffffff163373ffffffffffffffffffffffffffffffffffffffff161480611aa15750600560009054906101000a900473ffffffffffffffffffffffffffffffffffffffff1673ffffffffffffffffffffffffffffffffffffffff163373ffffffffffffffffffffffffffffffffffffffff16145b1515611aac57600080fd5b8173ffffffffffffffffffffffffffffffffffffffff1663095ea7b384866000604051602001526040518363ffffffff167c0100000000000000000000000000000000000000000000000000000000028152600401611b0c929190612ee0565b602060405180830381600087803b1515611b2557600080fd5b6102c65a03f11515611b3657600080fd5b5050506040518051905090509392505050565b6000600e600083815260200190815260200160002060000160009054906101000a90047f0100000000000000000000000000000000000000000000000000000000000000029050919050565b600d60009054906101000a900473ffffffffffffffffffffffffffffffffffffffff1673ffffffffffffffffffffffffffffffffffffffff163373ffffffffffffffffffffffffffffffffffffffff161480611c3e5750600560009054906101000a900473ffffffffffffffffffffffffffffffffffffffff1673ffffffffffffffffffffffffffffffffffffffff163373ffffffffffffffffffffffffffffffffffffffff16145b1515611c4957600080fd5b80600e6000848152602001908152602001600020600301819055505050565b6000601060008360001916600019168152602001908152602001600020549050919050565b600560009054906101000a900473ffffffffffffffffffffffffffffffffffffffff1673ffffffffffffffffffffffffffffffffffffffff163373ffffffffffffffffffffffffffffffffffffffff16141515611ce957600080fd5b600073ffffffffffffffffffffffffffffffffffffffff168173ffffffffffffffffffffffffffffffffffffffff1614151515611d2557600080fd5b8073ffffffffffffffffffffffffffffffffffffffff16600560009054906101000a900473ffffffffffffffffffffffffffffffffffffffff1673ffffffffffffffffffffffffffffffffffffffff167f8be0079c531659141344cd1fd0a4f28419497f9722a3daafe3b4186f6b6457e060405160405180910390a380600560006101000a81548173ffffffffffffffffffffffffffffffffffffffff021916908373ffffffffffffffffffffffffffffffffffffffff16021790555050565b6000600d60009054906101000a900473ffffffffffffffffffffffffffffffffffffffff1673ffffffffffffffffffffffffffffffffffffffff163373ffffffffffffffffffffffffffffffffffffffff161480611e905750600560009054906101000a900473ffffffffffffffffffffffffffffffffffffffff1673ffffffffffffffffffffffffffffffffffffffff163373ffffffffffffffffffffffffffffffffffffffff16145b1515611e9b57600080fd5b8173ffffffffffffffffffffffffffffffffffffffff166370a08231306000604051602001526040518263ffffffff167c0100000000000000000000000000000000000000000000000000000000028152600401611ef99190612fb3565b602060405180830381600087803b1515611f1257600080fd5b6102c65a03f11515611f2357600080fd5b505050604051805190508411151515611f3b57600080fd5b8173ffffffffffffffffffffffffffffffffffffffff1663a9059cbb84866000604051602001526040518363ffffffff167c0100000000000000000000000000000000000000000000000000000000028152600401611f9b929190612ee0565b602060405180830381600087803b1515611fb457600080fd5b6102c65a03f11515611fc557600080fd5b5050506040518051905090509392505050565b600073ffffffffffffffffffffffffffffffffffffffff168273ffffffffffffffffffffffffffffffffffffffff161415151561201457600080fd5b61201e82826122d0565b8173ffffffffffffffffffffffffffffffffffffffff1660007fddf252ad1be2c89b69c2b068fc378daa952ba7f163c4a11628f55a4df523b3ef836040516120669190612ff0565b60405180910390a35050565b803373ffffffffffffffffffffffffffffffffffffffff1661209382611392565b73ffffffffffffffffffffffffffffffffffffffff161415156120b557600080fd5b60006120c083610eec565b73ffffffffffffffffffffffffffffffffffffffff161415156120e8576120e7338361243b565b5b6120f23383612524565b60003373ffffffffffffffffffffffffffffffffffffffff167fddf252ad1be2c89b69c2b068fc378daa952ba7f163c4a11628f55a4df523b3ef8460405161213a9190612ff0565b60405180910390a35050565b600073ffffffffffffffffffffffffffffffffffffffff168273ffffffffffffffffffffffffffffffffffffffff161415151561218257600080fd5b61218b81611392565b73ffffffffffffffffffffffffffffffffffffffff168273ffffffffffffffffffffffffffffffffffffffff16141515156121c557600080fd5b8273ffffffffffffffffffffffffffffffffffffffff166121e582611392565b73ffffffffffffffffffffffffffffffffffffffff1614151561220757600080fd5b612211838261243b565b61221b8382612524565b61222582826122d0565b8173ffffffffffffffffffffffffffffffffffffffff168373ffffffffffffffffffffffffffffffffffffffff167fddf252ad1be2c89b69c2b068fc378daa952ba7f163c4a11628f55a4df523b3ef836040516122829190612ff0565b60405180910390a3505050565b60008273ffffffffffffffffffffffffffffffffffffffff166122b183610eec565b73ffffffffffffffffffffffffffffffffffffffff1614905092915050565b60008073ffffffffffffffffffffffffffffffffffffffff166001600084815260200190815260200160002060009054906101000a900473ffffffffffffffffffffffffffffffffffffffff1673ffffffffffffffffffffffffffffffffffffffff1614151561233f57600080fd5b826001600084815260200190815260200160002060006101000a81548173ffffffffffffffffffffffffffffffffffffffff021916908373ffffffffffffffffffffffffffffffffffffffff16021790555061239a83611565565b9050600360008473ffffffffffffffffffffffffffffffffffffffff1673ffffffffffffffffffffffffffffffffffffffff16815260200190815260200160002080548060010182816123ed91906128be565b91600052602060002090016000849091909150555080600460008481526020019081526020016000208190555061243060016000546127ac90919063ffffffff16565b600081905550505050565b8173ffffffffffffffffffffffffffffffffffffffff1661245b82611392565b73ffffffffffffffffffffffffffffffffffffffff1614151561247d57600080fd5b60006002600083815260200190815260200160002060006101000a81548173ffffffffffffffffffffffffffffffffffffffff021916908373ffffffffffffffffffffffffffffffffffffffff16021790555060008273ffffffffffffffffffffffffffffffffffffffff167f8c5be1e5ebec7d5bd14f71427d1e84f3dd0314c0f7b2291e5b200ac8c7c3b925836040516125189190612ff0565b60405180910390a35050565b60008060008473ffffffffffffffffffffffffffffffffffffffff1661254985611392565b73ffffffffffffffffffffffffffffffffffffffff1614151561256b57600080fd5b6004600085815260200190815260200160002054925061259d600161258f87611565565b6127ca90919063ffffffff16565b9150600360008673ffffffffffffffffffffffffffffffffffffffff1673ffffffffffffffffffffffffffffffffffffffff168152602001908152602001600020828154811015156125eb57fe5b906000526020600020900154905060006001600086815260200190815260200160002060006101000a81548173ffffffffffffffffffffffffffffffffffffffff021916908373ffffffffffffffffffffffffffffffffffffffff16021790555080600360008773ffffffffffffffffffffffffffffffffffffffff1673ffffffffffffffffffffffffffffffffffffffff1681526020019081526020016000208481548110151561269957fe5b9060005260206000209001819055506000600360008773ffffffffffffffffffffffffffffffffffffffff1673ffffffffffffffffffffffffffffffffffffffff168152602001908152602001600020838154811015156126f657fe5b906000526020600020900181905550600360008673ffffffffffffffffffffffffffffffffffffffff1673ffffffffffffffffffffffffffffffffffffffff16815260200190815260200160002080548091906001900361275791906128ea565b506000600460008681526020019081526020016000208190555082600460008381526020019081526020016000208190555061279f60016000546127ca90919063ffffffff16565b6000819055505050505050565b60008082840190508381101515156127c057fe5b8091505092915050565b60008282111515156127d857fe5b818303905092915050565b8260028101928215612849579160200282015b828111156128485782518260006101000a8154817bffffffffffffffffffffffffffffffffffffffffffffffffffffffff021916908364010000000090040217905550916020019190600101906127f6565b5b5090506128569190612916565b5090565b506000815560010160009055565b602060405190810160405280600081525090565b60408051908101604052806002905b600063ffffffff191681526020019060019003908161288b5790505090565b602060405190810160405280600081525090565b8154818355818115116128e5578183600052602060002091820191016128e49190612961565b5b505050565b815481835581811511612911578183600052602060002091820191016129109190612961565b5b505050565b61295e91905b8082111561295a57600081816101000a8154907bffffffffffffffffffffffffffffffffffffffffffffffffffffffff02191690555060010161291c565b5090565b90565b61298391905b8082111561297f576000816000905550600101612967565b5090565b90565b600061299282356131ad565b905092915050565b600082601f830112600081146129af576129b4565b600080fd5b5060026129c86129c3826130a2565b61306c565b915081838560208402820111600181146129e1576129e6565b600080fd5b5060005b83811015612a1757816129fd8882612a35565b8452602084019350602083019250506001810190506129ea565b5050505092915050565b6000612a2d82356131cd565b905092915050565b6000612a4182356131f9565b905092915050565b6000612a558235613225565b905092915050565b6000612a69823561322f565b905092915050565b600060208284031260018114612a8657612a8b565b600080fd5b506000612a9a84828501612986565b91505092915050565b60008060408385031260018114612ab957612abe565b600080fd5b506000612acd85828601612986565b9250506020612ade85828601612a5d565b9150509250929050565b600060208284031260018114612afd57612b02565b600080fd5b506000612b1184828501612a49565b91505092915050565b60008060408385031260018114612b3057612b35565b600080fd5b506000612b4485828601612a49565b9250506020612b5585828601612986565b9150509250929050565b60008060408385031260018114612b7557612b7a565b600080fd5b506000612b8985828601612a49565b9250506020612b9a85828601612a5d565b9150509250929050565b600060208284031260018114612bb957612bbe565b600080fd5b506000612bcd84828501612a5d565b91505092915050565b600080600060608486031260018114612bee57612bf3565b600080fd5b506000612c0286828701612a5d565b9350506020612c1386828701612986565b9250506040612c2486828701612986565b9150509250925092565b60008060608385031260018114612c4457612c49565b600080fd5b506000612c5885828601612a5d565b9250506020612c698582860161299a565b9150509250929050565b60008060408385031260018114612c8957612c8e565b600080fd5b506000612c9d85828601612a5d565b9250506020612cae85828601612a21565b9150509250929050565b60008060408385031260018114612cce57612cd3565b600080fd5b506000612ce285828601612a5d565b9250506020612cf385828601612a5d565b9150509250929050565b60008060008060008060c08789031260018114612d1957612d1e565b600080fd5b506000612d2d89828a01612a5d565b9650506020612d3e89828a01612a5d565b9550506040612d4f89828a01612a5d565b9450506060612d6089828a01612a5d565b9350506080612d7189828a01612a5d565b92505060a0612d8289828a01612a5d565b9150509295509295509295565b612d988161311f565b82525050565b612da7816130e4565b612db0826130cd565b60005b82811015612de257612dc6858351612e62565b612dcf82613105565b9150602085019450600181019050612db3565b5050505050565b6000612df4826130ef565b808452602084019350612e06836130d7565b60005b82811015612e3857612e1c868351612eb6565b612e2582613112565b9150602086019550600181019050612e09565b50849250505092915050565b612e4d8161313f565b82525050565b612e5c8161314b565b82525050565b612e6b81613177565b82525050565b612e7a81613239565b82525050565b6000612e8b826130fa565b808452612e9f81602086016020860161324b565b612ea88161327e565b602085010191505092915050565b612ebf816131a3565b82525050565b6000602082019050612eda6000830184612d8f565b92915050565b6000604082019050612ef56000830185612d8f565b612f026020830184612eb6565b9392505050565b6000604082019050612f1e6000830184612d9e565b92915050565b60006020820190508181036000830152612f3e8184612de9565b905092915050565b6000602082019050612f5b6000830184612e44565b92915050565b6000602082019050612f766000830184612e53565b92915050565b6000606082019050612f916000830186612e53565b612f9e6020830185612eb6565b612fab6040830184612eb6565b949350505050565b6000602082019050612fc86000830184612e71565b92915050565b60006020820190508181036000830152612fe88184612e80565b905092915050565b60006020820190506130056000830184612eb6565b92915050565b600060c0820190506130206000830189612eb6565b61302d6020830188612eb6565b61303a6040830187612eb6565b6130476060830186612eb6565b6130546080830185612eb6565b61306160a0830184612eb6565b979650505050505050565b6000604051905081810181811067ffffffffffffffff8211176001811461309257613097565b600080fd5b508060405250919050565b600067ffffffffffffffff8211600181146130bc576130c1565b600080fd5b50602082029050919050565b6000819050919050565b6000602082019050919050565b600060029050919050565b600081519050919050565b600081519050919050565b6000602082019050919050565b6000602082019050919050565b600073ffffffffffffffffffffffffffffffffffffffff82169050919050565b60008115159050919050565b60007fff0000000000000000000000000000000000000000000000000000000000000082169050919050565b60007fffffffffffffffffffffffffffffffffffffffffffffffffffffffff0000000082169050919050565b6000819050919050565b600073ffffffffffffffffffffffffffffffffffffffff82169050919050565b60007fff0000000000000000000000000000000000000000000000000000000000000082169050919050565b60007fffffffffffffffffffffffffffffffffffffffffffffffffffffffff0000000082169050919050565b6000819050919050565b6000819050919050565b60006132448261311f565b9050919050565b60005b8381101561326957808201518184015260208101905061324e565b83811115613278576000848401525b50505050565b6000601f19601f83011690509190505600a265627a7a72305820fcebf2b81e42ce79fd53c64bbbacc5211593527e3fa7f0eb3b3c20bf420368066c6578706572696d656e74616cf50037",
  "source": "pragma solidity ^0.4.19;\npragma experimental ABIEncoderV2;\n\n/**\n * Digital Asset Registry for the Non Fungible Token Clover\n * with upgradeable contract reference for returning metadata.\n */\n\nimport \"zeppelin-solidity/contracts/token/ERC20/ERC20.sol\";\nimport \"zeppelin-solidity/contracts/token/ERC721/ERC721Token.sol\";\n// import \"../node_modules/zeppelin-solidity/contracts/ownership/Ownable.sol\";\nimport \"./CloversMetadata.sol\";\n\ncontract Clovers is ERC721Token, Ownable {\n\n    address private cloversMetadata;\n    uint256 totalSymmetries;\n    uint256[5] symmetries; // RotSym, Y0Sym, X0Sym, XYSym, XnYSym\n    address cloversController;\n\n    mapping (uint256 => Clover) public clovers;\n    struct Clover {\n        bytes1 symmetries;\n        bytes28[2] cloverMoves;\n        uint256 blockMinted;\n        uint256 rewards;\n    }\n    mapping (bytes32 => address) public commits;\n    mapping (bytes32 => uint256) public stakes;\n\n    modifier onlyOwnerOrController() {\n        require(\n            msg.sender == cloversController ||\n            msg.sender == owner\n        );\n        _;\n    }\n\n    function Clovers () public {}\n\n    function tokenMetadata(uint _tokenId) public view returns (string _infoUrl) {\n        bool callSuccess = cloversMetadata.call(bytes4(sha3('tokenMetadata(uint)')), _tokenId);\n        if (callSuccess) {\n            assembly {\n                // returndatacopy(toMemAddress, fromMemAddress, sizeInBytes)\n                returndatacopy(0x0, 0x0, returndatasize)\n                // return(fromMemAddress, sizeInBytes)\n                return(0x0, returndatasize)\n            }\n        } else {\n            revert();\n        }\n        // return CloversMetadata(cloversMetadata).tokenMetadata(_tokenId);\n    }\n    function getStake(bytes32 movesHash) public view returns (uint256) {\n        return stakes[movesHash];\n    }\n    function getCommit(bytes32 movesHash) public view returns (address) {\n        return commits[movesHash];\n    }\n    function getBlockMinted(uint256 _tokenId) public view returns (uint256) {\n        return clovers[_tokenId].blockMinted;\n    }\n    function getCloverMoves(uint256 _tokenId) public view returns (bytes28[2]) {\n        return clovers[_tokenId].cloverMoves;\n    }\n    function getReward(uint256 _tokenId) public view returns (uint256) {\n        return clovers[_tokenId].rewards;\n    }\n    function getSymmetries(uint256 _tokenId) public view returns (bytes1) {\n        return clovers[_tokenId].symmetries;\n    }\n    function getAllSymmetries() public view returns (uint256, uint256, uint256, uint256, uint256, uint256) {\n        return (\n            totalSymmetries,\n            symmetries[0], //RotSym,\n            symmetries[1], //Y0Sym,\n            symmetries[2], //X0Sym,\n            symmetries[3], //XYSym,\n            symmetries[4] //XnYSym\n        );\n    }\n\n/* ---------------------------------------------------------------------------------------------------------------------- */\n\n    function moveEth(address _to, uint256 amount) public onlyOwnerOrController returns (bool) {\n        require(amount <= this.balance);\n        return _to.send(amount);\n    }\n    function moveToken(uint256 amount, address _to, address token) public onlyOwnerOrController returns (bool) {\n        require(amount <= ERC20(token).balanceOf(this));\n        return ERC20(token).transfer(_to, amount);\n    }\n    function approveToken(uint256 amount, address _to, address token) public onlyOwnerOrController returns (bool) {\n        return ERC20(token).approve(_to, amount);\n    }\n\n    function setStake(bytes32 movesHash, uint256 stake) public onlyOwnerOrController {\n        stakes[movesHash] = stake;\n    }\n    function setCommit(bytes32 movesHash, address commiter) public onlyOwnerOrController {\n        commits[movesHash] = commiter;\n    }\n    function setBlockMinted(uint256 _tokenId, uint256 value) public onlyOwnerOrController {\n        clovers[_tokenId].blockMinted = value;\n    }\n    function setCloverMoves(uint256 _tokenId, bytes28[2] moves) public onlyOwnerOrController {\n        clovers[_tokenId].cloverMoves = moves;\n    }\n    function setReward(uint256 _tokenId, uint256 _amount) public onlyOwnerOrController {\n        clovers[_tokenId].rewards = _amount;\n    }\n    function setSymmetries(uint256 _tokenId, bytes1 _symmetries) public onlyOwnerOrController {\n        clovers[_tokenId].symmetries = _symmetries;\n    }\n    function setAllSymmetries(uint256 _totalSymmetries, uint256 RotSym, uint256 Y0Sym, uint256 X0Sym, uint256 XYSym, uint256 XnYSym) public onlyOwnerOrController {\n        totalSymmetries = _totalSymmetries;\n        symmetries[0] = RotSym;\n        symmetries[1] = Y0Sym;\n        symmetries[2] = X0Sym;\n        symmetries[3] = XYSym;\n        symmetries[4] = XnYSym;\n    }\n    function deleteClover(uint256 _tokenId) public onlyOwnerOrController {\n        delete(clovers[_tokenId]);\n    }\n\n    function updateCloversControllerAddress(address _cloversController) public onlyOwner {\n        require(_cloversController != 0);\n        cloversController = _cloversController;\n    }\n    function updateCloversMetadataAddress(address _cloversMetadata) public onlyOwner {\n        require(_cloversMetadata != 0);\n        cloversMetadata = _cloversMetadata;\n    }\n\n    function mint (address _to, uint256 _tokenId) public onlyOwnerOrController {\n        _mint(_to, _tokenId);\n    }\n    function burn (uint256 _tokenId) public onlyOwnerOrController {\n        _burn(_tokenId);\n    }\n\n}\n",
  "sourcePath": "/Users/billy/vue/clovers-dapp/contracts/Clovers.sol",
  "compiler": {
    "name": "solc",
    "version": "0.4.19+commit.c4cbbb05.Emscripten.clang"
  },
  "schemaVersion": "1.0.1",
  "updatedAt": "2018-03-22T19:12:01.188Z"
}