{
  "contractName": "CloversMetadata",
  "abi": [
    {
      "constant": false,
      "inputs": [
        {
          "name": "token",
          "type": "address"
        }
      ],
      "name": "reclaimToken",
      "outputs": [],
      "payable": false,
      "stateMutability": "nonpayable",
      "type": "function"
    },
    {
      "constant": true,
      "inputs": [],
      "name": "owner",
      "outputs": [
        {
          "name": "",
          "type": "address"
        }
      ],
      "payable": false,
      "stateMutability": "view",
      "type": "function"
    },
    {
      "constant": false,
      "inputs": [],
      "name": "reclaimEther",
      "outputs": [],
      "payable": false,
      "stateMutability": "nonpayable",
      "type": "function"
    },
    {
      "constant": false,
      "inputs": [
        {
          "name": "from_",
          "type": "address"
        },
        {
          "name": "value_",
          "type": "uint256"
        },
        {
          "name": "data_",
          "type": "bytes"
        }
      ],
      "name": "tokenFallback",
      "outputs": [],
      "payable": false,
      "stateMutability": "nonpayable",
      "type": "function"
    },
    {
      "constant": false,
      "inputs": [
        {
          "name": "newOwner",
          "type": "address"
        }
      ],
      "name": "transferOwnership",
      "outputs": [],
      "payable": false,
      "stateMutability": "nonpayable",
      "type": "function"
    },
    {
      "payable": false,
      "stateMutability": "nonpayable",
      "type": "fallback"
    },
    {
      "anonymous": false,
      "inputs": [
        {
          "indexed": true,
          "name": "previousOwner",
          "type": "address"
        },
        {
          "indexed": true,
          "name": "newOwner",
          "type": "address"
        }
      ],
      "name": "OwnershipTransferred",
      "type": "event"
    },
    {
      "constant": false,
      "inputs": [
        {
          "name": "_cloversController",
          "type": "address"
        }
      ],
      "name": "TokenMetadataController",
      "outputs": [],
      "payable": false,
      "stateMutability": "nonpayable",
      "type": "function"
    },
    {
      "constant": true,
      "inputs": [
        {
          "name": "_tokenId",
          "type": "uint256"
        }
      ],
      "name": "tokenMetadata",
      "outputs": [
        {
          "name": "_infoUrl",
          "type": "string"
        }
      ],
      "payable": false,
      "stateMutability": "view",
      "type": "function"
    },
    {
      "constant": true,
      "inputs": [
        {
          "name": "x",
          "type": "uint256"
        }
      ],
      "name": "toBytesEth",
      "outputs": [
        {
          "name": "b",
          "type": "bytes"
        }
      ],
      "payable": false,
      "stateMutability": "view",
      "type": "function"
    },
    {
      "constant": false,
      "inputs": [
        {
          "name": "_tokenId",
          "type": "uint256"
        },
        {
          "name": "_metadata",
          "type": "string"
        }
      ],
      "name": "insertTokenMetadata",
      "outputs": [],
      "payable": false,
      "stateMutability": "nonpayable",
      "type": "function"
    }
  ],
  "bytecode": "0x6060604052336000806101000a81548173ffffffffffffffffffffffffffffffffffffffff021916908373ffffffffffffffffffffffffffffffffffffffff16021790555060003414151561005357600080fd5b611082806100626000396000f300606060405260043610610099576000357c0100000000000000000000000000000000000000000000000000000000900463ffffffff16806317ffc320146100a65780631adb93d7146100c85780636914db60146100ea5780638d043c49146101205780638da5cb5b146101565780639f727c271461017f578063c0ee0b8a14610194578063c630aac9146101b6578063f2fde38b146101d8575b34156100a457600080fd5b005b34156100b157600080fd5b6100c660046100c1903690610cf6565b6101fa565b005b34156100d357600080fd5b6100e860046100e3903690610c46565b61033b565b005b34156100f557600080fd5b61010a6004610105903690610d28565b61037f565b6040516101179190610eda565b60405180910390f35b341561012b57600080fd5b610140600461013b903690610d28565b6105d9565b60405161014d9190610e9d565b60405180910390f35b341561016157600080fd5b61016961069f565b6040516101769190610e59565b60405180910390f35b341561018a57600080fd5b6101926106c4565b005b341561019f57600080fd5b6101b460046101af903690610c78565b610796565b005b34156101c157600080fd5b6101d660046101d1903690610d5a565b61079b565b005b34156101e357600080fd5b6101f860046101f3903690610c46565b61087a565b005b60008060009054906101000a900473ffffffffffffffffffffffffffffffffffffffff1673ffffffffffffffffffffffffffffffffffffffff163373ffffffffffffffffffffffffffffffffffffffff1614151561025757600080fd5b8173ffffffffffffffffffffffffffffffffffffffff166370a08231306000604051602001526040518263ffffffff167c01000000000000000000000000000000000000000000000000000000000281526004016102b59190610ebf565b602060405180830381600087803b15156102ce57600080fd5b6102c65a03f115156102df57600080fd5b5050506040518051905090506103376000809054906101000a900473ffffffffffffffffffffffffffffffffffffffff16828473ffffffffffffffffffffffffffffffffffffffff166109cf9092919063ffffffff16565b5050565b80600160006101000a81548173ffffffffffffffffffffffffffffffffffffffff021916908373ffffffffffffffffffffffffffffffffffffffff16021790555050565b610387610a70565b61038f610a70565b610397610a84565b60006103a1610a84565b60006103ab610a70565b6103b3610a84565b606060405190810160405280602181526020017f68747470733a2f2f6d657461646174612e636c6f766572732e6e6574776f726b81526020017f2f00000000000000000000000000000000000000000000000000000000000000815250965086955085519450610422896105d9565b9350600092505b83518310156104d857838381518110151561044057fe5b9060200101517f010000000000000000000000000000000000000000000000000000000000000090047f0100000000000000000000000000000000000000000000000000000000000000028684870181518110151561049b57fe5b9060200101907effffffffffffffffffffffffffffffffffffffffffffffffffffffffffffff1916908160001a9053508280600101935050610429565b6040805190810160405280600581526020017f2e6a736f6e0000000000000000000000000000000000000000000000000000008152509150819050600092505b80518310156105ca57808381518110151561052f57fe5b9060200101517f010000000000000000000000000000000000000000000000000000000000000090047f0100000000000000000000000000000000000000000000000000000000000000028684865188010181518110151561058d57fe5b9060200101907effffffffffffffffffffffffffffffffffffffffffffffffffffffffffffff1916908160001a9053508280600101935050610518565b85975050505050505050919050565b6105e1610a84565b600060206040518059106105f25750595b9080825280601f01601f19166020018201604052509150600090505b60208110156106995780601f0360080260020a8381151561062b57fe5b047f010000000000000000000000000000000000000000000000000000000000000002828281518110151561065c57fe5b9060200101907effffffffffffffffffffffffffffffffffffffffffffffffffffffffffffff1916908160001a905350808060010191505061060e565b50919050565b6000809054906101000a900473ffffffffffffffffffffffffffffffffffffffff1681565b6000809054906101000a900473ffffffffffffffffffffffffffffffffffffffff1673ffffffffffffffffffffffffffffffffffffffff163373ffffffffffffffffffffffffffffffffffffffff1614151561071f57600080fd5b6000809054906101000a900473ffffffffffffffffffffffffffffffffffffffff1673ffffffffffffffffffffffffffffffffffffffff166108fc3073ffffffffffffffffffffffffffffffffffffffff16319081150290604051600060405180830381858888f19350505050151561079457fe5b565b600080fd5b600160009054906101000a900473ffffffffffffffffffffffffffffffffffffffff1673ffffffffffffffffffffffffffffffffffffffff163373ffffffffffffffffffffffffffffffffffffffff16148061084357506000809054906101000a900473ffffffffffffffffffffffffffffffffffffffff1673ffffffffffffffffffffffffffffffffffffffff163373ffffffffffffffffffffffffffffffffffffffff16145b151561084e57600080fd5b80600260008481526020019081526020016000209080519060200190610875929190610a98565b505050565b6000809054906101000a900473ffffffffffffffffffffffffffffffffffffffff1673ffffffffffffffffffffffffffffffffffffffff163373ffffffffffffffffffffffffffffffffffffffff161415156108d557600080fd5b600073ffffffffffffffffffffffffffffffffffffffff168173ffffffffffffffffffffffffffffffffffffffff161415151561091157600080fd5b8073ffffffffffffffffffffffffffffffffffffffff166000809054906101000a900473ffffffffffffffffffffffffffffffffffffffff1673ffffffffffffffffffffffffffffffffffffffff167f8be0079c531659141344cd1fd0a4f28419497f9722a3daafe3b4186f6b6457e060405160405180910390a3806000806101000a81548173ffffffffffffffffffffffffffffffffffffffff021916908373ffffffffffffffffffffffffffffffffffffffff16021790555050565b8273ffffffffffffffffffffffffffffffffffffffff1663a9059cbb83836000604051602001526040518363ffffffff167c0100000000000000000000000000000000000000000000000000000000028152600401610a2f929190610e74565b602060405180830381600087803b1515610a4857600080fd5b6102c65a03f11515610a5957600080fd5b505050604051805190501515610a6b57fe5b505050565b602060405190810160405280600081525090565b602060405190810160405280600081525090565b828054600181600116156101000203166002900490600052602060002090601f016020900481019282601f10610ad957805160ff1916838001178555610b07565b82800160010185558215610b07579182015b82811115610b06578251825591602001919060010190610aeb565b5b509050610b149190610b18565b5090565b610b3a91905b80821115610b36576000816000905550600101610b1e565b5090565b90565b6000610b498235610fa7565b905092915050565b60008083601f84011260008114610b6757610b6c565b600080fd5b508235905067ffffffffffffffff811160018114610b8957610b8e565b600080fd5b50602083019150836001820283011160018114610baa57610baf565b600080fd5b509250929050565b6000610bc38235610fc7565b905092915050565b600082601f83011260008114610be057610be5565b600080fd5b508135610bf9610bf482610f32565b610efc565b91508082526020830160208301858383011160018114610c1857610c1d565b600080fd5b50610c29838284610ff5565b50505092915050565b6000610c3e8235610fd9565b905092915050565b600060208284031260018114610c5b57610c60565b600080fd5b506000610c6f84828501610b3d565b91505092915050565b60008060008060608587031260018114610c9157610c96565b600080fd5b506000610ca587828801610b3d565b9450506020610cb687828801610c32565b935050604085013567ffffffffffffffff811160018114610cd657610cdb565b600080fd5b50610ce887828801610b51565b925092505092959194509250565b600060208284031260018114610d0b57610d10565b600080fd5b506000610d1f84828501610bb7565b91505092915050565b600060208284031260018114610d3d57610d42565b600080fd5b506000610d5184828501610c32565b91505092915050565b60008060408385031260018114610d7057610d75565b600080fd5b506000610d8485828601610c32565b925050602083013567ffffffffffffffff811160018114610da457610da9565b600080fd5b50610db685828601610bcb565b9150509250929050565b610dc981610f7d565b82525050565b6000610dda82610f67565b808452610dee816020860160208601611004565b610df781611037565b602085010191505092915050565b610e0e81610fe3565b82525050565b6000610e1f82610f72565b808452610e33816020860160208601611004565b610e3c81611037565b602085010191505092915050565b610e5381610f9d565b82525050565b6000602082019050610e6e6000830184610dc0565b92915050565b6000604082019050610e896000830185610dc0565b610e966020830184610e4a565b9392505050565b60006020820190508181036000830152610eb78184610dcf565b905092915050565b6000602082019050610ed46000830184610e05565b92915050565b60006020820190508181036000830152610ef48184610e14565b905092915050565b6000604051905081810181811067ffffffffffffffff82111760018114610f2257610f27565b600080fd5b508060405250919050565b600067ffffffffffffffff821160018114610f4c57610f51565b600080fd5b50601f19601f8301169050602081019050919050565b600081519050919050565b600081519050919050565b600073ffffffffffffffffffffffffffffffffffffffff82169050919050565b6000819050919050565b600073ffffffffffffffffffffffffffffffffffffffff82169050919050565b6000610fd282610f7d565b9050919050565b6000819050919050565b6000610fee82610f7d565b9050919050565b82818337600083830152505050565b60005b83811015611022578082015181840152602081019050611007565b83811115611031576000848401525b50505050565b6000601f19601f83011690509190505600a265627a7a72305820df502ff95441af3a14c9bbd3e14943789b214821c615605c1c75ff3a47701c766c6578706572696d656e74616cf50037",
  "source": "pragma solidity ^0.4.19;\npragma experimental ABIEncoderV2;\n\n/**\n* CloversMetadata contract is upgradeable and returns metadata about Clovers\n*/\n\nimport \"zeppelin-solidity/contracts/ownership/HasNoTokens.sol\";\nimport \"zeppelin-solidity/contracts/ownership/HasNoEther.sol\";\n\ncontract CloversMetadata is HasNoTokens, HasNoEther {\n    \n    address cloversController;\n    mapping(uint => string) internal tokenIdToMetadata;\n\n    modifier onlyOwnerOrController() {\n        require(\n            msg.sender == cloversController ||\n            msg.sender == owner\n        );\n        _;\n    }\n\n    function TokenMetadataController (address _cloversController) public {\n        cloversController = _cloversController;\n    }\n\n    function tokenMetadata(uint _tokenId) public view returns (string _infoUrl) {\n        // return tokenIdToMetadata[_tokenId];\n        string memory base = 'https://metadata.clovers.network/';\n        bytes memory bbase = bytes(base);\n        uint256 len = bbase.length;\n        bytes memory id = toBytesEth(_tokenId);\n        for (uint i = 0; i < id.length; i++) {\n            bbase[len + i] = id[i];\n        }\n        string memory suffix = '.json';\n        bytes memory bsuffix = bytes(suffix);\n        for (i = 0; i < bsuffix.length; i++) {\n            bbase[len + id.length + i] = bsuffix[i];\n        }\n        return string(bbase);\n    }\n    function toBytesEth(uint256 x) constant returns (bytes b) {\n        b = new bytes(32);\n        for (uint i = 0; i < 32; i++) {\n            b[i] = byte(uint8(x / (2**(8*(31 - i))))); \n        }\n    }\n\n    function insertTokenMetadata(uint _tokenId, string _metadata) public onlyOwnerOrController {\n        tokenIdToMetadata[_tokenId] = _metadata;\n    }\n\n}",
  "sourcePath": "/Users/billy/vue/clovers-dapp/contracts/CloversMetadata.sol",
  "compiler": {
    "name": "solc",
    "version": "0.4.19+commit.c4cbbb05.Emscripten.clang"
  },
  "schemaVersion": "1.0.1",
  "updatedAt": "2018-03-22T19:12:01.192Z"
}