{
  "contractName": "ClubToken",
  "abi": [
    {
      "constant": true,
      "inputs": [
        {
          "name": "",
          "type": "bytes16"
        }
      ],
      "name": "clovers",
      "outputs": [
        {
          "name": "exists",
          "type": "bool"
        },
        {
          "name": "first32Moves",
          "type": "bytes28"
        },
        {
          "name": "lastMoves",
          "type": "bytes28"
        },
        {
          "name": "lastPaidAmount",
          "type": "uint256"
        },
        {
          "name": "findersFee",
          "type": "uint256"
        },
        {
          "name": "created",
          "type": "uint256"
        },
        {
          "name": "modified",
          "type": "uint256"
        }
      ],
      "payable": false,
      "stateMutability": "view",
      "type": "function"
    },
    {
      "constant": true,
      "inputs": [],
      "name": "name",
      "outputs": [
        {
          "name": "",
          "type": "string"
        }
      ],
      "payable": false,
      "stateMutability": "view",
      "type": "function"
    },
    {
      "constant": false,
      "inputs": [
        {
          "name": "_spender",
          "type": "address"
        },
        {
          "name": "_value",
          "type": "uint256"
        }
      ],
      "name": "approve",
      "outputs": [
        {
          "name": "",
          "type": "bool"
        }
      ],
      "payable": false,
      "stateMutability": "nonpayable",
      "type": "function"
    },
    {
      "constant": true,
      "inputs": [],
      "name": "totalSupply",
      "outputs": [
        {
          "name": "",
          "type": "uint256"
        }
      ],
      "payable": false,
      "stateMutability": "view",
      "type": "function"
    },
    {
      "constant": false,
      "inputs": [
        {
          "name": "_from",
          "type": "address"
        },
        {
          "name": "_to",
          "type": "address"
        },
        {
          "name": "_value",
          "type": "uint256"
        }
      ],
      "name": "transferFrom",
      "outputs": [
        {
          "name": "",
          "type": "bool"
        }
      ],
      "payable": false,
      "stateMutability": "nonpayable",
      "type": "function"
    },
    {
      "constant": true,
      "inputs": [],
      "name": "INITIAL_SUPPLY",
      "outputs": [
        {
          "name": "",
          "type": "uint256"
        }
      ],
      "payable": false,
      "stateMutability": "view",
      "type": "function"
    },
    {
      "constant": true,
      "inputs": [],
      "name": "decimals",
      "outputs": [
        {
          "name": "",
          "type": "uint256"
        }
      ],
      "payable": false,
      "stateMutability": "view",
      "type": "function"
    },
    {
      "constant": false,
      "inputs": [
        {
          "name": "_spender",
          "type": "address"
        },
        {
          "name": "_subtractedValue",
          "type": "uint256"
        }
      ],
      "name": "decreaseApproval",
      "outputs": [
        {
          "name": "",
          "type": "bool"
        }
      ],
      "payable": false,
      "stateMutability": "nonpayable",
      "type": "function"
    },
    {
      "constant": true,
      "inputs": [
        {
          "name": "_owner",
          "type": "address"
        }
      ],
      "name": "balanceOf",
      "outputs": [
        {
          "name": "balance",
          "type": "uint256"
        }
      ],
      "payable": false,
      "stateMutability": "view",
      "type": "function"
    },
    {
      "constant": true,
      "inputs": [],
      "name": "owner",
      "outputs": [
        {
          "name": "",
          "type": "address"
        }
      ],
      "payable": false,
      "stateMutability": "view",
      "type": "function"
    },
    {
      "constant": true,
      "inputs": [
        {
          "name": "",
          "type": "uint256"
        }
      ],
      "name": "playerKeys",
      "outputs": [
        {
          "name": "",
          "type": "address"
        }
      ],
      "payable": false,
      "stateMutability": "view",
      "type": "function"
    },
    {
      "constant": true,
      "inputs": [],
      "name": "symbol",
      "outputs": [
        {
          "name": "",
          "type": "string"
        }
      ],
      "payable": false,
      "stateMutability": "view",
      "type": "function"
    },
    {
      "constant": false,
      "inputs": [
        {
          "name": "_to",
          "type": "address"
        },
        {
          "name": "_value",
          "type": "uint256"
        }
      ],
      "name": "transfer",
      "outputs": [
        {
          "name": "",
          "type": "bool"
        }
      ],
      "payable": false,
      "stateMutability": "nonpayable",
      "type": "function"
    },
    {
      "constant": true,
      "inputs": [
        {
          "name": "",
          "type": "uint256"
        }
      ],
      "name": "adminKeys",
      "outputs": [
        {
          "name": "",
          "type": "address"
        }
      ],
      "payable": false,
      "stateMutability": "view",
      "type": "function"
    },
    {
      "constant": false,
      "inputs": [
        {
          "name": "_spender",
          "type": "address"
        },
        {
          "name": "_addedValue",
          "type": "uint256"
        }
      ],
      "name": "increaseApproval",
      "outputs": [
        {
          "name": "",
          "type": "bool"
        }
      ],
      "payable": false,
      "stateMutability": "nonpayable",
      "type": "function"
    },
    {
      "constant": true,
      "inputs": [
        {
          "name": "_owner",
          "type": "address"
        },
        {
          "name": "_spender",
          "type": "address"
        }
      ],
      "name": "allowance",
      "outputs": [
        {
          "name": "",
          "type": "uint256"
        }
      ],
      "payable": false,
      "stateMutability": "view",
      "type": "function"
    },
    {
      "constant": true,
      "inputs": [
        {
          "name": "",
          "type": "address"
        }
      ],
      "name": "players",
      "outputs": [
        {
          "name": "exists",
          "type": "bool"
        },
        {
          "name": "currentCount",
          "type": "uint256"
        }
      ],
      "payable": false,
      "stateMutability": "view",
      "type": "function"
    },
    {
      "constant": true,
      "inputs": [
        {
          "name": "",
          "type": "uint256"
        }
      ],
      "name": "cloverKeys",
      "outputs": [
        {
          "name": "",
          "type": "bytes16"
        }
      ],
      "payable": false,
      "stateMutability": "view",
      "type": "function"
    },
    {
      "inputs": [],
      "payable": false,
      "stateMutability": "nonpayable",
      "type": "constructor"
    },
    {
      "anonymous": false,
      "inputs": [
        {
          "indexed": false,
          "name": "player",
          "type": "address"
        },
        {
          "indexed": false,
          "name": "name",
          "type": "string"
        }
      ],
      "name": "newUserName",
      "type": "event"
    },
    {
      "anonymous": false,
      "inputs": [
        {
          "indexed": false,
          "name": "board",
          "type": "bytes16"
        },
        {
          "indexed": false,
          "name": "name",
          "type": "string"
        }
      ],
      "name": "newCloverName",
      "type": "event"
    },
    {
      "anonymous": false,
      "inputs": [
        {
          "indexed": false,
          "name": "newOwner",
          "type": "address"
        },
        {
          "indexed": false,
          "name": "lastPaidAmount",
          "type": "uint256"
        },
        {
          "indexed": false,
          "name": "board",
          "type": "bytes16"
        },
        {
          "indexed": false,
          "name": "newBoard",
          "type": "bool"
        },
        {
          "indexed": false,
          "name": "first32Moves",
          "type": "bytes28"
        },
        {
          "indexed": false,
          "name": "lastMoves",
          "type": "bytes28"
        },
        {
          "indexed": false,
          "name": "modified",
          "type": "uint256"
        },
        {
          "indexed": false,
          "name": "findersFee",
          "type": "uint256"
        }
      ],
      "name": "Registered",
      "type": "event"
    },
    {
      "anonymous": false,
      "inputs": [
        {
          "indexed": true,
          "name": "owner",
          "type": "address"
        },
        {
          "indexed": true,
          "name": "spender",
          "type": "address"
        },
        {
          "indexed": false,
          "name": "value",
          "type": "uint256"
        }
      ],
      "name": "Approval",
      "type": "event"
    },
    {
      "anonymous": false,
      "inputs": [
        {
          "indexed": true,
          "name": "from",
          "type": "address"
        },
        {
          "indexed": true,
          "name": "to",
          "type": "address"
        },
        {
          "indexed": false,
          "name": "value",
          "type": "uint256"
        }
      ],
      "name": "Transfer",
      "type": "event"
    },
    {
      "constant": true,
      "inputs": [
        {
          "name": "someone",
          "type": "address"
        }
      ],
      "name": "getBalance",
      "outputs": [
        {
          "name": "",
          "type": "uint256"
        }
      ],
      "payable": false,
      "stateMutability": "view",
      "type": "function"
    },
    {
      "constant": true,
      "inputs": [],
      "name": "myAddress",
      "outputs": [
        {
          "name": "",
          "type": "address"
        }
      ],
      "payable": false,
      "stateMutability": "view",
      "type": "function"
    },
    {
      "constant": true,
      "inputs": [],
      "name": "isAdmin",
      "outputs": [
        {
          "name": "",
          "type": "bool"
        }
      ],
      "payable": false,
      "stateMutability": "view",
      "type": "function"
    },
    {
      "constant": true,
      "inputs": [],
      "name": "adminLen",
      "outputs": [
        {
          "name": "",
          "type": "uint256"
        }
      ],
      "payable": false,
      "stateMutability": "view",
      "type": "function"
    },
    {
      "constant": true,
      "inputs": [
        {
          "name": "key",
          "type": "uint256"
        }
      ],
      "name": "adminAt",
      "outputs": [
        {
          "name": "",
          "type": "address"
        }
      ],
      "payable": false,
      "stateMutability": "view",
      "type": "function"
    },
    {
      "constant": true,
      "inputs": [],
      "name": "getTallys",
      "outputs": [
        {
          "name": "",
          "type": "uint256"
        },
        {
          "name": "",
          "type": "uint256"
        },
        {
          "name": "",
          "type": "uint256"
        },
        {
          "name": "",
          "type": "uint256"
        },
        {
          "name": "",
          "type": "uint256"
        },
        {
          "name": "",
          "type": "uint256"
        },
        {
          "name": "",
          "type": "uint256"
        }
      ],
      "payable": false,
      "stateMutability": "view",
      "type": "function"
    },
    {
      "constant": false,
      "inputs": [
        {
          "name": "len",
          "type": "uint256"
        }
      ],
      "name": "changeNameLength",
      "outputs": [],
      "payable": false,
      "stateMutability": "nonpayable",
      "type": "function"
    },
    {
      "constant": false,
      "inputs": [
        {
          "name": "newbie",
          "type": "address"
        }
      ],
      "name": "addAdmin",
      "outputs": [],
      "payable": false,
      "stateMutability": "nonpayable",
      "type": "function"
    },
    {
      "constant": false,
      "inputs": [
        {
          "name": "multiplier",
          "type": "uint256"
        }
      ],
      "name": "updateMultiplier",
      "outputs": [],
      "payable": false,
      "stateMutability": "nonpayable",
      "type": "function"
    },
    {
      "constant": false,
      "inputs": [
        {
          "name": "name",
          "type": "string"
        }
      ],
      "name": "changeName",
      "outputs": [],
      "payable": false,
      "stateMutability": "nonpayable",
      "type": "function"
    },
    {
      "constant": true,
      "inputs": [],
      "name": "listPlayerCount",
      "outputs": [
        {
          "name": "",
          "type": "uint256"
        }
      ],
      "payable": false,
      "stateMutability": "view",
      "type": "function"
    },
    {
      "constant": true,
      "inputs": [
        {
          "name": "playerKey",
          "type": "uint256"
        }
      ],
      "name": "playerAddressByKey",
      "outputs": [
        {
          "name": "",
          "type": "address"
        }
      ],
      "payable": false,
      "stateMutability": "view",
      "type": "function"
    },
    {
      "constant": true,
      "inputs": [
        {
          "name": "player",
          "type": "address"
        }
      ],
      "name": "playerExists",
      "outputs": [
        {
          "name": "",
          "type": "bool"
        }
      ],
      "payable": false,
      "stateMutability": "view",
      "type": "function"
    },
    {
      "constant": true,
      "inputs": [
        {
          "name": "player",
          "type": "address"
        }
      ],
      "name": "playerCurrentCount",
      "outputs": [
        {
          "name": "",
          "type": "uint256"
        }
      ],
      "payable": false,
      "stateMutability": "view",
      "type": "function"
    },
    {
      "constant": true,
      "inputs": [
        {
          "name": "player",
          "type": "address"
        }
      ],
      "name": "playerAllCount",
      "outputs": [
        {
          "name": "",
          "type": "uint256"
        }
      ],
      "payable": false,
      "stateMutability": "view",
      "type": "function"
    },
    {
      "constant": true,
      "inputs": [
        {
          "name": "player",
          "type": "address"
        },
        {
          "name": "cloverKey",
          "type": "uint256"
        }
      ],
      "name": "playerCloverByKey",
      "outputs": [
        {
          "name": "",
          "type": "bytes16"
        }
      ],
      "payable": false,
      "stateMutability": "view",
      "type": "function"
    },
    {
      "constant": true,
      "inputs": [
        {
          "name": "player",
          "type": "address"
        },
        {
          "name": "board",
          "type": "bytes16"
        }
      ],
      "name": "playerOwnsClover",
      "outputs": [
        {
          "name": "",
          "type": "bool"
        }
      ],
      "payable": false,
      "stateMutability": "view",
      "type": "function"
    },
    {
      "constant": true,
      "inputs": [
        {
          "name": "b",
          "type": "bytes16"
        }
      ],
      "name": "cloverExists",
      "outputs": [
        {
          "name": "",
          "type": "bool"
        }
      ],
      "payable": false,
      "stateMutability": "view",
      "type": "function"
    },
    {
      "constant": true,
      "inputs": [],
      "name": "getCloversCount",
      "outputs": [
        {
          "name": "",
          "type": "uint256"
        }
      ],
      "payable": false,
      "stateMutability": "view",
      "type": "function"
    },
    {
      "constant": true,
      "inputs": [
        {
          "name": "boardKey",
          "type": "uint256"
        }
      ],
      "name": "getCloverByKey",
      "outputs": [
        {
          "name": "",
          "type": "bytes16"
        },
        {
          "name": "lastPaidAmount",
          "type": "uint256"
        },
        {
          "name": "owners",
          "type": "uint256"
        },
        {
          "name": "lastOwner",
          "type": "address"
        },
        {
          "name": "first32Moves",
          "type": "bytes28"
        },
        {
          "name": "lastMoves",
          "type": "bytes28"
        }
      ],
      "payable": false,
      "stateMutability": "view",
      "type": "function"
    },
    {
      "constant": true,
      "inputs": [
        {
          "name": "board",
          "type": "bytes16"
        }
      ],
      "name": "getClover",
      "outputs": [
        {
          "name": "",
          "type": "bytes16"
        },
        {
          "name": "lastPaidAmount",
          "type": "uint256"
        },
        {
          "name": "ownersLength",
          "type": "uint256"
        },
        {
          "name": "lastOwner",
          "type": "address"
        },
        {
          "name": "first32Moves",
          "type": "bytes28"
        },
        {
          "name": "lastMoves",
          "type": "bytes28"
        }
      ],
      "payable": false,
      "stateMutability": "view",
      "type": "function"
    },
    {
      "constant": true,
      "inputs": [
        {
          "name": "board",
          "type": "bytes16"
        }
      ],
      "name": "getCloverOwnersLength",
      "outputs": [
        {
          "name": "",
          "type": "uint256"
        }
      ],
      "payable": false,
      "stateMutability": "view",
      "type": "function"
    },
    {
      "constant": true,
      "inputs": [
        {
          "name": "board",
          "type": "bytes16"
        }
      ],
      "name": "getCloverOwner",
      "outputs": [
        {
          "name": "",
          "type": "bytes16"
        },
        {
          "name": "previousOwner",
          "type": "address"
        }
      ],
      "payable": false,
      "stateMutability": "view",
      "type": "function"
    },
    {
      "constant": true,
      "inputs": [
        {
          "name": "board",
          "type": "bytes16"
        },
        {
          "name": "ownerKey",
          "type": "uint256"
        }
      ],
      "name": "getCloverOwnerAtKeyByBoard",
      "outputs": [
        {
          "name": "",
          "type": "bytes16"
        },
        {
          "name": "previousOwner",
          "type": "address"
        }
      ],
      "payable": false,
      "stateMutability": "view",
      "type": "function"
    },
    {
      "constant": true,
      "inputs": [
        {
          "name": "boardKey",
          "type": "uint256"
        },
        {
          "name": "ownerKey",
          "type": "uint256"
        }
      ],
      "name": "getCloverOwnerAtKeyByBoardKey",
      "outputs": [
        {
          "name": "",
          "type": "bytes16"
        },
        {
          "name": "previousOwner",
          "type": "address"
        }
      ],
      "payable": false,
      "stateMutability": "view",
      "type": "function"
    },
    {
      "constant": false,
      "inputs": [
        {
          "name": "board",
          "type": "bytes16"
        },
        {
          "name": "name",
          "type": "string"
        }
      ],
      "name": "renameClover",
      "outputs": [],
      "payable": false,
      "stateMutability": "nonpayable",
      "type": "function"
    },
    {
      "constant": false,
      "inputs": [
        {
          "name": "board",
          "type": "bytes16"
        },
        {
          "name": "startPrice",
          "type": "uint256"
        }
      ],
      "name": "changeStartPrice",
      "outputs": [],
      "payable": false,
      "stateMutability": "nonpayable",
      "type": "function"
    },
    {
      "constant": false,
      "inputs": [
        {
          "name": "first32Moves",
          "type": "bytes28"
        },
        {
          "name": "lastMoves",
          "type": "bytes28"
        },
        {
          "name": "startPrice",
          "type": "uint256"
        }
      ],
      "name": "mineClover",
      "outputs": [],
      "payable": false,
      "stateMutability": "nonpayable",
      "type": "function"
    },
    {
      "constant": false,
      "inputs": [
        {
          "name": "first32Moves",
          "type": "bytes28"
        },
        {
          "name": "lastMoves",
          "type": "bytes28"
        },
        {
          "name": "board",
          "type": "bytes16"
        },
        {
          "name": "startPrice",
          "type": "uint256"
        }
      ],
      "name": "adminMineClover",
      "outputs": [
        {
          "name": "boardKey",
          "type": "uint256"
        }
      ],
      "payable": false,
      "stateMutability": "nonpayable",
      "type": "function"
    },
    {
      "constant": false,
      "inputs": [
        {
          "name": "b",
          "type": "bytes16"
        }
      ],
      "name": "flipClover",
      "outputs": [],
      "payable": false,
      "stateMutability": "nonpayable",
      "type": "function"
    },
    {
      "constant": true,
      "inputs": [
        {
          "name": "first32Moves",
          "type": "bytes28"
        },
        {
          "name": "lastMoves",
          "type": "bytes28"
        }
      ],
      "name": "gameIsValid",
      "outputs": [
        {
          "name": "",
          "type": "bool"
        }
      ],
      "payable": false,
      "stateMutability": "view",
      "type": "function"
    },
    {
      "constant": true,
      "inputs": [
        {
          "name": "first32Moves",
          "type": "bytes28"
        },
        {
          "name": "lastMoves",
          "type": "bytes28"
        }
      ],
      "name": "gameExists",
      "outputs": [
        {
          "name": "",
          "type": "bool"
        }
      ],
      "payable": false,
      "stateMutability": "view",
      "type": "function"
    },
    {
      "constant": false,
      "inputs": [
        {
          "name": "first32Moves",
          "type": "bytes28"
        },
        {
          "name": "lastMoves",
          "type": "bytes28"
        }
      ],
      "name": "debugGame",
      "outputs": [],
      "payable": false,
      "stateMutability": "nonpayable",
      "type": "function"
    },
    {
      "constant": true,
      "inputs": [
        {
          "name": "first32Moves",
          "type": "bytes28"
        },
        {
          "name": "lastMoves",
          "type": "bytes28"
        }
      ],
      "name": "showGame",
      "outputs": [
        {
          "name": "error",
          "type": "bool"
        },
        {
          "name": "complete",
          "type": "bool"
        },
        {
          "name": "symmetrical",
          "type": "bool"
        },
        {
          "name": "RotSym",
          "type": "bool"
        },
        {
          "name": "Y0Sym",
          "type": "bool"
        },
        {
          "name": "X0Sym",
          "type": "bool"
        },
        {
          "name": "XYSym",
          "type": "bool"
        },
        {
          "name": "XnYSym",
          "type": "bool"
        }
      ],
      "payable": false,
      "stateMutability": "view",
      "type": "function"
    },
    {
      "constant": true,
      "inputs": [
        {
          "name": "first32Moves",
          "type": "bytes28"
        },
        {
          "name": "lastMoves",
          "type": "bytes28"
        }
      ],
      "name": "showGame2",
      "outputs": [
        {
          "name": "board",
          "type": "bytes16"
        },
        {
          "name": "blackScore",
          "type": "uint8"
        },
        {
          "name": "whiteScore",
          "type": "uint8"
        },
        {
          "name": "currentPlayer",
          "type": "uint8"
        },
        {
          "name": "moveKey",
          "type": "uint8"
        }
      ],
      "payable": false,
      "stateMutability": "view",
      "type": "function"
    },
    {
      "constant": true,
      "inputs": [
        {
          "name": "b",
          "type": "bytes16"
        }
      ],
      "name": "getSymmetry",
      "outputs": [
        {
          "name": "error",
          "type": "bool"
        },
        {
          "name": "complete",
          "type": "bool"
        },
        {
          "name": "symmetrical",
          "type": "bool"
        },
        {
          "name": "RotSym",
          "type": "bool"
        },
        {
          "name": "Y0Sym",
          "type": "bool"
        },
        {
          "name": "X0Sym",
          "type": "bool"
        },
        {
          "name": "XYSym",
          "type": "bool"
        },
        {
          "name": "XnYSym",
          "type": "bool"
        }
      ],
      "payable": false,
      "stateMutability": "view",
      "type": "function"
    },
    {
      "constant": true,
      "inputs": [
        {
          "name": "b",
          "type": "bytes16"
        }
      ],
      "name": "getFindersFee",
      "outputs": [
        {
          "name": "",
          "type": "uint256"
        }
      ],
      "payable": false,
      "stateMutability": "view",
      "type": "function"
    }
  ],
  "bytecode": "0x60606040526000600355600060045560646005556015600c556040805190810160405280600981526020017f436c7562546f6b656e0000000000000000000000000000000000000000000000815250600e90805190602001906200006592919062000212565b506040805190810160405280600381526020017fe299a70000000000000000000000000000000000000000000000000000000000815250600f9080519060200190620000b392919062000212565b503415620000c057600080fd5b6004546001819055506004546000803373ffffffffffffffffffffffffffffffffffffffff1673ffffffffffffffffffffffffffffffffffffffff168152602001908152602001600020819055506001601060003373ffffffffffffffffffffffffffffffffffffffff1673ffffffffffffffffffffffffffffffffffffffff16815260200190815260200160002060006101000a81548160ff021916908315150217905550601180548060010182816200017c919062000299565b9160005260206000209001600033909190916101000a81548173ffffffffffffffffffffffffffffffffffffffff021916908373ffffffffffffffffffffffffffffffffffffffff1602179055505033600d60006101000a81548173ffffffffffffffffffffffffffffffffffffffff021916908373ffffffffffffffffffffffffffffffffffffffff160217905550620002f0565b828054600181600116156101000203166002900490600052602060002090601f016020900481019282601f106200025557805160ff191683800117855562000286565b8280016001018555821562000286579182015b828111156200028557825182559160200191906001019062000268565b5b509050620002959190620002c8565b5090565b815481835581811511620002c357818360005260206000209182019101620002c29190620002c8565b5b505050565b620002ed91905b80821115620002e9576000816000905550600101620002cf565b5090565b90565b616d3580620003006000396000f300606060405260043610610293576000357c0100000000000000000000000000000000000000000000000000000000900463ffffffff16806306fd150a1461029857806306fdde031461032c578063095ea7b3146103ba5780630b0372fd1461041457806316746ed01461046257806318160ddd146104fb5780631eb7bc0d1461052457806323b872dd1461058757806326b85ee11461060057806329049fff146106555780632a1ad03f146106f05780632ff2e9dc14610753578063313ce5671461077c578063356a099c146107a55780633a9e69cb146107e4578063451ed1161461085d5780634821e60714610886578063519a337f146109615780635353a2d8146109d45780635ffe614614610a315780636262993414610a545780636577019114610a9e5780636618846314610ac75780636758803814610b2157806367b9bafc14610b735780636e0fc8bb14610bbd5780637048027514610c2a57806370a0823114610c635780637b3a838714610cb0578063851d3bf514610d2c5780638d1948c014610dd45780638da5cb5b14610e215780638f88236c14610e765780639327059214610ed957806395d89b4114610efc5780639769a84414610f8a578063a788bed014610fdd578063a9059cbb1461102a578063ade1523f14611084578063aff125f6146110c7578063b6db75a01461112a578063b8cfefa814611157578063baf4955d1461121f578063bbe52300146112be578063cb2f489e1461130f578063d42eccbd14611338578063d73dd6231461136e578063dd62ed3e146113c8578063df9073fa14611434578063e2eb41ff1461146e578063f69ce266146114c6578063f8b2cb4f14611572578063fb9fced6146115bf578063fedd6c7714611611578063fffcf9a81461166e575b600080fd5b34156102a357600080fd5b6102cc60048080356fffffffffffffffffffffffffffffffff1916906020019091905050611711565b60405180881515151581526020018763ffffffff191663ffffffff191681526020018663ffffffff191663ffffffff1916815260200185815260200184815260200183815260200182815260200197505050505050505060405180910390f35b341561033757600080fd5b61033f611782565b6040518080602001828103825283818151815260200191508051906020019080838360005b8381101561037f578082015181840152602081019050610364565b50505050905090810190601f1680156103ac5780820380516001836020036101000a031916815260200191505b509250505060405180910390f35b34156103c557600080fd5b6103fa600480803573ffffffffffffffffffffffffffffffffffffffff16906020019091908035906020019091905050611820565b604051808215151515815260200191505060405180910390f35b341561041f57600080fd5b61044860048080356fffffffffffffffffffffffffffffffff1916906020019091905050611912565b604051808215151515815260200191505060405180910390f35b341561046d57600080fd5b61048c6004808035906020019091908035906020019091905050611965565b60405180836fffffffffffffffffffffffffffffffff19166fffffffffffffffffffffffffffffffff191681526020018273ffffffffffffffffffffffffffffffffffffffff1673ffffffffffffffffffffffffffffffffffffffff1681526020019250505060405180910390f35b341561050657600080fd5b61050e611a85565b6040518082815260200191505060405180910390f35b341561052f57600080fd5b6105456004808035906020019091905050611a8f565b604051808273ffffffffffffffffffffffffffffffffffffffff1673ffffffffffffffffffffffffffffffffffffffff16815260200191505060405180910390f35b341561059257600080fd5b6105e6600480803573ffffffffffffffffffffffffffffffffffffffff1690602001909190803573ffffffffffffffffffffffffffffffffffffffff16906020019091908035906020019091905050611ad3565b604051808215151515815260200191505060405180910390f35b341561060b57600080fd5b610613611e8d565b604051808273ffffffffffffffffffffffffffffffffffffffff1673ffffffffffffffffffffffffffffffffffffffff16815260200191505060405180910390f35b341561066057600080fd5b61068960048080356fffffffffffffffffffffffffffffffff1916906020019091905050611e95565b6040518089151515158152602001881515151581526020018715151515815260200186151515158152602001851515151581526020018415151515815260200183151515158152602001821515151581526020019850505050505050505060405180910390f35b34156106fb57600080fd5b6107116004808035906020019091905050611f0c565b604051808273ffffffffffffffffffffffffffffffffffffffff1673ffffffffffffffffffffffffffffffffffffffff16815260200191505060405180910390f35b341561075e57600080fd5b610766611f50565b6040518082815260200191505060405180910390f35b341561078757600080fd5b61078f611f56565b6040518082815260200191505060405180910390f35b34156107b057600080fd5b6107e260048080356fffffffffffffffffffffffffffffffff1916906020019091908035906020019091905050611f5c565b005b34156107ef57600080fd5b61085b60048080356fffffffffffffffffffffffffffffffff191690602001909190803590602001908201803590602001908080601f016020809104026020016040519081016040528093929190818152602001838380828437820191505050505050919050506122ac565b005b341561086857600080fd5b6108706124d1565b6040518082815260200191505060405180910390f35b341561089157600080fd5b6108ba60048080356fffffffffffffffffffffffffffffffff19169060200190919050506124de565b60405180876fffffffffffffffffffffffffffffffff19166fffffffffffffffffffffffffffffffff191681526020018681526020018581526020018473ffffffffffffffffffffffffffffffffffffffff1673ffffffffffffffffffffffffffffffffffffffff1681526020018363ffffffff191663ffffffff191681526020018263ffffffff191663ffffffff19168152602001965050505050505060405180910390f35b341561096c57600080fd5b6109be600480803563ffffffff191690602001909190803563ffffffff19169060200190919080356fffffffffffffffffffffffffffffffff1916906020019091908035906020019091905050612724565b6040518082815260200191505060405180910390f35b34156109df57600080fd5b610a2f600480803590602001908201803590602001908080601f01602080910402602001604051908101604052809392919081815260200183838082843782019150505050505091905050612d8f565b005b3415610a3c57600080fd5b610a526004808035906020019091905050612e72565b005b3415610a5f57600080fd5b610a8860048080356fffffffffffffffffffffffffffffffff1916906020019091905050612ed4565b6040518082815260200191505060405180910390f35b3415610aa957600080fd5b610ab1612f2d565b6040518082815260200191505060405180910390f35b3415610ad257600080fd5b610b07600480803573ffffffffffffffffffffffffffffffffffffffff16906020019091908035906020019091905050612f3a565b604051808215151515815260200191505060405180910390f35b3415610b2c57600080fd5b610b59600480803563ffffffff191690602001909190803563ffffffff19169060200190919050506131cb565b604051808215151515815260200191505060405180910390f35b3415610b7e57600080fd5b610ba760048080356fffffffffffffffffffffffffffffffff1916906020019091905050613228565b6040518082815260200191505060405180910390f35b3415610bc857600080fd5b610c10600480803573ffffffffffffffffffffffffffffffffffffffff169060200190919080356fffffffffffffffffffffffffffffffff19169060200190919050506132c8565b604051808215151515815260200191505060405180910390f35b3415610c3557600080fd5b610c61600480803573ffffffffffffffffffffffffffffffffffffffff16906020019091905050613359565b005b3415610c6e57600080fd5b610c9a600480803573ffffffffffffffffffffffffffffffffffffffff169060200190919050506134c7565b6040518082815260200191505060405180910390f35b3415610cbb57600080fd5b610cf0600480803573ffffffffffffffffffffffffffffffffffffffff1690602001909190803590602001909190505061350f565b60405180826fffffffffffffffffffffffffffffffff19166fffffffffffffffffffffffffffffffff1916815260200191505060405180910390f35b3415610d3757600080fd5b610d64600480803563ffffffff191690602001909190803563ffffffff191690602001909190505061359b565b60405180866fffffffffffffffffffffffffffffffff19166fffffffffffffffffffffffffffffffff191681526020018560ff1660ff1681526020018460ff1660ff1681526020018360ff1660ff1681526020018260ff1660ff1681526020019550505050505060405180910390f35b3415610ddf57600080fd5b610e0b600480803573ffffffffffffffffffffffffffffffffffffffff169060200190919050506135ea565b6040518082815260200191505060405180910390f35b3415610e2c57600080fd5b610e34613639565b604051808273ffffffffffffffffffffffffffffffffffffffff1673ffffffffffffffffffffffffffffffffffffffff16815260200191505060405180910390f35b3415610e8157600080fd5b610e97600480803590602001909190505061365f565b604051808273ffffffffffffffffffffffffffffffffffffffff1673ffffffffffffffffffffffffffffffffffffffff16815260200191505060405180910390f35b3415610ee457600080fd5b610efa600480803590602001909190505061369e565b005b3415610f0757600080fd5b610f0f613700565b6040518080602001828103825283818151815260200191508051906020019080838360005b83811015610f4f578082015181840152602081019050610f34565b50505050905090810190601f168015610f7c5780820380516001836020036101000a031916815260200191505b509250505060405180910390f35b3415610f9557600080fd5b610f9d61379e565b6040518088815260200187815260200186815260200185815260200184815260200183815260200182815260200197505050505050505060405180910390f35b3415610fe857600080fd5b611014600480803573ffffffffffffffffffffffffffffffffffffffff169060200190919050506137d5565b6040518082815260200191505060405180910390f35b341561103557600080fd5b61106a600480803573ffffffffffffffffffffffffffffffffffffffff16906020019091908035906020019091905050613821565b604051808215151515815260200191505060405180910390f35b341561108f57600080fd5b6110c5600480803563ffffffff191690602001909190803563ffffffff1916906020019091908035906020019091905050613a40565b005b34156110d257600080fd5b6110e86004808035906020019091905050613a65565b604051808273ffffffffffffffffffffffffffffffffffffffff1673ffffffffffffffffffffffffffffffffffffffff16815260200191505060405180910390f35b341561113557600080fd5b61113d613aa4565b604051808215151515815260200191505060405180910390f35b341561116257600080fd5b6111786004808035906020019091905050613af8565b60405180876fffffffffffffffffffffffffffffffff19166fffffffffffffffffffffffffffffffff191681526020018681526020018581526020018473ffffffffffffffffffffffffffffffffffffffff1673ffffffffffffffffffffffffffffffffffffffff1681526020018363ffffffff191663ffffffff191681526020018263ffffffff191663ffffffff19168152602001965050505050505060405180910390f35b341561122a57600080fd5b611257600480803563ffffffff191690602001909190803563ffffffff1916906020019091905050613b66565b6040518089151515158152602001881515151581526020018715151515815260200186151515158152602001851515151581526020018415151515815260200183151515158152602001821515151581526020019850505050505050505060405180910390f35b34156112c957600080fd5b6112f5600480803573ffffffffffffffffffffffffffffffffffffffff16906020019091905050613bad565b604051808215151515815260200191505060405180910390f35b341561131a57600080fd5b611322613c06565b6040518082815260200191505060405180910390f35b341561134357600080fd5b61136c60048080356fffffffffffffffffffffffffffffffff1916906020019091905050613c13565b005b341561137957600080fd5b6113ae600480803573ffffffffffffffffffffffffffffffffffffffff169060200190919080359060200190919050506144d5565b604051808215151515815260200191505060405180910390f35b34156113d357600080fd5b61141e600480803573ffffffffffffffffffffffffffffffffffffffff1690602001909190803573ffffffffffffffffffffffffffffffffffffffff169060200190919050506146d1565b6040518082815260200191505060405180910390f35b341561143f57600080fd5b61146c600480803563ffffffff191690602001909190803563ffffffff1916906020019091905050614758565b005b341561147957600080fd5b6114a5600480803573ffffffffffffffffffffffffffffffffffffffff16906020019091905050614771565b60405180831515151581526020018281526020019250505060405180910390f35b34156114d157600080fd5b61150360048080356fffffffffffffffffffffffffffffffff19169060200190919080359060200190919050506147a2565b60405180836fffffffffffffffffffffffffffffffff19166fffffffffffffffffffffffffffffffff191681526020018273ffffffffffffffffffffffffffffffffffffffff1673ffffffffffffffffffffffffffffffffffffffff1681526020019250505060405180910390f35b341561157d57600080fd5b6115a9600480803573ffffffffffffffffffffffffffffffffffffffff1690602001909190505061487d565b6040518082815260200191505060405180910390f35b34156115ca57600080fd5b6115f7600480803563ffffffff191690602001909190803563ffffffff19169060200190919050506148c5565b604051808215151515815260200191505060405180910390f35b341561161c57600080fd5b6116326004808035906020019091905050614952565b60405180826fffffffffffffffffffffffffffffffff19166fffffffffffffffffffffffffffffffff1916815260200191505060405180910390f35b341561167957600080fd5b6116a260048080356fffffffffffffffffffffffffffffffff1916906020019091905050614998565b60405180836fffffffffffffffffffffffffffffffff19166fffffffffffffffffffffffffffffffff191681526020018273ffffffffffffffffffffffffffffffffffffffff1673ffffffffffffffffffffffffffffffffffffffff1681526020019250505060405180910390f35b60146020528060005260406000206000915090508060000160009054906101000a900460ff16908060000160019054906101000a900464010000000002908060010160009054906101000a900464010000000002908060020154908060030154908060040154908060050154905087565b600e8054600181600116156101000203166002900480601f0160208091040260200160405190810160405280929190818152602001828054600181600116156101000203166002900480156118185780601f106117ed57610100808354040283529160200191611818565b820191906000526020600020905b8154815290600101906020018083116117fb57829003601f168201915b505050505081565b600081600260003373ffffffffffffffffffffffffffffffffffffffff1673ffffffffffffffffffffffffffffffffffffffff16815260200190815260200160002060008573ffffffffffffffffffffffffffffffffffffffff1673ffffffffffffffffffffffffffffffffffffffff168152602001908152602001600020819055508273ffffffffffffffffffffffffffffffffffffffff163373ffffffffffffffffffffffffffffffffffffffff167f8c5be1e5ebec7d5bd14f71427d1e84f3dd0314c0f7b2291e5b200ac8c7c3b925846040518082815260200191505060405180910390a36001905092915050565b600060146000836fffffffffffffffffffffffffffffffff19166fffffffffffffffffffffffffffffffff1916815260200190815260200160002060000160009054906101000a900460ff169050919050565b600080600060158581548110151561197957fe5b90600052602060002090600291828204019190066010029054906101000a900470010000000000000000000000000000000002905060146000826fffffffffffffffffffffffffffffffff19166fffffffffffffffffffffffffffffffff1916815260200190815260200160002060000160009054906101000a900460ff161515611a0357600080fd5b8060146000836fffffffffffffffffffffffffffffffff19166fffffffffffffffffffffffffffffffff1916815260200190815260200160002060060185815481101515611a4d57fe5b906000526020600020900160009054906101000a900473ffffffffffffffffffffffffffffffffffffffff1692509250509250929050565b6000600154905090565b6000601382815481101515611aa057fe5b906000526020600020900160009054906101000a900473ffffffffffffffffffffffffffffffffffffffff169050919050565b60008073ffffffffffffffffffffffffffffffffffffffff168373ffffffffffffffffffffffffffffffffffffffff1614151515611b1057600080fd5b6000808573ffffffffffffffffffffffffffffffffffffffff1673ffffffffffffffffffffffffffffffffffffffff168152602001908152602001600020548211151515611b5d57600080fd5b600260008573ffffffffffffffffffffffffffffffffffffffff1673ffffffffffffffffffffffffffffffffffffffff16815260200190815260200160002060003373ffffffffffffffffffffffffffffffffffffffff1673ffffffffffffffffffffffffffffffffffffffff168152602001908152602001600020548211151515611be857600080fd5b611c39826000808773ffffffffffffffffffffffffffffffffffffffff1673ffffffffffffffffffffffffffffffffffffffff16815260200190815260200160002054614ab390919063ffffffff16565b6000808673ffffffffffffffffffffffffffffffffffffffff1673ffffffffffffffffffffffffffffffffffffffff16815260200190815260200160002081905550611ccc826000808673ffffffffffffffffffffffffffffffffffffffff1673ffffffffffffffffffffffffffffffffffffffff16815260200190815260200160002054614acc90919063ffffffff16565b6000808573ffffffffffffffffffffffffffffffffffffffff1673ffffffffffffffffffffffffffffffffffffffff16815260200190815260200160002081905550611d9d82600260008773ffffffffffffffffffffffffffffffffffffffff1673ffffffffffffffffffffffffffffffffffffffff16815260200190815260200160002060003373ffffffffffffffffffffffffffffffffffffffff1673ffffffffffffffffffffffffffffffffffffffff16815260200190815260200160002054614ab390919063ffffffff16565b600260008673ffffffffffffffffffffffffffffffffffffffff1673ffffffffffffffffffffffffffffffffffffffff16815260200190815260200160002060003373ffffffffffffffffffffffffffffffffffffffff1673ffffffffffffffffffffffffffffffffffffffff168152602001908152602001600020819055508273ffffffffffffffffffffffffffffffffffffffff168473ffffffffffffffffffffffffffffffffffffffff167fddf252ad1be2c89b69c2b068fc378daa952ba7f163c4a11628f55a4df523b3ef846040518082815260200191505060405180910390a3600190509392505050565b600033905090565b600080600080600080600080611ea9616ac6565b898161010001906fffffffffffffffffffffffffffffffff191690816fffffffffffffffffffffffffffffffff191681525050611ee581614aea565b9050611ef081614de2565b9850985098509850985098509850985050919395975091939597565b6000601182815481101515611f1d57fe5b906000526020600020900160009054906101000a900473ffffffffffffffffffffffffffffffffffffffff169050919050565b60045481565b60035481565b8160146000826fffffffffffffffffffffffffffffffff19166fffffffffffffffffffffffffffffffff1916815260200190815260200160002060000160009054906101000a900460ff161515611fb257600080fd5b3373ffffffffffffffffffffffffffffffffffffffff1660146000856fffffffffffffffffffffffffffffffff19166fffffffffffffffffffffffffffffffff19168152602001908152602001600020600601600081548110151561201357fe5b906000526020600020900160009054906101000a900473ffffffffffffffffffffffffffffffffffffffff1673ffffffffffffffffffffffffffffffffffffffff1614151561206157600080fd5b600160146000856fffffffffffffffffffffffffffffffff19166fffffffffffffffffffffffffffffffff191681526020019081526020016000206006018054905011156120ae57600080fd5b7f5c3b20386cb190ab356d48388402e550e47af17282ac5ac49df339be5376a980338385600160146000896fffffffffffffffffffffffffffffffff19166fffffffffffffffffffffffffffffffff1916815260200190815260200160002060000160019054906101000a900464010000000002601460008a6fffffffffffffffffffffffffffffffff19166fffffffffffffffffffffffffffffffff1916815260200190815260200160002060010160009054906101000a90046401000000000242601460008c6fffffffffffffffffffffffffffffffff19166fffffffffffffffffffffffffffffffff1916815260200190815260200160002060030154604051808973ffffffffffffffffffffffffffffffffffffffff1673ffffffffffffffffffffffffffffffffffffffff168152602001888152602001876fffffffffffffffffffffffffffffffff19166fffffffffffffffffffffffffffffffff19168152602001861515151581526020018563ffffffff191663ffffffff191681526020018463ffffffff191663ffffffff191681526020018381526020018281526020019850505050505050505060405180910390a18160146000856fffffffffffffffffffffffffffffffff19166fffffffffffffffffffffffffffffffff1916815260200190815260200160002060020181905550505050565b8160146000826fffffffffffffffffffffffffffffffff19166fffffffffffffffffffffffffffffffff1916815260200190815260200160002060000160009054906101000a900460ff16151561230257600080fd5b600c548251111561231257600080fd5b3373ffffffffffffffffffffffffffffffffffffffff1660146000856fffffffffffffffffffffffffffffffff19166fffffffffffffffffffffffffffffffff19168152602001908152602001600020600601600160146000876fffffffffffffffffffffffffffffffff19166fffffffffffffffffffffffffffffffff1916815260200190815260200160002060060180549050038154811015156123b457fe5b906000526020600020900160009054906101000a900473ffffffffffffffffffffffffffffffffffffffff1673ffffffffffffffffffffffffffffffffffffffff1614151561240257600080fd5b7f928915afa2256c97955fd7735e2e6ba6d453eb09e7d91e5b03467b5934cca384838360405180836fffffffffffffffffffffffffffffffff19166fffffffffffffffffffffffffffffffff1916815260200180602001828103825283818151815260200191508051906020019080838360005b83811015612491578082015181840152602081019050612476565b50505050905090810190601f1680156124be5780820380516001836020036101000a031916815260200191505b50935050505060405180910390a1505050565b6000601380549050905090565b6000806000806000808660146000826fffffffffffffffffffffffffffffffff19166fffffffffffffffffffffffffffffffff1916815260200190815260200160002060000160009054906101000a900460ff16151561253d57600080fd5b87601460008a6fffffffffffffffffffffffffffffffff19166fffffffffffffffffffffffffffffffff1916815260200190815260200160002060020154601460008b6fffffffffffffffffffffffffffffffff19166fffffffffffffffffffffffffffffffff1916815260200190815260200160002060060180549050601460008c6fffffffffffffffffffffffffffffffff19166fffffffffffffffffffffffffffffffff191681526020019081526020016000206006016001601460008e6fffffffffffffffffffffffffffffffff19166fffffffffffffffffffffffffffffffff19168152602001908152602001600020600601805490500381548110151561264657fe5b906000526020600020900160009054906101000a900473ffffffffffffffffffffffffffffffffffffffff16601460008d6fffffffffffffffffffffffffffffffff19166fffffffffffffffffffffffffffffffff1916815260200190815260200160002060000160019054906101000a900464010000000002601460008e6fffffffffffffffffffffffffffffffff19166fffffffffffffffffffffffffffffffff1916815260200190815260200160002060010160009054906101000a9004640100000000029650965096509650965096505091939550919395565b600061272e616ac6565b8360146000826fffffffffffffffffffffffffffffffff19166fffffffffffffffffffffffffffffffff1916815260200190815260200160002060000160009054906101000a900460ff161561278357600080fd5b601060003373ffffffffffffffffffffffffffffffffffffffff1673ffffffffffffffffffffffffffffffffffffffff16815260200190815260200160002060009054906101000a900460ff1615156127db57600080fd5b6127e3614e31565b6127f1826101000151614f48565b848261010001906fffffffffffffffffffffffffffffffff191690816fffffffffffffffffffffffffffffffff19168152505061282d82614aea565b91508160400151156129605761284282615163565b60146000876fffffffffffffffffffffffffffffffff19166fffffffffffffffffffffffffffffffff191681526020019081526020016000206003018190555060146000866fffffffffffffffffffffffffffffffff19166fffffffffffffffffffffffffffffffff19168152602001908152602001600020600301546000803373ffffffffffffffffffffffffffffffffffffffff1673ffffffffffffffffffffffffffffffffffffffff1681526020019081526020016000206000828254019250508190555060146000866fffffffffffffffffffffffffffffffff19166fffffffffffffffffffffffffffffffff191681526020019081526020016000206003015460016000828254019250508190555061295f82615303565b5b8660146000876fffffffffffffffffffffffffffffffff19166fffffffffffffffffffffffffffffffff1916815260200190815260200160002060000160016101000a8154817bffffffffffffffffffffffffffffffffffffffffffffffffffffffff0219169083640100000000900402179055508560146000876fffffffffffffffffffffffffffffffff19166fffffffffffffffffffffffffffffffff1916815260200190815260200160002060010160006101000a8154817bffffffffffffffffffffffffffffffffffffffffffffffffffffffff02191690836401000000009004021790555060146000866fffffffffffffffffffffffffffffffff19166fffffffffffffffffffffffffffffffff191681526020019081526020016000206006018054806001018281612a989190616b7a565b9160005260206000209001600033909190916101000a81548173ffffffffffffffffffffffffffffffffffffffff021916908373ffffffffffffffffffffffffffffffffffffffff160217905550508360146000876fffffffffffffffffffffffffffffffff19166fffffffffffffffffffffffffffffffff1916815260200190815260200160002060020181905550600160146000876fffffffffffffffffffffffffffffffff19166fffffffffffffffffffffffffffffffff1916815260200190815260200160002060000160006101000a81548160ff0219169083151502179055504260146000876fffffffffffffffffffffffffffffffff19166fffffffffffffffffffffffffffffffff19168152602001908152602001600020600401819055504260146000876fffffffffffffffffffffffffffffffff19166fffffffffffffffffffffffffffffffff19168152602001908152602001600020600501819055507f5c3b20386cb190ab356d48388402e550e47af17282ac5ac49df339be5376a98033858760018b8b42601460008e6fffffffffffffffffffffffffffffffff19166fffffffffffffffffffffffffffffffff1916815260200190815260200160002060030154604051808973ffffffffffffffffffffffffffffffffffffffff1673ffffffffffffffffffffffffffffffffffffffff168152602001888152602001876fffffffffffffffffffffffffffffffff19166fffffffffffffffffffffffffffffffff19168152602001861515151581526020018563ffffffff191663ffffffff191681526020018463ffffffff191663ffffffff191681526020018381526020018281526020019850505050505050505060405180910390a160158054806001018281612d319190616ba6565b916000526020600020906002918282040191900660100287909190916101000a8154816fffffffffffffffffffffffffffffffff02191690837001000000000000000000000000000000009004021790555092505050949350505050565b600c5481511115612d9f57600080fd5b7f51aba8153205aaff23cab0b32a552626c48b35cb38dfb3dd771bb435e63d17b53382604051808373ffffffffffffffffffffffffffffffffffffffff1673ffffffffffffffffffffffffffffffffffffffff16815260200180602001828103825283818151815260200191508051906020019080838360005b83811015612e34578082015181840152602081019050612e19565b50505050905090810190601f168015612e615780820380516001836020036101000a031916815260200191505b50935050505060405180910390a150565b601060003373ffffffffffffffffffffffffffffffffffffffff1673ffffffffffffffffffffffffffffffffffffffff16815260200190815260200160002060009054906101000a900460ff161515612eca57600080fd5b8060058190555050565b6000612ede616ac6565b828161010001906fffffffffffffffffffffffffffffffff191690816fffffffffffffffffffffffffffffffff191681525050612f1a81614aea565b9050612f2581615163565b915050919050565b6000601180549050905090565b600080600260003373ffffffffffffffffffffffffffffffffffffffff1673ffffffffffffffffffffffffffffffffffffffff16815260200190815260200160002060008573ffffffffffffffffffffffffffffffffffffffff1673ffffffffffffffffffffffffffffffffffffffff1681526020019081526020016000205490508083111561304b576000600260003373ffffffffffffffffffffffffffffffffffffffff1673ffffffffffffffffffffffffffffffffffffffff16815260200190815260200160002060008673ffffffffffffffffffffffffffffffffffffffff1673ffffffffffffffffffffffffffffffffffffffff168152602001908152602001600020819055506130df565b61305e8382614ab390919063ffffffff16565b600260003373ffffffffffffffffffffffffffffffffffffffff1673ffffffffffffffffffffffffffffffffffffffff16815260200190815260200160002060008673ffffffffffffffffffffffffffffffffffffffff1673ffffffffffffffffffffffffffffffffffffffff168152602001908152602001600020819055505b8373ffffffffffffffffffffffffffffffffffffffff163373ffffffffffffffffffffffffffffffffffffffff167f8c5be1e5ebec7d5bd14f71427d1e84f3dd0314c0f7b2291e5b200ac8c7c3b925600260003373ffffffffffffffffffffffffffffffffffffffff1673ffffffffffffffffffffffffffffffffffffffff16815260200190815260200160002060008873ffffffffffffffffffffffffffffffffffffffff1673ffffffffffffffffffffffffffffffffffffffff168152602001908152602001600020546040518082815260200191505060405180910390a3600191505092915050565b60006131d5616ac6565b6131df84846153ae565b90508060000151156131f45760009150613221565b806020015115156132085760009150613221565b8060400151151561321c5760009150613221565b600191505b5092915050565b60008160146000826fffffffffffffffffffffffffffffffff19166fffffffffffffffffffffffffffffffff1916815260200190815260200160002060000160009054906101000a900460ff16151561328057600080fd5b60146000846fffffffffffffffffffffffffffffffff19166fffffffffffffffffffffffffffffffff1916815260200190815260200160002060060180549050915050919050565b6000601260008473ffffffffffffffffffffffffffffffffffffffff1673ffffffffffffffffffffffffffffffffffffffff1681526020019081526020016000206003016000836fffffffffffffffffffffffffffffffff19166fffffffffffffffffffffffffffffffff1916815260200190815260200160002060009054906101000a900460ff16905092915050565b601060003373ffffffffffffffffffffffffffffffffffffffff1673ffffffffffffffffffffffffffffffffffffffff16815260200190815260200160002060009054906101000a900460ff1615156133b157600080fd5b601060003373ffffffffffffffffffffffffffffffffffffffff1673ffffffffffffffffffffffffffffffffffffffff16815260200190815260200160002060009054906101000a900460ff16151561340957600080fd5b6001601060008373ffffffffffffffffffffffffffffffffffffffff1673ffffffffffffffffffffffffffffffffffffffff16815260200190815260200160002060006101000a81548160ff021916908315150217905550601180548060010182816134759190616b7a565b9160005260206000209001600083909190916101000a81548173ffffffffffffffffffffffffffffffffffffffff021916908373ffffffffffffffffffffffffffffffffffffffff1602179055505050565b60008060008373ffffffffffffffffffffffffffffffffffffffff1673ffffffffffffffffffffffffffffffffffffffff168152602001908152602001600020549050919050565b6000601260008473ffffffffffffffffffffffffffffffffffffffff1673ffffffffffffffffffffffffffffffffffffffff1681526020019081526020016000206002018281548110151561356057fe5b90600052602060002090600291828204019190066010029054906101000a900470010000000000000000000000000000000002905092915050565b60008060008060006135ab616ac6565b6135b588886153ae565b9050806101000151816101a00151826101c0015183610160015184610180015195509550955095509550509295509295909350565b6000601260008373ffffffffffffffffffffffffffffffffffffffff1673ffffffffffffffffffffffffffffffffffffffff168152602001908152602001600020600201805490509050919050565b600d60009054906101000a900473ffffffffffffffffffffffffffffffffffffffff1681565b60138181548110151561366e57fe5b90600052602060002090016000915054906101000a900473ffffffffffffffffffffffffffffffffffffffff1681565b601060003373ffffffffffffffffffffffffffffffffffffffff1673ffffffffffffffffffffffffffffffffffffffff16815260200190815260200160002060009054906101000a900460ff1615156136f657600080fd5b80600c8190555050565b600f8054600181600116156101000203166002900480601f0160208091040260200160405190810160405280929190818152602001828054600181600116156101000203166002900480156137965780601f1061376b57610100808354040283529160200191613796565b820191906000526020600020905b81548152906001019060200180831161377957829003601f168201915b505050505081565b6000806000806000806000600654600754600854600954600a54600b54600554965096509650965096509650965090919293949596565b6000601260008373ffffffffffffffffffffffffffffffffffffffff1673ffffffffffffffffffffffffffffffffffffffff168152602001908152602001600020600101549050919050565b60008073ffffffffffffffffffffffffffffffffffffffff168373ffffffffffffffffffffffffffffffffffffffff161415151561385e57600080fd5b6000803373ffffffffffffffffffffffffffffffffffffffff1673ffffffffffffffffffffffffffffffffffffffff1681526020019081526020016000205482111515156138ab57600080fd5b6138fc826000803373ffffffffffffffffffffffffffffffffffffffff1673ffffffffffffffffffffffffffffffffffffffff16815260200190815260200160002054614ab390919063ffffffff16565b6000803373ffffffffffffffffffffffffffffffffffffffff1673ffffffffffffffffffffffffffffffffffffffff1681526020019081526020016000208190555061398f826000808673ffffffffffffffffffffffffffffffffffffffff1673ffffffffffffffffffffffffffffffffffffffff16815260200190815260200160002054614acc90919063ffffffff16565b6000808573ffffffffffffffffffffffffffffffffffffffff1673ffffffffffffffffffffffffffffffffffffffff168152602001908152602001600020819055508273ffffffffffffffffffffffffffffffffffffffff163373ffffffffffffffffffffffffffffffffffffffff167fddf252ad1be2c89b69c2b068fc378daa952ba7f163c4a11628f55a4df523b3ef846040518082815260200191505060405180910390a36001905092915050565b613a48616ac6565b613a5284846153ae565b9050613a5e818361567b565b5050505050565b601181815481101515613a7457fe5b90600052602060002090016000915054906101000a900473ffffffffffffffffffffffffffffffffffffffff1681565b6000601060003373ffffffffffffffffffffffffffffffffffffffff1673ffffffffffffffffffffffffffffffffffffffff16815260200190815260200160002060009054906101000a900460ff16905090565b6000806000806000806000601588815481101515613b1257fe5b90600052602060002090600291828204019190066010029054906101000a9004700100000000000000000000000000000000029050613b50816124de565b9650965096509650965096505091939550919395565b600080600080600080600080613b7a616ac6565b613b848b8b6153ae565b9050613b8f81614de2565b98509850985098509850985098509850509295985092959890939650565b6000601260008373ffffffffffffffffffffffffffffffffffffffff1673ffffffffffffffffffffffffffffffffffffffff16815260200190815260200160002060000160009054906101000a900460ff169050919050565b6000601580549050905090565b6000806000808460146000826fffffffffffffffffffffffffffffffff19166fffffffffffffffffffffffffffffffff1916815260200190815260200160002060000160009054906101000a900460ff161515613c6f57600080fd5b3373ffffffffffffffffffffffffffffffffffffffff1660146000886fffffffffffffffffffffffffffffffff19166fffffffffffffffffffffffffffffffff191681526020019081526020016000206006016001601460008a6fffffffffffffffffffffffffffffffff19166fffffffffffffffffffffffffffffffff191681526020019081526020016000206006018054905003815481101515613d1157fe5b906000526020600020900160009054906101000a900473ffffffffffffffffffffffffffffffffffffffff1673ffffffffffffffffffffffffffffffffffffffff161415613d5e57600080fd5b600160146000886fffffffffffffffffffffffffffffffff19166fffffffffffffffffffffffffffffffff191681526020019081526020016000206006018054905014613dfa57613df5600260146000896fffffffffffffffffffffffffffffffff19166fffffffffffffffffffffffffffffffff1916815260200190815260200160002060020154615cbc90919063ffffffff16565b613e38565b60146000876fffffffffffffffffffffffffffffffff19166fffffffffffffffffffffffffffffffff19168152602001908152602001600020600201545b9450846000803373ffffffffffffffffffffffffffffffffffffffff1673ffffffffffffffffffffffffffffffffffffffff168152602001908152602001600020541015613e8557600080fd5b613e8d614e31565b600193505b60038460ff1610156141b15760146000876fffffffffffffffffffffffffffffffff19166fffffffffffffffffffffffffffffffff19168152602001908152602001600020600601805490508460ff161115156141a4578360ff1660146000886fffffffffffffffffffffffffffffffff19166fffffffffffffffffffffffffffffffff191681526020019081526020016000206006018054905003925060146000876fffffffffffffffffffffffffffffffff19166fffffffffffffffffffffffffffffffff1916815260200190815260200160002060060183815481101515613f7957fe5b906000526020600020900160009054906101000a900473ffffffffffffffffffffffffffffffffffffffff16915061403460146000886fffffffffffffffffffffffffffffffff19166fffffffffffffffffffffffffffffffff19168152602001908152602001600020600201546000803373ffffffffffffffffffffffffffffffffffffffff1673ffffffffffffffffffffffffffffffffffffffff16815260200190815260200160002054614ab390919063ffffffff16565b6000803373ffffffffffffffffffffffffffffffffffffffff1673ffffffffffffffffffffffffffffffffffffffff1681526020019081526020016000208190555061410360146000886fffffffffffffffffffffffffffffffff19166fffffffffffffffffffffffffffffffff19168152602001908152602001600020600201546000808573ffffffffffffffffffffffffffffffffffffffff1673ffffffffffffffffffffffffffffffffffffffff16815260200190815260200160002054614acc90919063ffffffff16565b6000808473ffffffffffffffffffffffffffffffffffffffff1673ffffffffffffffffffffffffffffffffffffffff1681526020019081526020016000208190555060018460ff1614156141a3576001601260008473ffffffffffffffffffffffffffffffffffffffff1673ffffffffffffffffffffffffffffffffffffffff168152602001908152602001600020600101600082825403925050819055505b5b8380600101945050613e92565b6141ba86614f48565b60146000876fffffffffffffffffffffffffffffffff19166fffffffffffffffffffffffffffffffff1916815260200190815260200160002060060180548060010182816142089190616b7a565b9160005260206000209001600033909190916101000a81548173ffffffffffffffffffffffffffffffffffffffff021916908373ffffffffffffffffffffffffffffffffffffffff160217905550508460146000886fffffffffffffffffffffffffffffffff19166fffffffffffffffffffffffffffffffff19168152602001908152602001600020600201819055504260146000886fffffffffffffffffffffffffffffffff19166fffffffffffffffffffffffffffffffff19168152602001908152602001600020600501819055507f5c3b20386cb190ab356d48388402e550e47af17282ac5ac49df339be5376a9803386886000601460008c6fffffffffffffffffffffffffffffffff19166fffffffffffffffffffffffffffffffff1916815260200190815260200160002060000160019054906101000a900464010000000002601460008d6fffffffffffffffffffffffffffffffff19166fffffffffffffffffffffffffffffffff1916815260200190815260200160002060010160009054906101000a900464010000000002601460008e6fffffffffffffffffffffffffffffffff19166fffffffffffffffffffffffffffffffff1916815260200190815260200160002060050154601460008f6fffffffffffffffffffffffffffffffff19166fffffffffffffffffffffffffffffffff1916815260200190815260200160002060030154604051808973ffffffffffffffffffffffffffffffffffffffff1673ffffffffffffffffffffffffffffffffffffffff168152602001888152602001876fffffffffffffffffffffffffffffffff19166fffffffffffffffffffffffffffffffff19168152602001861515151581526020018563ffffffff191663ffffffff191681526020018463ffffffff191663ffffffff191681526020018381526020018281526020019850505050505050505060405180910390a1505050505050565b600061456682600260003373ffffffffffffffffffffffffffffffffffffffff1673ffffffffffffffffffffffffffffffffffffffff16815260200190815260200160002060008673ffffffffffffffffffffffffffffffffffffffff1673ffffffffffffffffffffffffffffffffffffffff16815260200190815260200160002054614acc90919063ffffffff16565b600260003373ffffffffffffffffffffffffffffffffffffffff1673ffffffffffffffffffffffffffffffffffffffff16815260200190815260200160002060008573ffffffffffffffffffffffffffffffffffffffff1673ffffffffffffffffffffffffffffffffffffffff168152602001908152602001600020819055508273ffffffffffffffffffffffffffffffffffffffff163373ffffffffffffffffffffffffffffffffffffffff167f8c5be1e5ebec7d5bd14f71427d1e84f3dd0314c0f7b2291e5b200ac8c7c3b925600260003373ffffffffffffffffffffffffffffffffffffffff1673ffffffffffffffffffffffffffffffffffffffff16815260200190815260200160002060008773ffffffffffffffffffffffffffffffffffffffff1673ffffffffffffffffffffffffffffffffffffffff168152602001908152602001600020546040518082815260200191505060405180910390a36001905092915050565b6000600260008473ffffffffffffffffffffffffffffffffffffffff1673ffffffffffffffffffffffffffffffffffffffff16815260200190815260200160002060008373ffffffffffffffffffffffffffffffffffffffff1673ffffffffffffffffffffffffffffffffffffffff16815260200190815260200160002054905092915050565b614760616ac6565b61476a83836153ae565b9050505050565b60126020528060005260406000206000915090508060000160009054906101000a900460ff16908060010154905082565b6000808360146000826fffffffffffffffffffffffffffffffff19166fffffffffffffffffffffffffffffffff1916815260200190815260200160002060000160009054906101000a900460ff1615156147fb57600080fd5b8460146000876fffffffffffffffffffffffffffffffff19166fffffffffffffffffffffffffffffffff191681526020019081526020016000206006018581548110151561484557fe5b906000526020600020900160009054906101000a900473ffffffffffffffffffffffffffffffffffffffff1692509250509250929050565b60008060008373ffffffffffffffffffffffffffffffffffffffff1673ffffffffffffffffffffffffffffffffffffffff168152602001908152602001600020549050919050565b60006148cf616ac6565b6148d984846153ae565b90508060000151156148ea57600080fd5b806020015115156148fa57600080fd5b601460008261010001516fffffffffffffffffffffffffffffffff19166fffffffffffffffffffffffffffffffff1916815260200190815260200160002060000160009054906101000a900460ff1691505092915050565b60158181548110151561496157fe5b9060005260206000209060029182820401919006601002915054906101000a90047001000000000000000000000000000000000281565b6000808260146000826fffffffffffffffffffffffffffffffff19166fffffffffffffffffffffffffffffffff1916815260200190815260200160002060000160009054906101000a900460ff1615156149f157600080fd5b8360146000866fffffffffffffffffffffffffffffffff19166fffffffffffffffffffffffffffffffff19168152602001908152602001600020600601600160146000886fffffffffffffffffffffffffffffffff19166fffffffffffffffffffffffffffffffff191681526020019081526020016000206006018054905003815481101515614a7d57fe5b906000526020600020900160009054906101000a900473ffffffffffffffffffffffffffffffffffffffff169250925050915091565b6000828211151515614ac157fe5b818303905092915050565b6000808284019050838110151515614ae057fe5b8091505092915050565b614af2616ac6565b60008060008060008060006001965060019550600194506001935060019250600091505b60088260ff16108015614b4657508680614b2d5750855b80614b355750845b80614b3d5750835b80614b455750825b5b15614d4b57600090505b60088160ff16108015614b8057508680614b675750855b80614b6f5750845b80614b775750835b80614b7f5750825b5b15614d3e57614b9b8961010001518360070383600703615cf7565b6fffffffffffffffffffffffffffffffff1916614bbe8a61010001518484615cf7565b6fffffffffffffffffffffffffffffffff1916141515614bdd57600096505b614bf08961010001518383600703615cf7565b6fffffffffffffffffffffffffffffffff1916614c138a61010001518484615cf7565b6fffffffffffffffffffffffffffffffff1916141515614c3257600095505b614c458961010001518360070383615cf7565b6fffffffffffffffffffffffffffffffff1916614c688a61010001518484615cf7565b6fffffffffffffffffffffffffffffffff1916141515614c8757600094505b614c9d8961010001518260070384600703615cf7565b6fffffffffffffffffffffffffffffffff1916614cc08a61010001518484615cf7565b6fffffffffffffffffffffffffffffffff1916141515614cdf57600093505b614cef8961010001518284615cf7565b6fffffffffffffffffffffffffffffffff1916614d128a61010001518484615cf7565b6fffffffffffffffffffffffffffffffff1916141515614d3157600092505b8080600101915050614b50565b8180600101925050614b16565b8680614d545750855b80614d5c5750845b80614d645750835b80614d6c5750825b15614dd35760018960400190151590811515815250508689606001901515908115158152505085896080019015159081151581525050848960a0019015159081151581525050838960c0019015159081151581525050828960e00190151590811515815250505b88975050505050505050919050565b600080600080600080600080886000015189602001518a604001518b606001518c608001518d60a001518e60c001518f60e0015197509750975097509750975097509750919395975091939597565b601260003373ffffffffffffffffffffffffffffffffffffffff1673ffffffffffffffffffffffffffffffffffffffff16815260200190815260200160002060000160009054906101000a900460ff161515614f46576001601260003373ffffffffffffffffffffffffffffffffffffffff1673ffffffffffffffffffffffffffffffffffffffff16815260200190815260200160002060000160006101000a81548160ff02191690831515021790555060138054806001018281614ef69190616b7a565b9160005260206000209001600033909190916101000a81548173ffffffffffffffffffffffffffffffffffffffff021916908373ffffffffffffffffffffffffffffffffffffffff160217905550505b565b601260003373ffffffffffffffffffffffffffffffffffffffff1673ffffffffffffffffffffffffffffffffffffffff1681526020019081526020016000206003016000826fffffffffffffffffffffffffffffffff19166fffffffffffffffffffffffffffffffff1916815260200190815260200160002060009054906101000a900460ff16151561510f576001601260003373ffffffffffffffffffffffffffffffffffffffff1673ffffffffffffffffffffffffffffffffffffffff1681526020019081526020016000206003016000836fffffffffffffffffffffffffffffffff19166fffffffffffffffffffffffffffffffff1916815260200190815260200160002060006101000a81548160ff021916908315150217905550601260003373ffffffffffffffffffffffffffffffffffffffff1673ffffffffffffffffffffffffffffffffffffffff16815260200190815260200160002060020180548060010182816150bb9190616ba6565b916000526020600020906002918282040191900660100283909190916101000a8154816fffffffffffffffffffffffffffffffff021916908370010000000000000000000000000000000090040217905550505b6001601260003373ffffffffffffffffffffffffffffffffffffffff1673ffffffffffffffffffffffffffffffffffffffff1681526020019081526020016000206001016000828254019250508190555050565b600080600090508260600151156151ba576151b76151a860016007540161519a600160065401600554615cbc90919063ffffffff16565b615d4790919063ffffffff16565b82614acc90919063ffffffff16565b90505b82608001511561520a576152076151f86001600854016151ea600160065401600554615cbc90919063ffffffff16565b615d4790919063ffffffff16565b82614acc90919063ffffffff16565b90505b8260a001511561525a5761525761524860016009540161523a600160065401600554615cbc90919063ffffffff16565b615d4790919063ffffffff16565b82614acc90919063ffffffff16565b90505b8260c00151156152aa576152a76152986001600a540161528a600160065401600554615cbc90919063ffffffff16565b615d4790919063ffffffff16565b82614acc90919063ffffffff16565b90505b8260e00151156152fa576152f76152e86001600b54016152da600160065401600554615cbc90919063ffffffff16565b615d4790919063ffffffff16565b82614acc90919063ffffffff16565b90505b80915050919050565b80604001511561531f5760016006600082825401925050819055505b80606001511561533b5760016007600082825401925050819055505b8060800151156153575760016008600082825401925050819055505b8060a00151156153735760016009600082825401925050819055505b8060c001511561538f576001600a600082825401925050819055505b8060e00151156153ab576001600b600082825401925050819055505b50565b6153b6616ac6565b6153be616ac6565b6000806000806000808987610120019063ffffffff1916908163ffffffff1916815250508887610140019063ffffffff1916908163ffffffff191681525050600087610180019060ff16908160ff16815250506002876101a0019060ff16908160ff16815250506002876101c0019060ff16908160ff168152505060008760000190151590811515815250506000876020019015159081151581525050600187610160019060ff16908160ff16815250506ffffffffffffffe7ffdbfffffffffffff700100000000000000000000000000000000028761010001906fffffffffffffffffffffffffffffffff191690816fffffffffffffffffffffffffffffffff191681525050600091505b603c8260ff161080156154db575085155b1561564957602087610180015160ff16106154fb57866101400151615502565b8661012001515b905061552481602089610180015160ff1681151561551c57fe5b066020615d62565b945061552f85615db8565b809450819550505061554085615df7565b15955085158015615554575060088460ff16105b8015615563575060088360ff16105b8015615573575060008460ff1610155b8015615583575060008360ff1610155b1561563c57615593878585615e08565b965060018761018001510187610180019060ff16908160ff168152505086600001511561563b576000876000019015159081151581525050600160ff1687610160015160ff1614156155f857600287610160019060ff16908160ff168152505061560d565b600187610160019060ff16908160ff16815250505b615618878585615e08565b965086600001511561563a576001955060008760000190151590811515815250505b5b5b81806001019250506154ca565b8660000151151561566b5761565d8761610a565b965061566887614aea565b96505b8697505050505050505092915050565b600082600001511561568c57600080fd5b8260200151151561569c57600080fd5b601460008461010001516fffffffffffffffffffffffffffffffff19166fffffffffffffffffffffffffffffffff1916815260200190815260200160002060000160009054906101000a900460ff16156156f557600080fd5b6156fd614e31565b61570b836101000151614f48565b826101200151601460008561010001516fffffffffffffffffffffffffffffffff19166fffffffffffffffffffffffffffffffff1916815260200190815260200160002060000160016101000a8154817bffffffffffffffffffffffffffffffffffffffffffffffffffffffff021916908364010000000090040217905550826101400151601460008561010001516fffffffffffffffffffffffffffffffff19166fffffffffffffffffffffffffffffffff1916815260200190815260200160002060010160006101000a8154817bffffffffffffffffffffffffffffffffffffffffffffffffffffffff021916908364010000000090040217905550601460008461010001516fffffffffffffffffffffffffffffffff19166fffffffffffffffffffffffffffffffff19168152602001908152602001600020600601805480600101828161585c9190616b7a565b9160005260206000209001600033909190916101000a81548173ffffffffffffffffffffffffffffffffffffffff021916908373ffffffffffffffffffffffffffffffffffffffff1602179055505081601460008561010001516fffffffffffffffffffffffffffffffff19166fffffffffffffffffffffffffffffffff19168152602001908152602001600020600201819055506001601460008561010001516fffffffffffffffffffffffffffffffff19166fffffffffffffffffffffffffffffffff1916815260200190815260200160002060000160006101000a81548160ff02191690831515021790555042601460008561010001516fffffffffffffffffffffffffffffffff19166fffffffffffffffffffffffffffffffff191681526020019081526020016000206004018190555042601460008561010001516fffffffffffffffffffffffffffffffff19166fffffffffffffffffffffffffffffffff1916815260200190815260200160002060050181905550826040015115615b17576159ea83615163565b601460008561010001516fffffffffffffffffffffffffffffffff19166fffffffffffffffffffffffffffffffff1916815260200190815260200160002060030181905550601460008461010001516fffffffffffffffffffffffffffffffff19166fffffffffffffffffffffffffffffffff19168152602001908152602001600020600301546000803373ffffffffffffffffffffffffffffffffffffffff1673ffffffffffffffffffffffffffffffffffffffff16815260200190815260200160002060008282540192505081905550601460008461010001516fffffffffffffffffffffffffffffffff19166fffffffffffffffffffffffffffffffff1916815260200190815260200160002060030154600160008282540192505081905550615b1683615303565b5b7f5c3b20386cb190ab356d48388402e550e47af17282ac5ac49df339be5376a9803383856101000151600187610120015188610140015142601460008c61010001516fffffffffffffffffffffffffffffffff19166fffffffffffffffffffffffffffffffff1916815260200190815260200160002060030154604051808973ffffffffffffffffffffffffffffffffffffffff1673ffffffffffffffffffffffffffffffffffffffff168152602001888152602001876fffffffffffffffffffffffffffffffff19166fffffffffffffffffffffffffffffffff19168152602001861515151581526020018563ffffffff191663ffffffff191681526020018463ffffffff191663ffffffff191681526020018381526020018281526020019850505050505050505060405180910390a160158054806001018281615c5d9190616ba6565b9160005260206000209060029182820401919006601002856101000151909190916101000a8154816fffffffffffffffffffffffffffffffff021916908370010000000000000000000000000000000090040217905550905092915050565b6000806000841415615cd15760009150615cf0565b8284029050828482811515615ce257fe5b04141515615cec57fe5b8091505b5092915050565b600080600080615d0786866163c3565b92506003700100000000000000000000000000000000029150615d2a82846163df565b91508187169050615d3b818461641b565b93505050509392505050565b6000808284811515615d5557fe5b0490508091505092915050565b600080600080607f64010000000002925060078087026007870203039150615d8d838360ff16616484565b92508287169050615da1818360ff166164a8565b905080640100000000900493505050509392505050565b60008060008060408503945060088560ff16811515615dd357fe5b069150600882860360ff16811515615de757fe5b0490508181935093505050915091565b600060408260ff1610159050919050565b615e10616ac6565b615e18616be0565b600080600080600080600080600360ff16615e398e61010001518e8e6164d5565b60ff16141515615e5c5760018d60000190151590811515815250508c99506160fa565b615e678d8d8d61653f565b809950819a50505060008860ff161415615e945760018d60000190151590811515815250508c99506160fa565b60009150600090505b8760ff168160ff161015615ffa576000965060009550615ed48d8a8360ff16600881101515615ec857fe5b60200201518e8e61687e565b8097508198505050600092505b8560ff168360ff161015615fed57811515615efb57600191505b615f0e615f09888589615d62565b615db8565b8095508196505050615f2c8d61010001518e610160015187876169ec565b8d61010001906fffffffffffffffffffffffffffffffff191690816fffffffffffffffffffffffffffffffff191681525050600260ff168d610160015160ff161415615fab5760018d6101c0018181510191509060ff16908160ff168152505060018d6101a0018181510391509060ff16908160ff1681525050615fe0565b60018d6101c0018181510391509060ff16908160ff168152505060018d6101a0018181510191509060ff16908160ff16815250505b8280600101935050615ee1565b8080600101915050615e9d565b811561609b576160168d61010001518e61016001518e8e6169ec565b8d61010001906fffffffffffffffffffffffffffffffff191690816fffffffffffffffffffffffffffffffff191681525050600260ff168d610160015160ff16141561607b5760018d6101c0018181510191509060ff16908160ff1681525050616096565b60018d6101a0018181510191509060ff16908160ff16815250505b6160b4565b60018d60000190151590811515815250508c99506160fa565b600160ff168d610160015160ff1614156160e15760028d610160019060ff16908160ff16815250506160f6565b60018d610160019060ff16908160ff16815250505b8c99505b5050505050505050509392505050565b616112616ac6565b61611a616c0f565b600080600080616128616ac6565b616130616c3e565b603c89610180015160ff16148061614f57506000896101a0015160ff16145b8061616257506000896101c0015160ff16145b1561619157600089600001901515908115158152505060018960200190151590811515815250508897506163b7565b60009550600094505b60408560ff161015616273576161e48961010001516008808860ff168115156161bf57fe5b06880360ff168115156161ce57fe5b0460088860ff168115156161de57fe5b066164d5565b9350600360ff168460ff1614156162665760408051908101604052806008808860ff1681151561621057fe5b06880360ff1681151561621f57fe5b0460ff1660ff16815260200160088760ff1681151561623a57fe5b0660ff1660ff16815250878760ff16603c8110151561625557fe5b602002018190525085806001019650505b848060010195505061619a565b6000925060008660ff16111561637457600094505b8560ff168560ff1610801561629b575082155b1561637357868560ff16603c811015156162b157fe5b60200201519050600189610160019060ff16908160ff16815250506162fd898260006002811015156162df57fe5b60200201518360016002811015156162f357fe5b6020020151615e08565b91508160000151151561630f57600192505b600289610160019060ff16908160ff16815250506163548982600060028110151561633657fe5b602002015183600160028110151561634a57fe5b6020020151615e08565b91508160000151151561636657600192505b8480600101955050616288565b5b82156163905760018960000190151590811515815250506163b3565b600189602001901515908115158152505060008960000190151590811515815250505b8897505b50505050505050919050565b600060026001838560080201016040030260ff16905092915050565b6000808260020a847001000000000000000000000000000000009004029050807001000000000000000000000000000000000291505092915050565b6000808260020a6fffffffffffffffffffffffffffffffff168470010000000000000000000000000000000090046fffffffffffffffffffffffffffffffff1681151561646457fe5b049050807001000000000000000000000000000000000291505092915050565b6000808260020a846401000000009004029050806401000000000291505092915050565b6000808260020a8464010000000090048115156164c157fe5b049050806401000000000291505092915050565b60008060008060006164e787876163c3565b9350600370010000000000000000000000000000000002925061650a83856163df565b9250828816915061651b828561641b565b90508070010000000000000000000000000000000090049450505050509392505050565b616547616be0565b6000616551616be0565b600061655b616be0565b600080616566616c68565b600080600096506101006040519081016040528060408051908101604052807fffffffffffffffffffffffffffffffffffffffffffffffffffffffffffffffff60000b60000b81526020016000800b60000b815250815260200160408051908101604052807fffffffffffffffffffffffffffffffffffffffffffffffffffffffffffffffff60000b60000b8152602001600160000b60000b815250815260200160408051908101604052806000800b60000b8152602001600160000b60000b81525081526020016040805190810160405280600160000b60000b8152602001600160000b60000b81525081526020016040805190810160405280600160000b60000b81526020016000800b60000b81525081526020016040805190810160405280600160000b60000b81526020017fffffffffffffffffffffffffffffffffffffffffffffffffffffffffffffffff60000b60000b815250815260200160408051908101604052806000800b60000b81526020017fffffffffffffffffffffffffffffffffffffffffffffffffffffffffffffffff60000b60000b815250815260200160408051908101604052807fffffffffffffffffffffffffffffffffffffffffffffffffffffffffffffffff60000b60000b81526020017fffffffffffffffffffffffffffffffffffffffffffffffffffffffffffffffff60000b60000b8152508152509550600090505b60088160ff16101561686857858160ff1660088110151561679257fe5b602002015192508260006002811015156167a857fe5b60200201518c0193508260016002811015156167c057fe5b60200201518b01945060078560000b13806167de575060008560000b125b806167ec575060078460000b135b806167fa575060008460000b125b151561685b576168108d610100015185876164d5565b91508c610160015160ff168260ff1614151561685a57600360ff168260ff161415156168595782888860ff1660088110151561684857fe5b602002018190525086806001019750505b5b5b8080600101915050616775565b8787995099505050505050505050935093915050565b60008060008060008060008060008060008097508e61016001519650600160ff168f610160015160ff1614156168b757600295506168bc565b600195505b60009450600190505b60098160ff1610156169d4578415156169c7578c8e60006002811015156168e857fe5b602002015182020193508b8e600160028110151561690257fe5b6020020151820201925060078460000b1380616921575060008460000b125b8061692f575060078360000b135b8061693d575060008360000b125b15616953576000985060009750600194506169c6565b6169638f610100015185856164d5565b91508560ff168260ff16141561698c5761697f89898686616a82565b809950819a5050506169c5565b8e610160015160ff168260ff161480156169a9575060018160ff16115b156169b757600194506169c4565b6000985060009750600194505b5b5b5b80806001019150506168c5565b88889a509a5050505050505050505094509492505050565b600080600080600060078760ff161115616a0557600080fd5b60078660ff161115616a1657600080fd5b616a2087876163c3565b93506003700100000000000000000000000000000000029250616a4383856163df565b915088828a181698508760ff16700100000000000000000000000000000000029050616a6f81856163df565b9050808917945050505050949350505050565b600080600060406008850286010160ff16640100000000029050616aa7876007616484565b9650808717965085806001019650508686925092505094509492505050565b6101e06040519081016040528060001515815260200160001515815260200160001515815260200160001515815260200160001515815260200160001515815260200160001515815260200160001515815260200160006fffffffffffffffffffffffffffffffff19168152602001600063ffffffff19168152602001600063ffffffff19168152602001600060ff168152602001600060ff168152602001600060ff168152602001600060ff1681525090565b815481835581811511616ba157818360005260206000209182019101616ba09190616c91565b5b505050565b815481835581811511616bdb576001016002900481600101600290048360005260206000209182019101616bda9190616c91565b5b505050565b610200604051908101604052806008905b616bf9616cb6565b815260200190600190039081616bf15790505090565b610f0060405190810160405280603c905b616c28616cdf565b815260200190600190039081616c205790505090565b60408051908101604052806002905b600060ff16815260200190600190039081616c4d5790505090565b60408051908101604052806002905b6000800b815260200190600190039081616c775790505090565b616cb391905b80821115616caf576000816000905550600101616c97565b5090565b90565b60408051908101604052806002905b6000800b815260200190600190039081616cc55790505090565b60408051908101604052806002905b600060ff16815260200190600190039081616cee57905050905600a165627a7a72305820775ed1030b6f64e6bb87f770636e5e56f348e232c1a63019842928be5d6596a80029",
  "source": "pragma solidity ^0.4.13;\n\nimport \"zeppelin-solidity/contracts/token/ERC20/StandardToken.sol\";\nimport \"./Reversi.sol\";\n// import \"./oraclizeAPI.sol\";\n\n\ncontract ClubToken is StandardToken {\n\n  // Token Contract\n\n  uint256 public decimals = 0;\n  uint256 public INITIAL_SUPPLY = 0; // zero decimals\n  uint256 payMultiplier = 100;\n  uint256 Symmetricals;\n  uint256 RotSym;\n  uint256 Y0Sym;\n  uint256 X0Sym;\n  uint256 XYSym;\n  uint256 XnYSym;\n  uint256 nameLength = 21;\n  address public owner;\n  string public name = \"ClubToken\";\n  string public symbol = \"\";\n\n\n\n  function ClubToken() {\n    totalSupply_ = INITIAL_SUPPLY;\n    balances[msg.sender] = INITIAL_SUPPLY;\n    admins[msg.sender] = true;\n    adminKeys.push(msg.sender);\n    owner = msg.sender;\n  }\n\n\n  // Modifiers\n\n  modifier onlyOwner { if (msg.sender != owner) revert(); _; }\n  modifier onlyAdmin { if (!admins[msg.sender]) revert(); _; }\n  modifier doesNotExist(bytes16 b) { if (clovers[b].exists) revert(); _; }\n  modifier exists(bytes16 b) { if (!clovers[b].exists) revert(); _; }\n\n\n\n  // Events\n\n  event newUserName(address player, string name);\n  event newCloverName(bytes16 board, string name);\n  event Registered(address newOwner, uint256 lastPaidAmount, bytes16 board, bool newBoard, bytes28 first32Moves, bytes28 lastMoves, uint256 modified, uint256 findersFee);\n\n\n\n  // Contract Administration\n\n  mapping(address => bool) admins;\n  address[] public adminKeys;\n\n  function getBalance(address someone) public constant returns(uint) {\n    return balances[someone];\n  }\n\n  function myAddress () public constant returns (address) {\n    return msg.sender;\n  }\n\n  function isAdmin () public constant returns (bool) {\n    return admins[msg.sender];\n  }  \n\n  function adminLen () public constant returns (uint256) {\n    return adminKeys.length;\n  } \n\n  function adminAt (uint256 key) public constant returns (address) {\n    return adminKeys[key];\n  }\n\n  function getTallys() public constant returns(uint256, uint256, uint256, uint256, uint256, uint256, uint256) {\n    return (Symmetricals, RotSym, Y0Sym, X0Sym, XYSym, XnYSym, payMultiplier);\n  }\n\n  function changeNameLength (uint256 len) public onlyAdmin() {\n    nameLength = len;\n  }\n\n  function addAdmin (address newbie) public onlyAdmin() {\n    if (!admins[msg.sender]) revert();\n    admins[newbie] = true;\n    adminKeys.push(newbie);\n  }\n\n  function updateMultiplier(uint256 multiplier) public onlyAdmin(){\n    payMultiplier = multiplier;\n  }\n\n\n\n\n  // Player Management\n\n  struct Player {\n    bool exists;\n    uint currentCount;\n    bytes16[] cloverKeys;\n    mapping(bytes16 => bool) clovers;\n  }\n\n  mapping(address => Player) public players;\n  address[] public playerKeys;\n\n  function changeName (string name) {\n    if (bytes(name).length > nameLength) revert();\n    newUserName(msg.sender, name);\n  }\n\n  function listPlayerCount() public constant returns(uint) {\n    return playerKeys.length;\n  }\n\n  function playerAddressByKey(uint playerKey) public constant returns(address) {\n    return playerKeys[playerKey];\n  }\n\n  function playerExists(address player) public constant returns(bool) {\n    return players[player].exists;\n  }\n\n  function playerCurrentCount(address player) public constant returns(uint) {\n    return players[player].currentCount;\n  }\n\n  function playerAllCount(address player) public constant returns(uint) {\n    return players[player].cloverKeys.length;\n  }\n\n  function playerCloverByKey(address player, uint cloverKey) public constant returns(bytes16) {\n    return players[player].cloverKeys[cloverKey];\n  }\n\n  function playerOwnsClover(address player, bytes16 board) public constant returns (bool) {\n    return players[player].clovers[board];\n  }\n\n  function addCloverToPlayer (bytes16 board) internal {\n    if (!players[msg.sender].clovers[board]) {\n      players[msg.sender].clovers[board] = true;\n      players[msg.sender].cloverKeys.push(board);\n    }\n    players[msg.sender].currentCount += 1;\n  }\n\n  function registerPlayer() internal {\n    if (!players[msg.sender].exists) {\n      players[msg.sender].exists = true;\n      playerKeys.push(msg.sender);\n    }\n  }\n\n\n\n  // Clover Management\n\n  struct Clover {\n    bool exists;\n    bytes28 first32Moves;\n    bytes28 lastMoves;\n    uint256 lastPaidAmount;\n    uint256 findersFee;\n    uint256 created;\n    uint256 modified;\n    address[] previousOwners;\n    // bool validated;\n  }\n\n  mapping (bytes16 => Clover) public clovers;\n  bytes16[] public cloverKeys;\n\n  function cloverExists(bytes16 b) public constant returns(bool){\n    return clovers[b].exists;\n  }\n\n  function getCloversCount() public constant returns(uint) {\n    return cloverKeys.length;\n  }\n\n  function getCloverByKey (uint boardKey) public constant returns(bytes16, uint lastPaidAmount, uint owners, address lastOwner, bytes28 first32Moves, bytes28 lastMoves) {\n    bytes16 board = cloverKeys[boardKey];\n    return getClover(board);\n  }\n\n  function getClover (bytes16 board) public exists(board) constant returns(bytes16, uint lastPaidAmount, uint ownersLength, address lastOwner, bytes28 first32Moves, bytes28 lastMoves) {\n    return (board, clovers[board].lastPaidAmount, clovers[board].previousOwners.length, clovers[board].previousOwners[clovers[board].previousOwners.length - 1], clovers[board].first32Moves, clovers[board].lastMoves);\n  }\n\n  function getCloverOwnersLength(bytes16 board) public exists(board) constant returns(uint256) {\n    return clovers[board].previousOwners.length;\n  }\n\n  function getCloverOwner(bytes16 board) public exists(board) constant returns(bytes16, address previousOwner) {\n    return (board, clovers[board].previousOwners[ clovers[board].previousOwners.length - 1 ] );\n  }\n\n  function getCloverOwnerAtKeyByBoard(bytes16 board, uint ownerKey) public exists(board) constant returns(bytes16, address previousOwner) {\n    return (board, clovers[board].previousOwners[ownerKey]);\n  }\n\n  function getCloverOwnerAtKeyByBoardKey(uint boardKey, uint ownerKey) public constant returns(bytes16, address previousOwner) {\n    bytes16 board = cloverKeys[boardKey];\n    if(!clovers[board].exists) revert();\n    return (board, clovers[board].previousOwners[ownerKey]);\n  }\n\n  function renameClover(bytes16 board, string name) public exists(board) {\n    if (bytes(name).length > nameLength) revert();\n    if (clovers[board].previousOwners[clovers[board].previousOwners.length - 1] != msg.sender) revert();\n    newCloverName(board, name);\n  }\n\n  function changeStartPrice(bytes16 board, uint256 startPrice) public exists(board) {\n    if(clovers[board].previousOwners[0] != msg.sender) revert();\n    if(clovers[board].previousOwners.length > 1) revert();\n    Registered(msg.sender, startPrice, board, true, clovers[board].first32Moves, clovers[board].lastMoves, now, clovers[board].findersFee);\n    clovers[board].lastPaidAmount = startPrice;\n  }\n\n  function mineClover(bytes28 first32Moves, bytes28 lastMoves, uint256 startPrice) public {\n    Reversi.Game memory game = Reversi.playGame(first32Moves, lastMoves);\n    // Game memory game = playGame(first32Moves, lastMoves);\n    saveGame(game, startPrice);\n  }\n\n  function adminMineClover (bytes28 first32Moves, bytes28 lastMoves, bytes16 board, uint startPrice) public doesNotExist(board) onlyAdmin() returns(uint boardKey) {\n    registerPlayer();\n    addCloverToPlayer(game.board);\n    Reversi.Game memory game;\n    // Game memory game;\n    game.board = board;\n\n    game = Reversi.isSymmetrical(game);\n    // game = isSymmetrical(game);\n    if (game.symmetrical) {\n      clovers[board].findersFee = findersFee(game);\n      balances[msg.sender] += clovers[board].findersFee;\n      totalSupply_ += clovers[board].findersFee;\n      addToSymmTallys(game);\n    }\n    clovers[board].first32Moves = first32Moves;\n    clovers[board].lastMoves = lastMoves;\n    clovers[board].previousOwners.push(msg.sender);\n    clovers[board].lastPaidAmount = startPrice;\n    clovers[board].exists = true;\n    clovers[board].created = now;\n    clovers[board].modified = now;\n    Registered(msg.sender, startPrice, board, true, first32Moves, lastMoves, now, clovers[board].findersFee);\n    return cloverKeys.push(board);\n  }\n\n  function flipClover (bytes16 b) exists(b) public{\n    // every clover asset is for sale determined on an initial start price\n    // if that clover is purchased, the proceeds are divided evenly among the last two buyers\n    // cant flip board you currently own\n    if (clovers[b].previousOwners[ clovers[b].previousOwners.length - 1 ] == msg.sender) revert();\n    uint nextPrice = clovers[b].previousOwners.length == 1 ? clovers[b].lastPaidAmount : clovers[b].lastPaidAmount.mul(2);\n    if (balances[msg.sender] < nextPrice) revert();\n    registerPlayer();\n    for (uint8 i = 1; i < 3; i++) {\n      if (i <= clovers[b].previousOwners.length) {\n        uint256 lastOwnerKey = clovers[b].previousOwners.length - uint(i);\n        address lastOwner = clovers[b].previousOwners[ lastOwnerKey ];\n\n        balances[msg.sender] = balances[msg.sender].sub(clovers[b].lastPaidAmount);\n\n        balances[lastOwner] = balances[lastOwner].add(clovers[b].lastPaidAmount);\n        if (i == 1) {\n          players[lastOwner].currentCount -= 1;\n        }\n      }\n    }\n    addCloverToPlayer(b);\n    clovers[b].previousOwners.push(msg.sender);\n    clovers[b].lastPaidAmount = nextPrice;\n    clovers[b].modified = now;\n    Registered(msg.sender, nextPrice, b, false, clovers[b].first32Moves, clovers[b].lastMoves, clovers[b].modified, clovers[b].findersFee);\n  }\n\n\n  // Game Management\n  //\n  // see ./Reversi.sol for playGame(), isSymmetrical() and Game struct\n\n\n  function gameIsValid(bytes28 first32Moves, bytes28 lastMoves) public constant returns(bool) {\n    Reversi.Game memory game = Reversi.playGame(first32Moves, lastMoves);\n    // Game memory game = playGame(first32Moves, lastMoves);\n    if (game.error) return false;\n    if (!game.complete) return false;\n    if (!game.symmetrical) return false;\n    return true;\n  }\n\n  function gameExists(bytes28 first32Moves, bytes28 lastMoves) public constant returns(bool) {\n    Reversi.Game memory game = Reversi.playGame(first32Moves, lastMoves);\n    // Game memory game = playGame(first32Moves, lastMoves);\n    if (game.error) revert();\n    if (!game.complete) revert();\n    return clovers[game.board].exists;\n  }\n\n  function debugGame(bytes28 first32Moves, bytes28 lastMoves) public{\n    Reversi.Game memory game = Reversi.playGame(first32Moves, lastMoves);\n    // Game memory game = playGame(first32Moves, lastMoves);\n  }\n  function showGame(bytes28 first32Moves, bytes28 lastMoves) public constant returns(bool error, bool complete, bool symmetrical, bool RotSym, bool Y0Sym, bool X0Sym, bool XYSym, bool XnYSym) {\n    Reversi.Game memory game = Reversi.playGame(first32Moves, lastMoves);\n    // Game memory game = playGame(first32Moves, lastMoves);\n    return returnGame(game);\n  }\n\n  function showGame2(bytes28 first32Moves, bytes28 lastMoves) public constant returns(bytes16 board, uint8 blackScore, uint8 whiteScore, uint8 currentPlayer, uint8 moveKey) {\n    Reversi.Game memory game = Reversi.playGame(first32Moves, lastMoves);\n    // Game memory game = playGame(first32Moves, lastMoves);\n    return (game.board, game.blackScore, game.whiteScore, game.currentPlayer, game.moveKey);\n  }\n\n\n  function getSymmetry(bytes16 b) public constant returns(bool error, bool complete, bool symmetrical, bool RotSym, bool Y0Sym, bool X0Sym, bool XYSym, bool XnYSym) {\n    Reversi.Game memory game;\n    // Game memory game;\n    game.board = b;\n    game = Reversi.isSymmetrical(game);\n    // game = isSymmetrical(game);\n    return returnGame(game);\n  }\n\n  function getFindersFee(bytes16 b) public constant returns(uint256) {\n    Reversi.Game memory game;\n    // Game memory game;\n    game.board = b;\n    game = Reversi.isSymmetrical(game);\n    // game = isSymmetrical(game);\n    return findersFee(game);\n  }\n\n  function returnGame(Reversi.Game game) internal returns(bool error, bool complete, bool symmetrical, bool RotSym, bool Y0Sym, bool X0Sym, bool XYSym, bool XnYSym){\n  // function returnGame(Game game) internal returns(bool error, bool complete, bool symmetrical, bool RotSym, bool Y0Sym, bool X0Sym, bool XYSym, bool XnYSym){\n    return (game.error, game.complete, game.symmetrical, game.RotSym, game.Y0Sym, game.X0Sym, game.XYSym, game.XnYSym);\n  }\n\n  function saveGame(Reversi.Game game, uint256 startPrice) internal returns(uint){\n  // function saveGame(Game game, uint256 startPrice) internal returns(uint){\n    if (game.error) revert();\n    if (!game.complete) revert();\n    if (clovers[game.board].exists) revert();\n    \n    registerPlayer();\n    addCloverToPlayer(game.board);\n    clovers[game.board].first32Moves = game.first32Moves;\n    clovers[game.board].lastMoves = game.lastMoves;\n    clovers[game.board].previousOwners.push(msg.sender);\n    clovers[game.board].lastPaidAmount = startPrice;\n    clovers[game.board].exists = true;\n    clovers[game.board].created = now;\n    clovers[game.board].modified = now;\n    if (game.symmetrical) {\n      clovers[game.board].findersFee = findersFee(game);\n      balances[msg.sender] += clovers[game.board].findersFee;\n      totalSupply_ += clovers[game.board].findersFee;\n      addToSymmTallys(game);\n    }\n    Registered(msg.sender, startPrice, game.board, true, game.first32Moves, game.lastMoves, now, clovers[game.board].findersFee);\n    return cloverKeys.push(game.board);\n  }\n\n  function addToSymmTallys (Reversi.Game game) internal {\n  // function addToSymmTallys (Game game) internal {\n    if (game.symmetrical) Symmetricals += 1;\n    if (game.RotSym) RotSym += 1;\n    if (game.Y0Sym) Y0Sym += 1;\n    if (game.X0Sym) X0Sym += 1;\n    if (game.XYSym) XYSym += 1;\n    if (game.XnYSym) XnYSym += 1;\n  }\n\n  function findersFee (Reversi.Game game) internal constant returns(uint256) {\n  // function findersFee (Game game) internal constant returns(uint256) {\n    uint256 base = 0;\n\n    if (game.RotSym) base = base.add( payMultiplier.mul( Symmetricals + 1 ).div( RotSym + 1 ) );\n    if (game.Y0Sym) base = base.add( payMultiplier.mul( Symmetricals + 1 ).div( Y0Sym + 1 ) );\n    if (game.X0Sym) base = base.add( payMultiplier.mul( Symmetricals + 1 ).div( X0Sym + 1 ) );\n    if (game.XYSym) base = base.add( payMultiplier.mul( Symmetricals + 1 ).div( XYSym + 1 ) );\n    if (game.XnYSym) base = base.add( payMultiplier.mul( Symmetricals + 1 ).div( XnYSym + 1 ) );\n\n    return base;\n  }\n\n\n  // // Oraclize Management\n\n\n  // function claimClover (bytes16 board, bytes28 first32Moves, bytes28 lastMoves, uint256 startPrice) public {\n  //   registerPlayer();\n\n  //   Clover storage clover;\n  //   clover.first32Moves = first32Moves;\n  //   clover.lastMoves = lastMoves;\n  //   clover.lastPaidAmount = startPrice;\n  //   clover.exists = true;\n\n\n  //   clover.previousOwners.push(msg.sender);\n\n  //   clover.validated = false; // redundant\n\n  //   Game memory game;\n  //   game.board = board;\n  //   clover.findersFee = findersFee(game);\n\n  //   clovers[board] = clover;\n\n  // }\n\n  // // = \"json(https://api.infura.io/v1/jsonrpc/rinkeby/eth_call?to=\"\n  // string validateEndpoint = \"json(https://api.infura.io/v1/jsonrpc/rinkeby/eth_call?to=\";\n  // mapping(bytes32=>bytes16) validIds;\n\n  // function updateValidateEndpoint (string endpoint) public onlyAdmin() {\n  //   validateEndpoint = endpoint;\n  // }\n\n  // function __callback(bytes32 myid, bool valid, bytes proof) {\n  //   if (uint8 (validIds[myid]) == 0) throw;\n  //   if (msg.sender != oraclize_cbAddress()) revert();\n  //   if (!valid) revert();\n  //   bytes16 board = validIds[myid];\n  //   address player = clovers[board].previousOwners[0];\n  //   if (!clovers[board].exists) revert();\n  //   if (clovers[board].validated) revert();\n  //   delete validIds[myid];\n\n\n  //   addCloverToPlayerExplicit(board, player);\n\n  //   balances[player] += clovers[board].findersFee;\n  //   clovers[board].validated = valid;\n\n  //   cloverKeys.push(board);  \n  //   Registered(player, clovers[board].lastPaidAmount, board);\n  // }\n\n  // function returnAddress() public constant returns(address) {\n  //   return this;\n  // }\n\n  // function buildString(bytes28 first32Moves, bytes28 lastMoves) public constant returns(string) {\n  //   string query2 = addressToString(address(this));\n  //   // string memory query3 = \"&data=\";\n  //   // string memory func = bytes32ToString(bytes32(bytes4(sha3(\"gameIsValid(bytes28,bytes28)\"))));\n  //   // string memory param1 = bytes32ToString(bytes32(first32Moves));\n  //   // string memory param2 = bytes32ToString(bytes32(lastMoves));\n  //   // string memory closing = \").result\";\n\n  //   return query2;//strConcat(strConcat(validateEndpoint, query2, query3, func, param1), param2, closing);\n\n  // }\n\n  // function verifyGame(bytes16 board, bytes28 first32Moves, bytes28 lastMoves) payable {\n  //   if (oraclize_getPrice(\"URL\") > this.balance) {\n  //       // newOraclizeQuery(\"Oraclize query was NOT sent, please add some ETH to cover for the query fee\");\n  //   } else {\n\n  //       // newOraclizeQuery(\"Oraclize query was sent, standing by for the answer..\");\n  //       bytes32 queryId = oraclize_query(\"URL\", buildString(first32Moves, lastMoves));\n  //       validIds[queryId] = board;\n  //   }\n  // }\n\n  // function addressToString(address x) returns (string) {\n  //     bytes memory b = new bytes(20);\n  //     for (uint i = 0; i < 20; i++)\n  //       b[i] = byte(uint8(uint256(x) / (2**(8*(19 - i)))));\n  //     return string(b);\n  // }\n  // function bytes32ToString (bytes32 data) constant returns (string) {\n  //   bytes memory bytesString = new bytes(32);\n  //   for (uint j=0; j<32; j++) {\n  //     byte char = byte(bytes32(uint(data) * 2 ** (8 * j)));\n  //     if (char != 0) {\n  //       bytesString[j] = char;\n  //     }\n  //   }\n  //   return string(bytesString);\n  // }\n  // function bytes4ToString (bytes4 data) constant returns (string) {\n  //   bytes memory bytesString = new bytes(4);\n  //   for (uint j=0; j<4; j++) {\n  //     byte char = byte(bytes4(uint(data) * 2 ** (8 * j)));\n  //     if (char != 0) {\n  //       bytesString[j] = char;\n  //     }\n  //   }\n  //   return string(bytesString);\n  // }\n\n  // function strConcat(string _a, string _b, string _c, string _d, string _e) internal returns (string) {\n  //     bytes memory _ba = bytes(_a);\n  //     bytes memory _bb = bytes(_b);\n  //     bytes memory _bc = bytes(_c);\n  //     bytes memory _bd = bytes(_d);\n  //     bytes memory _be = bytes(_e);\n  //     string memory abcde = new string(_ba.length + _bb.length + _bc.length + _bd.length + _be.length);\n  //     bytes memory babcde = bytes(abcde);\n  //     uint k = 0;\n  //     for (uint i = 0; i < _ba.length; i++) babcde[k++] = _ba[i];\n  //     for (i = 0; i < _bb.length; i++) babcde[k++] = _bb[i];\n  //     for (i = 0; i < _bc.length; i++) babcde[k++] = _bc[i];\n  //     for (i = 0; i < _bd.length; i++) babcde[k++] = _bd[i];\n  //     for (i = 0; i < _be.length; i++) babcde[k++] = _be[i];\n  //     return string(babcde);\n  // }\n\n  // function strConcat(string _a, string _b, string _c, string _d) internal returns (string) {\n  //     return strConcat(_a, _b, _c, _d, \"\");\n  // }\n\n  // function strConcat(string _a, string _b, string _c) internal returns (string) {\n  //     return strConcat(_a, _b, _c, \"\", \"\");\n  // }\n\n  // function strConcat(string _a, string _b) internal returns (string) {\n  //     return strConcat(_a, _b, \"\", \"\", \"\");\n  // }\n\n\n}",
  "sourcePath": "/Users/billy/vue/clovers-dapp/contracts/ClubToken.sol",
  "compiler": {
    "name": "solc",
    "version": "0.4.19+commit.c4cbbb05.Emscripten.clang"
  },
  "schemaVersion": "1.0.1",
  "updatedAt": "2018-03-21T23:49:02.368Z"
}