{
  "contractName": "ClubToken",
  "abi": [
    {
      "constant": true,
      "inputs": [
        {
          "name": "",
          "type": "bytes16"
        }
      ],
      "name": "clovers",
      "outputs": [
        {
          "name": "exists",
          "type": "bool"
        },
        {
          "name": "validated",
          "type": "bool"
        },
        {
          "name": "first32Moves",
          "type": "bytes28"
        },
        {
          "name": "lastMoves",
          "type": "bytes28"
        },
        {
          "name": "lastPaidAmount",
          "type": "uint256"
        },
        {
          "name": "findersFee",
          "type": "uint256"
        },
        {
          "name": "created",
          "type": "uint256"
        },
        {
          "name": "modified",
          "type": "uint256"
        }
      ],
      "payable": false,
      "type": "function"
    },
    {
      "constant": true,
      "inputs": [],
      "name": "name",
      "outputs": [
        {
          "name": "",
          "type": "string"
        }
      ],
      "payable": false,
      "type": "function"
    },
    {
      "constant": false,
      "inputs": [
        {
          "name": "_spender",
          "type": "address"
        },
        {
          "name": "_value",
          "type": "uint256"
        }
      ],
      "name": "approve",
      "outputs": [
        {
          "name": "",
          "type": "bool"
        }
      ],
      "payable": false,
      "type": "function"
    },
    {
      "constant": true,
      "inputs": [
        {
          "name": "b",
          "type": "bytes16"
        }
      ],
      "name": "cloverExists",
      "outputs": [
        {
          "name": "",
          "type": "bool"
        }
      ],
      "payable": false,
      "type": "function"
    },
    {
      "constant": true,
      "inputs": [
        {
          "name": "boardKey",
          "type": "uint256"
        },
        {
          "name": "ownerKey",
          "type": "uint256"
        }
      ],
      "name": "getCloverOwnerAtKeyByBoardKey",
      "outputs": [
        {
          "name": "previousOwner",
          "type": "address"
        }
      ],
      "payable": false,
      "type": "function"
    },
    {
      "constant": true,
      "inputs": [],
      "name": "totalSupply",
      "outputs": [
        {
          "name": "",
          "type": "uint256"
        }
      ],
      "payable": false,
      "type": "function"
    },
    {
      "constant": true,
      "inputs": [
        {
          "name": "playerKey",
          "type": "uint256"
        }
      ],
      "name": "playerAddressByKey",
      "outputs": [
        {
          "name": "",
          "type": "address"
        }
      ],
      "payable": false,
      "type": "function"
    },
    {
      "constant": false,
      "inputs": [
        {
          "name": "_from",
          "type": "address"
        },
        {
          "name": "_to",
          "type": "address"
        },
        {
          "name": "_value",
          "type": "uint256"
        }
      ],
      "name": "transferFrom",
      "outputs": [
        {
          "name": "",
          "type": "bool"
        }
      ],
      "payable": false,
      "type": "function"
    },
    {
      "constant": true,
      "inputs": [],
      "name": "myAddress",
      "outputs": [
        {
          "name": "",
          "type": "address"
        }
      ],
      "payable": false,
      "type": "function"
    },
    {
      "constant": true,
      "inputs": [
        {
          "name": "b",
          "type": "bytes16"
        }
      ],
      "name": "getSymmetry",
      "outputs": [
        {
          "name": "error",
          "type": "bool"
        },
        {
          "name": "complete",
          "type": "bool"
        },
        {
          "name": "symmetrical",
          "type": "bool"
        },
        {
          "name": "RotSym",
          "type": "bool"
        },
        {
          "name": "Y0Sym",
          "type": "bool"
        },
        {
          "name": "X0Sym",
          "type": "bool"
        },
        {
          "name": "XYSym",
          "type": "bool"
        },
        {
          "name": "XnYSym",
          "type": "bool"
        }
      ],
      "payable": false,
      "type": "function"
    },
    {
      "constant": true,
      "inputs": [
        {
          "name": "b",
          "type": "bytes16"
        }
      ],
      "name": "cloverExistsUnvalidated",
      "outputs": [
        {
          "name": "",
          "type": "bool"
        }
      ],
      "payable": false,
      "type": "function"
    },
    {
      "constant": true,
      "inputs": [],
      "name": "INITIAL_SUPPLY",
      "outputs": [
        {
          "name": "",
          "type": "uint256"
        }
      ],
      "payable": false,
      "type": "function"
    },
    {
      "constant": true,
      "inputs": [],
      "name": "decimals",
      "outputs": [
        {
          "name": "",
          "type": "uint256"
        }
      ],
      "payable": false,
      "type": "function"
    },
    {
      "constant": false,
      "inputs": [
        {
          "name": "board",
          "type": "bytes16"
        },
        {
          "name": "first32Moves",
          "type": "bytes28"
        },
        {
          "name": "lastMoves",
          "type": "bytes28"
        },
        {
          "name": "startPrice",
          "type": "uint256"
        }
      ],
      "name": "claimClover",
      "outputs": [],
      "payable": false,
      "type": "function"
    },
    {
      "constant": false,
      "inputs": [
        {
          "name": "board",
          "type": "bytes16"
        },
        {
          "name": "startPrice",
          "type": "uint256"
        }
      ],
      "name": "changeStartPrice",
      "outputs": [],
      "payable": false,
      "type": "function"
    },
    {
      "constant": false,
      "inputs": [
        {
          "name": "board",
          "type": "bytes16"
        },
        {
          "name": "name",
          "type": "string"
        }
      ],
      "name": "renameClover",
      "outputs": [],
      "payable": false,
      "type": "function"
    },
    {
      "constant": true,
      "inputs": [],
      "name": "getOracleHash",
      "outputs": [
        {
          "name": "",
          "type": "bytes32"
        }
      ],
      "payable": false,
      "type": "function"
    },
    {
      "constant": true,
      "inputs": [],
      "name": "listPlayerCount",
      "outputs": [
        {
          "name": "",
          "type": "uint256"
        }
      ],
      "payable": false,
      "type": "function"
    },
    {
      "constant": true,
      "inputs": [
        {
          "name": "board",
          "type": "bytes16"
        }
      ],
      "name": "getClover",
      "outputs": [
        {
          "name": "",
          "type": "bytes16"
        },
        {
          "name": "lastPaidAmount",
          "type": "uint256"
        },
        {
          "name": "ownersLength",
          "type": "uint256"
        },
        {
          "name": "lastOwner",
          "type": "address"
        },
        {
          "name": "first32Moves",
          "type": "bytes28"
        },
        {
          "name": "lastMoves",
          "type": "bytes28"
        }
      ],
      "payable": false,
      "type": "function"
    },
    {
      "constant": false,
      "inputs": [
        {
          "name": "first32Moves",
          "type": "bytes28"
        },
        {
          "name": "lastMoves",
          "type": "bytes28"
        },
        {
          "name": "board",
          "type": "bytes16"
        },
        {
          "name": "startPrice",
          "type": "uint256"
        }
      ],
      "name": "adminMineClover",
      "outputs": [],
      "payable": false,
      "type": "function"
    },
    {
      "constant": false,
      "inputs": [
        {
          "name": "name",
          "type": "string"
        }
      ],
      "name": "changeName",
      "outputs": [],
      "payable": false,
      "type": "function"
    },
    {
      "constant": false,
      "inputs": [],
      "name": "registerPlayer",
      "outputs": [],
      "payable": false,
      "type": "function"
    },
    {
      "constant": true,
      "inputs": [
        {
          "name": "b",
          "type": "bytes16"
        }
      ],
      "name": "cloverValid",
      "outputs": [
        {
          "name": "",
          "type": "bool"
        }
      ],
      "payable": false,
      "type": "function"
    },
    {
      "constant": false,
      "inputs": [
        {
          "name": "multiplier",
          "type": "uint256"
        }
      ],
      "name": "updateMultiplier",
      "outputs": [],
      "payable": false,
      "type": "function"
    },
    {
      "constant": true,
      "inputs": [
        {
          "name": "b",
          "type": "bytes16"
        }
      ],
      "name": "getFindersFee",
      "outputs": [
        {
          "name": "",
          "type": "uint256"
        }
      ],
      "payable": false,
      "type": "function"
    },
    {
      "constant": true,
      "inputs": [
        {
          "name": "first32Moves",
          "type": "bytes28"
        },
        {
          "name": "lastMoves",
          "type": "bytes28"
        }
      ],
      "name": "gameIsValid",
      "outputs": [
        {
          "name": "",
          "type": "bool"
        }
      ],
      "payable": false,
      "type": "function"
    },
    {
      "constant": true,
      "inputs": [
        {
          "name": "board",
          "type": "bytes16"
        }
      ],
      "name": "getCloverOwnersLength",
      "outputs": [
        {
          "name": "",
          "type": "uint256"
        }
      ],
      "payable": false,
      "type": "function"
    },
    {
      "constant": true,
      "inputs": [
        {
          "name": "player",
          "type": "address"
        },
        {
          "name": "board",
          "type": "bytes16"
        }
      ],
      "name": "playerOwnsClover",
      "outputs": [
        {
          "name": "",
          "type": "bool"
        }
      ],
      "payable": false,
      "type": "function"
    },
    {
      "constant": false,
      "inputs": [
        {
          "name": "newbie",
          "type": "address"
        }
      ],
      "name": "addAdmin",
      "outputs": [],
      "payable": false,
      "type": "function"
    },
    {
      "constant": true,
      "inputs": [
        {
          "name": "_owner",
          "type": "address"
        }
      ],
      "name": "balanceOf",
      "outputs": [
        {
          "name": "balance",
          "type": "uint256"
        }
      ],
      "payable": false,
      "type": "function"
    },
    {
      "constant": true,
      "inputs": [
        {
          "name": "player",
          "type": "address"
        },
        {
          "name": "cloverKey",
          "type": "uint256"
        }
      ],
      "name": "playerCloverByKey",
      "outputs": [
        {
          "name": "",
          "type": "bytes16"
        }
      ],
      "payable": false,
      "type": "function"
    },
    {
      "constant": true,
      "inputs": [
        {
          "name": "first32Moves",
          "type": "bytes28"
        },
        {
          "name": "lastMoves",
          "type": "bytes28"
        }
      ],
      "name": "showGame2",
      "outputs": [
        {
          "name": "board",
          "type": "bytes16"
        },
        {
          "name": "blackScore",
          "type": "uint8"
        },
        {
          "name": "whiteScore",
          "type": "uint8"
        },
        {
          "name": "currentPlayer",
          "type": "uint8"
        },
        {
          "name": "moveKey",
          "type": "uint8"
        }
      ],
      "payable": false,
      "type": "function"
    },
    {
      "constant": false,
      "inputs": [
        {
          "name": "endpoint",
          "type": "string"
        }
      ],
      "name": "setOracleHash",
      "outputs": [],
      "payable": false,
      "type": "function"
    },
    {
      "constant": true,
      "inputs": [
        {
          "name": "player",
          "type": "address"
        }
      ],
      "name": "playerAllCount",
      "outputs": [
        {
          "name": "",
          "type": "uint256"
        }
      ],
      "payable": false,
      "type": "function"
    },
    {
      "constant": true,
      "inputs": [],
      "name": "owner",
      "outputs": [
        {
          "name": "",
          "type": "address"
        }
      ],
      "payable": false,
      "type": "function"
    },
    {
      "constant": true,
      "inputs": [
        {
          "name": "",
          "type": "uint256"
        }
      ],
      "name": "playerKeys",
      "outputs": [
        {
          "name": "",
          "type": "address"
        }
      ],
      "payable": false,
      "type": "function"
    },
    {
      "constant": false,
      "inputs": [
        {
          "name": "len",
          "type": "uint256"
        }
      ],
      "name": "changeNameLength",
      "outputs": [],
      "payable": false,
      "type": "function"
    },
    {
      "constant": true,
      "inputs": [],
      "name": "symbol",
      "outputs": [
        {
          "name": "",
          "type": "string"
        }
      ],
      "payable": false,
      "type": "function"
    },
    {
      "constant": true,
      "inputs": [],
      "name": "getTallys",
      "outputs": [
        {
          "name": "",
          "type": "uint256"
        },
        {
          "name": "",
          "type": "uint256"
        },
        {
          "name": "",
          "type": "uint256"
        },
        {
          "name": "",
          "type": "uint256"
        },
        {
          "name": "",
          "type": "uint256"
        },
        {
          "name": "",
          "type": "uint256"
        },
        {
          "name": "",
          "type": "uint256"
        }
      ],
      "payable": false,
      "type": "function"
    },
    {
      "constant": false,
      "inputs": [],
      "name": "setClubToken",
      "outputs": [],
      "payable": false,
      "type": "function"
    },
    {
      "constant": true,
      "inputs": [
        {
          "name": "player",
          "type": "address"
        }
      ],
      "name": "playerCurrentCount",
      "outputs": [
        {
          "name": "",
          "type": "uint256"
        }
      ],
      "payable": false,
      "type": "function"
    },
    {
      "constant": false,
      "inputs": [
        {
          "name": "_to",
          "type": "address"
        },
        {
          "name": "_value",
          "type": "uint256"
        }
      ],
      "name": "transfer",
      "outputs": [
        {
          "name": "",
          "type": "bool"
        }
      ],
      "payable": false,
      "type": "function"
    },
    {
      "constant": false,
      "inputs": [
        {
          "name": "first32Moves",
          "type": "bytes28"
        },
        {
          "name": "lastMoves",
          "type": "bytes28"
        },
        {
          "name": "startPrice",
          "type": "uint256"
        }
      ],
      "name": "mineClover",
      "outputs": [],
      "payable": false,
      "type": "function"
    },
    {
      "constant": false,
      "inputs": [
        {
          "name": "board",
          "type": "bytes16"
        },
        {
          "name": "player",
          "type": "address"
        }
      ],
      "name": "oracleAddClover",
      "outputs": [],
      "payable": false,
      "type": "function"
    },
    {
      "constant": true,
      "inputs": [
        {
          "name": "",
          "type": "uint256"
        }
      ],
      "name": "adminKeys",
      "outputs": [
        {
          "name": "",
          "type": "address"
        }
      ],
      "payable": false,
      "type": "function"
    },
    {
      "constant": true,
      "inputs": [],
      "name": "isAdmin",
      "outputs": [
        {
          "name": "",
          "type": "bool"
        }
      ],
      "payable": false,
      "type": "function"
    },
    {
      "constant": true,
      "inputs": [
        {
          "name": "boardKey",
          "type": "uint256"
        }
      ],
      "name": "getCloverByKey",
      "outputs": [
        {
          "name": "",
          "type": "bytes16"
        },
        {
          "name": "lastPaidAmount",
          "type": "uint256"
        },
        {
          "name": "owners",
          "type": "uint256"
        },
        {
          "name": "lastOwner",
          "type": "address"
        },
        {
          "name": "first32Moves",
          "type": "bytes28"
        },
        {
          "name": "lastMoves",
          "type": "bytes28"
        }
      ],
      "payable": false,
      "type": "function"
    },
    {
      "constant": true,
      "inputs": [
        {
          "name": "first32Moves",
          "type": "bytes28"
        },
        {
          "name": "lastMoves",
          "type": "bytes28"
        }
      ],
      "name": "showGame",
      "outputs": [
        {
          "name": "error",
          "type": "bool"
        },
        {
          "name": "complete",
          "type": "bool"
        },
        {
          "name": "symmetrical",
          "type": "bool"
        },
        {
          "name": "RotSym",
          "type": "bool"
        },
        {
          "name": "Y0Sym",
          "type": "bool"
        },
        {
          "name": "X0Sym",
          "type": "bool"
        },
        {
          "name": "XYSym",
          "type": "bool"
        },
        {
          "name": "XnYSym",
          "type": "bool"
        }
      ],
      "payable": false,
      "type": "function"
    },
    {
      "constant": true,
      "inputs": [
        {
          "name": "player",
          "type": "address"
        }
      ],
      "name": "playerExists",
      "outputs": [
        {
          "name": "",
          "type": "bool"
        }
      ],
      "payable": false,
      "type": "function"
    },
    {
      "constant": true,
      "inputs": [],
      "name": "getCloversCount",
      "outputs": [
        {
          "name": "",
          "type": "uint256"
        }
      ],
      "payable": false,
      "type": "function"
    },
    {
      "constant": false,
      "inputs": [],
      "name": "deposit",
      "outputs": [],
      "payable": true,
      "type": "function"
    },
    {
      "constant": false,
      "inputs": [
        {
          "name": "b",
          "type": "bytes16"
        }
      ],
      "name": "flipClover",
      "outputs": [],
      "payable": false,
      "type": "function"
    },
    {
      "constant": false,
      "inputs": [
        {
          "name": "board",
          "type": "bytes16"
        }
      ],
      "name": "deleteClover",
      "outputs": [],
      "payable": false,
      "type": "function"
    },
    {
      "constant": true,
      "inputs": [],
      "name": "getClubTokenAddress",
      "outputs": [
        {
          "name": "",
          "type": "address"
        }
      ],
      "payable": false,
      "type": "function"
    },
    {
      "constant": true,
      "inputs": [
        {
          "name": "_owner",
          "type": "address"
        },
        {
          "name": "_spender",
          "type": "address"
        }
      ],
      "name": "allowance",
      "outputs": [
        {
          "name": "remaining",
          "type": "uint256"
        }
      ],
      "payable": false,
      "type": "function"
    },
    {
      "constant": false,
      "inputs": [
        {
          "name": "first32Moves",
          "type": "bytes28"
        },
        {
          "name": "lastMoves",
          "type": "bytes28"
        }
      ],
      "name": "debugGame",
      "outputs": [],
      "payable": false,
      "type": "function"
    },
    {
      "constant": true,
      "inputs": [
        {
          "name": "",
          "type": "address"
        }
      ],
      "name": "players",
      "outputs": [
        {
          "name": "exists",
          "type": "bool"
        },
        {
          "name": "currentCount",
          "type": "uint256"
        }
      ],
      "payable": false,
      "type": "function"
    },
    {
      "constant": false,
      "inputs": [
        {
          "name": "player",
          "type": "address"
        }
      ],
      "name": "registerPlayerExplicit",
      "outputs": [],
      "payable": false,
      "type": "function"
    },
    {
      "constant": false,
      "inputs": [
        {
          "name": "board",
          "type": "bytes16"
        },
        {
          "name": "first32Moves",
          "type": "bytes28"
        },
        {
          "name": "lastMoves",
          "type": "bytes28"
        },
        {
          "name": "startPrice",
          "type": "uint256"
        },
        {
          "name": "endpoint",
          "type": "string"
        },
        {
          "name": "payload",
          "type": "string"
        }
      ],
      "name": "oracleMineClover",
      "outputs": [],
      "payable": false,
      "type": "function"
    },
    {
      "constant": true,
      "inputs": [
        {
          "name": "board",
          "type": "bytes16"
        },
        {
          "name": "ownerKey",
          "type": "uint256"
        }
      ],
      "name": "getCloverOwnerAtKeyByBoard",
      "outputs": [
        {
          "name": "previousOwner",
          "type": "address"
        }
      ],
      "payable": false,
      "type": "function"
    },
    {
      "constant": true,
      "inputs": [
        {
          "name": "_someone",
          "type": "address"
        }
      ],
      "name": "getBalance",
      "outputs": [
        {
          "name": "",
          "type": "uint256"
        }
      ],
      "payable": false,
      "type": "function"
    },
    {
      "constant": true,
      "inputs": [
        {
          "name": "first32Moves",
          "type": "bytes28"
        },
        {
          "name": "lastMoves",
          "type": "bytes28"
        }
      ],
      "name": "gameExists",
      "outputs": [
        {
          "name": "",
          "type": "bool"
        }
      ],
      "payable": false,
      "type": "function"
    },
    {
      "constant": true,
      "inputs": [
        {
          "name": "",
          "type": "uint256"
        }
      ],
      "name": "cloverKeys",
      "outputs": [
        {
          "name": "",
          "type": "bytes16"
        }
      ],
      "payable": false,
      "type": "function"
    },
    {
      "constant": true,
      "inputs": [
        {
          "name": "board",
          "type": "bytes16"
        }
      ],
      "name": "getCloverOwner",
      "outputs": [
        {
          "name": "previousOwner",
          "type": "address"
        }
      ],
      "payable": false,
      "type": "function"
    },
    {
      "inputs": [
        {
          "name": "oracleAddress",
          "type": "address"
        }
      ],
      "payable": false,
      "type": "constructor"
    },
    {
      "anonymous": false,
      "inputs": [
        {
          "indexed": false,
          "name": "player",
          "type": "address"
        },
        {
          "indexed": false,
          "name": "name",
          "type": "string"
        }
      ],
      "name": "newUserName",
      "type": "event"
    },
    {
      "anonymous": false,
      "inputs": [
        {
          "indexed": false,
          "name": "board",
          "type": "bytes16"
        },
        {
          "indexed": false,
          "name": "name",
          "type": "string"
        }
      ],
      "name": "newCloverName",
      "type": "event"
    },
    {
      "anonymous": false,
      "inputs": [
        {
          "indexed": false,
          "name": "newOwner",
          "type": "address"
        },
        {
          "indexed": false,
          "name": "lastPaidAmount",
          "type": "uint256"
        },
        {
          "indexed": false,
          "name": "board",
          "type": "bytes16"
        },
        {
          "indexed": false,
          "name": "newBoard",
          "type": "bool"
        },
        {
          "indexed": false,
          "name": "first32Moves",
          "type": "bytes28"
        },
        {
          "indexed": false,
          "name": "lastMoves",
          "type": "bytes28"
        },
        {
          "indexed": false,
          "name": "modified",
          "type": "uint256"
        },
        {
          "indexed": false,
          "name": "findersFee",
          "type": "uint256"
        },
        {
          "indexed": false,
          "name": "validated",
          "type": "bool"
        }
      ],
      "name": "Registered",
      "type": "event"
    },
    {
      "anonymous": false,
      "inputs": [
        {
          "indexed": false,
          "name": "message",
          "type": "string"
        }
      ],
      "name": "newOraclizeQuery",
      "type": "event"
    },
    {
      "anonymous": false,
      "inputs": [
        {
          "indexed": false,
          "name": "level",
          "type": "uint8"
        }
      ],
      "name": "newOraclizeSubmit",
      "type": "event"
    },
    {
      "anonymous": false,
      "inputs": [
        {
          "indexed": true,
          "name": "owner",
          "type": "address"
        },
        {
          "indexed": true,
          "name": "spender",
          "type": "address"
        },
        {
          "indexed": false,
          "name": "value",
          "type": "uint256"
        }
      ],
      "name": "Approval",
      "type": "event"
    },
    {
      "anonymous": false,
      "inputs": [
        {
          "indexed": true,
          "name": "from",
          "type": "address"
        },
        {
          "indexed": true,
          "name": "to",
          "type": "address"
        },
        {
          "indexed": false,
          "name": "value",
          "type": "uint256"
        }
      ],
      "name": "Transfer",
      "type": "event"
    }
  ],
  "bytecode": "0x606060405260006004556001600555600a6006556015600d5560408051908101604052600981527f436c7562546f6b656e00000000000000000000000000000000000000000000006020820152600f908051620000619291602001906200017d565b5060408051908101604052600381527fe299a7000000000000000000000000000000000000000000000000000000000060208201526010908051620000ab9291602001906200017d565b503415620000b857600080fd5b6040516020806200505d833981016040528080519150505b60038054600160a060020a031916600160a060020a0383811691909117909155600554600081815533909216825260016020818152604080852093909355601190529120805460ff191682179055601280549091810162000132838262000203565b916000526020600020900160005b8154600160a060020a033381166101009390930a83810291021990911617909155600e8054600160a060020a0319169091179055505b5062000254565b828054600181600116156101000203166002900490600052602060002090601f016020900481019282601f10620001c057805160ff1916838001178555620001f0565b82800160010185558215620001f0579182015b82811115620001f0578251825591602001919060010190620001d3565b5b50620001ff92915062000230565b5090565b8154818355818115116200022a576000838152602090206200022a91810190830162000230565b5b505050565b6200025191905b80821115620001ff576000815560010162000237565b5090565b90565b614df980620002646000396000f300606060405236156102da5763ffffffff60e060020a60003504166306fd150a81146102df57806306fdde0314610355578063095ea7b3146103e05780630b0372fd1461041657806316746ed01461044a57806318160ddd1461047f5780631eb7bc0d146104a457806323b872dd146104d657806326b85ee11461051257806329049fff146105415780632fefba31146105b25780632ff2e9dc146105e6578063313ce5671461060b57806334cb044614610630578063356a099c146106655780633a9e69cb1461068a5780633dda6643146106ec578063451ed116146107115780634821e60714610736578063519a337f146107ac5780635353a2d8146107e15780635c07a4b0146108345780635dd38808146108495780635ffe61461461087d578063626299341461089557806367588038146108c757806367b9bafc146108fe5780636e0fc8bb14610930578063704802751461097057806370a08231146109915780637b3a8387146109c2578063851d3bf514610a0157806386e4aefc14610a675780638d1948c014610aba5780638da5cb5b14610aeb5780638f88236c14610b1a5780639327059214610b4c57806395d89b4114610b645780639769a84414610bef5780639d2dce1d14610c40578063a788bed014610c55578063a9059cbb14610c86578063ade1523f14610cbc578063ae3069f714610ce4578063aff125f614610d12578063b6db75a014610d44578063b8cfefa814610d6b578063baf4955d14610dd7578063bbe5230014610e4b578063cb2f489e14610e7e578063d0e30db014610ea3578063d42eccbd14610ead578063d43316ef14610ecf578063d4a5b80e14610ef1578063dd62ed3e14610f20578063df9073fa14610f57578063e2eb41ff14610f7c578063e593884e14610fb5578063ef0c875914610fd6578063f69ce26614611094578063f8b2cb4f14610991578063fb9fced614611104578063fedd6c771461113b578063fffcf9a81461116e575b600080fd5b34156102ea57600080fd5b6102ff6001608060020a0319600435166111aa565b6040519715158852951515602088015263ffffffff19948516604080890191909152939094166060870152608086019190915260a085015260c084019190915260e0830191909152610100909101905180910390f35b341561036057600080fd5b6103686111fa565b60405160208082528190810183818151815260200191508051906020019080838360005b838110156103a55780820151818401525b60200161038c565b50505050905090810190601f1680156103d25780820380516001836020036101000a031916815260200191505b509250505060405180910390f35b34156103eb57600080fd5b610402600160a060020a0360043516602435611298565b604051901515815260200160405180910390f35b341561042157600080fd5b6104026001608060020a03196004351661133f565b604051901515815260200160405180910390f35b341561045557600080fd5b610463600435602435611375565b604051600160a060020a03909116815260200160405180910390f35b341561048a57600080fd5b610492611416565b60405190815260200160405180910390f35b34156104af57600080fd5b61046360043561141c565b604051600160a060020a03909116815260200160405180910390f35b34156104e157600080fd5b610402600160a060020a0360043581169060243516604435611455565b604051901515815260200160405180910390f35b341561051d57600080fd5b61046361156a565b604051600160a060020a03909116815260200160405180910390f35b341561054c57600080fd5b6105616001608060020a03196004351661156f565b6040519715158852951515602088015293151560408088019190915292151560608701529015156080860152151560a085015290151560c084015290151560e0830152610100909101905180910390f35b34156105bd57600080fd5b6104026001608060020a0319600435166115c5565b604051901515815260200160405180910390f35b34156105f157600080fd5b6104926115fc565b60405190815260200160405180910390f35b341561061657600080fd5b610492611602565b60405190815260200160405180910390f35b341561063b57600080fd5b6106636001608060020a03196004351663ffffffff1960243581169060443516606435611608565b005b341561067057600080fd5b6106636001608060020a031960043516602435611808565b005b341561069557600080fd5b610663600480356001608060020a0319169060446024803590810190830135806020601f820181900481020160405190810160405281815292919060208401838380828437509496506119cf95505050505050565b005b34156106f757600080fd5b610492611b49565b60405190815260200160405180910390f35b341561071c57600080fd5b610492611bb3565b60405190815260200160405180910390f35b341561074157600080fd5b6107566001608060020a031960043516611bba565b6040516001608060020a031990961686526020860194909452604080860193909352600160a060020a03909116606085015263ffffffff1990811660808501529190911660a083015260c0909101905180910390f35b34156107b757600080fd5b61066363ffffffff19600435811690602435166001608060020a031960443516606435611cb9565b005b34156107ec57600080fd5b61066360046024813581810190830135806020601f82018190048102016040519081016040528181529291906020840183838082843750949650611fb895505050505050565b005b341561083f57600080fd5b610663612076565b005b341561085457600080fd5b6104026001608060020a031960043516612082565b604051901515815260200160405180910390f35b341561088857600080fd5b6106636004356120aa565b005b34156108a057600080fd5b6104926001608060020a0319600435166120db565b60405190815260200160405180910390f35b34156108d257600080fd5b61040263ffffffff1960043581169060243516612113565b604051901515815260200160405180910390f35b341561090957600080fd5b6104926001608060020a03196004351661216d565b60405190815260200160405180910390f35b341561093b57600080fd5b610402600160a060020a03600435166001608060020a0319602435166121e8565b604051901515815260200160405180910390f35b341561097b57600080fd5b610663600160a060020a0360043516612223565b005b341561099c57600080fd5b610492600160a060020a03600435166122db565b60405190815260200160405180910390f35b34156109cd57600080fd5b6109e4600160a060020a03600435166024356122fa565b6040516001608060020a0319909116815260200160405180910390f35b3415610a0c57600080fd5b610a2463ffffffff1960043581169060243516612351565b6040516001608060020a0319909516855260ff938416602086015291831660408086019190915290831660608501529116608083015260a0909101905180910390f35b3415610a7257600080fd5b61066360046024813581810190830135806020601f820181900481020160405190810160405281815292919060208401838380828437509496506123a195505050505050565b005b3415610ac557600080fd5b610492600160a060020a036004351661248e565b60405190815260200160405180910390f35b3415610af657600080fd5b6104636124b0565b604051600160a060020a03909116815260200160405180910390f35b3415610b2557600080fd5b6104636004356124bf565b604051600160a060020a03909116815260200160405180910390f35b3415610b5757600080fd5b6106636004356124f1565b005b3415610b6f57600080fd5b610368612522565b60405160208082528190810183818151815260200191508051906020019080838360005b838110156103a55780820151818401525b60200161038c565b50505050905090810190601f1680156103d25780820380516001836020036101000a031916815260200191505b509250505060405180910390f35b3415610bfa57600080fd5b610c026125c0565b60405196875260208701959095526040808701949094526060860192909252608085015260a084015260c083019190915260e0909101905180910390f35b3415610c4b57600080fd5b6106636125df565b005b3415610c6057600080fd5b610492600160a060020a036004351661266e565b60405190815260200160405180910390f35b3415610c9157600080fd5b610402600160a060020a0360043516602435612690565b604051901515815260200160405180910390f35b3415610cc757600080fd5b61066363ffffffff1960043581169060243516604435612750565b005b3415610cef57600080fd5b6106636001608060020a031960043516600160a060020a0360243516612775565b005b3415610d1d57600080fd5b610463600435612a27565b604051600160a060020a03909116815260200160405180910390f35b3415610d4f57600080fd5b610402612a59565b604051901515815260200160405180910390f35b3415610d7657600080fd5b610756600435612a79565b6040516001608060020a031990961686526020860194909452604080860193909352600160a060020a03909116606085015263ffffffff1990811660808501529190911660a083015260c0909101905180910390f35b3415610de257600080fd5b61056163ffffffff1960043581169060243516612adc565b6040519715158852951515602088015293151560408088019190915292151560608701529015156080860152151560a085015290151560c084015290151560e0830152610100909101905180910390f35b3415610e5657600080fd5b610402600160a060020a0360043516612b24565b604051901515815260200160405180910390f35b3415610e8957600080fd5b610492612b46565b60405190815260200160405180910390f35b610663612b4d565b005b3415610eb857600080fd5b6106636001608060020a031960043516612ba3565b005b3415610eda57600080fd5b6106636001608060020a031960043516612fbf565b005b3415610efc57600080fd5b61046361305c565b604051600160a060020a03909116815260200160405180910390f35b3415610f2b57600080fd5b610492600160a060020a03600435811690602435166130c6565b60405190815260200160405180910390f35b3415610f6257600080fd5b61066363ffffffff19600435811690602435166130f3565b005b3415610f8757600080fd5b610f9b600160a060020a036004351661310d565b604051911515825260208201526040908101905180910390f35b3415610fc057600080fd5b610663600160a060020a036004351661312c565b005b3415610fe157600080fd5b610663600480356001608060020a031916906024803563ffffffff199081169260443590911691606435919060a49060843590810190830135806020601f8201819004810201604051908101604052818152929190602084018383808284378201915050505050509190803590602001908201803590602001908080601f0160208091040260200160405190810160405281815292919060208401838380828437509496506131b895505050505050565b005b341561109f57600080fd5b6104636001608060020a031960043516602435613320565b604051600160a060020a03909116815260200160405180910390f35b341561099c57600080fd5b610492600160a060020a03600435166122db565b60405190815260200160405180910390f35b341561110f57600080fd5b61040263ffffffff19600435811690602435166133e6565b604051901515815260200160405180910390f35b341561114657600080fd5b6109e4600435613430565b6040516001608060020a0319909116815260200160405180910390f35b341561117957600080fd5b6104636001608060020a031960043516613469565b604051600160a060020a03909116815260200160405180910390f35b60156020526000908152604090208054600182015460028301546003840154600485015460059095015460ff80861696610100870490911695640100000000620100009091048102950293929188565b600f8054600181600116156101000203166002900480601f0160208091040260200160405190810160405280929190818152602001828054600181600116156101000203166002900480156112905780601f1061126557610100808354040283529160200191611290565b820191906000526020600020905b81548152906001019060200180831161127357829003601f168201915b505050505081565b60008115806112ca5750600160a060020a03338116600090815260026020908152604080832093871683529290522054155b15156112d557600080fd5b600160a060020a03338116600081815260026020908152604080832094881680845294909152908190208590557f8c5be1e5ebec7d5bd14f71427d1e84f3dd0314c0f7b2291e5b200ac8c7c3b9259085905190815260200160405180910390a35060015b92915050565b6001608060020a0319811660009081526015602052604081205460ff16801561136c575061136c82612082565b5b90505b919050565b60008060168481548110151561138757fe5b90600052602060002090600291828204019190066010025b9054906101000a9004608060020a0290506113b98161133f565b15156113c457600080fd5b6001608060020a0319811660009081526015602052604090206006018054849081106113ec57fe5b906000526020600020900160005b9054906101000a9004600160a060020a031691505b5092915050565b60005481565b600060148281548110151561142d57fe5b906000526020600020900160005b9054906101000a9004600160a060020a031690505b919050565b600160a060020a03808416600090815260026020908152604080832033851684528252808320549386168352600190915281205490919061149c908463ffffffff61351316565b600160a060020a0380861660009081526001602052604080822093909355908716815220546114d1908463ffffffff61352d16565b600160a060020a0386166000908152600160205260409020556114fa818463ffffffff61352d16565b600160a060020a03808716600081815260026020908152604080832033861684529091529081902093909355908616917fddf252ad1be2c89b69c2b068fc378daa952ba7f163c4a11628f55a4df523b3ef9086905190815260200160405180910390a3600191505b509392505050565b335b90565b600080600080600080600080611583614b92565b6001608060020a03198a1661010082015261159d81613544565b90506115a881613787565b985098509850985098509850985098505b50919395975091939597565b6001608060020a0319811660009081526015602052604081205460ff16801561136c57506115f282612082565b155b90505b919050565b60055481565b60045481565b6001608060020a03198416600090815260156020526040902054849060ff16801561165157506001608060020a03198116600090815260156020526040902054610100900460ff165b1561165b57600080fd5b6001608060020a03198516600090815260156020526040812080547fffff000000000000000000000000000000000000000000000000000000000000168155600181018054600160e060020a031916905560028101829055600381018290556004810182905560058101829055906116d66006830182614c0e565b50506116e1856120db565b6001608060020a0319861660009081526015602052604080822060038101849055805460018083018054600160e060020a031916640100000000808c049190911791829055600285018a90557fffff00000000000000000000000000000000000000000000000000000000ffff90931662010000848d0481029190911760ff1916831761ff00191694859055600080516020614dae8339815191529733978b978f97959693909504830294939092029242929051600160a060020a03909916895260208901979097526001608060020a0319909516604080890191909152931515606088015263ffffffff199283166080880152911660a086015260c085015260e0840191909152901515610100830152610120909101905180910390a15b5b5050505050565b6001608060020a03198216600090815260156020526040902054829060ff1615801561185257506001608060020a03198116600090815260156020526040902054610100900460ff165b1561185c57600080fd5b6001608060020a0319831660009081526015602052604081206006018054600160a060020a0333169290811061188e57fe5b906000526020600020900160005b9054600160a060020a036101009290920a900416146118ba57600080fd5b6001608060020a0319831660009081526015602052604090206006015460019011156118e557600080fd5b6001608060020a03198316600090815260156020526040908190208054600180830154600390930154600080516020614dae83398151915294339488948a94936201000090910464010000000090810293920291429190859051600160a060020a03909916895260208901979097526001608060020a0319909516604080890191909152931515606088015263ffffffff199283166080880152911660a086015260c085015260e0840191909152901515610100830152610120909101905180910390a16001608060020a0319831660009081526015602052604090206002018290555b5b505050565b6001608060020a03198216600090815260156020526040902054829060ff16158015611a1957506001608060020a03198116600090815260156020526040902054610100900460ff165b15611a2357600080fd5b600d5482511115611a3357600080fd5b6001608060020a0319831660009081526015602052604090206006018054600160a060020a03331691906000198101908110611a6b57fe5b906000526020600020900160005b9054600160a060020a036101009290920a90041614611a9757600080fd5b7f928915afa2256c97955fd7735e2e6ba6d453eb09e7d91e5b03467b5934cca38483836040516001608060020a03198316815260406020820181815290820183818151815260200191508051906020019080838360005b83811015611b075780820151818401525b602001611aee565b50505050905090810190601f168015611b345780820380516001836020036101000a031916815260200191505b50935050505060405180910390a15b5b505050565b600354600090600160a060020a0316633dda664382604051602001526040518163ffffffff1660e060020a028152600401602060405180830381600087803b1515611b9357600080fd5b6102c65a03f11515611ba457600080fd5b50505060405180519150505b90565b6014545b90565b6001608060020a0319811660009081526015602052604081205481908190819081908190879060ff16158015611c0e57506001608060020a03198116600090815260156020526040902054610100900460ff165b15611c1857600080fd5b6001608060020a0319881660009081526015602052604090206002810154600690910180548a92916000198201828110611c4e57fe5b906000526020600020900160005b90546001608060020a03198d1660009081526015602052604090208054600190910154959c50939a509198506101000a9004600160a060020a0316955062010000900464010000000090810294500291505b5b5091939550919395565b611cc1614b92565b6001608060020a03198316600090815260156020526040902054839060ff168015611d0a57506001608060020a03198116600090815260156020526040902054610100900460ff165b15611d1457600080fd5b600160a060020a03331660009081526011602052604090205460ff161515611d3b57600080fd5b611d43612076565b611d518261010001516137d1565b6001608060020a03198416610100830152611d6b82613544565b9150816040015115611dd357611d80826138c7565b6001608060020a031985166000818152601560208181526040808420600301868155600160a060020a033316855260018352908420805490960190955592825290915290548154019055611dd382613a50565b5b6001608060020a03198416600090815260156020526040902080547fffff00000000000000000000000000000000000000000000000000000000ffff1662010000640100000000808a049190910291909117825560018083018054600160e060020a031916928904929092179091556006909101805490918101611e588382614c30565b916000526020600020900160005b8154600160a060020a033381811661010094850a908102920219909216179092556001608060020a031987166000908152601560205260409081902060028101889055805442600483018190556005830181905561ff001960ff199092166001908117929092169094178255600390910154600080516020614dae833981519152955088938a938d928d9291859051600160a060020a03909916895260208901979097526001608060020a0319909516604080890191909152931515606088015263ffffffff199283166080880152911660a086015260c085015260e0840191909152901515610100830152610120909101905180910390a16016805460018101611f718382614c5a565b91600052602060002090600291828204019190066010025b8154608060020a88046101009290920a9182026001608060020a039092021916179055505b5b5b505050505050565b600d5481511115611fc857600080fd5b7f51aba8153205aaff23cab0b32a552626c48b35cb38dfb3dd771bb435e63d17b53382604051600160a060020a038316815260406020820181815290820183818151815260200191508051906020019080838360005b838110156120375780820151818401525b60200161201e565b50505050905090810190601f1680156120645780820380516001836020036101000a031916815260200191505b50935050505060405180910390a15b50565b61207f3361312c565b5b565b6001608060020a03198116600090815260156020526040902054610100900460ff165b919050565b600160a060020a03331660009081526011602052604090205460ff1615156120d157600080fd5b60068190555b5b50565b60006120e5614b92565b6001608060020a031983166101008201526120ff81613544565b905061210a816138c7565b91505b50919050565b600061211d614b92565b6121278484613acc565b9050805115612139576000915061140f565b8060200151151561214d576000915061140f565b80604001511515612161576000915061140f565b600191505b5092915050565b6001608060020a03198116600090815260156020526040812054829060ff161580156121b757506001608060020a03198116600090815260156020526040902054610100900460ff165b156121c157600080fd5b6001608060020a0319831660009081526015602052604090206006015491505b5b50919050565b600160a060020a03821660009081526013602090815260408083206001608060020a03198516845260030190915290205460ff165b92915050565b600160a060020a03331660009081526011602052604090205460ff16151561224a57600080fd5b600160a060020a03331660009081526011602052604090205460ff16151561227157600080fd5b600160a060020a0381166000908152601160205260409020805460ff1916600190811790915560128054909181016122a98382614c30565b916000526020600020900160005b8154600160a060020a038086166101009390930a92830292021916179055505b5b50565b600160a060020a0381166000908152600160205260409020545b919050565b600160a060020a038216600090815260136020526040812060020180548390811061232157fe5b90600052602060002090600291828204019190066010025b9054906101000a9004608060020a0290505b92915050565b6000806000806000612361614b92565b61236b8888613acc565b9050806101000151816101a00151826101c00151836101600151846101800151955095509550955095505b509295509295909350565b600160a060020a03331660009081526011602052604090205460ff1615156123c857600080fd5b600354600160a060020a03166386e4aefc826040518263ffffffff1660e060020a0281526004018080602001828103825283818151815260200191508051906020019080838360005b8381101561242a5780820151818401525b602001612411565b50505050905090810190601f1680156124575780820380516001836020036101000a031916815260200191505b5092505050600060405180830381600087803b151561247557600080fd5b6102c65a03f1151561248657600080fd5b5050505b5b50565b600160a060020a0381166000908152601360205260409020600201545b919050565b600e54600160a060020a031681565b60148054829081106124cd57fe5b906000526020600020900160005b915054906101000a9004600160a060020a031681565b600160a060020a03331660009081526011602052604090205460ff16151561251857600080fd5b600d8190555b5b50565b60108054600181600116156101000203166002900480601f0160208091040260200160405190810160405280929190818152602001828054600181600116156101000203166002900480156112905780601f1061126557610100808354040283529160200191611290565b820191906000526020600020905b81548152906001019060200180831161127357829003601f168201915b505050505081565b600754600854600954600a54600b54600c546006545b90919293949596565b600160a060020a03331660009081526011602052604090205460ff16151561260657600080fd5b600354600160a060020a0316634f59a9483060405160e060020a63ffffffff8416028152600160a060020a039091166004820152602401600060405180830381600087803b151561265657600080fd5b6102c65a03f115156119c957600080fd5b5050505b5b565b600160a060020a0381166000908152601360205260409020600101545b919050565b600160a060020a0333166000908152600160205260408120546126b9908363ffffffff61352d16565b600160a060020a0333811660009081526001602052604080822093909355908516815220546126ee908363ffffffff61351316565b600160a060020a0380851660008181526001602052604090819020939093559133909116907fddf252ad1be2c89b69c2b068fc378daa952ba7f163c4a11628f55a4df523b3ef9085905190815260200160405180910390a35060015b92915050565b612758614b92565b6127628484613acc565b90506124868183613cad565b5b50505050565b60035433600160a060020a0390811691161461279057600080fd5b6127998161312c565b600160a060020a03811660009081526013602090815260408083206001608060020a03198616845260030190915290205460ff16151561286757600160a060020a03811660008181526013602081815260408084206001608060020a031988168552600381018352908420805460ff19166001908117909155949093525260020180549091810161282a8382614c5a565b91600052602060002090600291828204019190066010025b8154608060020a86046101009290920a9182026001608060020a039092021916179055505b600160a060020a038116600081815260136020908152604080832060019081018054820190556001608060020a03198716808552601580855283862060038101549787528386529386208054909701909655909352929052815461ff00191661010017825560069091018054909181016128e18382614c30565b916000526020600020900160005b8154600160a060020a038086166101009390930a928302920219161790555060168054600181016129208382614c5a565b91600052602060002090600291828204019190066010025b8154608060020a86046101009290920a9182026001608060020a039092021916179055506001608060020a031982166000908152601560205260409081902060028101548154600183810154600390940154600080516020614dae833981519152958795899464010000000062010000909104810293910291429190859051600160a060020a03909916895260208901979097526001608060020a0319909516604080890191909152931515606088015263ffffffff199283166080880152911660a086015260c085015260e0840191909152901515610100830152610120909101905180910390a15b5b5050565b60128054829081106124cd57fe5b906000526020600020900160005b915054906101000a9004600160a060020a031681565b600160a060020a03331660009081526011602052604090205460ff165b90565b6000806000806000806000601688815481101515612a9357fe5b90600052602060002090600291828204019190066010025b9054906101000a9004608060020a029050612ac581611bba565b9650965096509650965096505b5091939550919395565b600080600080600080600080612af0614b92565b612afa8b8b613acc565b9050612b0581613787565b985098509850985098509850985098505b509295985092959890939650565b600160a060020a03811660009081526013602052604090205460ff165b919050565b6016545b90565b600354600160a060020a031663d0e30db06040518163ffffffff1660e060020a028152600401600060405180830381600087803b151561265657600080fd5b6102c65a03f115156119c957600080fd5b5050505b565b6001608060020a03198116600090815260156020526040812054819081908190859060ff16158015612bf357506001608060020a03198116600090815260156020526040902054610100900460ff165b15612bfd57600080fd5b6001608060020a0319861660009081526015602052604090206006018054600160a060020a03331691906000198101908110612c3557fe5b906000526020600020900160005b9054906101000a9004600160a060020a0316600160a060020a03161415612c6957600080fd5b6001608060020a03198616600090815260156020526040902060060154600114612cc0576001608060020a031986166000908152601560205260409020600290810154612cbb9163ffffffff61410916565b612cde565b6001608060020a031986166000908152601560205260409020600201545b600160a060020a03331660009081526001602052604090205490955085901015612d0757600080fd5b612d0f612076565b600193505b60038460ff161015612e80576001608060020a0319861660009081526015602052604090206006015460ff851611612e73576001608060020a031986166000908152601560205260409020600601805460ff86168103945084908110612d7657fe5b906000526020600020900160005b90546001608060020a03198816600090815260156020908152604080832060020154600160a060020a03338116855260019093529220546101009490940a9092049091169350612dd4919061352d565b600160a060020a033381166000908152600160208181526040808420959095556001608060020a03198b16835260158152848320600201549387168352529190912054612e269163ffffffff61351316565b600160a060020a03831660009081526001602081905260409091209190915560ff85161415612e7357600160a060020a038216600090815260136020526040902060010180546000190190555b5b5b600190930192612d14565b612e89866137d1565b6001608060020a031986166000908152601560205260409020600601805460018101612eb58382614c30565b916000526020600020900160005b8154600160a060020a03338181166101009490940a9384029190930219909116179091556001608060020a03198816600090815260156020526040808220600281018a905542600582018190558154600183810154600390940154600080516020614dae83398151915298508d968f96909564010000000062010000909504850295940293929051600160a060020a03909916895260208901979097526001608060020a0319909516604080890191909152931515606088015263ffffffff199283166080880152911660a086015260c085015260e0840191909152901515610100830152610120909101905180910390a15b5b505050505050565b60035433600160a060020a03908116911614612fda57600080fd5b6001608060020a03198116600090815260156020526040812080547fffff000000000000000000000000000000000000000000000000000000000000168155600181018054600160e060020a031916905560028101829055600381018290556004810182905560058101829055906119c96006830182614c0e565b50505b5b50565b600354600090600160a060020a031663d4a5b80e82604051602001526040518163ffffffff1660e060020a028152600401602060405180830381600087803b1515611b9357600080fd5b6102c65a03f11515611ba457600080fd5b50505060405180519150505b90565b600160a060020a038083166000908152600260209081526040808320938516835292905220545b92915050565b6130fb614b92565b6131058383613acc565b90505b505050565b6013602052600090815260409020805460019091015460ff9091169082565b600160a060020a03811660009081526013602052604090205460ff16151561207357600160a060020a0381166000908152601360205260409020805460ff1916600190811790915560148054909181016122a98382614c30565b916000526020600020900160005b8154600160a060020a038086166101009390930a92830292021916179055505b5b50565b600354600160a060020a03166353a5dcd48733858560405160e060020a63ffffffff87160281526001608060020a0319851660048201908152600160a060020a03851660248301526080604483019081529091606481019060840185818151815260200191508051906020019080838360005b838110156132445780820151818401525b60200161322b565b50505050905090810190601f1680156132715780820380516001836020036101000a031916815260200191505b50838103825284818151815260200191508051906020019080838360005b838110156132a85780820151818401525b60200161328f565b50505050905090810190601f1680156132d55780820380516001836020036101000a031916815260200191505b509650505050505050600060405180830381600087803b15156132f757600080fd5b6102c65a03f1151561330857600080fd5b505050611fae86868686611608565b5b505050505050565b6001608060020a03198216600090815260156020526040812054839060ff1615801561336a57506001608060020a03198116600090815260156020526040902054610100900460ff165b1561337457600080fd5b6001608060020a0319841660009081526015602052604090206006018054849081106113ec57fe5b906000526020600020900160005b9054906101000a9004600160a060020a031691505b5b5092915050565b600160a060020a0381166000908152600160205260409020545b919050565b60006133f0614b92565b6133fa8484613acc565b905080511561340857600080fd5b8060200151151561341857600080fd5b61342681610100015161133f565b91505b5092915050565b601680548290811061343e57fe5b90600052602060002090600291828204019190066010025b915054906101000a9004608060020a0281565b6001608060020a03198116600090815260156020526040812054829060ff161580156134b357506001608060020a03198116600090815260156020526040902054610100900460ff165b156134bd57600080fd5b6001608060020a031983166000908152601560205260409020600601805460001981019081106134e957fe5b906000526020600020900160005b9054906101000a9004600160a060020a031691505b5b50919050565b60008282018381101561352257fe5b8091505b5092915050565b60008282111561353957fe5b508082035b92915050565b61354c614b92565b6001808080806000805b60088260ff161080156135855750868061356d5750855b806135755750845b8061357d5750835b806135855750825b5b15613721575060005b60088160ff161080156135be575086806135a65750855b806135ae5750845b806135b65750835b806135be5750825b5b15613715576135da8961010001518360070383600703614138565b6001608060020a0319166135f46101008b01518484614138565b6001608060020a0319161461360857600096505b61361b8961010001518383600703614138565b6001608060020a0319166136356101008b01518484614138565b6001608060020a0319161461364957600095505b61365c8961010001518360070383614138565b6001608060020a0319166136766101008b01518484614138565b6001608060020a0319161461368a57600094505b6136a08961010001518260070384600703614138565b6001608060020a0319166136ba6101008b01518484614138565b6001608060020a031916146136ce57600093505b6136de8961010001518284614138565b6001608060020a0319166136f86101008b01518484614138565b6001608060020a0319161461370c57600092505b5b60010161358f565b5b600190910190613556565b868061372a5750855b806137325750845b8061373a5750835b806137425750825b1561377757600160408a015286151560608a015285151560808a015284151560a08a015283151560c08a015282151560e08a01525b8897505b50505050505050919050565b600080808080808080885189602001518a604001518b606001518c608001518d60a001518e60c001518f60e00151975097509750975097509750975097505b919395975091939597565b600160a060020a03331660009081526013602090815260408083206001608060020a03198516845260030190915290205460ff16151561389f57600160a060020a03331660008181526013602081815260408084206001608060020a031987168552600381018352908420805460ff1916600190811790915594909352526002018054909181016138628382614c5a565b91600052602060002090600291828204019190066010025b8154608060020a85046101009290920a9182026001608060020a039092021916179055505b600160a060020a03331660009081526013602052604090206001908101805490910190555b50565b600080606083015115613916576139136139066008546001016138fa60075460010160065461410990919063ffffffff16565b9063ffffffff61418516565b829063ffffffff61351316565b90505b8260800151156139625761395f6139066009546001016138fa60075460010160065461410990919063ffffffff16565b9063ffffffff61418516565b829063ffffffff61351316565b90505b8260a00151156139ae576139ab613906600a546001016138fa60075460010160065461410990919063ffffffff16565b9063ffffffff61418516565b829063ffffffff61351316565b90505b8260c00151156139fa576139f7613906600b546001016138fa60075460010160065461410990919063ffffffff16565b9063ffffffff61418516565b829063ffffffff61351316565b90505b8260e0015115613a4657613a43613906600c546001016138fa60075460010160065461410990919063ffffffff16565b9063ffffffff61418516565b829063ffffffff61351316565b90505b8091505b50919050565b806040015115613a64576007805460010190555b806060015115613a78576008805460010190555b806080015115613a8c576009805460010190555b8060a0015115613aa057600a805460010190555b8060c0015115613ab457600b805460010190555b8060e001511561207357600c805460010190555b5b50565b613ad4614b92565b613adc614b92565b63ffffffff1980851661012083015283166101408201526000610180820181905260026101a083018190526101c08301528082526020820181905260016101608301527901800240000000000000ffffffffffffffffffffffffffffffff1961010083015280808080805b603c8260ff16108015613b58575085155b15613c7d57602087610180015160ff1610613b7857866101400151613b7f565b8661012001515b9050613ba181602089610180015160ff16811515613b9957fe5b0660206141a1565b9450613bac856141ee565b9094509250613bba8561421b565b159550851586613bcd575060088460ff16105b8015613bdc575060088360ff16105b8015613bec575060008460ff1610155b8015613bfc575060008360ff1610155b15613c6f57613c0c878585614229565b965086610180015160010160ff16610180880152865115613c6f5760008752600161016088015160ff161415613c49576002610160880152613c52565b60016101608801525b613c5d878585614229565b9650865115613c6f5760008752600195505b5b5b5b600190910190613b47565b86511515613c9c57613c8e8761444c565b9650613c9987613544565b96505b8697505b5050505050505092915050565b815115613cb957600080fd5b81602001511515613cc957600080fd5b613cd782610100015161133f565b15613ce157600080fd5b613ce9612076565b613cf78261010001516137d1565b816101200151601560008461010001516001608060020a03191681526020810191909152604001600020805464010000000090920462010000027fffff00000000000000000000000000000000000000000000000000000000ffff909216919091179055610140820151601560008461010001516001608060020a0319168152602081019190915260400160009081206001018054600160e060020a031916640100000000909304929092179091556015906101008401516001608060020a03191681526020810191909152604001600020600601805460018101613ddc8382614c30565b916000526020600020900160005b33909190916101000a815481600160a060020a030219169083600160a060020a031602179055505080601560008461010001516001608060020a0319166001608060020a0319168152602001908152602001600020600201819055506001601560008461010001516001608060020a031916815260208101919091526040016000908120805460ff19169215159290921790915542906015906101008501516001608060020a0319166001608060020a03191681526020019081526020016000206004018190555042601560008461010001516001608060020a0319166001608060020a0319168152602001908152602001600020600501819055506001601560008461010001516001608060020a03191681526020810191909152604090810160002080549215156101000261ff00199093169290921790915582015115613fe957613f36826138c7565b601560008461010001516001608060020a0319166001608060020a031916815260200190815260200160002060030181905550601560008361010001516001608060020a03191681526020808201929092526040908101600090812060030154600160a060020a0333168252600190935290812080549092019091556015906101008401516001608060020a031916815260208101919091526040016000908120600301548154019055613fe982613a50565b5b600080516020614dae8339815191523382846101000151600186610120015187610140015142601560008b61010001516001608060020a0319166001608060020a0319168152602001908152602001600020600301546001604051600160a060020a03909916895260208901979097526001608060020a0319909516604080890191909152931515606088015263ffffffff199283166080880152911660a086015260c085015260e0840191909152901515610100830152610120909101905180910390a160168054600181016140c18382614c5a565b91600052602060002090600291828204019190066010025b846101000151909190916101000a8154816001608060020a030219169083608060020a90040217905550505b5050565b6000828202831580614125575082848281151561412257fe5b04145b151561352257fe5b8091505b5092915050565b600080600080614148868661465d565b925070030000000000000000000000000000000091506141688284614677565b9150508581166141788184614691565b93505b5050509392505050565b600080828481151561419357fe5b0490508091505b5092915050565b6000647f0000000060061960078581029085020301826141c48360ff84166146cf565b9250508582166141d78160ff84166146ea565b6401000000008104945090505b5050509392505050565b603f19016000808080600860ff86165b069150600860ff838703165b0490508181935093505b5050915091565b604060ff821610155b919050565b614231614b92565b614239614c94565b60008080808080808060036142546101008f01518e8e614718565b60ff16146142685760018d528c995061443c565b6142738d8d8d614772565b909950975060ff8816151561428e5760018d528c995061443c565b5060009050805b8760ff168160ff16101561439b57600096508695506142c98d8a60ff8416600881106142bd57fe5b60200201518e8e614987565b9097509550600092505b8560ff168360ff161015614392578115156142ed57600191505b6143006142fb8885896141a1565b6141ee565b909550935061431b6101008e01518e61016001518787614ad0565b6001608060020a0319166101008e015260026101608e015160ff1614156143635760018d6101c0018181510160ff1690525060016101a08e018181510360ff16905250614386565b60018d6101c0018181510360ff1690525060016101a08e018181510160ff169052505b5b6001909201916142d3565b5b600101614295565b8115614405576143b78d61010001518e61016001518e8e614ad0565b6001608060020a0319166101008e015260026101608e015160ff1614156143ee5760018d6101c0018181510160ff16905250614400565b60018d6101a0018181510160ff169052505b614411565b60018d528c995061443c565b60016101608e015160ff16141561442f5760026101608e0152614438565b60016101608e01525b8c99505b5050505050505050509392505050565b614454614b92565b61445c614cc2565b60008060008061446a614b92565b614472614cf0565b88610180015160ff16603c148061448f5750886101a0015160ff16155b806144a05750886101c0015160ff16155b156144b85760008952600160208a015288975061377b565b60009550600094505b60408560ff161015614575576144fb89610100015160088060ff89165b06880360ff168115156144ed57fe5b04600860ff89165b06614718565b935060ff84166003141561456957604080519081016040528060088060ff89165b06880360ff1681151561452b57fe5b0460ff1660ff16815260200160088760ff1681151561454657fe5b0660ff90811690915288908816603c811061455d57fe5b60200201526001909501945b5b6001909401936144c1565b6000925060008660ff16111561463057600094505b8560ff168560ff1610801561459d575082155b15614630578660ff8616603c81106145b157fe5b602002015160016101608b015290506145db898260005b60200201518360015b6020020151614229565b9150815115156145ea57600192505b60026101608a0152614615898260006145c8565b60200201518360016145d1565b6020020151614229565b91508151151561462457600192505b5b60019094019361458a565b5b82156146405760018952613777565b600160208a0152600089525b5b8897505b50505050505050919050565b60ff60026000196008850284016040030102165b92915050565b608060020a808304600283900a02908102905b5092915050565b6000808260020a6001608060020a031684608060020a90046001608060020a03168115156146bb57fe5b04905080608060020a0291505b5092915050565b640100000000808304600283900a02908102905b5092915050565b6000808260020a84640100000000900481151561470357fe5b049050806401000000000291505b5092915050565b600080600080600061472a878761465d565b9350700300000000000000000000000000000000925061474a8385614677565b9250828816915061475b8285614691565b608060020a8104955090505b505050509392505050565b61477a614c94565b6000614784614c94565b600061478e614c94565b600080614799614cf0565b60008060009650610100604051908101604052806040805190810160409081526000198252600060208084019190915291835291019080519081016040908152600019825260016020808401919091529183529101908051908101604090815260008252600160208084019190915291835291019080519081016040908152600180835260208084019190915291835291019080519081016040908152600182526000602080840191909152918352910190805190810160409081526001825260001960208084019190915291835291019080519081016040908152600082526000196020808401919091529183529101908051908101604052600019808252602082015290529550600090505b60088160ff161015614970578560ff8216600881106148c257fe5b602002015192508260005b60200201518c0193508260015b60200201518b01945060078560000b13806148f8575060008560000b125b80614906575060078460000b135b80614914575060008460000b125b15156149655761492a8d61010001518587614718565b91508c610160015160ff8381169116146149655760ff821660031461496557828860ff89166008811061495957fe5b60200201526001909601955b5b5b5b6001016148a7565b8787995099505b5050505050505050935093915050565b6000808080808080808080806101608f01519650600160ff168f610160015160ff1614156149b857600295506149bd565b600195505b506000935060015b60098160ff161015614ab757841515614aab578c8e60005b602002015182020193508b8e60015b6020020151820201925060078460000b1380614a0b575060008460000b125b80614a19575060078360000b135b80614a27575060008360000b125b15614a3d57600098506000975060019450614aab565b614a4d8f61010001518585614718565b91508560ff168260ff161415614a7357614a6989898686614b56565b9099509750614aab565b8e610160015160ff168260ff16148015614a90575060018160ff16115b15614a9e5760019450614aab565b6000985060009750600194505b5b5b5b5b6001016149c5565b88889a509a505b50505050505050505094509492505050565b600080600080600060078760ff161115614ae957600080fd5b60078660ff161115614afa57600080fd5b614b04878761465d565b93507003000000000000000000000000000000009250614b248385614677565b89811890991698915050608060020a60ff881602614b428185614677565b905080891794505b50505050949350505050565b60008064010000000060ff6040600886028701011602614b778760076146cf565b811796506001909501948692508591505b5094509492505050565b6101e06040519081016040908152600080835260208301819052908201819052606082018190526080820181905260a0820181905260c0820181905260e08201819052610100820181905261012082018190526101408201819052610160820181905261018082018190526101a082018190526101c082015290565b50805460008255906000526020600020908101906120739190614d3e565b5b50565b8154818355818115116119c9576000838152602090206119c9918101908301614d3e565b5b505050565b8154818355818115116119c95760010160029004816001016002900483600052602060002091820191016119c99190614d3e565b5b505050565b6102006040519081016040526008815b614cac614cf0565b815260200190600190039081614ca45790505090565b610f00604051908101604052603c815b614cda614cf0565b815260200190600190039081614cd25790505090565b604080519081016040526002815b600081526000199091019060200181614cfe5790505090565b604080519081016040526002815b600081526000199091019060200181614cfe5790505090565b61156c91905b80821115614d585760008155600101614d44565b5090565b90565b604080519081016040526002815b600081526000199091019060200181614cfe5790505090565b604080519081016040526002815b600081526000199091019060200181614cfe579050509056006581906c4ca161a8a0b9cc10a2961e33605da10d0e4e36c796a302b2b69bef8ca165627a7a72305820b6f5c972694a92db04c123fcacb6f738430b25e47c450682bf0959e8482f99410029",
  "source": "pragma solidity ^0.4.13;\n\nimport \"zeppelin-solidity/contracts/token/StandardToken.sol\";\nimport \"./Reversi.sol\";\nimport \"./Oracle.sol\";\n\n\n/// @title Clover\n/// @author Billy Rennekamp\n\ncontract ClubToken is StandardToken {\n\n  function ClubToken(address oracleAddress) {\n    oracle = Oracle(oracleAddress);\n    totalSupply = INITIAL_SUPPLY;\n    balances[msg.sender] = INITIAL_SUPPLY;\n    admins[msg.sender] = true;\n    adminKeys.push(msg.sender);\n    owner = msg.sender;\n  }\n\n  // Club Token\n\n  Oracle oracle;\n\n  uint256 public decimals = 0;\n  uint256 public INITIAL_SUPPLY = 1;\n  uint256 payMultiplier = 10;\n  uint256 Symmetricals;\n  uint256 RotSym;\n  uint256 Y0Sym;\n  uint256 X0Sym;\n  uint256 XYSym;\n  uint256 XnYSym;\n  uint256 nameLength = 21;\n  address public owner;\n  string public name = \"ClubToken\";\n  string public symbol = \"\";\n\n\n  // Modifiers\n\n  modifier onlyOwner { if (msg.sender != owner) revert(); _; }\n  modifier onlyAdmin { if (!admins[msg.sender]) revert(); _; }\n  modifier doesNotExist(bytes16 b) { if (clovers[b].exists && clovers[b].validated) revert(); _; }\n  modifier exists(bytes16 b) { if (!clovers[b].exists && clovers[b].validated) revert(); _; }\n  modifier onlyOracle() {if (msg.sender != address(oracle)) revert(); _; }\n\n\n\n  // Events\n\n  event newUserName(address player, string name);\n  event newCloverName(bytes16 board, string name);\n  event Registered(address newOwner, uint256 lastPaidAmount, bytes16 board, bool newBoard, bytes28 first32Moves, bytes28 lastMoves, uint256 modified, uint256 findersFee, bool validated);\n  event newOraclizeQuery(string message);\n  event newOraclizeSubmit(uint8 level);\n\n\n  // Contract Administration\n\n  mapping(address => bool) admins;\n  address[] public adminKeys;\n\n  // Public & Constant\n\n  /// @notice Gets balance\n  /// @dev \n  /// @param _someone Address of the account balance requested\n  /// @return uint balance of address\n\n  function getBalance(address _someone) public constant returns(uint) {\n    return balances[_someone];\n  }\n\n  function myAddress () public constant returns(address) {\n    return msg.sender;\n  }\n\n  function isAdmin () public constant returns(bool) {\n    return admins[msg.sender];\n  }  \n\n  function getTallys() public constant returns(uint256, uint256, uint256, uint256, uint256, uint256, uint256) {\n    return (Symmetricals, RotSym, Y0Sym, X0Sym, XYSym, XnYSym, payMultiplier);\n  }\n\n  function changeNameLength (uint256 len) public onlyAdmin() {\n    nameLength = len;\n  }\n\n  function addAdmin (address newbie) public onlyAdmin() {\n    if (!admins[msg.sender]) revert();\n    admins[newbie] = true;\n    adminKeys.push(newbie);\n  }\n\n  function updateMultiplier(uint256 multiplier) public onlyAdmin(){\n    payMultiplier = multiplier;\n  }\n\n\n\n\n  // Player Management\n\n  struct Player {\n    bool exists;\n    uint currentCount;\n    bytes16[] cloverKeys;\n    mapping(bytes16 => bool) clovers;\n  }\n\n  mapping(address => Player) public players;\n  address[] public playerKeys;\n\n  // Public & Constant\n\n  function listPlayerCount() public constant returns(uint) {\n    return playerKeys.length;\n  }\n\n  function playerAddressByKey(uint playerKey) public constant returns(address) {\n    return playerKeys[playerKey];\n  }\n\n  function playerExists(address player) public constant returns(bool) {\n    return players[player].exists;\n  }\n\n  function playerCurrentCount(address player) public constant returns(uint) {\n    return players[player].currentCount;\n  }\n\n  function playerAllCount(address player) public constant returns(uint) {\n    return players[player].cloverKeys.length;\n  }\n\n  function playerCloverByKey(address player, uint cloverKey) public constant returns(bytes16) {\n    return players[player].cloverKeys[cloverKey];\n  }\n\n  function playerOwnsClover(address player, bytes16 board) public constant returns(bool) {\n    return players[player].clovers[board];\n  }\n\n  // Public & Transactional\n\n  function changeName (string name) public {\n    if (bytes(name).length > nameLength) revert();\n    newUserName(msg.sender, name);\n  }\n\n\n  // Internal & Transactional\n\n  function addCloverToPlayer (bytes16 board) internal {\n    if (!players[msg.sender].clovers[board]) {\n      players[msg.sender].clovers[board] = true;\n      players[msg.sender].cloverKeys.push(board);\n    }\n    players[msg.sender].currentCount += 1;\n  }\n\n  function registerPlayer() {\n    registerPlayerExplicit(msg.sender);\n  }\n\n  function registerPlayerExplicit(address player) {\n    if (!players[player].exists) {\n      players[player].exists = true;\n      playerKeys.push(player);\n    }\n  }\n\n\n\n  // Clover Management\n\n  struct Clover {\n    bool exists;\n    bool validated;\n    bytes28 first32Moves;\n    bytes28 lastMoves;\n    uint256 lastPaidAmount;\n    uint256 findersFee;\n    uint256 created;\n    uint256 modified;\n    address[] previousOwners;\n  }\n\n  mapping (bytes16 => Clover) public clovers;\n  bytes16[] public cloverKeys;\n\n  // Public & Constant\n\n  function cloverValid(bytes16 b) public constant returns(bool) {\n    return clovers[b].validated;\n  }\n\n  function cloverExistsUnvalidated(bytes16 b) public constant returns(bool) {\n    return clovers[b].exists && !cloverValid(b);\n  }\n\n  function cloverExists(bytes16 b) public constant returns(bool) {\n    return clovers[b].exists && cloverValid(b);\n  }\n\n  function getCloversCount() public constant returns(uint) {\n    return cloverKeys.length;\n  }\n\n  function getCloverByKey (uint boardKey) public constant returns(bytes16, uint lastPaidAmount, uint owners, address lastOwner, bytes28 first32Moves, bytes28 lastMoves) {\n    bytes16 board = cloverKeys[boardKey];\n    return getClover(board);\n  }\n\n  function getClover (bytes16 board) public constant exists(board) returns(bytes16, uint lastPaidAmount, uint ownersLength, address lastOwner, bytes28 first32Moves, bytes28 lastMoves) {\n    return (board, clovers[board].lastPaidAmount, clovers[board].previousOwners.length, clovers[board].previousOwners[clovers[board].previousOwners.length - 1], clovers[board].first32Moves, clovers[board].lastMoves);\n  }\n\n  function getCloverOwnersLength(bytes16 board) public constant exists(board) returns(uint256) {\n    return clovers[board].previousOwners.length;\n  }\n\n  function getCloverOwner(bytes16 board) public constant exists(board) returns(address previousOwner) {\n    return clovers[board].previousOwners[ clovers[board].previousOwners.length - 1 ];\n  }\n\n  function getCloverOwnerAtKeyByBoard(bytes16 board, uint ownerKey) public constant exists(board) returns(address previousOwner) {\n    return clovers[board].previousOwners[ownerKey];\n  }\n\n  function getCloverOwnerAtKeyByBoardKey(uint boardKey, uint ownerKey) public constant returns(address previousOwner) {\n    bytes16 board = cloverKeys[boardKey];\n    if(!cloverExists(board)) revert();\n    return clovers[board].previousOwners[ownerKey];\n  }\n\n  // Public & Transactional\n\n  function deleteClover (bytes16 board) public onlyOracle() {\n    delete clovers[board];\n  }\n\n  function renameClover(bytes16 board, string name) public exists(board) {\n    if (bytes(name).length > nameLength) revert();\n    if (clovers[board].previousOwners[clovers[board].previousOwners.length - 1] != msg.sender) revert();\n    newCloverName(board, name);\n  }\n\n  function changeStartPrice(bytes16 board, uint256 startPrice) public exists(board) {\n    if(clovers[board].previousOwners[0] != msg.sender) revert();\n    if(clovers[board].previousOwners.length > 1) revert();\n    Registered(msg.sender, startPrice, board, true, clovers[board].first32Moves, clovers[board].lastMoves, now, clovers[board].findersFee, true);\n    clovers[board].lastPaidAmount = startPrice;\n  }\n\n  function oracleMineClover(bytes16 board, bytes28 first32Moves, bytes28 lastMoves, uint256 startPrice, string endpoint, string payload) public {\n    oracle.mineClover1(board, msg.sender, endpoint, payload);\n    claimClover(board, first32Moves, lastMoves, startPrice);\n  }\n  // function oracleMineClover2(bytes16 board, bytes28 first32Moves, bytes28 lastMoves, uint256 startPrice, string payload) public {\n  //   oracle.mineClover2(board, first32Moves, lastMoves, startPrice, payload);\n  // }\n\n  function mineClover(bytes28 first32Moves, bytes28 lastMoves, uint256 startPrice) public {\n    Reversi.Game memory game = Reversi.playGame(first32Moves, lastMoves);\n    saveGame(game, startPrice);\n  }\n\n  function adminMineClover (bytes28 first32Moves, bytes28 lastMoves, bytes16 board, uint startPrice) public doesNotExist(board) onlyAdmin() {\n    registerPlayer();\n    addCloverToPlayer(game.board);\n    Reversi.Game memory game;\n    game.board = board;\n\n    game = Reversi.isSymmetrical(game);\n    if (game.symmetrical) {\n      clovers[board].findersFee = findersFee(game);\n      balances[msg.sender] += clovers[board].findersFee;\n      totalSupply += clovers[board].findersFee;\n      addToSymmTallys(game);\n    }\n    clovers[board].first32Moves = first32Moves;\n    clovers[board].lastMoves = lastMoves;\n    clovers[board].previousOwners.push(msg.sender);\n    clovers[board].lastPaidAmount = startPrice;\n    clovers[board].exists = true;\n    clovers[board].created = now;\n    clovers[board].modified = now;\n    clovers[board].validated = true;\n    Registered(msg.sender, startPrice, board, true, first32Moves, lastMoves, now, clovers[board].findersFee, true);\n    cloverKeys.push(board);\n  }\n\n  function flipClover (bytes16 b) exists(b) public {\n    // every clover asset is for sale determined on an initial start price\n    // if that clover is purchased, the proceeds are divided evenly among the last two buyers\n    // cant flip board you currently own\n    if (clovers[b].previousOwners[ clovers[b].previousOwners.length - 1 ] == msg.sender) revert();\n    uint nextPrice = clovers[b].previousOwners.length == 1 ? clovers[b].lastPaidAmount : clovers[b].lastPaidAmount.mul(2);\n    if (balances[msg.sender] < nextPrice) revert();\n    registerPlayer();\n    for (uint8 i = 1; i < 3; i++) {\n      if (i <= clovers[b].previousOwners.length) {\n        uint256 lastOwnerKey = clovers[b].previousOwners.length - uint(i);\n        address lastOwner = clovers[b].previousOwners[ lastOwnerKey ];\n\n        balances[msg.sender] = balances[msg.sender].sub(clovers[b].lastPaidAmount);\n\n        balances[lastOwner] = balances[lastOwner].add(clovers[b].lastPaidAmount);\n        if (i == 1) {\n          players[lastOwner].currentCount -= 1;\n        }\n      }\n    }\n    addCloverToPlayer(b);\n    clovers[b].previousOwners.push(msg.sender);\n    clovers[b].lastPaidAmount = nextPrice;\n    clovers[b].modified = now;\n    Registered(msg.sender, nextPrice, b, false, clovers[b].first32Moves, clovers[b].lastMoves, clovers[b].modified, clovers[b].findersFee, true);\n  }\n\n\n  // Game Management\n\n  // see ./Reversi.sol for playGame(), isSymmetrical() and Game struct\n\n  // Public & Constant\n\n  function gameIsValid(bytes28 first32Moves, bytes28 lastMoves) public constant returns(bool) {\n    Reversi.Game memory game = Reversi.playGame(first32Moves, lastMoves);\n    if (game.error) return false;\n    if (!game.complete) return false;\n    if (!game.symmetrical) return false;\n    return true;\n  }\n\n  function gameExists(bytes28 first32Moves, bytes28 lastMoves) public constant returns(bool) {\n    Reversi.Game memory game = Reversi.playGame(first32Moves, lastMoves);\n    if (game.error) revert();\n    if (!game.complete) revert();\n    return cloverExists(game.board);\n  }\n\n  function showGame(bytes28 first32Moves, bytes28 lastMoves) public constant returns(bool error, bool complete, bool symmetrical, bool RotSym, bool Y0Sym, bool X0Sym, bool XYSym, bool XnYSym) {\n    Reversi.Game memory game = Reversi.playGame(first32Moves, lastMoves);\n    return returnGame(game);\n  }\n\n  function showGame2(bytes28 first32Moves, bytes28 lastMoves) public constant returns(bytes16 board, uint8 blackScore, uint8 whiteScore, uint8 currentPlayer, uint8 moveKey) {\n    Reversi.Game memory game = Reversi.playGame(first32Moves, lastMoves);\n    return (game.board, game.blackScore, game.whiteScore, game.currentPlayer, game.moveKey);\n  }\n\n  function getSymmetry(bytes16 b) public constant returns(bool error, bool complete, bool symmetrical, bool RotSym, bool Y0Sym, bool X0Sym, bool XYSym, bool XnYSym) {\n    Reversi.Game memory game;\n    game.board = b;\n    game = Reversi.isSymmetrical(game);\n    return returnGame(game);\n  }\n\n  function getFindersFee(bytes16 b) public constant returns(uint256) {\n    Reversi.Game memory game;\n    game.board = b;\n    game = Reversi.isSymmetrical(game);\n    return findersFee(game);\n  }\n\n  // Public & Transactional\n\n  function debugGame(bytes28 first32Moves, bytes28 lastMoves) public {\n    Reversi.Game memory game = Reversi.playGame(first32Moves, lastMoves);\n  }\n\n  // Internal & Transactional\n\n  function returnGame(Reversi.Game game) internal returns(bool error, bool complete, bool symmetrical, bool RotSym, bool Y0Sym, bool X0Sym, bool XYSym, bool XnYSym) {\n    return (game.error, game.complete, game.symmetrical, game.RotSym, game.Y0Sym, game.X0Sym, game.XYSym, game.XnYSym);\n  }\n\n  function saveGame(Reversi.Game game, uint256 startPrice) internal {\n    if (game.error) revert();\n    if (!game.complete) revert();\n    if (cloverExists(game.board)) revert();\n    \n    registerPlayer();\n    addCloverToPlayer(game.board);\n    clovers[game.board].first32Moves = game.first32Moves;\n    clovers[game.board].lastMoves = game.lastMoves;\n    clovers[game.board].previousOwners.push(msg.sender);\n    clovers[game.board].lastPaidAmount = startPrice;\n    clovers[game.board].exists = true;\n    clovers[game.board].created = now;\n    clovers[game.board].modified = now;\n    clovers[game.board].validated = true;\n    if (game.symmetrical) {\n      clovers[game.board].findersFee = findersFee(game);\n      balances[msg.sender] += clovers[game.board].findersFee;\n      totalSupply += clovers[game.board].findersFee;\n      addToSymmTallys(game);\n    }\n    Registered(msg.sender, startPrice, game.board, true, game.first32Moves, game.lastMoves, now, clovers[game.board].findersFee, true);\n    cloverKeys.push(game.board);\n  }\n\n  function addToSymmTallys (Reversi.Game game) internal {\n    if (game.symmetrical) Symmetricals += 1;\n    if (game.RotSym) RotSym += 1;\n    if (game.Y0Sym) Y0Sym += 1;\n    if (game.X0Sym) X0Sym += 1;\n    if (game.XYSym) XYSym += 1;\n    if (game.XnYSym) XnYSym += 1;\n  }\n\n  function findersFee (Reversi.Game game) internal constant returns(uint256) {\n    uint256 base = 0;\n\n    if (game.RotSym) base = base.add( payMultiplier.mul( Symmetricals + 1 ).div( RotSym + 1 ) );\n    if (game.Y0Sym) base = base.add( payMultiplier.mul( Symmetricals + 1 ).div( Y0Sym + 1 ) );\n    if (game.X0Sym) base = base.add( payMultiplier.mul( Symmetricals + 1 ).div( X0Sym + 1 ) );\n    if (game.XYSym) base = base.add( payMultiplier.mul( Symmetricals + 1 ).div( XYSym + 1 ) );\n    if (game.XnYSym) base = base.add( payMultiplier.mul( Symmetricals + 1 ).div( XnYSym + 1 ) );\n\n    return base;\n  }\n\n\n\n  // Oracle Management\n\n  // Public & Constant\n\n  function getClubTokenAddress () public constant returns(address) {\n    return oracle.getClubTokenAddress();\n  }\n\n  function getOracleHash () public constant returns(bytes32) {\n    return oracle.getOracleHash();\n  }\n\n  // Public & Transactional\n\n  function deposit () public payable {\n    oracle.deposit();\n  }\n\n  function setClubToken () public onlyAdmin() {\n    oracle.setClubToken(this);\n  }\n\n  function setOracleHash (string endpoint) public onlyAdmin() {\n    oracle.setOracleHash(endpoint);\n  }\n\n  function oracleAddClover (bytes16 board, address player) public onlyOracle() {\n    registerPlayerExplicit(player);\n    if (!players[player].clovers[board]) {\n      players[player].clovers[board] = true;\n      players[player].cloverKeys.push(board);\n    }\n    players[player].currentCount += 1;\n\n    balances[player] += clovers[board].findersFee;\n    clovers[board].validated = true;\n    clovers[board].previousOwners.push(player);\n\n    cloverKeys.push(board);  \n    Registered(player, clovers[board].lastPaidAmount, board, true, clovers[board].first32Moves, clovers[board].lastMoves, now, clovers[board].findersFee, true);\n  }\n\n  function claimClover (bytes16 board, bytes28 first32Moves, bytes28 lastMoves, uint256 startPrice) public doesNotExist(board) {\n    delete clovers[board];\n    clovers[board].findersFee = getFindersFee(board);\n    clovers[board].first32Moves = first32Moves;\n    clovers[board].lastMoves = lastMoves;\n    clovers[board].lastPaidAmount = startPrice;\n    clovers[board].exists = true;\n    clovers[board].validated = false;\n    Registered(msg.sender, clovers[board].lastPaidAmount, board, true, clovers[board].first32Moves, clovers[board].lastMoves, now, clovers[board].findersFee, false);\n  }\n\n}",
  "sourcePath": "/Users/billy/vue/clovers-dapp/contracts/ClubToken.sol",
  "schemaVersion": "1.0.0",
  "updatedAt": "2017-10-08T11:17:34.867Z"
}