{
  "contractName": "OldToken",
  "abi": [
    {
      "constant": true,
      "inputs": [
        {
          "name": "",
          "type": "bytes16"
        }
      ],
      "name": "clovers",
      "outputs": [
        {
          "name": "exists",
          "type": "bool"
        },
        {
          "name": "first32Moves",
          "type": "bytes28"
        },
        {
          "name": "lastMoves",
          "type": "bytes28"
        },
        {
          "name": "lastPaidAmount",
          "type": "uint256"
        },
        {
          "name": "findersFee",
          "type": "uint256"
        },
        {
          "name": "created",
          "type": "uint256"
        },
        {
          "name": "modified",
          "type": "uint256"
        }
      ],
      "payable": false,
      "stateMutability": "view",
      "type": "function"
    },
    {
      "constant": true,
      "inputs": [],
      "name": "name",
      "outputs": [
        {
          "name": "",
          "type": "string"
        }
      ],
      "payable": false,
      "stateMutability": "view",
      "type": "function"
    },
    {
      "constant": false,
      "inputs": [
        {
          "name": "_spender",
          "type": "address"
        },
        {
          "name": "_value",
          "type": "uint256"
        }
      ],
      "name": "approve",
      "outputs": [
        {
          "name": "",
          "type": "bool"
        }
      ],
      "payable": false,
      "stateMutability": "nonpayable",
      "type": "function"
    },
    {
      "constant": true,
      "inputs": [],
      "name": "totalSupply",
      "outputs": [
        {
          "name": "",
          "type": "uint256"
        }
      ],
      "payable": false,
      "stateMutability": "view",
      "type": "function"
    },
    {
      "constant": false,
      "inputs": [
        {
          "name": "_from",
          "type": "address"
        },
        {
          "name": "_to",
          "type": "address"
        },
        {
          "name": "_value",
          "type": "uint256"
        }
      ],
      "name": "transferFrom",
      "outputs": [
        {
          "name": "",
          "type": "bool"
        }
      ],
      "payable": false,
      "stateMutability": "nonpayable",
      "type": "function"
    },
    {
      "constant": true,
      "inputs": [],
      "name": "INITIAL_SUPPLY",
      "outputs": [
        {
          "name": "",
          "type": "uint256"
        }
      ],
      "payable": false,
      "stateMutability": "view",
      "type": "function"
    },
    {
      "constant": true,
      "inputs": [],
      "name": "decimals",
      "outputs": [
        {
          "name": "",
          "type": "uint256"
        }
      ],
      "payable": false,
      "stateMutability": "view",
      "type": "function"
    },
    {
      "constant": false,
      "inputs": [
        {
          "name": "_spender",
          "type": "address"
        },
        {
          "name": "_subtractedValue",
          "type": "uint256"
        }
      ],
      "name": "decreaseApproval",
      "outputs": [
        {
          "name": "",
          "type": "bool"
        }
      ],
      "payable": false,
      "stateMutability": "nonpayable",
      "type": "function"
    },
    {
      "constant": true,
      "inputs": [
        {
          "name": "_owner",
          "type": "address"
        }
      ],
      "name": "balanceOf",
      "outputs": [
        {
          "name": "balance",
          "type": "uint256"
        }
      ],
      "payable": false,
      "stateMutability": "view",
      "type": "function"
    },
    {
      "constant": true,
      "inputs": [],
      "name": "owner",
      "outputs": [
        {
          "name": "",
          "type": "address"
        }
      ],
      "payable": false,
      "stateMutability": "view",
      "type": "function"
    },
    {
      "constant": true,
      "inputs": [
        {
          "name": "",
          "type": "uint256"
        }
      ],
      "name": "playerKeys",
      "outputs": [
        {
          "name": "",
          "type": "address"
        }
      ],
      "payable": false,
      "stateMutability": "view",
      "type": "function"
    },
    {
      "constant": true,
      "inputs": [],
      "name": "symbol",
      "outputs": [
        {
          "name": "",
          "type": "string"
        }
      ],
      "payable": false,
      "stateMutability": "view",
      "type": "function"
    },
    {
      "constant": false,
      "inputs": [
        {
          "name": "_to",
          "type": "address"
        },
        {
          "name": "_value",
          "type": "uint256"
        }
      ],
      "name": "transfer",
      "outputs": [
        {
          "name": "",
          "type": "bool"
        }
      ],
      "payable": false,
      "stateMutability": "nonpayable",
      "type": "function"
    },
    {
      "constant": true,
      "inputs": [
        {
          "name": "",
          "type": "uint256"
        }
      ],
      "name": "adminKeys",
      "outputs": [
        {
          "name": "",
          "type": "address"
        }
      ],
      "payable": false,
      "stateMutability": "view",
      "type": "function"
    },
    {
      "constant": false,
      "inputs": [
        {
          "name": "_spender",
          "type": "address"
        },
        {
          "name": "_addedValue",
          "type": "uint256"
        }
      ],
      "name": "increaseApproval",
      "outputs": [
        {
          "name": "",
          "type": "bool"
        }
      ],
      "payable": false,
      "stateMutability": "nonpayable",
      "type": "function"
    },
    {
      "constant": true,
      "inputs": [
        {
          "name": "_owner",
          "type": "address"
        },
        {
          "name": "_spender",
          "type": "address"
        }
      ],
      "name": "allowance",
      "outputs": [
        {
          "name": "",
          "type": "uint256"
        }
      ],
      "payable": false,
      "stateMutability": "view",
      "type": "function"
    },
    {
      "constant": true,
      "inputs": [
        {
          "name": "",
          "type": "address"
        }
      ],
      "name": "players",
      "outputs": [
        {
          "name": "exists",
          "type": "bool"
        },
        {
          "name": "currentCount",
          "type": "uint256"
        }
      ],
      "payable": false,
      "stateMutability": "view",
      "type": "function"
    },
    {
      "constant": true,
      "inputs": [
        {
          "name": "",
          "type": "uint256"
        }
      ],
      "name": "cloverKeys",
      "outputs": [
        {
          "name": "",
          "type": "bytes16"
        }
      ],
      "payable": false,
      "stateMutability": "view",
      "type": "function"
    },
    {
      "inputs": [],
      "payable": false,
      "stateMutability": "nonpayable",
      "type": "constructor"
    },
    {
      "anonymous": false,
      "inputs": [
        {
          "indexed": false,
          "name": "player",
          "type": "address"
        },
        {
          "indexed": false,
          "name": "name",
          "type": "string"
        }
      ],
      "name": "newUserName",
      "type": "event"
    },
    {
      "anonymous": false,
      "inputs": [
        {
          "indexed": false,
          "name": "board",
          "type": "bytes16"
        },
        {
          "indexed": false,
          "name": "name",
          "type": "string"
        }
      ],
      "name": "newCloverName",
      "type": "event"
    },
    {
      "anonymous": false,
      "inputs": [
        {
          "indexed": false,
          "name": "newOwner",
          "type": "address"
        },
        {
          "indexed": false,
          "name": "lastPaidAmount",
          "type": "uint256"
        },
        {
          "indexed": false,
          "name": "board",
          "type": "bytes16"
        },
        {
          "indexed": false,
          "name": "newBoard",
          "type": "bool"
        },
        {
          "indexed": false,
          "name": "first32Moves",
          "type": "bytes28"
        },
        {
          "indexed": false,
          "name": "lastMoves",
          "type": "bytes28"
        },
        {
          "indexed": false,
          "name": "modified",
          "type": "uint256"
        },
        {
          "indexed": false,
          "name": "findersFee",
          "type": "uint256"
        }
      ],
      "name": "Registered",
      "type": "event"
    },
    {
      "anonymous": false,
      "inputs": [
        {
          "indexed": true,
          "name": "owner",
          "type": "address"
        },
        {
          "indexed": true,
          "name": "spender",
          "type": "address"
        },
        {
          "indexed": false,
          "name": "value",
          "type": "uint256"
        }
      ],
      "name": "Approval",
      "type": "event"
    },
    {
      "anonymous": false,
      "inputs": [
        {
          "indexed": true,
          "name": "from",
          "type": "address"
        },
        {
          "indexed": true,
          "name": "to",
          "type": "address"
        },
        {
          "indexed": false,
          "name": "value",
          "type": "uint256"
        }
      ],
      "name": "Transfer",
      "type": "event"
    },
    {
      "constant": true,
      "inputs": [
        {
          "name": "someone",
          "type": "address"
        }
      ],
      "name": "getBalance",
      "outputs": [
        {
          "name": "",
          "type": "uint256"
        }
      ],
      "payable": false,
      "stateMutability": "view",
      "type": "function"
    },
    {
      "constant": true,
      "inputs": [],
      "name": "myAddress",
      "outputs": [
        {
          "name": "",
          "type": "address"
        }
      ],
      "payable": false,
      "stateMutability": "view",
      "type": "function"
    },
    {
      "constant": true,
      "inputs": [],
      "name": "isAdmin",
      "outputs": [
        {
          "name": "",
          "type": "bool"
        }
      ],
      "payable": false,
      "stateMutability": "view",
      "type": "function"
    },
    {
      "constant": true,
      "inputs": [],
      "name": "adminLen",
      "outputs": [
        {
          "name": "",
          "type": "uint256"
        }
      ],
      "payable": false,
      "stateMutability": "view",
      "type": "function"
    },
    {
      "constant": true,
      "inputs": [
        {
          "name": "key",
          "type": "uint256"
        }
      ],
      "name": "adminAt",
      "outputs": [
        {
          "name": "",
          "type": "address"
        }
      ],
      "payable": false,
      "stateMutability": "view",
      "type": "function"
    },
    {
      "constant": true,
      "inputs": [],
      "name": "getTallys",
      "outputs": [
        {
          "name": "",
          "type": "uint256"
        },
        {
          "name": "",
          "type": "uint256"
        },
        {
          "name": "",
          "type": "uint256"
        },
        {
          "name": "",
          "type": "uint256"
        },
        {
          "name": "",
          "type": "uint256"
        },
        {
          "name": "",
          "type": "uint256"
        },
        {
          "name": "",
          "type": "uint256"
        }
      ],
      "payable": false,
      "stateMutability": "view",
      "type": "function"
    },
    {
      "constant": false,
      "inputs": [
        {
          "name": "len",
          "type": "uint256"
        }
      ],
      "name": "changeNameLength",
      "outputs": [],
      "payable": false,
      "stateMutability": "nonpayable",
      "type": "function"
    },
    {
      "constant": false,
      "inputs": [
        {
          "name": "newbie",
          "type": "address"
        }
      ],
      "name": "addAdmin",
      "outputs": [],
      "payable": false,
      "stateMutability": "nonpayable",
      "type": "function"
    },
    {
      "constant": false,
      "inputs": [
        {
          "name": "multiplier",
          "type": "uint256"
        }
      ],
      "name": "updateMultiplier",
      "outputs": [],
      "payable": false,
      "stateMutability": "nonpayable",
      "type": "function"
    },
    {
      "constant": false,
      "inputs": [
        {
          "name": "name",
          "type": "string"
        }
      ],
      "name": "changeName",
      "outputs": [],
      "payable": false,
      "stateMutability": "nonpayable",
      "type": "function"
    },
    {
      "constant": true,
      "inputs": [],
      "name": "listPlayerCount",
      "outputs": [
        {
          "name": "",
          "type": "uint256"
        }
      ],
      "payable": false,
      "stateMutability": "view",
      "type": "function"
    },
    {
      "constant": true,
      "inputs": [
        {
          "name": "playerKey",
          "type": "uint256"
        }
      ],
      "name": "playerAddressByKey",
      "outputs": [
        {
          "name": "",
          "type": "address"
        }
      ],
      "payable": false,
      "stateMutability": "view",
      "type": "function"
    },
    {
      "constant": true,
      "inputs": [
        {
          "name": "player",
          "type": "address"
        }
      ],
      "name": "playerExists",
      "outputs": [
        {
          "name": "",
          "type": "bool"
        }
      ],
      "payable": false,
      "stateMutability": "view",
      "type": "function"
    },
    {
      "constant": true,
      "inputs": [
        {
          "name": "player",
          "type": "address"
        }
      ],
      "name": "playerCurrentCount",
      "outputs": [
        {
          "name": "",
          "type": "uint256"
        }
      ],
      "payable": false,
      "stateMutability": "view",
      "type": "function"
    },
    {
      "constant": true,
      "inputs": [
        {
          "name": "player",
          "type": "address"
        }
      ],
      "name": "playerAllCount",
      "outputs": [
        {
          "name": "",
          "type": "uint256"
        }
      ],
      "payable": false,
      "stateMutability": "view",
      "type": "function"
    },
    {
      "constant": true,
      "inputs": [
        {
          "name": "player",
          "type": "address"
        },
        {
          "name": "cloverKey",
          "type": "uint256"
        }
      ],
      "name": "playerCloverByKey",
      "outputs": [
        {
          "name": "",
          "type": "bytes16"
        }
      ],
      "payable": false,
      "stateMutability": "view",
      "type": "function"
    },
    {
      "constant": true,
      "inputs": [
        {
          "name": "player",
          "type": "address"
        },
        {
          "name": "board",
          "type": "bytes16"
        }
      ],
      "name": "playerOwnsClover",
      "outputs": [
        {
          "name": "",
          "type": "bool"
        }
      ],
      "payable": false,
      "stateMutability": "view",
      "type": "function"
    },
    {
      "constant": true,
      "inputs": [
        {
          "name": "b",
          "type": "bytes16"
        }
      ],
      "name": "cloverExists",
      "outputs": [
        {
          "name": "",
          "type": "bool"
        }
      ],
      "payable": false,
      "stateMutability": "view",
      "type": "function"
    },
    {
      "constant": true,
      "inputs": [],
      "name": "getCloversCount",
      "outputs": [
        {
          "name": "",
          "type": "uint256"
        }
      ],
      "payable": false,
      "stateMutability": "view",
      "type": "function"
    },
    {
      "constant": true,
      "inputs": [
        {
          "name": "boardKey",
          "type": "uint256"
        }
      ],
      "name": "getCloverByKey",
      "outputs": [
        {
          "name": "",
          "type": "bytes16"
        },
        {
          "name": "lastPaidAmount",
          "type": "uint256"
        },
        {
          "name": "owners",
          "type": "uint256"
        },
        {
          "name": "lastOwner",
          "type": "address"
        },
        {
          "name": "first32Moves",
          "type": "bytes28"
        },
        {
          "name": "lastMoves",
          "type": "bytes28"
        }
      ],
      "payable": false,
      "stateMutability": "view",
      "type": "function"
    },
    {
      "constant": true,
      "inputs": [
        {
          "name": "board",
          "type": "bytes16"
        }
      ],
      "name": "getClover",
      "outputs": [
        {
          "name": "",
          "type": "bytes16"
        },
        {
          "name": "lastPaidAmount",
          "type": "uint256"
        },
        {
          "name": "ownersLength",
          "type": "uint256"
        },
        {
          "name": "lastOwner",
          "type": "address"
        },
        {
          "name": "first32Moves",
          "type": "bytes28"
        },
        {
          "name": "lastMoves",
          "type": "bytes28"
        }
      ],
      "payable": false,
      "stateMutability": "view",
      "type": "function"
    },
    {
      "constant": true,
      "inputs": [
        {
          "name": "board",
          "type": "bytes16"
        }
      ],
      "name": "getCloverOwnersLength",
      "outputs": [
        {
          "name": "",
          "type": "uint256"
        }
      ],
      "payable": false,
      "stateMutability": "view",
      "type": "function"
    },
    {
      "constant": true,
      "inputs": [
        {
          "name": "board",
          "type": "bytes16"
        }
      ],
      "name": "getCloverOwner",
      "outputs": [
        {
          "name": "",
          "type": "bytes16"
        },
        {
          "name": "previousOwner",
          "type": "address"
        }
      ],
      "payable": false,
      "stateMutability": "view",
      "type": "function"
    },
    {
      "constant": true,
      "inputs": [
        {
          "name": "board",
          "type": "bytes16"
        },
        {
          "name": "ownerKey",
          "type": "uint256"
        }
      ],
      "name": "getCloverOwnerAtKeyByBoard",
      "outputs": [
        {
          "name": "",
          "type": "bytes16"
        },
        {
          "name": "previousOwner",
          "type": "address"
        }
      ],
      "payable": false,
      "stateMutability": "view",
      "type": "function"
    },
    {
      "constant": true,
      "inputs": [
        {
          "name": "boardKey",
          "type": "uint256"
        },
        {
          "name": "ownerKey",
          "type": "uint256"
        }
      ],
      "name": "getCloverOwnerAtKeyByBoardKey",
      "outputs": [
        {
          "name": "",
          "type": "bytes16"
        },
        {
          "name": "previousOwner",
          "type": "address"
        }
      ],
      "payable": false,
      "stateMutability": "view",
      "type": "function"
    },
    {
      "constant": false,
      "inputs": [
        {
          "name": "board",
          "type": "bytes16"
        },
        {
          "name": "name",
          "type": "string"
        }
      ],
      "name": "renameClover",
      "outputs": [],
      "payable": false,
      "stateMutability": "nonpayable",
      "type": "function"
    },
    {
      "constant": false,
      "inputs": [
        {
          "name": "board",
          "type": "bytes16"
        },
        {
          "name": "startPrice",
          "type": "uint256"
        }
      ],
      "name": "changeStartPrice",
      "outputs": [],
      "payable": false,
      "stateMutability": "nonpayable",
      "type": "function"
    },
    {
      "constant": false,
      "inputs": [
        {
          "name": "first32Moves",
          "type": "bytes28"
        },
        {
          "name": "lastMoves",
          "type": "bytes28"
        },
        {
          "name": "startPrice",
          "type": "uint256"
        }
      ],
      "name": "mineClover",
      "outputs": [],
      "payable": false,
      "stateMutability": "nonpayable",
      "type": "function"
    },
    {
      "constant": false,
      "inputs": [
        {
          "name": "first32Moves",
          "type": "bytes28"
        },
        {
          "name": "lastMoves",
          "type": "bytes28"
        },
        {
          "name": "board",
          "type": "bytes16"
        },
        {
          "name": "startPrice",
          "type": "uint256"
        }
      ],
      "name": "adminMineClover",
      "outputs": [
        {
          "name": "boardKey",
          "type": "uint256"
        }
      ],
      "payable": false,
      "stateMutability": "nonpayable",
      "type": "function"
    },
    {
      "constant": false,
      "inputs": [
        {
          "name": "b",
          "type": "bytes16"
        }
      ],
      "name": "flipClover",
      "outputs": [],
      "payable": false,
      "stateMutability": "nonpayable",
      "type": "function"
    },
    {
      "constant": true,
      "inputs": [
        {
          "name": "first32Moves",
          "type": "bytes28"
        },
        {
          "name": "lastMoves",
          "type": "bytes28"
        }
      ],
      "name": "gameIsValid",
      "outputs": [
        {
          "name": "",
          "type": "bool"
        }
      ],
      "payable": false,
      "stateMutability": "view",
      "type": "function"
    },
    {
      "constant": true,
      "inputs": [
        {
          "name": "first32Moves",
          "type": "bytes28"
        },
        {
          "name": "lastMoves",
          "type": "bytes28"
        }
      ],
      "name": "gameExists",
      "outputs": [
        {
          "name": "",
          "type": "bool"
        }
      ],
      "payable": false,
      "stateMutability": "view",
      "type": "function"
    },
    {
      "constant": false,
      "inputs": [
        {
          "name": "first32Moves",
          "type": "bytes28"
        },
        {
          "name": "lastMoves",
          "type": "bytes28"
        }
      ],
      "name": "debugGame",
      "outputs": [],
      "payable": false,
      "stateMutability": "nonpayable",
      "type": "function"
    },
    {
      "constant": true,
      "inputs": [
        {
          "name": "first32Moves",
          "type": "bytes28"
        },
        {
          "name": "lastMoves",
          "type": "bytes28"
        }
      ],
      "name": "showGame",
      "outputs": [
        {
          "name": "error",
          "type": "bool"
        },
        {
          "name": "complete",
          "type": "bool"
        },
        {
          "name": "symmetrical",
          "type": "bool"
        },
        {
          "name": "RotSym",
          "type": "bool"
        },
        {
          "name": "Y0Sym",
          "type": "bool"
        },
        {
          "name": "X0Sym",
          "type": "bool"
        },
        {
          "name": "XYSym",
          "type": "bool"
        },
        {
          "name": "XnYSym",
          "type": "bool"
        }
      ],
      "payable": false,
      "stateMutability": "view",
      "type": "function"
    },
    {
      "constant": true,
      "inputs": [
        {
          "name": "first32Moves",
          "type": "bytes28"
        },
        {
          "name": "lastMoves",
          "type": "bytes28"
        }
      ],
      "name": "showGame2",
      "outputs": [
        {
          "name": "board",
          "type": "bytes16"
        },
        {
          "name": "blackScore",
          "type": "uint8"
        },
        {
          "name": "whiteScore",
          "type": "uint8"
        },
        {
          "name": "currentPlayer",
          "type": "uint8"
        },
        {
          "name": "moveKey",
          "type": "uint8"
        }
      ],
      "payable": false,
      "stateMutability": "view",
      "type": "function"
    },
    {
      "constant": true,
      "inputs": [
        {
          "name": "b",
          "type": "bytes16"
        }
      ],
      "name": "getSymmetry",
      "outputs": [
        {
          "name": "error",
          "type": "bool"
        },
        {
          "name": "complete",
          "type": "bool"
        },
        {
          "name": "symmetrical",
          "type": "bool"
        },
        {
          "name": "RotSym",
          "type": "bool"
        },
        {
          "name": "Y0Sym",
          "type": "bool"
        },
        {
          "name": "X0Sym",
          "type": "bool"
        },
        {
          "name": "XYSym",
          "type": "bool"
        },
        {
          "name": "XnYSym",
          "type": "bool"
        }
      ],
      "payable": false,
      "stateMutability": "view",
      "type": "function"
    },
    {
      "constant": true,
      "inputs": [
        {
          "name": "b",
          "type": "bytes16"
        }
      ],
      "name": "getFindersFee",
      "outputs": [
        {
          "name": "",
          "type": "uint256"
        }
      ],
      "payable": false,
      "stateMutability": "view",
      "type": "function"
    }
  ],
  "bytecode": "0x60606040526000600355600060045560646005556015600c556040805190810160405280600981526020017f436c7562546f6b656e0000000000000000000000000000000000000000000000815250600e90805190602001906200006592919062000212565b506040805190810160405280600381526020017fe299a70000000000000000000000000000000000000000000000000000000000815250600f9080519060200190620000b392919062000212565b503415620000c057600080fd5b6004546001819055506004546000803373ffffffffffffffffffffffffffffffffffffffff1673ffffffffffffffffffffffffffffffffffffffff168152602001908152602001600020819055506001601060003373ffffffffffffffffffffffffffffffffffffffff1673ffffffffffffffffffffffffffffffffffffffff16815260200190815260200160002060006101000a81548160ff021916908315150217905550601180548060010182816200017c919062000299565b9160005260206000209001600033909190916101000a81548173ffffffffffffffffffffffffffffffffffffffff021916908373ffffffffffffffffffffffffffffffffffffffff1602179055505033600d60006101000a81548173ffffffffffffffffffffffffffffffffffffffff021916908373ffffffffffffffffffffffffffffffffffffffff160217905550620002f0565b828054600181600116156101000203166002900490600052602060002090601f016020900481019282601f106200025557805160ff191683800117855562000286565b8280016001018555821562000286579182015b828111156200028557825182559160200191906001019062000268565b5b509050620002959190620002c8565b5090565b815481835581811511620002c357818360005260206000209182019101620002c29190620002c8565b5b505050565b620002ed91905b80821115620002e9576000816000905550600101620002cf565b5090565b90565b616a4580620003006000396000f300606060405260043610610293576000357c0100000000000000000000000000000000000000000000000000000000900463ffffffff16806306fd150a1461029857806306fdde03146102d4578063095ea7b3146102fd5780630b0372fd1461033357806316746ed01461036957806318160ddd146103a05780631eb7bc0d146103c957806323b872dd146103ff57806326b85ee11461043557806329049fff1461045e5780632a1ad03f1461049b5780632ff2e9dc146104d1578063313ce567146104fa578063356a099c146105235780633a9e69cb14610545578063451ed116146105675780634821e60714610590578063519a337f146105cb5780635353a2d8146106015780635ffe6146146106235780636262993414610645578063657701911461067b57806366188463146106a457806367588038146106da57806367b9bafc146107105780636e0fc8bb14610746578063704802751461077c57806370a082311461079e5780637b3a8387146107d4578063851d3bf51461080a5780638d1948c0146108445780638da5cb5b1461087a5780638f88236c146108a357806393270592146108d957806395d89b41146108fb5780639769a84414610924578063a788bed014610953578063a9059cbb14610989578063ade1523f146109bf578063aff125f6146109e1578063b6db75a014610a17578063b8cfefa814610a40578063baf4955d14610a7b578063bbe5230014610ab8578063cb2f489e14610aee578063d42eccbd14610b17578063d73dd62314610b39578063dd62ed3e14610b6f578063df9073fa14610ba5578063e2eb41ff14610bc7578063f69ce26614610bfe578063f8b2cb4f14610c35578063fb9fced614610c6b578063fedd6c7714610ca1578063fffcf9a814610cd7575b600080fd5b34156102a357600080fd5b6102b860046102b39036906160d6565b610d0e565b6040516102cb97969594939291906165ae565b60405180910390f35b34156102df57600080fd5b6102e7610d7f565b6040516102f4919061676e565b60405180910390f35b341561030857600080fd5b61031d6004610318903690616091565b610e1d565b60405161032a9190616515565b60405180910390f35b341561033e57600080fd5b610353600461034e9036906160d6565b610f0f565b6040516103609190616515565b60405180910390f35b341561037457600080fd5b6103896004610384903690616341565b610f62565b604051610397929190616661565b60405180910390f35b34156103ab57600080fd5b6103b3611082565b6040516103c09190616790565b60405180910390f35b34156103d457600080fd5b6103e960046103e490369061630f565b61108c565b6040516103f6919061644c565b60405180910390f35b341561040a57600080fd5b61041f600461041a903690615ff4565b6110d0565b60405161042c9190616515565b60405180910390f35b341561044057600080fd5b61044861148a565b604051610455919061644c565b60405180910390f35b341561046957600080fd5b61047e60046104799036906160d6565b611492565b604051610492989796959493929190616530565b60405180910390f35b34156104a657600080fd5b6104bb60046104b690369061630f565b611509565b6040516104c8919061644c565b60405180910390f35b34156104dc57600080fd5b6104e461154d565b6040516104f19190616790565b60405180910390f35b341561050557600080fd5b61050d611553565b60405161051a9190616790565b60405180910390f35b341561052e57600080fd5b610543600461053e90369061616e565b611559565b005b341561055057600080fd5b6105656004610560903690616108565b61180d565b005b341561057257600080fd5b61057a6119a1565b6040516105879190616790565b60405180910390f35b341561059b57600080fd5b6105b060046105ab9036906160d6565b6119ae565b6040516105c2969594939291906166ba565b60405180910390f35b34156105d657600080fd5b6105eb60046105e69036906161f8565b611bf4565b6040516105f89190616790565b60405180910390f35b341561060c57600080fd5b610621600461061c9036906162bc565b6121c3565b005b341561062e57600080fd5b610643600461063e90369061630f565b61220f565b005b341561065057600080fd5b61066560046106609036906160d6565b612271565b6040516106729190616790565b60405180910390f35b341561068657600080fd5b61068e6122ca565b60405161069b9190616790565b60405180910390f35b34156106af57600080fd5b6106c460046106bf903690616091565b6122d7565b6040516106d19190616515565b60405180910390f35b34156106e557600080fd5b6106fa60046106f59036906161b3565b612568565b6040516107079190616515565b60405180910390f35b341561071b57600080fd5b610730600461072b9036906160d6565b6125c5565b60405161073d9190616790565b60405180910390f35b341561075157600080fd5b610766600461076190369061604c565b612665565b6040516107739190616515565b60405180910390f35b341561078757600080fd5b61079c6004610797903690615f7d565b6126f6565b005b34156107a957600080fd5b6107be60046107b9903690615f7d565b612864565b6040516107cb9190616790565b60405180910390f35b34156107df57600080fd5b6107f460046107ef903690616091565b6128ac565b6040516108019190616646565b60405180910390f35b341561081557600080fd5b61082a60046108259036906161b3565b612938565b60405161083b95949392919061671b565b60405180910390f35b341561084f57600080fd5b610864600461085f903690615f7d565b612987565b6040516108719190616790565b60405180910390f35b341561088557600080fd5b61088d6129d6565b60405161089a919061644c565b60405180910390f35b34156108ae57600080fd5b6108c360046108be90369061630f565b6129fc565b6040516108d0919061644c565b60405180910390f35b34156108e457600080fd5b6108f960046108f490369061630f565b612a3b565b005b341561090657600080fd5b61090e612a9d565b60405161091b919061676e565b60405180910390f35b341561092f57600080fd5b610937612b3b565b60405161094a97969594939291906167ab565b60405180910390f35b341561095e57600080fd5b610973600461096e903690615f7d565b612b72565b6040516109809190616790565b60405180910390f35b341561099457600080fd5b6109a960046109a4903690616091565b612bbe565b6040516109b69190616515565b60405180910390f35b34156109ca57600080fd5b6109df60046109da903690616264565b612ddd565b005b34156109ec57600080fd5b610a0160046109fc90369061630f565b612e02565b604051610a0e919061644c565b60405180910390f35b3415610a2257600080fd5b610a2a612e41565b604051610a379190616515565b60405180910390f35b3415610a4b57600080fd5b610a606004610a5b90369061630f565b612e95565b604051610a72969594939291906166ba565b60405180910390f35b3415610a8657600080fd5b610a9b6004610a969036906161b3565b612f03565b604051610aaf989796959493929190616530565b60405180910390f35b3415610ac357600080fd5b610ad86004610ad3903690615f7d565b612f4a565b604051610ae59190616515565b60405180910390f35b3415610af957600080fd5b610b01612fa3565b604051610b0e9190616790565b60405180910390f35b3415610b2257600080fd5b610b376004610b329036906160d6565b612fb0565b005b3415610b4457600080fd5b610b596004610b54903690616091565b6137d6565b604051610b669190616515565b60405180910390f35b3415610b7a57600080fd5b610b8f6004610b8a903690615faf565b6139d2565b604051610b9c9190616790565b60405180910390f35b3415610bb057600080fd5b610bc56004610bc09036906161b3565b613a59565b005b3415610bd257600080fd5b610be76004610be2903690615f7d565b613a72565b604051610bf592919061661d565b60405180910390f35b3415610c0957600080fd5b610c1e6004610c1990369061616e565b613aa3565b604051610c2c929190616661565b60405180910390f35b3415610c4057600080fd5b610c556004610c50903690615f7d565b613b7e565b604051610c629190616790565b60405180910390f35b3415610c7657600080fd5b610c8b6004610c869036906161b3565b613bc6565b604051610c989190616515565b60405180910390f35b3415610cac57600080fd5b610cc16004610cbc90369061630f565b613c53565b604051610cce9190616646565b60405180910390f35b3415610ce257600080fd5b610cf76004610cf29036906160d6565b613c99565b604051610d05929190616661565b60405180910390f35b60146020528060005260406000206000915090508060000160009054906101000a900460ff16908060000160019054906101000a900464010000000002908060010160009054906101000a900464010000000002908060020154908060030154908060040154908060050154905087565b600e8054600181600116156101000203166002900480601f016020809104026020016040519081016040528092919081815260200182805460018160011615610100020316600290048015610e155780601f10610dea57610100808354040283529160200191610e15565b820191906000526020600020905b815481529060010190602001808311610df857829003601f168201915b505050505081565b600081600260003373ffffffffffffffffffffffffffffffffffffffff1673ffffffffffffffffffffffffffffffffffffffff16815260200190815260200160002060008573ffffffffffffffffffffffffffffffffffffffff1673ffffffffffffffffffffffffffffffffffffffff168152602001908152602001600020819055508273ffffffffffffffffffffffffffffffffffffffff163373ffffffffffffffffffffffffffffffffffffffff167f8c5be1e5ebec7d5bd14f71427d1e84f3dd0314c0f7b2291e5b200ac8c7c3b92584604051610efd9190616790565b60405180910390a36001905092915050565b600060146000836fffffffffffffffffffffffffffffffff19166fffffffffffffffffffffffffffffffff1916815260200190815260200160002060000160009054906101000a900460ff169050919050565b6000806000601585815481101515610f7657fe5b90600052602060002090600291828204019190066010029054906101000a900470010000000000000000000000000000000002905060146000826fffffffffffffffffffffffffffffffff19166fffffffffffffffffffffffffffffffff1916815260200190815260200160002060000160009054906101000a900460ff16151561100057600080fd5b8060146000836fffffffffffffffffffffffffffffffff19166fffffffffffffffffffffffffffffffff191681526020019081526020016000206006018581548110151561104a57fe5b906000526020600020900160009054906101000a900473ffffffffffffffffffffffffffffffffffffffff1692509250509250929050565b6000600154905090565b600060138281548110151561109d57fe5b906000526020600020900160009054906101000a900473ffffffffffffffffffffffffffffffffffffffff169050919050565b60008073ffffffffffffffffffffffffffffffffffffffff168373ffffffffffffffffffffffffffffffffffffffff161415151561110d57600080fd5b6000808573ffffffffffffffffffffffffffffffffffffffff1673ffffffffffffffffffffffffffffffffffffffff16815260200190815260200160002054821115151561115a57600080fd5b600260008573ffffffffffffffffffffffffffffffffffffffff1673ffffffffffffffffffffffffffffffffffffffff16815260200190815260200160002060003373ffffffffffffffffffffffffffffffffffffffff1673ffffffffffffffffffffffffffffffffffffffff1681526020019081526020016000205482111515156111e557600080fd5b611236826000808773ffffffffffffffffffffffffffffffffffffffff1673ffffffffffffffffffffffffffffffffffffffff16815260200190815260200160002054613db490919063ffffffff16565b6000808673ffffffffffffffffffffffffffffffffffffffff1673ffffffffffffffffffffffffffffffffffffffff168152602001908152602001600020819055506112c9826000808673ffffffffffffffffffffffffffffffffffffffff1673ffffffffffffffffffffffffffffffffffffffff16815260200190815260200160002054613dcd90919063ffffffff16565b6000808573ffffffffffffffffffffffffffffffffffffffff1673ffffffffffffffffffffffffffffffffffffffff1681526020019081526020016000208190555061139a82600260008773ffffffffffffffffffffffffffffffffffffffff1673ffffffffffffffffffffffffffffffffffffffff16815260200190815260200160002060003373ffffffffffffffffffffffffffffffffffffffff1673ffffffffffffffffffffffffffffffffffffffff16815260200190815260200160002054613db490919063ffffffff16565b600260008673ffffffffffffffffffffffffffffffffffffffff1673ffffffffffffffffffffffffffffffffffffffff16815260200190815260200160002060003373ffffffffffffffffffffffffffffffffffffffff1673ffffffffffffffffffffffffffffffffffffffff168152602001908152602001600020819055508273ffffffffffffffffffffffffffffffffffffffff168473ffffffffffffffffffffffffffffffffffffffff167fddf252ad1be2c89b69c2b068fc378daa952ba7f163c4a11628f55a4df523b3ef846040516114779190616790565b60405180910390a3600190509392505050565b600033905090565b6000806000806000806000806114a6615c83565b898161010001906fffffffffffffffffffffffffffffffff191690816fffffffffffffffffffffffffffffffff1916815250506114e281613deb565b90506114ed816140e3565b9850985098509850985098509850985050919395975091939597565b600060118281548110151561151a57fe5b906000526020600020900160009054906101000a900473ffffffffffffffffffffffffffffffffffffffff169050919050565b60045481565b60035481565b8160146000826fffffffffffffffffffffffffffffffff19166fffffffffffffffffffffffffffffffff1916815260200190815260200160002060000160009054906101000a900460ff1615156115af57600080fd5b3373ffffffffffffffffffffffffffffffffffffffff1660146000856fffffffffffffffffffffffffffffffff19166fffffffffffffffffffffffffffffffff19168152602001908152602001600020600601600081548110151561161057fe5b906000526020600020900160009054906101000a900473ffffffffffffffffffffffffffffffffffffffff1673ffffffffffffffffffffffffffffffffffffffff1614151561165e57600080fd5b600160146000856fffffffffffffffffffffffffffffffff19166fffffffffffffffffffffffffffffffff191681526020019081526020016000206006018054905011156116ab57600080fd5b7f5c3b20386cb190ab356d48388402e550e47af17282ac5ac49df339be5376a980338385600160146000896fffffffffffffffffffffffffffffffff19166fffffffffffffffffffffffffffffffff1916815260200190815260200160002060000160019054906101000a900464010000000002601460008a6fffffffffffffffffffffffffffffffff19166fffffffffffffffffffffffffffffffff1916815260200190815260200160002060010160009054906101000a90046401000000000242601460008c6fffffffffffffffffffffffffffffffff19166fffffffffffffffffffffffffffffffff19168152602001908152602001600020600301546040516117bf989796959493929190616497565b60405180910390a18160146000856fffffffffffffffffffffffffffffffff19166fffffffffffffffffffffffffffffffff1916815260200190815260200160002060020181905550505050565b8160146000826fffffffffffffffffffffffffffffffff19166fffffffffffffffffffffffffffffffff1916815260200190815260200160002060000160009054906101000a900460ff16151561186357600080fd5b600c548251111561187357600080fd5b3373ffffffffffffffffffffffffffffffffffffffff1660146000856fffffffffffffffffffffffffffffffff19166fffffffffffffffffffffffffffffffff19168152602001908152602001600020600601600160146000876fffffffffffffffffffffffffffffffff19166fffffffffffffffffffffffffffffffff19168152602001908152602001600020600601805490500381548110151561191557fe5b906000526020600020900160009054906101000a900473ffffffffffffffffffffffffffffffffffffffff1673ffffffffffffffffffffffffffffffffffffffff1614151561196357600080fd5b7f928915afa2256c97955fd7735e2e6ba6d453eb09e7d91e5b03467b5934cca384838360405161199492919061668a565b60405180910390a1505050565b6000601380549050905090565b6000806000806000808660146000826fffffffffffffffffffffffffffffffff19166fffffffffffffffffffffffffffffffff1916815260200190815260200160002060000160009054906101000a900460ff161515611a0d57600080fd5b87601460008a6fffffffffffffffffffffffffffffffff19166fffffffffffffffffffffffffffffffff1916815260200190815260200160002060020154601460008b6fffffffffffffffffffffffffffffffff19166fffffffffffffffffffffffffffffffff1916815260200190815260200160002060060180549050601460008c6fffffffffffffffffffffffffffffffff19166fffffffffffffffffffffffffffffffff191681526020019081526020016000206006016001601460008e6fffffffffffffffffffffffffffffffff19166fffffffffffffffffffffffffffffffff191681526020019081526020016000206006018054905003815481101515611b1657fe5b906000526020600020900160009054906101000a900473ffffffffffffffffffffffffffffffffffffffff16601460008d6fffffffffffffffffffffffffffffffff19166fffffffffffffffffffffffffffffffff1916815260200190815260200160002060000160019054906101000a900464010000000002601460008e6fffffffffffffffffffffffffffffffff19166fffffffffffffffffffffffffffffffff1916815260200190815260200160002060010160009054906101000a9004640100000000029650965096509650965096505091939550919395565b6000611bfe615c83565b8360146000826fffffffffffffffffffffffffffffffff19166fffffffffffffffffffffffffffffffff1916815260200190815260200160002060000160009054906101000a900460ff1615611c5357600080fd5b601060003373ffffffffffffffffffffffffffffffffffffffff1673ffffffffffffffffffffffffffffffffffffffff16815260200190815260200160002060009054906101000a900460ff161515611cab57600080fd5b611cb3614132565b611cc1826101000151614249565b848261010001906fffffffffffffffffffffffffffffffff191690816fffffffffffffffffffffffffffffffff191681525050611cfd82613deb565b9150816040015115611e3057611d1282614464565b60146000876fffffffffffffffffffffffffffffffff19166fffffffffffffffffffffffffffffffff191681526020019081526020016000206003018190555060146000866fffffffffffffffffffffffffffffffff19166fffffffffffffffffffffffffffffffff19168152602001908152602001600020600301546000803373ffffffffffffffffffffffffffffffffffffffff1673ffffffffffffffffffffffffffffffffffffffff1681526020019081526020016000206000828254019250508190555060146000866fffffffffffffffffffffffffffffffff19166fffffffffffffffffffffffffffffffff1916815260200190815260200160002060030154600160008282540192505081905550611e2f82614604565b5b8660146000876fffffffffffffffffffffffffffffffff19166fffffffffffffffffffffffffffffffff1916815260200190815260200160002060000160016101000a8154817bffffffffffffffffffffffffffffffffffffffffffffffffffffffff0219169083640100000000900402179055508560146000876fffffffffffffffffffffffffffffffff19166fffffffffffffffffffffffffffffffff1916815260200190815260200160002060010160006101000a8154817bffffffffffffffffffffffffffffffffffffffffffffffffffffffff02191690836401000000009004021790555060146000866fffffffffffffffffffffffffffffffff19166fffffffffffffffffffffffffffffffff191681526020019081526020016000206006018054806001018281611f689190615d37565b9160005260206000209001600033909190916101000a81548173ffffffffffffffffffffffffffffffffffffffff021916908373ffffffffffffffffffffffffffffffffffffffff160217905550508360146000876fffffffffffffffffffffffffffffffff19166fffffffffffffffffffffffffffffffff1916815260200190815260200160002060020181905550600160146000876fffffffffffffffffffffffffffffffff19166fffffffffffffffffffffffffffffffff1916815260200190815260200160002060000160006101000a81548160ff0219169083151502179055504260146000876fffffffffffffffffffffffffffffffff19166fffffffffffffffffffffffffffffffff19168152602001908152602001600020600401819055504260146000876fffffffffffffffffffffffffffffffff19166fffffffffffffffffffffffffffffffff19168152602001908152602001600020600501819055507f5c3b20386cb190ab356d48388402e550e47af17282ac5ac49df339be5376a98033858760018b8b42601460008e6fffffffffffffffffffffffffffffffff19166fffffffffffffffffffffffffffffffff1916815260200190815260200160002060030154604051612149989796959493929190616497565b60405180910390a1601580548060010182816121659190615d63565b916000526020600020906002918282040191900660100287909190916101000a8154816fffffffffffffffffffffffffffffffff02191690837001000000000000000000000000000000009004021790555092505050949350505050565b600c54815111156121d357600080fd5b7f51aba8153205aaff23cab0b32a552626c48b35cb38dfb3dd771bb435e63d17b53382604051612204929190616467565b60405180910390a150565b601060003373ffffffffffffffffffffffffffffffffffffffff1673ffffffffffffffffffffffffffffffffffffffff16815260200190815260200160002060009054906101000a900460ff16151561226757600080fd5b8060058190555050565b600061227b615c83565b828161010001906fffffffffffffffffffffffffffffffff191690816fffffffffffffffffffffffffffffffff1916815250506122b781613deb565b90506122c281614464565b915050919050565b6000601180549050905090565b600080600260003373ffffffffffffffffffffffffffffffffffffffff1673ffffffffffffffffffffffffffffffffffffffff16815260200190815260200160002060008573ffffffffffffffffffffffffffffffffffffffff1673ffffffffffffffffffffffffffffffffffffffff168152602001908152602001600020549050808311156123e8576000600260003373ffffffffffffffffffffffffffffffffffffffff1673ffffffffffffffffffffffffffffffffffffffff16815260200190815260200160002060008673ffffffffffffffffffffffffffffffffffffffff1673ffffffffffffffffffffffffffffffffffffffff1681526020019081526020016000208190555061247c565b6123fb8382613db490919063ffffffff16565b600260003373ffffffffffffffffffffffffffffffffffffffff1673ffffffffffffffffffffffffffffffffffffffff16815260200190815260200160002060008673ffffffffffffffffffffffffffffffffffffffff1673ffffffffffffffffffffffffffffffffffffffff168152602001908152602001600020819055505b8373ffffffffffffffffffffffffffffffffffffffff163373ffffffffffffffffffffffffffffffffffffffff167f8c5be1e5ebec7d5bd14f71427d1e84f3dd0314c0f7b2291e5b200ac8c7c3b925600260003373ffffffffffffffffffffffffffffffffffffffff1673ffffffffffffffffffffffffffffffffffffffff16815260200190815260200160002060008873ffffffffffffffffffffffffffffffffffffffff1673ffffffffffffffffffffffffffffffffffffffff168152602001908152602001600020546040516125559190616790565b60405180910390a3600191505092915050565b6000612572615c83565b61257c8484614607565b905080600001511561259157600091506125be565b806020015115156125a557600091506125be565b806040015115156125b957600091506125be565b600191505b5092915050565b60008160146000826fffffffffffffffffffffffffffffffff19166fffffffffffffffffffffffffffffffff1916815260200190815260200160002060000160009054906101000a900460ff16151561261d57600080fd5b60146000846fffffffffffffffffffffffffffffffff19166fffffffffffffffffffffffffffffffff1916815260200190815260200160002060060180549050915050919050565b6000601260008473ffffffffffffffffffffffffffffffffffffffff1673ffffffffffffffffffffffffffffffffffffffff1681526020019081526020016000206003016000836fffffffffffffffffffffffffffffffff19166fffffffffffffffffffffffffffffffff1916815260200190815260200160002060009054906101000a900460ff16905092915050565b601060003373ffffffffffffffffffffffffffffffffffffffff1673ffffffffffffffffffffffffffffffffffffffff16815260200190815260200160002060009054906101000a900460ff16151561274e57600080fd5b601060003373ffffffffffffffffffffffffffffffffffffffff1673ffffffffffffffffffffffffffffffffffffffff16815260200190815260200160002060009054906101000a900460ff1615156127a657600080fd5b6001601060008373ffffffffffffffffffffffffffffffffffffffff1673ffffffffffffffffffffffffffffffffffffffff16815260200190815260200160002060006101000a81548160ff021916908315150217905550601180548060010182816128129190615d37565b9160005260206000209001600083909190916101000a81548173ffffffffffffffffffffffffffffffffffffffff021916908373ffffffffffffffffffffffffffffffffffffffff1602179055505050565b60008060008373ffffffffffffffffffffffffffffffffffffffff1673ffffffffffffffffffffffffffffffffffffffff168152602001908152602001600020549050919050565b6000601260008473ffffffffffffffffffffffffffffffffffffffff1673ffffffffffffffffffffffffffffffffffffffff168152602001908152602001600020600201828154811015156128fd57fe5b90600052602060002090600291828204019190066010029054906101000a900470010000000000000000000000000000000002905092915050565b6000806000806000612948615c83565b6129528888614607565b9050806101000151816101a00151826101c0015183610160015184610180015195509550955095509550509295509295909350565b6000601260008373ffffffffffffffffffffffffffffffffffffffff1673ffffffffffffffffffffffffffffffffffffffff168152602001908152602001600020600201805490509050919050565b600d60009054906101000a900473ffffffffffffffffffffffffffffffffffffffff1681565b601381815481101515612a0b57fe5b90600052602060002090016000915054906101000a900473ffffffffffffffffffffffffffffffffffffffff1681565b601060003373ffffffffffffffffffffffffffffffffffffffff1673ffffffffffffffffffffffffffffffffffffffff16815260200190815260200160002060009054906101000a900460ff161515612a9357600080fd5b80600c8190555050565b600f8054600181600116156101000203166002900480601f016020809104026020016040519081016040528092919081815260200182805460018160011615610100020316600290048015612b335780601f10612b0857610100808354040283529160200191612b33565b820191906000526020600020905b815481529060010190602001808311612b1657829003601f168201915b505050505081565b6000806000806000806000600654600754600854600954600a54600b54600554965096509650965096509650965090919293949596565b6000601260008373ffffffffffffffffffffffffffffffffffffffff1673ffffffffffffffffffffffffffffffffffffffff168152602001908152602001600020600101549050919050565b60008073ffffffffffffffffffffffffffffffffffffffff168373ffffffffffffffffffffffffffffffffffffffff1614151515612bfb57600080fd5b6000803373ffffffffffffffffffffffffffffffffffffffff1673ffffffffffffffffffffffffffffffffffffffff168152602001908152602001600020548211151515612c4857600080fd5b612c99826000803373ffffffffffffffffffffffffffffffffffffffff1673ffffffffffffffffffffffffffffffffffffffff16815260200190815260200160002054613db490919063ffffffff16565b6000803373ffffffffffffffffffffffffffffffffffffffff1673ffffffffffffffffffffffffffffffffffffffff16815260200190815260200160002081905550612d2c826000808673ffffffffffffffffffffffffffffffffffffffff1673ffffffffffffffffffffffffffffffffffffffff16815260200190815260200160002054613dcd90919063ffffffff16565b6000808573ffffffffffffffffffffffffffffffffffffffff1673ffffffffffffffffffffffffffffffffffffffff168152602001908152602001600020819055508273ffffffffffffffffffffffffffffffffffffffff163373ffffffffffffffffffffffffffffffffffffffff167fddf252ad1be2c89b69c2b068fc378daa952ba7f163c4a11628f55a4df523b3ef84604051612dcb9190616790565b60405180910390a36001905092915050565b612de5615c83565b612def8484614607565b9050612dfb81836148d4565b5050505050565b601181815481101515612e1157fe5b90600052602060002090016000915054906101000a900473ffffffffffffffffffffffffffffffffffffffff1681565b6000601060003373ffffffffffffffffffffffffffffffffffffffff1673ffffffffffffffffffffffffffffffffffffffff16815260200190815260200160002060009054906101000a900460ff16905090565b6000806000806000806000601588815481101515612eaf57fe5b90600052602060002090600291828204019190066010029054906101000a9004700100000000000000000000000000000000029050612eed816119ae565b9650965096509650965096505091939550919395565b600080600080600080600080612f17615c83565b612f218b8b614607565b9050612f2c816140e3565b98509850985098509850985098509850509295985092959890939650565b6000601260008373ffffffffffffffffffffffffffffffffffffffff1673ffffffffffffffffffffffffffffffffffffffff16815260200190815260200160002060000160009054906101000a900460ff169050919050565b6000601580549050905090565b6000806000808460146000826fffffffffffffffffffffffffffffffff19166fffffffffffffffffffffffffffffffff1916815260200190815260200160002060000160009054906101000a900460ff16151561300c57600080fd5b3373ffffffffffffffffffffffffffffffffffffffff1660146000886fffffffffffffffffffffffffffffffff19166fffffffffffffffffffffffffffffffff191681526020019081526020016000206006016001601460008a6fffffffffffffffffffffffffffffffff19166fffffffffffffffffffffffffffffffff1916815260200190815260200160002060060180549050038154811015156130ae57fe5b906000526020600020900160009054906101000a900473ffffffffffffffffffffffffffffffffffffffff1673ffffffffffffffffffffffffffffffffffffffff1614156130fb57600080fd5b600160146000886fffffffffffffffffffffffffffffffff19166fffffffffffffffffffffffffffffffff19168152602001908152602001600020600601805490501461319757613192600260146000896fffffffffffffffffffffffffffffffff19166fffffffffffffffffffffffffffffffff1916815260200190815260200160002060020154614e7990919063ffffffff16565b6131d5565b60146000876fffffffffffffffffffffffffffffffff19166fffffffffffffffffffffffffffffffff19168152602001908152602001600020600201545b9450846000803373ffffffffffffffffffffffffffffffffffffffff1673ffffffffffffffffffffffffffffffffffffffff16815260200190815260200160002054101561322257600080fd5b61322a614132565b600193505b60038460ff16101561354e5760146000876fffffffffffffffffffffffffffffffff19166fffffffffffffffffffffffffffffffff19168152602001908152602001600020600601805490508460ff16111515613541578360ff1660146000886fffffffffffffffffffffffffffffffff19166fffffffffffffffffffffffffffffffff191681526020019081526020016000206006018054905003925060146000876fffffffffffffffffffffffffffffffff19166fffffffffffffffffffffffffffffffff191681526020019081526020016000206006018381548110151561331657fe5b906000526020600020900160009054906101000a900473ffffffffffffffffffffffffffffffffffffffff1691506133d160146000886fffffffffffffffffffffffffffffffff19166fffffffffffffffffffffffffffffffff19168152602001908152602001600020600201546000803373ffffffffffffffffffffffffffffffffffffffff1673ffffffffffffffffffffffffffffffffffffffff16815260200190815260200160002054613db490919063ffffffff16565b6000803373ffffffffffffffffffffffffffffffffffffffff1673ffffffffffffffffffffffffffffffffffffffff168152602001908152602001600020819055506134a060146000886fffffffffffffffffffffffffffffffff19166fffffffffffffffffffffffffffffffff19168152602001908152602001600020600201546000808573ffffffffffffffffffffffffffffffffffffffff1673ffffffffffffffffffffffffffffffffffffffff16815260200190815260200160002054613dcd90919063ffffffff16565b6000808473ffffffffffffffffffffffffffffffffffffffff1673ffffffffffffffffffffffffffffffffffffffff1681526020019081526020016000208190555060018460ff161415613540576001601260008473ffffffffffffffffffffffffffffffffffffffff1673ffffffffffffffffffffffffffffffffffffffff168152602001908152602001600020600101600082825403925050819055505b5b838060010194505061322f565b61355786614249565b60146000876fffffffffffffffffffffffffffffffff19166fffffffffffffffffffffffffffffffff1916815260200190815260200160002060060180548060010182816135a59190615d37565b9160005260206000209001600033909190916101000a81548173ffffffffffffffffffffffffffffffffffffffff021916908373ffffffffffffffffffffffffffffffffffffffff160217905550508460146000886fffffffffffffffffffffffffffffffff19166fffffffffffffffffffffffffffffffff19168152602001908152602001600020600201819055504260146000886fffffffffffffffffffffffffffffffff19166fffffffffffffffffffffffffffffffff19168152602001908152602001600020600501819055507f5c3b20386cb190ab356d48388402e550e47af17282ac5ac49df339be5376a9803386886000601460008c6fffffffffffffffffffffffffffffffff19166fffffffffffffffffffffffffffffffff1916815260200190815260200160002060000160019054906101000a900464010000000002601460008d6fffffffffffffffffffffffffffffffff19166fffffffffffffffffffffffffffffffff1916815260200190815260200160002060010160009054906101000a900464010000000002601460008e6fffffffffffffffffffffffffffffffff19166fffffffffffffffffffffffffffffffff1916815260200190815260200160002060050154601460008f6fffffffffffffffffffffffffffffffff19166fffffffffffffffffffffffffffffffff19168152602001908152602001600020600301546040516137c6989796959493929190616497565b60405180910390a1505050505050565b600061386782600260003373ffffffffffffffffffffffffffffffffffffffff1673ffffffffffffffffffffffffffffffffffffffff16815260200190815260200160002060008673ffffffffffffffffffffffffffffffffffffffff1673ffffffffffffffffffffffffffffffffffffffff16815260200190815260200160002054613dcd90919063ffffffff16565b600260003373ffffffffffffffffffffffffffffffffffffffff1673ffffffffffffffffffffffffffffffffffffffff16815260200190815260200160002060008573ffffffffffffffffffffffffffffffffffffffff1673ffffffffffffffffffffffffffffffffffffffff168152602001908152602001600020819055508273ffffffffffffffffffffffffffffffffffffffff163373ffffffffffffffffffffffffffffffffffffffff167f8c5be1e5ebec7d5bd14f71427d1e84f3dd0314c0f7b2291e5b200ac8c7c3b925600260003373ffffffffffffffffffffffffffffffffffffffff1673ffffffffffffffffffffffffffffffffffffffff16815260200190815260200160002060008773ffffffffffffffffffffffffffffffffffffffff1673ffffffffffffffffffffffffffffffffffffffff168152602001908152602001600020546040516139c09190616790565b60405180910390a36001905092915050565b6000600260008473ffffffffffffffffffffffffffffffffffffffff1673ffffffffffffffffffffffffffffffffffffffff16815260200190815260200160002060008373ffffffffffffffffffffffffffffffffffffffff1673ffffffffffffffffffffffffffffffffffffffff16815260200190815260200160002054905092915050565b613a61615c83565b613a6b8383614607565b9050505050565b60126020528060005260406000206000915090508060000160009054906101000a900460ff16908060010154905082565b6000808360146000826fffffffffffffffffffffffffffffffff19166fffffffffffffffffffffffffffffffff1916815260200190815260200160002060000160009054906101000a900460ff161515613afc57600080fd5b8460146000876fffffffffffffffffffffffffffffffff19166fffffffffffffffffffffffffffffffff1916815260200190815260200160002060060185815481101515613b4657fe5b906000526020600020900160009054906101000a900473ffffffffffffffffffffffffffffffffffffffff1692509250509250929050565b60008060008373ffffffffffffffffffffffffffffffffffffffff1673ffffffffffffffffffffffffffffffffffffffff168152602001908152602001600020549050919050565b6000613bd0615c83565b613bda8484614607565b9050806000015115613beb57600080fd5b80602001511515613bfb57600080fd5b601460008261010001516fffffffffffffffffffffffffffffffff19166fffffffffffffffffffffffffffffffff1916815260200190815260200160002060000160009054906101000a900460ff1691505092915050565b601581815481101515613c6257fe5b9060005260206000209060029182820401919006601002915054906101000a90047001000000000000000000000000000000000281565b6000808260146000826fffffffffffffffffffffffffffffffff19166fffffffffffffffffffffffffffffffff1916815260200190815260200160002060000160009054906101000a900460ff161515613cf257600080fd5b8360146000866fffffffffffffffffffffffffffffffff19166fffffffffffffffffffffffffffffffff19168152602001908152602001600020600601600160146000886fffffffffffffffffffffffffffffffff19166fffffffffffffffffffffffffffffffff191681526020019081526020016000206006018054905003815481101515613d7e57fe5b906000526020600020900160009054906101000a900473ffffffffffffffffffffffffffffffffffffffff169250925050915091565b6000828211151515613dc257fe5b818303905092915050565b6000808284019050838110151515613de157fe5b8091505092915050565b613df3615c83565b60008060008060008060006001965060019550600194506001935060019250600091505b60088260ff16108015613e4757508680613e2e5750855b80613e365750845b80613e3e5750835b80613e465750825b5b1561404c57600090505b60088160ff16108015613e8157508680613e685750855b80613e705750845b80613e785750835b80613e805750825b5b1561403f57613e9c8961010001518360070383600703614eb4565b6fffffffffffffffffffffffffffffffff1916613ebf8a61010001518484614eb4565b6fffffffffffffffffffffffffffffffff1916141515613ede57600096505b613ef18961010001518383600703614eb4565b6fffffffffffffffffffffffffffffffff1916613f148a61010001518484614eb4565b6fffffffffffffffffffffffffffffffff1916141515613f3357600095505b613f468961010001518360070383614eb4565b6fffffffffffffffffffffffffffffffff1916613f698a61010001518484614eb4565b6fffffffffffffffffffffffffffffffff1916141515613f8857600094505b613f9e8961010001518260070384600703614eb4565b6fffffffffffffffffffffffffffffffff1916613fc18a61010001518484614eb4565b6fffffffffffffffffffffffffffffffff1916141515613fe057600093505b613ff08961010001518284614eb4565b6fffffffffffffffffffffffffffffffff19166140138a61010001518484614eb4565b6fffffffffffffffffffffffffffffffff191614151561403257600092505b8080600101915050613e51565b8180600101925050613e17565b86806140555750855b8061405d5750845b806140655750835b8061406d5750825b156140d45760018960400190151590811515815250508689606001901515908115158152505085896080019015159081151581525050848960a0019015159081151581525050838960c0019015159081151581525050828960e00190151590811515815250505b88975050505050505050919050565b600080600080600080600080886000015189602001518a604001518b606001518c608001518d60a001518e60c001518f60e0015197509750975097509750975097509750919395975091939597565b601260003373ffffffffffffffffffffffffffffffffffffffff1673ffffffffffffffffffffffffffffffffffffffff16815260200190815260200160002060000160009054906101000a900460ff161515614247576001601260003373ffffffffffffffffffffffffffffffffffffffff1673ffffffffffffffffffffffffffffffffffffffff16815260200190815260200160002060000160006101000a81548160ff021916908315150217905550601380548060010182816141f79190615d37565b9160005260206000209001600033909190916101000a81548173ffffffffffffffffffffffffffffffffffffffff021916908373ffffffffffffffffffffffffffffffffffffffff160217905550505b565b601260003373ffffffffffffffffffffffffffffffffffffffff1673ffffffffffffffffffffffffffffffffffffffff1681526020019081526020016000206003016000826fffffffffffffffffffffffffffffffff19166fffffffffffffffffffffffffffffffff1916815260200190815260200160002060009054906101000a900460ff161515614410576001601260003373ffffffffffffffffffffffffffffffffffffffff1673ffffffffffffffffffffffffffffffffffffffff1681526020019081526020016000206003016000836fffffffffffffffffffffffffffffffff19166fffffffffffffffffffffffffffffffff1916815260200190815260200160002060006101000a81548160ff021916908315150217905550601260003373ffffffffffffffffffffffffffffffffffffffff1673ffffffffffffffffffffffffffffffffffffffff16815260200190815260200160002060020180548060010182816143bc9190615d63565b916000526020600020906002918282040191900660100283909190916101000a8154816fffffffffffffffffffffffffffffffff021916908370010000000000000000000000000000000090040217905550505b6001601260003373ffffffffffffffffffffffffffffffffffffffff1673ffffffffffffffffffffffffffffffffffffffff1681526020019081526020016000206001016000828254019250508190555050565b600080600090508260600151156144bb576144b86144a960016007540161449b600160065401600554614e7990919063ffffffff16565b614f0490919063ffffffff16565b82613dcd90919063ffffffff16565b90505b82608001511561450b576145086144f96001600854016144eb600160065401600554614e7990919063ffffffff16565b614f0490919063ffffffff16565b82613dcd90919063ffffffff16565b90505b8260a001511561455b5761455861454960016009540161453b600160065401600554614e7990919063ffffffff16565b614f0490919063ffffffff16565b82613dcd90919063ffffffff16565b90505b8260c00151156145ab576145a86145996001600a540161458b600160065401600554614e7990919063ffffffff16565b614f0490919063ffffffff16565b82613dcd90919063ffffffff16565b90505b8260e00151156145fb576145f86145e96001600b54016145db600160065401600554614e7990919063ffffffff16565b614f0490919063ffffffff16565b82613dcd90919063ffffffff16565b90505b80915050919050565b50565b61460f615c83565b614617615c83565b6000806000806000808987610120019063ffffffff1916908163ffffffff1916815250508887610140019063ffffffff1916908163ffffffff191681525050600087610180019060ff16908160ff16815250506002876101a0019060ff16908160ff16815250506002876101c0019060ff16908160ff168152505060008760000190151590811515815250506000876020019015159081151581525050600187610160019060ff16908160ff16815250506ffffffffffffffe7ffdbfffffffffffff700100000000000000000000000000000000028761010001906fffffffffffffffffffffffffffffffff191690816fffffffffffffffffffffffffffffffff191681525050600091505b603c8260ff16108015614734575085155b156148a257602087610180015160ff16106147545786610140015161475b565b8661012001515b905061477d81602089610180015160ff1681151561477557fe5b066020614f1f565b945061478885614f75565b809450819550505061479985614fb4565b159550851580156147ad575060088460ff16105b80156147bc575060088360ff16105b80156147cc575060008460ff1610155b80156147dc575060008360ff1610155b15614895576147ec878585614fc5565b965060018761018001510187610180019060ff16908160ff1681525050866000015115614894576000876000019015159081151581525050600160ff1687610160015160ff16141561485157600287610160019060ff16908160ff1681525050614866565b600187610160019060ff16908160ff16815250505b614871878585614fc5565b9650866000015115614893576001955060008760000190151590811515815250505b5b5b8180600101925050614723565b866000015115156148c4576148b6876152c7565b96506148c187613deb565b96505b8697505050505050505092915050565b60008260000151156148e557600080fd5b826020015115156148f557600080fd5b601460008461010001516fffffffffffffffffffffffffffffffff19166fffffffffffffffffffffffffffffffff1916815260200190815260200160002060000160009054906101000a900460ff161561494e57600080fd5b614956614132565b614964836101000151614249565b826101200151601460008561010001516fffffffffffffffffffffffffffffffff19166fffffffffffffffffffffffffffffffff1916815260200190815260200160002060000160016101000a8154817bffffffffffffffffffffffffffffffffffffffffffffffffffffffff021916908364010000000090040217905550826101400151601460008561010001516fffffffffffffffffffffffffffffffff19166fffffffffffffffffffffffffffffffff1916815260200190815260200160002060010160006101000a8154817bffffffffffffffffffffffffffffffffffffffffffffffffffffffff021916908364010000000090040217905550601460008461010001516fffffffffffffffffffffffffffffffff19166fffffffffffffffffffffffffffffffff191681526020019081526020016000206006018054806001018281614ab59190615d37565b9160005260206000209001600033909190916101000a81548173ffffffffffffffffffffffffffffffffffffffff021916908373ffffffffffffffffffffffffffffffffffffffff1602179055505081601460008561010001516fffffffffffffffffffffffffffffffff19166fffffffffffffffffffffffffffffffff19168152602001908152602001600020600201819055506001601460008561010001516fffffffffffffffffffffffffffffffff19166fffffffffffffffffffffffffffffffff1916815260200190815260200160002060000160006101000a81548160ff02191690831515021790555042601460008561010001516fffffffffffffffffffffffffffffffff19166fffffffffffffffffffffffffffffffff191681526020019081526020016000206004018190555042601460008561010001516fffffffffffffffffffffffffffffffff19166fffffffffffffffffffffffffffffffff1916815260200190815260200160002060050181905550826040015115614d7057614c4383614464565b601460008561010001516fffffffffffffffffffffffffffffffff19166fffffffffffffffffffffffffffffffff1916815260200190815260200160002060030181905550601460008461010001516fffffffffffffffffffffffffffffffff19166fffffffffffffffffffffffffffffffff19168152602001908152602001600020600301546000803373ffffffffffffffffffffffffffffffffffffffff1673ffffffffffffffffffffffffffffffffffffffff16815260200190815260200160002060008282540192505081905550601460008461010001516fffffffffffffffffffffffffffffffff19166fffffffffffffffffffffffffffffffff1916815260200190815260200160002060030154600160008282540192505081905550614d6f83614604565b5b7f5c3b20386cb190ab356d48388402e550e47af17282ac5ac49df339be5376a9803383856101000151600187610120015188610140015142601460008c61010001516fffffffffffffffffffffffffffffffff19166fffffffffffffffffffffffffffffffff1916815260200190815260200160002060030154604051614dfe989796959493929190616497565b60405180910390a160158054806001018281614e1a9190615d63565b9160005260206000209060029182820401919006601002856101000151909190916101000a8154816fffffffffffffffffffffffffffffffff021916908370010000000000000000000000000000000090040217905550905092915050565b6000806000841415614e8e5760009150614ead565b8284029050828482811515614e9f57fe5b04141515614ea957fe5b8091505b5092915050565b600080600080614ec48686615580565b92506003700100000000000000000000000000000000029150614ee7828461559c565b91508187169050614ef881846155d8565b93505050509392505050565b6000808284811515614f1257fe5b0490508091505092915050565b600080600080607f64010000000002925060078087026007870203039150614f4a838360ff16615641565b92508287169050614f5e818360ff16615665565b905080640100000000900493505050509392505050565b60008060008060408503945060088560ff16811515614f9057fe5b069150600882860360ff16811515614fa457fe5b0490508181935093505050915091565b600060408260ff1610159050919050565b614fcd615c83565b614fd5615d9d565b600080600080600080600080600360ff16614ff68e61010001518e8e615692565b60ff161415156150195760018d60000190151590811515815250508c99506152b7565b6150248d8d8d6156fc565b809950819a50505060008860ff1614156150515760018d60000190151590811515815250508c99506152b7565b60009150600090505b8760ff168160ff1610156151b75760009650600095506150918d8a8360ff1660088110151561508557fe5b60200201518e8e615a3b565b8097508198505050600092505b8560ff168360ff1610156151aa578115156150b857600191505b6150cb6150c6888589614f1f565b614f75565b80955081965050506150e98d61010001518e61016001518787615ba9565b8d61010001906fffffffffffffffffffffffffffffffff191690816fffffffffffffffffffffffffffffffff191681525050600260ff168d610160015160ff1614156151685760018d6101c0018181510191509060ff16908160ff168152505060018d6101a0018181510391509060ff16908160ff168152505061519d565b60018d6101c0018181510391509060ff16908160ff168152505060018d6101a0018181510191509060ff16908160ff16815250505b828060010193505061509e565b808060010191505061505a565b8115615258576151d38d61010001518e61016001518e8e615ba9565b8d61010001906fffffffffffffffffffffffffffffffff191690816fffffffffffffffffffffffffffffffff191681525050600260ff168d610160015160ff1614156152385760018d6101c0018181510191509060ff16908160ff1681525050615253565b60018d6101a0018181510191509060ff16908160ff16815250505b615271565b60018d60000190151590811515815250508c99506152b7565b600160ff168d610160015160ff16141561529e5760028d610160019060ff16908160ff16815250506152b3565b60018d610160019060ff16908160ff16815250505b8c99505b5050505050505050509392505050565b6152cf615c83565b6152d7615dcc565b6000806000806152e5615c83565b6152ed615dfb565b603c89610180015160ff16148061530c57506000896101a0015160ff16145b8061531f57506000896101c0015160ff16145b1561534e5760008960000190151590811515815250506001896020019015159081151581525050889750615574565b60009550600094505b60408560ff161015615430576153a18961010001516008808860ff1681151561537c57fe5b06880360ff1681151561538b57fe5b0460088860ff1681151561539b57fe5b06615692565b9350600360ff168460ff1614156154235760408051908101604052806008808860ff168115156153cd57fe5b06880360ff168115156153dc57fe5b0460ff1660ff16815260200160088760ff168115156153f757fe5b0660ff1660ff16815250878760ff16603c8110151561541257fe5b602002018190525085806001019650505b8480600101955050615357565b6000925060008660ff16111561553157600094505b8560ff168560ff16108015615458575082155b1561553057868560ff16603c8110151561546e57fe5b60200201519050600189610160019060ff16908160ff16815250506154ba8982600060028110151561549c57fe5b60200201518360016002811015156154b057fe5b6020020151614fc5565b9150816000015115156154cc57600192505b600289610160019060ff16908160ff1681525050615511898260006002811015156154f357fe5b602002015183600160028110151561550757fe5b6020020151614fc5565b91508160000151151561552357600192505b8480600101955050615445565b5b821561554d576001896000019015159081151581525050615570565b600189602001901515908115158152505060008960000190151590811515815250505b8897505b50505050505050919050565b600060026001838560080201016040030260ff16905092915050565b6000808260020a847001000000000000000000000000000000009004029050807001000000000000000000000000000000000291505092915050565b6000808260020a6fffffffffffffffffffffffffffffffff168470010000000000000000000000000000000090046fffffffffffffffffffffffffffffffff1681151561562157fe5b049050807001000000000000000000000000000000000291505092915050565b6000808260020a846401000000009004029050806401000000000291505092915050565b6000808260020a84640100000000900481151561567e57fe5b049050806401000000000291505092915050565b60008060008060006156a48787615580565b935060037001000000000000000000000000000000000292506156c7838561559c565b925082881691506156d882856155d8565b90508070010000000000000000000000000000000090049450505050509392505050565b615704615d9d565b600061570e615d9d565b6000615718615d9d565b600080615723615e25565b600080600096506101006040519081016040528060408051908101604052807fffffffffffffffffffffffffffffffffffffffffffffffffffffffffffffffff60000b60000b81526020016000800b60000b815250815260200160408051908101604052807fffffffffffffffffffffffffffffffffffffffffffffffffffffffffffffffff60000b60000b8152602001600160000b60000b815250815260200160408051908101604052806000800b60000b8152602001600160000b60000b81525081526020016040805190810160405280600160000b60000b8152602001600160000b60000b81525081526020016040805190810160405280600160000b60000b81526020016000800b60000b81525081526020016040805190810160405280600160000b60000b81526020017fffffffffffffffffffffffffffffffffffffffffffffffffffffffffffffffff60000b60000b815250815260200160408051908101604052806000800b60000b81526020017fffffffffffffffffffffffffffffffffffffffffffffffffffffffffffffffff60000b60000b815250815260200160408051908101604052807fffffffffffffffffffffffffffffffffffffffffffffffffffffffffffffffff60000b60000b81526020017fffffffffffffffffffffffffffffffffffffffffffffffffffffffffffffffff60000b60000b8152508152509550600090505b60088160ff161015615a2557858160ff1660088110151561594f57fe5b6020020151925082600060028110151561596557fe5b60200201518c01935082600160028110151561597d57fe5b60200201518b01945060078560000b138061599b575060008560000b125b806159a9575060078460000b135b806159b7575060008460000b125b1515615a18576159cd8d61010001518587615692565b91508c610160015160ff168260ff16141515615a1757600360ff168260ff16141515615a165782888860ff16600881101515615a0557fe5b602002018190525086806001019750505b5b5b8080600101915050615932565b8787995099505050505050505050935093915050565b60008060008060008060008060008060008097508e61016001519650600160ff168f610160015160ff161415615a745760029550615a79565b600195505b60009450600190505b60098160ff161015615b9157841515615b84578c8e6000600281101515615aa557fe5b602002015182020193508b8e6001600281101515615abf57fe5b6020020151820201925060078460000b1380615ade575060008460000b125b80615aec575060078360000b135b80615afa575060008360000b125b15615b1057600098506000975060019450615b83565b615b208f61010001518585615692565b91508560ff168260ff161415615b4957615b3c89898686615c3f565b809950819a505050615b82565b8e610160015160ff168260ff16148015615b66575060018160ff16115b15615b745760019450615b81565b6000985060009750600194505b5b5b5b8080600101915050615a82565b88889a509a5050505050505050505094509492505050565b600080600080600060078760ff161115615bc257600080fd5b60078660ff161115615bd357600080fd5b615bdd8787615580565b93506003700100000000000000000000000000000000029250615c00838561559c565b915088828a181698508760ff16700100000000000000000000000000000000029050615c2c818561559c565b9050808917945050505050949350505050565b600080600060406008850286010160ff16640100000000029050615c64876007615641565b9650808717965085806001019650508686925092505094509492505050565b6101e06040519081016040528060001515815260200160001515815260200160001515815260200160001515815260200160001515815260200160001515815260200160001515815260200160001515815260200160006fffffffffffffffffffffffffffffffff19168152602001600063ffffffff19168152602001600063ffffffff19168152602001600060ff168152602001600060ff168152602001600060ff168152602001600060ff1681525090565b815481835581811511615d5e57818360005260206000209182019101615d5d9190615e4e565b5b505050565b815481835581811511615d98576001016002900481600101600290048360005260206000209182019101615d979190615e4e565b5b505050565b610200604051908101604052806008905b615db6615e73565b815260200190600190039081615dae5790505090565b610f0060405190810160405280603c905b615de5615e9c565b815260200190600190039081615ddd5790505090565b60408051908101604052806002905b600060ff16815260200190600190039081615e0a5790505090565b60408051908101604052806002905b6000800b815260200190600190039081615e345790505090565b615e7091905b80821115615e6c576000816000905550600101615e54565b5090565b90565b60408051908101604052806002905b6000800b815260200190600190039081615e825790505090565b60408051908101604052806002905b600060ff16815260200190600190039081615eab5790505090565b6000615ed28235616936565b905092915050565b6000615ee68235616956565b905092915050565b6000615efa8235616982565b905092915050565b600082601f83011260008114615f1757615f1c565b600080fd5b508135615f30615f2b82616850565b61681a565b91508082526020830160208301858383011160018114615f4f57615f54565b600080fd5b50615f608382846169b8565b50505092915050565b6000615f7582356169ae565b905092915050565b600060208284031260018114615f9257615f97565b600080fd5b506000615fa684828501615ec6565b91505092915050565b60008060408385031260018114615fc557615fca565b600080fd5b506000615fd985828601615ec6565b9250506020615fea85828601615ec6565b9150509250929050565b60008060006060848603126001811461600c57616011565b600080fd5b50600061602086828701615ec6565b935050602061603186828701615ec6565b925050604061604286828701615f69565b9150509250925092565b6000806040838503126001811461606257616067565b600080fd5b50600061607685828601615ec6565b925050602061608785828601615eda565b9150509250929050565b600080604083850312600181146160a7576160ac565b600080fd5b5060006160bb85828601615ec6565b92505060206160cc85828601615f69565b9150509250929050565b6000602082840312600181146160eb576160f0565b600080fd5b5060006160ff84828501615eda565b91505092915050565b6000806040838503126001811461611e57616123565b600080fd5b50600061613285828601615eda565b925050602083013567ffffffffffffffff81116001811461615257616157565b600080fd5b5061616485828601615f02565b9150509250929050565b6000806040838503126001811461618457616189565b600080fd5b50600061619885828601615eda565b92505060206161a985828601615f69565b9150509250929050565b600080604083850312600181146161c9576161ce565b600080fd5b5060006161dd85828601615eee565b92505060206161ee85828601615eee565b9150509250929050565b6000806000806080858703126001811461621157616216565b600080fd5b50600061622587828801615eee565b945050602061623687828801615eee565b935050604061624787828801615eda565b925050606061625887828801615f69565b91505092959194509250565b60008060006060848603126001811461627c57616281565b600080fd5b50600061629086828701615eee565b93505060206162a186828701615eee565b92505060406162b286828701615f69565b9150509250925092565b6000602082840312600181146162d1576162d6565b600080fd5b50600082013567ffffffffffffffff8111600181146162f4576162f9565b600080fd5b5061630684828501615f02565b91505092915050565b60006020828403126001811461632457616329565b600080fd5b50600061633884828501615f69565b91505092915050565b600080604083850312600181146163575761635c565b600080fd5b50600061636b85828601615f69565b925050602061637c85828601615f69565b9150509250929050565b61638f8161689b565b82525050565b61639e816168bb565b82525050565b6163ad816168c7565b82525050565b6163bc816168f3565b82525050565b60006163cd82616890565b8084526163e18160208601602086016169c7565b6163ea816169fa565b602085010191505092915050565b600061640382616885565b8084526164178160208601602086016169c7565b616420816169fa565b602085010191505092915050565b6164378161691f565b82525050565b61644681616929565b82525050565b60006020820190506164616000830184616386565b92915050565b600060408201905061647c6000830185616386565b818103602083015261648e81846163c2565b90509392505050565b6000610100820190506164ad600083018b616386565b6164ba602083018a61642e565b6164c760408301896163a4565b6164d46060830188616395565b6164e160808301876163b3565b6164ee60a08301866163b3565b6164fb60c083018561642e565b61650860e083018461642e565b9998505050505050505050565b600060208201905061652a6000830184616395565b92915050565b600061010082019050616546600083018b616395565b616553602083018a616395565b6165606040830189616395565b61656d6060830188616395565b61657a6080830187616395565b61658760a0830186616395565b61659460c0830185616395565b6165a160e0830184616395565b9998505050505050505050565b600060e0820190506165c3600083018a616395565b6165d060208301896163b3565b6165dd60408301886163b3565b6165ea606083018761642e565b6165f7608083018661642e565b61660460a083018561642e565b61661160c083018461642e565b98975050505050505050565b60006040820190506166326000830185616395565b61663f602083018461642e565b9392505050565b600060208201905061665b60008301846163a4565b92915050565b600060408201905061667660008301856163a4565b6166836020830184616386565b9392505050565b600060408201905061669f60008301856163a4565b81810360208301526166b181846163c2565b90509392505050565b600060c0820190506166cf60008301896163a4565b6166dc602083018861642e565b6166e9604083018761642e565b6166f66060830186616386565b61670360808301856163b3565b61671060a08301846163b3565b979650505050505050565b600060a08201905061673060008301886163a4565b61673d602083018761643d565b61674a604083018661643d565b616757606083018561643d565b616764608083018461643d565b9695505050505050565b6000602082019050818103600083015261678881846163f8565b905092915050565b60006020820190506167a5600083018461642e565b92915050565b600060e0820190506167c0600083018a61642e565b6167cd602083018961642e565b6167da604083018861642e565b6167e7606083018761642e565b6167f4608083018661642e565b61680160a083018561642e565b61680e60c083018461642e565b98975050505050505050565b6000604051905081810181811067ffffffffffffffff8211176001811461684057616845565b600080fd5b508060405250919050565b600067ffffffffffffffff82116001811461686a5761686f565b600080fd5b50601f19601f8301169050602081019050919050565b600081519050919050565b600081519050919050565b600073ffffffffffffffffffffffffffffffffffffffff82169050919050565b60008115159050919050565b60007fffffffffffffffffffffffffffffffff0000000000000000000000000000000082169050919050565b60007fffffffffffffffffffffffffffffffffffffffffffffffffffffffff0000000082169050919050565b6000819050919050565b600060ff82169050919050565b600073ffffffffffffffffffffffffffffffffffffffff82169050919050565b60007fffffffffffffffffffffffffffffffff0000000000000000000000000000000082169050919050565b60007fffffffffffffffffffffffffffffffffffffffffffffffffffffffff0000000082169050919050565b6000819050919050565b82818337600083830152505050565b60005b838110156169e55780820151818401526020810190506169ca565b838111156169f4576000848401525b50505050565b6000601f19601f83011690509190505600a265627a7a72305820dbc3456760f666fbabe804a8a3ecef42b4b82d93d96a23dfc6c9786e6e1bafc16c6578706572696d656e74616cf50037",
  "source": "pragma solidity ^0.4.19;\npragma experimental ABIEncoderV2;\n\nimport \"zeppelin-solidity/contracts/token/ERC20/StandardToken.sol\";\nimport \"./OldReversi.sol\";\n// import \"./oraclizeAPI.sol\";\n\n\ncontract OldToken is StandardToken {\n\n  // Token Contract\n\n  uint256 public decimals = 0;\n  uint256 public INITIAL_SUPPLY = 0; // zero decimals\n  uint256 payMultiplier = 100;\n  uint256 Symmetricals;\n  uint256 RotSym;\n  uint256 Y0Sym;\n  uint256 X0Sym;\n  uint256 XYSym;\n  uint256 XnYSym;\n  uint256 nameLength = 21;\n  address public owner;\n  string public name = \"ClubToken\";\n  string public symbol = \"\";\n\n\n\n  function OldToken() {\n    totalSupply_ = INITIAL_SUPPLY;\n    balances[msg.sender] = INITIAL_SUPPLY;\n    admins[msg.sender] = true;\n    adminKeys.push(msg.sender);\n    owner = msg.sender;\n  }\n\n\n  // Modifiers\n\n  modifier onlyOwner { if (msg.sender != owner) revert(); _; }\n  modifier onlyAdmin { if (!admins[msg.sender]) revert(); _; }\n  modifier doesNotExist(bytes16 b) { if (clovers[b].exists) revert(); _; }\n  modifier exists(bytes16 b) { if (!clovers[b].exists) revert(); _; }\n\n\n\n  // Events\n\n  event newUserName(address player, string name);\n  event newCloverName(bytes16 board, string name);\n  event Registered(address newOwner, uint256 lastPaidAmount, bytes16 board, bool newBoard, bytes28 first32Moves, bytes28 lastMoves, uint256 modified, uint256 findersFee);\n\n\n\n  // Contract Administration\n\n  mapping(address => bool) admins;\n  address[] public adminKeys;\n\n  function getBalance(address someone) public constant returns(uint) {\n    return balances[someone];\n  }\n\n  function myAddress () public constant returns (address) {\n    return msg.sender;\n  }\n\n  function isAdmin () public constant returns (bool) {\n    return admins[msg.sender];\n  }  \n\n  function adminLen () public constant returns (uint256) {\n    return adminKeys.length;\n  } \n\n  function adminAt (uint256 key) public constant returns (address) {\n    return adminKeys[key];\n  }\n\n  function getTallys() public constant returns(uint256, uint256, uint256, uint256, uint256, uint256, uint256) {\n    return (Symmetricals, RotSym, Y0Sym, X0Sym, XYSym, XnYSym, payMultiplier);\n  }\n\n  function changeNameLength (uint256 len) public onlyAdmin() {\n    nameLength = len;\n  }\n\n  function addAdmin (address newbie) public onlyAdmin() {\n    if (!admins[msg.sender]) revert();\n    admins[newbie] = true;\n    adminKeys.push(newbie);\n  }\n\n  function updateMultiplier(uint256 multiplier) public onlyAdmin(){\n    payMultiplier = multiplier;\n  }\n\n\n\n\n  // Player Management\n\n  struct Player {\n    bool exists;\n    uint currentCount;\n    bytes16[] cloverKeys;\n    mapping(bytes16 => bool) clovers;\n  }\n\n  mapping(address => Player) public players;\n  address[] public playerKeys;\n\n  function changeName (string name) {\n    if (bytes(name).length > nameLength) revert();\n    newUserName(msg.sender, name);\n  }\n\n  function listPlayerCount() public constant returns(uint) {\n    return playerKeys.length;\n  }\n\n  function playerAddressByKey(uint playerKey) public constant returns(address) {\n    return playerKeys[playerKey];\n  }\n\n  function playerExists(address player) public constant returns(bool) {\n    return players[player].exists;\n  }\n\n  function playerCurrentCount(address player) public constant returns(uint) {\n    return players[player].currentCount;\n  }\n\n  function playerAllCount(address player) public constant returns(uint) {\n    return players[player].cloverKeys.length;\n  }\n\n  function playerCloverByKey(address player, uint cloverKey) public constant returns(bytes16) {\n    return players[player].cloverKeys[cloverKey];\n  }\n\n  function playerOwnsClover(address player, bytes16 board) public constant returns (bool) {\n    return players[player].clovers[board];\n  }\n\n  function addCloverToPlayer (bytes16 board) internal {\n    if (!players[msg.sender].clovers[board]) {\n      players[msg.sender].clovers[board] = true;\n      players[msg.sender].cloverKeys.push(board);\n    }\n    players[msg.sender].currentCount += 1;\n  }\n\n  function registerPlayer() internal {\n    if (!players[msg.sender].exists) {\n      players[msg.sender].exists = true;\n      playerKeys.push(msg.sender);\n    }\n  }\n\n\n\n  // Clover Management\n\n  struct Clover {\n    bool exists;\n    bytes28 first32Moves;\n    bytes28 lastMoves;\n    uint256 lastPaidAmount;\n    uint256 findersFee;\n    uint256 created;\n    uint256 modified;\n    address[] previousOwners;\n    // bool validated;\n  }\n\n  mapping (bytes16 => Clover) public clovers;\n  bytes16[] public cloverKeys;\n\n  function cloverExists(bytes16 b) public constant returns(bool){\n    return clovers[b].exists;\n  }\n\n  function getCloversCount() public constant returns(uint) {\n    return cloverKeys.length;\n  }\n\n  function getCloverByKey (uint boardKey) public constant returns(bytes16, uint lastPaidAmount, uint owners, address lastOwner, bytes28 first32Moves, bytes28 lastMoves) {\n    bytes16 board = cloverKeys[boardKey];\n    return getClover(board);\n  }\n\n  function getClover (bytes16 board) public exists(board) constant returns(bytes16, uint lastPaidAmount, uint ownersLength, address lastOwner, bytes28 first32Moves, bytes28 lastMoves) {\n    return (board, clovers[board].lastPaidAmount, clovers[board].previousOwners.length, clovers[board].previousOwners[clovers[board].previousOwners.length - 1], clovers[board].first32Moves, clovers[board].lastMoves);\n  }\n\n  function getCloverOwnersLength(bytes16 board) public exists(board) constant returns(uint256) {\n    return clovers[board].previousOwners.length;\n  }\n\n  function getCloverOwner(bytes16 board) public exists(board) constant returns(bytes16, address previousOwner) {\n    return (board, clovers[board].previousOwners[ clovers[board].previousOwners.length - 1 ] );\n  }\n\n  function getCloverOwnerAtKeyByBoard(bytes16 board, uint ownerKey) public exists(board) constant returns(bytes16, address previousOwner) {\n    return (board, clovers[board].previousOwners[ownerKey]);\n  }\n\n  function getCloverOwnerAtKeyByBoardKey(uint boardKey, uint ownerKey) public constant returns(bytes16, address previousOwner) {\n    bytes16 board = cloverKeys[boardKey];\n    if(!clovers[board].exists) revert();\n    return (board, clovers[board].previousOwners[ownerKey]);\n  }\n\n  function renameClover(bytes16 board, string name) public exists(board) {\n    if (bytes(name).length > nameLength) revert();\n    if (clovers[board].previousOwners[clovers[board].previousOwners.length - 1] != msg.sender) revert();\n    newCloverName(board, name);\n  }\n\n  function changeStartPrice(bytes16 board, uint256 startPrice) public exists(board) {\n    if(clovers[board].previousOwners[0] != msg.sender) revert();\n    if(clovers[board].previousOwners.length > 1) revert();\n    Registered(msg.sender, startPrice, board, true, clovers[board].first32Moves, clovers[board].lastMoves, now, clovers[board].findersFee);\n    clovers[board].lastPaidAmount = startPrice;\n  }\n\n  function mineClover(bytes28 first32Moves, bytes28 lastMoves, uint256 startPrice) public {\n    Reversi.Game memory game = Reversi.playGame(first32Moves, lastMoves);\n    // Game memory game = playGame(first32Moves, lastMoves);\n    saveGame(game, startPrice);\n  }\n\n  function adminMineClover (bytes28 first32Moves, bytes28 lastMoves, bytes16 board, uint startPrice) public doesNotExist(board) onlyAdmin() returns(uint boardKey) {\n    registerPlayer();\n    addCloverToPlayer(game.board);\n    Reversi.Game memory game;\n    // Game memory game;\n    game.board = board;\n\n    game = Reversi.isSymmetrical(game);\n    // game = isSymmetrical(game);\n    if (game.symmetrical) {\n      clovers[board].findersFee = findersFee(game);\n      balances[msg.sender] += clovers[board].findersFee;\n      totalSupply_ += clovers[board].findersFee;\n      addToSymmTallys(game);\n    }\n    clovers[board].first32Moves = first32Moves;\n    clovers[board].lastMoves = lastMoves;\n    clovers[board].previousOwners.push(msg.sender);\n    clovers[board].lastPaidAmount = startPrice;\n    clovers[board].exists = true;\n    clovers[board].created = now;\n    clovers[board].modified = now;\n    Registered(msg.sender, startPrice, board, true, first32Moves, lastMoves, now, clovers[board].findersFee);\n    return cloverKeys.push(board);\n  }\n\n  function flipClover (bytes16 b) exists(b) public{\n    // every clover asset is for sale determined on an initial start price\n    // if that clover is purchased, the proceeds are divided evenly among the last two buyers\n    // cant flip board you currently own\n    if (clovers[b].previousOwners[ clovers[b].previousOwners.length - 1 ] == msg.sender) revert();\n    uint nextPrice = clovers[b].previousOwners.length == 1 ? clovers[b].lastPaidAmount : clovers[b].lastPaidAmount.mul(2);\n    if (balances[msg.sender] < nextPrice) revert();\n    registerPlayer();\n    for (uint8 i = 1; i < 3; i++) {\n      if (i <= clovers[b].previousOwners.length) {\n        uint256 lastOwnerKey = clovers[b].previousOwners.length - uint(i);\n        address lastOwner = clovers[b].previousOwners[ lastOwnerKey ];\n\n        balances[msg.sender] = balances[msg.sender].sub(clovers[b].lastPaidAmount);\n\n        balances[lastOwner] = balances[lastOwner].add(clovers[b].lastPaidAmount);\n        if (i == 1) {\n          players[lastOwner].currentCount -= 1;\n        }\n      }\n    }\n    addCloverToPlayer(b);\n    clovers[b].previousOwners.push(msg.sender);\n    clovers[b].lastPaidAmount = nextPrice;\n    clovers[b].modified = now;\n    Registered(msg.sender, nextPrice, b, false, clovers[b].first32Moves, clovers[b].lastMoves, clovers[b].modified, clovers[b].findersFee);\n  }\n\n\n  // Game Management\n  //\n  // see ./Reversi.sol for playGame(), isSymmetrical() and Game struct\n\n\n  function gameIsValid(bytes28 first32Moves, bytes28 lastMoves) public constant returns(bool) {\n    Reversi.Game memory game = Reversi.playGame(first32Moves, lastMoves);\n    // Game memory game = playGame(first32Moves, lastMoves);\n    if (game.error) return false;\n    if (!game.complete) return false;\n    if (!game.symmetrical) return false;\n    return true;\n  }\n\n  function gameExists(bytes28 first32Moves, bytes28 lastMoves) public constant returns(bool) {\n    Reversi.Game memory game = Reversi.playGame(first32Moves, lastMoves);\n    // Game memory game = playGame(first32Moves, lastMoves);\n    if (game.error) revert();\n    if (!game.complete) revert();\n    return clovers[game.board].exists;\n  }\n\n  function debugGame(bytes28 first32Moves, bytes28 lastMoves) public{\n    Reversi.Game memory game = Reversi.playGame(first32Moves, lastMoves);\n    // Game memory game = playGame(first32Moves, lastMoves);\n  }\n  function showGame(bytes28 first32Moves, bytes28 lastMoves) public constant returns(bool error, bool complete, bool symmetrical, bool RotSym, bool Y0Sym, bool X0Sym, bool XYSym, bool XnYSym) {\n    Reversi.Game memory game = Reversi.playGame(first32Moves, lastMoves);\n    // Game memory game = playGame(first32Moves, lastMoves);\n    return returnGame(game);\n  }\n\n  function showGame2(bytes28 first32Moves, bytes28 lastMoves) public constant returns(bytes16 board, uint8 blackScore, uint8 whiteScore, uint8 currentPlayer, uint8 moveKey) {\n    Reversi.Game memory game = Reversi.playGame(first32Moves, lastMoves);\n    // Game memory game = playGame(first32Moves, lastMoves);\n    return (game.board, game.blackScore, game.whiteScore, game.currentPlayer, game.moveKey);\n  }\n\n\n  function getSymmetry(bytes16 b) public constant returns(bool error, bool complete, bool symmetrical, bool RotSym, bool Y0Sym, bool X0Sym, bool XYSym, bool XnYSym) {\n    Reversi.Game memory game;\n    // Game memory game;\n    game.board = b;\n    game = Reversi.isSymmetrical(game);\n    // game = isSymmetrical(game);\n    return returnGame(game);\n  }\n\n  function getFindersFee(bytes16 b) public constant returns(uint256) {\n    Reversi.Game memory game;\n    // Game memory game;\n    game.board = b;\n    game = Reversi.isSymmetrical(game);\n    // game = isSymmetrical(game);\n    return findersFee(game);\n  }\n\n  function returnGame(Reversi.Game game) internal returns(bool error, bool complete, bool symmetrical, bool RotSym, bool Y0Sym, bool X0Sym, bool XYSym, bool XnYSym){\n  // function returnGame(Game game) internal returns(bool error, bool complete, bool symmetrical, bool RotSym, bool Y0Sym, bool X0Sym, bool XYSym, bool XnYSym){\n    return (game.error, game.complete, game.symmetrical, game.RotSym, game.Y0Sym, game.X0Sym, game.XYSym, game.XnYSym);\n  }\n\n  function saveGame(Reversi.Game game, uint256 startPrice) internal returns(uint){\n  // function saveGame(Game game, uint256 startPrice) internal returns(uint){\n    if (game.error) revert();\n    if (!game.complete) revert();\n    if (clovers[game.board].exists) revert();\n    \n    registerPlayer();\n    addCloverToPlayer(game.board);\n    clovers[game.board].first32Moves = game.first32Moves;\n    clovers[game.board].lastMoves = game.lastMoves;\n    clovers[game.board].previousOwners.push(msg.sender);\n    clovers[game.board].lastPaidAmount = startPrice;\n    clovers[game.board].exists = true;\n    clovers[game.board].created = now;\n    clovers[game.board].modified = now;\n    if (game.symmetrical) {\n      clovers[game.board].findersFee = findersFee(game);\n      balances[msg.sender] += clovers[game.board].findersFee;\n      totalSupply_ += clovers[game.board].findersFee;\n      addToSymmTallys(game);\n    }\n    Registered(msg.sender, startPrice, game.board, true, game.first32Moves, game.lastMoves, now, clovers[game.board].findersFee);\n    return cloverKeys.push(game.board);\n  }\n\n  function addToSymmTallys (Reversi.Game game) internal {\n    // if (game.symmetrical) Symmetricals += 1;\n    // if (game.RotSym) RotSym += 1;\n    // if (game.Y0Sym) Y0Sym += 1;\n    // if (game.X0Sym) X0Sym += 1;\n    // if (game.XYSym) XYSym += 1;\n    // if (game.XnYSym) XnYSym += 1;\n  }\n\n  function findersFee (Reversi.Game game) internal constant returns(uint256) {\n    uint256 base = 0;\n\n    if (game.RotSym) base = base.add( payMultiplier.mul( Symmetricals + 1 ).div( RotSym + 1 ) );\n    if (game.Y0Sym) base = base.add( payMultiplier.mul( Symmetricals + 1 ).div( Y0Sym + 1 ) );\n    if (game.X0Sym) base = base.add( payMultiplier.mul( Symmetricals + 1 ).div( X0Sym + 1 ) );\n    if (game.XYSym) base = base.add( payMultiplier.mul( Symmetricals + 1 ).div( XYSym + 1 ) );\n    if (game.XnYSym) base = base.add( payMultiplier.mul( Symmetricals + 1 ).div( XnYSym + 1 ) );\n\n    return base;\n  }\n\n\n  // // Oraclize Management\n\n\n  // function claimClover (bytes16 board, bytes28 first32Moves, bytes28 lastMoves, uint256 startPrice) public {\n  //   registerPlayer();\n\n  //   Clover storage clover;\n  //   clover.first32Moves = first32Moves;\n  //   clover.lastMoves = lastMoves;\n  //   clover.lastPaidAmount = startPrice;\n  //   clover.exists = true;\n\n\n  //   clover.previousOwners.push(msg.sender);\n\n  //   clover.validated = false; // redundant\n\n  //   Game memory game;\n  //   game.board = board;\n  //   clover.findersFee = findersFee(game);\n\n  //   clovers[board] = clover;\n\n  // }\n\n  // // = \"json(https://api.infura.io/v1/jsonrpc/rinkeby/eth_call?to=\"\n  // string validateEndpoint = \"json(https://api.infura.io/v1/jsonrpc/rinkeby/eth_call?to=\";\n  // mapping(bytes32=>bytes16) validIds;\n\n  // function updateValidateEndpoint (string endpoint) public onlyAdmin() {\n  //   validateEndpoint = endpoint;\n  // }\n\n  // function __callback(bytes32 myid, bool valid, bytes proof) {\n  //   if (uint8 (validIds[myid]) == 0) throw;\n  //   if (msg.sender != oraclize_cbAddress()) revert();\n  //   if (!valid) revert();\n  //   bytes16 board = validIds[myid];\n  //   address player = clovers[board].previousOwners[0];\n  //   if (!clovers[board].exists) revert();\n  //   if (clovers[board].validated) revert();\n  //   delete validIds[myid];\n\n\n  //   addCloverToPlayerExplicit(board, player);\n\n  //   balances[player] += clovers[board].findersFee;\n  //   clovers[board].validated = valid;\n\n  //   cloverKeys.push(board);  \n  //   Registered(player, clovers[board].lastPaidAmount, board);\n  // }\n\n  // function returnAddress() public constant returns(address) {\n  //   return this;\n  // }\n\n  // function buildString(bytes28 first32Moves, bytes28 lastMoves) public constant returns(string) {\n  //   string query2 = addressToString(address(this));\n  //   // string memory query3 = \"&data=\";\n  //   // string memory func = bytes32ToString(bytes32(bytes4(sha3(\"gameIsValid(bytes28,bytes28)\"))));\n  //   // string memory param1 = bytes32ToString(bytes32(first32Moves));\n  //   // string memory param2 = bytes32ToString(bytes32(lastMoves));\n  //   // string memory closing = \").result\";\n\n  //   return query2;//strConcat(strConcat(validateEndpoint, query2, query3, func, param1), param2, closing);\n\n  // }\n\n  // function verifyGame(bytes16 board, bytes28 first32Moves, bytes28 lastMoves) payable {\n  //   if (oraclize_getPrice(\"URL\") > this.balance) {\n  //       // newOraclizeQuery(\"Oraclize query was NOT sent, please add some ETH to cover for the query fee\");\n  //   } else {\n\n  //       // newOraclizeQuery(\"Oraclize query was sent, standing by for the answer..\");\n  //       bytes32 queryId = oraclize_query(\"URL\", buildString(first32Moves, lastMoves));\n  //       validIds[queryId] = board;\n  //   }\n  // }\n\n  // function addressToString(address x) returns (string) {\n  //     bytes memory b = new bytes(20);\n  //     for (uint i = 0; i < 20; i++)\n  //       b[i] = byte(uint8(uint256(x) / (2**(8*(19 - i)))));\n  //     return string(b);\n  // }\n  // function bytes32ToString (bytes32 data) constant returns (string) {\n  //   bytes memory bytesString = new bytes(32);\n  //   for (uint j=0; j<32; j++) {\n  //     byte char = byte(bytes32(uint(data) * 2 ** (8 * j)));\n  //     if (char != 0) {\n  //       bytesString[j] = char;\n  //     }\n  //   }\n  //   return string(bytesString);\n  // }\n  // function bytes4ToString (bytes4 data) constant returns (string) {\n  //   bytes memory bytesString = new bytes(4);\n  //   for (uint j=0; j<4; j++) {\n  //     byte char = byte(bytes4(uint(data) * 2 ** (8 * j)));\n  //     if (char != 0) {\n  //       bytesString[j] = char;\n  //     }\n  //   }\n  //   return string(bytesString);\n  // }\n\n  // function strConcat(string _a, string _b, string _c, string _d, string _e) internal returns (string) {\n  //     bytes memory _ba = bytes(_a);\n  //     bytes memory _bb = bytes(_b);\n  //     bytes memory _bc = bytes(_c);\n  //     bytes memory _bd = bytes(_d);\n  //     bytes memory _be = bytes(_e);\n  //     string memory abcde = new string(_ba.length + _bb.length + _bc.length + _bd.length + _be.length);\n  //     bytes memory babcde = bytes(abcde);\n  //     uint k = 0;\n  //     for (uint i = 0; i < _ba.length; i++) babcde[k++] = _ba[i];\n  //     for (i = 0; i < _bb.length; i++) babcde[k++] = _bb[i];\n  //     for (i = 0; i < _bc.length; i++) babcde[k++] = _bc[i];\n  //     for (i = 0; i < _bd.length; i++) babcde[k++] = _bd[i];\n  //     for (i = 0; i < _be.length; i++) babcde[k++] = _be[i];\n  //     return string(babcde);\n  // }\n\n  // function strConcat(string _a, string _b, string _c, string _d) internal returns (string) {\n  //     return strConcat(_a, _b, _c, _d, \"\");\n  // }\n\n  // function strConcat(string _a, string _b, string _c) internal returns (string) {\n  //     return strConcat(_a, _b, _c, \"\", \"\");\n  // }\n\n  // function strConcat(string _a, string _b) internal returns (string) {\n  //     return strConcat(_a, _b, \"\", \"\", \"\");\n  // }\n\n\n}",
  "sourcePath": "/Users/billy/vue/clovers-dapp/contracts/OldToken.sol",
  "compiler": {
    "name": "solc",
    "version": "0.4.19+commit.c4cbbb05.Emscripten.clang"
  },
  "schemaVersion": "1.0.1",
  "updatedAt": "2018-03-25T21:32:18.613Z"
}