{
  "contractName": "Oracle",
  "abi": [
    {
      "constant": true,
      "inputs": [],
      "name": "notOwner",
      "outputs": [
        {
          "name": "",
          "type": "bool"
        }
      ],
      "payable": false,
      "type": "function"
    },
    {
      "constant": false,
      "inputs": [
        {
          "name": "myid",
          "type": "bytes32"
        },
        {
          "name": "result",
          "type": "string"
        }
      ],
      "name": "__callback",
      "outputs": [],
      "payable": false,
      "type": "function"
    },
    {
      "constant": true,
      "inputs": [],
      "name": "getOraclizeAddress",
      "outputs": [
        {
          "name": "",
          "type": "address"
        }
      ],
      "payable": false,
      "type": "function"
    },
    {
      "constant": false,
      "inputs": [
        {
          "name": "myid",
          "type": "bytes32"
        },
        {
          "name": "result",
          "type": "string"
        },
        {
          "name": "proof",
          "type": "bytes"
        }
      ],
      "name": "__callback",
      "outputs": [],
      "payable": false,
      "type": "function"
    },
    {
      "constant": true,
      "inputs": [],
      "name": "getOracleHash",
      "outputs": [
        {
          "name": "",
          "type": "bytes32"
        }
      ],
      "payable": false,
      "type": "function"
    },
    {
      "constant": false,
      "inputs": [
        {
          "name": "clubTokenAddress",
          "type": "address"
        }
      ],
      "name": "setClubToken",
      "outputs": [],
      "payable": false,
      "type": "function"
    },
    {
      "constant": false,
      "inputs": [
        {
          "name": "board",
          "type": "bytes16"
        },
        {
          "name": "player",
          "type": "address"
        },
        {
          "name": "endpoint",
          "type": "string"
        },
        {
          "name": "payload",
          "type": "string"
        }
      ],
      "name": "mineClover1",
      "outputs": [],
      "payable": false,
      "type": "function"
    },
    {
      "constant": true,
      "inputs": [],
      "name": "getSender",
      "outputs": [
        {
          "name": "",
          "type": "address"
        }
      ],
      "payable": false,
      "type": "function"
    },
    {
      "constant": true,
      "inputs": [
        {
          "name": "endpoint",
          "type": "string"
        }
      ],
      "name": "confirmHash",
      "outputs": [
        {
          "name": "",
          "type": "bool"
        }
      ],
      "payable": false,
      "type": "function"
    },
    {
      "constant": false,
      "inputs": [
        {
          "name": "endpoint",
          "type": "string"
        }
      ],
      "name": "setOracleHash",
      "outputs": [],
      "payable": false,
      "type": "function"
    },
    {
      "constant": true,
      "inputs": [],
      "name": "getOwner",
      "outputs": [
        {
          "name": "",
          "type": "address"
        }
      ],
      "payable": false,
      "type": "function"
    },
    {
      "constant": true,
      "inputs": [],
      "name": "isOwner",
      "outputs": [
        {
          "name": "",
          "type": "bool"
        }
      ],
      "payable": false,
      "type": "function"
    },
    {
      "constant": false,
      "inputs": [],
      "name": "deposit",
      "outputs": [],
      "payable": true,
      "type": "function"
    },
    {
      "constant": true,
      "inputs": [],
      "name": "getClubTokenAddress",
      "outputs": [
        {
          "name": "",
          "type": "address"
        }
      ],
      "payable": false,
      "type": "function"
    },
    {
      "inputs": [],
      "payable": false,
      "type": "constructor"
    },
    {
      "anonymous": false,
      "inputs": [
        {
          "indexed": false,
          "name": "message",
          "type": "string"
        }
      ],
      "name": "newOraclizeQuery",
      "type": "event"
    }
  ],
  "bytecode": "0x6060604052606060405190810160405280603b81526020017f6a736f6e2868747470733a2f2f72696e6b6562792e696e667572612e696f2f5181526020017f354937414136756e524c554c734c5459643664292e726573756c740000000000815250600a90805162000076929160200190620000a6565b5034156200008357600080fd5b5b60068054600160a060020a03191633600160a060020a03161790555b62000150565b828054600181600116156101000203166002900490600052602060002090601f016020900481019282601f10620000e957805160ff191683800117855562000119565b8280016001018555821562000119579182015b8281111562000119578251825591602001919060010190620000fc565b5b50620001289291506200012c565b5090565b6200014d91905b8082111562000128576000815560010162000133565b5090565b90565b61196d80620001606000396000f300606060405236156100b45763ffffffff60e060020a600035041663251c9d6381146100b957806327dc297e146100e0578063303f29071461013857806338bbfa50146101675780633dda6643146102015780634f59a9481461022657806353a5dcd4146102475780635e01eb5a146103035780637ca645c51461033257806386e4aefc14610397578063893d20e8146103ea5780638f32d59b14610419578063d0e30db014610440578063d4a5b80e1461044a575b600080fd5b34156100c457600080fd5b6100cc610479565b604051901515815260200160405180910390f35b34156100eb57600080fd5b610136600480359060446024803590810190830135806020601f820181900481020160405190810160405281815292919060208401838380828437509496506104ae95505050505050565b005b341561014357600080fd5b61014b610721565b604051600160a060020a03909116815260200160405180910390f35b341561017257600080fd5b610136600480359060446024803590810190830135806020601f8201819004810201604051908101604052818152929190602084018383808284378201915050505050509190803590602001908201803590602001908080601f01602080910402602001604051908101604052818152929190602084018383808284375094965061073195505050505050565b005b341561020c57600080fd5b610214610737565b60405190815260200160405180910390f35b341561023157600080fd5b610136600160a060020a036004351661073e565b005b341561025257600080fd5b610136600480356fffffffffffffffffffffffffffffffff19169060248035600160a060020a0316919060649060443590810190830135806020601f8201819004810201604051908101604052818152929190602084018383808284378201915050505050509190803590602001908201803590602001908080601f01602080910402602001604051908101604052818152929190602084018383808284375094965061079495505050505050565b005b341561030e57600080fd5b61014b610abf565b604051600160a060020a03909116815260200160405180910390f35b341561033d57600080fd5b6100cc60046024813581810190830135806020601f82018190048102016040519081016040528181529291906020840183838082843750949650610ac495505050505050565b604051901515815260200160405180910390f35b34156103a257600080fd5b61013660046024813581810190830135806020601f82018190048102016040519081016040528181529291906020840183838082843750949650610b3195505050505050565b005b34156103f557600080fd5b61014b610be1565b604051600160a060020a03909116815260200160405180910390f35b341561042457600080fd5b6100cc610bf1565b604051901515815260200160405180910390f35b610136610c32565b005b341561045557600080fd5b61014b610c35565b604051600160a060020a03909116815260200160405180910390f35b60065460009033600160a060020a03908116911614806104a7575060055433600160a060020a039081169116145b1590505b90565b60008281526008602052604081205481907001000000000000000000000000000000009081020460ff1615610717576104e5610c45565b600160a060020a031633600160a060020a031614156107175750506000828152600860205260409020805460019091015470010000000000000000000000000000000090910290600160a060020a03168260418151811061054257fe5b016020015160f860020a900460f860020a02600160f860020a031916603160f860020a021415156105e057600554600160a060020a031663d43316ef8360405160e060020a63ffffffff84160281526fffffffffffffffffffffffffffffffff199091166004820152602401600060405180830381600087803b15156105c757600080fd5b6102c65a03f115156105d857600080fd5b505050610717565b600554600160a060020a0316632fefba318360006040516020015260405160e060020a63ffffffff84160281526fffffffffffffffffffffffffffffffff199091166004820152602401602060405180830381600087803b151561064357600080fd5b6102c65a03f1151561065457600080fd5b505050604051805190501561071757600554600160a060020a031663ae3069f7838360405160e060020a63ffffffff85160281526fffffffffffffffffffffffffffffffff199092166004830152600160a060020a03166024820152604401600060405180830381600087803b15156106cc57600080fd5b6102c65a03f115156106dd57600080fd5b505050600084815260086020526040902080546fffffffffffffffffffffffffffffffff191681556001018054600160a060020a03191690555b5b5b5b5b50505050565b600061072b610c45565b90505b90565b5b505050565b6007545b90565b60065433600160a060020a0390811691161480610769575060055433600160a060020a039081169116145b151561077457600080fd5b60058054600160a060020a031916600160a060020a0383161790555b5b50565b61079c61187d565b60065460009033600160a060020a03908116911614806107ca575060055433600160a060020a039081169116145b15156107d557600080fd5b600754846040518082805190602001908083835b6020831061080957805182525b601f1990920191602091820191016107e9565b6001836020036101000a03801982511681845116179092525050509190910192506040915050519081900390201415806108435750600754155b1561084d57600080fd5b30600160a060020a03163161089460408051908101604052600381527f55524c00000000000000000000000000000000000000000000000000000000006020820152610d61565b1115610972577f46cb989ef9cef13e930e3b7f286225a086e716a90d63e0b7da85d310a9db0c9a60405160208082526015908201527f436f6e7472616374204f7574204f66204d6f6e657900000000000000000000006040808301919091526060909101905180910390a1600554600160a060020a031663d43316ef8760405160e060020a63ffffffff84160281526fffffffffffffffffffffffffffffffff199091166004820152602401600060405180830381600087803b151561095957600080fd5b6102c65a03f1151561096a57600080fd5b505050610ab5565b61097c8484610eed565b9150610a5c6040805190810160405280600381526020017f55524c0000000000000000000000000000000000000000000000000000000000815250600a8054600181600116156101000203166002900480601f016020809104026020016040519081016040528092919081815260200182805460018160011615610100020316600290048015610a4d5780601f10610a2257610100808354040283529160200191610a4d565b820191906000526020600020905b815481529060010190602001808311610a3057829003601f168201915b50505050508462061a80610f39565b600081815260086020526040902080546fffffffffffffffffffffffffffffffff191670010000000000000000000000000000000089041781556001018054600160a060020a031916600160a060020a03881617905590505b5b5b505050505050565b335b90565b600754600090826040518082805190602001908083835b60208310610afb57805182525b601f199092019160209182019101610adb565b6001836020036101000a03801982511681845116179092525050509190910192506040915050519081900390201490505b919050565b60065433600160a060020a0390811691161480610b5c575060055433600160a060020a039081169116145b1515610b6757600080fd5b600b818051610b7a92916020019061188f565b50806040518082805190602001908083835b60208310610bac57805182525b601f199092019160209182019101610b8c565b6001836020036101000a03801982511681845116179092525050509190910192506040915050519081900390206007555b5b50565b600654600160a060020a03165b90565b60065460009033600160a060020a0390811691161480610c1f575060055433600160a060020a039081169116145b1515610c2a57600080fd5b5060015b5b90565b5b565b600554600160a060020a03165b90565b60008054600160a060020a03161580610c705750600054610c6e90600160a060020a03166112a9565b155b15610c8157610c7f60006112b1565b505b60008054600160a060020a0316906338cc483190604051602001526040518163ffffffff1660e060020a028152600401602060405180830381600087803b1515610cca57600080fd5b6102c65a03f11515610cdb57600080fd5b505050604051805160018054600160a060020a031916600160a060020a03928316179081905516905063c281d19e6000604051602001526040518163ffffffff1660e060020a028152600401602060405180830381600087803b1515610d4057600080fd5b6102c65a03f11515610d5157600080fd5b50505060405180519150505b5b90565b60008054600160a060020a03161580610d8c5750600054610d8a90600160a060020a03166112a9565b155b15610d9d57610d9b60006112b1565b505b60008054600160a060020a0316906338cc483190604051602001526040518163ffffffff1660e060020a028152600401602060405180830381600087803b1515610de657600080fd5b6102c65a03f11515610df757600080fd5b505050604051805160018054600160a060020a031916600160a060020a03928316179081905516905063524f3889836000604051602001526040518263ffffffff1660e060020a0281526004018080602001828103825283818151815260200191508051906020019080838360005b83811015610e7f5780820151818401525b602001610e66565b50505050905090810190601f168015610eac5780820380516001836020036101000a031916815260200191505b5092505050602060405180830381600087803b1515610eca57600080fd5b6102c65a03f11515610edb57600080fd5b50505060405180519150505b5b919050565b610ef561187d565b610f308383602060405190810160405280600081525060206040519081016040528060008152506020604051908101604052600081526115f0565b90505b92915050565b600080548190600160a060020a03161580610f665750600054610f6490600160a060020a03166112a9565b155b15610f7757610f7560006112b1565b505b60008054600160a060020a0316906338cc483190604051602001526040518163ffffffff1660e060020a028152600401602060405180830381600087803b1515610fc057600080fd5b6102c65a03f11515610fd157600080fd5b505050604051805160018054600160a060020a031916600160a060020a039283161790819055169050632ef3accc87856000604051602001526040518363ffffffff1660e060020a0281526004018080602001838152602001828103825284818151815260200191508051906020019080838360005b838110156110605780820151818401525b602001611047565b50505050905090810190601f16801561108d5780820380516001836020036101000a031916815260200191505b509350505050602060405180830381600087803b15156110ac57600080fd5b6102c65a03f115156110bd57600080fd5b5050506040518051915050670de0b6b3a76400003a8402018111156110e5576000915061129f565b600154600160a060020a03166385dee34c8260008989898984604051602001526040518763ffffffff1660e060020a02815260040180868152602001806020018060200180602001858152602001848103845288818151815260200191508051906020019080838360005b838110156111695780820151818401525b602001611150565b50505050905090810190601f1680156111965780820380516001836020036101000a031916815260200191505b50848103835287818151815260200191508051906020019080838360005b838110156111cd5780820151818401525b6020016111b4565b50505050905090810190601f1680156111fa5780820380516001836020036101000a031916815260200191505b50848103825286818151815260200191508051906020019080838360005b838110156112315780820151818401525b602001611218565b50505050905090810190601f16801561125e5780820380516001836020036101000a031916815260200191505b50985050505050505050506020604051808303818588803b151561128157600080fd5b6125ee5a03f1151561129257600080fd5b5050505060405180519250505b5b50949350505050565b803b5b919050565b6000806112d1731d3b2638a7cc9f2cb3d298a3da7a90b67e5506ed6112a9565b11156113415760008054600160a060020a031916731d3b2638a7cc9f2cb3d298a3da7a90b67e5506ed17905561133960408051908101604052600b81527f6574685f6d61696e6e65740000000000000000000000000000000000000000006020820152611865565b506001610b2c565b600061136073c03a2615d5efaf5f49f60b7bb6583eaec212fdf16112a9565b11156113d05760008054600160a060020a03191673c03a2615d5efaf5f49f60b7bb6583eaec212fdf117905561133960408051908101604052600c81527f6574685f726f707374656e3300000000000000000000000000000000000000006020820152611865565b506001610b2c565b60006113ef73b7a07bcf2ba2f2703b24c0691b5278999c59ac7e6112a9565b111561145f5760008054600160a060020a03191673b7a07bcf2ba2f2703b24c0691b5278999c59ac7e17905561133960408051908101604052600981527f6574685f6b6f76616e00000000000000000000000000000000000000000000006020820152611865565b506001610b2c565b600061147e73146500cfd35b22e4a392fe0adc06de1a1368ed486112a9565b11156114ee5760008054600160a060020a03191673146500cfd35b22e4a392fe0adc06de1a1368ed4817905561133960408051908101604052600b81527f6574685f72696e6b6562790000000000000000000000000000000000000000006020820152611865565b506001610b2c565b600061150d736f485c8bf6fc43ea212e93bbf8ce046c7f1cb4756112a9565b1115611541575060008054600160a060020a031916736f485c8bf6fc43ea212e93bbf8ce046c7f1cb4751790556001610b2c565b60006115607320e12a1f859b3feae5fb2a0a32c18f5a65555bbf6112a9565b1115611594575060008054600160a060020a0319167320e12a1f859b3feae5fb2a0a32c18f5a65555bbf1790556001610b2c565b60006115b37351efaf4c8b3c9afbd5ab9f4bbc82784ab6ef8faa6112a9565b11156115e7575060008054600160a060020a0319167351efaf4c8b3c9afbd5ab9f4bbc82784ab6ef8faa1790556001610b2c565b5060005b919050565b6115f861187d565b61160061187d565b61160861187d565b61161061187d565b61161861187d565b61162061187d565b61162861187d565b61163061187d565b6000808e98508d97508c96508b95508a94508451865188518a518c510101010160405180591061165d5750595b908082528060200260200182016040525b50935083925060009150600090505b88518110156116d75788818151811061169257fe5b016020015160f860020a900460f860020a028383806001019450815181106116b657fe5b906020010190600160f860020a031916908160001a9053505b60010161167d565b5060005b8751811015611735578781815181106116f057fe5b016020015160f860020a900460f860020a0283838060010194508151811061171457fe5b906020010190600160f860020a031916908160001a9053505b6001016116db565b5060005b86518110156117935786818151811061174e57fe5b016020015160f860020a900460f860020a0283838060010194508151811061177257fe5b906020010190600160f860020a031916908160001a9053505b600101611739565b5060005b85518110156117f1578581815181106117ac57fe5b016020015160f860020a900460f860020a028383806001019450815181106117d057fe5b906020010190600160f860020a031916908160001a9053505b600101611797565b5060005b845181101561184f5784818151811061180a57fe5b016020015160f860020a900460f860020a0283838060010194508151811061182e57fe5b906020010190600160f860020a031916908160001a9053505b6001016117f5565b8299505b50505050505050505095945050505050565b600281805161187892916020019061188f565b505b50565b60206040519081016040526000815290565b828054600181600116156101000203166002900490600052602060002090601f016020900481019282601f106118d057805160ff19168380011785556118fd565b828001600101855582156118fd579182015b828111156118fd5782518255916020019190600101906118e2565b5b5061190a929150611920565b5090565b60206040519081016040526000815290565b6104ab91905b8082111561190a5760008155600101611926565b5090565b905600a165627a7a72305820228d67d7523725f42578b03b09e57b3018643b5851e50b31ca0c52dc3545ffdc0029",
  "source": "pragma solidity ^0.4.13;\n\nimport \"./ClubToken.sol\";\nimport \"./oraclizeAPI.sol\";\n\ncontract Oracle is usingOraclize {\n\n  function Oracle() {\n    owner = msg.sender;\n  }\n\n  ClubToken clubToken;\n  \n  event newOraclizeQuery(string message);\n\n  struct Claim {\n    bytes16 board;\n    address player;\n  }\n\n  address owner;\n  bytes32 oracleHash;\n  mapping (bytes32=>Claim) validIds;\n  bytes32[] validIdKeys;\n  string infura = 'json(https://rinkeby.infura.io/Q5I7AA6unRLULsLTYd6d).result';\n  string prefix;\n\n  // Modifiers\n\n  modifier onlyOwner { if (!(msg.sender == owner || msg.sender == address(clubToken))) revert(); _; }\n\n  // Public & Constant\n\n  function getOraclizeAddress () public constant returns(address) {\n    return oraclize_cbAddress();\n  }\n\n  // function getValidIdKeysCount () public constant returns(uint) {\n  //   return validIdKeys.length;\n  // }\n\n  // function getValidIdAtKey (uint key) public constant returns(bytes16) {\n  //   return validIds[validIdKeys[key]];\n  // }\n\n  function getClubTokenAddress () public constant returns(address) {\n    return address(clubToken);\n  }\n\n  function getOwner () public constant returns(address) {\n    return owner;\n  }\n\n  function getSender () public constant returns(address) {\n    return msg.sender;\n  }\n\n  function confirmHash (string endpoint) public constant returns(bool) {\n    return sha3(endpoint) == oracleHash;\n  }\n\n  function getOracleHash () public constant returns(bytes32) {\n    return oracleHash;\n  }\n\n  function isOwner () public constant onlyOwner() returns(bool) {\n    return true;\n  }\n\n  function notOwner () public constant returns(bool) {\n    return !(msg.sender == owner || msg.sender == address(clubToken));\n  }\n\n  // Public & Transactional\n\n  function deposit() public payable {}\n\n  function setClubToken (address clubTokenAddress) public onlyOwner() {\n    clubToken = ClubToken(clubTokenAddress);\n  }\n\n  function setOracleHash(string endpoint) public onlyOwner() {\n    prefix = endpoint;\n    oracleHash = sha3(endpoint);\n  }\n\n  function mineClover1(bytes16 board, address player, string endpoint, string payload) public onlyOwner(){\n    if (sha3(endpoint) != oracleHash || uint(oracleHash) == 0) revert();\n    if (oraclize_getPrice(\"URL\") > this.balance) {\n        newOraclizeQuery(\"Contract Out Of Money\");\n        clubToken.deleteClover(board);\n    } else {\n        string memory foo = strConcat(endpoint, payload);\n        bytes32 queryId = oraclize_query(\"URL\", infura, foo, 400000);\n        validIds[queryId].board = board;\n        validIds[queryId].player = player;\n    }\n  }\n\n  function __callback(bytes32 myid, string result) {\n    if (uint8(validIds[myid].board) != 0) {\n      if (msg.sender == oraclize_cbAddress()) {\n        bytes16 board = validIds[myid].board;\n        address player = validIds[myid].player;\n        if (bytes(result)[65] != 0x31) {\n          clubToken.deleteClover(board);\n        } else {\n          if (clubToken.cloverExistsUnvalidated(board)) {\n            clubToken.oracleAddClover(board, player);\n            delete validIds[myid];\n          }\n        }\n      }\n    }\n  }\n\n}",
  "sourcePath": "/Users/billy/vue/clovers-dapp/contracts/Oracle.sol",
  "schemaVersion": "1.0.0",
  "updatedAt": "2017-10-08T11:17:34.875Z"
}