{
  "contractName": "StandardToken",
  "abi": [
    {
      "constant": false,
      "inputs": [
        {
          "name": "_spender",
          "type": "address"
        },
        {
          "name": "_value",
          "type": "uint256"
        }
      ],
      "name": "approve",
      "outputs": [
        {
          "name": "",
          "type": "bool"
        }
      ],
      "payable": false,
      "type": "function"
    },
    {
      "constant": true,
      "inputs": [],
      "name": "totalSupply",
      "outputs": [
        {
          "name": "",
          "type": "uint256"
        }
      ],
      "payable": false,
      "type": "function"
    },
    {
      "constant": false,
      "inputs": [
        {
          "name": "_from",
          "type": "address"
        },
        {
          "name": "_to",
          "type": "address"
        },
        {
          "name": "_value",
          "type": "uint256"
        }
      ],
      "name": "transferFrom",
      "outputs": [
        {
          "name": "",
          "type": "bool"
        }
      ],
      "payable": false,
      "type": "function"
    },
    {
      "constant": true,
      "inputs": [
        {
          "name": "_owner",
          "type": "address"
        }
      ],
      "name": "balanceOf",
      "outputs": [
        {
          "name": "balance",
          "type": "uint256"
        }
      ],
      "payable": false,
      "type": "function"
    },
    {
      "constant": false,
      "inputs": [
        {
          "name": "_to",
          "type": "address"
        },
        {
          "name": "_value",
          "type": "uint256"
        }
      ],
      "name": "transfer",
      "outputs": [
        {
          "name": "",
          "type": "bool"
        }
      ],
      "payable": false,
      "type": "function"
    },
    {
      "constant": true,
      "inputs": [
        {
          "name": "_owner",
          "type": "address"
        },
        {
          "name": "_spender",
          "type": "address"
        }
      ],
      "name": "allowance",
      "outputs": [
        {
          "name": "remaining",
          "type": "uint256"
        }
      ],
      "payable": false,
      "type": "function"
    },
    {
      "anonymous": false,
      "inputs": [
        {
          "indexed": true,
          "name": "owner",
          "type": "address"
        },
        {
          "indexed": true,
          "name": "spender",
          "type": "address"
        },
        {
          "indexed": false,
          "name": "value",
          "type": "uint256"
        }
      ],
      "name": "Approval",
      "type": "event"
    },
    {
      "anonymous": false,
      "inputs": [
        {
          "indexed": true,
          "name": "from",
          "type": "address"
        },
        {
          "indexed": true,
          "name": "to",
          "type": "address"
        },
        {
          "indexed": false,
          "name": "value",
          "type": "uint256"
        }
      ],
      "name": "Transfer",
      "type": "event"
    }
  ],
  "bytecode": "0x6060604052341561000f57600080fd5b5b6104da8061001f6000396000f300606060405236156100755763ffffffff7c0100000000000000000000000000000000000000000000000000000000600035041663095ea7b3811461007a57806318160ddd146100b057806323b872dd146100d557806370a0823114610111578063a9059cbb14610142578063dd62ed3e14610178575b600080fd5b341561008557600080fd5b61009c600160a060020a03600435166024356101af565b604051901515815260200160405180910390f35b34156100bb57600080fd5b6100c3610256565b60405190815260200160405180910390f35b34156100e057600080fd5b61009c600160a060020a036004358116906024351660443561025c565b604051901515815260200160405180910390f35b341561011c57600080fd5b6100c3600160a060020a0360043516610371565b60405190815260200160405180910390f35b341561014d57600080fd5b61009c600160a060020a0360043516602435610390565b604051901515815260200160405180910390f35b341561018357600080fd5b6100c3600160a060020a0360043581169060243516610450565b60405190815260200160405180910390f35b60008115806101e15750600160a060020a03338116600090815260026020908152604080832093871683529290522054155b15156101ec57600080fd5b600160a060020a03338116600081815260026020908152604080832094881680845294909152908190208590557f8c5be1e5ebec7d5bd14f71427d1e84f3dd0314c0f7b2291e5b200ac8c7c3b9259085905190815260200160405180910390a35060015b92915050565b60005481565b600160a060020a0380841660009081526002602090815260408083203385168452825280832054938616835260019091528120549091906102a3908463ffffffff61047d16565b600160a060020a0380861660009081526001602052604080822093909355908716815220546102d8908463ffffffff61049716565b600160a060020a038616600090815260016020526040902055610301818463ffffffff61049716565b600160a060020a03808716600081815260026020908152604080832033861684529091529081902093909355908616917fddf252ad1be2c89b69c2b068fc378daa952ba7f163c4a11628f55a4df523b3ef9086905190815260200160405180910390a3600191505b509392505050565b600160a060020a0381166000908152600160205260409020545b919050565b600160a060020a0333166000908152600160205260408120546103b9908363ffffffff61049716565b600160a060020a0333811660009081526001602052604080822093909355908516815220546103ee908363ffffffff61047d16565b600160a060020a0380851660008181526001602052604090819020939093559133909116907fddf252ad1be2c89b69c2b068fc378daa952ba7f163c4a11628f55a4df523b3ef9085905190815260200160405180910390a35060015b92915050565b600160a060020a038083166000908152600260209081526040808320938516835292905220545b92915050565b60008282018381101561048c57fe5b8091505b5092915050565b6000828211156104a357fe5b508082035b929150505600a165627a7a7230582027babed258a349e3c292f63567124eea9078f85ee5423c6e149e5a7da991558c0029",
  "source": "pragma solidity ^0.4.11;\n\n\nimport './BasicToken.sol';\nimport './ERC20.sol';\n\n\n/**\n * @title Standard ERC20 token\n *\n * @dev Implementation of the basic standard token.\n * @dev https://github.com/ethereum/EIPs/issues/20\n * @dev Based on code by FirstBlood: https://github.com/Firstbloodio/token/blob/master/smart_contract/FirstBloodToken.sol\n */\ncontract StandardToken is ERC20, BasicToken {\n\n  mapping (address => mapping (address => uint256)) allowed;\n\n\n  /**\n   * @dev Transfer tokens from one address to another\n   * @param _from address The address which you want to send tokens from\n   * @param _to address The address which you want to transfer to\n   * @param _value uint256 the amout of tokens to be transfered\n   */\n  function transferFrom(address _from, address _to, uint256 _value) returns (bool) {\n    var _allowance = allowed[_from][msg.sender];\n\n    // Check is not needed because sub(_allowance, _value) will already throw if this condition is not met\n    // require (_value <= _allowance);\n\n    balances[_to] = balances[_to].add(_value);\n    balances[_from] = balances[_from].sub(_value);\n    allowed[_from][msg.sender] = _allowance.sub(_value);\n    Transfer(_from, _to, _value);\n    return true;\n  }\n\n  /**\n   * @dev Aprove the passed address to spend the specified amount of tokens on behalf of msg.sender.\n   * @param _spender The address which will spend the funds.\n   * @param _value The amount of tokens to be spent.\n   */\n  function approve(address _spender, uint256 _value) returns (bool) {\n\n    // To change the approve amount you first have to reduce the addresses`\n    //  allowance to zero by calling `approve(_spender, 0)` if it is not\n    //  already 0 to mitigate the race condition described here:\n    //  https://github.com/ethereum/EIPs/issues/20#issuecomment-263524729\n    require((_value == 0) || (allowed[msg.sender][_spender] == 0));\n\n    allowed[msg.sender][_spender] = _value;\n    Approval(msg.sender, _spender, _value);\n    return true;\n  }\n\n  /**\n   * @dev Function to check the amount of tokens that an owner allowed to a spender.\n   * @param _owner address The address which owns the funds.\n   * @param _spender address The address which will spend the funds.\n   * @return A uint256 specifing the amount of tokens still avaible for the spender.\n   */\n  function allowance(address _owner, address _spender) constant returns (uint256 remaining) {\n    return allowed[_owner][_spender];\n  }\n\n}\n",
  "sourcePath": "zeppelin-solidity/contracts/token/StandardToken.sol",
  "schemaVersion": "1.0.0",
  "updatedAt": "2017-10-08T11:17:34.997Z"
}